:020000040800F2
:10400000C8040020454100089B4100089341000876
:10401000974100088D41000811420008000000008F
:10402000000000000000000000000000C741000880
:104030009141000800000000C5410008C941000886
:104040005F4100085F4100085F4100085F410008D0
:104050005F4100085F4100085F4100085F410008C0
:104060005F4100085F4100085F4100085F410008B0
:104070005F4100085F4100085F4100085F410008A0
:104080005F4100085F4100085F4100085F41000890
:104090005F4100085F4100085F4100085F41000880
:1040A0005F4100085F4100085F4100085F41000870
:1040B0005F4100085F4100085F4100085F41000860
:1040C0005F4100085F4100085F4100085F41000850
:1040D0005F4100085F4100085F4100085F41000840
:1040E0005F4100085F4100085F4100085F41000830
:1040F0005F4100085F4100085F4100085F41000820
:104100005F4100085F4100085F4100085F4100080F
:104110005F4100085F4100085F4100085F410008FF
:104120005F4100085F4100085F4100085F410008EF
:10413000DFF80CD000F018F800480047CD4D00081B
:10414000C80400200648804706480047FEE7FEE70F
:10415000FEE7FEE7FEE7FEE7FEE7FEE7FEE7FEE737
:10416000D141000831410008064C074D06E0E068E7
:1041700040F0010394E8070098471034AC42F6D3AE
:10418000FFF7DAFF6CF300088CF3000800BFFEE7CE
:10419000704700BFFEE700BFFEE7704710B500287C
:1041A00007DA0A07140E054A00F00F031B1FD45448
:1041B00003E00A07130E024A135410BD18ED00E085
:1041C00000E400E07047704710B500F0B7F910BD8B
:1041D00010B50D48006840F001000B490860002050
:1041E0004860C862084600680849084006490860F7
:1041F0004FF41F0088600846006820F480200860A3
:1042000001F004F810BD000000100240FFFFF6FEB0
:1042100000BFFEE702E008C8121F08C1002AFAD159
:1042200070477047002001E001C1121F002AFBD136
:1042300070470000FEB50646B348DFF8D0C20090D4
:10424000BCF800C00CF14F0C1FFA8CF3DFF8C0C2B1
:10425000BCF800C00CF1450C1FFA8CF2DFF8ACC2C0
:10426000BCF800C00CF1280C1FFA8CF1DFF8A0C2DA
:10427000BCF800C00CF11E0C1FFA8CF000F01FFD02
:10428000A148DFF888C20090BCF800C00CF14F0CC8
:104290001FFA8CF3DFF87CC2BCF800C00CF1450CAF
:1042A0001FFA8CF2DFF864C2BCF800C00CF1280CD5
:1042B0001FFA8CF1DFF85CC2BCF800C00CF11E0CD8
:1042C0001FFA8CF000F0FBFC8F48DFF84CC2009026
:1042D000BCF800C00CF14F0C1FFA8CF3DFF830C2B1
:1042E000BCF800C00CF1450C1FFA8CF2DFF828C2B4
:1042F000BCF800C00CF1280C1FFA8CF1DFF810C2DA
:10430000BCF800C00CF11E0C1FFA8CF000F0D7FCBA
:104310007D48DFF804C20090BCF800C00CF14F0CDF
:104320001FFA8CF3DFF8ECC1BCF800C00CF1450CAF
:104330001FFA8CF2DFF8E0C1BCF800C00CF1280CC9
:104340001FFA8CF1DFF8CCC1BCF800C00CF11E0CD8
:104350001FFA8CF000F0B3FC1827704D4FF6FF7079
:104360006F498880002411E06D484068009015F87E
:10437000012BE1001E3188B269490B68019349683D
:104380000291BE2100F0FCFA601C84B2BC42EBDB5F
:1043900036B1012E29D0022E4CD0032E6FD16FE002
:1043A0006048DFF868C10090BCF800C00CF14F0C09
:1043B0001FFA8CF3DFF858C1BCF800C00CF1450CB3
:1043C0001FFA8CF2DFF844C1BCF800C00CF1280CD5
:1043D0001FFA8CF1DFF838C1BCF800C00CF11E0CDC
:1043E0001FFA8CF000F06BFC8BE04E48DFF81CC12C
:1043F0000090BCF800C00CF14F0C1FFA8CF3DFF8F2
:1044000014C1BCF800C00CF1450C1FFA8CF2DFF8A7
:10441000FCC0BCF800C00CF1280C1FFA8CF1DFF8CE
:10442000F4C0BCF800C00CF11E0C1FFA8CF000F0B8
:1044300046FC66E03B48DFF8E0C00090BCF800C0F6
:104440000CF14F0C1FFA8CF3DFF8C4C0BCF800C0AD
:104450000CF1450C1FFA8CF2DFF8BCC0BCF800C0B0
:104460000CF1280C1FFA8CF1DFF8A4C0BCF800C0D6
:104470000CF11E0C1FFA8CF000F021FC41E024E04E
:104480002848DFF894C00090BCF800C00CF14F0C35
:104490001FFA8CF3DFF87CC0BCF800C00CF1450CAF
:1044A0001FFA8CF2DFF870C0BCF800C00CF1280CC9
:1044B0001FFA8CF1DFF85CC0BCF800C00CF11E0CD8
:1044C0001FFA8CF000F0FBFB1BE0144D4FF478401A
:1044D00013498880002411E011484068009015F8C5
:1044E000012BE1001E3188B20D490B680193496828
:1044F0000291BE2100F044FA601C84B2BC42EBDBA6
:1045000000BF00BFFEBD0000247A000806000020A6
:104510000000002002000020080000200C00002005
:10452000280000209C6D00080349086000BF024974
:1045300009680029FBD1704730000020044800685A
:1045400020B103480068401E014908607047000020
:104550003000002000B597B04FF4A16000F08AFD54
:1045600040F2056000F086FD40F2066000F082FD3A
:104570004FF4C16000F07EFD4CF20373032218215A
:10458000234800F0A3F94FF6807303221821214835
:1045900000F09CF90423032218211E4800F096F92C
:1045A0003023032218211A4800F090F94FF40073C9
:1045B00003221821184800F089F900200190029088
:1045C0000390022004900A20059002200690052006
:1045D000079001200890002009900A900B900C9001
:1045E00001200D9000200E900F901090119010203F
:1045F000129000201390149001A81590169008A80E
:1046000000F018F8012000F009F817B000BD000014
:10461000001401400018014000200140C100A1F138
:10462000C041096841F00102C100A1F1C0410A6026
:104630007047000070B50021002200230468E400E8
:10464000A4F1C0442168414C2140D0E90B4544EA23
:104650004504856A2C43456A44EA0524056A2C43CF
:10466000C56944EA852485692C43456944EA0534D3
:10467000056944EA4534856844EA8534C56844EAF6
:10468000C53445682C432143446B247E641E04F0EA
:104690000F04456B6D696D1EF02606EA05152C4367
:1046A000456B2D696D1E4FF47F4606EA05252C43A8
:1046B000456BAD896D1E4FF4702606EA05452C4307
:1046C000456BAD682C43456B6D682C43456B2D687D
:1046D00044EA0502C46A082C01D141F04001846813
:1046E000012C20D1846B247E641E04F00F04856BA2
:1046F0006D696D1EF02606EA05152C43856B2D6944
:104700006D1E4FF47F4606EA05252C43856BAD8967
:104710006D1E4FF4702606EA05452C43856B2D6807
:1047200044EA050301E06FF070430468E400A4F17B
:10473000C04421600468E400A4F1C04462600468DD
:10474000E400A4F1C044C4F8043170BD8100F7FF57
:104750000146002231F812004B88984200DA01220B
:1047600031F812008B88984200DA022231F81200E8
:10477000CB88984200DA032231F8120000B90422F3
:10478000D0B2704710B504460B4931F8140000F060
:1047900071FC0A4951F82430094951F824000322D8
:1047A000102100F093F8054850F82400044951F80E
:1047B0002410486110BD000078000020480000204F
:1047C00038000020034951F82010034A52F82020F5
:1047D000516170474800002038000020034951F81B
:1047E0002010034A52F82020116170474800002031
:1047F000380000202F4B1B884633984212DA2D4B8D
:104800001B881E3398420DDD2B4B1B881E339942AB
:1048100008DD294B1B884633994203DA13885B1C59
:10482000138046E0254B1B884633984212DA234B0F
:104830001B881E3398420DDD1F4B1B881E33994287
:1048400008DD1D4B1B884633994203DA53885B1CF5
:1048500053802EE0174B1B884633984212DA154BD3
:104860001B881E3398420DDD154B1B881E33994261
:1048700008DD134B1B884633994203DA93885B1C8F
:10488000938016E00D4B1B884633984211DA0B4B90
:104890001B881E3398420CDD094B1B881E3399423E
:1048A00007DD074B1B884633994202DAD3885B1C2D
:1048B000D380704700000020060000200200002086
:1048C000080000204161704701617047F0B50C4657
:1048D00016460025002204F00F0514F0100F08D032
:1048E000042E05D145F00305C76B1F43C76300E0E5
:1048F0003543002118E001278F401F4212D0026883
:104900004FEA810C0F2707FA0CF7BA438F0005FA1C
:1049100007F73A43282C01D1436102E0482C00D12B
:10492000036102604F1CB9B20829E4D308211CE0DE
:1049300001278F401F4216D04268A1F108074FEAB5
:10494000870C0F2707FA0CF7BA43A1F10807BF003D
:1049500005FA07F73A43282C01D1436102E0482CBD
:1049600000D1036142604F1CB9B21029E0D3F0BD01
:1049700002469068084201D0012070470020FCE701
:104980000FB42DE9F04706460F4690460025002457
:10499000A146A246BDF82C0000284DD100BF48E03A
:1049A000A8F1200005EB00104D4911F80090BDF86A
:1049B0002E00F0B9002419E0C4F1070049FA00F014
:1049C00010F0010F08D0BDF830203B1999B2731BCD
:1049D00098B200F09EF907E0BDF832203B1999B279
:1049E000731B98B200F095F9601C84B2082CE3DBCD
:1049F0001DE0002419E0C4F1070049FA00F010F0AE
:104A0000010F08D0BDF830207B1999B2331998B244
:104A100000F07FF907E0BDF832207B1999B2331915
:104A200098B200F076F9601C84B2082CE3DB681CB5
:104A300085B2102DB4DB4EE0BDF82C0001284AD120
:104A4000002546E0A8F1200000EB400005EBC00087
:104A5000244931F810A0BDF82E00E0B9002417E079
:104A60004AFA04F010F0010F08D0BDF830203B19CD
:104A700099B2731B98B200F04CF907E0BDF83220F0
:104A80003B1999B2731B98B200F043F9601C84B2D1
:104A9000102CE5DB1BE0002417E04AFA04F010F0CC
:104AA000010F08D0BDF830207B1999B2331998B2A4
:104AB00000F02FF907E0BDF832207B1999B23319C5
:104AC00098B200F026F9601C84B2102CE5DB681C5B
:104AD00085B2182DB6DBBDE8F0075DF814FB0000C9
:104AE000C4550008C45B000830B504460025002109
:104AF000084600F00CF800F01AF800BF03E04FF091
:104B0000CA4004806D1CB5F5963FF8D330BD10B592
:104B100003460C4619464E2000F050F921464F201E
:104B200000F04CF910BD4FF0CA41088070472220B8
:104B30004FF0C8410880704700B50121002000F007
:104B40003DF94AF6A401032000F038F900210C20B9
:104B500000F034F940F60C010D2000F02FF94FF46D
:104B60002C510E2000F02AF9B0211E2000F026F969
:104B700042F63F31012000F021F94FF4C0610220DC
:104B800000F01CF90021102000F018F946F2700125
:104B9000112000F013F90021052000F00FF9002189
:104BA000062000F00BF94EF61C71162000F006F9F5
:104BB0000321172000F002F940F23321072000F012
:104BC000FDF800210B2000F0F9F800210F2000F083
:104BD000F5F80021412000F0F1F80021422000F01A
:104BE000EDF80021482000F0E9F840F23F1149209B
:104BF00000F0E4F800214A2000F0E0F800214B200A
:104C000000F0DCF84FF46F41442000F0D7F80021A9
:104C1000452000F0D3F840F23F11462000F0CEF8D6
:104C200040F20771302000F0C9F84FF401713120D3
:104C300000F0C4F84FF40171322000F0BFF840F2E8
:104C40000251332000F0BAF840F20751342000F04E
:104C5000B5F84FF40171352000F0B0F84FF4017150
:104C6000362000F0ABF840F20251372000F0A6F8F1
:104C700040F202313A2000F0A1F840F202313B202C
:104C800000F09CF80021232000F098F80021242057
:104C900000F094F84FF40041252000F08FF8002137
:104CA0004E2000F08BF800214F2000F087F84CF2E6
:104CB000503301E0581E83B2002BFBDC00BD2DE910
:104CC000F84F04460E4617469946DDF828B02546AB
:104CD000B046381B401CA9EB0601491C4843009014
:104CE0004FF0000A10E03BF8022B4146284600F046
:104CF00010F8681C85B2BD4204DD08F101001FFAFE
:104D000080F825460AF1010A00988245EBD3BDE8F8
:104D1000F88F70B506460C461546F02E02DCB4F549
:104D2000A07F00DD70BD21463046FFF7F0FEFFF7A3
:104D3000FEFE2846FFF7F7FE00BFF3E72DE9F04738
:104D400006460F4690469946DDF820A034463D467B
:104D500000BF06E0524629462046FFF7DAFF601CF6
:104D600084B24445F6DB3D4606E0524629462046DD
:104D7000FFF7CFFF681C85B24D45F6DB444606E0E1
:104D8000524629462046FFF7C4FF601E84B2B44253
:104D9000F6DC4D4606E0524629462046FFF7B9FFAD
:104DA000681E85B2BD42F6DCBDE8F08701464FF0D3
:104DB000C84211804FF0CA42108870474FF0C84275
:104DC00010804FF0CA421180704700008AB0002066
:104DD000089009900025974BD3E90012D3E902030C
:104DE000CDE90603CDE9041200264FF480414803C3
:104DF00000F036F90020FFF7C5FC0120FFF7C2FCE8
:104E00000220FFF7BFFC0320FFF7BCFC00F002FA12
:104E1000FFF7A0FB00F0F4FA3220FFF785FB00203B
:104E2000FFF7C4FF84490880FFF786FE4FF6FF7046
:104E3000FFF75AFE81484FF48F73C722C8210090B4
:104E40002820FFF73CFF1F204FF49B73E6220A2126
:104E500000900846FFF772FF1F20794988804FF6BF
:104E6000FF70C8800120488000200880002461E095
:104E70007348406804AB00901A5D724B1B88143372
:104E800099B2714B1B882333082707FB043398B270
:104E90006B4B1F6802975B6803933B46FFF770FDFF
:104EA0006748406805AB00901A5D664B1B88143359
:104EB00099B2664B1B882333082707FB043398B24B
:104EC0005F4B1F6802975B6803933B46FFF758FDF3
:104ED0005B48406806AB00901A5D5D4B1B8814333D
:104EE00099B2594B1B882333082707FB043398B228
:104EF000534B1F6802975B6803933B46FFF740FDE7
:104F00004F48406807AB00901A5D514B1B88143323
:104F100099B24E4B1B882333082707FB043398B202
:104F2000474B1F6802975B6803933B46FFF728FDDA
:104F3000601C84B2042C9BDB4648424F00903F88A3
:104F40004F37BBB2404F3F884537BAB23D4F3F88DD
:104F50002837B9B23C4F3F881E37B8B2FFF7AFFED3
:104F60003C48384F00903F884F37BBB2374F3F889F
:104F70004537BAB2334F3F882837B9B2334F3F88ED
:104F80001E37B8B2FFF79BFE3248314F00903F8882
:104F90004F37BBB22C4F3F884537BAB22C4F3F88B2
:104FA0002837B9B2284F3F881E37B8B2FFF787FEBF
:104FB0002848274F00903F884F37BBB2234F3F8888
:104FC0004537BAB2224F3F882837B9B21F4F3F88C2
:104FD0001E37B8B2FFF773FE2BE000F063FA01282A
:104FE00011D1681CC5B21C48008800F0ADF9C0F5AD
:104FF000A07087B21948008800F091F9804608AA8D
:105000003946FFF7F7FB142D13D108A8FFF7A0FBD3
:105010000646304600F099FA3046FFF70BF90020BB
:10502000ADF82600ADF82400ADF82200ADF8200060
:105030000025D2E7B455000826000020AC86000801
:1050400028000020060000200000002002000020B0
:1050500008000020247A0008C6000020C4000020B8
:10506000024A0A400243024B1A60704780FFFF1F4A
:1050700008ED00E0064901EB9011096800F01F03FC
:1050800001229A401143024A02EB901211607047CC
:105090000010024010B5044624B120210448FFF757
:1050A00013FC03E020210248FFF70CFC10BD0000B8
:1050B0000008014010B5044624B110210448FFF750
:1050C00003FC03E010210248FFF7FCFB10BD0000C9
:1050D0000018014010B540210148FFF749FC10BD00
:1050E0000008014010B5044624B180210448FFF7B0
:1050F000EBFB03E080210248FFF7E4FB10BD00005A
:1051000000080140002000213C4A126842F480322D
:105110003A4B1A6000BF401C384A126802F4003152
:1051200011B9B0F5006FF6D1344A126812F4003F9D
:1051300001D100BFFEE7314AD26942F080522F4BC5
:10514000DA612F4A126842F440422D4B1A602B4A12
:1051500052682A4B5A601A4652685A601A46526878
:1051600042F480625A601A46526822F440325A6011
:105170001A46526842F440325A601A465268214B2D
:105180001A401E4B5A601A4652681F4B1A431B4B5B
:105190005A601A46126842F080721A6000BF174ABD
:1051A000126812F0007FFAD0154A126842F4803279
:1051B000134B1A6000BF124A526812F4803FFAD0B3
:1051C0000F4A126842F400320D4B1A6000BF0C4ABD
:1051D000526812F4003FFAD0084A526822F00302E3
:1051E000064B5A601A46526842F002025A6000BFEB
:1051F000024A526812F0080FFAD0704700100240BD
:1052000000700040FFFFC3B70000340810B5FFF77F
:1052100079FF10BD10B5124800684FF47A71B0FBE9
:10522000F1F4601EB0F1807F01D301200FE0601E19
:105230004FF0E02148610F214FF0FF30FEF7AEFF45
:1052400000204FF0E021886107200861002008B1AC
:1052500000BFFEE70021481EFEF7A0FF10BD0000C2
:105260003400002010B500F0FBF808B1002010BD9C
:1052700000F03CF9002000F04AF9D22000F047F994
:1052800000F0F6F8F3E72DE9F04704460D46002656
:105290000027B046B146D22000F06CF806469220B6
:1052A00000F068F80746D22000F064F880469220AB
:1052B00000F060F88146B6EB080101D40A4600E030
:1052C0004A42062A07DCB7EB090001D4024600E097
:1052D0004242062A02DD0020BDE8F08706EB080006
:1052E00000EBD071C1F34F01218007EB090000EB07
:1052F000D071C1F34F0129800120EDE710B500F016
:10530000AFF808B1002010BD00F0F0F8002000F068
:10531000FEF8922000F0FBF800F0AAF8F3E703464D
:1053200000BFA3F5967202EB0210C0EB022240F61A
:10533000DE50B2FBF0F081B2002901DDF02901DD81
:10534000002070470846FCE7034600BFA3F1DC02DB
:10535000C2EB821000EB022240F62E60B2FBF0F0AE
:1053600081B2002902DDB1F5A07F01DD0020704788
:105370000846FCE72DE9FE430646002400250027E9
:10538000A04600BF0CE0D22E04D1FFF76BFF2DF832
:10539000140003E0FFF7B2FF2DF81400601C84B284
:1053A000052CF0DB002416E0601C85B20FE03DF810
:1053B00014003DF81510884207DD3DF814803DF8D3
:1053C00015002DF814002DF81580681C85B2052DE8
:1053D000EDDB601C84B2042CE6DB0027012405E031
:1053E0003DF81400384487B2601C84B2042CF7DB0B
:1053F000032097FBF0F01FFA80F84046BDE8FE83DB
:1054000010B540F20260FFF735FE40F20660FFF78C
:1054100031FE2023032210210F48FFF757FA802383
:10542000032210210C48FFF751FA402303220421E4
:105430000948FFF74BFA1023032219460748FFF7E4
:1054400045FA2023032204210448FFF73FFA1021E4
:105450000248FFF739FA10BD00080140001801406A
:1054600010B520210148FFF783FA10BD0018014054
:1054700070B50024002510E04FF6FF7000EA4404E8
:105480000120FFF707FE0020FFF704FEFFF722FED2
:1054900008B1601C84B2681CC5B20C2DECDB204640
:1054A00070BD000010B50024FFF7DAFF90B901E0ED
:1054B000601CC4B20B490C48FFF7E5FE012801D07F
:1054C000142CF5DB142C0BDB002007490880054960
:1054D000088010BD00200449088002490880F8E7D0
:1054E0000120F6E7C6000020C400002010B500200F
:1054F000FFF7D0FD0120FFF7DDFD0120FFF7F2FDF2
:105500000120FFF7C7FD0020FFF7D4FD10BD70B5E7
:1055100006460020FFF7BEFD002413E0C4F107009B
:1055200046FA00F000F001052846FFF7DBFD0020F9
:10553000FFF7B0FD0120FFF7ADFD0020FFF7AAFD4A
:10554000601CC4B2082CE9DB70BD10B50446002015
:10555000FFF738F90120FFF735F90220FFF732F99C
:105560000320FFF72FF934B1012C08D0022C0AD008
:10557000032C10D10BE00020FFF730F918E00120D8
:10558000FFF72CF914E00220FFF728F910E00320C0
:10559000FFF724F90CE00020FFF720F90120FFF7C6
:1055A0001DF90220FFF71AF90320FFF717F900BFD2
:1055B00000BF10BD4C4544324C4544334C45443447
:1055C0004C454435000000000000000000000000D1
:1055D000000000000000183C3C3C18181800181887
:1055E0000000000000666666240000000000000065
:1055F000000000000000006C6CFE6C6C6CFE6C6CBB
:105600000000000018187CC6C2C07C0686C67C1844
:105610001800000000000000C2C60C183060C686EA
:10562000000000000000386C6C3876DCCCCCCC7606
:10563000000000000030303060000000000000007A
:105640000000000000000C18303030303030180CF2
:1056500000000000000030180C0C0C0C0C0C183072
:10566000000000000000000000663CFF3C660000F7
:1056700000000000000000000018187E181800004C
:1056800000000000000000000000000000181818D2
:105690003000000000000000000000FE00000000DC
:1056A00000000000000000000000000000001818CA
:1056B000000000000000000002060C183060C080EE
:1056C0000000000000007CC6C6CED6D6E6C6C67C6A
:1056D0000000000000001838781818181818187EF4
:1056E0000000000000007CC6060C183060C0C6FE3A
:1056F0000000000000007CC606063C060606C67CCC
:105700000000000000000C1C3C6CCCFE0C0C0C1EBD
:10571000000000000000FEC0C0C0FC0E0606C67CF3
:105720000000000000003860C0C0FCC6C6C6C67CD1
:10573000000000000000FEC606060C1830303030B5
:105740000000000000007CC6C6C67CC6C6C6C67C7B
:105750000000000000007CC6C6C67E0606060C7867
:1057600000000000000000001818000000181800D9
:105770000000000000000000181800000018183099
:1057800000000000000000060C18306030180C0605
:1057900000000000000000000000FE0000FE00000D
:1057A000000000000000006030180C060C1830608B
:1057B0000000000000007CC6C60C1818180018185D
:1057C000000000000000007CC6C6DEDEDEDCC07C1F
:1057D00000000000000010386CC6C6FEC6C6C6C673
:1057E000000000000000FC6666667C66666666FC7B
:1057F0000000000000003C66C2C0C0C0C0C2663CE1
:10580000000000000000F86C6666666666666CF86C
:10581000000000000000FE6662687868606266FE54
:10582000000000000000FE6662687868606060F05A
:105830000000000000003C66C2C0C0DEC6C6663A7A
:10584000000000000000C6C6C6C6FEC6C6C6C6C664
:105850000000000000003C18181818181818183C10
:105860000000000000001E0C0C0C0C0CCCCCCC7802
:10587000000000000000E6666C6C78786C6666E6F6
:10588000000000000000F06060606060606266FE22
:10589000000000000000C6EEFEFED6C6C6C6C6C6A4
:1058A000000000000000C6E6F6FEDECEC6C6C6C694
:1058B000000000000000386CC6C6C6C6C6C66C38FC
:1058C000000000000000FC6666667C60606060F0BE
:1058D0000000000000007CC6C6C6C6C6C6D6DE7C78
:1058E0000C0E00000000FC6666667C6C666666E670
:1058F0000000000000007CC6C660380C06C6C67CEE
:105900000000000000007E7E5A1818181818183C75
:10591000000000000000C6C6C6C6C6C6C6C6C67C15
:10592000000000000000C6C6C6C6C6C6C66C381059
:10593000000000000000C6C6C6C6C6D6D6FE6C6C07
:10594000000000000000C6C66C6C38386C6CC6C61F
:10595000000000000000666666663C181818183CD7
:10596000000000000000FEC6860C183060C2C6FEB3
:105970000000000000003C30303030303030303C2F
:105980000000000000000080C0E070381C0E06021D
:105990000000000000003C0C0C0C0C0C0C0C0C3C2F
:1059A0000000000010386CC600000000000000007D
:1059B00000000000000000000000000000000000E7
:1059C00000FF000030301800000000000000000060
:1059D000000000000000000000780C7CCCCCCC76ED
:1059E000000000000000E06060786C66666666DCBF
:1059F0000000000000000000007CC6C0C0C0C67CE3
:105A00000000000000001C0C0C3C6CCCCCCCCC7614
:105A10000000000000000000007CC6FEC0C0C67C84
:105A2000000000000000386C6460F060606060F0AE
:105A300000000000000000000076CCCCCCCCCC7C78
:105A40000CCC78000000E060606C7666666666E606
:105A50000000000000001818003818181818183C2A
:105A60000000000000000606000E060606060606F8
:105A700066663C000000E06060666C78786C66E604
:105A80000000000000003818181818181818183CE2
:105A9000000000000000000000ECFED6D6D6D6D6EE
:105AA000000000000000000000DC666666666666B6
:105AB0000000000000000000007CC6C6C6C6C67C10
:105AC000000000000000000000DC66666666667C80
:105AD0006060F000000000000076CCCCCCCCCC7C28
:105AE0000C0C1E000000000000DC7662606060F0BC
:105AF0000000000000000000007CC660380CC67C7E
:105B0000000000000000103030FC30303030361C17
:105B1000000000000000000000CCCCCCCCCCCC7647
:105B200000000000000000000066666666663C1823
:105B3000000000000000000000C6C6C6D6D6FE6CFD
:105B4000000000000000000000C66C3838386CC649
:105B5000000000000000000000C6C6C6C6C6C67E23
:105B6000060CF8000000000000FECC183060C6FEF5
:105B70000000000000000E18181870181818180EF1
:105B8000000000000000181818180018181818183D
:105B9000000000000000701818180E18181818706F
:105BA00000000000000076DC0000000000000000A3
:105BB000000000000000000010386CC6C6C6FE00E1
:105BC00000000000000000000000000000000000D5
:105BD00000000000000000000000000000000000C5
:105BE00000000000000000000000000000000000B5
:105BF0000000000000008001800180018001800120
:105C0000800180018001800180018001800180018C
:105C10000000000080018001000000000000000082
:105C20000000000000000000CC00CC00CC00CC0044
:105C3000CC00CC00000000000000000000000000CC
:105C40000000000000000000000000000000000054
:105C50000000000000000000000000000000000044
:105C6000600C600C600C30063006FE1FFE1F300614
:105C700038071803FE1FFE1F180318038C018C0140
:105C80008C01000000008000E003F80F9C0E8C1CCB
:105C90008C188C009800F801E007800E801C8C188E
:105CA0008C189C18B80CF00FE003800080000000F6
:105CB000000000000000000000000E181B0C110C7A
:105CC00011061106110311039B018E01C038C06C2F
:105CD00060446044304430441844186C0C38000070
:105CE000000000000000E001F00338071806180665
:105CF0003003F001F000F8009C310E33061E061C44
:105D0000061C063FFC73F0210000000000000000AC
:105D100000000000000000000C000C000C000C0053
:105D20000C000C000000000000000000000000005B
:105D30000000000000000000000000000000000063
:105D4000000000000000000200038001C000C0004D
:105D50006000600030003000300030003000300063
:105D60003000300060006000C000C000800100030F
:105D700000020000000020006000C00080018001DF
:105D800000030003000600060006000600060006E9
:105D9000000600060003000380018001C0006000CF
:105DA00020000000000000000000000000000000D3
:105DB000C000C000D806F807E00130033807000033
:105DC00000000000000000000000000000000000D3
:105DD00000000000000000000000000000000000C3
:105DE00080018001800180018001FC3FFC3F800137
:105DF000800180018001800100000000000000009F
:105E00000000000000000000000000000000000092
:105E10000000000000000000000000000000000082
:105E200000000000000080018001000100018000EE
:105E30000000000000000000000000000000000062
:105E4000000000000000000000000000E007E00784
:105E50000000000000000000000000000000000042
:105E60000000000000000000000000000000000032
:105E70000000000000000000000000000000000022
:105E8000000000000000C000C00000000000000092
:105E9000000000000000000C000C000600060006D8
:105EA0000003000300038003800180018001C00023
:105EB000C000C000600060000000000000000000A2
:105EC000000000000000E003F007380E180C0C186A
:105ED0000C180C180C180C180C180C180C180C18A2
:105EE000180C380EF007E00300000000000000006E
:105EF00000000000000000018001C001F0019801D5
:105F00008801800180018001800180018001800181
:105F1000800180018001800100000000000000007D
:105F2000000000000000E003F80F180C0C180C181B
:105F300000180018000C000600038001C00060007B
:105F400030001800FC1FFC1F0000000000000000D3
:105F5000000000000000E001F807180E0C0C0C0C0B
:105F6000000C0006C003C007000C001800180C1835
:105F70000C18180CF807E0030000000000000000F7
:105F8000000000000000000C000E000F000F800D4C
:105F9000C00C600C600C300C180C0C0CFC3FFC3F6F
:105FA000000C000C000C000C0000000000000000C1
:105FB000000000000000F80FF80F180018000C0097
:105FC000EC03FC071C0E001C0018001800180C182D
:105FD0001C0C180EF807E003000000000000000091
:105FE000000000000000C007F00F381C181818004F
:105FF0000C00CC03EC0F3C0E1C1C0C180C180C18DD
:10600000181C380EF007E00300000000000000003C
:10601000000000000000FC1FFC1F000C0006000632
:10602000000380038001C001C000E0006000600048
:106030007000300030003000000000000000000060
:10604000000000000000E003F007380E180C180CE8
:10605000180C3806F007F007180C0C180C180C1860
:106060000C18380CF80FE0030000000000000000DE
:10607000000000000000E003F007380E1C0C0C18B4
:106080000C180C181C1C381EF81BE0190018000C0A
:10609000000C1C0EF807F0010000000000000000DA
:1060A00000000000000000000000000000000000F0
:1060B00080018001000000000000000000000000DE
:1060C00000000000800180010000000000000000CE
:1060D00000000000000000000000000000000000C0
:1060E00080018001000000000000000000000000AE
:1060F000000000008001800100010001800000001C
:10610000000000000000000000000000000000008F
:10611000000000000010001C800FE003F8001800D1
:10612000F800E003800F001C0010000000000000D9
:10613000000000000000000000000000000000005F
:1061400000000000F81F000000000000F81F000021
:10615000000000000000000000000000000000003F
:10616000000000000000000000000000000000002F
:106170000000000008003800F001C007001F0018F0
:10618000001FC007F00138000800000000000000F8
:10619000000000000000E003F80F180C0C180C18A9
:1061A0000018000C000600038001C000C000C00001
:1061B00000000000C000C00000000000000000005F
:1061C0000000000000000000E00718180420C229A9
:1061D000224A114409440944094409221113E20CDA
:1061E000024004201818E007000000000000000032
:1061F00000000000000080038003C006C006C00647
:10620000600C600C301830183018F83FF83F1C70E4
:106210000C600C6006C006C000000000000000001A
:10622000000000000000FC03FC0F0C0C0C180C1804
:106230000C180C0CFC07FC0F0C180C300C300C303C
:106240000C300C18FC1FFC070000000000000000D0
:10625000000000000000C007F01F38381C300C7030
:10626000066006000600060006000600060006603E
:106270000C701C30F01FE007000000000000000060
:10628000000000000000FE03FE0F060E06180618B0
:106290000630063006300630063006300630061866
:1062A0000618060EFE0FFE030000000000000000AE
:1062B000000000000000FC3FFC3F0C000C000C0044
:1062C0000C000C00FC1FFC1F0C000C000C000C0050
:1062D0000C000C00FC3FFC3F000000000000000030
:1062E000000000000000F83FF83F180018001800F8
:1062F00018001800F81FF81F1800180018001800E0
:10630000180018001800180000000000000000002D
:10631000000000000000E00FF83F3C780E6006E04F
:1063200007C00300030003FE03FE03C007C006C04E
:106330000EC03CF0F83FE00F00000000000000003D
:106340000000000000000C300C300C300C300C3021
:106350000C300C30FC3FFC3F0C300C300C300C305F
:106360000C300C300C300C3000000000000000003D
:106370000000000000008001800180018001800198
:106380008001800180018001800180018001800105
:1063900080018001800180010000000000000000F9
:1063A00000000000000000060006000600060006CF
:1063B0000006000600060006000600060006180695
:1063C00018063807F003E00100000000000000009C
:1063D00000000000000006300618060C0606060342
:1063E0008601C60066007600DE008E010603060602
:1063F000060C0618063006600000000000000000D1
:106400000000000000001800180018001800180014
:1064100018001800180018001800180018001800BC
:1064200018001800F81FF81F00000000000000000E
:106430000000000000000EE01EF01EF01EF036D836
:1064400036D836D836D866CC66CC66CCC6C6C6C674
:10645000C6C6C6C686C386C3000000000000000092
:106460000000000000000C301C303C303C306C3030
:106470006C30CC30CC308C310C330C330C360C36C9
:106480000C3C0C3C0C380C300000000000000000FC
:10649000000000000000E007F81F1C380E700660C6
:1064A00003C003C003C003C003C003C003C0066031
:1064B0000E701C38F81FE00700000000000000000C
:1064C000000000000000FC0FFC1F0C380C300C30EA
:1064D0000C300C300C18FC1FFC070C000C000C00DE
:1064E0000C000C000C000C0000000000000000007C
:1064F000000000000000E007F81F1C380E70066066
:1065000003E003C003C003C003C003C007E0066389
:106510000E3F1C3CF83FE0F700C000000000000008
:10652000000000000000FE0FFE1F06380630063097
:1065300006300638FE1FFE0706030606060C061880
:10654000061806300630066000000000000000005B
:10655000000000000000E003F80F1C0C0C180C18E1
:106560000C001C00F803E00F001E00380630063057
:106570000E301C1CF80FE0070000000000000000B7
:10658000000000000000FE7FFE7F8001800180018E
:1065900080018001800180018001800180018001F3
:1065A00080018001800180010000000000000000E7
:1065B0000000000000000C300C300C300C300C30AF
:1065C0000C300C300C300C300C300C300C300C30EB
:1065D0000C301818F81FE007000000000000000051
:1065E00000000000000003600630063006300C1882
:1065F0000C180C18180C180C380E300630067007E2
:1066000060036003C001C001000000000000000042
:106610000000000000000360C361C361C361663312
:10662000663366336633663366336C1B6C1B6C1BD8
:106630002C1A3C1E380E380E00000000000000002E
:106640000000000000000FE00C7018303018700CD3
:10665000600EC00780038003C003E006700C301C8E
:1066600018180C300E6007E0000000000000000069
:1066700000000000000003C006600C301C38381811
:10668000300C6006E007C0038001800180018001BA
:1066900080018001800180010000000000000000F6
:1066A000000000000000FC7FFC7F0060003000184C
:1066B000000C000600038001C000600030001800DC
:1066C0000C000600FE7FFE7F0000000000000000BE
:1066D000000000000000E003E003600060006000D4
:1066E00060006000600060006000600060006000AA
:1066F0006000600060006000600060006000E00317
:10670000E003000000003000300060006000600026
:10671000C000C000C000C0018001800180010003F2
:106720000003000300060006000000000000000057
:10673000000000000000E003E0030003000300038A
:106740000003000300030003000300030003000331
:106750000003000300030003000300030003E00341
:10676000E003000000000000C001C00160036003FE
:10677000600330063006180C180C00000000000002
:106780000000000000000000000000000000000009
:1067900000000000000000000000000000000000F9
:1067A00000000000000000000000000000000000E9
:1067B000000000000000FFFFFFFF000000000000DD
:1067C0000000000000000C000C000C000C000C008D
:1067D0000C000000000000000000000000000000AD
:1067E00000000000000000000000000000000000A9
:1067F0000000000000000000000000000000000099
:10680000F003F8071C0C0C0C000FF00FF80C0C0C2C
:106810000C0C1C0FF80FF018000000000000000026
:1068200000000000000018001800180018001800F0
:10683000D803F80F380C1818181818181818181842
:106840001818380CF80FD8030000000000000000F2
:106850000000000000000000000000000000000038
:10686000C003F007300E180C1800180018001800AC
:10687000180C300EF007C0030000000000000000FC
:106880000000000000000018001800180018001890
:10689000C01BF01F301C18181818181818181818D2
:1068A0001818301CF01FC01B000000000000000082
:1068B00000000000000000000000000000000000D8
:1068C000C003F00F300C1818F81FF81F180018003C
:1068D0003818301CF00FC007000000000000000056
:1068E000000000000000800FC00FC000C000C0000A
:1068F000F007F007C000C000C000C000C000C0002A
:10690000C000C000C000C000000000000000000087
:106910000000000000000000000000000000000077
:10692000E00DF80F180E0C0C0C0C0C0C0C0C0C0CD5
:106930000C0C180EF80FE00D000C0C0C1C06F807E0
:10694000F0010000000018001800180018001800DE
:10695000D807F80F381C181818181818181818180D
:106960001818181818181818000000000000000067
:10697000000000000000C000C00000000000000097
:10698000C000C000C000C000C000C000C000C00007
:10699000C000C000C000C0000000000000000000F7
:1069A000000000000000C000C00000000000000067
:1069B000C000C000C000C000C000C000C000C000D7
:1069C000C000C000C000C000C000C000C000F8008F
:1069D0007800000000000C000C000C000C000C0003
:1069E0000C0C0C060C038C01CC006C00FC009C0110
:1069F0008C030C030C060C0C0000000000000000CF
:106A0000000000000000C000C000C000C000C000C6
:106A1000C000C000C000C000C000C000C000C00076
:106A2000C000C000C000C000000000000000000066
:106A30000000000000000000000000000000000056
:106A40007C3CFF7EC7E383C183C183C183C183C113
:106A500083C183C183C183C1000000000000000026
:106A60000000000000000000000000000000000026
:106A70009807F80F381C181818181818181818182C
:106A80001818181818181818000000000000000046
:106A900000000000000000000000000000000000F6
:106AA000C003F00F300C18181818181818181818F8
:106AB0001818300CF00FC0030000000000000000A8
:106AC00000000000000000000000000000000000C6
:106AD000D803F80F380C18181818181818181818A0
:106AE0001818380CF80FD8031800180018001800F0
:106AF000180000000000000000000000000000007E
:106B0000C01BF01F301C181818181818181818185F
:106B10001818301CF01FC01B0018001800180018AF
:106B2000001800000000000000000000000000004D
:106B3000B007F0037000300030003000300030004B
:106B40003000300030003000000000000000000085
:106B50000000000000000000000000000000000035
:106B6000E003F003380E180C3800F003C007000CE7
:106B7000180C380EF007E0030000000000000000D1
:106B800000000000000000008000C000C000C00045
:106B9000F007F007C000C000C000C000C000C00087
:106BA000C000C000C0078007000000000000000017
:106BB00000000000000000000000000000000000D5
:106BC0001818181818181818181818181818181845
:106BD0001818381CF01FE019000000000000000029
:106BE00000000000000000000000000000000000A5
:106BF0000C18180C180C180C300630063006600300
:106C000060036003C001C00100000000000000003C
:106C10000000000000000000000000000000000074
:106C2000C141C141C3616363636363633636363612
:106C300036361C1C1C1C1C1C000000000000000040
:106C40000000000000000000000000000000000044
:106C50001C38381C300C600660036003600360035E
:106C60006006300C381C1C380000000000000000DA
:106C70000000000000000000000000000000000014
:106C80001830301830187018600C600CE00CC0061A
:106C9000C00680038003800380018001C001F000F2
:106CA0007000000000000000000000000000000074
:106CB000FC1FFC1F000C000600038001C0006000E8
:106CC00030001800FC1FFC1F000000000000000046
:106CD00000000000000000038001C000C000C000F0
:106CE000C000C000C00060006000300060004000D4
:106CF000C000C000C000C000C000C0008001000390
:106D000000000000000080018001800180018001FE
:106D1000800180018001800180018001800180016B
:106D2000800180018001800180018001800180015B
:106D30008001000000006000C000C00180018001EF
:106D400080018001800100030003000600030001B0
:106D5000800180018001800180018001C00060000D
:106D60000000000000000000000000000000000023
:106D700000000000F010F81F080F000000000000E5
:106D80000000000000000000000000000000000003
:106D900000000000001028002800011BFFFFFFFF7B
:106DA000FFFFFFFFFFFFFFFFFFFFFFFFFFFFFFFFF3
:106DB000FFFFFFFFFFFFFFFFFFFFFFFFFFFFFFFFE3
:106DC000FFFFFFFFFFFFFFFFFFFFFFFFFFFFFFFFD3
:106DD000FFFFFFFFFFFFFFFFFFFFFFFFFFFFFFFFC3
:106DE000FFFFFFFFFFFFFFFFFFFFFFFFFFFFFFFFB3
:106DF000FFFFFFFFFFFFFFFFFFFFFFFFFFFFFFFFA3
:106E0000FFFFFFFFFFFFFFFFFFFF3BFFD8FE76FE08
:106E100034F614F614F6F4F515F697FE3BFFFFFF73
:106E2000FFFFFFFFFFFFFFFFFFFFFFFFFFFFFFFF72
:106E3000FFFFFFFFFFFFFFFFFFFFFFFFFFFFFFFF62
:106E4000FFFFFFFFFFFFFFFFFFFFFFFFFFFFFFFF52
:106E5000FFFFFFFF7DFFF2F58EF54BEDC9EC47EC30
:106E6000C5EBA5EB64EB24EB04EB25EB67EB0AEC3D
:106E70000FF57CFFFFFFFFFFFFFFFFFFFFFFFFFF9F
:106E8000FFFFFFFFFFFFFFFFFFFFFFFFFFFFFFFF12
:106E9000FFFFFFFFFFFFFFFFFFFFFFFFFFFFFFFF02
:106EA000BFFFEBEC29EDAAED6AED2AEDE9ECA9ECC8
:106EB00048EC08ECC7EBA7EB66EB25EBE5EAA4EAA8
:106EC00063EA42EA46EB7CFFFFFFFFFFFFFFFFFFA5
:106ED000FFFFFFFFFFFFFFFFFFFFFFFFFFFFFFFFC2
:106EE000FFFFFFFFFFFFFFFFFFFFFFFFBEFF90F56C
:106EF00004EC4AED6BED6BED4AED0AEDC9EC89EC63
:106F000048EC07ECC7EB86EB66EB26EB06EBE5EA15
:106F1000C5EAA4EA23EA80E94CF47CFFFFFFFFFF07
:106F2000FFFFFFFFFFFFFFFFFFFFFFFFFFFFFFFF71
:106F3000FFFFFFFFFFFFFFFFFFFFF9FE8AEC26ECDC
:106F4000C9EC0AED0AED0AED0AEDC9ECA9EC68EC12
:106F500028ECE7EBA7EB86EB46EB26EB05EBE5EA47
:106F6000C5EAA4EA84EA64EAC1E9A5EA35FEFFFFBE
:106F7000FFFFFFFFFFFFFFFFFFFFFFFFFFFFFFFF21
:106F8000FFFFFFFFFFFFFFFFD9FEA6EBE6EB69EC7B
:106F900089ECA9ECC9ECC9ECC9EC89EC68EC48ECCB
:106FA00008ECC7EBA7EB66EB46EB26EB05EBC5EA77
:106FB000A5EAA4EA84EA64EA44EAE2E9C1E914F64B
:106FC000FFFFFFFFFFFFFFFFFFFFFFFFFFFFFFFFD1
:106FD000FFFFFFFFFFFFD9FE65EBA6EB08EC28ECF7
:106FE00048EC68EC69EC89EC68EC48EC28EC08ECBF
:106FF000C7EBA7EB86EB66EB26EB05EBE5EAC5EA0C
:10700000A5EA84EA64EA64EA44EA43EA03EAA1E915
:10701000F4F5FFFFFFFFFFFFFFFFFFFFFFFFFFFF95
:10702000FFFFFFFFBEFFC8EB25EBA7EBC7EBE7EBCE
:1070300008EC28EC28EC28EC28EC08ECE7EBC7EB94
:10704000A7EB86EB66EB46EB05EB05EBE5EAC5EA5D
:10705000A4EA84EA64EA44EA44EA23EA23EAC2E9C5
:1070600043EA3BFFFFFFFFFFFFFFFFFFFFFFFFFFC5
:10707000FFFFFFFF30F5A3EA66EB86EBA7EBC7EB5C
:10708000C7EBE7EBE7EBE7EBE7EBC7EBC7EBA7EB10
:1070900086EB66EB46EB26EB05EBE5EAC5EAA5EAEF
:1070A00084EA84EA64EA44EA44EA23EA03EA03EA73
:1070B00060E9CAEBFFFFFFFFFFFFFFFFFFFFFFFFDE
:1070C000FFFFFFFF20EA06EB46EB46EB86EB87EB84
:1070D000A7EBA7EBA7EBC7EBA7EBA7EB86EB86EB42
:1070E00066EB46EB26EB05EBE5EAC5EAC5EAA4EA62
:1070F00084EA64EA64EA44EA24EA23EA03EA03EA63
:10710000E3E920E15CFFFFFFFFFFFFFFFFFFFFFF61
:10711000FFFF0FF542EA05EB05EB26EB46EB46EBEE
:1071200066EB66EB66EB66EB66EB66EB46EB46EB17
:1071300046EB06EB05EBE5EAC5EAC5EAA4EA84EA14
:1071400064EA64EA44EA43EA23EA03EA03EAE3E995
:10715000E3E961E988EBFFFFFFFFFFFFFFFFFFFFB0
:10716000FFFFE5EAA4EAE5EAE5EA05EB25EB26EB15
:1071700046EB46EB46EB46EB46EB46EB26EB25EBC8
:1071800005EB05EBE5EAC5EAA5EAA5EAA4EA84EA87
:1071900064EA64EA44EA24EA23EA03EA03EAE3E964
:1071A000E3E9E3E9E1E9FFFFFFFFFFFFFFFFFFFF87
:1071B000FFFF43EAA4EAC5EAC5EAE5EA05EB05EB09
:1071C00025EB25EB26EB26EB26EB25EB05EB05EB7C
:1071D000E5EAE5EAC5EAA5EAA5EA84EA84EA64EA1A
:1071E00064EA44EA24EA23EA23EA03EA03EAE3E955
:1071F00003EAE3E9C2E91AFFFFFFFFFFFFFFFFFF1A
:10720000FAEE43EAA4EAA5EAC5EAC5EAC5EAE5EA70
:10721000E5EA05EB05EB05EB05EBE5EAE5EAE5EA72
:10722000C5EAC5EAA4EAA5EA84EA84EA64EA64EA6B
:1072300044EA43EA23EA23EA03EA03EAE3E903EA46
:1072400003EAE3E981E9D5EDFFFFFFFFFFFFFFF769
:1072500058DE23EA84EA84EAA4EAA5EAC5EAC5EA94
:10726000C5EAC5EAC5EAE5EAC5EAC5EAC5EAC5EA86
:10727000A5EAA5EAA4EA84EA84EA64EA64EA44EABC
:1072800044EA23EA23EA03EA03EAE3E9E3E9E3E978
:10729000E3E9E3E9A1E953DDFFF7FFFFFFFF9EE725
:1072A00038C643EA64EA84EAA4EAA5EAA4EAC5EA9D
:1072B000C5EAC5EAC5EAC5EAC5EAA5EAA5EAA4EAB7
:1072C000A5EA84EA84EA64EA64EA64EA44EA44EA0D
:1072D00023EA23EA03EA03EA03EAE3E9E3E9E3E969
:1072E000E3E9E3E9A2E933CD9FE7FFFFFFFF1CDFFE
:1072F00039BE83EA64EA84EA84EAA4EAA4EAA5EA55
:10730000A5EAA5EAA5EAA5EAA5EAA5EAA4EAA4EA07
:1073100084EA84EA84EA64EA64EA44EA44EA44EAFD
:1073200024EA23EA03EA03EAE3E9E3E9E3E9E3E938
:10733000E3E9E3E9C2E975CDFDCEFFFFDFFF5AC601
:107340003BB6C4EA44EA84EA84EA84EAA5EAA4EA09
:10735000A4EAA4EAA4EAA4EAA4EAA4EA84EA84EAFD
:1073600084EA64EA64EA64EA44EA44EA23EA23EA4F
:1073700023EA03EA03EAE3E903EAE3E9E3E9E3E909
:1073800003EAE3E9C2E9B7BD5ABEDFFFDFFFD8B5C4
:107390007CA663EAA4EA84EA84EAA5EAA4EAA4EA69
:1073A000A4EAA4EAA4EAA5EAA4EA84EA84EA84EACC
:1073B00084EA64EA64EA44EA44EA44EA23EA23EA1F
:1073C00003EA03EA03EAE3E903EAE3E9E3E903EAB8
:1073D000E3E903EAC2E1F9B5B8ADBEF7BFF797AD8F
:1073E0003B9E24E205EB84EAA4EAA5EAA5EAA5EA25
:1073F000A5EAA5EAA5EAA4EAA4EA84EA84EA84EA7A
:1074000064EA64EA64EA64EA44EA44EA23EA23EACE
:1074100003EA03EA03EA03EA03EAE3E9E3E9E3E967
:1074200003EA23EA81E11AA677A5BEF7BEF776A59F
:10743000FA9D86D263F205EBA4EAC5EAC5EAC5EA7D
:10744000C5EAC5EAA5EAA5EAA5EAA4EA84EA84EAC7
:1074500064EA64EA64EA64EA44EA44EA23EA23EA7E
:1074600003EA03EA03EA03EA03EAE3E903EA03EAD5
:1074700023F2C3D9A2D91A96369DBEF79EF756A518
:10748000B99D4BBBC1F105EB05EBE5EAE5EAE5EAA1
:10749000C5EAC5EAC5EAC5EAA5EAA5EA84EA84EA36
:1074A00084EA64EA64EA44EA44EA44EA24EA23EA2D
:1074B00023EA03EA03EA03EAE3E9E3E9E3E903F29F
:1074C000E3D941C966C2F995369D9EF79EF7359D71
:1074D00098A53194A0F944EA66EB26EBE5EA05EBC2
:1074E00005EB05EBE5EAC5EAC5EAA5EAA4EA84EA04
:1074F00084EA84EA64EA44EA44EA44EA24EA24EABC
:1075000023EA03EA03EA03EAE3E9E3E923F2E3E136
:1075100063B120D16D9BB89D56A59EF79EF7359D12
:1075200077A51595E2D923F264EAA7EB66EB46EB63
:1075300066EB46EB26EBE5EAC5EAA5EAA4EAA4EA8F
:1075400084EA84EA64EA64EA44EA44EA44EA23EA2C
:1075500023EA03EA03EA03EAE3E923FAE3D903A10E
:1075600043B100C9938C97A576ADBEF7DFFF55A553
:10757000569D76A50BA302FA44EA64EA66EBC7EBD4
:10758000C7EBA7EB66EB26EBC5EAC5EAC5EAA4EABA
:10759000A5EA84EA84EA64EA64EA44EA44EA43EA5B
:1075A00024EA03EA03EA03F203F283C1E29023A18F
:1075B00001C14892369D77A5D8BDDEFFFFFFD7BD3C
:1075C000369D77A531A466C223F264EA84EAE5EA2F
:1075D000C7EBE7EBA7EB46EBE5EAE5EAC5EAC5EA68
:1075E000A5EAA4EA84EA84EA64EA64EA44EA24EACA
:1075F00023EA43F223F2C3D1E290A280029902A9C6
:1076000064A1CF8B36A5B8AD9ACEDFFFFFFF99D628
:1076100056A598A5B3ACAE9B23DA64F2A4EAA5EA1A
:10762000C5EA26EB66EB66EB46EBE5EAC5EAC5EA9A
:10763000A4EA84EA84EA64EA64EA64F264F284FA1A
:1076400023E2A3C123A18270A280E290029902A941
:107650000C83529C77A559C6DBDEFFFFFFFF5DEF71
:1076600056A5F9B5D4AC71B46D8B02F284F2A5EADB
:10767000C5EAC5EAA5EAA5E284E2C5E205EB05EBA9
:1076800025EB25F305F3E5F2A4EA44DAC3C1239917
:10769000C388A2808278A280C288E29080A0CB7A40
:1076A000319C729C19BE7ACE3CEFFFFFFFFFFFFFBB
:1076B00058CEB8AD39C671B492BC6E8B64DA84F220
:1076C000C5F2C5EAA5EA84EA44E203DAC3D183C974
:1076D00062C102B102A1E298C290C288C288C28887
:1076E000C288A288C280A280A288A290EC72529C1A
:1076F000119C97AD39C69ACEFFFFFFFFFFFFFFFF3A
:10770000BEF796AD7AC618CE30B450BCAE9BA7BAC1
:1077100084E2A4FAA4EA64E244E223DAE3D1C3D126
:10772000A3C163B943B123A903A10299E390C39014
:10773000C288C2888288818045790D7BF09B10A425
:10774000D4A496ADF8BD9EF7FFFFFFFFFFFFFFFF3C
:10775000FFFF3CE7B7B51DD7BBDE0FBCCEB3EFAB29
:107760002BA365C263EA63F244E204DAE3D1C3D136
:10777000A3C963B943B123A923A10299E298E29076
:10778000A290618803796A7A6E8BCF9B11A4728C68
:10779000B38C35A53CE7FFFFFFFFFFFFFFFFFFFFB7
:1077A000FFFFFFFFBAD618BE7EE7BEEF55CDD2CCA5
:1077B000B2CC8DB30BA367AA03D2E2E9C2D9A3D19D
:1077C00082C962C142B922A902A9E2A0A198C288D5
:1077D00065796A7A2D8B8F93AFA311A48F6BD06BD1
:1077E000928CDBDEFFFFFFFFFFFFFFFFFFFFFFFFCE
:1077F000FFFFFFFFFFFFDADE59C69EEFFFFFFFFF2F
:1078000018E6EEC38CC38DBB6CABEB9A88A247AA7B
:10781000E5A9C5A1A5A1A591C68907828A7AEC82AE
:107820002D934EA38EA38F934E73293A8B4A728C5D
:107830003CE7FFFFFFFFFFFFFFFFFFFFFFFFFFFF33
:10784000FFFFFFFFFFFFFFFF1BE779CE7DEFFFFF8D
:10785000FFFFFBEE95DD91CC8CCBE9C2EABAEABA28
:10786000CAAAA9AAA9A2AAA2AA9AAAA2CBA26EABA4
:10787000AF9B6E832D6B6A426629093AB394BEF7BB
:10788000FFFFFFFFFFFFFFFFFFFFFFFFFFFFFFFF08
:10789000FFFFFFFFFFFFFFFFFFFF9EF79AD6BAD65D
:1078A000FFFFFFFFFFFF7EEFDBDE39D655CDB2C411
:1078B0002FC4EFC3EEBBEFB3F0AB109C118C6E6B1B
:1078C0000D5BAB4AE8310419EC5A38C6FFFFFFFFE5
:1078D000FFFFFFFFFFFFFFFFFFFFFFFFFFFFFFFFB8
:1078E000FFFFFFFFFFFFFFFFFFFFFFFFFFFF7DEF3A
:1078F00038C6FBDEBEF77EEF3DDFFCCE9BC63AB658
:10790000D8A5779DD58C737CB06B4F630D53AC526B
:107910006B4A29420C6399D6FFFFFFFFFFFFFFFF71
:10792000FFFFFFFFFFFFFFFFFFFFFFFFFFFFFFFF67
:10793000FFFFFFFFFFFFFFFFFFFFFFFFFFFFFFFF57
:10794000FFFF7DEFBAD69AD6BAD67ACE19BED8B591
:1079500076A5F594938C127CB06BB06BAF733184C9
:1079600055AD1CE7FFFFFFFFFFFFFFFFFFFFFFFF1E
:10797000FFFFFFFFFFFFFFFFFFFFFFFFFFFFFFFF17
:10798000FFFFFFFFFFFFFFFFFFFFFFFFFFFFFFFF07
:10799000FFFFFFFFFFFFFFFF9DF73CE71CE7DBDE7C
:1079A0009AD67ACE59CE59CE9AD6FBDE7DEFFFFF1E
:1079B000FFFFFFFFFFFFFFFFFFFFFFFFFFFFFFFFD7
:1079C000FFFFFFFFFFFFFFFFFFFFFFFFFFFFFFFFC7
:1079D000FFFFFFFFFFFFFFFFFFFFFFFFFFFFFFFFB7
:1079E000FFFFFFFFFFFFFFFFFFFFFFFFFFFFFFFFA7
:1079F000FFFFFFFFFFFFFFFFFFFFFFFFFFFFFFFF97
:107A0000FFFFFFFFFFFFFFFFFFFFFFFFFFFFFFFF86
:107A1000FFFFFFFFFFFFFFFFFFFFFFFF001028003A
:107A20002800011BFFFFFFFFFFFFFFFFFFFFFFFF1E
:107A3000FFFFFFFFFFFFFFFFFFFFFFFFFFFFFFFF56
:107A4000FFFFFFFFFFFFFFFFFFFFFFFFFFFFFFFF46
:107A5000FFFFFFFFFFFFFFFFFFFFFFFFFFFFFFFF36
:107A6000FFFFFFFFFFFFFFFFFFFFFFFFFFFFFFFF26
:107A7000FFFFFFFFFFFFFFFFFFFFFFFFFFFFFFFF16
:107A8000FFFFFFFFFFFFFFFFFFFFFFFFFFFFFFFF06
:107A9000FFFFFFFFDCEFB8DF95D774CF73CF75D74B
:107AA00097DFDBEFFFFFFFFFFFFFFFFFFFFFFFFFA2
:107AB000FFFFFFFFFFFFFFFFFFFFFFFFFFFFFFFFD6
:107AC000FFFFFFFFFFFFFFFFFFFFFFFFFFFFFFFFC6
:107AD000FFFFFFFFFFFFFFFFFFFFFFFFFFFF95D748
:107AE0004DC707B708B708AF08A7E79EC796C68E69
:107AF000A586A57EA47EE99653C7FEFFFFFFFFFF84
:107B0000FFFFFFFFFFFFFFFFFFFFFFFFFFFFFFFF85
:107B1000FFFFFFFFFFFFFFFFFFFFFFFFFFFFFFFF75
:107B2000FFFFFFFFFFFFFFFFDDF74FC728BF6AD74B
:107B30004BCF4BC72ABF2AB709AFE9A6E89EC89624
:107B4000C78EA786A786A67E8576836EEA96DBEF2C
:107B5000FFFFFFFFFFFFFFFFFFFFFFFFFFFFFFFF35
:107B6000FFFFFFFFFFFFFFFFFFFFFFFFFFFFFFFF25
:107B7000FFFFFFFFFFFF50C707AF4AC74BCF4BCFF9
:107B80004BC72ABF2AB709AF09A7E8A6E89EC8963F
:107B9000C78EA786A786A67EA67E8676856E636636
:107BA000EC9EFFFFFFFFFFFFFFFFFFFFFFFFFFFF59
:107BB000FFFFFFFFFFFFFFFFFFFFFFFFFFFFFFFFD5
:107BC000FFFFFDF7E8A608AF2AB72ABF2ABF2AC7DA
:107BD0002ABF2ABF0AB709AF09A7E89EE896C89648
:107BE000C78EC786A786A77E867E86768676866EB1
:107BF0006466646EBAE7FFFFFFFFFFFFFFFFFFFF52
:107C0000FFFFFFFFFFFFFFFFFFFFFFFFFFFFFFFF84
:107C1000DBEFC596E8A609AF09B72AB72AB72AB796
:107C20002AB70AB709AF09A7E9A6E89EC896C78E82
:107C3000C78EA786A786A67EA67E86768676866E61
:107C4000856E6566425E97D7FFFFFFFFFFFFFFFF70
:107C5000FFFFFFFFFFFFFFFFFFFFFFFFFFFFDDF75E
:107C6000A58EE89EE89E09A709AF09AF09AF09AF45
:107C700009AF09AF09A7E9A6E89EE896C896C78E9E
:107C8000A786A786A77EA67EA67686768676866E49
:107C9000866E656E65664256B9E7FFFFFFFFFFFF20
:107CA000FFFFFFFFFFFFFFFFFFFFFFFFFFFFC68E8E
:107CB000C78EC896E89EE89EE9A609A709A709A766
:107CC00009A7E9A6E89EE89EE896C896C78EC78EE3
:107CD000A786A786A67EA67E867686768676866E1A
:107CE000856E856E65666566635EFFFFFFFFFFFF5D
:107CF000FFFFFFFFFFFFFFFFFFFFFFFF30B7A6867D
:107D0000C78EC896C896E896E89EE89EE89EE89ECC
:107D1000E89EE89EE89EC896C896C78EC78EA7863E
:107D2000A786A77EA67EA67686768676866E856EE2
:107D3000656E856E65666566445ECA8EFFFFFFFFF1
:107D4000FFFFFFFFFFFFFFFFFFFFFFFF8476A78618
:107D5000C78EC78EC88EC896C896E896E896E896ED
:107D6000E896C896C896C88EC78EC78EA786A7867F
:107D7000A77EA67E867E867686768676866E856EDB
:107D8000656E65666566656665664256BAE7FFFFBD
:107D9000FFFFFFFFFFFFFFFFFFFF52BF8576A786B4
:107DA000A786C786C78EC78EC78EC88EC896C89648
:107DB000C88EC78EC78EC78EC78EA786A786A77E9A
:107DC000A67EA67E867686768676866E856E656EBD
:107DD000856E6566656665666566445EEC9EFFFF5A
:107DE000FFFFFFFFFFFFFFFFFFFFC88E867EA77E1E
:107DF000A786A786A786C786C78EC78EC78EC78E5B
:107E0000C78EC78EC786A786A786A786A77EA67EAB
:107E1000A67EA676867686768676866E856E656E74
:107E200065666566656665666566655E6366FFFFD1
:107E3000FFFFFFFFFFFFFFFFFFFF636E867EA67E53
:107E4000A67EA77EA786A786A786A786A786A786DB
:107E5000A786A786A786A786A77EA77EA67EA67EDC
:107E60008676867686768676866E856E656E856E75
:107E7000656665666566656665666566435EDCEFD4
:107E8000FFFFFFFFFFFFFFFF7CEF846E8676A67E7D
:107E9000A67EA67EA67EA77EA77EA786A786A786A5
:107EA000A786A77EA77EA67EA67EA67E867E8676EF
:107EB000867686768676866E866E656E856E656655
:107EC000656665666566656665666566435E37CF49
:107ED000FFFFFFFFFFFFFFFFB9CE846E8676867639
:107EE0008676A67EA67EA67EA67EA67EA67EA67E9A
:107EF000A67EA67EA67EA67EA67E867686768676DA
:107F000086768676866E866E856E856E6566656615
:107F1000656665666566656665666566635E94B694
:107F2000FFFFFFFFFFFF7EEF79C6846E86768676C1
:107F300086768676A676A67EA67EA67EA67EA67E79
:107F4000867E867E867E8676867686768676867639
:107F50008676866E856E856E856E656665666566F7
:107F6000656665666566656665666566635E75B663
:107F70003EE7FFFFFFFFDBD63BC6A476867686761C
:107F80008676867686768676867EA67EA67EA67E91
:107F9000A676A676A67686768676867686768676A1
:107FA000866E866E656E856E656E656665666566EF
:107FB000656665666566656665666566635E57B631
:107FC0007BCEFFFFFFFF19BE1BC6A57686768676A1
:107FD00086768676A676A676A676A6768676867641
:107FE0008676867686768676867686768676866EB9
:107FF000866E856E856E656E6566656665666566A8
:10800000656665666566656665666566635E19BE16
:10801000F9B5FFFFFFFFB7ADDABD877E86768676BE
:10802000867686768676A676867686768676867650
:10803000867686768676867686768676866E866E70
:10804000866E856E656E856E656665666566656657
:10805000656665666566656665666566635EDABD06
:10806000D8ADDFFFFFFF77A599B5276EC786867667
:108070008676867EA67EA67EA67E867686768676A0
:10808000867686768676867686768676866E866E20
:10809000856E656E856E6566656665666566656630
:1080A000656665666566656665668566E35599B568
:1080B00097ADBEF7DFFF56A578ADE96DA676A77E32
:1080C000867EA67EA67EA67EA67EA67E867E8676F8
:1080D000867686768676867686768676866E866ED0
:1080E000856E856E656E65666566656665666566E0
:1080F00065666566656665668566E45DC55D79ADE0
:1081000077A59EF7BEF7369D58A58C758466C78EF9
:10811000A67EA77EA77EA67EA67EA67EA67EA67E3D
:10812000A67E86768676867686768676866E866E57
:10813000856E856E856E656665666566656665666F
:1081400065666566656685662566634D886558ADB6
:10815000369D9EF79EF7359D77A5F184A4666566EA
:10816000C896A786A786A786A786A786A67EA67E88
:10817000A67EA6768676867686768676866E866EE7
:10818000866E856E656E656E656665666566656636
:108190006566656685664566C344A34DED7458A55E
:1081A000369D9EF7BEF7159D77A5F5942566856EDD
:1081B000656EE89EC78EC78EC78EC78EA786A67EC1
:1081C000A67EA67E86768676867686768676866E87
:1081D000866E866E856E856E656E6566656665669D
:1081E0006566A566255E623C0345824D938C77A546
:1081F00076ADBEF7FFFF159D77A576A5EB6CA46E57
:10820000866E866EC88EE89EE89EE896C88EA78623
:10821000A67EA67EA67EA6768676867686768676E6
:10822000866E866E856E856E856665666566856614
:10823000C56E444D022CA33C2245885C359D569D5D
:10824000F8BDDFFFFFFF96B557A576A5F28CC66592
:10825000A56E86768676A77EE89EE99EC896C78636
:10826000A77EA67EA67EA67EA6768676867686766D
:10827000866E866E856E656E856E856EC56E045ED5
:10828000E22BC22B4234A23CC344707C559DB8AD56
:1082900059CEFFFFFFFF9AD6369D77ADB3958F7C01
:1082A0006566A6768676A67EA67EA786C88EC896C2
:1082B000A786A77EA67EA67EA67E8676867686760C
:1082C0008676866EA66EA66EC676A45502344123C7
:1082D000A12B022C4234A134ED63328D56A59BCEE6
:1082E0009AD6FFFFFFFFBEF735A5F9B5749DB2958D
:1082F0006D74656EA676867EA67EA67E867666768A
:108300006676667E867EA77EA786C786C77EA67EA1
:10831000667605666455833C812381238123A123EE
:10832000C22B022C4134CB5B1185138D19BE59C66B
:108330009EF7FFFFFFFFFFFF59CEB8AD3AC6918D04
:10834000B2956E74256EC67EA67EA67E867666760D
:10835000456E0566E45DA455444D0345A33C623477
:1083600022340234E22BE22BC22BC22BA12BA12BF5
:10837000E12BE12BAB5BF184F07C97AD39C679CE74
:10838000FFFFFFFFFFFFFFFFDFFF96AD7BC699C634
:108390009085D18DAF7C4865C57EA67E8676667653
:1083A000456E2566E55DC45D6455244DE344A33CFC
:1083B000623C42342234022CE22BC22BC12BC0235C
:1083C0008433ED63F07C107D349597B5D7BDBEF74F
:1083D000FFFFFFFFFFFFFFFFFFFF3CE7B7B5FCD646
:1083E000FBD6908DB08D70858C6CA76DC576856E33
:1083F000656E2566E55DA4558455444DE344A33C74
:10840000623C42342234022CE12BE123832B894B42
:108410006E74EF7C107DD28C939455A53CEFFFFFDA
:10842000FFFFFFFFFFFFFFFFFFFFFFFFDBDE19BEC8
:108430005EE79FF775AE54A6329E6F85AC6C2865DB
:10844000A5654466045EE4558455434D0345C23C2E
:10845000823C6234212CC233853BAA534D6CAE74EE
:10846000EE74F0848F6BD073938CFBE6FFFFFFFFFD
:10847000FFFFFFFFFFFFFFFFFFFFFFFFFFFFDBDE51
:1084800039C6BFF7FFFFFFFFF8C6AD7DCE7DAE7DDD
:108490004D75CB6CC95CC75CA654854C65442544BE
:1084A000E643E74BEA534B648C6CAD6CCD6CF07CCF
:1084B0006D632A42CC5231843CE7FFFFFFFFFFFF90
:1084C000FFFFFFFFFFFFFFFFFFFFFFFFFFFFFFFFBC
:1084D0003CE738C6FFFFFFFFFFFFDFFFD6BEEF8D93
:1084E000AB75AC75AC758B754B6D2A6DEA64CA645F
:1084F000CA64CB64CB64CB640E758F7C6E63E83941
:10850000C831E839B394BEF7FFFFFFFFFFFFFFFF5D
:10851000FFFFFFFFFFFFFFFFFFFFFFFFFFFFFFFF6B
:10852000FFFFDFFF59CEFBDEFFFFFFFFFFFFBFFFB7
:108530005DE7B8C654AE1196F08DAF858E856F8518
:108540002F85F084907CF073ED5A4A4A093A8629C7
:10855000CB5A9AD6FFFFFFFFFFFFFFFFFFFFFFFF92
:10856000FFFFFFFFFFFFFFFFFFFFFFFFFFFFFFFF1B
:10857000FFFFFFFFFFFF7DEF79CEFBDE9EF77EEF73
:108580003DDFDCD67BCEFABD98AD37A5B5943384FC
:10859000B1734F630E5BCC526B4A09426E6B38C6A7
:1085A000FFFFFFFFFFFFFFFFFFFFFFFFFFFFFFFFDB
:1085B000FFFFFFFFFFFFFFFFFFFFFFFFFFFFFFFFCB
:1085C000FFFFFFFFFFFFFFFFFFFFBEF7DBDE7ACEFF
:1085D0007ACE59C639BED8B577A515959384F1736F
:1085E0006F632E5B6F6B318476AD5DEFFFFFFFFF36
:1085F000FFFFFFFFFFFFFFFFFFFFFFFFFFFFFFFF8B
:10860000FFFFFFFFFFFFFFFFFFFFFFFFFFFFFFFF7A
:10861000FFFFFFFFFFFFFFFFFFFFFFFFFFFFFFFF6A
:10862000DFFF7DEF1CE7DBDE9AD679CE59CE7ACE1E
:10863000DBDE7DEFDFFFFFFFFFFFFFFFFFFFFFFF41
:10864000FFFFFFFFFFFFFFFFFFFFFFFFFFFFFFFF3A
:10865000FFFFFFFFFFFFFFFFFFFFFFFFFFFFFFFF2A
:10866000FFFFFFFFFFFFFFFFFFFFFFFFFFFFFFFF1A
:10867000FFFFFFFFFFFFFFFFFFFFFFFFFFFFFFFF0A
:10868000FFFFFFFFFFFFFFFFFFFFFFFFFFFFFFFFFA
:10869000FFFFFFFFFFFFFFFFFFFFFFFFFFFFFFFFEA
:1086A000FFFFFFFF0010A0005700011BFFFFFFFFAF
:1086B000FFFFFFFFFFFFFFFFFFFFFFFFFFFFFFFFCA
:1086C000FFFFFFFFFFFFFFFFFFFFFFFFFFFFFFFFBA
:1086D000FFFFFFFFFFFFFFFFFFFFFFFFFFFFFFFFAA
:1086E000FFFFFFFFFFFFFFFFFFFFFFFFFFFFFFFF9A
:1086F000FFFFFFFFFFFFFFFFFFFFFFFFFFFFFFFF8A
:10870000FFFFFFFFFFFFFFFFFFFFFFFFFFFFFFFF79
:10871000FFFFFFFFFFFFFFFFFFFFFFFFFFFFFFFF69
:10872000FFFFFFFFFFFFFFFFFFFFFFFFFFFFFFFF59
:10873000FFFFFFFFFFFFFFFFFFFFFFFFFFFFFFFF49
:10874000FFFFFFFFFFFFFFFFFFFFFFFFFFFFFFFF39
:10875000FFFFFFFFFFFFFFFFFFFFFFFFFFFFFFFF29
:10876000FFFFFFFFFFFFFFFFFFFFFFFFFFFFFFFF19
:10877000FFFFFFFFFFFFFFFFFFFFFFFFFFFFFFFF09
:10878000FFFFFFFFFFFFFFFFFFFFFFFFFFFFFFFFF9
:10879000FFFFFFFFFFFFFFFFFFFFFFFFFFFFFFFFE9
:1087A000FFFFFFFFFFFFFFFFFFFFFFFFFFFFFFFFD9
:1087B000FFFFFFFFFFFFFFFFFFFFFFFFFFFFFFFFC9
:1087C000FFFFFFFFFFFFFFFFFFFFFFFFFFFFFFFFB9
:1087D000FFFFFFFFFFFFFFFFFFFFFFFFFFFFFFFFA9
:1087E000FFFFFFFFFFFFFFFFFFFFFFFFFFFFFFFF99
:1087F000FFFFFFFFFFFFFFFFFFFFFFFFFFFFFFFF89
:10880000FFFFFFFFFFFFFFFFFFFFFFFFFFFFFFFF78
:10881000FFFFFFFFFFFFFFFFFFFFFFFFFFFFFFFF68
:10882000FFFFFFFFFFFFFFFFFFFFFFFFFFFFFFFF58
:10883000FFFFFFFFFFFFFFFFFFFFFFFFFFFFFFFF48
:10884000FFFFFFFFFFFFFFFFFFFFFFFFFFFFFFFF38
:10885000FFFFFFFFFFFFFFFFFFFFFFFFFFFFFFFF28
:10886000FFFFFFFFFFFFFFFFFFFFFFFFFFFFFFFF18
:10887000FFFFFFFFFFFFFFFFFFFFFFFFFFFFFFFF08
:10888000FFFFFFFFFFFFFFFFFFFFFFFFFFFFFFFFF8
:10889000FFFFFEFFFEFFFEFFFEFFFEFFFEFFFEFFEF
:1088A000FEFFFFFFFFFFFFFFFFFFFFFFFFFFFFFFD9
:1088B000FFFFFFFFFFFFFFFFFFFFFFFFFFFFFFFFC8
:1088C000FFFFFFFFFFFFFFFFFFFFFFFFFFFFFFFFB8
:1088D000FFFFFFFFFFFFFFFFFFFFFFFFFFFFFFFFA8
:1088E000FFFFFFFFFFFFFFFFFFFFFFFFFFFFFFFF98
:108B0000FEFFFEFFFEFFFFFFFFFFFEFFFFFFFEFF7A
:108B1000DFFFDFFFDFFFFFFFFFFFDFFFFFFFDFFF05
:108B2000DFFFFFFFFFFFDEFFDEFFFFFFDEFFFEFFD9
:108B3000FFFFFFFFFEFFFEFFFEFFFEFFFEFFFEFF4B
:108B4000FEFFFEFFFEFFFEFFFEFFFEFFFFFFFEFF3C
:108B5000FEFFFFFFFFFFFFFFDFFFFFFFFFFFFFFF46
:108B6000FFFFFFFFFFFFFFFFFFFFFFFFFFFFFFFF15
:108B7000FFFFFFFFFFFFFFFFFFFFFFFFFFFFFFFF05
:108B8000FFFFFFFFFFFFFFFFFFFFFFFFFFFFFFFFF5
:108B9000FFFFFFFFFFFFFFFFFFFFFFFFFFFFFFFFE5
:108BA000FFFFFFFFFFFFFFFFFFFFFFFFFFFFFFFFD5
:108BB000FFFFFFFFFFFFFFFFFFFFFFFFFFFFFFFFC5
:108BC000FFFFFFFFFFFFFFFFFFFFFFFFFFFFFFFFB5
:108BD000FFFFFFFFFFFFFFFFFFFFFFFFFFFFFFFFA5
:108BE000FFFFFFFFFFFFFFFFFFFFFFFFFFFFFFFF95
:108BF000FFFFFFFFFFFFFFFFFFFFFFFFFFFFFFFF85
:108C0000FFFFFFFFFFFFFFFFFFFFFFFFFFFFFFFF74
:108C1000FFFFFFFFFFFFFFFFFFFFFFFFFFFFFFFF64
:108C2000FFFFFFFFFFFFFFFFFFFFFFFFFFFFFFFF54
:108C3000FFFFFFFFFFFFFFFFFFFFFFFFFFFFFFFF44
:108C4000FEFFFEFFFFFFFFFFFFFFFFFFFFFFDFFF56
:108C5000FEFFFEFFFEFFFEFFFEFFFEFFFEFFFDFF2D
:108C6000FEFFFEFFFEFFFEFFFEFFFEFFFEFFFEFF1C
:108C7000FEFFFEFFFDFFFDFFFDFFFDFFFDFFFDFF12
:108C8000FDFFFDFFFDFFDFFFFFFFFFFFFFFFFFFF1A
:108C9000FFFFFFFFFFFFFFFFFFFFFFFFFFFFFFFFE4
:108CA000FFFFFFFFFFFFFFFFFFFFFFFFFFFFFFFFD4
:108CB000FFFFFFFFFFFFFFFFFFFFFFFFFFFFFFFFC4
:108CC000FFFFFFFFFFFFFFFFFFFFFFFFFFFFFFFFB4
:108CD000FFFFFFFFFFFFFFFFFFFFFFFFFFFFFFFFA4
:108CE000FFFFFFFFFFFFFFFFFFFFFFFFFFFFFFFF94
:108CF000FFFFFFFFFFFFFFFFFFFFFFFFFFFFFFFF84
:108D0000FFFFFFFFFFFFFFFFFFFFFFFFFFFFFFFF73
:108D1000FFFFFFFFFFFFFFFFFFFFFFFFFFFFFFFF63
:108D2000FFFFFFFFFFFFFFFFFFFFFFFFFFFFFFFF53
:108D3000FFFFFFFFFFFFFFFFFFFFFFFFFFFFFFFF43
:108D4000FFFFFFFFFFFFFFFFFFFFFFFFFFFFFFFF33
:108D5000FFFFFFFFFFFFFFFFFFFFFFFFFFFFFFFF23
:108D6000FFFFFFFFFFFFFFFFFFFFFFFFFFFFFFFF13
:108D7000FFFFFFFFFFFFFFFFFFFFFFFFFFFFFFFF03
:108D8000FFFFFFFFDFF7DFF7DFF7FFFFDFF7FFFF93
:108D9000FFF7FEF7FEF7FEF7FFF7FEF7FEF7FFFF20
:108DA000DEEF5EE77FE77FE75EE75EDF5EE75FE7D8
:108DB0007FE75FE77EE79EE7FFF7FFF7FFF7FFF745
:108DC000FFF7FFF7FFF7DFF7FFFFDFF7DFF7FFF74B
:108DD000DFF7FFFFFFFFDFF7FFFFFFFFFFFFFFFFF3
:108DE000FFFFFFFFFFFFFFFFFFFFFFFFFFFFFFFF93
:108DF000FFFFFFFFFFFFFFFFFFFFFFFFFFFFFFFF83
:108E0000FFFFFFFFFFFFFFFFFFFFFFFFFFFFFFFF72
:108E1000FFFFFFFFFFFFFFFFFFFFFFFFFFFFFFFF62
:108E2000FFFFFFFFFFFFFFFFFFFFFFFFFFFFFFFF52
:108E3000FFFFFFFFFFFFFFFFFFFFFFFFFFFFFFFF42
:108E4000FFFFFFFFFFFFFFFFFFFFFFFFFFFFFFFF32
:108E5000FFFFFFFFFFFFFFFFFFFFFFFFFFFFFFFF22
:108E6000FFFFFFFFFFFFFFFFFFFFFFFFFFFFFFFF12
:108E7000FFFFFFFFFFFFFFFFFFFFFFFFFFFFFFFF02
:108E8000FFFFFFFFFFFFFFFFFFFFFFFFFFFFFFFFF2
:108E9000FFFFFFFFFFFFFFFFFFFFFFFFFFFFFFFFE2
:108EA000FFFFFFFFFFFFFFFFFFFFFFFFFFFFFFFFD2
:108EB000FFFFFFFFFFFFFFFFFFFFFFFFFFFFFFFFC2
:108EC0009EEF5DE71CDFBBCE9BCE5BC699AD58A580
:108ED000B78C377CF673F673F673F673D56BB56B98
:108EE0009463335B335B1253F2521353535B13534C
:108EF0001353335B1153525BB363B363B363B36315
:108F0000B363F46B1574B794189D38A51BBE7BCE64
:108F1000BBD6DBD61CDF7DEFBEF7FFFFFFFFFFFFF9
:108F2000FFFFFFFFFFFFFFFFFFFFFFFFFFFFFFFF51
:108F3000FFFFFFFFFFFFFFFFFFFFFFFFFFFFFFFF41
:108F4000FFFFFFFFFFFFFFFFFFFFFFFFFFFFFFFF31
:108F5000FFFFFFFFFFFFFFFFFFFFFFFFFFFFFFFF21
:108F6000FFFFFFFFFFFFFFFFFFFFFFFFFFFFFFFF11
:108F7000FFFFFFFFFFFFFFFFFFFFFFFFFFFFFFFF01
:108F8000FFFFFFFFFFFFFFFFFFFFFFFFFFFFFFFFF1
:108F9000FFFFFFFFFFFFFFFFFFFFFFFFFFFFFFFFE1
:108FA000FFFFFFFFFFFFFFFFFFFFFFFFFFFFFFFFD1
:108FB000FFFFFFFFFFFFFFFFFFFFFFFFFFFFFFFFC1
:108FC000FFFFFFFFFFFFFFFFFEFFFFFFFFFFFFFFB2
:108FD000FFFFFFFFFFFFFFFFFFFFFFFFDDFFFEFFC4
:108FE000FEFFFEFFFEFFFEFFDDF7FEF7FEF7FFF7D9
:108FF000DFEFBEE77EDF5EDF3CB618951674B46324
:10900000765B55539563B563167416741574357491
:10901000D373B273926B716BF27B127C127C327CD5
:10902000738497ADD7B5D7B5D8B5F8B519BEF8B52F
:109030009ACE5DE77DEF7DEF7DEF7DEF7DEF1CE765
:1090400038C6F7BDF7BDD8B5D9B556A55384F27B60
:10905000D173B16B916BEE5A2F63D273B59499AD06
:109060005CC63EE73EE7BFF7BFF7BFF7BFFFBFF7FE
:10907000DFFFDFFFFFFFFFFFFFFFFFFFFFFFFFFF40
:10908000FFFFFFFFFFFFFFFFFFFFFFFFFFFFFFFFF0
:10909000FFFFFFFFFFFFFFFFFFFFFFFFFFFFFFFFE0
:1090A000FFFFFFFFFFFFFFFFFFFFFFFFFFFFFFFFD0
:1090B000FFFFFFFFFFFFFFFFFFFFFFFFFFFFFFFFC0
:1090C000FFFFFFFFFFFFFFFFFFFFFFFFFFFFFFFFB0
:1090D000FFFFFFFFFFFFFFFFFFFFFFFFFFFFFFFFA0
:1090E000FFFFFFFFFFFFFFFFFFFFFFFFFFFFFFFF90
:1090F000FFFFFFFFFFFFFFFFFFFFFEFFFEFFFFFF82
:10910000FFFFFFFFFFFFFFFFFFFFFFFFFFFFFFFF6F
:10911000FFFFFFFFFFFFFEFFFEFFFEFFDDFFFEFF85
:10912000FEFFFFFFFFFFFFF7BFEFFFD699A53684D5
:1091300073637363B573B573387C387CF773B66B40
:1091400093631153726314741895DBB55CC67FE7A3
:109150009FEFBFF7DFF7DFF7DFF7DFF7FFFFFFFF77
:10916000DFF7DFF7DFF7DFF7FFFFDFF7DFF7DFF727
:10917000DFF79EEFFFFFFFFFFFFFFFFFBEF7BEF72A
:10918000DFFFDFFFBEF7DFF7DFF7DFF7FFF7FFF700
:10919000FFFFDFF7FFF7BFEFDFF7DFF7BEF77EE791
:1091A0007BC6D8B5F59CD1731184728C97B5DBDE84
:1091B0007EEFFFFFFFFFFFFFBEF7FFFFFFFFFFFF99
:1091C000FFFFFFFFFFFFFFFFFFFFFFFFFFFFFFFFAF
:1091D000FFFFFFFFFFFFFFFFFFFFFFFFFFFFFFFF9F
:1091E000FFFFFFFFFFFFFFFFFFFFFFFFFFFFFFFF8F
:1091F000FFFFFFFFFFFFFFFFFFFFFFFFFFFFFFFF7F
:10920000FFFFFFFFFFFFFFFFFFFFFFFFFFFFFFFF6E
:10921000FFFFFFFFFFFFFFFFFFFFFFFFFFFFFFFF5E
:10922000FFFFFFFFFFFFFFFFFFFFFFFFFFFFFFFF4E
:10923000FFFFFFFFFFFFFFFFFFFFFFFFFFFFFFFF3E
:10924000FFFFFFFFFFFFFFFFFFFFDFFFFFFFFFFF4E
:10925000FFFFFFFFDFFFFFFFFFFFFFFFFFF7FDD671
:10926000D9ADF694357CD46BB56B377C387C3784BC
:10927000B573546B746BB473F99C9BAD7DCEDDD626
:109280005DE7BFF7FFFFDFF7FFFFFFFFFFFFFFFF18
:10929000DFFFFFFFFFFFFFFFDFFFFFFFFFFFFFFF1E
:1092A000FFFFFFFFFFFFFFFFFFFFFFFFFFFFFFFFCE
:1092B000FFFFFFFFFFFFFFFFFFFFFFFFFFFFFFFFBE
:1092C000DFFFFFFFFFFFFEFFFFFFFFFFFFFFFFFFCF
:1092D000FFFFFFFFFFFFFFFFFFFFDFFFFFFFFFFFBE
:1092E000FFFFDFF7DFF7DFF7DFFF7EF71CE7DBDEEF
:1092F0009AD618C6D7BD38C659CEDFFFFFFFFFFF8D
:10930000FFFFFFFFFFFFFFFFFFFFFFFFFFFFFFFF6D
:10931000FFFFFFFFFFFFFFFFFFFFFFFFFFFFFFFF5D
:10932000FFFFFFFFFFFFFFFFFFFFFFFFFFFFFFFF4D
:10933000FFFFFFFFFFFFFFFFFFFFFFFFFFFFFFFF3D
:10934000FFFFFFFFFFFFFFFFFFFFFFFFFFFFFFFF2D
:10935000FFFFFFFFFFFFFFFFFFFFFFFFFFFFFFFF1D
:10936000FFFFFFFFFFFFFFFFFFFFFFFFFFFFFFFF0D
:10937000FFFFFFFFFFFFFFFFFFFFDFFFDFFFFFFF3D
:10938000FFFFFEFFFEFFFFFFFFFFFEFFFEFFFFFFF1
:10939000FFFFDFF7DFF71FDFBAAD978CD56BF56BFB
:1093A000167415741574D46BB363357CF894D9AD09
:1093B0007BC6FDD67EEFDEF7FEFFFEF7FDFFFDFF6D
:1093C000DEFFFEFFFEFFFEFFFEFFDEFFFEFFDEFF15
:1093D000FEFFFEFFFEFFFFFFFEFFFFFFFFFFFFFFA1
:1093E000FFFFFFFFFFFFFFFFFFFFFFFFDFFFFFFFAD
:1093F000FFFFFFFFFFFFFFFFFFFFFFFFDFFFDFFFBD
:10940000FFFFDFFFDFFFFEFFFEFFFEFFFEFFFEFFB1
:10941000FEFFFEFFFEFFFEFFFEFFFFFFFEFFFEFF63
:10942000DEFFFFFFDEFFFEFFDFFFDFFFFFFFDFFFEF
:10943000DFFFDFFFDFFFBEF77DEFFFFFFFFFFFFF77
:10944000FFFFFFFFFFFFFFFFFFFFFFFFFFFFFFFF2C
:10945000FFFFFFFFFFFFFFFFFFFFFFFFFFFFFFFF1C
:10946000FFFFFFFFFFFFFFFFFFFFFFFFFFFFFFFF0C
:10947000FFFFFFFFFFFFFFFFFFFFFFFFFFFFFFFFFC
:10948000FFFFFFFFFFFFFFFFFFFFFFFFFFFFFFFFEC
:10949000FFFFFFFFFFFFFFFFFFFFFFFFFFFFFFFFDC
:1094A000FFFFFFFFFFFFFFFFFFFFFFFFFFFFFFFFCC
:1094B000FFFFFFFFFFFFFFFFDFFFDFFFFFFFFFFFFC
:1094C000FEFFFEFFFEFFFEFFFEFFFFF7DFF75EE79A
:1094D0005BC6589D357C7463D673187CD66BF67367
:1094E0001674F894B9AD7BC69FE7FFF7FFF7FFFF4F
:1094F000FFF7FFF7FEFFFEFFFDFFFDFFFDFFFDFF96
:10950000FEFFFEFFFEFFFEFFFEFFFEFFFEFFFFFF72
:10951000FEFFFEFFFEFFDEFFFFFFFFFFFFFFFFFF7F
:10952000FFFFFFFFFFFFFFFFFFFFFFFFFFFFFFFF4B
:10953000FFFFFFFFFFFFFFFFFFFFFFFFFFFFFFFF3B
:10954000FFFFFFFFFFFFFEFFFEFFFFFFFFFFFFFF2D
:10955000FEFFFFFFFFFFFEFFFFFFFFFFFFFFFFFF1D
:10956000DFFFFFFFFFFFFFFFFFFFFFFFFFFFFFFF2B
:10957000FFFFFFFFFFFFFFFFFFFFFFFFFFFFFFFFFB
:10958000FFFFFFFFFFFFFFFFFFFFFFFFFFFFFFFFEB
:10959000FFFFFFFFFFFFFFFFFFFFFFFFFFFFFFFFDB
:1095A000FFFFFFFFFFFFFFFFFFFFFFFFFFFFFFFFCB
:1095B000FFFFFFFFFFFFFFFFFFFFFFFFFFFFFFFFBB
:1095C000FFFFFFFFFFFFFFFFFFFFFFFFFFFFFFFFAB
:1095D000FFFFFFFFFFFFFFFFFFFFFFFFFFFFFFFF9B
:1095E000FFFFFFFFFFFFFFFFFFFFFFFFFFFFFFFF8B
:1095F000BEF7FFFFFFFFFFFFFFFFFEFFDEF7DEF717
:10960000FFFFFFFFDFF7BFEF5DE7BBAD367C7263A7
:10961000D46B567C3574D46BD46BF88C5BC65FE727
:10962000FFF7FFF7FFF7FFFFFFFFFEFFFEFFFFFF64
:10963000FFFFFFFFFFFFFFFFFFFFFFFFFFFFFFFF3A
:10964000FFFFFFFFFFFFFFFFFFFFFFFFFFFFFFFF2A
:10965000FFFFFFFFFFFFFFFFFFFFFFFFFFFFFFFF1A
:10966000FFFFFFFFFFFFFFFFFFFFFFFFFFFFFFFF0A
:10967000FFFFFFFFFFFFFFFFFFFFFFFFFFFFFFFFFA
:10968000FFFFFFFFFFFFFFFFFFFFFFFFFFFFFFFFEA
:10969000FFFFFFFFFFFFFFFFFFFFFFFFFFFFFFFFDA
:1096A000FFFFFFFFFFFFFFFFFFFFFFFFFFFFFFFFCA
:1096B000FFFFFFFFFFFFFFFFFFFFFFFFFFFFFFFFBA
:1096C000FFFFFFFFFFFFFFFFFFFFFFFFFFFFFFFFAA
:1096D000FFFFFFFFFFFFFFFFFFFFFFFFFFFFFFFF9A
:1096E000FFFFFFFFFFFFFFFFFFFFFFFFFFFFFFFF8A
:1096F000FFFFFFFFFFFFFFFFFFFFFFFFFFFFFFFF7A
:10970000FFFFFFFFFFFFFFFFFFFFFFFFFFFFFFFF69
:10971000FFFFFFFFFFFFFFFFFFFFFFFFFFFFFFFF59
:10972000FFFFFFFFFFFFFFFFFFFFFFFFFFFFFFFF49
:10973000FFFFFFFFFFFFFFFFFEFFFCFFFDF7DFF76F
:10974000FFF75FE7D794F15A946B387C7984956B77
:10975000535B96849DC6FFF7DFEFFFF7FCF7FDF73D
:10976000DDF7FDFFFEFFFFFFFFFFFFFFFFFFFFFF36
:10977000FFFFFFFFFFFFFFFFFFFFFFFFFFFFFFFFF9
:10978000FFFFFFFFFFFFFFFFFFFFFFFFFFFFFFFFE9
:10979000FFFFFFFFFFFFFFFFFFFFFFFFFFFFFFFFD9
:1097A000FFFFFFFFFFFFFFFFFFFFFFFFFFFFFFFFC9
:1097B000FFFFFFFFFFFFFFFFFFFFFFFFFFFFFFFFB9
:1097C000FFFFFFFFFFFFFFFFFFFFFFFFFFFFFFFFA9
:1097D000FFFFFFFFFFFFFFFFFFFFFFFFFFFFFFFF99
:1097E000FFFFFFFFFFFFFFFFFFFFFFFFFFFFFFFF89
:1097F000FFFFFFFFFFFFFFFFFFFFFFFFFFFFFFFF79
:10980000FFFFFFFFFFFFFFFFFFFFFFFFFFFFFFFF68
:10981000FFFFFFFFFFFFFFFFFFFFFFFFFFFFFFFF58
:10982000FFFFFFFFFFFFFFFFFFFFFFFFFFFFFFFF48
:10983000FFFFFFFFFFFFFFFFFFFFFFFFFFFFFFFF38
:10984000FFFFFFFFFFFFFFFFFFFFFFFFFFFFFFFF28
:10985000FFFFFFFFFFFFFFFFFFFFFFFFFFFFFFFF18
:10986000FFFFFFFFFFFFFFFFFFFFFFFFFFFFFFFF08
:10987000DFFFFFFFDFFFDFFFFFF7FFF73EDF75844E
:10988000936BD5735784D46B7263147C3CBE5EE7D4
:10989000BFEFDFF7DFF7BEF7DEF7FEFFFEFFFEFFED
:1098A000DDFFFEFFFFFFFFFFFFFFFFFFFFFFFFFFEB
:1098B000FFFFFFFFFFFFFFFFFFFFFFFFFFFFFFFFB8
:1098C000FFFFFFFFFFFFFFFFFFFFFFFFFFFFFFFFA8
:1098D000FFFFFFFFFFFFFFFFFFFFFFFFFFFFFFFF98
:1098E000FFFFFFFFFFFFFFFFFFFFFFFFFFFFFFFF88
:1098F000FFFFFFFFFFFFFFFFFFFFFFFFFFFFFFFF78
:10990000FFFFFFFFFFFFFFFFFFFFFFFFFFFFFFFF67
:10991000FFFFFFFFFFFFFFFFFFFFFFFFFFFFFFFF57
:10992000FFFFFFFFFFFFFFFFFFFFFFFFFFFFFFFF47
:10993000FFFFFFFFFFFFFFFFFFFFFFFFFFFFFFFF37
:10994000FFFFFFFFFFFFFFFFFFFFFFFFFFFFFFFF27
:10995000FFFFFFFFFFFFFFFFFFFFFFFFFFFFFFFF17
:10996000FFFFFFFFFFFFFFFFFFFFFFFFFFFFFFFF07
:10997000FFFFFFFFFFFFFFFFFFFFFFFFFFFFFFFFF7
:10998000FFFFFFFFFFFFFFFFFFFFFFFFFFFFFFFFE7
:10999000FFFFFFFFFFFFFFFFFFFFFFFFFFFFFFFFD7
:1099A000FFFFFFFFFFFFFFFFFFFFFFFFFFFFFFFFC7
:1099B000FFFFBEF7FFFF1CE778ADF57BB673187CA1
:1099C000D873966B77845BBE5EDFFDF7FDFFFDFF0E
:1099D000FEFFDEFFFEFFDFFFDFFFBFFFDFFFDFFF7A
:1099E000DFFFFFFFFFFFFFFFFFFFFEFFFEFFFFFFA9
:1099F000FFFFFFFFFFFFFFFFFFFFFFFFFFFFFFFF77
:109A0000FFFFFFFFFFFFFFFFFFFFFFFFFEFFFEFF68
:109A1000FFFFFFFFFFFFFFFFFFFFFFFFFFFFFFFF56
:109A2000FFFFFFFFFFFFFFFFFFFFFFFFFFFFFFFF46
:109A3000FFFFFFFFFFFFFFFFFFFFFFFFFFFFFFFF36
:109A4000FFFFFFFFFFFFFFFFFFFFFFFFFFFFFFFF26
:109A5000FFFFFEFFFEFFFEFFFFFFFFFFFFFFFFFF19
:109A6000FFFFFFFFFFFFFFFFFFFFFFFFFFFFFFFF06
:109A7000FFFFFFFFFFFFFFFFFFFFFFFFFFFFFFFFF6
:109A8000FFFFFFFFFFFFFFFFFFFFFFFFFFFFFFFFE6
:109A9000FFFFFFFFFFFFFFFFFFFFFFFFFFFFFFFFD6
:109AA000FFFFFFFFFFFFFFFFFFFFFFFFFFFFFFFFC6
:109AB000FFFFFFFFFFFFFFFFFFFFFFFFFFFFFFFFB6
:109AC000FFFFFFFFFFFFFFFFFFFFFFFFFFFFFFFFA6
:109AD000FFFFFFFFFFFFFFFFFFFFFFFFFFFFDFFFB6
:109AE000DFFFDFFFFFFFFFFFDFFFDFFFFFFFDFF72E
:109AF0009EE77BC6557CB563F773387CF673F473C9
:109B000077A53DE7FFFFDEFFDEFFFFFFFFFFFFFF63
:109B1000FFFFFFFFFFFFFFFFFFFFFFFFFFFFFFFF55
:109B2000FFFFFFFFFFFFFFFFFFFFFFFFFFFFFFFF45
:109B3000FFFFFFFFFFFFFFFFFFFFFFFFFFFFFFFF35
:109B4000FFFFFFFFFFFFFFFFFFFFFFFFFFFFFFFF25
:109B5000FFFFFFFFFFFFFFFFFFFFFFFFFFFFFFFF15
:109B6000FFFFFFFFFFFFFFFFFFFFFFFFFFFFFFFF05
:109B7000FFFFFFFFFFFFFFFFFFFFFFFFFFFFFFFFF5
:109B8000FFFFFFFFFFFFFFFFFFFFFFFFFFFFFFFFE5
:109B9000FFFFFFFFFFFFFFFFFFFFFFFFFFFFFFFFD5
:109BA000FFFFFFFFFFFFFFFFFFFFFFFFFFFFFFFFC5
:109BB000FFFFFFFFFFFFFFFFFFFFFFFFFFFFFFFFB5
:109BC000FFFFFFFFFFFFFFFFFFFFFFFFFFFFFFFFA5
:109BD000FFFFFFFFFFFFFFFFFFFFFFFFFFFFFFFF95
:109BE000FFFFFFFFFFFFFFFFFFFFFFFFFFFFFFFF85
:109BF000FFFFFFFFFFFFFFFFFFFFFFFFFFFFFFFF75
:109C0000FFFFFFFFFFFFFFFFFFFFFFFFFFFFFFFF64
:109C1000FFFFFFFFFFFFFFFFFFFFFFFFFFFFBEFF95
:109C2000FFFFFFFFFFFFFEFFFDFFDEF75DE778A50B
:109C3000B36BB46B7884377CF5735584FAB5FFF752
:109C4000DFF7FFFFDFFFDFFFFFFFFFFFFFFFFFFF8C
:109C5000FFFFFFFFFFFFFFFFFFFFFFFFFFFFFFFF14
:109C6000FFFFFFFFFFFFFFFFFFFFFFFFFFFFFFFF04
:109C7000FFFFFFFFFFFFFFFFFFFFFFFFFFFFFFFFF4
:109C8000FFFFFFFFFFFFFFFFFFFFFFFFFFFFFFFFE4
:109C9000FFFFFFFFFFFFFFFFFFFFFFFFFFFFFFFFD4
:109CA000FFFFFFFFFFFFFFFFFFFFFFFFFFFFFFFFC4
:109CB000FFFFFFFFFFFFFFFFFFFFFFFFFFFFFFFFB4
:109CC000FFFFFFFFFFFFFFFFFFFFFFFFFFFFFFFFA4
:109CD000FFFFFFFFFFFFFFFFFFFFFFFFFFFFFFFF94
:109CE000FFFFFFFFFFFFFFFFFFFFFFFFFFFFFFFF84
:109CF000FFFFFFFFFFFFFFFFFFFFFFFFFFFFFFFF74
:109D0000FFFFFFFFFFFFFFFFFFFFFFFFFFFFFFFF63
:109D1000FFFFFFFFFFFFFFFFFFFFFFFFFFFFFFFF53
:109D2000FFFFFFFFFFFFFFFFFFFFFFFFFFFFFFFF43
:109D3000FFFFFFFFFFFFFFFFFFFFFFFFFFFFFFFF33
:109D4000FFFFFFFFFFFFFFFFFFFFFFFFFFFFFFFF23
:109D5000FFFFFFFFFFFFFFFFFFFFFEFFFEFFFEFF16
:109D6000FEFFFFFFBEEFFFF7BEEF97A53063F67370
:109D70005884F67B3363F89C9FEFFFFFDEF7FFFF0D
:109D8000FEFFFFFFFFFFDFFFFFFFFFFFFFFFFFFF04
:109D9000FFFFFFFFFFFFFFFFFFFFFFFFFFFFFFFFD3
:109DA000FFFFFFFFFFFFFFFFFFFFFFFFFFFFFFFFC3
:109DB000FFFFFFFFFFFFFFFFFFFFFFFFFFFFFFFFB3
:109DC000FFFFFFFFFFFFFFFFFFFFFFFFFFFFFFFFA3
:109DD000FFFFFFFFFFFFFFFFFFFFFFFFFFFFFFFF93
:109DE000FFFFFFFFFFFFFFFFFFFFFFFFFFFFFFFF83
:109DF000FFFFFFFFFFFFFFFFFFFFFFFFFFFFFFFF73
:109E0000FFFFFFFFFFFFFFFFFFFFFFFFFFFFFFFF62
:109E1000FFFFFFFFFFFFFFFFFFFFFFFFFFFFFFFF52
:109E2000FFFFFFFFFFFFFFFFFFFFFFFFFFFFFFFF42
:109E3000FFFFFFFFFFFFFFFFFFFFFFFFFFFFFFFF32
:109E4000FFFFFFFFFFFFFFFFFFFFFFFFFFFFFFFF22
:109E5000FFFFFFFFFFFFFFFFFFFFFFFFFFFFFFFF12
:109E6000FFFFFFFFFFFFFFFFFFFFFFFFFFFFFFFF02
:109E7000FFFFFFFFFFFFFFFFFFFFFFFFFFFFFFFFF2
:109E8000FFFFFFFFFFFFFFFFFFFFFFFFFFFFFFFFE2
:109E9000FFFFFFFFFFFFFFFFFEFFFEFFFEFFFEFFD6
:109EA000DEF7DFF79EE7F694B363367C998CF673A2
:109EB0003363DBB5BFF7FFFFFEFFFEFFFEFFFEFFD4
:109EC000FEFFDEFFFFFFFFFFFFFFFFFFFFFFFFFFC4
:109ED000FFFFFFFFFFFFFFFFFFFFFFFFFFFFFFFF92
:109EE000FFFFFFFFFFFFFFFFFFFFFFFFFFFFFFFF82
:109EF000FFFFFFFFFFFFFFFFFFFFFFFFFFFFFFFF72
:109F0000FFFFFFFFFFFFFFFFFFFFFFFFFFFFFFFF61
:109F1000FFFFFFFFFFFFFFFFFFFFFFFFFFFFFFFF51
:109F2000FFFFFFFFFFFFFFFFFFFFFFFFFFFFFFFF41
:109F3000FFFFFFFFFFFFFFFFFFFFFFFFFFFFFFFF31
:109F4000FFFFFFFFFFFFFFFFFFFFFFFFFFFFFFFF21
:109F5000FFFFFFFFFFFFFFFFFFFFFFFFFFFFFFFF11
:109F6000FFFFFFFFFFFFFFFFFFFFFFFFFFFFFFFF01
:109F7000FFFFFFFFFFFFFFFFFFFFFFFFFFFFFFFFF1
:109F8000FFFFFFFFFFFFFFFFFFFFFFFFFFFFFFFFE1
:109F9000FFFFFFFFFFFFFFFFFFFFFFFFFFFFFFFFD1
:109FA000FFFFFFFFFFFFFFFFFFFFFFFFFFFFFFFFC1
:109FB000FFFFFFFFFFFFFFFFFFFFFFFFFFFFFFFFB1
:109FC000FFFFFFFFFFFFFFFFFFFFFFFFFFFFFFFFA1
:109FD000FFFFFFFFFFFFFEFFFEFFFEFFFFFFFFFF94
:109FE0007FE7179DD473167C5A7CF773B46BFAB570
:109FF0007FEFFFF7FEFFFDFFFEFFFFFFFFFFFFFF0D
:10A00000FEFFFFFFFFFFFFFFFFFFFFFFFFFFFFFF61
:10A01000FFFFFFFFFFFFFFFFFFFFFFFFFFFFFFFF50
:10A02000FFFFFFFFFFFFFFFFFFFFFFFFFFFFFFFF40
:10A03000FFFFFFFFFFFFFFFFFFFFFFFFFFFFFFFF30
:10A04000FFFFFFFFFFFFFFFFFFFFFFFFFFFFFFFF20
:10A05000FFFFFFFFFFFFFFFFFFFFFFFFFFFFFFFF10
:10A06000FFFFFFFFFFFFFFFFFFFFFFFFFFFFFFFF00
:10A07000FFFFFFFFFFFFFFFFFFFFFFFFFFFFFFFFF0
:10A08000FFFFFFFFFFFFFFFFFFFFFFFFFFFFFFFFE0
:10A09000FFFFFFFFFFFFFFFFFFFFFFFFFFFFFFFFD0
:10A0A000FFFFFFFFFFFFFFFFFFFFFFFFFFFFFFFFC0
:10A0B000FFFFFFFFFFFFFFFFFFFFFFFFFFFFFFFFB0
:10A0C000FFFFFFFFFFFFFFFFFFFFFFFFFFFFFFFFA0
:10A0D000FFFFFFFFFFFFFFFFFFFFFFFFFFFFFFFF90
:10A0E000FFFFFFFFFFFFFFFFFFFFFFFFFFFFFFFF80
:10A0F000FFFFFFFFFFFFFFFFFFFFFFFFFFFFFFFF70
:10A10000FFFFFFFFFFFFFFFFFFFFFFFFFFFFFFFF5F
:10A11000FFFFFFFFFFFFDEFFFFFFDFF7BFEFB9AD80
:10A12000F473167C377C3884D5739AA57EE7DEF706
:10A13000FEF7FEFFFFFFFFFFDFFFFFFFFFFFFFFF59
:10A14000FFFFFFFFFFFFFFFFFFFFFFFFFFFFFFFF1F
:10A15000FFFFFFFFFFFFFFFFFFFFFFFFFFFFFFFF0F
:10A16000FFFFFFFFFFFFFFFFFFFFFFFFFFFFFFFFFF
:10A17000FFFFFFFFFFFFFFFFFFFFFFFFFFFFFFFFEF
:10A18000FFFFFFFFFFFFFFFFFFFFFFFFFFFFFFFFDF
:10A19000FFFFFFFFFFFFFFFFFFFFFFFFFFFFFFFFCF
:10A1A000FFFFFFFFFFFFFFFFFFFFFFFFFFFFFFFFBF
:10A1B000FFFFFFFFFFFFFFFFFFFFFFFFFFFFFFFFAF
:10A1C000FFFFFFFFFFFFFFFFFFFFFFFFFFFFFFFF9F
:10A1D000FFFFFFFFFFFFFFFFFFFFFFFFFFFFFFFF8F
:10A1E000FFFFFFFFFFFFFFFFFFFFFFFFFFFFFFFF7F
:10A1F000FFFFFFFFFFFFFFFFFFFFFFFFFFFFFFFF6F
:10A20000FFFFFFFFFFFFFFFFFFFFFFFFFFFFFFFF5E
:10A21000FFFFFFFFFFFFFFFFFFFFFFFFFFFFFFFF4E
:10A22000FFFFFFFFFFFFFFFFFFFFFFFFFFFFFFFF3E
:10A23000FFFFFFFFFFFFFFFFFFFFFFFFFFFFFFFF2E
:10A24000FFFFFFFFFFFFFFFFFFFFFFFFFFFFFFFF1E
:10A25000FFFFFFFFFFFFDFF7DFF7DDD6968CD4733C
:10A2600037843784D573978C3EE7FFFFFEF7FDFFF9
:10A27000FDFFFFFFDFFFDFFFDFFFFFFFFFFFFFFF50
:10A28000FFFFFFFFFFFFFFFFFFFFFFFFFFFFFFFFDE
:10A29000FFFFFFFFFFFFFFFFFFFFFFFFFFFFFFFFCE
:10A2A000FFFFFFFFFFFFFFFFFFFFFFFFFFFFFFFFBE
:10A2B000FFFFFFFFFFFFFFFFFFFFFFFFFFFFFFFFAE
:10A2C000FFFFFFFFFFFFFFFFFFFFFFFFFFFFFFFF9E
:10A2D000FFFFFFFFFFFFFFFFFFFFFFFFFFFFFFFF8E
:10A2E000FFFFFFFFFFFFFFFFFFFFFFFFFFFFFFFF7E
:10A2F000FFFFFFFFFFFFFFFFFFFFFFFFFFFFFFFF6E
:10A30000FFFFFFFFFFFFFFFFFFFFFFFFFFFFFFFF5D
:10A31000FFFFFFFFFFFFFFFFFFFFFFFFFFFFFFFF4D
:10A32000FFFFFFFFFFFFFFFFFFFFFFFFFFFFFFFF3D
:10A33000FFFFFFFFFFFFFFFFFFFFFFFFFFFFFFFF2D
:10A34000FFFFFFFFFFFFFFFFFFFFFFFFFFFFFFFF1D
:10A35000FFFFFFFFFFFFFFFFFFFFFFFFFFFFFFFF0D
:10A36000FFFFFFFFFFFFFFFFFFFFFFFFFFFFFFFFFD
:10A37000FFFFFFFFFFFFFFFFFFFFFFFFFFFFFFFFED
:10A38000FFFFFFFFFFFFFFFFFFFFFFFFFFFFFFFFDD
:10A39000FFFFFFFFFFFF9EEF1AB692639884377CA2
:10A3A000167C147CFDDEFFF7FEFFDEFFDEFFDEFF26
:10A3B000FFFFFFFFFFFFFFFFFFFFFFFFFFFFFFFFAD
:10A3C000FFFFFFFFFFFFFFFFFFFFFFFFFFFFFFFF9D
:10A3D000FFFFFFFFFFFFFFFFFFFFFFFFFFFFFFFF8D
:10A3E000FFFFFFFFFFFFFFFFFFFFFFFFFFFFFFFF7D
:10A3F000FFFFFFFFFFFFFFFFFFFFFFFFFFFFFFFF6D
:10A40000FFFFFFFFFFFFFFFFFFFFFFFFFFFFFFFF5C
:10A41000FFFFFFFFFFFFFFFFFFFFFFFFFFFFFFFF4C
:10A42000FFFFFFFFFFFFFFFFFFFFFFFFFFFFFFFF3C
:10A43000FFFFFFFFFFFFFFFFFFFFFFFFFFFFFFFF2C
:10A44000FFFFFFFFFFFFFFFFFFFFFFFFFFFFFFFF1C
:10A45000FFFFFFFFFFFFFFFFFFFFFFFFFFFFFFFF0C
:10A46000FFFFFFFFFFFFFFFFFFFFFFFFFFFFFFFFFC
:10A47000FFFFFFFFFFFFFFFFFFFFFFFFFFFFFFFFEC
:10A48000FFFFFFFFFFFFFFFFFFFFFFFFFFFFFFFFDC
:10A49000FFFFFFFFFFFFFFFFFFFFFFFFFFFFFFFFCC
:10A4A000FFFFFFFFFFFFFFFFFFFFFFFFFFFFFFFFBC
:10A4B000FFFFFFFFFFFFFFFFFFFFFFFFFFFFFFFFAC
:10A4C000FFFFFFFFFFFFFFFFFFFFFFFFFFFFFFFF9C
:10A4D000DFFFBEF7BEF7127C147C7784577C956350
:10A4E0005AA5DFF7DFF7FFFFFFFFFFFFDFFFDFFF0B
:10A4F000FFFFFFFFFEFFFDFFFDFFFEFFFEFFFEFF74
:10A50000FFFFFFFFFFFFFFFFFFFFFFFFFFFFFFFF5B
:10A51000FFFFFFFFFFFFFFFFFFFFFFFFFFFFFFFF4B
:10A52000FFFFFFFFFFFFFFFFFFFFFFFFFFFFFFFF3B
:10A53000FFFFFFFFFFFFFFFFFFFFFFFFFFFFFFFF2B
:10A54000FFFFFFFFFFFFFFFFFFFFFFFFFFFFFFFF1B
:10A55000FFFFFFFFFFFFFFFFFFFFFFFFFFFFFFFF0B
:10A56000FFFFFFFFFFFFFFFFFFFFFFFFFFFFFFFFFB
:10A57000FFFFFFFFFFFFFFFFFFFFFFFFFFFFFFFFEB
:10A58000FFFFFFFFFFFFFFFFFFFFFFFFFFFFFFFFDB
:10A59000FFFFFFFFFFFFFFFFFFFFFFFFFFFFFFFFCB
:10A5A000FFFFFFFFFFFFFFFFFFFFFFFFFFFFFFFFBB
:10A5B000FFFFFFFFFFFFFFFFFFFFFFFFFFFFFFFFAB
:10A5C000FFFFFFFFFFFFFFFFFFFFFFFFFFFFFFFF9B
:10A5D000FFFFFFFFFFFFFFFFFFFFFFFFFFFFFFFF8B
:10A5E000FFFFFFFFFFFFFFFFFFFFFFFFFFFFFFFF7B
:10A5F000FFFFFFFFFFFFFFFFFFFFFFFFFFFFFFFF6B
:10A60000FFFFFFFFFDFFFFFFDFFFFFFFDEF7FEFFA6
:10A61000DFF77CC6B573597C3774567CD273DCD6B1
:10A62000FFFFDFF7FFFFDEFFFFFFFFFFFFFFFFFF83
:10A63000FFFFFFFFFFFFFFFFFFFFFFFFFFFFFFFF2A
:10A64000FFFFFFFFFFFFFFFFFFFFFFFFFFFFFFFF1A
:10A65000FFFFFFFFFFFFFFFFFFFFFFFFFFFFFFFF0A
:10A66000FFFFFFFFFFFFFFFFFFFFFFFFFFFFFFFFFA
:10A67000FFFFFFFFFFFFFFFFFFFFFFFFFFFFFFFFEA
:10A68000FFFFFFFFFFFFFFFFFFFFFFFFFFFFFFFFDA
:10A69000FFFFFFFFFFFFFFFFFFFFFFFFFFFFFFFFCA
:10A6A000FFFFFFFFFFFFFFFFFFFFFFFFFFFFFFFFBA
:10A6B000FFFFFFFFFFFFFFFFFFFFFFFFFFFFFFFFAA
:10A6C000FFFFFEFFFEFFDDF7FEFFBEF7FFFFDFFF30
:10A6D000FFFFFFFFFFFFFFFFFFFFFFFFFFFFFFFF8A
:10A6E000FFFFFFFFFFFFFFFFFFFFFFFFFFFFFFFF7A
:10A6F000FFFFFFFFFFFFFFFFFFFFFFFFFFFFFFFF6A
:10A70000FFFFFFFFFFFFFFFFFFFFFFFFFFFFFFFF59
:10A71000FFFFFFFFFFFFFFFFFFFFFFFFFFFFFFFF49
:10A72000FFFFFFFFFFFFFFFFFFFFFFFFFFFFFFFF39
:10A73000FFFFFFFFFFFFFFFFFFFFFFFFFFFFFFFF29
:10A74000FFFFFFFFFFFFFFFFFFFFFFFFDEF7DFF76A
:10A7500078ADD5733884577C1574D794DFF7FFFF35
:10A76000DFF7FFFFFFFFFFFFFFFFFFFFFFFFFFFF21
:10A77000FFFFFFFFFFFFFFFFFFFFFFFFFFFFFFFFE9
:10A78000FFFFFFFFFFFFFFFFFFFFFFFFFFFFFFFFD9
:10A79000FFFFFFFFFFFFFFFFFFFFFFFFFFFFFFFFC9
:10A7A000FFFFFFFFFFFFFFFFFFFFFFFFFFFFFFFFB9
:10A7B000FFFFFFFFFFFFFFFFFFFFFFFFFFFFFFFFA9
:10A7C000FFFFFFFFFFFFFFFFFFFFFFFFFFFFFFFF99
:10A7D000FFFFFFFFFFFFFFFFFFFFFFFFFFFFFFFF89
:10A7E000FFFFFFFFFFFFFFFFFFFFFFFFFFFFFFFF79
:10A7F000FFFFFFFFFFFFFFFFFFFFFFFFFFFFFFFF69
:10A80000FFFFFFFFFFFFDFF7DFF7DFF7FFFFDFFFF0
:10A81000FFFFFFFFFFFFFFFFFFFFFFFFFFFFFFFF48
:10A82000FFFFFFFFFFFFFFFFFFFFFFFFFFFFFFFF38
:10A83000FFFFFFFFFFFFFFFFFFFFFFFFFFFFFFFF28
:10A84000FFFFFFFFFFFFFFFFFFFFFFFFFFFFFFFF18
:10A85000FFFFFFFFFFFFFFFFFFFFFFFFFFFFFFFF08
:10A86000FFFFFFFFFFFFFFFFFFFFFFFFFFFFFFFFF8
:10A87000FFFFFFFFFFFFFFFFFFFFFFFFFFFFFFFFE8
:10A88000FFFFFFFFDFFFFFFFDEF7FEFFBEEF379D9D
:10A89000F57358845984147499ADDFF7DFF7DFF747
:10A8A000FFFFFFFFFFFFDFFFFFFFFFFFFFFFFFFFD8
:10A8B000FFFFFFFFFFFFFFFFFFFFFFFFFFFFFFFFA8
:10A8C000FFFFFFFFFFFFFFFFFFFFFFFFFFFFFFFF98
:10A8D000FFFFFFFFFFFFFFFFFFFFFFFFFFFFFFFF88
:10A8E000FFFFFFFFFFFFFFFFFFFFFFFFFFFFFFFF78
:10A8F000FFFFFFFFFFFFFFFFFFFFFFFFFFFFFFFF68
:10A90000FFFFFFFFFFFFFFFFFFFFFFFFFFFFFFFF57
:10A91000FFFFFFFFFFFFFFFFFFFFFFFFFFFFFFFF47
:10A92000FFFFFFFFFFFFFFFFFFFFFFFFFFFFFFFF37
:10A93000FFFFFFFFFFFFFFFFFFFFFFFFFFFFFFFF27
:10A94000FFFFFFFFFFFFBFEF7BC677ADD394BEF7DE
:10A95000FFFFFFFFFFFFFFFFFFFFFFFFFFFFFFFF07
:10A96000FFFFFFFFFFFFFFFFFFFFFFFFFFFFFFFFF7
:10A97000FFFFFFFFFFFFFFFFFFFFFFFFFFFFFFFFE7
:10A98000FFFFFFFFFFFFFFFFFFFFFFFFFFFFFFFFD7
:10A99000FFFFFFFFFFFFFFFFFFFFFFFFFFFFFFFFC7
:10A9A000FFFFFFFFFFFFFFFFFFFFFFFFFFFFFFFFB7
:10A9B000FFFFFFFFFFFFFFFFFFFFFFFFFFFFFFFFA7
:10A9C000FFFFFFFFDFFFFFFFFEF75DDF337C377C1C
:10A9D000387C1774D46BDCD6DFF7FFFFFFFFFFFF77
:10A9E000FFFFDFFFFFFFFFFFFFFFFFFFFFFFFFFF97
:10A9F000FFFFFFFFFFFFFFFFFFFFFFFFFFFFFFFF67
:10AA0000FFFFFFFFFFFFFFFFFFFFFFFFFFFFFFFF56
:10AA1000FFFFFFFFFFFFFFFFFFFFFFFFFFFFFFFF46
:10AA2000FFFFFFFFFFFFFFFFFFFFFFFFFFFFFFFF36
:10AA3000FFFFFFFFFFFFFFFFFFFFFFFFFFFFFFFF26
:10AA4000FFFFFFFFFFFFFFFFFFFFFFFFFFFFFFFF16
:10AA5000FFFFFFFFFFFFFFFFFFFFFFFFFFFFFFFF06
:10AA6000FFFFFFFFFFFFFFFFFFFFFFFFFFFFFFFFF6
:10AA7000FFFFFFFFFFFFFFFFFFFFFFFFFFFFFFFFE6
:10AA8000DFFFDFF7DFF71674315B4F5BFCD6DEF7D5
:10AA9000FEFFFFFFFFFFFFFFFFFFFFFFFFFFFFFFC7
:10AAA000FFFFFFFFFFFFFFFFFFFFFFFFFFFFFFFFB6
:10AAB000FFFFFFFFFFFFFFFFFFFFFFFFFFFFFFFFA6
:10AAC000FFFFFFFFFFFFFFFFFFFFFFFFFFFFFFFF96
:10AAD000FFFFFFFFFFFFFFFFFFFFFFFFFFFFFFFF86
:10AAE000FFFFFFFFFFFFFFFFFFFFFFFFFFFFFFFF76
:10AAF000FFFFFFFFFFFFFFFFFFFFFFFFFFFFFFFF66
:10AB0000DFFFFFFFDFF7FFF7DFF7347C387C3A7CAD
:10AB1000397C9363DCCEDFFFFFFFFFFFFFFFFFFF0A
:10AB2000FFFFFFFFFFFFFFFFFFFFFFFFFFFFFFFF35
:10AB3000FFFFFFFFFFFFFFFFFFFFFFFFFFFFFFFF25
:10AB4000FFFFFFFFFFFFFFFFFFFFFFFFFFFFFFFF15
:10AB5000FFFFFFFFFFFFFFFFFFFFFFFFFFFFFFFF05
:10AB6000FFFFFFFFFFFFFFFFFFFFFFFFFFFFFFFFF5
:10AB7000FFFFFFFFFFFFFFFFFFFFFFFFFFFFFFFFE5
:10AB8000FFFFFFFFFFFFFFFFFFFFFFFFFFFFFFFFD5
:10AB9000FFFFFFFFFFFFFFFFFFFFFFFFFFFFFFFFC5
:10ABA000FFFFFFFFFFFFFFFFFFFFFFFFFFFFFFFFB5
:10ABB000FFFFFFFFFFFFFFFFFFFFFFFFFFFFDFFFC5
:10ABC000BFF7FFFF948C545B315BFED69FEFFFFF16
:10ABD000FEFFFFFFFFFFFFFFFFFFFFFFFFFFFFFF86
:10ABE000FFFFFFFFFFFFFFFFFFFFFFFFFFFFFFFF75
:10ABF000FFFFFFFFFFFFFFFFFFFFFFFFFFFFFFFF65
:10AC0000FFFFFFFFFFFFFFFFFFFFFFFFFFFFFFFF54
:10AC1000FFFFFFFFFFFFFFFFFFFFFFFFFFFFFFFF44
:10AC2000FFFFFFFFFFFFFFFFFFFFFFFFFFFFFFFF34
:10AC3000FFFFFFFFFFFFFFFFFFFFFFFFFFFFFFFF24
:10AC4000FFFFFFFFDEF7DFF71374D56B5B843A7C01
:10AC500054637EE7FEF7FEFFFEFFFEFFFFFFFFFFF0
:10AC6000FFFFFFFFFFFFFFFFFFFFFFFFFFFFFFFFF4
:10AC7000FFFFFFFFFFFFFFFFFFFFFFFFFFFFFFFFE4
:10AC8000FFFFFFFFFFFFFFFFFFFFFFFFFFFFFFFFD4
:10AC9000FFFFFFFFFFFFFFFFFFFFFFFFFFFFFFFFC4
:10ACA000FFFFFFFFFFFFFFFFFFFFFFFFFFFFFFFFB4
:10ACB000FFFFFFFFFFFFFFFFFFFFFFFFFFFFFFFFA4
:10ACC000FFFFDFFFFFFFFFFFFFFFFFFFFFFFFFFFB4
:10ACD000FFFFFFFFFFFFFFFFFFFFFFFFFFFFFFFF84
:10ACE000FFFFFFFFFFFFFFFFFFFFFFFFFFFFFFFF74
:10ACF000FFFFFFFFFFFFFFFFDFFFDFFFDFF7FFFFCC
:10AD00009FEFFAB50F5B7263FED6DFF7FFFFFFFF21
:10AD1000FFFFFFFFFFFFFFFFFFFFFFFFFFFFFFFF43
:10AD2000FFFFFFFFFFFFFFFFFFFFFFFFFFFFFFFF33
:10AD3000FFFFFFFFFFFFFFFFFFFFFFFFFFFFFFFF23
:10AD4000FFFFFFFFFFFFFFFFFFFFFFFFFFFFFFFF13
:10AD5000FFFFFFFFFFFFFFFFFFFFFFFFFFFFFFFF03
:10AD6000FFFFFFFFFFFFFFFFFFFFFFFFFFFFFFFFF3
:10AD7000FFFFFFFFFFFFFFFFFFFFFFFFFFFFDFFF03
:10AD8000DFFFDFFFBFEF147C16747984397CB56B6D
:10AD90009CCE7DE7DDF7FFFFFFFFFFFFFFFFFFFF1B
:10ADA000FFFFFFFFFFFFFFFFFFFFFFFFFFFFFFFFB3
:10ADB000FFFFFFFFFFFFFFFFFFFFFFFFFFFFFFFFA3
:10ADC000FFFFFFFFFFFFFFFFFFFFFFFFFFFFFFFF93
:10ADD000FFFFFFFFFFFFFFFFFFFFFFFFFFFFFFFF83
:10ADE000FFFFFFFFFFFFFFFFFFFFFFFFFFFFFFFF73
:10ADF000FFFFFFFFFFFFFFFFFFFFFFFFFFFFFFFF63
:10AE0000FFFFFFFFFFFFDFF7FFFFFFFFFFFFFFFF7A
:10AE1000FFFFFFFFFFFFFFFFFFFFFFFFFFFFFFFF42
:10AE2000FFFFFFFFFFFFFFFFFFFFFFFFFFFFFFFF32
:10AE3000FFFFFFFFFFFFFFFFFFFFFFFFFFFFDFF74A
:10AE40007BC6305B9263FDD6BFEFDFF7DFF7FFFF16
:10AE5000FFFFFFFFFFFFFFFFFFFFFFFFFFFFFFFF02
:10AE6000FFFFFFFFFFFFFFFFFFFFFFFFFFFFFFFFF2
:10AE7000FFFFFFFFFFFFFFFFFFFFFFFFFFFFFFFFE2
:10AE8000FFFFFFFFFFFFFFFFFFFFFFFFFFFFFFFFD2
:10AE9000FFFFFFFFFFFFFFFFFFFFFFFFFFFFFFFFC2
:10AEA000FFFFFFFFFFFFFFFFFFFFFFFFFFFFFFFFB2
:10AEB000FFFFFFFFFFFFFFFFFFFFFFFFFFFFFFFFA2
:10AEC000BEF7BEF756841774597C387CF46B97A58F
:10AED000DFF7FFFFDFFFFFF7FFFFFFFFFFFFFFFFD2
:10AEE000FFFFFFFFFFFFFFFFFFFFFFFFFFFFFFFF72
:10AEF000FFFFFFFFFFFFFFFFFFFFFFFFFFFFFFFF62
:10AF0000FFFFFFFFFFFFFFFFFFFFFFFFFFFFFFFF51
:10AF1000FFFFFFFFFFFFFFFFFFFFFFFFFFFFFFFF41
:10AF2000FFFFFFFFFFFFFFFFFFFFFFFFFFFFDFFF51
:10AF3000DFFFDFFFDFFFDFFFDFFFDFFFDFFFDFFF21
:10AF4000FFF7FFF7FFF7FFF7FFFFFFFFFFFFFFFF31
:10AF5000FFFFFFF7FFF7FFF7FFF7FFF7FFF7FFF739
:10AF6000FFF7FFF7FFFFFFFFFFFFFFF7FFF7FFF719
:10AF7000FFF7FFF7FFF7FFFFFFFFDFF7DFF79CCEDD
:10AF8000505B31533ED7FEF7FFFFDFFFDFFFFFFFD0
:10AF9000FFFFFFFFFFFFFFFFFFFFFFFFFFFFFFFFC1
:10AFA000FFFFFFFFFFFFFFFFFFFFFFFFFFFFFFFFB1
:10AFB000FFFFFFFFFFFFFFFFFFFFFFFFFFFFFFFFA1
:10AFC000FFFFFFFFFFFFFFFFFFFFFFFFFFFFFFFF91
:10AFD000FFFFFFFFFFFFFFFFFFFFFFFFFFFFFFFF81
:10AFE000FFFFFFFFFFFFFFFFFFFFFFFFFFFFFFFF71
:10AFF000FFFFFFFFFFFFFFFFFFFFFFFFDEFFBEF7CB
:10B00000FFFF57A5F7735A84187C367CD58CFEF762
:10B01000BDF7DFFFDFFFFFFFFFFFFFFFFFFFFFFFCA
:10B02000FFFFFFFFFFFFFFFFFFFFFFFFFFFFFFFF30
:10B03000FFFFFFFFFFFFFFFFFFFFFFFFFFFFFFFF20
:10B04000FFFFFFFFFFFFFFFFFFFFFFFFFFFFFFFF10
:10B05000FFFFFFFFFFFFFFFFFFFFFFFFFFFFFFFF00
:10B06000FFFFFFFFFFF7FFFFFFFFFFFFFFFFFFF700
:10B07000DFF79EEF9EE73DDF1CDF1CD71CDF1CD7F0
:10B08000FCCE9AC639B639B639B639B639B639B6FC
:10B0900039B639B619B639B63AB63AB63AB63AB654
:10B0A0003AB639B639B639B639B639B659B639B607
:10B0B0003AB63AB61BAE7CBEDECE1ED7FED6716364
:10B0C000B2635FD7BFE7DEF7DEF7FFFFFFFFFFFFEB
:10B0D000DFFFDFFFFFFFFFFFFEFFFEFFFFFFFFFFC2
:10B0E000FFFFFFFFFFFFFFFFFFFFFFFFFFFFFFFF70
:10B0F000FFFFFFFFFFFFFFFFFFFFFFFFFFFFFFFF60
:10B10000FFFFFFFFFFFFFFFFFFFFFFFFFFFFFFFF4F
:10B11000FFFFFFFFFFFFFFFFFFFFFFFFFFFFFFFF3F
:10B12000FFFFFFFFFFFFFFFFFFFFFFFFFFFFFFFF2F
:10B13000FFFFFFFFFFFFFFFFFFFFFEFFFEFFFFF729
:10B140007CC6D56B597C1774167CD3733DE7DFFF43
:10B15000FEFFFFFFFFFFFFFFFFFFFFFFFFFFFFFF00
:10B16000FFFFFFFFFFFFFFFFFFFFFFFFFFFFFFFFEF
:10B17000BEF7FFFFFFFFFFFFFFFFFFFFFFFFFFFF28
:10B18000FFFFFFFFFFFFFFFFDFF7DEF7DFF7DFF770
:10B19000FFFFDFFFFFFFDFF79EEF9EEF9EEF1CD765
:10B1A0005DDFFCCE7ABE59BEF8B5B7AD559D779D33
:10B1B00077955695779D19AED8A5D8A5F9ADF9A57F
:10B1C0001AA61AA619A619A61AA61AA61AA61AA681
:10B1D0001AA61AA61AA61AA61AA698959895989528
:10B1E00098959895778D778D788D988D788D998DA8
:10B1F000998D9A8D9A8DBB9539853A8D735BB46321
:10B200001A959042535B915B136C17955CBEFDD60B
:10B210007EE7BFF7DFF7BFF7FEFFFEFFFEFFFFFF92
:10B22000DFFFFFFFFFFFDFFFFEFFFFFFFFFFFFFF6F
:10B23000FFFFFFFFFFFFFFFFFFFFFFFFFFFFFFFF1E
:10B24000FFFFFFFFFFFFFFFFFFFFFFFFFFFFFFFF0E
:10B25000FFFFFFFFFFFFFFFFFFFFFFFFFFFFFFFFFE
:10B26000FFFFFFFFFFFFFFFFFFFFFFFFFFFFFFFFEE
:10B27000FFFFFFFFFFFFFFFFFFFFFFFFFFFFBFEF2E
:10B28000D373587C397C587CF5735BC6FFFFFFFF96
:10B29000FEFFFFFFFFFFFFFFFFFFFFFFFFFFFFFFBF
:10B2A000FFFFFFFFFFFFFFFFFFFFFFFFFFFFFFFFAE
:10B2B000FFFFFFFFFFFFFFFFFFFFFFFFFFFFFFFF9E
:10B2C000FFFFDFFFBEF73CE77DEF18BE38C69ACE22
:10B2D00059C6D7B5D7B559C69ACEFBDEFCD6DFF72F
:10B2E000BFEFDFF7FFF7DFF7DFF7FFF7FFF7FFF756
:10B2F000FFF7DFEFFFF7FFF7FFF7FFF7FFF7FFF7C6
:10B30000FFF7FFF7FFF7FFF7FFF7FFF7FFF7FFF78D
:10B31000FFF7FFF7FFF7FFF7FFF7FFF7FFF7FFF77D
:10B32000DFEFFFEFDFE7DFE7FFEFDFE73DD7FCC64B
:10B330003AAEB8A5F79DB6959795D2639363577CBF
:10B340001453F4521553365316531553545B32535A
:10B3500010530F4BD1631695BDCE9FEFDFF7FFFF64
:10B36000DFF7FFFFFEFFFEFFFEFFFEFFFFFFFFFF19
:10B37000FFFFFFFFFFFFFFFFFFFFFFFFFFFFFFFFDD
:10B38000FFFFFFFFFFFFFFFFFFFFFFFFFFFFFFFFCD
:10B39000FFFFFFFFFFFFFFFFFFFFFFFFFFFFFFFFBD
:10B3A000FFFFFFFFFFFFFFFFFFFFFFFFFFFFFFFFAD
:10B3B000FFFFFFFFFFFFFFFFFFFFDFFFDFFFF37375
:10B3C000367C587C587C577CF373DFF7FFFFFFFF18
:10B3D000FEFFFFFFFFFFFFFFFFFFFFFFFFFFFFFF7E
:10B3E000FFFFFFFFFFFFFFFFFFFFFFFFFFFFFFFF6D
:10B3F000DFFFBEF7DFFF7DEF5DE71BDF1CDF3CE714
:10B40000FBDE1CDF9DEF7DEFBEF7BEF7DFF7FFFF32
:10B41000FFFFFFFFFFFFFFFFFFFFFFFFFFFFFFFF3C
:10B42000FFFFFFFFDFF7FFFFFFFFFFFFFFFFFFFF54
:10B43000FFFFFFFFFFFFFFFFFFFFFFFFFFFFFFFF1C
:10B44000FFFFFFFFFFFFFFFFFFFFFFFFFFFFFFFF0C
:10B45000FFFFFFFFFFFFFFFFFFFFFFFFFFFFFFFFFC
:10B46000FFFFFFFFFFFFFFFFDEF7DEF7FFF7FFFF46
:10B47000DFF7DFF7FFEFFFEF517412741ED79AA5C5
:10B480005684B56B125BD54AF65236533553555335
:10B49000334B13433343534B13531253B46B389D05
:10B4A000FED6FFF7FEF7DDF7FEFFFFFFFFFFFFFF12
:10B4B000FFFFFFFFFFFFFFFFFFFFFFFFFFFFFFFF9C
:10B4C000FFFFFFFFFFFFFFFFFFFFFFFFFFFFFFFF8C
:10B4D000FFFFFFFFFFFFFFFFFFFFFFFFFFFFFFFF7C
:10B4E000FFFFFFFFFFFFFFFFFFFFFFFFFFFFFFFF6C
:10B4F000FFFFFFFFFFFFFFFFDFFFDFF7FABDD373A3
:10B50000587C397C377CB46BFDD6DFF7FFFFFFFF3B
:10B51000FFFFFFFFFFFFFFFFFFFFFFFFFFFFFFFF3B
:10B52000FFFFFFFFFFFFFFFFFFFFFFFFDFFFBEF794
:10B530009EF77DEFDFFFBEF7DFF7DFF7FFFFDFFFEF
:10B54000FFFFDFFFDFF7FFFFFFFFFFFFFFFFFFFF53
:10B55000FFFFDFFFFFFFFFFFFFFFFFFFFFFFFFFF1B
:10B56000FFFFFFFFFFFFFFFFFFFFFFFFFFFFFFFFEB
:10B57000FFFFFFFFFFFFFFFFFEFFFFFFFFFFFEFFDD
:10B58000FFFFFFFFFEFFFEFFFFFFFFFFFFFFFFFFCD
:10B59000FFFFFFFFFFFFFFFFFFFFFFFFFFFFFEFFBC
:10B5A000FEFFDFFFDFFFFFFFFEFFDEFFFEFFFEFF10
:10B5B000FEFFFEFFBFEF169D948C7FEFDFF7DFF7F6
:10B5C000FFF7DEEF9EE7BDCE9AA5156C3253134B05
:10B5D000354B364B374B374B365336531553135386
:10B5E000525BF3733AB6BFEFFFFFFFFFFFFFFEFFB3
:10B5F000FEFFFFFFFFFFFFFFFFFFFFFFFFFFFFFF5C
:10B60000FFFFFFFFFFFFFFFFFFFFFFFFFFFFFFFF4A
:10B61000FFFFFFFFFFFFFFFFFFFFFFFFFFFFFFFF3A
:10B62000FFFFFFFFFFFFFFFFFFFFFFFFFFFFFFFF2A
:10B63000FFFFFFFFFFFFDFFFFFFF9FEF3163167C80
:10B640007984397C577C315BDFEFFFFFFEFFFFFF22
:10B65000FFFFFFFFFEFFFFFFFFFFFFFFFFFFFFFFFB
:10B66000FFFFFFFFFFFFFFFFFFFFFFFFFFFFFFFFEA
:10B67000FFFFFFFFFFFFFFFFFFFFFFFFFFFFFFFFDA
:10B68000FFFFFFFFFFFFFFFFFFFFFFFFFFFFFFFFCA
:10B69000FFFFFFFFFFFFFFFFFFFFFFFFFFFFFFFFBA
:10B6A000FFFFFFFFFFFFFFFFFFFFFFFFFFFFFFFFAA
:10B6B000FFFFFFFFFFFFFFFFFFFFFFFFFFFFFFFF9A
:10B6C000FFFFFFFFFFFFFFFFFFFFFFFFFFFFFFFF8A
:10B6D000FFFFFFFFFFFFFFFFFFFFFFFFFFFFFFFF7A
:10B6E000FFFFFFFFFFFFFFFFFFFFFEFFFEFFDEF795
:10B6F000FFFFBEF717A5D37B9FF7BFFFDFFFFEFF5E
:10B70000FDFFFDF7FDF7FEF7FEF7FFF73EDFB9A5FA
:10B71000F56B3453154B164B364B36533653165385
:10B7200015533453F24A36741EDFDFFFFFFFFEFF6E
:10B73000FEFFFFFFFFFFFFFFFFFFFFFFFFFFFFFF1A
:10B74000FFFFFFFFFFFFFFFFFFFFFFFFFFFFFFFF09
:10B75000FFFFFFFFFFFFFFFFFFFFFFFFFFFFFFFFF9
:10B76000FFFFFFFFFFFFFFFFFFFFFFFFFFFFFFFFE9
:10B77000FFFFDFFFDFFFFFFFFFF75CC6B46B5884FE
:10B78000387C5874167C589DFFF7DDF7FEFFFFFFED
:10B79000FFFFFFFFFEFFFFFFFFFFFFFFFFFFFFFFBA
:10B7A000FFFFFFFFFFFFFFFFFFFFFFFFFFFFFFFFA9
:10B7B000FFFFFFFFFFFFFFFFFFFFFFFFFFFFFFFF99
:10B7C000FFFFFFFFFFFFFFFFFFFFFFFFFFFFFFFF89
:10B7D000FFFFFFFFFFFFFFFFFFFFFFFFFFFFFFFF79
:10B7E000FFFFFFFFFFFFFFFFFFFFFFFFFFFFFFFF69
:10B7F000FFFFFFFFFFFFFFFFFFFFFFFFFFFFFFFF59
:10B80000FFFFFFFFFFFFFFFFFFFFFFFFFFFFFFFF48
:10B81000FFFFFFFFFFFFFFFFFFFFFFFFFFFFFFFF38
:10B82000FFFFFFFFFFFFFFFFFFFFFFFFFFFFFFFF28
:10B83000BEEFB7B5738CBFFFFFFFDEFFDEFFFEFF7D
:10B84000FEFFFFFFFFFFFEFFFEFFFEFFFEFFDFF735
:10B85000FFF73BBEB26B31537553F44A164B164B90
:10B860003753F64A1653F44AB56BFEDEDFF7FEFF98
:10B87000FEFFFFFFFFFFFFFFFFFFFFFFFFFFFFFFD9
:10B88000FFFFFFFFFFFFFFFFFFFFFFFFFFFFFFFFC8
:10B89000FFFFFFFFFFFFFFFFFFFFFFFFFFFFFFFFB8
:10B8A000FFFFFFFFFFFFFFFFFFFFFFFFFFFFFFFFA8
:10B8B000FFFFFFFFFFFFDEF7FFF7D2737884597CAD
:10B8C0003874587CD573BFEFFEF7FDFFFEFFFFFF16
:10B8D000FFFFFFFFFEFFFFFFFFFFFFFFFFFFFFFF79
:10B8E000FFFFFFFFFFFFFFFFFFFFFFFFFFFFFFFF68
:10B8F000FFFFFFFFFFFFFFFFFFFFFFFFFFFFFFFF58
:10B90000FFFFFFFFFFFFFFFFFFFFFFFFFFFFFFFF47
:10B91000FFFFFFFFFFFFFFFFFFFFFFFFFFFFFFFF37
:10B92000FFFFFFFFFFFFFFFFFFFFFFFFFFFFFFFF27
:10B93000FFFFFFFFFFFFFFFFFFFFFFFFFFFFFFFF17
:10B94000FFFFFFFFFFFFFFFFFFFFFFFFFFFFFFFF07
:10B95000FFFFFFFFFFFFFFFFFFFFFFFFFFFFFFFFF7
:10B96000FFFFFFFFFFFFFFFFFFFFFFFFFFF79EEF60
:10B9700059C6D494FFFFFFFFDEFFFEFFFEFFFFFF6F
:10B98000FFFFDFFFFFFFDFFFDFFFFEFFFEFFBDF773
:10B99000FEFFDEF7BEF777A56F32545335531653CB
:10B9A000F64A5753164B35533453F473FFF7FDF7EC
:10B9B000FEFFFFFFFFFFFFFFFEFFFFFFFFFFFFFF99
:10B9C000FFFFFFFFFFFFFFFFFFFFFFFFFFFFFFFF87
:10B9D000FFFFFFFFFFFFFFFFFFFFFFFFFFFFFFFF77
:10B9E000FFFFFFFFFFFFFFFFFFFFFFFFFFFFFFFF67
:10B9F000FFFFFFFFFFFFFFFF7EE7505B377C597CB7
:10BA0000587C5774736BFFFFFEF7FDFFFEFFFFFFCF
:10BA1000FFFFFFFFFEFFFFFFFFFFFFFFFFFFFFFF37
:10BA2000FFFFFFFFFFFFFFFFFFFFFFFFFFFFFFFF26
:10BA3000FFFFFFFFFFFFFFFFFFFFFFFFFFFFFFFF16
:10BA4000FFFFFFFFFFFFFFFFFFFFFFFFFFFFFFFF06
:10BA5000FFFFFFFFFFFFFFFFFFFFFFFFFFFFFFFFF6
:10BA6000FFFFFFFFFFFFFFFFFFFFFFFFFFFFFFFFE6
:10BA7000FFFFFFFFFFFFFFFFFFFFFFFFFFFFFFFFD6
:10BA8000FFFFFFFFFFFFFFFFFFFFFFFFFFFFFFFFC6
:10BA9000FFFFFFFFFFFFFFFFFFFFFFFFFFFFFFFFB6
:10BAA000FFFFFFFFFFFFFFFFFFFFFFFFBEEF7EE790
:10BAB000F494BFEFFFF7FFFFFFFFDEFFFEFFFFFF86
:10BAC000FFFFFFFFFFFFDFFFFFFFFFFFFEFFFEFFA8
:10BAD000DEFFFFFFBFF7BFF7F88C32533453154B2F
:10BAE0003653154B144B5553F34A535B9FE7FEF700
:10BAF000FEFFFFFFFFFFFFFFFEFFFFFFFFFFFFFF58
:10BB0000FFFFFFFFFFFFFFFFFFFFFFFFFFFFFFFF45
:10BB1000FFFFFFFFFFFFFFFFFFFFFFFFFFFFFFFF35
:10BB2000FFFFFFFFFFFFFFFFFFFFFFFFFFFFFFFF25
:10BB3000FFFFDFFFFFFFFFFF5BC6B46B387C587C65
:10BB4000577C577CF37BDFF7FFFFFEFFFFFFFFFF14
:10BB5000FFFFFFFFFFFFFFFFFFFFFFFFFFFFFFFFF5
:10BB6000FFFFFFFFFFFFFFFFFFFFFFFFFFFFFFFFE5
:10BB7000FFFFFFFFFFFFFFFFFFFFFFFFFFFFFFFFD5
:10BB8000FFFFFFFFFFFFFFFFFFFFFFFFFFFFFFFFC5
:10BB9000FFFFFFFFFFFFFFFFFFFFFFFFFFFFFFFFB5
:10BBA000FFFFFFFFFFFFFFFFFFFFFFFFFFFFFFFFA5
:10BBB000FFFFFFFFFFFFFFFFFFFFFFFFFFFFFFFF95
:10BBC000FFFFFFFFFFFFFFFFFFFFFFFFFFFFFFFF85
:10BBD000FFFFFFFFFFFFFFFFFFFFFFFFFFFFFFFF75
:10BBE000FFFFDFFFFFFFFFFFDFFFDFF73CE755ADA4
:10BBF000BEF7DFFFFFFFFFFFDFFFFFFFFFFFFFFFDE
:10BC0000FFFFFFFFFFFFFFFFFFFFFFFFFFFFFFFF44
:10BC1000FFFFDFFFFFFFDFF79FEF335B365B164B66
:10BC2000154B7553354B154B345351535FDFFFF7AD
:10BC3000FFFFFFFFFFFFFFFFFFFFFFFFFFFFFFFF14
:10BC4000FFFFFFFFFFFFFFFFFFFFFFFFFFFFFFFF04
:10BC5000FFFFFFFFFFFFFFFFFFFFFFFFFFFFFFFFF4
:10BC6000FFFFFFFFFFFFFFFFFFFFFFFFFFFFFFFFE4
:10BC7000FFFFFFFFFEFFFEFFFAB5F77B397C577C25
:10BC8000577C577CF37BFFFFFFFFFFFFFFFFFFFFAA
:10BC9000FFFFFFFFFFFFFFFFFFFFFFFFFFFFFFFFB4
:10BCA000FFFFFFFFFFFFFFFFFFFFFFFFFFFFFFFFA4
:10BCB000FFFFFFFFFFFFFFFFFFFFFFFFFFFFFFFF94
:10BCC000FFFFFFFFFFFFFFFFFFFFFFFFFFFFFFFF84
:10BCD000FFFFFFFFFFFFFFFFFFFFFFFFFFFFFFFF74
:10BCE000FFFFFFFFFFFFFFFFFFFFFFFFFFFFFFFF64
:10BCF000FFFFFFFFFFFFFFFFFFFFFFFFFFFFFFFF54
:10BD0000FFFFFFFFFFFFFFFFFFFFFFFFFFFFFFFF43
:10BD1000FFFFFFFFFFFFFFFFFFFFFFFFFFFFFFFF33
:10BD2000FFFFFFFFFFFFDFFFFFFF5DEFD7BDBEF7A8
:10BD3000FFFFDFFFFFFFFFFFFFFFFFFFFFFFFFFF33
:10BD4000FFFFFFFFFFFFFFFFFFFFFFFFFFFFFFFF03
:10BD5000FFFFFFFFFFFFFFF7DFF7325B1653174BC5
:10BD6000354B344B144B565333533474FFF7DFF7D2
:10BD7000BFFFFFFFFFFFFFFFFFFFFFFFFFFFFFFF13
:10BD8000FFFFFFFFFFFFFFFFFFFFFFFFFFFFFFFFC3
:10BD9000FFFFFFFFFFFFFFFFFFFFFFFFFFFFFFFFB3
:10BDA000FFFFFFFFFFFFFFFFFFFFFFFFFFFFFFFFA3
:10BDB000FFFFFFFFFEFFFEFF98AD177C397C577C2D
:10BDC000577C587CF273DFF7FFFFFEFFFFFFFFFF9A
:10BDD000FFFFFFFFFFFFFFFFFFFFFFFFFFFFFFFF73
:10BDE000FFFFFFFFFFFFFFFFFFFFFFFFFFFFFFFF63
:10BDF000FFFFFFFFFFFFFFFFFFFFFFFFFFFFFFFF53
:10BE0000FFFFFFFFFFFFFFFFFFFFFFFFFFFFFFFF42
:10BE1000FFFFFFFFFFFFFFFFFFFFFFFFFFFFFFFF32
:10BE2000FFFFFFFFFFFFFFFFFFFFFFFFFFFFFFFF22
:10BE3000FFFFFFFFFFFFFFFFFFFFFFFFFFFFFFFF12
:10BE4000FFFFFFFFFFFFFFFFFFFFFFFFFFFFFFFF02
:10BE5000FFFFFFFFFFFFFFFFFFFFFFFFFFFFFFFFF2
:10BE6000FFFFDFFFFFFFFFFFBEF71CE7DFFFFFFF66
:10BE70009EF7FFFFFFFFFFFFFFFFFFFFFFFFFFFF3B
:10BE8000FFFFFFFFFFFFFFFFFFFFFFFFFFFFFFFFC2
:10BE9000FFFFFFFFFFFFFEF7DFEF31531553164B98
:10BEA000354B344B5453F44A525BFCCE9FEFDFF7D3
:10BEB000FFFFFFFFFFFFFFFFFFFFFFFFFFFFFFFF92
:10BEC000FFFFFFFFFFFFFFFFFFFFFFFFFFFFFFFF82
:10BED000FFFFFFFFFFFFFFFFFFFFFFFFFFFFFFFF72
:10BEE000FFFFFFFFFFFFFFFFFFFFFFFFFFFFFFFF62
:10BEF000FFFFFFFFFFFFFFFFB9AD177C397C577CC9
:10BF0000577C597CD273FFF7FFFFFEFFFEFFFFFF58
:10BF1000FFFFFFFFFFFFFFFFFFFFFFFFFFFFFFFF31
:10BF2000FFFFFFFFFFFFFFFFFFFFFFFFFFFFFFFF21
:10BF3000FFFFFFFFFFFFFFFFFFFFFFFFFFFFFFFF11
:10BF4000FFFFFFFFFFFFFFFFFFFFFFFFFFFFFFFF01
:10BF5000FFFFFFFFFFFFFFFFFFFFFFFFFFFFFFFFF1
:10BF6000FFFFFFFFFFFFFFFFFFFFFFFFFFFFFFFFE1
:10BF7000FFFFFFFFFFFFFFFFFFFFFFFFFFFFFFFFD1
:10BF8000FFFFFFFFFFFFFFFFFFFFFFFFFFFFFFFFC1
:10BF9000FFFFFFFFFFFFFFFFFFFFFFFFFFFFFFFFB1
:10BFA000FFFFDFFFFFFFDFFFFFFFFFFFFFFF7DEF73
:10BFB000FFFFDFFFFFFFFFFFFFFFFFFFFFFFFFFFB1
:10BFC000FFFFFFFFFFFFFFFFFFFFFFFFFFFFFEFF82
:10BFD000FEFFFEFFFEFFFEFFDCC6324BF44A164BAF
:10BFE000154B13533253535BBDCEBFEFFFFFDFFF43
:10BFF000DFFFFFFFFFFFFFFFFFFFFFFFFFFFFFFF71
:10C00000FFFFFFFFFFFFFFFFFFFFFFFFFFFFFFFF40
:10C01000FFFFFFFFFFFFFFFFFFFFFFFFFFFFFFFF30
:10C02000FFFFFFFFFFFFFFFFFFFFFFFFFFFFFFFF20
:10C03000FFFFFFFFFFFFFEF7D9B5177C397C387C87
:10C04000587C597C9163FFF7FFFFFEFFFEFFFFFF67
:10C05000FFFFFFFFFFFFFFFFFFFFFFFFFFFFFFFFF0
:10C06000FFFFFFFFFFFFFFFFFFFFFFFFFFFFFFFFE0
:10C07000FFFFFFFFFFFFFFFFFFFFFFFFFFFFFFFFD0
:10C08000FFFFFFFFFFFFFFFFFFFFFFFFFFFFFFFFC0
:10C09000FFFFFFFFFFFFFFFFFFFFFFFFFFFFFFFFB0
:10C0A000FFFFFFFFFFFFFFFFFFFFFFFFFFFFFFFFA0
:10C0B000FFFFFFFFFFFFFFFFFFFFFFFFFFFFFFFF90
:10C0C000FFFFFFFFFFFFFFFFFFFFFFFFFFFFFFFF80
:10C0D000FFFFFFFFFFFFFFFFFFFFFFFFFFFFFFFF70
:10C0E000FFFFDFFFFFFFFFFFFFFFFFFFFFFFFFFF80
:10C0F000FFFFDFFFFFFFFFFFFFFFFFFFFFFFFFFF70
:10C10000FFFFFFFFFFFFFFFFFFFFFFFFFFFFFEFF40
:10C11000FEFFFFFFFFFFBFEF935B144B3653165339
:10C120001453325B505B5EE7BFEFFFFFBEF7FFFFCC
:10C13000FFFFFFFFFFFFFFFFFFFFFFFFFFFFFFFF0F
:10C14000FFFFFFFFFFFFFFFFFFFFFFFFFFFFFFFFFF
:10C15000FFFFFFFFFFFFFFFFFFFFFFFFFFFFFFFFEF
:10C16000FFFFFFFFFFFFFFFFFFFFFFFFFFFFFFFFDF
:10C17000FFFFDFFFFEFFFEF7DCD6746B397C587CD7
:10C18000377C397CF473DDCEDFF7FFFFFEFFFFFF66
:10C19000FFFFFFFFFFFFFFFFFFFFFFFFFFFFFFFFAF
:10C1A000FFFFFFFFFFFFFFFFFFFFFFFFFFFFFFFF9F
:10C1B000FFFFFFFFFFFFFFFFFFFFFFFFFFFFFFFF8F
:10C1C000FFFFFFFFFFFFFFFFFFFFFFFFFFFFFFFF7F
:10C1D000FFFFFFFFFFFFFFFFFFFFFFFFFFFFFFFF6F
:10C1E000FFFFFFFFFFFFFFFFFFFFFFFFFFFFFFFF5F
:10C1F000FFFFFFFFFFFFFFFFFFFFFFFFFFFFFFFF4F
:10C20000FFFFFFFFFFFFFFFFFFFFFFFFFFFFFFFF3E
:10C21000FFFFFFFFFFFFFFFFFFFFFFFFFFFFFFFF2E
:10C22000DFFF5DEF5DEFFFFFFFFFFFFFFFFFFFFFA2
:10C23000FFFFFFFFFFFFFFFFFFFFFFFFFFFFFFFF0E
:10C24000FFFFFFFFFFFFFFFFFFFFFFFFFFFFFFFFFE
:10C25000FFFFBFF7BFF795843553154B575BF44A83
:10C26000135396849FEF7DEFFFFFFFFFFFFFFFFF5C
:10C27000FFFFFFFFFFFFFFFFFFFFFFFFFFFFFFFFCE
:10C28000FFFFFFFFFFFFFFFFFFFFFFFFFFFFFFFFBE
:10C29000FFFFFFFFFFFFFFFFFFFFFFFFFFFFFFFFAE
:10C2A000FFFFFFFFFFFFFFFFFFFFFFFFFFFFFFFF9E
:10C2B000FFFFFFFFFEFFFEFF7EE7125B5984577C06
:10C2C000377C597C377C1474FFF7DFFFFFFFFFFFDB
:10C2D000FFFFFFFFFFFFFFFFFFFFFFFFFFFFFFFF6E
:10C2E000FFFFFFFFFFFFFFFFFFFFFFFFFFFFFFFF5E
:10C2F000FFFFFFFFFFFFFFFFFFFFFFFFFFFFFFFF4E
:10C30000FFFFFFFFFFFFFFFFFFFFFFFFFFFFFFFF3D
:10C31000FFFFFFFFFFFFFFFFFFFFFFFFFFFFFFFF2D
:10C32000FFFFFFFFFFFFFFFFFFFFFFFFFFFFFFFF1D
:10C33000FFFFFFFFFFFFFFFFFFFFFFFFFFFFFFFF0D
:10C34000FFFFFFFFFFFFFFFFFFFFFFFFFFFFFFFFFD
:10C35000FFFFFFFFFFFFFFFFFFFFDFF7FFFFFFFF15
:10C36000FBDEF7BDDFFFBEF7FFFFFFFFFFFFFFFFB5
:10C37000FFFFFFFFFFFFFFFFFFFFFFFFFFFFFFFFCD
:10C38000FFFFFFFFFFFFFFFFFFFFDFFFFFFFBFF725
:10C39000DFF73EDF347C115316531553F34A946B89
:10C3A0001CBEFFF7BFF7FEFFFEFFFFFFFFFFFFFF13
:10C3B000FFFFFFFFFFFFFFFFFFFFFFFFFFFFFFFF8D
:10C3C000FFFFFFFFFFFFFFFFFFFFFFFFFFFFFFFF7D
:10C3D000FFFFFFFFFFFFFFFFFFFFFFFFFFFFFFFF6D
:10C3E000FFFFFFFFFFFFFFFFFFFFFFFFFFFFFFFF5D
:10C3F000FFFFFFFFFEFFFDFFDFF7978C5884367CC1
:10C40000787C397C387C946BFDD6FFFFFEFFFFFF04
:10C41000FFFFFFFFFFFFFFFFFFFFFFFFFFFFFFFF2C
:10C42000FFFFFFFFFFFFFFFFFFFFFFFFFFFFFFFF1C
:10C43000FFFFFFFFFFFFFFFFFFFFFFFFFFFFFFFF0C
:10C44000FFFFFFFFFFFFFFFFFFFFFFFFFFFFFFFFFC
:10C45000FFFFFFFFFFFFFFFFFFFFFFFFFFFFFFFFEC
:10C46000FFFFFFFFFFFFFFFFFFFFFFFFFFFFFFFFDC
:10C47000FFFFFFFFFFFFFFFFFFFFFFFFFFFFFFFFCC
:10C48000FFFFFFFFFFFFFFFFFFFFFFFFFFFFFFFFBC
:10C49000FFFFFFFFFFFFFFFFFFFFDFF79EEFB7B5D7
:10C4A000738CDFFFDFFFFFFFDFFFFFFFFFFFFFFFFB
:10C4B000FFFFFFFFFFFFFFFFFFFFFFFFFFFFFFFF8C
:10C4C000FFFFFFFFFFFFFFFFFFFFDFFF9FF7BFF74C
:10C4D0003BBE525B545B144B1453325317957EE7AB
:10C4E000DFF7BFF7FFFFDEFFFFFFFFFFFFFFFFFFED
:10C4F000FFFFFFFFFFFFFFFFFFFFFFFFFFFFFFFF4C
:10C50000FFFFFFFFFFFFFFFFFFFFFFFFFFFFFFFF3B
:10C51000FFFFFFFFFFFFFFFFFFFFFFFFFFFFFFFF2B
:10C52000FFFFFFFFFFFFFFFFFFFFFFFFFFFFFFFF1B
:10C53000FFFFFFFFFEFFFDFFFFF7FED6546377848A
:10C54000577C397C397C377C347C9EEFDEFFFEFFE4
:10C55000FFFFFFFFFFFFFFFFFFFFFFFFFFFFFFFFEB
:10C56000FFFFFFFFFFFFFFFFFFFFFFFFFFFFFFFFDB
:10C57000FFFFFFFFFFFFFFFFFFFFFFFFFFFFFFFFCB
:10C58000FFFFFFFFFFFFFFFFFFFFFFFFFFFFFFFFBB
:10C59000FFFFFFFFFFFFFFFFFFFFFFFFFFFFFFFFAB
:10C5A000FFFFFFFFFFFFFFFFFFFFFFFFFFFFFFFF9B
:10C5B000FFFFFFFFFFFFFFFFFFFFFFFFFFFFFFFF8B
:10C5C000FFFFFFFFFFFFFFFFFFFFFFFFFFFFFFFF7B
:10C5D000FFFFFFFFFFFFFFFFDFF75DE7738C938C2B
:10C5E000DFF79EF7FFFFDFFFFFFFDFFFFFFFFFFF2C
:10C5F000FFFFFFFFFFFFFFFFFFFFFFFFFFFFFFFF4B
:10C60000FFFFFFFFFFFFFFFFDFFFFFFF5DE7958CF1
:10C61000F1523453D4425653557C5FDFDEEFDDF7E1
:10C62000FDFFFEFFDFFFDFFFFFFFFFFFFFFFFFFF5D
:10C63000FFFFFFFFFFFFFFFFFFFFFFFFFFFFFFFF0A
:10C64000FFFFFFFFFFFFFFFFFFFFFFFFFFFFFFFFFA
:10C65000FFFFFFFFFFFFFFFFFFFFFFFFFFFFFFFFEA
:10C66000FFFFFFFFFFFFFFFFFFFFFFFFFFFFFFFFDA
:10C67000FFFFFFFFFFFFFFFFFFFFDFFF7384F47388
:10C68000997C196C587C577CD46BF794BFEFFFFFF3
:10C69000DEFFFEFFFEFFDFFFDFFFFFFFFFFFFFFF0D
:10C6A000FFFFFFFFFFFFFFFFFFFFFFFFFFFFFFFF9A
:10C6B000FFFFFFFFFFFFFFFFFFFFFFFFFFFFFFFF8A
:10C6C000FFFFFFFFFFFFFFFFFFFFFFFFFFFFFFFF7A
:10C6D000FFFFFFFFFFFFFFFFFFFFFFFFFFFFFFFF6A
:10C6E000FFFFFFFFFFFFFFFFFFFFFFFFFFFFFFFF5A
:10C6F000FFFFFFFFFFFFFFFFFFFFFFFFFFFFFFFF4A
:10C70000FFFFFFFFFEFFFDFFFCF7FEFFFFFFFFFF48
:10C71000FFF7FFF79FEFFFFF1ABE0F6397ADFFFF15
:10C72000DDF7FEFFFEFFFFFFFFFFFFFFFFFFFFFF45
:10C73000FFFFFFFFFDFFFDFFFEFFDEFFDFFFBFF797
:10C74000FFFFDFFFDFFFFDEFFFEF9B9DB3421653BF
:10C75000155BF25A758C7FEFDFFFDFFFFFFFFFFFF6
:10C76000FFFFFFFFFFFFFFFFFFFFFFFFFFFFFFFFD9
:10C77000FFFFFFFFFFFFFFFFFFFFFFFFFFFFFFFFC9
:10C78000FFFFFFFFFFFFFFFFFFFFFFFFFFFFFFFFB9
:10C79000FFFFFFFFFFFFFFFFFFFFFFFFFFFFFFFFA9
:10C7A000FFFFFFFFFFFFFFFFFFFFFFFFFFFFFFFF99
:10C7B000FFFFFFFFFFFFFFFFFFFFFFFFFFF7B26B72
:10C7C000777C5874587C377C9884D46B78A5BFEFFD
:10C7D000DFF7FFFFDEFFDFFFFFFFFFFFFFFFFFFFD2
:10C7E000FFFFFFFFFFFFFFFFFFFFFFFFFFFFFFFF59
:10C7F000FFFFFFFFFFFFFFFFFFFFFFFFFFFFFFFF49
:10C80000FFFFFFFFFFFFFFFFFFFFFFFFFFFFFFFF38
:10C81000FFFFFFFFFFFFFFFFFFFFFFFFFFFFFFFF28
:10C82000FFFFFFFFFFFFFFFFFFFFFFFFFFFFFFFF18
:10C83000FFFFFFFFFFFFFFFFFFFFFFFFFFFFFFFF08
:10C84000FEFFFFFFFFFFFFFFDFFFFFFFFEFFFDFF1C
:10C85000FEFFBFF77EEFF27B0F63DDDEBFF7DFF792
:10C86000FEFFFFFFFFFFFFFFFFFFFFFFFFFFFFFFD9
:10C87000FFFFFFFFFFFFDFFFBFFFBFFFDFFFDFFFA8
:10C88000FFFFBDF7FEFFFBB57263525BF24A125326
:10C890007AA57EE7FFFFDEF7DFFFDFFFFFFFFFFF89
:10C8A000FFFFFFFFFFFFFFFFFFFFFFFFFFFFFFFF98
:10C8B000FFFFFFFFFFFFFFFFFFFFFFFFFFFFFFFF88
:10C8C000FFFFFFFFFFFFFFFFFFFFFFFFFFFFFFFF78
:10C8D000FFFFFFFFFFFFFFFFFFFFFFFFFFFFFFFF68
:10C8E000FFFFFFFFFFFFFFFFFFFFFFFFFFFFFFFF58
:10C8F000FFFFFFFFFFFFFFFFFFFFFFFFDFFF7FE700
:10C90000D36B567C597C397C387C587CD4735584E5
:10C910003EDFFFF7DEF7FEFFFEFFFEFFFEFFFEFF3E
:10C92000FFFFFFFFFFFFFFFFFFFFFFFFFFFFFFFF17
:10C93000FFFFFFFFFFFFFFFFFFFFFFFFFFFFFFFF07
:10C94000FFFFFFFFFFFFFFFFFFFFFFFFFFFFFFFFF7
:10C95000FFFFFFFFFFFFFFFFFFFFFFFFFFFFFFFFE7
:10C96000FFFFFFFFFFFFFFFFFFFFFFFFFFFFFFFFD7
:10C97000FFFFFFFFFFFFFFFFFFFFFFFFFFFFFFFFC7
:10C98000FEFFFFFFDFFFDFFFBFFFDFFFBDF7DDF7CC
:10C990005DE7D5942F63B5947FEFDFF7FFFFFFFFCF
:10C9A000FFFFFFFFFFFFFFFFFFFFFFFFFFFFFEFF98
:10C9B000FEFFFEFFBFFFFFFFDFFFFEF7DDF7FEF725
:10C9C000BFF779ADB373F45AD252D4733BB69FE735
:10C9D000FFF7FEF7FEFFDDFFFFFFFFFFFFFFFFFF9B
:10C9E000FFFFFFFFFFFFFFFFFFFFFFFFFFFFFFFF57
:10C9F000FFFFFFFFFFFFFFFFFFFFFFFFFFFFFFFF47
:10CA0000FFFFFFFFFFFFFFFFFFFFFFFFFFFFFFFF36
:10CA1000FFFFFFFFFFFFFFFFFFFFFFFFFFFFFFFF26
:10CA2000FFFFFFFFFFFFFFFFFFFFFFFFFFFFFFFF16
:10CA3000FFFFFFFFFFFFFFFFFFFFFFFFBEF7FFFF4F
:10CA40007EE774841674387C397C597C587C167463
:10CA5000D36B3ABEBFEFFEF7FEF7FEFFFEFFFEFF11
:10CA6000FFFFFFFFFFFFFFFFFFFFFFFFFFFFFFFFD6
:10CA7000FFFFFFFFFFFFFFFFFFFFFFFFFFFFFFFFC6
:10CA8000FFFFFFFFFFFFFFFFFFFFFFFFFFFFFFFFB6
:10CA9000FFFFFFFFFFFFFFFFFFFFFFFFFFFFFFFFA6
:10CAA000FFFFFFFFFFFFFFFFFFFFFFFFFFFFFFFF96
:10CAB000FFFFFFFFFFFFFFFFFFFFFFFFFFFFFFFF86
:10CAC000FFFFFEFFFDFFFDFFDEFFBEF7FEDE39A527
:10CAD0003163137C5BC6FFFFBFF7DFF7DFFFDFFFCC
:10CAE000DFFFFFFFFFFFFFFFFFFFFFFFFFFFFEFF77
:10CAF000FEFFFEFFFEF7FEF7DEF7FEF71DDF57A590
:10CB0000726BB2529673F99CFEDEDFF7FFF7DDEF32
:10CB1000FEF7FFFFDFFFDFFFFFFFFFFFFFFFFFFF6E
:10CB2000FFFFFFFFFFFFFFFFFFFFFFFFFFFFFFFF15
:10CB3000FFFFFFFFFFFFFFFFFFFFFFFFFFFFFFFF05
:10CB4000FFFFFFFFFFFFFFFFFFFFFFFFFFFFFFFFF5
:10CB5000FFFFFFFFFFFFFFFFFFFFFFFFFFFFFFFFE5
:10CB6000FFFFFFFFFFFFFFFFFFFFFFFFFFFFFFFFD5
:10CB7000FFFFFFFFFFFFFFFFFFFFFEFFFFFFDFFFE6
:10CB8000FFFFFFFFD684F46B377C5984387C597CD7
:10CB9000788493637784FCD6DFEFFFF7FFF7FFFF1E
:10CBA000FFFFFEFFFEFFFEFFFFFFFFFFFFFFFFFF98
:10CBB000FFFFFFFFFFFFFFFFFFFFFFFFFFFFFFFF85
:10CBC000FFFFFFFFFFFFFFFFFFFFFFFFFFFFFFFF75
:10CBD000FFFFFFFFFFFFFFFFFFFFFFFFFFFFFFFF65
:10CBE000FFFFFFFFFFFFFFFFFFFFFFFFFFFFFFFF55
:10CBF000FFFFFFFFFFFFFFFFFFFFFFFFFFFFFFFF45
:10CC0000FEFFFEF7FEF7BFEFFCD6179D315BD57335
:10CC1000DBB5BFF7DFF7FFFFFEFFFEFFFEFFFFFF05
:10CC2000FFFFFFFFFFFFFFFFFFFFFFFFFFFFFFFF14
:10CC3000FFFFFFFFFDF79DEFBCCE978CF35A5363C8
:10CC4000968CFCD6FEF7FFFFFFFFFEF7FEFFFEFF10
:10CC5000FFFFFFFFDFFFDFFFFFFFFFFFFFFFFFFF24
:10CC6000FFFFFFFFFFFFFFFFFFFFFFFFFFFFFFFFD4
:10CC7000FFFFFFFFFFFFFFFFFFFFFFFFFFFFFFFFC4
:10CC8000FFFFFFFFFFFFFFFFFFFFFFFFFFFFFFFFB4
:10CC9000FFFFFFFFFFFFFFFFFFFFFFFFFFFFFFFFA4
:10CCA000FFFFFFFFFFFFFFFFFFFFFFFFFFFFFFFF94
:10CCB000FFFFFFFFFFFFFFFFFFFFFFFFFFFFFFFF84
:10CCC000FFFFFFFFFFF79CCE305B567C587CF7736D
:10CCD000397C387C387CB36B1474DECEBFEFFFF741
:10CCE000FFFFFEFFFEFFFDFFFFFFFFFFFFFFFFFF58
:10CCF000FFFFFFFFFFFFFFFFFFFFFFFFFFFFFFFF44
:10CD0000FFFFFFFFFFFFFFFFFFFFFFFFFFFFFFFF33
:10CD1000FFFFFFFFFFFFFFFFFFFFFFFFFFFFFFFF23
:10CD2000FFFFFFFFFFFFFFFFFFFFFFFFFFFFFEFF14
:10CD3000FFFFFFFFFFFFFFFFFFFFFFFFFFF7FFFF0B
:10CD4000FFF79EEFBDCED473315B515BF9ADFFEFC2
:10CD5000DFF7DFFFFFFFFEFFFDFFFDFFFEFFFEFF32
:10CD6000FFFFFEFFFEFFFEFFDFFFDFFFFFFFFFFF16
:10CD7000BFF7FEDE988CD052F0527584DDD6DFF717
:10CD8000FFF7FEF7FEF7FCFFFDFFFEFFFFFFFFFFD3
:10CD9000FFFFFFFFFFFFFFFFFFFFFFFFFFFFFFFFA3
:10CDA000FFFFFFFFFFFFFFFFFFFFFFFFFFFFFFFF93
:10CDB000FFFFFFFFFFFFFFFFFFFFFFFFFFFFFFFF83
:10CDC000FFFFFFFFFFFFFFFFFFFFFFFFFFFFFFFF73
:10CDD000FFFFFFFFFFFFFFFFFFFFFFFFFFFFFFFF63
:10CDE000FFFFFFFFFFFFFFFFFFFFFFFFFFFFFFFF53
:10CDF000FFFFFFFFFFFFFFFFFFFFFFFFFFFFFFFF43
:10CE0000FFFFFFFFFFFFDFF7DFF7B9B55163F573F2
:10CE100078841774587C577C778415749363BAAD03
:10CE20009FEFFFF79EEFFFFFFFFFFFFFFFFFDFF723
:10CE3000FFFFDFFFFFFFFFFFDFFFDFFFDFFFDFFFA2
:10CE4000DFFFFFFFFFFFFFFFFFFFFFFFFFFFFFFF12
:10CE5000FFFFFFFFFFFFFFFFFFFFFFFFFFFFFFFFE2
:10CE6000FFFFFFFFDFFFDFFFDFFFFFFFFFFFFFFF32
:10CE7000FFFFDFFFFFFFFFFFBFEFDFF7DFEFBDCEFD
:10CE8000377C325B7263B16B19B6DFF7BDE7FFF732
:10CE9000FEF7FFFFFEFFFEFFFEFFFDFFFEFFFEFFB2
:10CEA000FFFFFFFFFFFFDFF7FFFF9EEF5EE7D59C71
:10CEB000CD524F63B894BED6DFF7FEF7FDF7FDF70E
:10CEC000FFFFDFFFBFFFFEFFFFFFFFFFFFFFFFFFD3
:10CED000FFFFFFFFFDFFFDFFFFFFFFFFFFFFFFFF66
:10CEE000FFFFFFFFFFFFFFFFFFFFFFFFFFFFFFFF52
:10CEF000FFFFFFFFFFFFFFFFFFFFFFFFFFFFFFFF42
:10CF0000FFFFFFFFFFFFFFFFFFFFFFFFFFFFFFFF31
:10CF1000FFFFFFFFFFFFFFFFFFFFFFFFFFFFFFFF21
:10CF2000FFFFFFFFFFFFFFFFFFFFFFFFFFFFFFFF11
:10CF3000FFFFFFFFFFFFFFFFFFFFFFFFFFFFFFFF01
:10CF4000FFFFFFFFFFFFDFFFDFFFDFFF5EE71ABE30
:10CF5000D26BB36B767C587C577C587C787C16748B
:10CF6000D46BF473389DFED6DFF7FFF7DFF7DFF7FA
:10CF7000FFFFDFFFDFFFDEFFFFFFFFFFFFFFFFFF22
:10CF8000FFFFFFFFFFFFFFFFFFFFFFFFFFFFFFFFB1
:10CF9000FFFFFFFFFFFFFFFFFFFFFFFFFFFFFFFFA1
:10CFA000FFFFFFFFDFFFFFFFDFFFFFFFFFFFDFF7F9
:10CFB000DFF7FFF7FFF71EDF78A57584D373315BCA
:10CFC00073639AADFDD6DEF7BDF7DEF7FEFFFFFF18
:10CFD000DEFFFFFFFFFFFFFFFFFFFFFFDFFFFFFFA2
:10CFE000DFF7DFF7BFF77BCEB494B0735284F8BDA0
:10CFF0001DDFBFF7FDF7DDF7FEFFFFFFDFFFBFFF20
:10D00000DFFFFFFFFFFFFFFFFFFFFFFFFFFFFFFF50
:10D01000FFFFFFFFFEFFFFFFFFFFFFFFFFFFFFFF21
:10D02000FFFFFFFFFFFFFFFFFFFFFFFFFFFFFFFF10
:10D03000FFFFFFFFFFFFFFFFFFFFFFFFFFFFFFFF00
:10D04000FFFFFFFFFFFFFFFFFFFFFFFFFFFFFFFFF0
:10D05000FFFFFFFFFFFFFFFFFFFFFFFFFFFFFFFFE0
:10D06000FFFFFFFFFFFFFFFFFFFFFFFFFFFFFFFFD0
:10D07000FFFFFFFFFFFFFFFFFFFFFFFFFFFFFFFFC0
:10D08000FFFFFFFFBFFFDFFFDFFFBEF7FEFFDFF7A2
:10D09000DFF79BC6F68CD56BF66B587C387C387CFA
:10D0A000587C377CF673D46B127CF59CB7B59ACE5E
:10D0B0009EEFFFFFFFFFFFFFDFFFDFFFDFFFDFFF71
:10D0C000DFFFDFFFFFFFFFFFFFFFFFFFFFFFFFFFB0
:10D0D000FFFFFFFFFFFFFFFFFFFFFFFFDFFFDFFFA0
:10D0E000DFFFDFFFDFFFFFFFDFFFFFFF1CE73AC6C9
:10D0F00077ADF694137C926B9363D46B399D9BC68A
:10D10000DDF7FEF7FFFFBFF7DFFFBFFFDFFFDFFF4A
:10D11000DEFFDEFFDFFFDFFFDFFFDFFFDFFF3DE7DB
:10D12000D7B59594137CD69C19C65EE7DFF7FFFF51
:10D13000FFFFFFFFDEFFDEFFDFFFFFFFFFFFFFFF61
:10D14000FEFFFDFFFDFFFFFFFFFFFFFFFEFFFEFFF6
:10D15000FFFFFFFFFFFFFFFFFFFFFFFFFFFFFFFFDF
:10D16000FFFFFFFFFFFFFFFFFFFFFFFFFFFFFFFFCF
:10D17000FFFFFFFFFFFFFFFFFFFFFFFFFFFFFFFFBF
:10D18000FFFFFFFFFFFFFFFFFFFFFFFFFFFFFFFFAF
:10D19000FFFFFFFFFFFFFFFFFFFFFFFFFFFFFFFF9F
:10D1A000FFFFFFFFFFFFFFFFFFFFFFFFFFFFFFFF8F
:10D1B000FFFFFFFFFFFFFFFFFFFFFFFFFFFFFFFF7F
:10D1C000FFFFFFFFFFFFFFFFFFFFFFFFFFFFFFFF6F
:10D1D000FFFFFFFFDFFF5EE7B7AD7384D273F47329
:10D1E0001674377C587C597C5A7C3974F76B95637C
:10D1F000B56336745A95FAAD3ABEDCD65EE7BFEF3A
:10D20000DFF7DFF7FEF7FEF7FEF7FEFFFEFFFEFF9C
:10D21000FFFFFFFFFFFFDEF7DEF7FFF7BFEF9FE740
:10D220003DD7BCCE1AB6DAADF78C557C92639463C9
:10D23000D56BD46B958456A5BAD6DEF7FEFFFDFFFD
:10D24000DFFFDFFFFFFFFFFFDFFFDFFFFFFFFFFF6E
:10D25000DFF7FFF7FFF7DFF7DBD6F8B5938C328403
:10D2600056A5BBD6BEF7DFFFDFFFDFFFFFFFFFFFE7
:10D27000FFFFFFFFFFFFFFFFFFFFFFFFFFFFFFFFBE
:10D28000FFFFFFFFFFFFFFFFFFFFFFFFFFFFFFFFAE
:10D29000FFFFFFFFFFFFFFFFFFFFFFFFFFFFFFFF9E
:10D2A000FFFFFFFFFFFFFFFFFFFFFFFFFFFFFFFF8E
:10D2B000FFFFFFFFFFFFFFFFFFFFFFFFFFFFFFFF7E
:10D2C000FFFFFFFFFFFFFFFFFFFFFFFFFFFFFFFF6E
:10D2D000FFFFFFFFFFFFFFFFFFFFFFFFFFFFFFFF5E
:10D2E000FFFFFFFFFFFFFFFFFFFFFFFFFFFFFFFF4E
:10D2F000FFFFFFFFFFFFFFFFFFFFFFFFFFFFFFFF3E
:10D30000FFFFFFFFFFFFFFFFFFFFFFFFFFFFFFFF2D
:10D31000FFFFFFFFFFFFDFF7DFF7FFF7FFF71ED786
:10D32000BAAD557CD46BF5731674577C577C367C3C
:10D3300077849784367C567CF673756B54633363BD
:10D340005363946B167C988CD994F994F99C1A9D2C
:10D350001A9DFA9CF99C988C988CD573946B956B5C
:10D360007463956BB673177C956BB673578499A5E8
:10D370001EDFFFF7DFF7FFF7FFFFDFFFDEFFFEFF38
:10D38000FFFFFFFFDFFFBEF7FFFFFFFFBEF7DFFF7F
:10D390007EEFFCDE55A55184149D1CDFDFF7FFFFF7
:10D3A000FFFFFFFFFFFFDFFFFFFFFFFFFFFFFFFFAD
:10D3B000FFFFFFFFFFFFFFFFFFFFFFFFFFFFFFFF7D
:10D3C000FFFFFFFFFFFFFFFFFFFFFFFFFFFFFFFF6D
:10D3D000FFFFFFFFFFFFFFFFFFFFFFFFFFFFFFFF5D
:10D3E000FFFFFFFFFFFFFFFFFFFFFFFFFFFFFFFF4D
:10D3F000FFFFFFFFFFFFFFFFFFFFFFFFFFFFFFFF3D
:10D40000FFFFFFFFFFFFFFFFFFFFFFFFFFFFFFFF2C
:10D41000FFFFFFFFFFFFFFFFFFFFFFFFFFFFFFFF1C
:10D42000FFFFFFFFFFFFFFFFFFFFFFFFFFFFFFFF0C
:10D43000FFFFFFFFFFFFFFFFFFFFFFFFFFFFFFFFFC
:10D44000FFFFFFFFFFFFFFFFFFFFFFFFFFFFFFFFEC
:10D45000FFFFFFFFFFFFFFFFDEF7BEF7FFFFFFF756
:10D46000FFF7FFF7FFF7DFEF5FE7D9AD9484916334
:10D47000716372635263D473F673F873397C5984A1
:10D48000387C798459845984998C5884387C177CE9
:10D49000177C177C377CB46B535B74637163916B3F
:10D4A0007484D9B59CCE7EE7FFF7FFF7BEEFFEF799
:10D4B000FEF7FEF7FEF7FFFFFFFFFFFFFFFFFFFF97
:10D4C000FFFFBEF7DFFFDFFFDFFFDFFF18C692942D
:10D4D00055AD3DE7DFF7BFF7DFF7DFFFDFF7FFFF12
:10D4E000FFFFFFFFFFFFFFFFDFFFFFFFFFFFFFFF6C
:10D4F000FFFFFFFFFFFFFFFFFFFFFFFFFFFFFFFF3C
:10D50000FFFFFFFFFFFFFFFFFFFFFFFFFFFFFFFF2B
:10D51000FFFFFFFFFFFFFFFFFFFFFFFFFFFFFFFF1B
:10D52000FFFFFFFFFFFFFFFFFFFFFFFFFFFFFFFF0B
:10D53000FFFFFFFFFFFFFFFFFFFFFFFFFFFFFFFFFB
:10D54000FFFFFFFFFFFFFFFFFFFFFFFFFFFFFFFFEB
:10D55000FFFFFFFFFFFFFFFFFFFFFFFFFFFFFFFFDB
:10D56000FFFFFFFFFFFFFFFFFFFFFFFFFFFFFFFFCB
:10D57000FFFFFFFFFFFFFFFFFFFFFFFFFFFFFFFFBB
:10D58000FFFFFFFFFFFFFFFFFFFFFFFFFFFFFFFFAB
:10D59000FFFFFFFFFFFFFEFFFEFFFEFFFFFFFFFF9E
:10D5A000FFFFFEF7FEF7FEF7FFF7DFF7FFFFDFF7FE
:10D5B000BFF75EEF5EEF3EE7BDCE9CC67BC6D9AD42
:10D5C000379D379D379D379D16953ABE5BBE7BC60E
:10D5D0009CCEDCCE5DDF5EE77EE79EEFDFF7FFFFF0
:10D5E000FFF7FFFFFEF7FEFFDCF7FCF7FCF7FDFFA0
:10D5F000FDFFFEFFFEFFFEFFFFFFFFFFFFFFDFFF60
:10D60000FFFF7DEF59CE96B518C61CE77DEFBEF73C
:10D61000DFFFDFFFBFF7FFFFDFFFFFFFFFFFFFFFC2
:10D62000FFFFDFFFFFFFFFFFFFFFFFFFFFFFFFFF2A
:10D63000FFFFFFFFFFFFFFFFFFFFFFFFFFFFFFFFFA
:10D64000FFFFFFFFFFFFFFFFFFFFFFFFFFFFFFFFEA
:10D65000FFFFFFFFFFFFFFFFFFFFFFFFFFFFFFFFDA
:10D66000FFFFFFFFFFFFFFFFFFFFFFFFFFFFFFFFCA
:10D67000FFFFFFFFFFFFFFFFFFFFFFFFFFFFFFFFBA
:10D68000FFFFFFFFFFFFFFFFFFFFFFFFFFFFFFFFAA
:10D69000FFFFFFFFFFFFFFFFFFFFFFFFFFFFFFFF9A
:10D6A000FFFFFFFFFFFFFFFFFFFFFFFFFFFFFFFF8A
:10D6B000FFFFFFFFFFFFFFFFFFFFFFFFFFFFFFFF7A
:10D6C000FFFFFFFFFFFFFFFFFFFFFFFFFFFFFFFF6A
:10D6D000FFFFFFFFFFFFFFFFFFFFFFFFFEFFFEFF5C
:10D6E000FEFFFEFFFEFFFEFFFFFFFFFFFFFFFFFF4E
:10D6F000DFFFFFFFDFFFFFFFFFFFFFF7FFF7FFF792
:10D70000FFF7FFF7FFF7FFF7FFF7FFFFFFFFFFFF51
:10D71000FFFFFFFFFFFFFFFFFEFFFEFFDFFFDFFF5B
:10D72000DFFFDFFFDFFFFFFFDFFFFFFFFFFFFEFF8A
:10D73000FEFFFFFFFFFFFFFFFFFFFFFFFFFFFFFFFA
:10D74000DFFF9EF75DEFDFFFFFFFFFFFFFFFFFFF44
:10D75000DFFFFFFFFFFFFFFFFFFFFFFFFFFFFEFFFA
:10D76000FFFFFFFFFFFFFFFFFFFFFFFFFFFFFFFFC9
:10D77000FFFFFFFFFFFFFFFFFFFFFFFFFFFFFFFFB9
:10D78000FFFFFFFFFFFFFFFFFFFFFFFFFFFFFFFFA9
:10D79000FFFFFFFFFFFFFFFFFFFFFFFFFFFFFFFF99
:10D7A000FFFFFFFFFFFFFFFFFFFFFFFFFFFFFFFF89
:10D7B000FFFFFFFFFFFFFFFFFFFFFFFFFFFFFFFF79
:10D7C000FFFFFFFFFFFFFFFFFFFFFFFFFFFFFFFF69
:10D7D000FFFFFFFFFFFFFFFFFFFFFFFFFFFFFFFF59
:10D7E000FFFFFFFFFFFFFFFFFFFFFFFFFFFFFFFF49
:10D7F000FFFFFFFFFFFFFFFFFFFFFFFFFFFFFFFF39
:10D80000FFFFFFFFFFFFFFFFFFFFFFFFFFFFFFFF28
:10D81000FFFFFFFFFFFFFFFFFFFFFFFFFFFFFFFF18
:10D82000FFFFFEFFFEFFFEFFFFFFFFFFFFFFFFFF0B
:10D83000FEFFFEFFFEFFFEFFFEFFFFFFFFFFFFFFFD
:10D84000DFFFDFFFDFFFDFFFDFFFDFFFDFFFDFFFE8
:10D85000FFFFFFFFFFFFFFFFFFFFFFFFFEFFFEFFDA
:10D86000FEFFFFFFFFFFFFFFFFFFFFFFFFFFDFFFE9
:10D87000DFFFFFFFFFFFFFFFFFFFFFFFFFFFFFFFD8
:10D88000FFFFFFFFFFFFFFFFFFFFFFFFFFFFFFFFA8
:10D89000FFFFFFFFFFFFFFFFFFFFFFFFFFFFFFFF98
:10D8A000FFFFFFFFFFFFFFFFFFFFFFFFFFFFFFFF88
:10D8B000FFFFFFFFFFFFFFFFFFFFFFFFFFFFFFFF78
:10D8C000FFFFFFFFFFFFFFFFFFFFFFFFFFFFFFFF68
:10D8D000FFFFFFFFFFFFFFFFFFFFFFFFFFFFFFFF58
:10D8E000FFFFFFFFFFFFFFFFFFFFFFFFFFFFFFFF48
:10D8F000FFFFFFFFFFFFFFFFFFFFFFFFFFFFFFFF38
:10D90000FFFFFFFFFFFFFFFFFFFFFFFFFFFFFFFF27
:10D91000FFFFFFFFFFFFFFFFFFFFFFFFFFFFFFFF17
:10D92000FFFFFFFFFFFFFFFFFFFFFFFFFFFFFFFF07
:10D93000FFFFFFFFFFFFFFFFFFFFFFFFFFFFFFFFF7
:10D94000FFFFFFFFFFFFFFFFFFFFFFFFFFFFFFFFE7
:10D95000FFFFFFFFFFFFFFFFFFFFFFFFFFFFFFFFD7
:10D96000FFFFFFFFFFFFFFFFFFFFFFFFFFFFFFFFC7
:10D97000FEFFFEFFFEFFFEFFFEFFFEFFFEFFFEFFBF
:10D98000FEFFFFFFFFFFFFFFFFFFFFFFFFFFFFFFA8
:10D99000FFFFFFFFFFFFFFFFFFFFFFFFFDFFFDFF9B
:10D9A000FDFFFDFFFEFFFEFFFFFFFFFFFFFFFFFF8D
:10D9B000FFFFFFFFFFFFFFFFFFFFFFFFFFFFFFFF77
:10D9C000FFFFFFFFFFFFFFFFFFFFFFFFFFFFFFFF67
:10D9D000FFFFFFFFFFFFFFFFFFFFFFFFFFFFFFFF57
:10D9E000FFFFFFFFFFFFFFFFFFFFFFFFFFFFFFFF47
:10D9F000FFFFFFFFFFFFFFFFFFFFFFFFFFFFFFFF37
:10DA0000FFFFFFFFFFFFFFFFFFFFFFFFFFFFFFFF26
:10DA1000FFFFFFFFFFFFFFFFFFFFFFFFFFFFFFFF16
:10DA2000FFFFFFFFFFFFFFFFFFFFFFFFFFFFFFFF06
:10DA3000FFFFFFFFFFFFFFFFFFFFFFFFFFFFFFFFF6
:10DA4000FFFFFFFFFFFFFFFFFFFFFFFFFFFFFFFFE6
:10DA5000FFFFFFFFFFFFFFFFFFFFFFFFFFFFFFFFD6
:10DA6000FFFFFFFFFFFFFFFFFFFFFFFFFFFFFFFFC6
:10DA7000FFFFFFFFFFFFFFFFFFFFFFFFFFFFFFFFB6
:10DA8000FFFFFFFFFFFFFFFFFFFFFFFFFFFFFFFFA6
:10DA9000FFFFFFFFFFFFFFFFFFFFFFFFFFFFFFFF96
:10DAA000FFFFFFFFFFFFFFFFFFFFFFFFFFFFFFFF86
:10DAB000FFFFFFFFFFFFFFFFFFFFFEFFFFFFFFFF77
:10DAC000FFFFFFFFFFFFFFFFFFFFFEFFFEFFFEFF69
:10DAD000FEFFFEFFFEFFFEFFFEFFFEFFFFFFFFFF5C
:10DAE000FFFFFFFFFFFFFFFFFFFFFFFFFFFFFFFF46
:10DAF000FFFFFFFFFFFFFFFFFFFFFFFFFFFFFFFF36
:10DB0000FFFFFFFFFFFFFFFFFFFFFFFFFFFFFFFF25
:10DB1000FFFFFFFFFFFFFFFFFFFFFFFFFFFFFFFF15
:10DB2000FFFFFFFFFFFFFFFFFFFFFFFFFFFFFFFF05
:10DB3000FFFFFFFFFFFFFFFFFFFFFFFFFFFFFFFFF5
:10DB4000FFFFFFFFFFFFFFFFFFFFFFFFFFFFFFFFE5
:10DB5000FFFFFFFFFFFFFFFFFFFFFFFFFFFFFFFFD5
:10DB6000FFFFFFFFFFFFFFFFFFFFFFFFFFFFFFFFC5
:10DB7000FFFFFFFFFFFFFFFFFFFFFFFFFFFFFFFFB5
:10DB8000FFFFFFFFFFFFFFFFFFFFFFFFFFFFFFFFA5
:10DB9000FFFFFFFFFFFFFFFFFFFFFFFFFFFFFFFF95
:10DBA000FFFFFFFFFFFFFFFFFFFFFFFFFFFFFFFF85
:10DBB000FFFFFFFFFFFFFFFFFFFFFFFFFFFFFFFF75
:10DBC000FFFFFFFFFFFFFFFFFFFFFFFFFFFFFFFF65
:10DBD000FFFFFFFFFFFFFFFFFFFFFFFFFFFFFFFF55
:10DBE000FFFFFFFFFFFFFFFFFEFFFFFFFFFFFFFF46
:10DBF000FFFFFFFFFFFFFFFFFFFFFFFFFFFFFFFF35
:10DC0000FFFFFFFFFFFFFFFFFFFFFFFFFFFFFFFF24
:10DC1000FFFFFFFFFFFFFFFFFFFFFFFFFFFFFFFF14
:10DC2000FFFFFFFFFFFFFFFFFFFFFFFFFFFFFEFF05
:10DC3000FEFFFFFFFFFFFFFFFFFFFFFFFFFFFFFFF5
:10DC4000FFFFFFFFFFFFFFFFFFFFFFFFFFFFFFFFE4
:10DC5000FFFFFFFFFFFFFFFFFFFFFFFFFFFFFFFFD4
:10DC6000FFFFFFFFFFFFFFFFFFFFFFFFFFFFFFFFC4
:10DC7000FFFFFFFFFFFFFFFFFFFFFFFFFFFFFFFFB4
:10DC8000FFFFFFFFFFFFFFFFFFFFFFFFFFFFFFFFA4
:10DC9000FFFFFFFFFFFFFFFFFFFFFFFFFFFFFFFF94
:10DCA000FFFFFFFFFFFFFFFFFFFFFFFFFFFFFFFF84
:10DCB000FFFFFFFFFFFFFFFFFFFFFFFFFFFFFFFF74
:10DCC000FFFFFFFFFFFFFFFFFFFFFFFFFFFFFFFF64
:10DCD000FFFFFFFFFFFFFFFFFFFFFFFFFFFFFFFF54
:10DCE000FFFFFFFFFFFFFFFFFFFFFFFFFFFFFFFF44
:10DCF000FFFFFFFFFFFFFFFFFFFFDFFFBEF7FFFF9D
:10DD0000DFFFDFFFDFFFBEF7FFFFFFFFFFFFDFFFEC
:10DD1000DFFFFFFFDFFFFFFFFFFFFFFFFFFFFFFF53
:10DD2000DFFFDFFFDFFFBEF7FFFFFFFFFFFFFFFFAC
:10DD3000FFFFFFFFFFFFFFFFFFFFFFFFFFFFFFFFF3
:10DD4000FFFFFFFFFFFFFFFFFFFFFFFFFFFFFFFFE3
:10DD5000FFFFFFFFFFFFFFFFFFFFFFFFFFFFFFFFD3
:10DD6000FFFFFFFFFFFFFFFFFFFFFFFFFFFFFFFFC3
:10DD7000FFFFFFFFFFFFDFFFDFFFFFFFFFFFDFFF13
:10DD8000BEF7FFFFDFFFFFFFFFFFFFFFFFFFFFFF0C
:10DD9000FFFFFFFFFFFFFFFFFFFFFFFFFFFFFFFF93
:10DDA000FFFFFFFFFFFFFFFFFFFFFFFFFFFFFFFF83
:10DDB000FFFFFFFFFFFFFFFFFFFFFFFFFFFFFFFF73
:10DDC000FFFFFFFFFFFFFFFFFFFFFFFFFFFFFFFF63
:10DDD000FFFFFFFFFFFFFFFFBEF7FFFFDFFFBEF705
:10DDE000FFFFFFFFFFFFFFFFFFFFFFFFFFFFFFFF43
:10DDF000FFFFFFFFFFFFFFFFFFFFFFFFFFFFFFFF33
:10DE0000FFFFFFFFFFFFFFFFFFFFFFFFFFFFFFFF22
:10DE1000FFFFFFFFFFFFFFFFFFFFFFFFFFFFFFFF12
:10DE2000FFFFFFFFFFFFFFFFFFFFFFFFFFFFFFFF02
:10DE3000FFFFDFFFFFFFFFFFFFFFFFFFFFFFDFFF32
:10DE4000DFFFBEF79EF7DFFFBEF7DFFFFFFFDFFF5D
:10DE5000FFFFDFFFFFFFFFFFFFFFFFFFFFFFBEF73B
:10DE6000FBDE3CE7BEF7DFFFFFFFFFFFFFFFFFFF2B
:10DE7000FFFFFFFFFFFFFFFFFFFFFFFFFFFFFFFFB2
:10DE8000FFFFFFFFFFFFFFFFFFFFFFFFFFFFFFFFA2
:10DE9000FFFFFFFFFFFFFFFFFFFFFFFFFFFFFFFF92
:10DEA000FFFFFFFFFFFFFFFFFFFFFFFFFFFFFFFF82
:10DEB000FFFFFFFFFFFFDFFFDFFFDFFFDFFFDFFF12
:10DEC000DFFFDFFFDFFFDFFFFFFFFFFFFFFFFFFFE2
:10DED000FFFFFFFFFFFFFFFFFFFFFFFFFFFFFFFF52
:10DEE000FFFFFFFFFFFFFFFFFFFFFFFFFFFFFFFF42
:10DEF000FFFFFFFFFFFFFFFFFFFFFFFFFFFFFFFF32
:10DF0000FFFFFFFFFFFFFFFFFFFFFFFFFFFFFFFF21
:10DF1000FFFFFFFFDFFFBEF75DEF7DEFBEF7DFFF27
:10DF2000FFFFFFFFFFFFFFFFFFFFFFFFFFFFFFFF01
:10DF3000FFFFFFFFFFFFFFFFFFFFFFFFFFFFFFFFF1
:10DF4000FFFFFFFFFFFFFFFFFFFFFFFFFFFFFFFFE1
:10DF5000FFFFFFFFFFFFFFFFFFFFFFFFFFFFFFFFD1
:10DF6000FFFFFFFFFFFFFFFFFFFFFFFFFFFFFFFFC1
:10DF7000FFFFFFFFFFFFFFFFBEF7FFFF5DEF55ADA8
:10DF8000494AE318A21065290C6396B5BEF7DFFF76
:10DF9000FFFFDFFFDFFFFFFFFFFFDFFFDFFFD7BD7B
:10DFA00020000421B6B5BEF7DFFFFFFFFFFFFFFF34
:10DFB000FFFFFFFFFFFFFFFFFFFFFFFFFFFFFFFF71
:10DFC000FFFFFFFFFFFFFFFFFFFFFFFFFFFFFFFF61
:10DFD000FFFFFFFFFFFFFFFFFFFFFFFFFFFFFFFF51
:10DFE000FFFFFFFFFFFFFFFFFFFFFFFFFFFFFFFF41
:10DFF000FFFFFFFFFFFFD39C0842494A2842694ABE
:10E00000EF7BB6B5BEF7BEF7FFFFFFFFFFFFFFFFD9
:10E01000FFFFFFFFFFFFFFFFFFFFFFFFFFFFFFFF10
:10E02000FFFFFFFFFFFFFFFFFFFFFFFFFFFFFFFF00
:10E03000FFFFFFFFFFFFFFFFFFFFFFFFFFFFFFFFF0
:10E04000FFFFFFFFFFFFFFFFFFFFFFFFFFFFFFFFE0
:10E05000FFFFFFFFDFFFBAD62000A210D7BDDFFF12
:10E06000FFFFFFFFFFFFFFFFFFFFFFFFFFFFFFFFC0
:10E07000FFFFFFFFFFFFFFFFFFFFFFFFFFFFFFFFB0
:10E08000FFFFFFFFFFFFFFFFFFFFFFFFFFFFFFFFA0
:10E09000FFFFFFFFFFFFFFFFFFFFFFFFFFFFFFFF90
:10E0A000FFFFFFFFFFFFFFFFFFFFFFFFFFFFFFFF80
:10E0B000FFFFFFFFFFFFDFFFFFFFDBDEE3182000B6
:10E0C00020002000410800006108000028423CE7D1
:10E0D000BEF7FFFFFFFFFFFFFFFFDFFFDFFFF39C48
:10E0E000610841088A52FFFFDFFFFFFFFFFFFFFFCC
:10E0F000FFFFFFFFFFFFDFFFDFFFFFFFFFFFFFFF70
:10E10000FFFFFFFFFFFFFFFFFFFFFFFFFFFFFFFF1F
:10E11000FFFFFFFFFFFFFFFFFFFFDFFFFFFFFFFF2F
:10E12000FFFFFFFFFFFFFFFFFFFFFFFFFFFFFFFFFF
:10E13000FFFFFFFFFFFFEF7B20002000000000003B
:10E1400000002000C7393CE7FFFFFFFFFFFFFFFF94
:10E15000FFFFFFFFFFFFFFFFFFFFFFFFFFFFFFFFCF
:10E16000FFFFDFFFDFFFFFFFFFFFFFFFFFFFFFFFFF
:10E17000FFFFFFFFFFFFFFFFFFFFFFFFFFFFFFFFAF
:10E18000FFFFFFFFFFFFFFFFFFFFFFFFFFFFFFFF9F
:10E19000FFFFFFFFDFFF79CE20000000C739BEF789
:10E1A000FFFFFFFFFFFFFFFFFFFFFFFFFFFFFFFF7F
:10E1B000FFFFFFFFFFFFFFFFFFFFFFFFFFFFFFFF6F
:10E1C000FFFFFFFFFFFFFFFFFFFFFFFFFFFFFFFF5F
:10E1D000FFFFFFFFFFFFDFFFFFFFFFFFFFFFFFFF6F
:10E1E000FFFFFFFFFFFFFFFFFFFFFFFFFFFFFFFF3F
:10E1F000FFFFFFFFDFFFDFFF5DEFA2100000200049
:10E200002421EF7B9AD6BAD64D6B2000C318AE738B
:10E21000BEF7FFFFFFFFFFFFFFFFFFFFDFFF9EF7E0
:10E2200079CEEB5ABAD6BEF7DFFFFFFFFFFFFFFF45
:10E23000FFFFFFFFBEF7DFFF9EF79AD67DEFBEF729
:10E24000FFFFDFFFFFFFBEF7FFFFFFFFFFFFFFFF47
:10E25000FFFFFFFFDFFFFFFFFFFF5DEFBAD6FFFF0E
:10E26000FFFFDFFFFFFFFFFFDFFFDFFFDFFFFFFF3E
:10E27000FFFFFFFFFFFFCF7B00008210AA524D6B14
:10E28000084200004108E3181CE7BEF7FFFFFFFF4C
:10E29000FFFFFFFFDFFFFFFFDFFFDFFFFFFF9EF757
:10E2A000FBDEBAD6FFFFFFFFBEF7BEF7FFFFFFFFA3
:10E2B000FFFFFFFFFFFFFFFF9EF7FFFFFFFFBEF720
:10E2C000DFFFFFFFFFFFFFFFFFFFFFFFFFFFFFFF7E
:10E2D000FFFFFFFFDFFFDFFF1CE7EB5A38C6DFFF62
:10E2E000FFFFFFFFFFFFFFFFFFFFDFFFFFFFDFFF7E
:10E2F000FFFF5DEFBAD65DEFDFFFBEF7FFFFDFFF89
:10E30000FFFFBEF7FFFFFFFFFFFFFFFFDFFFFFFF86
:10E31000FFFF7DEF9AD65DEFFFFFFFFFDFFFDFFF1F
:10E32000FFFFDFFFFFFFFFFFFFFFFFFFFFFFFFFF1D
:10E33000FFFFDFFFFFFFDFFFB29400004108C73996
:10E34000BAD6FFFF9EF7DFFFFFFFDBDED7BD9EF7EC
:10E35000DFFFDFFFFFFFFFFFFFFFFFFFFFFFF7BD57
:10E360006108821014A5FFFFFFFFFFFFFFFFFFFF03
:10E37000FFFF7DEF7DEFC7394108200000008631A7
:10E38000E3184108694A1CE7DFFFFFFFFFFFFFFFBB
:10E39000FFFFFFFFDFFF96B5E318200020004108D4
:10E3A000694A82106108D39CDFFFFFFFDFFFFFFF98
:10E3B000FFFFFFFFFFFF108400006108B294DFFF42
:10E3C000DFFF59CE821000008A52FFFFDFFFDFFF20
:10E3D000FFFFFFFFFFFFBEF7FFFF59CE8631410869
:10E3E00020004108A2101084DFFFFFFFFFFFFFFFA6
:10E3F000FFFFFFFFFFFFDFFFAA52410808423CE793
:10E40000BEF7BEF7452941082842FBDEFFFFFFFFAC
:10E41000FFFFFFFFDFFFBAD682104108B294BEF7BC
:10E42000FFFFFFFFFFFFFFFFDFFFDFFFBEF7718C86
:10E43000E318200000002000E318718CDFFFDFFFED
:10E44000DFFFDFFFFFFFFFFFFFFFBEF77DEFB294AF
:10E45000C318410800004108E31814A5FFFFBEF7E8
:10E46000FFFFFFFFFFFFFFFFFFFFFFFFFFFFFFFFBC
:10E47000FFFFFFFFDFFFDFFF494A20008210D7BD0B
:10E48000DFFFBEF7DFFFDFFFDFFFFFFFFFFF9EF7CE
:10E49000BEF7FFFFBEF7FFFFFFFFFFFFFFFF18C63E
:10E4A000000061081084DFFFFFFFFFFFFFFFFFFF99
:10E4B000FFFFBEF7652941082000A2104529610829
:10E4C0002000000045291CE7BEF7FFFFFFFFFFFF0C
:10E4D000FFFFFFFF1CE76108200061082421A6312F
:10E4E000200000002000EB5ABEF7DFFFFFFFFFFF18
:10E4F000FFFFFFFFFFFFCF7B00008210B294FFFF02
:10E50000DFFFFFFFE739200004215DEFDFFFDFFFC2
:10E51000FFFFFFFFDFFFDFFFDBDEC3182000E31894
:10E52000A6318A52821000008A52FFFFFFFFDFFFF0
:10E53000FFFFFFFFFFFFDFFF1CE782102000718C51
:10E54000BEF759CE200061082C63BEF7FFFFFFFF26
:10E55000FFFFFFFFFFFFDBDE000020008E73DFFF09
:10E56000FFFFFFFFFFFFFFFFDFFFBEF7CF7B0000D6
:10E570002000821086316529200061088E73BEF765
:10E58000BEF7FFFFFFFFFFFFFFFFDFFF96B5200095
:10E590002000C31808422842000061081084DFFFF1
:10E5A000BEF7FFFFFFFFFFFFFFFFFFFFFFFFFFFFC4
:10E5B000FFFFFFFFDFFFFFFFE7390000E3181CE765
:10E5C000DFFFDFFFAA520842E739E739E739694A36
:10E5D000DBDEDFFFDFFFFFFFFFFFFFFFFFFFF7BD1A
:10E5E000200020004D6BFFFFFFFFFFFFFFFFFFFF3D
:10E5F000DFFF5DEF61082000E739B6B57DEFBAD6E1
:10E600008210000045291CE7BEF7FFFFFFFFFFFF58
:10E61000FFFFFFFF0C63610861080C63BAD67DEF52
:10E62000929420002000CB5ADFFFFFFFDFFFFFFFA7
:10E63000FFFFFFFFFFFFCF7B00006108B294FFFFE9
:10E64000FFFFDFFF494A200082103CE7BEF7FFFFD3
:10E65000DFFFFFFFDFFFFFFF4D6B00008210494A25
:10E6600055AD55ADCF7B2000200014A5FFFFDFFF87
:10E67000FFFFFFFFFFFFFFFFDFFF8A5200002421A3
:10E680003CE7452900002421D7BDDFFFDFFFFFFF66
:10E69000FFFFFFFFFFFFDBDE000000006D6BDFFF11
:10E6A000FFFFFFFFFFFFFFFFDFFFFBDE000020009B
:10E6B000452934A5BEF7BEF759CE718C1CE7DFFFA4
:10E6C000DFFFFFFFFFFFFFFFFFFFDFFF084220002C
:10E6D000A2100C6375AD55AD2C6300002000F7BD92
:10E6E000FFFFFFFFFFFFFFFFFFFFFFFFFFFFFFFF3A
:10E6F000FFFFFFFFDFFFBEF78E7341084108FBDE1F
:10E700009EF7DFFF4529200000002000200061085F
:10E710002C63FFFFFFFFFFFFFFFFFFFFFFFFF7BDC2
:10E72000000020008E73BEF7FFFFFFFFFFFFFFFF1B
:10E73000FFFFDBDE00006108EF7BDFFFDFFFFFFF95
:10E740002421000045291CE7DFFFFFFFFFFFFFFF3B
:10E75000FFFFDFFFA63100000421D7BDDFFFDFFF91
:10E76000DFFF821000002C63DFFFDFFFFFFFFFFFF2
:10E77000FFFFFFFFFFFFEF7B00006108B294FFFF88
:10E78000BEF7DFFFC7390000E318FBDEFFFFDFFF46
:10E79000FFFFDFFFDFFFBEF7242120000000200085
:10E7A00000000000000000002000CB5ABEF7FFFF71
:10E7B000FFFFFFFFDFFFDFFFBEF7FBDE610820008A
:10E7C0008A52000041080C63BEF7BEF7FFFFFFFF4F
:10E7D000FFFFFFFFFFFFDBDE000000006D6BDFFFD0
:10E7E000FFFFFFFFFFFFFFFFDFFF96B500002000E8
:10E7F0008E739EF7FFFFBEF7BEF7DFFFDFFFDFFF81
:10E80000FFFFFFFFFFFFFFFFDFFF9EF7A2102000CB
:10E810000000000000002000200020000000718C9B
:10E82000DFFFFFFFFFFFFFFFFFFFFFFFFFFFFFFF18
:10E83000FFFFFFFFFFFFDFFF59CE00000000EB5A94
:10E84000DFFFBEF7BEF714A514A5E3180000E31818
:10E8500075ADDFFFBEF7FFFFFFFFFFFFFFFF38C60D
:10E8600000004108718CFFFFFFFFFFFFFFFFFFFF6C
:10E87000FFFF9EF7200041086D6BDFFF9EF77DEFE5
:10E88000C31800004529FBDEFFFFFFFFFFFFFFFF6E
:10E89000FFFFDFFF0C636108C318F7BDBEF7DFFFA2
:10E8A00018C620002000CB5ADFFFFFFFFFFFFFFF4D
:10E8B000FFFFFFFFFFFFAE7300008210B294DFFF87
:10E8C000DFFF929400004108A6319EF7DFFFDFFFD3
:10E8D000FFFFDFFFBEF7FFFF28420000652992948B
:10E8E000518CF39CB29492949294D39CFFFFDFFFDF
:10E8F000DFFFFFFFFFFFFFFFFFFFFFFF8A52200048
:10E90000000000000421D7BDFFFFFFFFFFFFFFFF56
:10E91000FFFFFFFFFFFFDBDE000000006D6BFFFF6E
:10E92000FFFFFFFFFFFFFFFFFFFF18C620000000F3
:10E93000718CDFFF9EF7FFFFBEF7DFFFFFFFDFFFFA
:10E94000FFFFBEF7FFFFFFFFFFFFBEF704218210AE
:10E95000A631EF7BB294718CD39C108414A5F7BDC3
:10E96000DFFFFFFFFFFFFFFFFFFFFFFFFFFFFFFFD7
:10E97000FFFFFFFFDFFFDFFFDFFFCF7B410820004E
:10E98000E318B29496B5518CC31800006108694A27
:10E99000BEF7FFFFDFFFFFFFFFFFFFFFFFFF38C6F0
:10E9A000200020009294FFFFFFFFFFFFFFFFFFFF0B
:10E9B000FFFFDFFF452900006108CB5A8E73C318A3
:10E9C0000000000045291CE7FFFFFFFFFFFFFFFFDE
:10E9D000FFFFDFFFDBDE41086108A63134A5EF7BD6
:10E9E000610800002000AA52FFFFDFFFFFFFFFFFCA
:10E9F000FFFFFFFFFFFFCF7B00000000452908421B
:10EA0000E31800000000A2103084FFFFBEF7FFFFF4
:10EA1000FFFFDFFFFFFFFFFF38C620000000EB5ABB
:10EA20007DEF55AD86318A52FBDEDFFFFFFFFFFF32
:10EA3000DFFFFFFFFFFFFFFFDFFF9EF779CE200024
:10EA400020000000CB5ABEF7FFFFFFFFFFFFFFFFD4
:10EA5000FFFFFFFFFFFFDBDE00002000CF7BBEF7E4
:10EA6000FFFFFFFFFFFFFFFFDFFFDFFF694A4108F6
:10EA70004108108438C6718CA2102C635DEFDFFF53
:10EA8000DFFFFFFFFFFFFFFFFFFFDFFF14A5000019
:10EA90000000EF7B3CE7B294C3182C63BEF7DFFFA6
:10EAA000FFFFFFFFFFFFFFFFFFFFFFFFFFFFFFFF76
:10EAB000FFFFFFFFDFFFDFFFDFFFDFFFF39CA210A1
:10EAC000000020000000200000008210494ABAD651
:10EAD000BEF7BEF7DFFFFFFFFFFFFFFFFFFF96B5AB
:10EAE000200041083084DFFFFFFFFFFFFFFFFFFF33
:10EAF000FFFFDFFF9EF7494A200000000000821060
:10EB0000200000004529FBDEFFFFFFFFFFFFFFFFA6
:10EB1000FFFFFFFFBEF755AD821000000000410867
:10EB2000410820004108CB5AFFFFDFFFDFFFFFFF56
:10EB3000FFFFFFFFFFFFAE730000000000000000BA
:10EB400020004108C318CF7B9EF7FFFFBEF7FFFFF1
:10EB5000FFFFBEF7FFFFBEF7FFFF14A582102000E6
:10EB6000410820000000A210AA52FFFFFFFFFFFF94
:10EB7000FFFFDFFFFFFFDFFFDFFFFFFFBEF7694A99
:10EB800020004529F7BDDFFFFFFFFFFFFFFFFFFF6D
:10EB9000FFFFFFFFDFFFBAD6000020008E73BEF735
:10EBA000FFFFFFFFFFFFFFFFFFFFBEF75DEF284204
:10EBB00020000000200000002000C3181084DFFFA8
:10EBC000DFFFDFFFFFFFFFFFFFFFFFFF7DEF9294FF
:10EBD0000000200020000000200082104D6BBEF7D6
:10EBE000DFFFDFFFFFFFFFFFFFFFFFFFFFFFFFFF75
:10EBF000FFFFDFFFFFFFDFFFFFFFBEF7DFFF1CE7C9
:10EC0000D39C694AA631C739CB5AB2945DEFDFFF76
:10EC1000BEF7FFFFFFFFFFFFFFFFFFFFFFFF9EF7B6
:10EC2000D39C6D6B14A5BEF7FFFFFFFFFFFFFFFF37
:10EC3000BEF79EF7D7BDD7BDD7BD1084CF7BEF7B86
:10EC4000410800000842BEF7BEF7FFFFFFFFFFFFCD
:10EC5000FFFFFFFFDFFFBEF7BAD61084084208426D
:10EC60009294F39C6D6BB294DFFFDFFFFFFFFFFF19
:10EC7000FFFFFFFFFFFFFBDE718C6D6B6D6B4D6B5C
:10EC80006D6B518C59CEBEF7DFFFDFFFDFFFBEF7A4
:10EC9000FFFFFFFFDFFFFFFFDFFFBEF7DBDE518C73
:10ECA000694AC739CB5AB2945DEFFFFFFFFFDFFF20
:10ECB000FFFFDFFFFFFFDFFFDFFFDFFFFFFF1CE7DF
:10ECC000518CCF7B7DEFDFFFDFFFFFFFDFFFFFFF1B
:10ECD000FFFFFFFFDFFF9EF755AD8E73F39CDFFF55
:10ECE000FFFFFFFFFFFFFFFFDFFFDFFFDFFFFFFF94
:10ECF000D7BD6D6BE739E7390C6375ADBEF7DFFF44
:10ED0000DFFFFFFFFFFFFFFFFFFFFFFFFFFFFFFF33
:10ED100079CE8E73E739C739CB5A96B5BEF7DFFF88
:10ED2000DFFFFFFFFFFFFFFFFFFFFFFFFFFFFFFF13
:10ED3000FFFFFFFFFFFFFFFFFFFFFFFFFFFFFFFFE3
:10ED4000FFFFFFFFFFFFFFFFFFFFFFFFFFFFFFFFD3
:10ED5000FFFFFFFFFFFFFFFFFFFFFFFFFFFFFFFFC3
:10ED6000FFFFFFFFFFFFFFFFFFFFFFFFFFFFFFFFB3
:10ED7000DFFF7DEFC31800000421694AAA52E3189F
:10ED8000000082104D6BBEF7FFFFFFFFFFFFFFFF8C
:10ED9000FFFFFFFFFFFFFFFFFFFFFFFFFFFFFFFF83
:10EDA000FFFFFFFFFFFFFFFFFFFFFFFFFFFFFFFF73
:10EDB000FFFFFFFFFFFFFFFFFFFFFFFFFFFFFFFF63
:10EDC000FFFFFFFFFFFFFFFFFFFFFFFFFFFFFFFF53
:10EDD000FFFFFFFFFFFFFFFFFFFFFFFFFFFFFFFF43
:10EDE000FFFFFFFFFFFFFFFFFFFFFFFFFFFFFFFF33
:10EDF000FFFFFFFFFFFFFFFFFFFFFFFFFFFFFFFF23
:10EE0000FFFFFFFFFFFFFFFFFFFFFFFFFFFFFFFF12
:10EE1000FFFFFFFFFFFFFFFFFFFFFFFFFFFFFFFF02
:10EE2000FFFFFFFFFFFFFFFFFFFFFFFFFFFFFFFFF2
:10EE3000FFFFFFFFFFFFFFFFFFFFFFFFFFFFFFFFE2
:10EE4000FFFFFFFFFFFFFFFFFFFFFFFFFFFFFFFFD2
:10EE5000FFFFFFFFFFFFFFFFFFFFFFFFFFFFFFFFC2
:10EE6000FFFFFFFFFFFFFFFFFFFFFFFFFFFFFFFFB2
:10EE7000FFFFFFFFFFFFFFFFFFFFFFFFFFFFFFFFA2
:10EE8000FFFFFFFFFFFFFFFFFFFFFFFFFFFFFFFF92
:10EE9000FFFFFFFFFFFFFFFFFFFFFFFFFFFFFFFF82
:10EEA000FFFFFFFFFFFFFFFFFFFFFFFFFFFFFFFF72
:10EEB000FFFFBEF7FFFFA631410820000000000061
:10EEC0004108AA52BAD6DFFFFFFFFFFFFFFFFFFF97
:10EED000FFFFFFFFFFFFFFFFFFFFFFFFFFFFFFFF42
:10EEE000FFFFFFFFFFFFFFFFFFFFFFFFFFFFFFFF32
:10EEF000FFFFFFFFFFFFFFFFFFFFFFFFFFFFFFFF22
:10EF0000FFFFFFFFFFFFFFFFFFFFFFFFFFFFFFFF11
:10EF1000FFFFFFFFFFFFFFFFFFFFFFFFFFFFFFFF01
:10EF2000FFFFFFFFFFFFFFFFFFFFFFFFFFFFFFFFF1
:10EF3000FFFFFFFFFFFFFFFFFFFFFFFFFFFFFFFFE1
:10EF4000FFFFFFFFFFFFFFFFFFFFFFFFFFFFFFFFD1
:10EF5000FFFFFFFFFFFFFFFFFFFFFFFFFFFFFFFFC1
:10EF6000FFFFFFFFFFFFFFFFFFFFFFFFFFFFFFFFB1
:10EF7000FFFFFFFFFFFFFFFFFFFFFFFFFFFFFFFFA1
:10EF8000FFFFFFFFFFFFFFFFFFFFFFFFFFFFFFFF91
:10EF9000FFFFFFFFFFFFFFFFFFFFFFFFFFFFFFFF81
:10EFA000FFFFFFFFFFFFFFFFFFFFFFFFFFFFFFFF71
:10EFB000FFFFFFFFFFFFFFFFFFFFFFFFFFFFFFFF61
:10EFC000FFFFFFFFFFFFFFFFFFFFFFFFFFFFFFFF51
:10EFD000FFFFFFFFFFFFFFFFFFFFFFFFFFFFFFFF41
:10EFE000FFFFFFFFFFFFFFFFFFFFFFFFFFFFFFFF31
:10EFF000FFFF9EF7BEF7DFFF5DEF55AD518C92949A
:10F0000079CEBEF7DFFFFFFFFFFFFFFFFFFFFFFF30
:10F01000FFFFFFFFFFFFFFFFFFFFFFFFFFFFFFFF00
:10F02000FFFFFFFFFFFFFFFFFFFFFFFFFFFFFFFFF0
:10F03000FFFFFFFFFFFFFFFFFFFFFFFFFFFFFFFFE0
:10F04000FFFFFFFFFFFFFFFFFFFFFFFFFFFFFFFFD0
:10F05000FFFFFFFFFFFFFFFFFFFFFFFFFFFFFFFFC0
:10F06000FFFFFFFFFFFFFFFFFFFFFFFFFFFFFFFFB0
:10F07000FFFFFFFFFFFFFFFFFFFFFFFFFFFFFFFFA0
:10F08000FFFFFFFFFFFFFFFFFFFFFFFFFFFFFFFF90
:10F09000FFFFFFFFFFFFFFFFFFFFFFFFFFFFFFFF80
:10F0A000FFFFFFFFFFFFFFFFFFFFFFFFFFFFFFFF70
:10F0B000FFFFFFFFFFFFFFFFFFFFFFFFFFFFFFFF60
:10F0C000FFFFFFFFFFFFFFFFFFFFFFFFFFFFFFFF50
:10F0D000FFFFFFFFFFFFFFFFFFFFFFFFFFFFFFFF40
:10F0E000FFFFFFFFFFFFFFFFFFFFFFFFFFFFFFFF30
:10F0F000FFFFFFFFFFFFFFFFFFFFFFFFFFFFFFFF20
:10F10000FFFFFFFFFFFFFFFFFFFFFFFFFFFFFFFF0F
:10F11000FFFFFFFFFFFFFFFFFFFFFFFFFFFFFFFFFF
:10F12000FFFFFFFFFFFFFFFFFFFFFFFFFFFFFFFFEF
:10F13000FFFFDFFFFFFFDFFFBEF7FFFFBEF7FFFFB1
:10F14000BEF7DFFFFFFFBEF7FFFFFFFFFFFFFFFF81
:10F15000FFFFFFFFFFFFFFFFFFFFFFFFFFFFFFFFBF
:10F16000FFFFFFFFFFFFFFFFFFFFFFFFFFFFFFFFAF
:10F17000FFFFFFFFFFFFFFFFFFFFFFFFFFFFFFFF9F
:10F18000FFFFFFFFFFFFFFFFFFFFFFFFFFFFFFFF8F
:10F19000FFFFFFFFFFFFFFFFFFFFFFFFFFFFFFFF7F
:10F1A000FFFFFFFFFFFFFFFFFFFFFFFFFFFFFFFF6F
:10F1B000FFFFFFFFFFFFFFFFFFFFFFFFFFFFFFFF5F
:10F1C000FFFFFFFFFFFFFFFFFFFFFFFFFFFFFFFF4F
:10F1D000FFFFFFFFFFFFFFFFFFFFFFFFFFFFFFFF3F
:10F1E000FFFFFFFFFFFFFFFFFFFFFFFFFFFFFFFF2F
:10F1F000FFFFFFFFFFFFFFFFFFFFFFFFFFFFFFFF1F
:10F20000FFFFFFFFFFFFFFFFFFFFFFFFFFFFFFFF0E
:10F21000FFFFFFFFFFFFFFFFFFFFFFFFFFFFFFFFFE
:10F22000FFFFFFFFFFFFFFFFFFFFFFFFFFFFFFFFEE
:10F23000FFFFFFFFFFFFFFFFFFFFFFFFFFFFFFFFDE
:10F24000FFFFFFFFFFFFFFFFFFFFFFFFFFFFFFFFCE
:10F25000FFFFFFFFFFFFFFFFFFFFFFFFFFFFFFFFBE
:10F26000FFFFFFFFFFFFFFFFFFFFFFFFFFFFFFFFAE
:10F27000FFFFFFFFFFFFFFFFFFFFFFFFFFFFFFFF9E
:10F28000FFFFFFFFFFFFFFFFDFFFFFFFFFFFFFFFAE
:10F29000FFFFFFFFFFFFFFFFFFFFFFFFFFFFFFFF7E
:10F2A000FFFFFFFFFFFFFFFFFFFFFFFFFFFFFFFF6E
:10F2B000FFFFFFFFFFFFFFFFFFFFFFFFFFFFFFFF5E
:10F2C000FFFFFFFFFFFFFFFFFFFFFFFFFFFFFFFF4E
:10F2D000FFFFFFFFFFFFFFFFFFFFFFFFFFFFFFFF3E
:10F2E000FFFFFFFFFFFFFFFFFFFFFFFFFFFFFFFF2E
:10F2F000FFFFFFFFFFFFFFFFFFFFFFFFFFFFFFFF1E
:10F30000FFFFFFFFFFFFFFFFFFFFFFFFFFFFFFFF0D
:10F31000FFFFFFFFFFFFFFFFFFFFFFFFFFFFFFFFFD
:10F32000FFFFFFFFFFFFFFFFFFFFFFFFFFFFFFFFED
:10F33000FFFFFFFFFFFFFFFFFFFFFFFFFFFFFFFFDD
:10F34000FFFFFFFFFFFFFFFFFFFFFFFFFFFFFFFFCD
:10F35000FFFFFFFFFFFFFFFFFFFFFFFFFFFFFFFFBD
:10F36000FFFFFFFFFFFFFFFFFFFFFFFF8CF3000822
:10F3700000000020C80000001442000854F40008F7
:10F38000C800002000040000244200081400780097
:10F39000DC000A006400C800506C65617365207071
:10F3A000726573732074686520627574746F6E2162
:10F3B000000000000000000000000000000000004D
:10F3C000000E2707001C0140001C0140001C0140EA
:10F3D000001C0140010000000200000004000000C9
:10F3E000080000000E0611070002000004000000E3
:10F3F000000400000800000000080140000801406F
:10F40000020602060706070607060706000801406F
:10F4100000100140001C0140001C014001000000E0
:10F42000002000002000000010000000020604067A
:10F430000706070601000000002000002000000071
:10F440001000000000020505000D05040628170A3B
:04F4500000000000B8
:04000005080041317D
:00000001FF
