:020000040800F2
:1040000098040020454100089B41000893410008A6
:10401000974100088D41000811420008000000008F
:10402000000000000000000000000000C741000880
:104030009141000800000000C5410008C941000886
:104040005F4100085F4100085F4100085F410008D0
:104050005F4100085F4100085F4100085F410008C0
:104060005F4100085F4100085F4100085F410008B0
:104070005F4100085F4100085F4100085F410008A0
:104080005F4100085F4100085F4100085F41000890
:104090005F4100085F4100085F4100085F41000880
:1040A0005F4100085F4100085F4100085F41000870
:1040B0005F4100085F4100085F4100085F41000860
:1040C0005F4100085F4100085F4100085F41000850
:1040D0005F4100085F4100085F4100085F41000840
:1040E0005F4100085F4100085F4100085F41000830
:1040F0005F4100085F4100085F4100085F41000820
:104100005F4100085F4100085F4100085F4100080F
:104110005F4100085F4100085F4100085F410008FF
:104120005F4100085F4100085F4100085F410008EF
:10413000DFF80CD000F018F800480047754300087D
:10414000980400200648804706480047FEE7FEE73F
:10415000FEE7FEE7FEE7FEE7FEE7FEE7FEE7FEE737
:10416000D141000831410008064C074D06E0E068E7
:1041700040F0010394E8070098471034AC42F6D3AE
:10418000FFF7DAFF684500088845000800BFFEE732
:10419000704700BFFEE700BFFEE7704710B500287C
:1041A00007DA0A07140E054A00F00F031B1FD45448
:1041B00003E00A07130E024A135410BD18ED00E085
:1041C00000E400E07047704710B500F03DF810BD06
:1041D00010B50D48006840F001000B490860002050
:1041E0004860C862084600680849084006490860F7
:1041F0004FF41F0088600846006820F480200860A3
:1042000000F086F910BD000000100240FFFFF6FE2E
:1042100000BFFEE702E008C8121F08C1002AFAD159
:1042200070477047002001E001C1121F002AFBD136
:10423000704700000349086000BF0249096800296F
:10424000FBD17047000000200448006820B10348FB
:104250000068401E0149086070470000000000200F
:1042600010B504460B4931F8140000F0BDF80A49B6
:1042700051F82430094951F824000322102100F09C
:1042800027F8054850F82400044951F824104861E3
:1042900010BD000048000020180000200800002089
:1042A000034951F82010034A52F820205161704709
:1042B0001800002008000020034951F82010034A8C
:1042C00052F82020116170471800002008000020DB
:1042D000F0B50C4616460025002204F00F0514F038
:1042E000100F08D0042E05D145F00305C76B1F43FE
:1042F000C76300E03543002118E001278F401F42CB
:1043000012D002684FEA810C0F2707FA0CF7BA4364
:104310008F0005FA07F73A43282C01D1436102E0E8
:10432000482C00D1036102604F1CB9B20829E4D3C4
:1043300008211CE001278F401F4216D04268A1F1DE
:1043400008074FEA870C0F2707FA0CF7BA43A1F1C9
:104350000807BF0005FA07F73A43282C01D143614B
:1043600002E0482C00D1036142604F1CB9B2102911
:10437000E0D3F0BD4FF48041480300F02BF800205B
:10438000FFF76EFF0120FFF76BFF0220FFF768FFCA
:1043900000F0C2F81DE00020FFF78EFFC820FFF7F5
:1043A00049FF0120FFF788FFC820FFF743FF0220E5
:1043B000FFF782FFC820FFF73DFF0020FFF770FFE7
:1043C0000120FFF76DFF0220FFF76AFFC820FFF70B
:1043D00031FFE0E7024A0A400243024B1A6070478D
:1043E00080FFFF1F08ED00E0064901EB901109680E
:1043F00000F01F0301229A401143024A02EB90127F
:104400001160704700100240002000213C4A1268F1
:1044100042F480323A4B1A6000BF401C384A12689E
:1044200002F4003111B9B0F5006FF6D1344A1268C8
:1044300012F4003F01D100BFFEE7314AD26942F0D9
:1044400080522F4BDA612F4A126842F440422D4BC2
:104450001A602B4A52682A4B5A601A4652685A60B0
:104460001A46526842F480625A601A46526822F430
:1044700040325A601A46526842F440325A601A4634
:104480005268214B1A401E4B5A601A4652681F4B05
:104490001A431B4B5A601A46126842F080721A6027
:1044A00000BF174A126812F0007FFAD0154A12684E
:1044B00042F48032134B1A6000BF124A526812F461
:1044C000803FFAD00F4A126842F400320D4B1A6056
:1044D00000BF0C4A526812F4003FFAD0084A5268F2
:1044E00022F00302064B5A601A46526842F002025A
:1044F0005A6000BF024A526812F0080FFAD07047A3
:104500000010024000700040FFFFC3B700003408F5
:1045100010B5FFF779FF10BD10B5124800684FF4D1
:104520007A71B0FBF1F4601EB0F1807F01D30120FD
:104530000FE0601E4FF0E02148610F214FF0FF3087
:10454000FFF72CFE00204FF0E02188610720086172
:10455000002008B100BFFEE70021481EFFF71EFE45
:1045600010BD000004000020884500080000002065
:1045700094000000144200081C460008940000202B
:10458000040400002442000800000000000E270779
:10459000001C0140001C0140001C0140001C0140A7
:1045A00001000000020000000400000008000000FC
:1045B0000E061107000200000400000000040000C5
:1045C0000800000000080140000801400206020641
:1045D000070607060706070600080140001001400D
:1045E000001C0140001C01400100000000200000F0
:1045F000200000001000000002060406070607065F
:104600000100000000200000200000001000000059
:0C46100000020505000D05040628170A2D
:04000005080041317D
:00000001FF
