Component: ARM Compiler 5.06 update 6 (build 750) Tool: armlink [4d35ed]

==============================================================================

Section Cross References

    usb2com_app.o(i.CtlDac) refers to led_drv.o(i.TurnOffLed) for TurnOffLed
    usb2com_app.o(i.CtlDac) refers to dac_drv.o(i.Dac_Set_Vol) for Dac_Set_Vol
    usb2com_app.o(i.CtlDac) refers to led_drv.o(i.TurnOnLed) for TurnOnLed
    usb2com_app.o(i.CtlLed) refers to led_drv.o(i.TurnOnLed) for TurnOnLed
    usb2com_app.o(i.CtlLed) refers to led_drv.o(i.TurnOffLed) for TurnOffLed
    usb2com_app.o(i.ProcessUartData) refers to usb2com_app.o(.data) for index
    usb2com_app.o(i.ProcessUartData) refers to usb2com_app.o(.bss) for g_RxPackageData
    usb2com_app.o(i.Usb2ComAppInit) refers to usb2com_drv.o(i.regUsb2Comcb) for regUsb2Comcb
    usb2com_app.o(i.Usb2ComAppInit) refers to usb2com_app.o(i.ProcessUartData) for ProcessUartData
    usb2com_app.o(i.Usb2ComTask) refers to usb2com_app.o(i.xorSum) for xorSum
    usb2com_app.o(i.Usb2ComTask) refers to usb2com_app.o(i.CtlLed) for CtlLed
    usb2com_app.o(i.Usb2ComTask) refers to usb2com_app.o(i.CtlDac) for CtlDac
    usb2com_app.o(i.Usb2ComTask) refers to usb2com_app.o(.data) for g_pktRecv
    usb2com_app.o(i.Usb2ComTask) refers to usb2com_app.o(.bss) for g_RxPackageData
    main.o(i.AllAppInit) refers to usb2com_app.o(i.Usb2ComAppInit) for Usb2ComAppInit
    main.o(i.AllDrvInit) refers to delay.o(i.delay_init) for delay_init
    main.o(i.AllDrvInit) refers to led_drv.o(i.LedDrvInit) for LedDrvInit
    main.o(i.AllDrvInit) refers to adc_drv.o(i.AdcDrvInit) for AdcDrvInit
==============================================================================

Removing Unused input sections from the image.

    Removing delay.o(.rev16_text), (4 bytes).
    Removing delay.o(.revsh_text), (4 bytes).
    Removing adc_drv.o(.rev16_text), (4 bytes).
    Removing adc_drv.o(.revsh_text), (4 bytes).
    Removing led_drv.o(.rev16_text), (4 bytes).
    Removing led_drv.o(.revsh_text), (4 bytes).
    Removing led_drv.o(i.ToggleLed), (80 bytes).
    Removing usb2com_drv.o(.rev16_text), (4 bytes).
    Removing usb2com_drv.o(.revsh_text), (4 bytes).
    Removing usb2com_drv.o(i.Usb2ComTxTesting), (48 bytes).
    Removing dac_drv.o(.rev16_text), (4 bytes).
    Removing dac_drv.o(.revsh_text), (4 bytes).
    Removing startup_gd32f30x_hd.o(HEAP), (1024 bytes).
    Removing system_gd32f30x.o(.rev16_text), (4 bytes).
    Removing system_gd32f30x.o(.revsh_text), (4 bytes).
    Removing system_gd32f30x.o(i.SystemCoreClockUpdate), (316 bytes).
    Removing system_gd32f30x.o(.data), (4 bytes).
    Removing gd32f30x_rcu.o(.rev16_text), (4 bytes).
==============================================================================

Image Symbol Table

    Local Symbols

    Symbol Name                              Value     Ov Type        Size  Object(Section)

    ../clib/microlib/division.c              0x00000000   Number         0  uldiv.o ABSOLUTE
    ../clib/microlib/division.c              0x00000000   Number         0  uidiv.o ABSOLUTE
    ../clib/microlib/init/entry.s            0x00000000   Number         0  entry2.o ABSOLUTE
    ../clib/microlib/init/entry.s            0x00000000   Number         0  entry7a.o ABSOLUTE
    ../clib/microlib/init/entry.s            0x00000000   Number         0  entry7b.o ABSOLUTE
    ../clib/microlib/init/entry.s            0x00000000   Number         0  entry.o ABSOLUTE
    ../clib/microlib/init/entry.s            0x00000000   Number         0  entry11b.o ABSOLUTE
    ../clib/microlib/init/entry.s            0x00000000   Number         0  entry8a.o ABSOLUTE
    ../clib/microlib/init/entry.s            0x00000000   Number         0  entry8b.o ABSOLUTE
    ../clib/microlib/init/entry.s            0x00000000   Number         0  entry9a.o ABSOLUTE
    ../clib/microlib/init/entry.s            0x00000000   Number         0  entry11a.o ABSOLUTE
    ../clib/microlib/init/entry.s            0x00000000   Number         0  entry9b.o ABSOLUTE
    ../clib/microlib/init/entry.s            0x00000000   Number         0  entry10a.o ABSOLUTE
    ../clib/microlib/init/entry.s            0x00000000   Number         0  entry10b.o ABSOLUTE
    ../clib/microlib/init/entry.s            0x00000000   Number         0  entry5.o ABSOLUTE
    ../clib/microlib/longlong.c              0x00000000   Number         0  llushr.o ABSOLUTE
    ../clib/microlib/longlong.c              0x00000000   Number         0  llshl.o ABSOLUTE
    ../clib/microlib/longlong.c              0x00000000   Number         0  llsshr.o ABSOLUTE
    ../clib/microlib/printf/printf.c         0x00000000   Number         0  printf6.o ABSOLUTE
    ../clib/microlib/printf/printf.c         0x00000000   Number         0  printf5.o ABSOLUTE
    ../clib/microlib/printf/printf.c         0x00000000   Number         0  printf3.o ABSOLUTE
    ../clib/microlib/printf/printf.c         0x00000000   Number         0  printf2.o ABSOLUTE
    ../clib/microlib/printf/printf.c         0x00000000   Number         0  printf1.o ABSOLUTE
    ../clib/microlib/printf/printf.c         0x00000000   Number         0  printf0.o ABSOLUTE
    ../clib/microlib/printf/printf.c         0x00000000   Number         0  printfb.o ABSOLUTE
    ../clib/microlib/printf/printf.c         0x00000000   Number         0  printfa.o ABSOLUTE
    ../clib/microlib/printf/printf.c         0x00000000   Number         0  printf8.o ABSOLUTE
    ../clib/microlib/printf/printf.c         0x00000000   Number         0  printf7.o ABSOLUTE
    ../clib/microlib/printf/printf.c         0x00000000   Number         0  printf4.o ABSOLUTE
    ../clib/microlib/printf/stubs.s          0x00000000   Number         0  stubs.o ABSOLUTE
    ../clib/microlib/stdio/streams.c         0x00000000   Number         0  stdout.o ABSOLUTE
    ../clib/microlib/stubs.s                 0x00000000   Number         0  iusefp.o ABSOLUTE
    ../fplib/microlib/f2d.c                  0x00000000   Number         0  f2d.o ABSOLUTE
    ../fplib/microlib/fpadd.c                0x00000000   Number         0  dadd.o ABSOLUTE
    ../fplib/microlib/fpdiv.c                0x00000000   Number         0  ddiv.o ABSOLUTE
    ../fplib/microlib/fpepilogue.c           0x00000000   Number         0  depilogue.o ABSOLUTE
    ../fplib/microlib/fpfix.c                0x00000000   Number         0  dfixul.o ABSOLUTE
    ../fplib/microlib/fpfix.c                0x00000000   Number         0  dfixui.o ABSOLUTE
    ../fplib/microlib/fpflt.c                0x00000000   Number         0  dfltui.o ABSOLUTE
    ../fplib/microlib/fpmul.c                0x00000000   Number         0  dmul.o ABSOLUTE
    App\Usb2Com_app.c                        0x00000000   Number         0  usb2com_app.o ABSOLUTE
    App\main.c                               0x00000000   Number         0  main.o ABSOLUTE
    Arm\\system_gd32f30x.c                   0x00000000   Number         0  system_gd32f30x.o ABSOLUTE
    Arm\startup_gd32f30x_hd.s                0x00000000   Number         0  startup_gd32f30x_hd.o ABSOLUTE
    Arm\system_gd32f30x.c                    0x00000000   Number         0  system_gd32f30x.o ABSOLUTE
    Driver\Usb2Com_drv.c                     0x00000000   Number         0  usb2com_drv.o ABSOLUTE
    Driver\\Usb2Com_drv.c                    0x00000000   Number         0  usb2com_drv.o ABSOLUTE
    Driver\\adc_drv.c                        0x00000000   Number         0  adc_drv.o ABSOLUTE
    Driver\\dac_drv.c                        0x00000000   Number         0  dac_drv.o ABSOLUTE
    Driver\\delay.c                          0x00000000   Number         0  delay.o ABSOLUTE
    Driver\\led_drv.c                        0x00000000   Number         0  led_drv.o ABSOLUTE
    Driver\adc_drv.c                         0x00000000   Number         0  adc_drv.o ABSOLUTE
    Driver\dac_drv.c                         0x00000000   Number         0  dac_drv.o ABSOLUTE
    Driver\delay.c                           0x00000000   Number         0  delay.o ABSOLUTE
    Driver\led_drv.c                         0x00000000   Number         0  led_drv.o ABSOLUTE
    GD32_Lib\Source\gd32f30x_adc.c           0x00000000   Number         0  gd32f30x_adc.o ABSOLUTE
    GD32_Lib\Source\gd32f30x_dac.c           0x00000000   Number         0  gd32f30x_dac.o ABSOLUTE
    GD32_Lib\Source\gd32f30x_exti.c          0x00000000   Number         0  gd32f30x_exti.o ABSOLUTE
    GD32_Lib\Source\gd32f30x_gpio.c          0x00000000   Number         0  gd32f30x_gpio.o ABSOLUTE
    GD32_Lib\Source\gd32f30x_misc.c          0x00000000   Number         0  gd32f30x_misc.o ABSOLUTE
    GD32_Lib\Source\gd32f30x_rcu.c           0x00000000   Number         0  gd32f30x_rcu.o ABSOLUTE
    GD32_Lib\Source\gd32f30x_usart.c         0x00000000   Number         0  gd32f30x_usart.o ABSOLUTE
    GD32_Lib\\Source\\gd32f30x_adc.c         0x00000000   Number         0  gd32f30x_adc.o ABSOLUTE
    GD32_Lib\\Source\\gd32f30x_dac.c         0x00000000   Number         0  gd32f30x_dac.o ABSOLUTE
    GD32_Lib\\Source\\gd32f30x_exti.c        0x00000000   Number         0  gd32f30x_exti.o ABSOLUTE
    GD32_Lib\\Source\\gd32f30x_gpio.c        0x00000000   Number         0  gd32f30x_gpio.o ABSOLUTE
    GD32_Lib\\Source\\gd32f30x_misc.c        0x00000000   Number         0  gd32f30x_misc.o ABSOLUTE
    GD32_Lib\\Source\\gd32f30x_rcu.c         0x00000000   Number         0  gd32f30x_rcu.o ABSOLUTE
    GD32_Lib\\Source\\gd32f30x_usart.c       0x00000000   Number         0  gd32f30x_usart.o ABSOLUTE
    cdrcmple.s                               0x00000000   Number         0  cdrcmple.o ABSOLUTE
    dc.s                                     0x00000000   Number         0  dc.o ABSOLUTE
    handlers.s                               0x00000000   Number         0  handlers.o ABSOLUTE
    init.s                                   0x00000000   Number         0  init.o ABSOLUTE
    RESET                                    0x08000000   Section      304  startup_gd32f30x_hd.o(RESET)
    .ARM.Collect$$$$00000000                 0x08000130   Section        0  entry.o(.ARM.Collect$$$$00000000)
    .ARM.Collect$$$$00000001                 0x08000130   Section        4  entry2.o(.ARM.Collect$$$$00000001)
    .ARM.Collect$$$$00000004                 0x08000134   Section        4  entry5.o(.ARM.Collect$$$$00000004)
    .ARM.Collect$$$$00000008                 0x08000138   Section        0  entry7b.o(.ARM.Collect$$$$00000008)
    .ARM.Collect$$$$0000000A                 0x08000138   Section        0  entry8b.o(.ARM.Collect$$$$0000000A)
    .ARM.Collect$$$$0000000B                 0x08000138   Section        8  entry9a.o(.ARM.Collect$$$$0000000B)
    .ARM.Collect$$$$0000000D                 0x08000140   Section        0  entry10a.o(.ARM.Collect$$$$0000000D)
    .ARM.Collect$$$$0000000F                 0x08000140   Section        0  entry11a.o(.ARM.Collect$$$$0000000F)
    .ARM.Collect$$$$00002712                 0x08000140   Section        4  entry2.o(.ARM.Collect$$$$00002712)
    __lit__00000000                          0x08000140   Data           4  entry2.o(.ARM.Collect$$$$00002712)
    .text                                    0x08000144   Section       36  startup_gd32f30x_hd.o(.text)
    $v0                                      0x08000144   Number         0  startup_gd32f30x_hd.o(.text)
    .text                                    0x08000168   Section        0  dmul.o(.text)
    .text                                    0x0800024c   Section        0  ddiv.o(.text)
    .text                                    0x0800032a   Section        0  dfltui.o(.text)
    .text                                    0x08000344   Section        0  dfixui.o(.text)
    .text                                    0x08000376   Section        0  f2d.o(.text)
    .text                                    0x0800039c   Section       48  cdrcmple.o(.text)
    .text                                    0x080003cc   Section        0  uidiv.o(.text)
    .text                                    0x080003f8   Section        0  uldiv.o(.text)
    .text                                    0x0800045a   Section        0  llushr.o(.text)
    .text                                    0x0800047a   Section        0  depilogue.o(.text)
    .text                                    0x0800047a   Section        0  iusefp.o(.text)
    .text                                    0x08000534   Section        0  dadd.o(.text)
    .text                                    0x08000682   Section        0  dfixul.o(.text)
    .text                                    0x080006b4   Section       36  init.o(.text)
    .text                                    0x080006d8   Section        0  llshl.o(.text)
    .text                                    0x080006f6   Section        0  llsshr.o(.text)
    i.AdcConfigInit                          0x0800071c   Section        0  adc_drv.o(i.AdcConfigInit)
    AdcConfigInit                            0x0800071d   Thumb Code   104  adc_drv.o(i.AdcConfigInit)
    i.AdcDrvInit                             0x08000788   Section        0  adc_drv.o(i.AdcDrvInit)
    i.AdcDrvTest                             0x08000794   Section        0  adc_drv.o(i.AdcDrvTest)
    i.AdcGpioInit                            0x0800080c   Section        0  adc_drv.o(i.AdcGpioInit)
    AdcGpioInit                              0x0800080d   Thumb Code    24  adc_drv.o(i.AdcGpioInit)
    i.AllAppInit                             0x08000828   Section        0  main.o(i.AllAppInit)
    AllAppInit                               0x08000829   Thumb Code     8  main.o(i.AllAppInit)
    i.AllDrvInit                             0x08000830   Section        0  main.o(i.AllDrvInit)
    AllDrvInit                               0x08000831   Thumb Code    30  main.o(i.AllDrvInit)
    i.CtlDac                                 0x0800084e   Section        0  usb2com_app.o(i.CtlDac)
    CtlDac                                   0x0800084f   Thumb Code   120  usb2com_app.o(i.CtlDac)
    i.CtlLed                                 0x080008c6   Section        0  usb2com_app.o(i.CtlLed)
    CtlLed                                   0x080008c7   Thumb Code    24  usb2com_app.o(i.CtlLed)
    i.DacConfgInit                           0x080008de   Section        0  dac_drv.o(i.DacConfgInit)
    DacConfgInit                             0x080008df   Thumb Code    64  dac_drv.o(i.DacConfgInit)
    i.DacDrvInit                             0x0800091e   Section        0  dac_drv.o(i.DacDrvInit)
    i.DacGpioInit                            0x0800092c   Section        0  dac_drv.o(i.DacGpioInit)
    DacGpioInit                              0x0800092d   Thumb Code    24  dac_drv.o(i.DacGpioInit)
    i.Dac_Set_Vol                            0x08000948   Section        0  dac_drv.o(i.Dac_Set_Vol)
    i.Get_Adc_Average                        0x08000a3c   Section        0  adc_drv.o(i.Get_Adc_Average)
    i.Get_Adc_Value                          0x08000a64   Section        0  adc_drv.o(i.Get_Adc_Value)
    Get_Adc_Value                            0x08000a65   Thumb Code    52  adc_drv.o(i.Get_Adc_Value)
    i.LedDrvInit                             0x08000a9c   Section        0  led_drv.o(i.LedDrvInit)
    i.ProcessUartData                        0x08000af8   Section        0  usb2com_app.o(i.ProcessUartData)
    ProcessUartData                          0x08000af9   Thumb Code    86  usb2com_app.o(i.ProcessUartData)
    i.SystemInit                             0x08000b5c   Section        0  system_gd32f30x.o(i.SystemInit)
    i.TurnOffLed                             0x08000c04   Section        0  led_drv.o(i.TurnOffLed)
    i.TurnOnLed                              0x08000c30   Section        0  led_drv.o(i.TurnOnLed)
    i.USART0_IRQHandler                      0x08000c5c   Section        0  usb2com_drv.o(i.USART0_IRQHandler)
    i.Usb2ComAppInit                         0x08000ca0   Section        0  usb2com_app.o(i.Usb2ComAppInit)
    i.Usb2ComDrvInit                         0x08000cb0   Section        0  usb2com_drv.o(i.Usb2ComDrvInit)
    i.Usb2ComTask                            0x08000d58   Section        0  usb2com_app.o(i.Usb2ComTask)
    i.__0printf                              0x08000da8   Section        0  printfa.o(i.__0printf)
    i.__scatterload_copy                     0x08000dc8   Section       14  handlers.o(i.__scatterload_copy)
    i.__scatterload_null                     0x08000dd6   Section        2  handlers.o(i.__scatterload_null)
    i.__scatterload_zeroinit                 0x08000dd8   Section       14  handlers.o(i.__scatterload_zeroinit)
    i._fp_digits                             0x08000de8   Section        0  printfa.o(i._fp_digits)
    _fp_digits                               0x08000de9   Thumb Code   366  printfa.o(i._fp_digits)
    i._printf_core                           0x08000f6c   Section        0  printfa.o(i._printf_core)
    _printf_core                             0x08000f6d   Thumb Code  1744  printfa.o(i._printf_core)
    i._printf_post_padding                   0x08001648   Section        0  printfa.o(i._printf_post_padding)
    _printf_post_padding                     0x08001649   Thumb Code    36  printfa.o(i._printf_post_padding)
    i._printf_pre_padding                    0x0800166c   Section        0  printfa.o(i._printf_pre_padding)
    _printf_pre_padding                      0x0800166d   Thumb Code    46  printfa.o(i._printf_pre_padding)
    i.adc_calibration_enable                 0x0800169a   Section        0  gd32f30x_adc.o(i.adc_calibration_enable)
    i.adc_channel_length_config              0x080016c4   Section        0  gd32f30x_adc.o(i.adc_channel_length_config)
    i.adc_data_alignment_config              0x0800170a   Section        0  gd32f30x_adc.o(i.adc_data_alignment_config)
    i.adc_deinit                             0x08001720   Section        0  gd32f30x_adc.o(i.adc_deinit)
    i.adc_enable                             0x08001778   Section        0  gd32f30x_adc.o(i.adc_enable)
    i.adc_external_trigger_config            0x0800178a   Section        0  gd32f30x_adc.o(i.adc_external_trigger_config)
    i.adc_external_trigger_source_config     0x080017c8   Section        0  gd32f30x_adc.o(i.adc_external_trigger_source_config)
    i.adc_flag_get                           0x080017f8   Section        0  gd32f30x_adc.o(i.adc_flag_get)
    i.adc_mode_config                        0x08001808   Section        0  gd32f30x_adc.o(i.adc_mode_config)
    i.adc_regular_channel_config             0x08001824   Section        0  gd32f30x_adc.o(i.adc_regular_channel_config)
    i.adc_regular_data_read                  0x080018d0   Section        0  gd32f30x_adc.o(i.adc_regular_data_read)
    i.adc_software_trigger_enable            0x080018d8   Section        0  gd32f30x_adc.o(i.adc_software_trigger_enable)
    i.adc_special_function_config            0x080018f6   Section        0  gd32f30x_adc.o(i.adc_special_function_config)
    i.dac_data_set                           0x08001950   Section        0  gd32f30x_dac.o(i.dac_data_set)
    i.dac_deinit                             0x080019a8   Section        0  gd32f30x_dac.o(i.dac_deinit)
    i.dac_dma_disable                        0x080019bc   Section        0  gd32f30x_dac.o(i.dac_dma_disable)
    i.dac_enable                             0x080019e0   Section        0  gd32f30x_dac.o(i.dac_enable)
    i.dac_output_buffer_disable              0x08001a04   Section        0  gd32f30x_dac.o(i.dac_output_buffer_disable)
    i.dac_trigger_disable                    0x08001a28   Section        0  gd32f30x_dac.o(i.dac_trigger_disable)
    i.dac_wave_mode_config                   0x08001a4c   Section        0  gd32f30x_dac.o(i.dac_wave_mode_config)
    i.delay_init                             0x08001a80   Section        0  delay.o(i.delay_init)
    i.delay_ms                               0x08001ad8   Section        0  delay.o(i.delay_ms)
    i.delay_us                               0x08001b10   Section        0  delay.o(i.delay_us)
    i.fputc                                  0x08001b5c   Section        0  usb2com_drv.o(i.fputc)
    i.gpio_bit_reset                         0x08001b84   Section        0  gd32f30x_gpio.o(i.gpio_bit_reset)
    i.gpio_bit_set                           0x08001b88   Section        0  gd32f30x_gpio.o(i.gpio_bit_set)
    i.gpio_init                              0x08001b8c   Section        0  gd32f30x_gpio.o(i.gpio_init)
    i.main                                   0x08001c48   Section        0  main.o(i.main)
    i.nvic_irq_enable                        0x08001c58   Section        0  gd32f30x_misc.o(i.nvic_irq_enable)
    i.nvic_priority_group_set                0x08001d1c   Section        0  gd32f30x_misc.o(i.nvic_priority_group_set)
    i.rcu_adc_clock_config                   0x08001d30   Section        0  gd32f30x_rcu.o(i.rcu_adc_clock_config)
    i.rcu_clock_freq_get                     0x08001d9c   Section        0  gd32f30x_rcu.o(i.rcu_clock_freq_get)
    i.rcu_periph_clock_enable                0x08001ef4   Section        0  gd32f30x_rcu.o(i.rcu_periph_clock_enable)
    i.rcu_periph_reset_disable               0x08001f14   Section        0  gd32f30x_rcu.o(i.rcu_periph_reset_disable)
    i.rcu_periph_reset_enable                0x08001f34   Section        0  gd32f30x_rcu.o(i.rcu_periph_reset_enable)
    i.regUsb2Comcb                           0x08001f54   Section        0  usb2com_drv.o(i.regUsb2Comcb)
    i.system_clock_120m_hxtal                0x08001f60   Section        0  system_gd32f30x.o(i.system_clock_120m_hxtal)
    system_clock_120m_hxtal                  0x08001f61   Thumb Code   258  system_gd32f30x.o(i.system_clock_120m_hxtal)
    i.system_clock_config                    0x08002074   Section        0  system_gd32f30x.o(i.system_clock_config)
    system_clock_config                      0x08002075   Thumb Code     8  system_gd32f30x.o(i.system_clock_config)
    i.usart_baudrate_set                     0x0800207c   Section        0  gd32f30x_usart.o(i.usart_baudrate_set)
    i.usart_data_receive                     0x0800210c   Section        0  gd32f30x_usart.o(i.usart_data_receive)
    i.usart_data_transmit                    0x08002116   Section        0  gd32f30x_usart.o(i.usart_data_transmit)
    i.usart_deinit                           0x08002120   Section        0  gd32f30x_usart.o(i.usart_deinit)
    i.usart_enable                           0x080021b0   Section        0  gd32f30x_usart.o(i.usart_enable)
    i.usart_flag_clear                       0x080021ba   Section        0  gd32f30x_usart.o(i.usart_flag_clear)
    i.usart_flag_get                         0x080021cc   Section        0  gd32f30x_usart.o(i.usart_flag_get)
    i.usart_interrupt_enable                 0x080021ea   Section        0  gd32f30x_usart.o(i.usart_interrupt_enable)
    i.usart_interrupt_flag_clear             0x08002204   Section        0  gd32f30x_usart.o(i.usart_interrupt_flag_clear)
    i.usart_interrupt_flag_get               0x08002216   Section        0  gd32f30x_usart.o(i.usart_interrupt_flag_get)
    i.usart_parity_config                    0x0800224e   Section        0  gd32f30x_usart.o(i.usart_parity_config)
    i.usart_receive_config                   0x0800225e   Section        0  gd32f30x_usart.o(i.usart_receive_config)
    i.usart_stop_bit_set                     0x08002272   Section        0  gd32f30x_usart.o(i.usart_stop_bit_set)
    i.usart_transmit_config                  0x08002282   Section        0  gd32f30x_usart.o(i.usart_transmit_config)
    i.usart_word_length_set                  0x08002296   Section        0  gd32f30x_usart.o(i.usart_word_length_set)
    i.xorSum                                 0x080022a6   Section        0  usb2com_app.o(i.xorSum)
    xorSum                                   0x080022a7   Thumb Code    24  usb2com_app.o(i.xorSum)
    .data                                    0x20000000   Section        2  usb2com_app.o(.data)
    g_pktRecv                                0x20000000   Data           1  usb2com_app.o(.data)
    index                                    0x20000001   Data           1  usb2com_app.o(.data)
    .data                                    0x20000002   Section        2  delay.o(.data)
    g_fac_us                                 0x20000002   Data           2  delay.o(.data)
    .data                                    0x20000004   Section       24  led_drv.o(.data)
    .data                                    0x2000001c   Section       28  usb2com_drv.o(.data)
    .data                                    0x20000038   Section        4  stdout.o(.data)
    .bss                                     0x2000003c   Section       20  usb2com_app.o(.bss)
    g_RxPackageData                          0x2000003c   Data          20  usb2com_app.o(.bss)
    STACK                                    0x20000050   Section     1024  startup_gd32f30x_hd.o(STACK)

    Global Symbols

    Symbol Name                              Value     Ov Type        Size  Object(Section)

    BuildAttributes$$THM_ISAv4$E$P$D$K$B$S$7EM$VFPi3$EXTD16$VFPS$VFMA$PE$A:L22UL41UL21$X:L11$S22US41US21$IEEE1$IW$USESV6$~STKCKD$USESV7$~SHL$OSPACE$ROPI$EBA8$MICROLIB$REQ8$PRES8$EABIv2 0x00000000   Number         0  anon$$obj.o ABSOLUTE
    __ARM_use_no_argv                        0x00000000   Number         0  main.o ABSOLUTE
    _printf_a                                0x00000000   Number         0  stubs.o ABSOLUTE
    _printf_c                                0x00000000   Number         0  stubs.o ABSOLUTE
    _printf_charcount                        0x00000000   Number         0  stubs.o ABSOLUTE
    _printf_d                                0x00000000   Number         0  stubs.o ABSOLUTE
    _printf_e                                0x00000000   Number         0  stubs.o ABSOLUTE
    _printf_f                                0x00000000   Number         0  stubs.o ABSOLUTE
    _printf_flags                            0x00000000   Number         0  stubs.o ABSOLUTE
    _printf_fp_dec                           0x00000000   Number         0  stubs.o ABSOLUTE
    _printf_fp_hex                           0x00000000   Number         0  stubs.o ABSOLUTE
    _printf_g                                0x00000000   Number         0  stubs.o ABSOLUTE
    _printf_i                                0x00000000   Number         0  stubs.o ABSOLUTE
    _printf_int_dec                          0x00000000   Number         0  stubs.o ABSOLUTE
    _printf_l                                0x00000000   Number         0  stubs.o ABSOLUTE
    _printf_lc                               0x00000000   Number         0  stubs.o ABSOLUTE
    _printf_ll                               0x00000000   Number         0  stubs.o ABSOLUTE
    _printf_lld                              0x00000000   Number         0  stubs.o ABSOLUTE
    _printf_lli                              0x00000000   Number         0  stubs.o ABSOLUTE
    _printf_llo                              0x00000000   Number         0  stubs.o ABSOLUTE
    _printf_llu                              0x00000000   Number         0  stubs.o ABSOLUTE
    _printf_llx                              0x00000000   Number         0  stubs.o ABSOLUTE
    _printf_longlong_dec                     0x00000000   Number         0  stubs.o ABSOLUTE
    _printf_longlong_hex                     0x00000000   Number         0  stubs.o ABSOLUTE
    _printf_longlong_oct                     0x00000000   Number         0  stubs.o ABSOLUTE
    _printf_ls                               0x00000000   Number         0  stubs.o ABSOLUTE
    _printf_mbtowc                           0x00000000   Number         0  stubs.o ABSOLUTE
    _printf_n                                0x00000000   Number         0  stubs.o ABSOLUTE
    _printf_o                                0x00000000   Number         0  stubs.o ABSOLUTE
    _printf_p                                0x00000000   Number         0  stubs.o ABSOLUTE
    _printf_percent                          0x00000000   Number         0  stubs.o ABSOLUTE
    _printf_pre_padding                      0x00000000   Number         0  stubs.o ABSOLUTE
    _printf_return_value                     0x00000000   Number         0  stubs.o ABSOLUTE
    _printf_s                                0x00000000   Number         0  stubs.o ABSOLUTE
    _printf_sizespec                         0x00000000   Number         0  stubs.o ABSOLUTE
    _printf_str                              0x00000000   Number         0  stubs.o ABSOLUTE
    _printf_truncate_signed                  0x00000000   Number         0  stubs.o ABSOLUTE
    _printf_truncate_unsigned                0x00000000   Number         0  stubs.o ABSOLUTE
    _printf_u                                0x00000000   Number         0  stubs.o ABSOLUTE
    _printf_wc                               0x00000000   Number         0  stubs.o ABSOLUTE
    _printf_wctomb                           0x00000000   Number         0  stubs.o ABSOLUTE
    _printf_widthprec                        0x00000000   Number         0  stubs.o ABSOLUTE
    _printf_x                                0x00000000   Number         0  stubs.o ABSOLUTE
    __cpp_initialize__aeabi_                  - Undefined Weak Reference
    __cxa_finalize                            - Undefined Weak Reference
    __decompress                              - Undefined Weak Reference
    _clock_init                               - Undefined Weak Reference
    _microlib_exit                            - Undefined Weak Reference
    __Vectors_Size                           0x00000130   Number         0  startup_gd32f30x_hd.o ABSOLUTE
    __Vectors                                0x08000000   Data           4  startup_gd32f30x_hd.o(RESET)
    __Vectors_End                            0x08000130   Data           0  startup_gd32f30x_hd.o(RESET)
    __main                                   0x08000131   Thumb Code     0  entry.o(.ARM.Collect$$$$00000000)
    _main_stk                                0x08000131   Thumb Code     0  entry2.o(.ARM.Collect$$$$00000001)
    _main_scatterload                        0x08000135   Thumb Code     0  entry5.o(.ARM.Collect$$$$00000004)
    __main_after_scatterload                 0x08000139   Thumb Code     0  entry5.o(.ARM.Collect$$$$00000004)
    _main_clock                              0x08000139   Thumb Code     0  entry7b.o(.ARM.Collect$$$$00000008)
    _main_cpp_init                           0x08000139   Thumb Code     0  entry8b.o(.ARM.Collect$$$$0000000A)
    _main_init                               0x08000139   Thumb Code     0  entry9a.o(.ARM.Collect$$$$0000000B)
    __rt_final_cpp                           0x08000141   Thumb Code     0  entry10a.o(.ARM.Collect$$$$0000000D)
    __rt_final_exit                          0x08000141   Thumb Code     0  entry11a.o(.ARM.Collect$$$$0000000F)
    Reset_Handler                            0x08000145   Thumb Code     8  startup_gd32f30x_hd.o(.text)
    NMI_Handler                              0x0800014d   Thumb Code     2  startup_gd32f30x_hd.o(.text)
    HardFault_Handler                        0x0800014f   Thumb Code     2  startup_gd32f30x_hd.o(.text)
    MemManage_Handler                        0x08000151   Thumb Code     2  startup_gd32f30x_hd.o(.text)
    BusFault_Handler                         0x08000153   Thumb Code     2  startup_gd32f30x_hd.o(.text)
    UsageFault_Handler                       0x08000155   Thumb Code     2  startup_gd32f30x_hd.o(.text)
    SVC_Handler                              0x08000157   Thumb Code     2  startup_gd32f30x_hd.o(.text)
    DebugMon_Handler                         0x08000159   Thumb Code     2  startup_gd32f30x_hd.o(.text)
    PendSV_Handler                           0x0800015b   Thumb Code     2  startup_gd32f30x_hd.o(.text)
    SysTick_Handler                          0x0800015d   Thumb Code     2  startup_gd32f30x_hd.o(.text)
    ADC0_1_IRQHandler                        0x0800015f   Thumb Code     0  startup_gd32f30x_hd.o(.text)
    ADC2_IRQHandler                          0x0800015f   Thumb Code     0  startup_gd32f30x_hd.o(.text)
    CAN0_EWMC_IRQHandler                     0x0800015f   Thumb Code     0  startup_gd32f30x_hd.o(.text)
    CAN0_RX1_IRQHandler                      0x0800015f   Thumb Code     0  startup_gd32f30x_hd.o(.text)
    DMA0_Channel0_IRQHandler                 0x0800015f   Thumb Code     0  startup_gd32f30x_hd.o(.text)
    DMA0_Channel1_IRQHandler                 0x0800015f   Thumb Code     0  startup_gd32f30x_hd.o(.text)
    DMA0_Channel2_IRQHandler                 0x0800015f   Thumb Code     0  startup_gd32f30x_hd.o(.text)
    DMA0_Channel3_IRQHandler                 0x0800015f   Thumb Code     0  startup_gd32f30x_hd.o(.text)
    DMA0_Channel4_IRQHandler                 0x0800015f   Thumb Code     0  startup_gd32f30x_hd.o(.text)
    DMA0_Channel5_IRQHandler                 0x0800015f   Thumb Code     0  startup_gd32f30x_hd.o(.text)
    DMA0_Channel6_IRQHandler                 0x0800015f   Thumb Code     0  startup_gd32f30x_hd.o(.text)
    DMA1_Channel0_IRQHandler                 0x0800015f   Thumb Code     0  startup_gd32f30x_hd.o(.text)
    DMA1_Channel1_IRQHandler                 0x0800015f   Thumb Code     0  startup_gd32f30x_hd.o(.text)
    DMA1_Channel2_IRQHandler                 0x0800015f   Thumb Code     0  startup_gd32f30x_hd.o(.text)
    DMA1_Channel3_4_IRQHandler               0x0800015f   Thumb Code     0  startup_gd32f30x_hd.o(.text)
    EXMC_IRQHandler                          0x0800015f   Thumb Code     0  startup_gd32f30x_hd.o(.text)
    EXTI0_IRQHandler                         0x0800015f   Thumb Code     0  startup_gd32f30x_hd.o(.text)
    EXTI10_15_IRQHandler                     0x0800015f   Thumb Code     0  startup_gd32f30x_hd.o(.text)
    EXTI1_IRQHandler                         0x0800015f   Thumb Code     0  startup_gd32f30x_hd.o(.text)
    EXTI2_IRQHandler                         0x0800015f   Thumb Code     0  startup_gd32f30x_hd.o(.text)
    EXTI3_IRQHandler                         0x0800015f   Thumb Code     0  startup_gd32f30x_hd.o(.text)
    EXTI4_IRQHandler                         0x0800015f   Thumb Code     0  startup_gd32f30x_hd.o(.text)
    EXTI5_9_IRQHandler                       0x0800015f   Thumb Code     0  startup_gd32f30x_hd.o(.text)
    FMC_IRQHandler                           0x0800015f   Thumb Code     0  startup_gd32f30x_hd.o(.text)
    I2C0_ER_IRQHandler                       0x0800015f   Thumb Code     0  startup_gd32f30x_hd.o(.text)
    I2C0_EV_IRQHandler                       0x0800015f   Thumb Code     0  startup_gd32f30x_hd.o(.text)
    I2C1_ER_IRQHandler                       0x0800015f   Thumb Code     0  startup_gd32f30x_hd.o(.text)
    I2C1_EV_IRQHandler                       0x0800015f   Thumb Code     0  startup_gd32f30x_hd.o(.text)
    LVD_IRQHandler                           0x0800015f   Thumb Code     0  startup_gd32f30x_hd.o(.text)
    RCU_CTC_IRQHandler                       0x0800015f   Thumb Code     0  startup_gd32f30x_hd.o(.text)
    RTC_Alarm_IRQHandler                     0x0800015f   Thumb Code     0  startup_gd32f30x_hd.o(.text)
    RTC_IRQHandler                           0x0800015f   Thumb Code     0  startup_gd32f30x_hd.o(.text)
    SDIO_IRQHandler                          0x0800015f   Thumb Code     0  startup_gd32f30x_hd.o(.text)
    SPI0_IRQHandler                          0x0800015f   Thumb Code     0  startup_gd32f30x_hd.o(.text)
    SPI1_IRQHandler                          0x0800015f   Thumb Code     0  startup_gd32f30x_hd.o(.text)
    SPI2_IRQHandler                          0x0800015f   Thumb Code     0  startup_gd32f30x_hd.o(.text)
    TAMPER_IRQHandler                        0x0800015f   Thumb Code     0  startup_gd32f30x_hd.o(.text)
    TIMER0_BRK_IRQHandler                    0x0800015f   Thumb Code     0  startup_gd32f30x_hd.o(.text)
    TIMER0_Channel_IRQHandler                0x0800015f   Thumb Code     0  startup_gd32f30x_hd.o(.text)
    TIMER0_TRG_CMT_IRQHandler                0x0800015f   Thumb Code     0  startup_gd32f30x_hd.o(.text)
    TIMER0_UP_IRQHandler                     0x0800015f   Thumb Code     0  startup_gd32f30x_hd.o(.text)
    TIMER1_IRQHandler                        0x0800015f   Thumb Code     0  startup_gd32f30x_hd.o(.text)
    TIMER2_IRQHandler                        0x0800015f   Thumb Code     0  startup_gd32f30x_hd.o(.text)
    TIMER3_IRQHandler                        0x0800015f   Thumb Code     0  startup_gd32f30x_hd.o(.text)
    TIMER4_IRQHandler                        0x0800015f   Thumb Code     0  startup_gd32f30x_hd.o(.text)
    TIMER5_IRQHandler                        0x0800015f   Thumb Code     0  startup_gd32f30x_hd.o(.text)
    TIMER6_IRQHandler                        0x0800015f   Thumb Code     0  startup_gd32f30x_hd.o(.text)
    TIMER7_BRK_IRQHandler                    0x0800015f   Thumb Code     0  startup_gd32f30x_hd.o(.text)
    TIMER7_Channel_IRQHandler                0x0800015f   Thumb Code     0  startup_gd32f30x_hd.o(.text)
    TIMER7_TRG_CMT_IRQHandler                0x0800015f   Thumb Code     0  startup_gd32f30x_hd.o(.text)
    TIMER7_UP_IRQHandler                     0x0800015f   Thumb Code     0  startup_gd32f30x_hd.o(.text)
    UART3_IRQHandler                         0x0800015f   Thumb Code     0  startup_gd32f30x_hd.o(.text)
    UART4_IRQHandler                         0x0800015f   Thumb Code     0  startup_gd32f30x_hd.o(.text)
    USART1_IRQHandler                        0x0800015f   Thumb Code     0  startup_gd32f30x_hd.o(.text)
    USART2_IRQHandler                        0x0800015f   Thumb Code     0  startup_gd32f30x_hd.o(.text)
    USBD_HP_CAN0_TX_IRQHandler               0x0800015f   Thumb Code     0  startup_gd32f30x_hd.o(.text)
    USBD_LP_CAN0_RX0_IRQHandler              0x0800015f   Thumb Code     0  startup_gd32f30x_hd.o(.text)
    USBD_WKUP_IRQHandler                     0x0800015f   Thumb Code     0  startup_gd32f30x_hd.o(.text)
    WWDGT_IRQHandler                         0x0800015f   Thumb Code     0  startup_gd32f30x_hd.o(.text)
    __aeabi_dmul                             0x08000169   Thumb Code   228  dmul.o(.text)
    __aeabi_ddiv                             0x0800024d   Thumb Code   222  ddiv.o(.text)
    __aeabi_ui2d                             0x0800032b   Thumb Code    26  dfltui.o(.text)
    __aeabi_d2uiz                            0x08000345   Thumb Code    50  dfixui.o(.text)
    __aeabi_f2d                              0x08000377   Thumb Code    38  f2d.o(.text)
    __aeabi_cdrcmple                         0x0800039d   Thumb Code    48  cdrcmple.o(.text)
    __aeabi_uidiv                            0x080003cd   Thumb Code     0  uidiv.o(.text)
    __aeabi_uidivmod                         0x080003cd   Thumb Code    44  uidiv.o(.text)
    __aeabi_uldivmod                         0x080003f9   Thumb Code    98  uldiv.o(.text)
    __aeabi_llsr                             0x0800045b   Thumb Code    32  llushr.o(.text)
    _ll_ushift_r                             0x0800045b   Thumb Code     0  llushr.o(.text)
    __I$use$fp                               0x0800047b   Thumb Code     0  iusefp.o(.text)
    _double_round                            0x0800047b   Thumb Code    30  depilogue.o(.text)
    _double_epilogue                         0x08000499   Thumb Code   156  depilogue.o(.text)
    __aeabi_dadd                             0x08000535   Thumb Code   322  dadd.o(.text)
    __aeabi_dsub                             0x08000677   Thumb Code     6  dadd.o(.text)
    __aeabi_drsub                            0x0800067d   Thumb Code     6  dadd.o(.text)
    __aeabi_d2ulz                            0x08000683   Thumb Code    48  dfixul.o(.text)
    __scatterload                            0x080006b5   Thumb Code    28  init.o(.text)
    __scatterload_rt2                        0x080006b5   Thumb Code     0  init.o(.text)
    __aeabi_llsl                             0x080006d9   Thumb Code    30  llshl.o(.text)
    _ll_shift_l                              0x080006d9   Thumb Code     0  llshl.o(.text)
    __aeabi_lasr                             0x080006f7   Thumb Code    36  llsshr.o(.text)
    _ll_sshift_r                             0x080006f7   Thumb Code     0  llsshr.o(.text)
    AdcDrvInit                               0x08000789   Thumb Code    12  adc_drv.o(i.AdcDrvInit)
    AdcDrvTest                               0x08000795   Thumb Code    82  adc_drv.o(i.AdcDrvTest)
    DacDrvInit                               0x0800091f   Thumb Code    12  dac_drv.o(i.DacDrvInit)
    Dac_Set_Vol                              0x08000949   Thumb Code   180  dac_drv.o(i.Dac_Set_Vol)
    Get_Adc_Average                          0x08000a3d   Thumb Code    40  adc_drv.o(i.Get_Adc_Average)
    LedDrvInit                               0x08000a9d   Thumb Code    86  led_drv.o(i.LedDrvInit)
    SystemInit                               0x08000b5d   Thumb Code   156  system_gd32f30x.o(i.SystemInit)
    TurnOffLed                               0x08000c05   Thumb Code    40  led_drv.o(i.TurnOffLed)
    TurnOnLed                                0x08000c31   Thumb Code    40  led_drv.o(i.TurnOnLed)
    USART0_IRQHandler                        0x08000c5d   Thumb Code    54  usb2com_drv.o(i.USART0_IRQHandler)
    Usb2ComAppInit                           0x08000ca1   Thumb Code    10  usb2com_app.o(i.Usb2ComAppInit)
    Usb2ComDrvInit                           0x08000cb1   Thumb Code   164  usb2com_drv.o(i.Usb2ComDrvInit)
    Usb2ComTask                              0x08000d59   Thumb Code    72  usb2com_app.o(i.Usb2ComTask)
    __0printf                                0x08000da9   Thumb Code    22  printfa.o(i.__0printf)
    __1printf                                0x08000da9   Thumb Code     0  printfa.o(i.__0printf)
    __2printf                                0x08000da9   Thumb Code     0  printfa.o(i.__0printf)
    __c89printf                              0x08000da9   Thumb Code     0  printfa.o(i.__0printf)
    printf                                   0x08000da9   Thumb Code     0  printfa.o(i.__0printf)
    __scatterload_copy                       0x08000dc9   Thumb Code    14  handlers.o(i.__scatterload_copy)
    __scatterload_null                       0x08000dd7   Thumb Code     2  handlers.o(i.__scatterload_null)
    __scatterload_zeroinit                   0x08000dd9   Thumb Code    14  handlers.o(i.__scatterload_zeroinit)
    adc_calibration_enable                   0x0800169b   Thumb Code    42  gd32f30x_adc.o(i.adc_calibration_enable)
    adc_channel_length_config                0x080016c5   Thumb Code    70  gd32f30x_adc.o(i.adc_channel_length_config)
    adc_data_alignment_config                0x0800170b   Thumb Code    22  gd32f30x_adc.o(i.adc_data_alignment_config)
    adc_deinit                               0x08001721   Thumb Code    84  gd32f30x_adc.o(i.adc_deinit)
    adc_enable                               0x08001779   Thumb Code    18  gd32f30x_adc.o(i.adc_enable)
    adc_external_trigger_config              0x0800178b   Thumb Code    62  gd32f30x_adc.o(i.adc_external_trigger_config)
    adc_external_trigger_source_config       0x080017c9   Thumb Code    48  gd32f30x_adc.o(i.adc_external_trigger_source_config)
    adc_flag_get                             0x080017f9   Thumb Code    14  gd32f30x_adc.o(i.adc_flag_get)
    adc_mode_config                          0x08001809   Thumb Code    22  gd32f30x_adc.o(i.adc_mode_config)
    adc_regular_channel_config               0x08001825   Thumb Code   172  gd32f30x_adc.o(i.adc_regular_channel_config)
    adc_regular_data_read                    0x080018d1   Thumb Code     8  gd32f30x_adc.o(i.adc_regular_data_read)
    adc_software_trigger_enable              0x080018d9   Thumb Code    30  gd32f30x_adc.o(i.adc_software_trigger_enable)
    adc_special_function_config              0x080018f7   Thumb Code    90  gd32f30x_adc.o(i.adc_special_function_config)
    dac_data_set                             0x08001951   Thumb Code    82  gd32f30x_dac.o(i.dac_data_set)
    dac_deinit                               0x080019a9   Thumb Code    20  gd32f30x_dac.o(i.dac_deinit)
    dac_dma_disable                          0x080019bd   Thumb Code    30  gd32f30x_dac.o(i.dac_dma_disable)
    dac_enable                               0x080019e1   Thumb Code    30  gd32f30x_dac.o(i.dac_enable)
    dac_output_buffer_disable                0x08001a05   Thumb Code    30  gd32f30x_dac.o(i.dac_output_buffer_disable)
    dac_trigger_disable                      0x08001a29   Thumb Code    30  gd32f30x_dac.o(i.dac_trigger_disable)
    dac_wave_mode_config                     0x08001a4d   Thumb Code    48  gd32f30x_dac.o(i.dac_wave_mode_config)
    delay_init                               0x08001a81   Thumb Code    74  delay.o(i.delay_init)
    delay_ms                                 0x08001ad9   Thumb Code    50  delay.o(i.delay_ms)
    delay_us                                 0x08001b11   Thumb Code    72  delay.o(i.delay_us)
    fputc                                    0x08001b5d   Thumb Code    36  usb2com_drv.o(i.fputc)
    gpio_bit_reset                           0x08001b85   Thumb Code     4  gd32f30x_gpio.o(i.gpio_bit_reset)
    gpio_bit_set                             0x08001b89   Thumb Code     4  gd32f30x_gpio.o(i.gpio_bit_set)
    gpio_init                                0x08001b8d   Thumb Code   188  gd32f30x_gpio.o(i.gpio_init)
    main                                     0x08001c49   Thumb Code    16  main.o(i.main)
    nvic_irq_enable                          0x08001c59   Thumb Code   186  gd32f30x_misc.o(i.nvic_irq_enable)
    nvic_priority_group_set                  0x08001d1d   Thumb Code    10  gd32f30x_misc.o(i.nvic_priority_group_set)
    rcu_adc_clock_config                     0x08001d31   Thumb Code    98  gd32f30x_rcu.o(i.rcu_adc_clock_config)
    rcu_clock_freq_get                       0x08001d9d   Thumb Code   310  gd32f30x_rcu.o(i.rcu_clock_freq_get)
    rcu_periph_clock_enable                  0x08001ef5   Thumb Code    28  gd32f30x_rcu.o(i.rcu_periph_clock_enable)
    rcu_periph_reset_disable                 0x08001f15   Thumb Code    28  gd32f30x_rcu.o(i.rcu_periph_reset_disable)
    rcu_periph_reset_enable                  0x08001f35   Thumb Code    28  gd32f30x_rcu.o(i.rcu_periph_reset_enable)
    regUsb2Comcb                             0x08001f55   Thumb Code     8  usb2com_drv.o(i.regUsb2Comcb)
    usart_baudrate_set                       0x0800207d   Thumb Code   136  gd32f30x_usart.o(i.usart_baudrate_set)
    usart_data_receive                       0x0800210d   Thumb Code    10  gd32f30x_usart.o(i.usart_data_receive)
    usart_data_transmit                      0x08002117   Thumb Code     8  gd32f30x_usart.o(i.usart_data_transmit)
    usart_deinit                             0x08002121   Thumb Code   136  gd32f30x_usart.o(i.usart_deinit)
    usart_enable                             0x080021b1   Thumb Code    10  gd32f30x_usart.o(i.usart_enable)
    usart_flag_clear                         0x080021bb   Thumb Code    18  gd32f30x_usart.o(i.usart_flag_clear)
    usart_flag_get                           0x080021cd   Thumb Code    30  gd32f30x_usart.o(i.usart_flag_get)
    usart_interrupt_enable                   0x080021eb   Thumb Code    26  gd32f30x_usart.o(i.usart_interrupt_enable)
    usart_interrupt_flag_clear               0x08002205   Thumb Code    18  gd32f30x_usart.o(i.usart_interrupt_flag_clear)
    usart_interrupt_flag_get                 0x08002217   Thumb Code    56  gd32f30x_usart.o(i.usart_interrupt_flag_get)
    usart_parity_config                      0x0800224f   Thumb Code    16  gd32f30x_usart.o(i.usart_parity_config)
    usart_receive_config                     0x0800225f   Thumb Code    20  gd32f30x_usart.o(i.usart_receive_config)
    usart_stop_bit_set                       0x08002273   Thumb Code    16  gd32f30x_usart.o(i.usart_stop_bit_set)
    usart_transmit_config                    0x08002283   Thumb Code    20  gd32f30x_usart.o(i.usart_transmit_config)
    usart_word_length_set                    0x08002297   Thumb Code    16  gd32f30x_usart.o(i.usart_word_length_set)
    Region$$Table$$Base                      0x080022c0   Number         0  anon$$obj.o(Region$$Table)
    Region$$Table$$Limit                     0x080022e0   Number         0  anon$$obj.o(Region$$Table)
    g_gpioList                               0x20000004   Data          24  led_drv.o(.data)
    g_Usb2comUart0                           0x2000001c   Data          24  usb2com_drv.o(.data)
    uartProcessUartData                      0x20000034   Data           4  usb2com_drv.o(.data)
    __stdout                                 0x20000038   Data           4  stdout.o(.data)
    __initial_sp                             0x20000450   Data           0  startup_gd32f30x_hd.o(STACK)



==============================================================================

Memory Map of the image

  Image Entry point : 0x08000131

  Load Region LR_IROM1 (Base: 0x08000000, Size: 0x0000231c, Max: 0x00040000, ABSOLUTE)

    Execution Region ER_IROM1 (Exec base: 0x08000000, Load base: 0x08000000, Size: 0x000022e0, Max: 0x00040000, ABSOLUTE)

    Exec Addr    Load Addr    Size         Type   Attr      Idx    E Section Name        Object

    0x08000000   0x08000000   0x00000130   Data   RO          418    RESET               startup_gd32f30x_hd.o
    0x08000130   0x08000130   0x00000000   Code   RO         1788  * .ARM.Collect$$$$00000000  mc_w.l(entry.o)
    0x08000130   0x08000130   0x00000004   Code   RO         2064    .ARM.Collect$$$$00000001  mc_w.l(entry2.o)
    0x08000134   0x08000134   0x00000004   Code   RO         2067    .ARM.Collect$$$$00000004  mc_w.l(entry5.o)
    0x08000138   0x08000138   0x00000000   Code   RO         2069    .ARM.Collect$$$$00000008  mc_w.l(entry7b.o)
    0x08000138   0x08000138   0x00000000   Code   RO         2071    .ARM.Collect$$$$0000000A  mc_w.l(entry8b.o)
    0x08000138   0x08000138   0x00000008   Code   RO         2072    .ARM.Collect$$$$0000000B  mc_w.l(entry9a.o)
    0x08000140   0x08000140   0x00000000   Code   RO         2074    .ARM.Collect$$$$0000000D  mc_w.l(entry10a.o)
    0x08000140   0x08000140   0x00000000   Code   RO         2076    .ARM.Collect$$$$0000000F  mc_w.l(entry11a.o)
    0x08000140   0x08000140   0x00000004   Code   RO         2065    .ARM.Collect$$$$00002712  mc_w.l(entry2.o)
    0x08000144   0x08000144   0x00000024   Code   RO          419    .text               startup_gd32f30x_hd.o
    0x08000168   0x08000168   0x000000e4   Code   RO         2052    .text               mf_w.l(dmul.o)
    0x0800024c   0x0800024c   0x000000de   Code   RO         2054    .text               mf_w.l(ddiv.o)
    0x0800032a   0x0800032a   0x0000001a   Code   RO         2056    .text               mf_w.l(dfltui.o)
    0x08000344   0x08000344   0x00000032   Code   RO         2058    .text               mf_w.l(dfixui.o)
    0x08000376   0x08000376   0x00000026   Code   RO         2060    .text               mf_w.l(f2d.o)
    0x0800039c   0x0800039c   0x00000030   Code   RO         2062    .text               mf_w.l(cdrcmple.o)
    0x080003cc   0x080003cc   0x0000002c   Code   RO         2079    .text               mc_w.l(uidiv.o)
    0x080003f8   0x080003f8   0x00000062   Code   RO         2081    .text               mc_w.l(uldiv.o)
    0x0800045a   0x0800045a   0x00000020   Code   RO         2083    .text               mc_w.l(llushr.o)
    0x0800047a   0x0800047a   0x00000000   Code   RO         2085    .text               mc_w.l(iusefp.o)
    0x0800047a   0x0800047a   0x000000ba   Code   RO         2086    .text               mf_w.l(depilogue.o)
    0x08000534   0x08000534   0x0000014e   Code   RO         2088    .text               mf_w.l(dadd.o)
    0x08000682   0x08000682   0x00000030   Code   RO         2090    .text               mf_w.l(dfixul.o)
    0x080006b2   0x080006b2   0x00000002   PAD
    0x080006b4   0x080006b4   0x00000024   Code   RO         2092    .text               mc_w.l(init.o)
    0x080006d8   0x080006d8   0x0000001e   Code   RO         2094    .text               mc_w.l(llshl.o)
    0x080006f6   0x080006f6   0x00000024   Code   RO         2096    .text               mc_w.l(llsshr.o)
    0x0800071a   0x0800071a   0x00000002   PAD
    0x0800071c   0x0800071c   0x0000006c   Code   RO          225    i.AdcConfigInit     adc_drv.o
    0x08000788   0x08000788   0x0000000c   Code   RO          226    i.AdcDrvInit        adc_drv.o
    0x08000794   0x08000794   0x00000078   Code   RO          227    i.AdcDrvTest        adc_drv.o
    0x0800080c   0x0800080c   0x0000001c   Code   RO          228    i.AdcGpioInit       adc_drv.o
    0x08000828   0x08000828   0x00000008   Code   RO           59    i.AllAppInit        main.o
    0x08000830   0x08000830   0x0000001e   Code   RO           60    i.AllDrvInit        main.o
    0x0800084e   0x0800084e   0x00000078   Code   RO            1    i.CtlDac            usb2com_app.o
    0x080008c6   0x080008c6   0x00000018   Code   RO            2    i.CtlLed            usb2com_app.o
    0x080008de   0x080008de   0x00000040   Code   RO          375    i.DacConfgInit      dac_drv.o
    0x0800091e   0x0800091e   0x0000000c   Code   RO          376    i.DacDrvInit        dac_drv.o
    0x0800092a   0x0800092a   0x00000002   PAD
    0x0800092c   0x0800092c   0x0000001c   Code   RO          377    i.DacGpioInit       dac_drv.o
    0x08000948   0x08000948   0x000000f4   Code   RO          378    i.Dac_Set_Vol       dac_drv.o
    0x08000a3c   0x08000a3c   0x00000028   Code   RO          229    i.Get_Adc_Average   adc_drv.o
    0x08000a64   0x08000a64   0x00000038   Code   RO          230    i.Get_Adc_Value     adc_drv.o
    0x08000a9c   0x08000a9c   0x0000005c   Code   RO          283    i.LedDrvInit        led_drv.o
    0x08000af8   0x08000af8   0x00000064   Code   RO            3    i.ProcessUartData   usb2com_app.o
    0x08000b5c   0x08000b5c   0x000000a8   Code   RO          426    i.SystemInit        system_gd32f30x.o
    0x08000c04   0x08000c04   0x0000002c   Code   RO          285    i.TurnOffLed        led_drv.o
    0x08000c30   0x08000c30   0x0000002c   Code   RO          286    i.TurnOnLed         led_drv.o
    0x08000c5c   0x08000c5c   0x00000044   Code   RO          324    i.USART0_IRQHandler  usb2com_drv.o
    0x08000ca0   0x08000ca0   0x00000010   Code   RO            4    i.Usb2ComAppInit    usb2com_app.o
    0x08000cb0   0x08000cb0   0x000000a8   Code   RO          325    i.Usb2ComDrvInit    usb2com_drv.o
    0x08000d58   0x08000d58   0x00000050   Code   RO            5    i.Usb2ComTask       usb2com_app.o
    0x08000da8   0x08000da8   0x00000020   Code   RO         2024    i.__0printf         mc_w.l(printfa.o)
    0x08000dc8   0x08000dc8   0x0000000e   Code   RO         2100    i.__scatterload_copy  mc_w.l(handlers.o)
    0x08000dd6   0x08000dd6   0x00000002   Code   RO         2101    i.__scatterload_null  mc_w.l(handlers.o)
    0x08000dd8   0x08000dd8   0x0000000e   Code   RO         2102    i.__scatterload_zeroinit  mc_w.l(handlers.o)
    0x08000de6   0x08000de6   0x00000002   PAD
    0x08000de8   0x08000de8   0x00000184   Code   RO         2031    i._fp_digits        mc_w.l(printfa.o)
    0x08000f6c   0x08000f6c   0x000006dc   Code   RO         2032    i._printf_core      mc_w.l(printfa.o)
    0x08001648   0x08001648   0x00000024   Code   RO         2033    i._printf_post_padding  mc_w.l(printfa.o)
    0x0800166c   0x0800166c   0x0000002e   Code   RO         2034    i._printf_pre_padding  mc_w.l(printfa.o)
    0x0800169a   0x0800169a   0x0000002a   Code   RO         1415    i.adc_calibration_enable  gd32f30x_adc.o
    0x080016c4   0x080016c4   0x00000046   Code   RO         1416    i.adc_channel_length_config  gd32f30x_adc.o
    0x0800170a   0x0800170a   0x00000016   Code   RO         1417    i.adc_data_alignment_config  gd32f30x_adc.o
    0x08001720   0x08001720   0x00000058   Code   RO         1418    i.adc_deinit        gd32f30x_adc.o
    0x08001778   0x08001778   0x00000012   Code   RO         1423    i.adc_enable        gd32f30x_adc.o
    0x0800178a   0x0800178a   0x0000003e   Code   RO         1424    i.adc_external_trigger_config  gd32f30x_adc.o
    0x080017c8   0x080017c8   0x00000030   Code   RO         1425    i.adc_external_trigger_source_config  gd32f30x_adc.o
    0x080017f8   0x080017f8   0x0000000e   Code   RO         1427    i.adc_flag_get      gd32f30x_adc.o
    0x08001806   0x08001806   0x00000002   PAD
    0x08001808   0x08001808   0x0000001c   Code   RO         1435    i.adc_mode_config   gd32f30x_adc.o
    0x08001824   0x08001824   0x000000ac   Code   RO         1439    i.adc_regular_channel_config  gd32f30x_adc.o
    0x080018d0   0x080018d0   0x00000008   Code   RO         1440    i.adc_regular_data_read  gd32f30x_adc.o
    0x080018d8   0x080018d8   0x0000001e   Code   RO         1442    i.adc_software_trigger_enable  gd32f30x_adc.o
    0x080018f6   0x080018f6   0x0000005a   Code   RO         1443    i.adc_special_function_config  gd32f30x_adc.o
    0x08001950   0x08001950   0x00000058   Code   RO         1258    i.dac_data_set      gd32f30x_dac.o
    0x080019a8   0x080019a8   0x00000014   Code   RO         1259    i.dac_deinit        gd32f30x_dac.o
    0x080019bc   0x080019bc   0x00000024   Code   RO         1261    i.dac_dma_disable   gd32f30x_dac.o
    0x080019e0   0x080019e0   0x00000024   Code   RO         1263    i.dac_enable        gd32f30x_dac.o
    0x08001a04   0x08001a04   0x00000024   Code   RO         1265    i.dac_output_buffer_disable  gd32f30x_dac.o
    0x08001a28   0x08001a28   0x00000024   Code   RO         1271    i.dac_trigger_disable  gd32f30x_dac.o
    0x08001a4c   0x08001a4c   0x00000034   Code   RO         1275    i.dac_wave_mode_config  gd32f30x_dac.o
    0x08001a80   0x08001a80   0x00000058   Code   RO           92    i.delay_init        delay.o
    0x08001ad8   0x08001ad8   0x00000038   Code   RO           93    i.delay_ms          delay.o
    0x08001b10   0x08001b10   0x0000004c   Code   RO           94    i.delay_us          delay.o
    0x08001b5c   0x08001b5c   0x00000028   Code   RO          327    i.fputc             usb2com_drv.o
    0x08001b84   0x08001b84   0x00000004   Code   RO          801    i.gpio_bit_reset    gd32f30x_gpio.o
    0x08001b88   0x08001b88   0x00000004   Code   RO          802    i.gpio_bit_set      gd32f30x_gpio.o
    0x08001b8c   0x08001b8c   0x000000bc   Code   RO          811    i.gpio_init         gd32f30x_gpio.o
    0x08001c48   0x08001c48   0x00000010   Code   RO           61    i.main              main.o
    0x08001c58   0x08001c58   0x000000c4   Code   RO         1735    i.nvic_irq_enable   gd32f30x_misc.o
    0x08001d1c   0x08001d1c   0x00000014   Code   RO         1736    i.nvic_priority_group_set  gd32f30x_misc.o
    0x08001d30   0x08001d30   0x0000006c   Code   RO          480    i.rcu_adc_clock_config  gd32f30x_rcu.o
    0x08001d9c   0x08001d9c   0x00000158   Code   RO          489    i.rcu_clock_freq_get  gd32f30x_rcu.o
    0x08001ef4   0x08001ef4   0x00000020   Code   RO          507    i.rcu_periph_clock_enable  gd32f30x_rcu.o
    0x08001f14   0x08001f14   0x00000020   Code   RO          510    i.rcu_periph_reset_disable  gd32f30x_rcu.o
    0x08001f34   0x08001f34   0x00000020   Code   RO          511    i.rcu_periph_reset_enable  gd32f30x_rcu.o
    0x08001f54   0x08001f54   0x0000000c   Code   RO          328    i.regUsb2Comcb      usb2com_drv.o
    0x08001f60   0x08001f60   0x00000114   Code   RO          427    i.system_clock_120m_hxtal  system_gd32f30x.o
    0x08002074   0x08002074   0x00000008   Code   RO          428    i.system_clock_config  system_gd32f30x.o
    0x0800207c   0x0800207c   0x00000090   Code   RO          935    i.usart_baudrate_set  gd32f30x_usart.o
    0x0800210c   0x0800210c   0x0000000a   Code   RO          938    i.usart_data_receive  gd32f30x_usart.o
    0x08002116   0x08002116   0x00000008   Code   RO          939    i.usart_data_transmit  gd32f30x_usart.o
    0x0800211e   0x0800211e   0x00000002   PAD
    0x08002120   0x08002120   0x00000090   Code   RO          940    i.usart_deinit      gd32f30x_usart.o
    0x080021b0   0x080021b0   0x0000000a   Code   RO          944    i.usart_enable      gd32f30x_usart.o
    0x080021ba   0x080021ba   0x00000012   Code   RO          945    i.usart_flag_clear  gd32f30x_usart.o
    0x080021cc   0x080021cc   0x0000001e   Code   RO          946    i.usart_flag_get    gd32f30x_usart.o
    0x080021ea   0x080021ea   0x0000001a   Code   RO          953    i.usart_interrupt_enable  gd32f30x_usart.o
    0x08002204   0x08002204   0x00000012   Code   RO          954    i.usart_interrupt_flag_clear  gd32f30x_usart.o
    0x08002216   0x08002216   0x00000038   Code   RO          955    i.usart_interrupt_flag_get  gd32f30x_usart.o
    0x0800224e   0x0800224e   0x00000010   Code   RO          966    i.usart_parity_config  gd32f30x_usart.o
    0x0800225e   0x0800225e   0x00000014   Code   RO          968    i.usart_receive_config  gd32f30x_usart.o
    0x08002272   0x08002272   0x00000010   Code   RO          978    i.usart_stop_bit_set  gd32f30x_usart.o
    0x08002282   0x08002282   0x00000014   Code   RO          982    i.usart_transmit_config  gd32f30x_usart.o
    0x08002296   0x08002296   0x00000010   Code   RO          983    i.usart_word_length_set  gd32f30x_usart.o
    0x080022a6   0x080022a6   0x00000018   Code   RO            6    i.xorSum            usb2com_app.o
    0x080022be   0x080022be   0x00000002   PAD
    0x080022c0   0x080022c0   0x00000020   Data   RO         2098    Region$$Table       anon$$obj.o


    Execution Region RW_IRAM1 (Exec base: 0x20000000, Load base: 0x080022e0, Size: 0x00000450, Max: 0x0000c000, ABSOLUTE)

    Exec Addr    Load Addr    Size         Type   Attr      Idx    E Section Name        Object

    0x20000000   0x080022e0   0x00000002   Data   RW            8    .data               usb2com_app.o
    0x20000002   0x080022e2   0x00000002   Data   RW           95    .data               delay.o
    0x20000004   0x080022e4   0x00000018   Data   RW          287    .data               led_drv.o
    0x2000001c   0x080022fc   0x0000001c   Data   RW          329    .data               usb2com_drv.o
    0x20000038   0x08002318   0x00000004   Data   RW         2078    .data               mc_w.l(stdout.o)
    0x2000003c        -       0x00000014   Zero   RW            7    .bss                usb2com_app.o
    0x20000050        -       0x00000400   Zero   RW          416    STACK               startup_gd32f30x_hd.o


==============================================================================

Image component sizes


      Code (inc. data)   RO Data    RW Data    ZI Data      Debug   Object Name

       364         50          0          0          0       3256   adc_drv.o
       348         68          0          0          0       2047   dac_drv.o
       220         24          0          2          0      49590   delay.o
       692         10          0          0          0       8316   gd32f30x_adc.o
       304         34          0          0          0       3928   gd32f30x_dac.o
       196          0          0          0          0       2000   gd32f30x_gpio.o
       216         20          0          0          0       1400   gd32f30x_misc.o
       548         68          0          0          0      20527   gd32f30x_rcu.o
       552         16          0          0          0      15837   gd32f30x_usart.o
       180         14          0         24          0       2407   led_drv.o
        54          0          0          0          0       1343   main.o
        36          8        304          0       1024        816   startup_gd32f30x_hd.o
       452         30          0          0          0       2437   system_gd32f30x.o
       364         28          0          2         20       8707   usb2com_app.o
       288         26          0         28          0       4497   usb2com_drv.o

    ----------------------------------------------------------------------
      4822        396        336         56       1044     127108   Object Totals
         0          0         32          0          0          0   (incl. Generated)
         8          0          0          0          0          0   (incl. Padding)

    ----------------------------------------------------------------------

      Code (inc. data)   RO Data    RW Data    ZI Data      Debug   Library Member Name

         0          0          0          0          0          0   entry.o
         0          0          0          0          0          0   entry10a.o
         0          0          0          0          0          0   entry11a.o
         8          4          0          0          0          0   entry2.o
         4          0          0          0          0          0   entry5.o
         0          0          0          0          0          0   entry7b.o
         0          0          0          0          0          0   entry8b.o
         8          4          0          0          0          0   entry9a.o
        30          0          0          0          0          0   handlers.o
        36          8          0          0          0         68   init.o
         0          0          0          0          0          0   iusefp.o
        30          0          0          0          0         68   llshl.o
        36          0          0          0          0         68   llsshr.o
        32          0          0          0          0         68   llushr.o
      2258         90          0          0          0        452   printfa.o
         0          0          0          4          0          0   stdout.o
        44          0          0          0          0         80   uidiv.o
        98          0          0          0          0         92   uldiv.o
        48          0          0          0          0         68   cdrcmple.o
       334          0          0          0          0        148   dadd.o
       222          0          0          0          0        100   ddiv.o
       186          0          0          0          0        176   depilogue.o
        50          0          0          0          0         76   dfixui.o
        48          0          0          0          0         68   dfixul.o
        26          0          0          0          0         76   dfltui.o
       228          0          0          0          0         96   dmul.o
        38          0          0          0          0         68   f2d.o

    ----------------------------------------------------------------------
      3770        106          0          4          0       1772   Library Totals
         6          0          0          0          0          0   (incl. Padding)

    ----------------------------------------------------------------------

      Code (inc. data)   RO Data    RW Data    ZI Data      Debug   Library Name

      2584        106          0          4          0        896   mc_w.l
      1180          0          0          0          0        876   mf_w.l

    ----------------------------------------------------------------------
      3770        106          0          4          0       1772   Library Totals

    ----------------------------------------------------------------------

==============================================================================


      Code (inc. data)   RO Data    RW Data    ZI Data      Debug   

      8592        502        336         60       1044     120900   Grand Totals
      8592        502        336         60       1044     120900   ELF Image Totals
      8592        502        336         60          0          0   ROM Totals

==============================================================================

    Total RO  Size (Code + RO Data)                 8928 (   8.72kB)
    Total RW  Size (RW Data + ZI Data)              1104 (   1.08kB)
    Total ROM Size (Code + RO Data + RW Data)       8988 (   8.78kB)

==============================================================================

