Component: ARM Compiler 5.06 update 6 (build 750) Tool: armlink [4d35ed]

==============================================================================

Section Cross References

    main.o(i.AllAppInit) refers to usb2com_app.o(i.Usb2ComAppInit) for Usb2ComAppInit
    main.o(i.AllDrvInit) refers to usb2com_drv_1.o(i.Usb2ComDrvInit) for Usb2ComDrvInit
    main.o(i.AllDrvInit) refers to delay.o(i.DelayInit) for DelayInit
    main.o(i.AllDrvInit) refers to led_drv.o(i.LedDrvInit) for LedDrvInit
    main.o(i.AllDrvInit) refers to adc_drv.o(i.AdcDrvInit) for AdcDrvInit
    main.o(i.main) refers to main.o(i.AllDrvInit) for AllDrvInit
    main.o(i.main) refers to main.o(i.AllAppInit) for AllAppInit
    main.o(i.main) refers to usb2com_drv_1.o(i.send_data_packet) for send_data_packet
    main.o(i.main) refers to gd32f30x_gpio.o(i.gpio_input_bit_get) for gpio_input_bit_get
    main.o(i.main) refers to led_drv.o(i.ToggleLed) for ToggleLed
    main.o(i.main) refers to usb2com_app.o(i.Usb2ComTask) for Usb2ComTask
    usb2com_app.o(i.ProcessUartData) refers to usb2com_app.o(.data) for index
    usb2com_app.o(i.ProcessUartData) refers to usb2com_app.o(.bss) for g_RxPackageData
    usb2com_app.o(i.Usb2ComAppInit) refers to usb2com_drv_1.o(i.regUsb2Comcb) for regUsb2Comcb
    usb2com_app.o(i.Usb2ComAppInit) refers to usb2com_app.o(i.ProcessUartData) for ProcessUartData
    usb2com_app.o(i.Usb2ComTask) refers to usb2com_app.o(i.xorSum) for xorSum
    usb2com_app.o(i.Usb2ComTask) refers to led_drv.o(i.TurnOnLed) for TurnOnLed
    usb2com_app.o(i.Usb2ComTask) refers to usb2com_app.o(.data) for g_pktRecv
==============================================================================

Removing Unused input sections from the image.

    Removing main.o(.rev16_text), (4 bytes).
    Removing main.o(.revsh_text), (4 bytes).
    Removing led_drv.o(.rev16_text), (4 bytes).
    Removing led_drv.o(.revsh_text), (4 bytes).
    Removing led_drv.o(i.TurnOffLed), (44 bytes).
    Removing delay.o(.rev16_text), (4 bytes).
    Removing delay.o(.revsh_text), (4 bytes).
    Removing delay.o(i.delay_ms), (24 bytes).
    Removing delay.o(i.delay_us), (44 bytes).
    Removing systick.o(.rev16_text), (4 bytes).
    Removing systick.o(.revsh_text), (4 bytes).
    Removing systick.o(i.GetSysRunTime), (12 bytes).
    Removing systick.o(i.NVIC_SetPriority), (40 bytes).
    Removing systick.o(i.SystickInit), (76 bytes).
    Removing systick.o(i.TaskScheduleCbReg), (12 bytes).
    Removing timer_drv.o(.rev16_text), (4 bytes).
    Removing timer_drv.o(.revsh_text), (4 bytes).
    Removing timer_drv.o(i.PwmDrvTest), (76 bytes).
==============================================================================

Image Symbol Table

    Local Symbols

    Symbol Name                              Value     Ov Type        Size  Object(Section)

    ../clib/microlib/division.c              0x00000000   Number         0  uldiv.o ABSOLUTE
    ../clib/microlib/division.c              0x00000000   Number         0  uidiv.o ABSOLUTE
    ../clib/microlib/init/entry.s            0x00000000   Number         0  entry9b.o ABSOLUTE
    ../clib/microlib/init/entry.s            0x00000000   Number         0  entry8b.o ABSOLUTE
    ../clib/microlib/init/entry.s            0x00000000   Number         0  entry8a.o ABSOLUTE
    ../clib/microlib/init/entry.s            0x00000000   Number         0  entry7b.o ABSOLUTE
    ../clib/microlib/init/entry.s            0x00000000   Number         0  entry11b.o ABSOLUTE
    ../clib/microlib/init/entry.s            0x00000000   Number         0  entry2.o ABSOLUTE
    ../clib/microlib/init/entry.s            0x00000000   Number         0  entry11a.o ABSOLUTE
    ../clib/microlib/init/entry.s            0x00000000   Number         0  entry7a.o ABSOLUTE
    ../clib/microlib/init/entry.s            0x00000000   Number         0  entry10a.o ABSOLUTE
    ../clib/microlib/init/entry.s            0x00000000   Number         0  entry5.o ABSOLUTE
    ../clib/microlib/init/entry.s            0x00000000   Number         0  entry9a.o ABSOLUTE
    ../clib/microlib/init/entry.s            0x00000000   Number         0  entry.o ABSOLUTE
    ../clib/microlib/init/entry.s            0x00000000   Number         0  entry10b.o ABSOLUTE
    ../clib/microlib/longlong.c              0x00000000   Number         0  llushr.o ABSOLUTE
    ../clib/microlib/longlong.c              0x00000000   Number         0  llshl.o ABSOLUTE
    ../clib/microlib/longlong.c              0x00000000   Number         0  llsshr.o ABSOLUTE
    ../clib/microlib/printf/printf.c         0x00000000   Number         0  printf4.o ABSOLUTE
    ../clib/microlib/printf/printf.c         0x00000000   Number         0  printf6.o ABSOLUTE
    ../clib/microlib/printf/printf.c         0x00000000   Number         0  printf7.o ABSOLUTE
    ../clib/microlib/printf/printf.c         0x00000000   Number         0  printfa.o ABSOLUTE
    ../clib/microlib/printf/printf.c         0x00000000   Number         0  printf5.o ABSOLUTE
    ../clib/microlib/printf/printf.c         0x00000000   Number         0  printf2.o ABSOLUTE
    ../clib/microlib/printf/printf.c         0x00000000   Number         0  printf1.o ABSOLUTE
    ../clib/microlib/printf/printf.c         0x00000000   Number         0  printfb.o ABSOLUTE
    ../clib/microlib/printf/printf.c         0x00000000   Number         0  printf8.o ABSOLUTE
    ../clib/microlib/printf/printf.c         0x00000000   Number         0  printf0.o ABSOLUTE
    ../clib/microlib/printf/printf.c         0x00000000   Number         0  printf3.o ABSOLUTE
    ../clib/microlib/printf/stubs.s          0x00000000   Number         0  stubs.o ABSOLUTE
    ../clib/microlib/stdio/streams.c         0x00000000   Number         0  stdout.o ABSOLUTE
    ../clib/microlib/stubs.s                 0x00000000   Number         0  iusefp.o ABSOLUTE
    ../fplib/microlib/f2d.c                  0x00000000   Number         0  f2d.o ABSOLUTE
    ../fplib/microlib/fpadd.c                0x00000000   Number         0  dadd.o ABSOLUTE
    ../fplib/microlib/fpdiv.c                0x00000000   Number         0  ddiv.o ABSOLUTE
    ../fplib/microlib/fpepilogue.c           0x00000000   Number         0  depilogue.o ABSOLUTE
    ../fplib/microlib/fpfix.c                0x00000000   Number         0  dfixul.o ABSOLUTE
    ../fplib/microlib/fpmul.c                0x00000000   Number         0  dmul.o ABSOLUTE
    App\Usb2Com_app.c                        0x00000000   Number         0  usb2com_app.o ABSOLUTE
    App\\main.c                              0x00000000   Number         0  main.o ABSOLUTE
    App\main.c                               0x00000000   Number         0  main.o ABSOLUTE
    Arm\\system_gd32f30x.c                   0x00000000   Number         0  system_gd32f30x.o ABSOLUTE
    Arm\startup_gd32f30x_hd.s                0x00000000   Number         0  startup_gd32f30x_hd.o ABSOLUTE
    Arm\system_gd32f30x.c                    0x00000000   Number         0  system_gd32f30x.o ABSOLUTE
    Driver\Usb2Com_drv.c                     0x00000000   Number         0  usb2com_drv_1.o ABSOLUTE
    Driver\\Usb2Com_drv.c                    0x00000000   Number         0  usb2com_drv_1.o ABSOLUTE
    Driver\\adc_drv.c                        0x00000000   Number         0  adc_drv.o ABSOLUTE
    Driver\\delay.c                          0x00000000   Number         0  delay.o ABSOLUTE
    Driver\\led_drv.c                        0x00000000   Number         0  led_drv.o ABSOLUTE
    Driver\\systick.c                        0x00000000   Number         0  systick.o ABSOLUTE
    Driver\\timer_drv.c                      0x00000000   Number         0  timer_drv.o ABSOLUTE
    Driver\adc_drv.c                         0x00000000   Number         0  adc_drv.o ABSOLUTE
    Driver\delay.c                           0x00000000   Number         0  delay.o ABSOLUTE
    Driver\led_drv.c                         0x00000000   Number         0  led_drv.o ABSOLUTE
    Driver\systick.c                         0x00000000   Number         0  systick.o ABSOLUTE
    Driver\timer_drv.c                       0x00000000   Number         0  timer_drv.o ABSOLUTE
    GD32_Lib\Source\gd32f30x_adc.c           0x00000000   Number         0  gd32f30x_adc.o ABSOLUTE
    GD32_Lib\Source\gd32f30x_dma.c           0x00000000   Number         0  gd32f30x_dma.o ABSOLUTE
    GD32_Lib\Source\gd32f30x_exti.c          0x00000000   Number         0  gd32f30x_exti.o ABSOLUTE
    GD32_Lib\Source\gd32f30x_gpio.c          0x00000000   Number         0  gd32f30x_gpio.o ABSOLUTE
    GD32_Lib\Source\gd32f30x_misc.c          0x00000000   Number         0  gd32f30x_misc.o ABSOLUTE
    GD32_Lib\Source\gd32f30x_rcu.c           0x00000000   Number         0  gd32f30x_rcu.o ABSOLUTE
    GD32_Lib\Source\gd32f30x_timer.c         0x00000000   Number         0  gd32f30x_timer.o ABSOLUTE
    GD32_Lib\Source\gd32f30x_usart.c         0x00000000   Number         0  gd32f30x_usart.o ABSOLUTE
    GD32_Lib\\Source\\gd32f30x_adc.c         0x00000000   Number         0  gd32f30x_adc.o ABSOLUTE
    GD32_Lib\\Source\\gd32f30x_dma.c         0x00000000   Number         0  gd32f30x_dma.o ABSOLUTE
    GD32_Lib\\Source\\gd32f30x_exti.c        0x00000000   Number         0  gd32f30x_exti.o ABSOLUTE
    GD32_Lib\\Source\\gd32f30x_gpio.c        0x00000000   Number         0  gd32f30x_gpio.o ABSOLUTE
    GD32_Lib\\Source\\gd32f30x_misc.c        0x00000000   Number         0  gd32f30x_misc.o ABSOLUTE
    GD32_Lib\\Source\\gd32f30x_rcu.c         0x00000000   Number         0  gd32f30x_rcu.o ABSOLUTE
    GD32_Lib\\Source\\gd32f30x_timer.c       0x00000000   Number         0  gd32f30x_timer.o ABSOLUTE
    GD32_Lib\\Source\\gd32f30x_usart.c       0x00000000   Number         0  gd32f30x_usart.o ABSOLUTE
    cdrcmple.s                               0x00000000   Number         0  cdrcmple.o ABSOLUTE
    dc.s                                     0x00000000   Number         0  dc.o ABSOLUTE
    handlers.s                               0x00000000   Number         0  handlers.o ABSOLUTE
    init.s                                   0x00000000   Number         0  init.o ABSOLUTE
    RESET                                    0x08000000   Section      304  startup_gd32f30x_hd.o(RESET)
    .ARM.Collect$$$$00000000                 0x08000130   Section        0  entry.o(.ARM.Collect$$$$00000000)
    .ARM.Collect$$$$00000001                 0x08000130   Section        4  entry2.o(.ARM.Collect$$$$00000001)
    .ARM.Collect$$$$00000004                 0x08000134   Section        4  entry5.o(.ARM.Collect$$$$00000004)
    .ARM.Collect$$$$00000008                 0x08000138   Section        0  entry7b.o(.ARM.Collect$$$$00000008)
    .ARM.Collect$$$$0000000A                 0x08000138   Section        0  entry8b.o(.ARM.Collect$$$$0000000A)
    .ARM.Collect$$$$0000000B                 0x08000138   Section        8  entry9a.o(.ARM.Collect$$$$0000000B)
    .ARM.Collect$$$$0000000D                 0x08000140   Section        0  entry10a.o(.ARM.Collect$$$$0000000D)
    .ARM.Collect$$$$0000000F                 0x08000140   Section        0  entry11a.o(.ARM.Collect$$$$0000000F)
    .ARM.Collect$$$$00002712                 0x08000140   Section        4  entry2.o(.ARM.Collect$$$$00002712)
    __lit__00000000                          0x08000140   Data           4  entry2.o(.ARM.Collect$$$$00002712)
    .text                                    0x08000144   Section       36  startup_gd32f30x_hd.o(.text)
    $v0                                      0x08000144   Number         0  startup_gd32f30x_hd.o(.text)
    .text                                    0x08000168   Section       36  init.o(.text)
    i.AdcConfigInit                          0x0800018c   Section        0  adc_drv.o(i.AdcConfigInit)
    AdcConfigInit                            0x0800018d   Thumb Code    94  adc_drv.o(i.AdcConfigInit)
    i.AdcDrvInit                             0x080001f0   Section        0  adc_drv.o(i.AdcDrvInit)
    i.AdcGpioInit                            0x080001fc   Section        0  adc_drv.o(i.AdcGpioInit)
    AdcGpioInit                              0x080001fd   Thumb Code    24  adc_drv.o(i.AdcGpioInit)
    i.AllAppInit                             0x08000218   Section        0  main.o(i.AllAppInit)
    AllAppInit                               0x08000219   Thumb Code     8  main.o(i.AllAppInit)
    i.AllDrvInit                             0x08000220   Section        0  main.o(i.AllDrvInit)
    AllDrvInit                               0x08000221   Thumb Code    24  main.o(i.AllDrvInit)
    i.DelayInit                              0x08000238   Section        0  delay.o(i.DelayInit)
    i.LedDrvInit                             0x08000274   Section        0  led_drv.o(i.LedDrvInit)
    i.ProcessUartData                        0x080002d0   Section        0  usb2com_app.o(i.ProcessUartData)
    ProcessUartData                          0x080002d1   Thumb Code    94  usb2com_app.o(i.ProcessUartData)
    i.SysTick_Handler                        0x0800033c   Section        0  systick.o(i.SysTick_Handler)
    i.SystemInit                             0x08000360   Section        0  system_gd32f30x.o(i.SystemInit)
    i.ToggleLed                              0x08000408   Section        0  led_drv.o(i.ToggleLed)
    i.TurnOnLed                              0x08000458   Section        0  led_drv.o(i.TurnOnLed)
    i.USART1_IRQHandler                      0x08000484   Section        0  usb2com_drv_1.o(i.USART1_IRQHandler)
    i.Usb2ComAppInit                         0x080004c8   Section        0  usb2com_app.o(i.Usb2ComAppInit)
    i.Usb2ComDrvInit                         0x080004d8   Section        0  usb2com_drv_1.o(i.Usb2ComDrvInit)
    i.Usb2ComTask                            0x0800058c   Section        0  usb2com_app.o(i.Usb2ComTask)
    i.__scatterload_copy                     0x080005ec   Section       14  handlers.o(i.__scatterload_copy)
    i.__scatterload_null                     0x080005fa   Section        2  handlers.o(i.__scatterload_null)
    i.__scatterload_zeroinit                 0x080005fc   Section       14  handlers.o(i.__scatterload_zeroinit)
    i.adc_calibration_enable                 0x0800060a   Section        0  gd32f30x_adc.o(i.adc_calibration_enable)
    i.adc_data_alignment_config              0x08000634   Section        0  gd32f30x_adc.o(i.adc_data_alignment_config)
    i.adc_deinit                             0x0800064c   Section        0  gd32f30x_adc.o(i.adc_deinit)
    i.adc_enable                             0x080006a4   Section        0  gd32f30x_adc.o(i.adc_enable)
    i.adc_external_trigger_config            0x080006b6   Section        0  gd32f30x_adc.o(i.adc_external_trigger_config)
    i.adc_external_trigger_source_config     0x080006f4   Section        0  gd32f30x_adc.o(i.adc_external_trigger_source_config)
    i.adc_mode_config                        0x08000724   Section        0  gd32f30x_adc.o(i.adc_mode_config)
    i.adc_special_function_config            0x08000740   Section        0  gd32f30x_adc.o(i.adc_special_function_config)
    i.gpio_bit_reset                         0x0800079a   Section        0  gd32f30x_gpio.o(i.gpio_bit_reset)
    i.gpio_bit_set                           0x0800079e   Section        0  gd32f30x_gpio.o(i.gpio_bit_set)
    i.gpio_bit_write                         0x080007a2   Section        0  gd32f30x_gpio.o(i.gpio_bit_write)
    i.gpio_init                              0x080007ac   Section        0  gd32f30x_gpio.o(i.gpio_init)
    i.gpio_input_bit_get                     0x08000868   Section        0  gd32f30x_gpio.o(i.gpio_input_bit_get)
    i.main                                   0x08000878   Section        0  main.o(i.main)
    i.nvic_irq_enable                        0x080008dc   Section        0  gd32f30x_misc.o(i.nvic_irq_enable)
    i.nvic_priority_group_set                0x080009a0   Section        0  gd32f30x_misc.o(i.nvic_priority_group_set)
    i.rcu_adc_clock_config                   0x080009b4   Section        0  gd32f30x_rcu.o(i.rcu_adc_clock_config)
    i.rcu_clock_freq_get                     0x08000a20   Section        0  gd32f30x_rcu.o(i.rcu_clock_freq_get)
    i.rcu_periph_clock_enable                0x08000b78   Section        0  gd32f30x_rcu.o(i.rcu_periph_clock_enable)
    i.rcu_periph_reset_disable               0x08000b98   Section        0  gd32f30x_rcu.o(i.rcu_periph_reset_disable)
    i.rcu_periph_reset_enable                0x08000bb8   Section        0  gd32f30x_rcu.o(i.rcu_periph_reset_enable)
    i.regUsb2Comcb                           0x08000bd8   Section        0  usb2com_drv_1.o(i.regUsb2Comcb)
    i.send_data_packet                       0x08000be4   Section        0  usb2com_drv_1.o(i.send_data_packet)
    i.system_clock_120m_hxtal                0x08000c18   Section        0  system_gd32f30x.o(i.system_clock_120m_hxtal)
    system_clock_120m_hxtal                  0x08000c19   Thumb Code   258  system_gd32f30x.o(i.system_clock_120m_hxtal)
    i.system_clock_config                    0x08000d2c   Section        0  system_gd32f30x.o(i.system_clock_config)
    system_clock_config                      0x08000d2d   Thumb Code     8  system_gd32f30x.o(i.system_clock_config)
    i.usart_baudrate_set                     0x08000d34   Section        0  gd32f30x_usart.o(i.usart_baudrate_set)
    i.usart_data_receive                     0x08000dc4   Section        0  gd32f30x_usart.o(i.usart_data_receive)
    i.usart_data_transmit                    0x08000dce   Section        0  gd32f30x_usart.o(i.usart_data_transmit)
    i.usart_deinit                           0x08000dd8   Section        0  gd32f30x_usart.o(i.usart_deinit)
    i.usart_enable                           0x08000e68   Section        0  gd32f30x_usart.o(i.usart_enable)
    i.usart_flag_clear                       0x08000e72   Section        0  gd32f30x_usart.o(i.usart_flag_clear)
    i.usart_flag_get                         0x08000e84   Section        0  gd32f30x_usart.o(i.usart_flag_get)
    i.usart_interrupt_enable                 0x08000ea2   Section        0  gd32f30x_usart.o(i.usart_interrupt_enable)
    i.usart_interrupt_flag_clear             0x08000ebc   Section        0  gd32f30x_usart.o(i.usart_interrupt_flag_clear)
    i.usart_interrupt_flag_get               0x08000ece   Section        0  gd32f30x_usart.o(i.usart_interrupt_flag_get)
    i.usart_parity_config                    0x08000f06   Section        0  gd32f30x_usart.o(i.usart_parity_config)
    i.usart_receive_config                   0x08000f16   Section        0  gd32f30x_usart.o(i.usart_receive_config)
    i.usart_stop_bit_set                     0x08000f2a   Section        0  gd32f30x_usart.o(i.usart_stop_bit_set)
    i.usart_transmit_config                  0x08000f3a   Section        0  gd32f30x_usart.o(i.usart_transmit_config)
    i.usart_word_length_set                  0x08000f4e   Section        0  gd32f30x_usart.o(i.usart_word_length_set)
    i.xorSum                                 0x08000f5e   Section        0  usb2com_app.o(i.xorSum)
    xorSum                                   0x08000f5f   Thumb Code    24  usb2com_app.o(i.xorSum)
    .data                                    0x20000000   Section        2  usb2com_app.o(.data)
    g_pktRecv                                0x20000000   Data           1  usb2com_app.o(.data)
    index                                    0x20000001   Data           1  usb2com_app.o(.data)
    .data                                    0x20000004   Section       24  led_drv.o(.data)
    .data                                    0x20000020   Section       14  systick.o(.data)
    g_sysRunTime                             0x20000020   Data           8  systick.o(.data)
    g_pTaskScheduleFunc                      0x20000028   Data           4  systick.o(.data)
    g_FeedWgtCnt                             0x2000002c   Data           2  systick.o(.data)
    .data                                    0x20000030   Section       28  usb2com_drv_1.o(.data)
    .bss                                     0x2000004c   Section       20  usb2com_app.o(.bss)
    g_RxPackageData                          0x2000004c   Data          20  usb2com_app.o(.bss)
    STACK                                    0x20000060   Section     2048  startup_gd32f30x_hd.o(STACK)

    Global Symbols

    Symbol Name                              Value     Ov Type        Size  Object(Section)

    BuildAttributes$$THM_ISAv4$E$P$D$K$B$S$7EM$VFPi3$EXTD16$VFPS$VFMA$PE$A:L22UL41UL21$X:L11$S22US41US21$IEEE1$IW$USESV6$~STKCKD$USESV7$~SHL$OSPACE$ROPI$EBA8$MICROLIB$REQ8$PRES8$EABIv2 0x00000000   Number         0  anon$$obj.o ABSOLUTE
    __ARM_use_no_argv                        0x00000000   Number         0  main.o ABSOLUTE
    _printf_a                                0x00000000   Number         0  stubs.o ABSOLUTE
    _printf_c                                0x00000000   Number         0  stubs.o ABSOLUTE
    _printf_charcount                        0x00000000   Number         0  stubs.o ABSOLUTE
    _printf_d                                0x00000000   Number         0  stubs.o ABSOLUTE
    _printf_e                                0x00000000   Number         0  stubs.o ABSOLUTE
    _printf_f                                0x00000000   Number         0  stubs.o ABSOLUTE
    _printf_flags                            0x00000000   Number         0  stubs.o ABSOLUTE
    _printf_fp_dec                           0x00000000   Number         0  stubs.o ABSOLUTE
    _printf_fp_hex                           0x00000000   Number         0  stubs.o ABSOLUTE
    _printf_g                                0x00000000   Number         0  stubs.o ABSOLUTE
    _printf_i                                0x00000000   Number         0  stubs.o ABSOLUTE
    _printf_int_dec                          0x00000000   Number         0  stubs.o ABSOLUTE
    _printf_l                                0x00000000   Number         0  stubs.o ABSOLUTE
    _printf_lc                               0x00000000   Number         0  stubs.o ABSOLUTE
    _printf_ll                               0x00000000   Number         0  stubs.o ABSOLUTE
    _printf_lld                              0x00000000   Number         0  stubs.o ABSOLUTE
    _printf_lli                              0x00000000   Number         0  stubs.o ABSOLUTE
    _printf_llo                              0x00000000   Number         0  stubs.o ABSOLUTE
    _printf_llu                              0x00000000   Number         0  stubs.o ABSOLUTE
    _printf_llx                              0x00000000   Number         0  stubs.o ABSOLUTE
    _printf_longlong_dec                     0x00000000   Number         0  stubs.o ABSOLUTE
    _printf_longlong_hex                     0x00000000   Number         0  stubs.o ABSOLUTE
    _printf_longlong_oct                     0x00000000   Number         0  stubs.o ABSOLUTE
    _printf_ls                               0x00000000   Number         0  stubs.o ABSOLUTE
    _printf_mbtowc                           0x00000000   Number         0  stubs.o ABSOLUTE
    _printf_n                                0x00000000   Number         0  stubs.o ABSOLUTE
    _printf_o                                0x00000000   Number         0  stubs.o ABSOLUTE
    _printf_p                                0x00000000   Number         0  stubs.o ABSOLUTE
    _printf_percent                          0x00000000   Number         0  stubs.o ABSOLUTE
    _printf_pre_padding                      0x00000000   Number         0  stubs.o ABSOLUTE
    _printf_return_value                     0x00000000   Number         0  stubs.o ABSOLUTE
    _printf_s                                0x00000000   Number         0  stubs.o ABSOLUTE
    _printf_sizespec                         0x00000000   Number         0  stubs.o ABSOLUTE
    _printf_str                              0x00000000   Number         0  stubs.o ABSOLUTE
    _printf_truncate_signed                  0x00000000   Number         0  stubs.o ABSOLUTE
    _printf_truncate_unsigned                0x00000000   Number         0  stubs.o ABSOLUTE
    _printf_u                                0x00000000   Number         0  stubs.o ABSOLUTE
    _printf_wc                               0x00000000   Number         0  stubs.o ABSOLUTE
    _printf_wctomb                           0x00000000   Number         0  stubs.o ABSOLUTE
    _printf_widthprec                        0x00000000   Number         0  stubs.o ABSOLUTE
    _printf_x                                0x00000000   Number         0  stubs.o ABSOLUTE
    __cpp_initialize__aeabi_                  - Undefined Weak Reference
    __cxa_finalize                            - Undefined Weak Reference
    __decompress                              - Undefined Weak Reference
    _clock_init                               - Undefined Weak Reference
    _microlib_exit                            - Undefined Weak Reference
    __Vectors_Size                           0x00000130   Number         0  startup_gd32f30x_hd.o ABSOLUTE
    __Vectors                                0x08000000   Data           4  startup_gd32f30x_hd.o(RESET)
    __Vectors_End                            0x08000130   Data           0  startup_gd32f30x_hd.o(RESET)
    __main                                   0x08000131   Thumb Code     0  entry.o(.ARM.Collect$$$$00000000)
    _main_stk                                0x08000131   Thumb Code     0  entry2.o(.ARM.Collect$$$$00000001)
    _main_scatterload                        0x08000135   Thumb Code     0  entry5.o(.ARM.Collect$$$$00000004)
    __main_after_scatterload                 0x08000139   Thumb Code     0  entry5.o(.ARM.Collect$$$$00000004)
    _main_clock                              0x08000139   Thumb Code     0  entry7b.o(.ARM.Collect$$$$00000008)
    _main_cpp_init                           0x08000139   Thumb Code     0  entry8b.o(.ARM.Collect$$$$0000000A)
    _main_init                               0x08000139   Thumb Code     0  entry9a.o(.ARM.Collect$$$$0000000B)
    __rt_final_cpp                           0x08000141   Thumb Code     0  entry10a.o(.ARM.Collect$$$$0000000D)
    __rt_final_exit                          0x08000141   Thumb Code     0  entry11a.o(.ARM.Collect$$$$0000000F)
    Reset_Handler                            0x08000145   Thumb Code     8  startup_gd32f30x_hd.o(.text)
    NMI_Handler                              0x0800014d   Thumb Code     2  startup_gd32f30x_hd.o(.text)
    HardFault_Handler                        0x0800014f   Thumb Code     2  startup_gd32f30x_hd.o(.text)
    MemManage_Handler                        0x08000151   Thumb Code     2  startup_gd32f30x_hd.o(.text)
    BusFault_Handler                         0x08000153   Thumb Code     2  startup_gd32f30x_hd.o(.text)
    UsageFault_Handler                       0x08000155   Thumb Code     2  startup_gd32f30x_hd.o(.text)
    SVC_Handler                              0x08000157   Thumb Code     2  startup_gd32f30x_hd.o(.text)
    DebugMon_Handler                         0x08000159   Thumb Code     2  startup_gd32f30x_hd.o(.text)
    PendSV_Handler                           0x0800015b   Thumb Code     2  startup_gd32f30x_hd.o(.text)
    ADC0_1_IRQHandler                        0x0800015f   Thumb Code     0  startup_gd32f30x_hd.o(.text)
    ADC2_IRQHandler                          0x0800015f   Thumb Code     0  startup_gd32f30x_hd.o(.text)
    CAN0_EWMC_IRQHandler                     0x0800015f   Thumb Code     0  startup_gd32f30x_hd.o(.text)
    CAN0_RX1_IRQHandler                      0x0800015f   Thumb Code     0  startup_gd32f30x_hd.o(.text)
    DMA0_Channel0_IRQHandler                 0x0800015f   Thumb Code     0  startup_gd32f30x_hd.o(.text)
    DMA0_Channel1_IRQHandler                 0x0800015f   Thumb Code     0  startup_gd32f30x_hd.o(.text)
    DMA0_Channel2_IRQHandler                 0x0800015f   Thumb Code     0  startup_gd32f30x_hd.o(.text)
    DMA0_Channel3_IRQHandler                 0x0800015f   Thumb Code     0  startup_gd32f30x_hd.o(.text)
    DMA0_Channel4_IRQHandler                 0x0800015f   Thumb Code     0  startup_gd32f30x_hd.o(.text)
    DMA0_Channel5_IRQHandler                 0x0800015f   Thumb Code     0  startup_gd32f30x_hd.o(.text)
    DMA0_Channel6_IRQHandler                 0x0800015f   Thumb Code     0  startup_gd32f30x_hd.o(.text)
    DMA1_Channel0_IRQHandler                 0x0800015f   Thumb Code     0  startup_gd32f30x_hd.o(.text)
    DMA1_Channel1_IRQHandler                 0x0800015f   Thumb Code     0  startup_gd32f30x_hd.o(.text)
    DMA1_Channel2_IRQHandler                 0x0800015f   Thumb Code     0  startup_gd32f30x_hd.o(.text)
    DMA1_Channel3_4_IRQHandler               0x0800015f   Thumb Code     0  startup_gd32f30x_hd.o(.text)
    EXMC_IRQHandler                          0x0800015f   Thumb Code     0  startup_gd32f30x_hd.o(.text)
    EXTI0_IRQHandler                         0x0800015f   Thumb Code     0  startup_gd32f30x_hd.o(.text)
    EXTI10_15_IRQHandler                     0x0800015f   Thumb Code     0  startup_gd32f30x_hd.o(.text)
    EXTI1_IRQHandler                         0x0800015f   Thumb Code     0  startup_gd32f30x_hd.o(.text)
    EXTI2_IRQHandler                         0x0800015f   Thumb Code     0  startup_gd32f30x_hd.o(.text)
    EXTI3_IRQHandler                         0x0800015f   Thumb Code     0  startup_gd32f30x_hd.o(.text)
    EXTI4_IRQHandler                         0x0800015f   Thumb Code     0  startup_gd32f30x_hd.o(.text)
    EXTI5_9_IRQHandler                       0x0800015f   Thumb Code     0  startup_gd32f30x_hd.o(.text)
    FMC_IRQHandler                           0x0800015f   Thumb Code     0  startup_gd32f30x_hd.o(.text)
    I2C0_ER_IRQHandler                       0x0800015f   Thumb Code     0  startup_gd32f30x_hd.o(.text)
    I2C0_EV_IRQHandler                       0x0800015f   Thumb Code     0  startup_gd32f30x_hd.o(.text)
    I2C1_ER_IRQHandler                       0x0800015f   Thumb Code     0  startup_gd32f30x_hd.o(.text)
    I2C1_EV_IRQHandler                       0x0800015f   Thumb Code     0  startup_gd32f30x_hd.o(.text)
    LVD_IRQHandler                           0x0800015f   Thumb Code     0  startup_gd32f30x_hd.o(.text)
    RCU_CTC_IRQHandler                       0x0800015f   Thumb Code     0  startup_gd32f30x_hd.o(.text)
    RTC_Alarm_IRQHandler                     0x0800015f   Thumb Code     0  startup_gd32f30x_hd.o(.text)
    RTC_IRQHandler                           0x0800015f   Thumb Code     0  startup_gd32f30x_hd.o(.text)
    SDIO_IRQHandler                          0x0800015f   Thumb Code     0  startup_gd32f30x_hd.o(.text)
    SPI0_IRQHandler                          0x0800015f   Thumb Code     0  startup_gd32f30x_hd.o(.text)
    SPI1_IRQHandler                          0x0800015f   Thumb Code     0  startup_gd32f30x_hd.o(.text)
    SPI2_IRQHandler                          0x0800015f   Thumb Code     0  startup_gd32f30x_hd.o(.text)
    TAMPER_IRQHandler                        0x0800015f   Thumb Code     0  startup_gd32f30x_hd.o(.text)
    TIMER0_BRK_IRQHandler                    0x0800015f   Thumb Code     0  startup_gd32f30x_hd.o(.text)
    TIMER0_Channel_IRQHandler                0x0800015f   Thumb Code     0  startup_gd32f30x_hd.o(.text)
    TIMER0_TRG_CMT_IRQHandler                0x0800015f   Thumb Code     0  startup_gd32f30x_hd.o(.text)
    TIMER0_UP_IRQHandler                     0x0800015f   Thumb Code     0  startup_gd32f30x_hd.o(.text)
    TIMER1_IRQHandler                        0x0800015f   Thumb Code     0  startup_gd32f30x_hd.o(.text)
    TIMER2_IRQHandler                        0x0800015f   Thumb Code     0  startup_gd32f30x_hd.o(.text)
    TIMER3_IRQHandler                        0x0800015f   Thumb Code     0  startup_gd32f30x_hd.o(.text)
    TIMER4_IRQHandler                        0x0800015f   Thumb Code     0  startup_gd32f30x_hd.o(.text)
    TIMER5_IRQHandler                        0x0800015f   Thumb Code     0  startup_gd32f30x_hd.o(.text)
    TIMER6_IRQHandler                        0x0800015f   Thumb Code     0  startup_gd32f30x_hd.o(.text)
    TIMER7_BRK_IRQHandler                    0x0800015f   Thumb Code     0  startup_gd32f30x_hd.o(.text)
    TIMER7_Channel_IRQHandler                0x0800015f   Thumb Code     0  startup_gd32f30x_hd.o(.text)
    TIMER7_TRG_CMT_IRQHandler                0x0800015f   Thumb Code     0  startup_gd32f30x_hd.o(.text)
    TIMER7_UP_IRQHandler                     0x0800015f   Thumb Code     0  startup_gd32f30x_hd.o(.text)
    UART3_IRQHandler                         0x0800015f   Thumb Code     0  startup_gd32f30x_hd.o(.text)
    UART4_IRQHandler                         0x0800015f   Thumb Code     0  startup_gd32f30x_hd.o(.text)
    USART0_IRQHandler                        0x0800015f   Thumb Code     0  startup_gd32f30x_hd.o(.text)
    USART2_IRQHandler                        0x0800015f   Thumb Code     0  startup_gd32f30x_hd.o(.text)
    USBD_HP_CAN0_TX_IRQHandler               0x0800015f   Thumb Code     0  startup_gd32f30x_hd.o(.text)
    USBD_LP_CAN0_RX0_IRQHandler              0x0800015f   Thumb Code     0  startup_gd32f30x_hd.o(.text)
    USBD_WKUP_IRQHandler                     0x0800015f   Thumb Code     0  startup_gd32f30x_hd.o(.text)
    WWDGT_IRQHandler                         0x0800015f   Thumb Code     0  startup_gd32f30x_hd.o(.text)
    __scatterload                            0x08000169   Thumb Code    28  init.o(.text)
    __scatterload_rt2                        0x08000169   Thumb Code     0  init.o(.text)
    AdcDrvInit                               0x080001f1   Thumb Code    12  adc_drv.o(i.AdcDrvInit)
    DelayInit                                0x08000239   Thumb Code    50  delay.o(i.DelayInit)
    LedDrvInit                               0x08000275   Thumb Code    86  led_drv.o(i.LedDrvInit)
    SysTick_Handler                          0x0800033d   Thumb Code    28  systick.o(i.SysTick_Handler)
    SystemInit                               0x08000361   Thumb Code   156  system_gd32f30x.o(i.SystemInit)
    ToggleLed                                0x08000409   Thumb Code    76  led_drv.o(i.ToggleLed)
    TurnOnLed                                0x08000459   Thumb Code    40  led_drv.o(i.TurnOnLed)
    USART1_IRQHandler                        0x08000485   Thumb Code    54  usb2com_drv_1.o(i.USART1_IRQHandler)
    Usb2ComAppInit                           0x080004c9   Thumb Code    10  usb2com_app.o(i.Usb2ComAppInit)
    Usb2ComDrvInit                           0x080004d9   Thumb Code   174  usb2com_drv_1.o(i.Usb2ComDrvInit)
    Usb2ComTask                              0x0800058d   Thumb Code    88  usb2com_app.o(i.Usb2ComTask)
    __scatterload_copy                       0x080005ed   Thumb Code    14  handlers.o(i.__scatterload_copy)
    __scatterload_null                       0x080005fb   Thumb Code     2  handlers.o(i.__scatterload_null)
    __scatterload_zeroinit                   0x080005fd   Thumb Code    14  handlers.o(i.__scatterload_zeroinit)
    adc_calibration_enable                   0x0800060b   Thumb Code    42  gd32f30x_adc.o(i.adc_calibration_enable)
    adc_data_alignment_config                0x08000635   Thumb Code    22  gd32f30x_adc.o(i.adc_data_alignment_config)
    adc_deinit                               0x0800064d   Thumb Code    84  gd32f30x_adc.o(i.adc_deinit)
    adc_enable                               0x080006a5   Thumb Code    18  gd32f30x_adc.o(i.adc_enable)
    adc_external_trigger_config              0x080006b7   Thumb Code    62  gd32f30x_adc.o(i.adc_external_trigger_config)
    adc_external_trigger_source_config       0x080006f5   Thumb Code    48  gd32f30x_adc.o(i.adc_external_trigger_source_config)
    adc_mode_config                          0x08000725   Thumb Code    22  gd32f30x_adc.o(i.adc_mode_config)
    adc_special_function_config              0x08000741   Thumb Code    90  gd32f30x_adc.o(i.adc_special_function_config)
    gpio_bit_reset                           0x0800079b   Thumb Code     4  gd32f30x_gpio.o(i.gpio_bit_reset)
    gpio_bit_set                             0x0800079f   Thumb Code     4  gd32f30x_gpio.o(i.gpio_bit_set)
    gpio_bit_write                           0x080007a3   Thumb Code    10  gd32f30x_gpio.o(i.gpio_bit_write)
    gpio_init                                0x080007ad   Thumb Code   188  gd32f30x_gpio.o(i.gpio_init)
    gpio_input_bit_get                       0x08000869   Thumb Code    16  gd32f30x_gpio.o(i.gpio_input_bit_get)
    main                                     0x08000879   Thumb Code    78  main.o(i.main)
    nvic_irq_enable                          0x080008dd   Thumb Code   186  gd32f30x_misc.o(i.nvic_irq_enable)
    nvic_priority_group_set                  0x080009a1   Thumb Code    10  gd32f30x_misc.o(i.nvic_priority_group_set)
    rcu_adc_clock_config                     0x080009b5   Thumb Code    98  gd32f30x_rcu.o(i.rcu_adc_clock_config)
    rcu_clock_freq_get                       0x08000a21   Thumb Code   310  gd32f30x_rcu.o(i.rcu_clock_freq_get)
    rcu_periph_clock_enable                  0x08000b79   Thumb Code    28  gd32f30x_rcu.o(i.rcu_periph_clock_enable)
    rcu_periph_reset_disable                 0x08000b99   Thumb Code    28  gd32f30x_rcu.o(i.rcu_periph_reset_disable)
    rcu_periph_reset_enable                  0x08000bb9   Thumb Code    28  gd32f30x_rcu.o(i.rcu_periph_reset_enable)
    regUsb2Comcb                             0x08000bd9   Thumb Code     8  usb2com_drv_1.o(i.regUsb2Comcb)
    send_data_packet                         0x08000be5   Thumb Code    48  usb2com_drv_1.o(i.send_data_packet)
    usart_baudrate_set                       0x08000d35   Thumb Code   136  gd32f30x_usart.o(i.usart_baudrate_set)
    usart_data_receive                       0x08000dc5   Thumb Code    10  gd32f30x_usart.o(i.usart_data_receive)
    usart_data_transmit                      0x08000dcf   Thumb Code     8  gd32f30x_usart.o(i.usart_data_transmit)
    usart_deinit                             0x08000dd9   Thumb Code   136  gd32f30x_usart.o(i.usart_deinit)
    usart_enable                             0x08000e69   Thumb Code    10  gd32f30x_usart.o(i.usart_enable)
    usart_flag_clear                         0x08000e73   Thumb Code    18  gd32f30x_usart.o(i.usart_flag_clear)
    usart_flag_get                           0x08000e85   Thumb Code    30  gd32f30x_usart.o(i.usart_flag_get)
    usart_interrupt_enable                   0x08000ea3   Thumb Code    26  gd32f30x_usart.o(i.usart_interrupt_enable)
    usart_interrupt_flag_clear               0x08000ebd   Thumb Code    18  gd32f30x_usart.o(i.usart_interrupt_flag_clear)
    usart_interrupt_flag_get                 0x08000ecf   Thumb Code    56  gd32f30x_usart.o(i.usart_interrupt_flag_get)
    usart_parity_config                      0x08000f07   Thumb Code    16  gd32f30x_usart.o(i.usart_parity_config)
    usart_receive_config                     0x08000f17   Thumb Code    20  gd32f30x_usart.o(i.usart_receive_config)
    usart_stop_bit_set                       0x08000f2b   Thumb Code    16  gd32f30x_usart.o(i.usart_stop_bit_set)
    usart_transmit_config                    0x08000f3b   Thumb Code    20  gd32f30x_usart.o(i.usart_transmit_config)
    usart_word_length_set                    0x08000f4f   Thumb Code    16  gd32f30x_usart.o(i.usart_word_length_set)
    Region$$Table$$Base                      0x08000f78   Number         0  anon$$obj.o(Region$$Table)
    Region$$Table$$Limit                     0x08000f98   Number         0  anon$$obj.o(Region$$Table)
    g_gpioList                               0x20000004   Data          24  led_drv.o(.data)
    g_Usb2comUart1                           0x20000030   Data          24  usb2com_drv_1.o(.data)
    uartProcessUartData                      0x20000048   Data           4  usb2com_drv_1.o(.data)
    __initial_sp                             0x20000860   Data           0  startup_gd32f30x_hd.o(STACK)



==============================================================================

Memory Map of the image

  Image Entry point : 0x08000131

  Load Region LR_IROM1 (Base: 0x08000000, Size: 0x00000fe4, Max: 0x00040000, ABSOLUTE)

    Execution Region ER_IROM1 (Exec base: 0x08000000, Load base: 0x08000000, Size: 0x00000f98, Max: 0x00040000, ABSOLUTE)

    Exec Addr    Load Addr    Size         Type   Attr      Idx    E Section Name        Object

    0x08000000   0x08000000   0x00000130   Data   RO         2301    RESET               startup_gd32f30x_hd.o
    0x08000130   0x08000130   0x00000000   Code   RO         2306  * .ARM.Collect$$$$00000000  mc_w.l(entry.o)
    0x08000130   0x08000130   0x00000004   Code   RO         2574    .ARM.Collect$$$$00000001  mc_w.l(entry2.o)
    0x08000134   0x08000134   0x00000004   Code   RO         2577    .ARM.Collect$$$$00000004  mc_w.l(entry5.o)
    0x08000138   0x08000138   0x00000000   Code   RO         2579    .ARM.Collect$$$$00000008  mc_w.l(entry7b.o)
    0x08000138   0x08000138   0x00000000   Code   RO         2581    .ARM.Collect$$$$0000000A  mc_w.l(entry8b.o)
    0x08000138   0x08000138   0x00000008   Code   RO         2582    .ARM.Collect$$$$0000000B  mc_w.l(entry9a.o)
    0x08000140   0x08000140   0x00000000   Code   RO         2584    .ARM.Collect$$$$0000000D  mc_w.l(entry10a.o)
    0x08000140   0x08000140   0x00000000   Code   RO         2586    .ARM.Collect$$$$0000000F  mc_w.l(entry11a.o)
    0x08000140   0x08000140   0x00000004   Code   RO         2575    .ARM.Collect$$$$00002712  mc_w.l(entry2.o)
    0x08000144   0x08000144   0x00000024   Code   RO         2302    .text               startup_gd32f30x_hd.o
    0x08000168   0x08000168   0x00000024   Code   RO         2602    .text               mc_w.l(init.o)
    0x0800018c   0x0800018c   0x00000064   Code   RO          419    i.AdcConfigInit     adc_drv.o
    0x080001f0   0x080001f0   0x0000000c   Code   RO          420    i.AdcDrvInit        adc_drv.o
    0x080001fc   0x080001fc   0x0000001c   Code   RO          422    i.AdcGpioInit       adc_drv.o
    0x08000218   0x08000218   0x00000008   Code   RO            3    i.AllAppInit        main.o
    0x08000220   0x08000220   0x00000018   Code   RO            4    i.AllDrvInit        main.o
    0x08000238   0x08000238   0x0000003c   Code   RO          235    i.DelayInit         delay.o
    0x08000274   0x08000274   0x0000005c   Code   RO          194    i.LedDrvInit        led_drv.o
    0x080002d0   0x080002d0   0x0000006c   Code   RO          154    i.ProcessUartData   usb2com_app.o
    0x0800033c   0x0800033c   0x00000024   Code   RO          269    i.SysTick_Handler   systick.o
    0x08000360   0x08000360   0x000000a8   Code   RO         2247    i.SystemInit        system_gd32f30x.o
    0x08000408   0x08000408   0x00000050   Code   RO          195    i.ToggleLed         led_drv.o
    0x08000458   0x08000458   0x0000002c   Code   RO          197    i.TurnOnLed         led_drv.o
    0x08000484   0x08000484   0x00000044   Code   RO          362    i.USART1_IRQHandler  usb2com_drv_1.o
    0x080004c8   0x080004c8   0x00000010   Code   RO          155    i.Usb2ComAppInit    usb2com_app.o
    0x080004d8   0x080004d8   0x000000b4   Code   RO          363    i.Usb2ComDrvInit    usb2com_drv_1.o
    0x0800058c   0x0800058c   0x00000060   Code   RO          156    i.Usb2ComTask       usb2com_app.o
    0x080005ec   0x080005ec   0x0000000e   Code   RO         2614    i.__scatterload_copy  mc_w.l(handlers.o)
    0x080005fa   0x080005fa   0x00000002   Code   RO         2615    i.__scatterload_null  mc_w.l(handlers.o)
    0x080005fc   0x080005fc   0x0000000e   Code   RO         2616    i.__scatterload_zeroinit  mc_w.l(handlers.o)
    0x0800060a   0x0800060a   0x0000002a   Code   RO         2016    i.adc_calibration_enable  gd32f30x_adc.o
    0x08000634   0x08000634   0x00000016   Code   RO         2018    i.adc_data_alignment_config  gd32f30x_adc.o
    0x0800064a   0x0800064a   0x00000002   PAD
    0x0800064c   0x0800064c   0x00000058   Code   RO         2019    i.adc_deinit        gd32f30x_adc.o
    0x080006a4   0x080006a4   0x00000012   Code   RO         2024    i.adc_enable        gd32f30x_adc.o
    0x080006b6   0x080006b6   0x0000003e   Code   RO         2025    i.adc_external_trigger_config  gd32f30x_adc.o
    0x080006f4   0x080006f4   0x00000030   Code   RO         2026    i.adc_external_trigger_source_config  gd32f30x_adc.o
    0x08000724   0x08000724   0x0000001c   Code   RO         2036    i.adc_mode_config   gd32f30x_adc.o
    0x08000740   0x08000740   0x0000005a   Code   RO         2044    i.adc_special_function_config  gd32f30x_adc.o
    0x0800079a   0x0800079a   0x00000004   Code   RO          629    i.gpio_bit_reset    gd32f30x_gpio.o
    0x0800079e   0x0800079e   0x00000004   Code   RO          630    i.gpio_bit_set      gd32f30x_gpio.o
    0x080007a2   0x080007a2   0x0000000a   Code   RO          631    i.gpio_bit_write    gd32f30x_gpio.o
    0x080007ac   0x080007ac   0x000000bc   Code   RO          639    i.gpio_init         gd32f30x_gpio.o
    0x08000868   0x08000868   0x00000010   Code   RO          640    i.gpio_input_bit_get  gd32f30x_gpio.o
    0x08000878   0x08000878   0x00000064   Code   RO            5    i.main              main.o
    0x080008dc   0x080008dc   0x000000c4   Code   RO          763    i.nvic_irq_enable   gd32f30x_misc.o
    0x080009a0   0x080009a0   0x00000014   Code   RO          764    i.nvic_priority_group_set  gd32f30x_misc.o
    0x080009b4   0x080009b4   0x0000006c   Code   RO          818    i.rcu_adc_clock_config  gd32f30x_rcu.o
    0x08000a20   0x08000a20   0x00000158   Code   RO          827    i.rcu_clock_freq_get  gd32f30x_rcu.o
    0x08000b78   0x08000b78   0x00000020   Code   RO          845    i.rcu_periph_clock_enable  gd32f30x_rcu.o
    0x08000b98   0x08000b98   0x00000020   Code   RO          848    i.rcu_periph_reset_disable  gd32f30x_rcu.o
    0x08000bb8   0x08000bb8   0x00000020   Code   RO          849    i.rcu_periph_reset_enable  gd32f30x_rcu.o
    0x08000bd8   0x08000bd8   0x0000000c   Code   RO          366    i.regUsb2Comcb      usb2com_drv_1.o
    0x08000be4   0x08000be4   0x00000034   Code   RO          367    i.send_data_packet  usb2com_drv_1.o
    0x08000c18   0x08000c18   0x00000114   Code   RO         2248    i.system_clock_120m_hxtal  system_gd32f30x.o
    0x08000d2c   0x08000d2c   0x00000008   Code   RO         2249    i.system_clock_config  system_gd32f30x.o
    0x08000d34   0x08000d34   0x00000090   Code   RO         1070    i.usart_baudrate_set  gd32f30x_usart.o
    0x08000dc4   0x08000dc4   0x0000000a   Code   RO         1073    i.usart_data_receive  gd32f30x_usart.o
    0x08000dce   0x08000dce   0x00000008   Code   RO         1074    i.usart_data_transmit  gd32f30x_usart.o
    0x08000dd6   0x08000dd6   0x00000002   PAD
    0x08000dd8   0x08000dd8   0x00000090   Code   RO         1075    i.usart_deinit      gd32f30x_usart.o
    0x08000e68   0x08000e68   0x0000000a   Code   RO         1079    i.usart_enable      gd32f30x_usart.o
    0x08000e72   0x08000e72   0x00000012   Code   RO         1080    i.usart_flag_clear  gd32f30x_usart.o
    0x08000e84   0x08000e84   0x0000001e   Code   RO         1081    i.usart_flag_get    gd32f30x_usart.o
    0x08000ea2   0x08000ea2   0x0000001a   Code   RO         1088    i.usart_interrupt_enable  gd32f30x_usart.o
    0x08000ebc   0x08000ebc   0x00000012   Code   RO         1089    i.usart_interrupt_flag_clear  gd32f30x_usart.o
    0x08000ece   0x08000ece   0x00000038   Code   RO         1090    i.usart_interrupt_flag_get  gd32f30x_usart.o
    0x08000f06   0x08000f06   0x00000010   Code   RO         1101    i.usart_parity_config  gd32f30x_usart.o
    0x08000f16   0x08000f16   0x00000014   Code   RO         1103    i.usart_receive_config  gd32f30x_usart.o
    0x08000f2a   0x08000f2a   0x00000010   Code   RO         1113    i.usart_stop_bit_set  gd32f30x_usart.o
    0x08000f3a   0x08000f3a   0x00000014   Code   RO         1117    i.usart_transmit_config  gd32f30x_usart.o
    0x08000f4e   0x08000f4e   0x00000010   Code   RO         1118    i.usart_word_length_set  gd32f30x_usart.o
    0x08000f5e   0x08000f5e   0x00000018   Code   RO          157    i.xorSum            usb2com_app.o
    0x08000f76   0x08000f76   0x00000002   PAD
    0x08000f78   0x08000f78   0x00000020   Data   RO         2612    Region$$Table       anon$$obj.o


    Execution Region RW_IRAM1 (Exec base: 0x20000000, Load base: 0x08000f98, Size: 0x00000860, Max: 0x0000c000, ABSOLUTE)

    Exec Addr    Load Addr    Size         Type   Attr      Idx    E Section Name        Object

    0x20000000   0x08000f98   0x00000002   Data   RW          159    .data               usb2com_app.o
    0x20000002   0x08000f9a   0x00000002   PAD
    0x20000004   0x08000f9c   0x00000018   Data   RW          198    .data               led_drv.o
    0x2000001c   0x08000fb4   0x00000004   PAD
    0x20000020   0x08000fb8   0x0000000e   Data   RW          272    .data               systick.o
    0x2000002e   0x08000fc6   0x00000002   PAD
    0x20000030   0x08000fc8   0x0000001c   Data   RW          368    .data               usb2com_drv_1.o
    0x2000004c        -       0x00000014   Zero   RW          158    .bss                usb2com_app.o
    0x20000060        -       0x00000800   Zero   RW         2299    STACK               startup_gd32f30x_hd.o


==============================================================================

Image component sizes


      Code (inc. data)   RO Data    RW Data    ZI Data      Debug   Object Name

       140         10          0          0          0       1405   adc_drv.o
        60         10          0          0          0        456   delay.o
       398         10          0          0          0       4886   gd32f30x_adc.o
       222          0          0          0          0      15262   gd32f30x_gpio.o
       216         20          0          0          0       1396   gd32f30x_misc.o
       548         68          0          0          0      20507   gd32f30x_rcu.o
       552         16          0          0          0      15785   gd32f30x_usart.o
       216         14          0         24          0       2442   led_drv.o
       132         22          0          0          0      39159   main.o
        36          8        304          0       2048        816   startup_gd32f30x_hd.o
       452         30          0          0          0       2421   system_gd32f30x.o
        36          8          0         14          0       1194   systick.o
       244         28          0          2         20       3023   usb2com_app.o
       312         28          0         28          0       3308   usb2com_drv_1.o

    ----------------------------------------------------------------------
      3570        272        336         76       2068     112060   Object Totals
         0          0         32          0          0          0   (incl. Generated)
         6          0          0          8          0          0   (incl. Padding)

    ----------------------------------------------------------------------

      Code (inc. data)   RO Data    RW Data    ZI Data      Debug   Library Member Name

         0          0          0          0          0          0   entry.o
         0          0          0          0          0          0   entry10a.o
         0          0          0          0          0          0   entry11a.o
         8          4          0          0          0          0   entry2.o
         4          0          0          0          0          0   entry5.o
         0          0          0          0          0          0   entry7b.o
         0          0          0          0          0          0   entry8b.o
         8          4          0          0          0          0   entry9a.o
        30          0          0          0          0          0   handlers.o
        36          8          0          0          0         68   init.o

    ----------------------------------------------------------------------
        86         16          0          0          0         68   Library Totals
         0          0          0          0          0          0   (incl. Padding)

    ----------------------------------------------------------------------

      Code (inc. data)   RO Data    RW Data    ZI Data      Debug   Library Name

        86         16          0          0          0         68   mc_w.l

    ----------------------------------------------------------------------
        86         16          0          0          0         68   Library Totals

    ----------------------------------------------------------------------

==============================================================================


      Code (inc. data)   RO Data    RW Data    ZI Data      Debug   

      3656        288        336         76       2068     107032   Grand Totals
      3656        288        336         76       2068     107032   ELF Image Totals
      3656        288        336         76          0          0   ROM Totals

==============================================================================

    Total RO  Size (Code + RO Data)                 3992 (   3.90kB)
    Total RW  Size (RW Data + ZI Data)              2144 (   2.09kB)
    Total ROM Size (Code + RO Data + RW Data)       4068 (   3.97kB)

==============================================================================

