:020000040800F2
:104000008804002065410008BB410008B341000856
:10401000B7410008AD41000831420008000000002F
:10402000000000000000000000000000E741000860
:10403000B141000800000000E5410008E941000826
:104040007F4100087F4100087F4100087F41000850
:104050007F4100087F4100087F4100087F41000840
:104060007F4100087F4100087F4100087F41000830
:104070007F4100087F4100087F4100087F41000820
:104080007F4100087F4100087F4100087F41000810
:104090007F4100087F4100087F4100087F41000800
:1040A0007F4100087F4100087F4100087F410008F0
:1040B0007F4100087F4100087F4100087F410008E0
:1040C0007F4100087F4100087F4100087F410008D0
:1040D0007F4100087F4100087F4100087F410008C0
:1040E0007F4100087F4100087F4100087F410008B0
:1040F0007F4100087F4100087F4100080000000068
:104100007F410008000000007F4100087F41000857
:104110007F4100087F4100087F4100087F4100087F
:104120007F4100087F4100087F4100087F4100086F
:104130007F4100087F4100087F4100087F4100085F
:104140007F4100087F4100087F4100087F4100084F
:10415000DFF80CD000F018F800480047954300083D
:10416000880400200648804706480047FEE7FEE72F
:10417000FEE7FEE7FEE7FEE7FEE7FEE7FEE7FEE717
:10418000F141000851410008064C074D06E0E06887
:1041900040F0010394E8070098471034AC42F6D38E
:1041A000FFF7DAFFAC450008CC45000800BFFEE78A
:1041B000704700BFFEE700BFFEE7704710B500285C
:1041C00007DA0A07140E054A00F00F031B1FD45428
:1041D00003E00A07130E024A135410BD18ED00E065
:1041E00000E400E07047704710B500F03DF810BDE6
:1041F00010B50D48006840F001000B490860002030
:104200004860C862084600680849084006490860D6
:104210004FF47F0088600846006820F48020086022
:1042200000F098F910BD000000100240FFFFF6EA10
:1042300000BFFEE702E008C8121F08C1002AFAD139
:1042400070477047002001E001C1121F002AFBD116
:10425000704700000349086000BF0249096800294F
:10426000FBD17047000000200448006820B10348DB
:104270000068401E014908607047000000000020EF
:1042800010B504460B4931F8140000F0BDF80A4996
:1042900051F82430094951F824000322102100F07C
:1042A00027F8054850F82400044951F824104861C3
:1042B00010BD000048000020180000200800002069
:1042C000034951F82010034A52F8202051617047E9
:1042D0001800002008000020034951F82010034A6C
:1042E00052F82020116170471800002008000020BB
:1042F000F0B50C4616460025002204F00F0514F018
:10430000100F08D0042E05D145F00305C76B1F43DD
:10431000C76300E03543002118E001278F401F42AA
:1043200012D002684FEA810C0F2707FA0CF7BA4344
:104330008F0005FA07F73A43282C01D1436102E0C8
:10434000482C00D1036102604F1CB9B20829E4D3A4
:1043500008211CE001278F401F4216D04268A1F1BE
:1043600008074FEA870C0F2707FA0CF7BA43A1F1A9
:104370000807BF0005FA07F73A43282C01D143612B
:1043800002E0482C00D1036142604F1CB9B21029F1
:10439000E0D3F0BD4FF48041480300F02BF800203B
:1043A000FFF76EFF0120FFF76BFF0220FFF768FFAA
:1043B00000F0D4F81DE00020FFF78EFFC820FFF7C3
:1043C00049FF0120FFF788FFC820FFF743FF0220C5
:1043D000FFF782FFC820FFF73DFF0020FFF770FFC7
:1043E0000120FFF76DFF0220FFF76AFFC820FFF7EB
:1043F00031FFE0E7024A0A400243024B1A6070476D
:1044000080FFFF1F08ED00E0064901EB90110968ED
:1044100000F01F0301229A401143024A02EB90125E
:10442000116070470010024000200021434A1268CA
:1044300042F48032414B1A6000BF401C3F4A126870
:1044400002F4003111B9B0F5006FF6D13B4A1268A1
:1044500012F4003F01D100BFFEE7384AD26942F0B2
:104460008052364BDA61364A126842F44042344B8D
:104470001A60324A5268314B5A601A4652685A6082
:104480001A46526842F480625A601A4652682D4BAE
:104490001A402A4B5A601A4652682B4B1A43274B34
:1044A0005A601A46D26A294B1A40244BDA621A46DD
:1044B000D26A274B1A43214BDA621A46126842F03D
:1044C00080621A6000BF1D4A126812F0006FFAD0B5
:1044D0001A4A126842F08072184B1A6000BF174ADD
:1044E000126812F0007FFAD0154A126842F4803246
:1044F000134B1A6000BF124A526812F4803FFAD080
:104500000F4A126842F400320D4B1A6000BF0C4A89
:10451000526812F4003FFAD0084A526822F00302AF
:10452000064B5A601A46526842F002025A6000BFB7
:10453000024A526812F0080FFAD070470010024089
:1045400000700040FFFFC39F0000352000F0FEBF59
:104550004906010010B5FFF767FF10BD10B51248FE
:1045600000684FF47A71B0FBF1F4601EB0F1807F07
:1045700001D301200FE0601E4FF0E02148610F21C0
:104580004FF0FF30FFF71AFE00204FF0E021886166
:1045900007200861002008B100BFFEE70021481E87
:1045A000FFF70CFE10BD000004000020CC45000801
:1045B0000000002088000000344200085446000833
:1045C00088000020000400004442000800000000B1
:1045D000000E2707001001400010014000180140A4
:1045E000001801400100000004000000010000006C
:1045F000020000000E061107000200000400000087
:10460000000400000800000000080140000801400C
:104610000206020604060406060606060008014015
:1046200000100140000C01400100000000200000CB
:10463000004000000206040603060000010000001E
:104640000020000000400000000201000D0E0628BE
:04465000280000003E
:04000005080041515D
:00000001FF
