Component: ARM Compiler 5.06 update 6 (build 750) Tool: armlink [4d35ed]

==============================================================================

Section Cross References

    usb2com_app.o(i.CtlDac) refers to led_drv.o(i.TurnOffLed) for TurnOffLed
    usb2com_app.o(i.CtlDac) refers to dac_drv.o(i.Dac_Set_Vol) for Dac_Set_Vol
    usb2com_app.o(i.CtlDac) refers to led_drv.o(i.TurnOnLed) for TurnOnLed
    usb2com_app.o(i.CtlLed) refers to led_drv.o(i.TurnOnLed) for TurnOnLed
    usb2com_app.o(i.CtlLed) refers to led_drv.o(i.TurnOffLed) for TurnOffLed
    usb2com_app.o(i.ProcessUartData) refers to usb2com_app.o(.data) for index
    usb2com_app.o(i.ProcessUartData) refers to usb2com_app.o(.bss) for g_RxPackageData
    usb2com_app.o(i.Usb2ComAppInit) refers to usb2com_drv.o(i.regUsb2Comcb) for regUsb2Comcb
    usb2com_app.o(i.Usb2ComAppInit) refers to usb2com_app.o(i.ProcessUartData) for ProcessUartData
    usb2com_app.o(i.Usb2ComTask) refers to usb2com_app.o(i.xorSum) for xorSum
    usb2com_app.o(i.Usb2ComTask) refers to usb2com_app.o(i.CtlLed) for CtlLed
    usb2com_app.o(i.Usb2ComTask) refers to usb2com_app.o(i.CtlDac) for CtlDac
    usb2com_app.o(i.Usb2ComTask) refers to usb2com_app.o(.data) for g_pktRecv
    usb2com_app.o(i.Usb2ComTask) refers to usb2com_app.o(.bss) for g_RxPackageData
    main.o(i.AllAppInit) refers to usb2com_app.o(i.Usb2ComAppInit) for Usb2ComAppInit
    main.o(i.AllDrvInit) refers to delay.o(i.DelayInit) for DelayInit
    main.o(i.AllDrvInit) refers to led_drv.o(i.LedDrvInit) for LedDrvInit
    main.o(i.AllDrvInit) refers to adc_drv.o(i.AdcDrvInit) for AdcDrvInit
==============================================================================

Removing Unused input sections from the image.

    Removing main.o(.rev16_text), (4 bytes).
    Removing main.o(.revsh_text), (4 bytes).
    Removing delay.o(.rev16_text), (4 bytes).
    Removing delay.o(.revsh_text), (4 bytes).
    Removing adc_drv.o(.rev16_text), (4 bytes).
    Removing adc_drv.o(.revsh_text), (4 bytes).
    Removing led_drv.o(.rev16_text), (4 bytes).
    Removing led_drv.o(.revsh_text), (4 bytes).
    Removing led_drv.o(i.ToggleLed), (80 bytes).
    Removing usb2com_drv.o(.rev16_text), (4 bytes).
    Removing usb2com_drv.o(.revsh_text), (4 bytes).
    Removing usb2com_drv.o(i.Usb2ComTxTesting), (48 bytes).
    Removing dac_drv.o(.rev16_text), (4 bytes).
    Removing dac_drv.o(.revsh_text), (4 bytes).
    Removing rtc_drv.o(.rev16_text), (4 bytes).
    Removing rtc_drv.o(.revsh_text), (4 bytes).
    Removing rtc_drv.o(i.SetRtcTime), (58 bytes).
    Removing systick_drv.o(.rev16_text), (4 bytes).
==============================================================================

Image Symbol Table

    Local Symbols

    Symbol Name                              Value     Ov Type        Size  Object(Section)

    ../clib/microlib/division.c              0x00000000   Number         0  uidiv.o ABSOLUTE
    ../clib/microlib/division.c              0x00000000   Number         0  uldiv.o ABSOLUTE
    ../clib/microlib/init/entry.s            0x00000000   Number         0  entry9b.o ABSOLUTE
    ../clib/microlib/init/entry.s            0x00000000   Number         0  entry8b.o ABSOLUTE
    ../clib/microlib/init/entry.s            0x00000000   Number         0  entry8a.o ABSOLUTE
    ../clib/microlib/init/entry.s            0x00000000   Number         0  entry7b.o ABSOLUTE
    ../clib/microlib/init/entry.s            0x00000000   Number         0  entry7a.o ABSOLUTE
    ../clib/microlib/init/entry.s            0x00000000   Number         0  entry5.o ABSOLUTE
    ../clib/microlib/init/entry.s            0x00000000   Number         0  entry2.o ABSOLUTE
    ../clib/microlib/init/entry.s            0x00000000   Number         0  entry11b.o ABSOLUTE
    ../clib/microlib/init/entry.s            0x00000000   Number         0  entry9a.o ABSOLUTE
    ../clib/microlib/init/entry.s            0x00000000   Number         0  entry.o ABSOLUTE
    ../clib/microlib/init/entry.s            0x00000000   Number         0  entry11a.o ABSOLUTE
    ../clib/microlib/init/entry.s            0x00000000   Number         0  entry10b.o ABSOLUTE
    ../clib/microlib/init/entry.s            0x00000000   Number         0  entry10a.o ABSOLUTE
    ../clib/microlib/longlong.c              0x00000000   Number         0  llsshr.o ABSOLUTE
    ../clib/microlib/longlong.c              0x00000000   Number         0  llushr.o ABSOLUTE
    ../clib/microlib/longlong.c              0x00000000   Number         0  llshl.o ABSOLUTE
    ../clib/microlib/printf/printf.c         0x00000000   Number         0  printf8.o ABSOLUTE
    ../clib/microlib/printf/printf.c         0x00000000   Number         0  printf7.o ABSOLUTE
    ../clib/microlib/printf/printf.c         0x00000000   Number         0  printf6.o ABSOLUTE
    ../clib/microlib/printf/printf.c         0x00000000   Number         0  printf4.o ABSOLUTE
    ../clib/microlib/printf/printf.c         0x00000000   Number         0  printf3.o ABSOLUTE
    ../clib/microlib/printf/printf.c         0x00000000   Number         0  printf2.o ABSOLUTE
    ../clib/microlib/printf/printf.c         0x00000000   Number         0  printfb.o ABSOLUTE
    ../clib/microlib/printf/printf.c         0x00000000   Number         0  printf0.o ABSOLUTE
    ../clib/microlib/printf/printf.c         0x00000000   Number         0  printf5.o ABSOLUTE
    ../clib/microlib/printf/printf.c         0x00000000   Number         0  printfa.o ABSOLUTE
    ../clib/microlib/printf/printf.c         0x00000000   Number         0  printf1.o ABSOLUTE
    ../clib/microlib/printf/stubs.s          0x00000000   Number         0  stubs.o ABSOLUTE
    ../clib/microlib/stdio/streams.c         0x00000000   Number         0  stdout.o ABSOLUTE
    ../clib/microlib/stubs.s                 0x00000000   Number         0  iusefp.o ABSOLUTE
    ../clib/microlib/time/localtime.c        0x00000000   Number         0  localtime_i.o ABSOLUTE
    ../clib/microlib/time/localtime.c        0x00000000   Number         0  localtime_w.o ABSOLUTE
    ../clib/microlib/time/localtime.c        0x00000000   Number         0  localtime.o ABSOLUTE
    ../clib/microlib/time/mktime.c           0x00000000   Number         0  mktime.o ABSOLUTE
    ../fplib/microlib/f2d.c                  0x00000000   Number         0  f2d.o ABSOLUTE
    ../fplib/microlib/fpadd.c                0x00000000   Number         0  dadd.o ABSOLUTE
    ../fplib/microlib/fpdiv.c                0x00000000   Number         0  ddiv.o ABSOLUTE
    ../fplib/microlib/fpepilogue.c           0x00000000   Number         0  depilogue.o ABSOLUTE
    ../fplib/microlib/fpfix.c                0x00000000   Number         0  dfixul.o ABSOLUTE
    ../fplib/microlib/fpfix.c                0x00000000   Number         0  dfixui.o ABSOLUTE
    ../fplib/microlib/fpflt.c                0x00000000   Number         0  dfltui.o ABSOLUTE
    ../fplib/microlib/fpmul.c                0x00000000   Number         0  dmul.o ABSOLUTE
    App\Usb2Com_app.c                        0x00000000   Number         0  usb2com_app.o ABSOLUTE
    App\\main.c                              0x00000000   Number         0  main.o ABSOLUTE
    App\main.c                               0x00000000   Number         0  main.o ABSOLUTE
    Arm\\system_gd32f30x.c                   0x00000000   Number         0  system_gd32f30x.o ABSOLUTE
    Arm\startup_gd32f30x_hd.s                0x00000000   Number         0  startup_gd32f30x_hd.o ABSOLUTE
    Arm\system_gd32f30x.c                    0x00000000   Number         0  system_gd32f30x.o ABSOLUTE
    Driver\Usb2Com_drv.c                     0x00000000   Number         0  usb2com_drv.o ABSOLUTE
    Driver\\Usb2Com_drv.c                    0x00000000   Number         0  usb2com_drv.o ABSOLUTE
    Driver\\adc_drv.c                        0x00000000   Number         0  adc_drv.o ABSOLUTE
    Driver\\dac_drv.c                        0x00000000   Number         0  dac_drv.o ABSOLUTE
    Driver\\delay.c                          0x00000000   Number         0  delay.o ABSOLUTE
    Driver\\led_drv.c                        0x00000000   Number         0  led_drv.o ABSOLUTE
    Driver\\rtc_drv.c                        0x00000000   Number         0  rtc_drv.o ABSOLUTE
    Driver\\systick_drv.c                    0x00000000   Number         0  systick_drv.o ABSOLUTE
    Driver\adc_drv.c                         0x00000000   Number         0  adc_drv.o ABSOLUTE
    Driver\dac_drv.c                         0x00000000   Number         0  dac_drv.o ABSOLUTE
    Driver\delay.c                           0x00000000   Number         0  delay.o ABSOLUTE
    Driver\led_drv.c                         0x00000000   Number         0  led_drv.o ABSOLUTE
    Driver\rtc_drv.c                         0x00000000   Number         0  rtc_drv.o ABSOLUTE
    Driver\systick_drv.c                     0x00000000   Number         0  systick_drv.o ABSOLUTE
    GD32_Lib\Source\gd32f30x_adc.c           0x00000000   Number         0  gd32f30x_adc.o ABSOLUTE
    GD32_Lib\Source\gd32f30x_bkp.c           0x00000000   Number         0  gd32f30x_bkp.o ABSOLUTE
    GD32_Lib\Source\gd32f30x_dac.c           0x00000000   Number         0  gd32f30x_dac.o ABSOLUTE
    GD32_Lib\Source\gd32f30x_exti.c          0x00000000   Number         0  gd32f30x_exti.o ABSOLUTE
    GD32_Lib\Source\gd32f30x_gpio.c          0x00000000   Number         0  gd32f30x_gpio.o ABSOLUTE
    GD32_Lib\Source\gd32f30x_misc.c          0x00000000   Number         0  gd32f30x_misc.o ABSOLUTE
    GD32_Lib\Source\gd32f30x_pmu.c           0x00000000   Number         0  gd32f30x_pmu.o ABSOLUTE
    GD32_Lib\Source\gd32f30x_rcu.c           0x00000000   Number         0  gd32f30x_rcu.o ABSOLUTE
    GD32_Lib\Source\gd32f30x_rtc.c           0x00000000   Number         0  gd32f30x_rtc.o ABSOLUTE
    GD32_Lib\Source\gd32f30x_timer.c         0x00000000   Number         0  gd32f30x_timer.o ABSOLUTE
    GD32_Lib\Source\gd32f30x_usart.c         0x00000000   Number         0  gd32f30x_usart.o ABSOLUTE
    GD32_Lib\\Source\\gd32f30x_adc.c         0x00000000   Number         0  gd32f30x_adc.o ABSOLUTE
    GD32_Lib\\Source\\gd32f30x_bkp.c         0x00000000   Number         0  gd32f30x_bkp.o ABSOLUTE
    GD32_Lib\\Source\\gd32f30x_dac.c         0x00000000   Number         0  gd32f30x_dac.o ABSOLUTE
    GD32_Lib\\Source\\gd32f30x_exti.c        0x00000000   Number         0  gd32f30x_exti.o ABSOLUTE
    GD32_Lib\\Source\\gd32f30x_gpio.c        0x00000000   Number         0  gd32f30x_gpio.o ABSOLUTE
    GD32_Lib\\Source\\gd32f30x_misc.c        0x00000000   Number         0  gd32f30x_misc.o ABSOLUTE
    GD32_Lib\\Source\\gd32f30x_pmu.c         0x00000000   Number         0  gd32f30x_pmu.o ABSOLUTE
    GD32_Lib\\Source\\gd32f30x_rcu.c         0x00000000   Number         0  gd32f30x_rcu.o ABSOLUTE
    GD32_Lib\\Source\\gd32f30x_rtc.c         0x00000000   Number         0  gd32f30x_rtc.o ABSOLUTE
    GD32_Lib\\Source\\gd32f30x_timer.c       0x00000000   Number         0  gd32f30x_timer.o ABSOLUTE
    GD32_Lib\\Source\\gd32f30x_usart.c       0x00000000   Number         0  gd32f30x_usart.o ABSOLUTE
    cdrcmple.s                               0x00000000   Number         0  cdrcmple.o ABSOLUTE
    dc.s                                     0x00000000   Number         0  dc.o ABSOLUTE
    handlers.s                               0x00000000   Number         0  handlers.o ABSOLUTE
    init.s                                   0x00000000   Number         0  init.o ABSOLUTE
    RESET                                    0x08000000   Section      304  startup_gd32f30x_hd.o(RESET)
    .ARM.Collect$$$$00000000                 0x08000130   Section        0  entry.o(.ARM.Collect$$$$00000000)
    .ARM.Collect$$$$00000001                 0x08000130   Section        4  entry2.o(.ARM.Collect$$$$00000001)
    .ARM.Collect$$$$00000004                 0x08000134   Section        4  entry5.o(.ARM.Collect$$$$00000004)
    .ARM.Collect$$$$00000008                 0x08000138   Section        0  entry7b.o(.ARM.Collect$$$$00000008)
    .ARM.Collect$$$$0000000A                 0x08000138   Section        0  entry8b.o(.ARM.Collect$$$$0000000A)
    .ARM.Collect$$$$0000000B                 0x08000138   Section        8  entry9a.o(.ARM.Collect$$$$0000000B)
    .ARM.Collect$$$$0000000D                 0x08000140   Section        0  entry10a.o(.ARM.Collect$$$$0000000D)
    .ARM.Collect$$$$0000000F                 0x08000140   Section        0  entry11a.o(.ARM.Collect$$$$0000000F)
    .ARM.Collect$$$$00002712                 0x08000140   Section        4  entry2.o(.ARM.Collect$$$$00002712)
    __lit__00000000                          0x08000140   Data           4  entry2.o(.ARM.Collect$$$$00002712)
    .text                                    0x08000144   Section       36  startup_gd32f30x_hd.o(.text)
    $v0                                      0x08000144   Number         0  startup_gd32f30x_hd.o(.text)
    .text                                    0x08000168   Section        0  dmul.o(.text)
    .text                                    0x0800024c   Section        0  ddiv.o(.text)
    .text                                    0x0800032a   Section        0  dfltui.o(.text)
    .text                                    0x08000344   Section        0  dfixui.o(.text)
    .text                                    0x08000376   Section        0  f2d.o(.text)
    .text                                    0x0800039c   Section       48  cdrcmple.o(.text)
    .text                                    0x080003cc   Section        0  uidiv.o(.text)
    .text                                    0x080003f8   Section        0  uldiv.o(.text)
    .text                                    0x0800045a   Section        0  llushr.o(.text)
    .text                                    0x0800047c   Section        0  localtime_w.o(.text)
    .text                                    0x08000488   Section        0  localtime_i.o(.text)
    .text                                    0x08000514   Section        0  iusefp.o(.text)
    .text                                    0x08000514   Section        0  depilogue.o(.text)
    .text                                    0x080005ce   Section        0  dadd.o(.text)
    .text                                    0x0800071c   Section        0  dfixul.o(.text)
    .text                                    0x0800074c   Section       36  init.o(.text)
    .text                                    0x08000770   Section        0  llshl.o(.text)
    .text                                    0x0800078e   Section        0  llsshr.o(.text)
    i.AdcConfigInit                          0x080007b4   Section        0  adc_drv.o(i.AdcConfigInit)
    AdcConfigInit                            0x080007b5   Thumb Code   104  adc_drv.o(i.AdcConfigInit)
    i.AdcDrvInit                             0x08000820   Section        0  adc_drv.o(i.AdcDrvInit)
    i.AdcDrvTest                             0x0800082c   Section        0  adc_drv.o(i.AdcDrvTest)
    i.AdcGpioInit                            0x080008a4   Section        0  adc_drv.o(i.AdcGpioInit)
    AdcGpioInit                              0x080008a5   Thumb Code    24  adc_drv.o(i.AdcGpioInit)
    i.AllAppInit                             0x080008c0   Section        0  main.o(i.AllAppInit)
    AllAppInit                               0x080008c1   Thumb Code     8  main.o(i.AllAppInit)
    i.AllDrvInit                             0x080008c8   Section        0  main.o(i.AllDrvInit)
    AllDrvInit                               0x080008c9   Thumb Code    36  main.o(i.AllDrvInit)
    i.CtlDac                                 0x080008ec   Section        0  usb2com_app.o(i.CtlDac)
    CtlDac                                   0x080008ed   Thumb Code   120  usb2com_app.o(i.CtlDac)
    i.CtlLed                                 0x08000964   Section        0  usb2com_app.o(i.CtlLed)
    CtlLed                                   0x08000965   Thumb Code    24  usb2com_app.o(i.CtlLed)
    i.DacConfgInit                           0x0800097c   Section        0  dac_drv.o(i.DacConfgInit)
    DacConfgInit                             0x0800097d   Thumb Code    64  dac_drv.o(i.DacConfgInit)
    i.DacDrvInit                             0x080009bc   Section        0  dac_drv.o(i.DacDrvInit)
    i.DacDrvTest                             0x080009c8   Section        0  dac_drv.o(i.DacDrvTest)
    i.DacGpioInit                            0x080009d4   Section        0  dac_drv.o(i.DacGpioInit)
    DacGpioInit                              0x080009d5   Thumb Code    24  dac_drv.o(i.DacGpioInit)
    i.Dac_Set_Vol                            0x080009f0   Section        0  dac_drv.o(i.Dac_Set_Vol)
    i.DelayInit                              0x08000ae0   Section        0  delay.o(i.DelayInit)
    i.GetRtcTime                             0x08000b1c   Section        0  rtc_drv.o(i.GetRtcTime)
    i.Get_Adc_Average                        0x08000b52   Section        0  adc_drv.o(i.Get_Adc_Average)
    i.Get_Adc_Value                          0x08000b7c   Section        0  adc_drv.o(i.Get_Adc_Value)
    Get_Adc_Value                            0x08000b7d   Thumb Code    52  adc_drv.o(i.Get_Adc_Value)
    i.LedDrvInit                             0x08000bb4   Section        0  led_drv.o(i.LedDrvInit)
    i.NVIC_SetPriority                       0x08000c10   Section        0  systick_drv.o(i.NVIC_SetPriority)
    NVIC_SetPriority                         0x08000c11   Thumb Code    32  systick_drv.o(i.NVIC_SetPriority)
    i.ProcessUartData                        0x08000c38   Section        0  usb2com_app.o(i.ProcessUartData)
    ProcessUartData                          0x08000c39   Thumb Code    86  usb2com_app.o(i.ProcessUartData)
    i.RtcDrvInit                             0x08000c9c   Section        0  rtc_drv.o(i.RtcDrvInit)
    i.RtcDrvTest                             0x08000d2c   Section        0  rtc_drv.o(i.RtcDrvTest)
    i.SysTick_Handler                        0x08000d8c   Section        0  systick_drv.o(i.SysTick_Handler)
    i.SystemInit                             0x08000d94   Section        0  system_gd32f30x.o(i.SystemInit)
    i.SystickDrvInit                         0x08000e3c   Section        0  systick_drv.o(i.SystickDrvInit)
    i.TaskHandler                            0x08000e8c   Section        0  main.o(i.TaskHandler)
    i.TaskSchedule                           0x08000ecc   Section        0  main.o(i.TaskSchedule)
    i.TurnOffLed                             0x08000f38   Section        0  led_drv.o(i.TurnOffLed)
    i.TurnOnLed                              0x08000f64   Section        0  led_drv.o(i.TurnOnLed)
    i.USART0_IRQHandler                      0x08000f90   Section        0  usb2com_drv.o(i.USART0_IRQHandler)
    i.Usb2ComAppInit                         0x08000fd4   Section        0  usb2com_app.o(i.Usb2ComAppInit)
    i.Usb2ComDrvInit                         0x08000fe4   Section        0  usb2com_drv.o(i.Usb2ComDrvInit)
    i.Usb2ComTask                            0x0800108c   Section        0  usb2com_app.o(i.Usb2ComTask)
    i.__0printf                              0x080010dc   Section        0  printfa.o(i.__0printf)
    i.__scatterload_copy                     0x080010fc   Section       14  handlers.o(i.__scatterload_copy)
    i.__scatterload_null                     0x0800110a   Section        2  handlers.o(i.__scatterload_null)
    i.__scatterload_zeroinit                 0x0800110c   Section       14  handlers.o(i.__scatterload_zeroinit)
    i._fp_digits                             0x0800111c   Section        0  printfa.o(i._fp_digits)
    _fp_digits                               0x0800111d   Thumb Code   366  printfa.o(i._fp_digits)
    i._printf_core                           0x080012a0   Section        0  printfa.o(i._printf_core)
    _printf_core                             0x080012a1   Thumb Code  1744  printfa.o(i._printf_core)
    i._printf_post_padding                   0x0800197c   Section        0  printfa.o(i._printf_post_padding)
    _printf_post_padding                     0x0800197d   Thumb Code    36  printfa.o(i._printf_post_padding)
    i._printf_pre_padding                    0x080019a0   Section        0  printfa.o(i._printf_pre_padding)
    _printf_pre_padding                      0x080019a1   Thumb Code    46  printfa.o(i._printf_pre_padding)
    i.adc_calibration_enable                 0x080019ce   Section        0  gd32f30x_adc.o(i.adc_calibration_enable)
    i.adc_channel_length_config              0x080019f8   Section        0  gd32f30x_adc.o(i.adc_channel_length_config)
    i.adc_data_alignment_config              0x08001a3e   Section        0  gd32f30x_adc.o(i.adc_data_alignment_config)
    i.adc_deinit                             0x08001a54   Section        0  gd32f30x_adc.o(i.adc_deinit)
    i.adc_enable                             0x08001aac   Section        0  gd32f30x_adc.o(i.adc_enable)
    i.adc_external_trigger_config            0x08001abe   Section        0  gd32f30x_adc.o(i.adc_external_trigger_config)
    i.adc_external_trigger_source_config     0x08001afc   Section        0  gd32f30x_adc.o(i.adc_external_trigger_source_config)
    i.adc_flag_get                           0x08001b2c   Section        0  gd32f30x_adc.o(i.adc_flag_get)
    i.adc_mode_config                        0x08001b3c   Section        0  gd32f30x_adc.o(i.adc_mode_config)
    i.adc_regular_channel_config             0x08001b58   Section        0  gd32f30x_adc.o(i.adc_regular_channel_config)
    i.adc_regular_data_read                  0x08001c04   Section        0  gd32f30x_adc.o(i.adc_regular_data_read)
    i.adc_software_trigger_enable            0x08001c0c   Section        0  gd32f30x_adc.o(i.adc_software_trigger_enable)
    i.adc_special_function_config            0x08001c2a   Section        0  gd32f30x_adc.o(i.adc_special_function_config)
    i.bkp_deinit                             0x08001c84   Section        0  gd32f30x_bkp.o(i.bkp_deinit)
    i.bkp_read_data                          0x08001c90   Section        0  gd32f30x_bkp.o(i.bkp_read_data)
    i.bkp_write_data                         0x08001cc8   Section        0  gd32f30x_bkp.o(i.bkp_write_data)
    i.dac_data_set                           0x08001cfc   Section        0  gd32f30x_dac.o(i.dac_data_set)
    i.dac_deinit                             0x08001d54   Section        0  gd32f30x_dac.o(i.dac_deinit)
    i.dac_dma_disable                        0x08001d68   Section        0  gd32f30x_dac.o(i.dac_dma_disable)
    i.dac_enable                             0x08001d8c   Section        0  gd32f30x_dac.o(i.dac_enable)
    i.dac_output_buffer_disable              0x08001db0   Section        0  gd32f30x_dac.o(i.dac_output_buffer_disable)
    i.dac_trigger_disable                    0x08001dd4   Section        0  gd32f30x_dac.o(i.dac_trigger_disable)
    i.dac_wave_mode_config                   0x08001df8   Section        0  gd32f30x_dac.o(i.dac_wave_mode_config)
    i.delay_ms                               0x08001e2c   Section        0  delay.o(i.delay_ms)
    i.delay_us                               0x08001e44   Section        0  delay.o(i.delay_us)
    i.fputc                                  0x08001e70   Section        0  usb2com_drv.o(i.fputc)
    i.gpio_bit_reset                         0x08001e98   Section        0  gd32f30x_gpio.o(i.gpio_bit_reset)
    i.gpio_bit_set                           0x08001e9c   Section        0  gd32f30x_gpio.o(i.gpio_bit_set)
    i.gpio_init                              0x08001ea0   Section        0  gd32f30x_gpio.o(i.gpio_init)
    i.main                                   0x08001f5c   Section        0  main.o(i.main)
    i.nvic_irq_enable                        0x08001f6c   Section        0  gd32f30x_misc.o(i.nvic_irq_enable)
    i.nvic_priority_group_set                0x08002030   Section        0  gd32f30x_misc.o(i.nvic_priority_group_set)
    i.pmu_backup_write_enable                0x08002044   Section        0  gd32f30x_pmu.o(i.pmu_backup_write_enable)
    i.rcu_adc_clock_config                   0x08002058   Section        0  gd32f30x_rcu.o(i.rcu_adc_clock_config)
    i.rcu_bkp_reset_disable                  0x080020c4   Section        0  gd32f30x_rcu.o(i.rcu_bkp_reset_disable)
    i.rcu_bkp_reset_enable                   0x080020d8   Section        0  gd32f30x_rcu.o(i.rcu_bkp_reset_enable)
    i.rcu_clock_freq_get                     0x080020ec   Section        0  gd32f30x_rcu.o(i.rcu_clock_freq_get)
    i.rcu_flag_get                           0x08002244   Section        0  gd32f30x_rcu.o(i.rcu_flag_get)
    i.rcu_osci_on                            0x08002268   Section        0  gd32f30x_rcu.o(i.rcu_osci_on)
    i.rcu_osci_stab_wait                     0x08002288   Section        0  gd32f30x_rcu.o(i.rcu_osci_stab_wait)
    i.rcu_periph_clock_enable                0x08002398   Section        0  gd32f30x_rcu.o(i.rcu_periph_clock_enable)
    i.rcu_periph_reset_disable               0x080023b8   Section        0  gd32f30x_rcu.o(i.rcu_periph_reset_disable)
    i.rcu_periph_reset_enable                0x080023d8   Section        0  gd32f30x_rcu.o(i.rcu_periph_reset_enable)
    i.rcu_rtc_clock_config                   0x080023f8   Section        0  gd32f30x_rcu.o(i.rcu_rtc_clock_config)
    i.regUsb2Comcb                           0x08002410   Section        0  usb2com_drv.o(i.regUsb2Comcb)
    i.rtc_configuration_mode_enter           0x0800241c   Section        0  gd32f30x_rtc.o(i.rtc_configuration_mode_enter)
    i.rtc_configuration_mode_exit            0x08002430   Section        0  gd32f30x_rtc.o(i.rtc_configuration_mode_exit)
    i.rtc_counter_get                        0x08002444   Section        0  gd32f30x_rtc.o(i.rtc_counter_get)
    i.rtc_counter_set                        0x08002458   Section        0  gd32f30x_rtc.o(i.rtc_counter_set)
    i.rtc_lwoff_wait                         0x08002478   Section        0  gd32f30x_rtc.o(i.rtc_lwoff_wait)
    i.rtc_prescaler_set                      0x0800248c   Section        0  gd32f30x_rtc.o(i.rtc_prescaler_set)
    i.rtc_register_sync_wait                 0x080024ac   Section        0  gd32f30x_rtc.o(i.rtc_register_sync_wait)
    i.system_clock_120m_hxtal                0x080024cc   Section        0  system_gd32f30x.o(i.system_clock_120m_hxtal)
    system_clock_120m_hxtal                  0x080024cd   Thumb Code   258  system_gd32f30x.o(i.system_clock_120m_hxtal)
    i.system_clock_config                    0x080025e0   Section        0  system_gd32f30x.o(i.system_clock_config)
    system_clock_config                      0x080025e1   Thumb Code     8  system_gd32f30x.o(i.system_clock_config)
    i.usart_baudrate_set                     0x080025e8   Section        0  gd32f30x_usart.o(i.usart_baudrate_set)
    i.usart_data_receive                     0x08002678   Section        0  gd32f30x_usart.o(i.usart_data_receive)
    i.usart_data_transmit                    0x08002682   Section        0  gd32f30x_usart.o(i.usart_data_transmit)
    i.usart_deinit                           0x0800268c   Section        0  gd32f30x_usart.o(i.usart_deinit)
    i.usart_enable                           0x0800271c   Section        0  gd32f30x_usart.o(i.usart_enable)
    i.usart_flag_clear                       0x08002726   Section        0  gd32f30x_usart.o(i.usart_flag_clear)
    i.usart_flag_get                         0x08002738   Section        0  gd32f30x_usart.o(i.usart_flag_get)
    i.usart_interrupt_enable                 0x08002756   Section        0  gd32f30x_usart.o(i.usart_interrupt_enable)
    i.usart_interrupt_flag_clear             0x08002770   Section        0  gd32f30x_usart.o(i.usart_interrupt_flag_clear)
    i.usart_interrupt_flag_get               0x08002782   Section        0  gd32f30x_usart.o(i.usart_interrupt_flag_get)
    i.usart_parity_config                    0x080027ba   Section        0  gd32f30x_usart.o(i.usart_parity_config)
    i.usart_receive_config                   0x080027ca   Section        0  gd32f30x_usart.o(i.usart_receive_config)
    i.usart_stop_bit_set                     0x080027de   Section        0  gd32f30x_usart.o(i.usart_stop_bit_set)
    i.usart_transmit_config                  0x080027ee   Section        0  gd32f30x_usart.o(i.usart_transmit_config)
    i.usart_word_length_set                  0x08002802   Section        0  gd32f30x_usart.o(i.usart_word_length_set)
    i.xorSum                                 0x08002812   Section        0  usb2com_app.o(i.xorSum)
    xorSum                                   0x08002813   Thumb Code    24  usb2com_app.o(i.xorSum)
    .constdata                               0x0800282a   Section       12  localtime_i.o(.constdata)
    monlen                                   0x0800282a   Data          12  localtime_i.o(.constdata)
    .data                                    0x20000000   Section        2  usb2com_app.o(.data)
    g_pktRecv                                0x20000000   Data           1  usb2com_app.o(.data)
    index                                    0x20000001   Data           1  usb2com_app.o(.data)
    .data                                    0x20000004   Section       49  main.o(.data)
    TaskComps                                0x20000004   Data          48  main.o(.data)
    .data                                    0x20000038   Section       24  led_drv.o(.data)
    .data                                    0x20000050   Section       28  usb2com_drv.o(.data)
    .data                                    0x2000006c   Section        4  stdout.o(.data)
    .bss                                     0x20000070   Section       20  usb2com_app.o(.bss)
    g_RxPackageData                          0x20000070   Data          20  usb2com_app.o(.bss)
    .bss                                     0x20000084   Section       44  localtime_w.o(.bss)
    _tms                                     0x20000084   Data          44  localtime_w.o(.bss)
    STACK                                    0x200000b0   Section     1024  startup_gd32f30x_hd.o(STACK)

    Global Symbols

    Symbol Name                              Value     Ov Type        Size  Object(Section)

    BuildAttributes$$THM_ISAv4$E$P$D$K$B$S$7EM$VFPi3$EXTD16$VFPS$VFMA$PE$A:L22UL41UL21$X:L11$S22US41US21$IEEE1$IW$USESV6$~STKCKD$USESV7$~SHL$OSPACE$ROPI$EBA8$MICROLIB$REQ8$PRES8$EABIv2 0x00000000   Number         0  anon$$obj.o ABSOLUTE
    __ARM_use_no_argv                        0x00000000   Number         0  main.o ABSOLUTE
    _printf_a                                0x00000000   Number         0  stubs.o ABSOLUTE
    _printf_c                                0x00000000   Number         0  stubs.o ABSOLUTE
    _printf_charcount                        0x00000000   Number         0  stubs.o ABSOLUTE
    _printf_d                                0x00000000   Number         0  stubs.o ABSOLUTE
    _printf_e                                0x00000000   Number         0  stubs.o ABSOLUTE
    _printf_f                                0x00000000   Number         0  stubs.o ABSOLUTE
    _printf_flags                            0x00000000   Number         0  stubs.o ABSOLUTE
    _printf_fp_dec                           0x00000000   Number         0  stubs.o ABSOLUTE
    _printf_fp_hex                           0x00000000   Number         0  stubs.o ABSOLUTE
    _printf_g                                0x00000000   Number         0  stubs.o ABSOLUTE
    _printf_i                                0x00000000   Number         0  stubs.o ABSOLUTE
    _printf_int_dec                          0x00000000   Number         0  stubs.o ABSOLUTE
    _printf_l                                0x00000000   Number         0  stubs.o ABSOLUTE
    _printf_lc                               0x00000000   Number         0  stubs.o ABSOLUTE
    _printf_ll                               0x00000000   Number         0  stubs.o ABSOLUTE
    _printf_lld                              0x00000000   Number         0  stubs.o ABSOLUTE
    _printf_lli                              0x00000000   Number         0  stubs.o ABSOLUTE
    _printf_llo                              0x00000000   Number         0  stubs.o ABSOLUTE
    _printf_llu                              0x00000000   Number         0  stubs.o ABSOLUTE
    _printf_llx                              0x00000000   Number         0  stubs.o ABSOLUTE
    _printf_longlong_dec                     0x00000000   Number         0  stubs.o ABSOLUTE
    _printf_longlong_hex                     0x00000000   Number         0  stubs.o ABSOLUTE
    _printf_longlong_oct                     0x00000000   Number         0  stubs.o ABSOLUTE
    _printf_ls                               0x00000000   Number         0  stubs.o ABSOLUTE
    _printf_mbtowc                           0x00000000   Number         0  stubs.o ABSOLUTE
    _printf_n                                0x00000000   Number         0  stubs.o ABSOLUTE
    _printf_o                                0x00000000   Number         0  stubs.o ABSOLUTE
    _printf_p                                0x00000000   Number         0  stubs.o ABSOLUTE
    _printf_percent                          0x00000000   Number         0  stubs.o ABSOLUTE
    _printf_pre_padding                      0x00000000   Number         0  stubs.o ABSOLUTE
    _printf_return_value                     0x00000000   Number         0  stubs.o ABSOLUTE
    _printf_s                                0x00000000   Number         0  stubs.o ABSOLUTE
    _printf_sizespec                         0x00000000   Number         0  stubs.o ABSOLUTE
    _printf_str                              0x00000000   Number         0  stubs.o ABSOLUTE
    _printf_truncate_signed                  0x00000000   Number         0  stubs.o ABSOLUTE
    _printf_truncate_unsigned                0x00000000   Number         0  stubs.o ABSOLUTE
    _printf_u                                0x00000000   Number         0  stubs.o ABSOLUTE
    _printf_wc                               0x00000000   Number         0  stubs.o ABSOLUTE
    _printf_wctomb                           0x00000000   Number         0  stubs.o ABSOLUTE
    _printf_widthprec                        0x00000000   Number         0  stubs.o ABSOLUTE
    _printf_x                                0x00000000   Number         0  stubs.o ABSOLUTE
    __cpp_initialize__aeabi_                  - Undefined Weak Reference
    __cxa_finalize                            - Undefined Weak Reference
    __decompress                              - Undefined Weak Reference
    _clock_init                               - Undefined Weak Reference
    _microlib_exit                            - Undefined Weak Reference
    __Vectors_Size                           0x00000130   Number         0  startup_gd32f30x_hd.o ABSOLUTE
    __Vectors                                0x08000000   Data           4  startup_gd32f30x_hd.o(RESET)
    __Vectors_End                            0x08000130   Data           0  startup_gd32f30x_hd.o(RESET)
    __main                                   0x08000131   Thumb Code     0  entry.o(.ARM.Collect$$$$00000000)
    _main_stk                                0x08000131   Thumb Code     0  entry2.o(.ARM.Collect$$$$00000001)
    _main_scatterload                        0x08000135   Thumb Code     0  entry5.o(.ARM.Collect$$$$00000004)
    __main_after_scatterload                 0x08000139   Thumb Code     0  entry5.o(.ARM.Collect$$$$00000004)
    _main_clock                              0x08000139   Thumb Code     0  entry7b.o(.ARM.Collect$$$$00000008)
    _main_cpp_init                           0x08000139   Thumb Code     0  entry8b.o(.ARM.Collect$$$$0000000A)
    _main_init                               0x08000139   Thumb Code     0  entry9a.o(.ARM.Collect$$$$0000000B)
    __rt_final_cpp                           0x08000141   Thumb Code     0  entry10a.o(.ARM.Collect$$$$0000000D)
    __rt_final_exit                          0x08000141   Thumb Code     0  entry11a.o(.ARM.Collect$$$$0000000F)
    Reset_Handler                            0x08000145   Thumb Code     8  startup_gd32f30x_hd.o(.text)
    NMI_Handler                              0x0800014d   Thumb Code     2  startup_gd32f30x_hd.o(.text)
    HardFault_Handler                        0x0800014f   Thumb Code     2  startup_gd32f30x_hd.o(.text)
    MemManage_Handler                        0x08000151   Thumb Code     2  startup_gd32f30x_hd.o(.text)
    BusFault_Handler                         0x08000153   Thumb Code     2  startup_gd32f30x_hd.o(.text)
    UsageFault_Handler                       0x08000155   Thumb Code     2  startup_gd32f30x_hd.o(.text)
    SVC_Handler                              0x08000157   Thumb Code     2  startup_gd32f30x_hd.o(.text)
    DebugMon_Handler                         0x08000159   Thumb Code     2  startup_gd32f30x_hd.o(.text)
    PendSV_Handler                           0x0800015b   Thumb Code     2  startup_gd32f30x_hd.o(.text)
    ADC0_1_IRQHandler                        0x0800015f   Thumb Code     0  startup_gd32f30x_hd.o(.text)
    ADC2_IRQHandler                          0x0800015f   Thumb Code     0  startup_gd32f30x_hd.o(.text)
    CAN0_EWMC_IRQHandler                     0x0800015f   Thumb Code     0  startup_gd32f30x_hd.o(.text)
    CAN0_RX1_IRQHandler                      0x0800015f   Thumb Code     0  startup_gd32f30x_hd.o(.text)
    DMA0_Channel0_IRQHandler                 0x0800015f   Thumb Code     0  startup_gd32f30x_hd.o(.text)
    DMA0_Channel1_IRQHandler                 0x0800015f   Thumb Code     0  startup_gd32f30x_hd.o(.text)
    DMA0_Channel2_IRQHandler                 0x0800015f   Thumb Code     0  startup_gd32f30x_hd.o(.text)
    DMA0_Channel3_IRQHandler                 0x0800015f   Thumb Code     0  startup_gd32f30x_hd.o(.text)
    DMA0_Channel4_IRQHandler                 0x0800015f   Thumb Code     0  startup_gd32f30x_hd.o(.text)
    DMA0_Channel5_IRQHandler                 0x0800015f   Thumb Code     0  startup_gd32f30x_hd.o(.text)
    DMA0_Channel6_IRQHandler                 0x0800015f   Thumb Code     0  startup_gd32f30x_hd.o(.text)
    DMA1_Channel0_IRQHandler                 0x0800015f   Thumb Code     0  startup_gd32f30x_hd.o(.text)
    DMA1_Channel1_IRQHandler                 0x0800015f   Thumb Code     0  startup_gd32f30x_hd.o(.text)
    DMA1_Channel2_IRQHandler                 0x0800015f   Thumb Code     0  startup_gd32f30x_hd.o(.text)
    DMA1_Channel3_4_IRQHandler               0x0800015f   Thumb Code     0  startup_gd32f30x_hd.o(.text)
    EXMC_IRQHandler                          0x0800015f   Thumb Code     0  startup_gd32f30x_hd.o(.text)
    EXTI0_IRQHandler                         0x0800015f   Thumb Code     0  startup_gd32f30x_hd.o(.text)
    EXTI10_15_IRQHandler                     0x0800015f   Thumb Code     0  startup_gd32f30x_hd.o(.text)
    EXTI1_IRQHandler                         0x0800015f   Thumb Code     0  startup_gd32f30x_hd.o(.text)
    EXTI2_IRQHandler                         0x0800015f   Thumb Code     0  startup_gd32f30x_hd.o(.text)
    EXTI3_IRQHandler                         0x0800015f   Thumb Code     0  startup_gd32f30x_hd.o(.text)
    EXTI4_IRQHandler                         0x0800015f   Thumb Code     0  startup_gd32f30x_hd.o(.text)
    EXTI5_9_IRQHandler                       0x0800015f   Thumb Code     0  startup_gd32f30x_hd.o(.text)
    FMC_IRQHandler                           0x0800015f   Thumb Code     0  startup_gd32f30x_hd.o(.text)
    I2C0_ER_IRQHandler                       0x0800015f   Thumb Code     0  startup_gd32f30x_hd.o(.text)
    I2C0_EV_IRQHandler                       0x0800015f   Thumb Code     0  startup_gd32f30x_hd.o(.text)
    I2C1_ER_IRQHandler                       0x0800015f   Thumb Code     0  startup_gd32f30x_hd.o(.text)
    I2C1_EV_IRQHandler                       0x0800015f   Thumb Code     0  startup_gd32f30x_hd.o(.text)
    LVD_IRQHandler                           0x0800015f   Thumb Code     0  startup_gd32f30x_hd.o(.text)
    RCU_CTC_IRQHandler                       0x0800015f   Thumb Code     0  startup_gd32f30x_hd.o(.text)
    RTC_Alarm_IRQHandler                     0x0800015f   Thumb Code     0  startup_gd32f30x_hd.o(.text)
    RTC_IRQHandler                           0x0800015f   Thumb Code     0  startup_gd32f30x_hd.o(.text)
    SDIO_IRQHandler                          0x0800015f   Thumb Code     0  startup_gd32f30x_hd.o(.text)
    SPI0_IRQHandler                          0x0800015f   Thumb Code     0  startup_gd32f30x_hd.o(.text)
    SPI1_IRQHandler                          0x0800015f   Thumb Code     0  startup_gd32f30x_hd.o(.text)
    SPI2_IRQHandler                          0x0800015f   Thumb Code     0  startup_gd32f30x_hd.o(.text)
    TAMPER_IRQHandler                        0x0800015f   Thumb Code     0  startup_gd32f30x_hd.o(.text)
    TIMER0_BRK_IRQHandler                    0x0800015f   Thumb Code     0  startup_gd32f30x_hd.o(.text)
    TIMER0_Channel_IRQHandler                0x0800015f   Thumb Code     0  startup_gd32f30x_hd.o(.text)
    TIMER0_TRG_CMT_IRQHandler                0x0800015f   Thumb Code     0  startup_gd32f30x_hd.o(.text)
    TIMER0_UP_IRQHandler                     0x0800015f   Thumb Code     0  startup_gd32f30x_hd.o(.text)
    TIMER1_IRQHandler                        0x0800015f   Thumb Code     0  startup_gd32f30x_hd.o(.text)
    TIMER2_IRQHandler                        0x0800015f   Thumb Code     0  startup_gd32f30x_hd.o(.text)
    TIMER3_IRQHandler                        0x0800015f   Thumb Code     0  startup_gd32f30x_hd.o(.text)
    TIMER4_IRQHandler                        0x0800015f   Thumb Code     0  startup_gd32f30x_hd.o(.text)
    TIMER5_IRQHandler                        0x0800015f   Thumb Code     0  startup_gd32f30x_hd.o(.text)
    TIMER6_IRQHandler                        0x0800015f   Thumb Code     0  startup_gd32f30x_hd.o(.text)
    TIMER7_BRK_IRQHandler                    0x0800015f   Thumb Code     0  startup_gd32f30x_hd.o(.text)
    TIMER7_Channel_IRQHandler                0x0800015f   Thumb Code     0  startup_gd32f30x_hd.o(.text)
    TIMER7_TRG_CMT_IRQHandler                0x0800015f   Thumb Code     0  startup_gd32f30x_hd.o(.text)
    TIMER7_UP_IRQHandler                     0x0800015f   Thumb Code     0  startup_gd32f30x_hd.o(.text)
    UART3_IRQHandler                         0x0800015f   Thumb Code     0  startup_gd32f30x_hd.o(.text)
    UART4_IRQHandler                         0x0800015f   Thumb Code     0  startup_gd32f30x_hd.o(.text)
    USART1_IRQHandler                        0x0800015f   Thumb Code     0  startup_gd32f30x_hd.o(.text)
    USART2_IRQHandler                        0x0800015f   Thumb Code     0  startup_gd32f30x_hd.o(.text)
    USBD_HP_CAN0_TX_IRQHandler               0x0800015f   Thumb Code     0  startup_gd32f30x_hd.o(.text)
    USBD_LP_CAN0_RX0_IRQHandler              0x0800015f   Thumb Code     0  startup_gd32f30x_hd.o(.text)
    USBD_WKUP_IRQHandler                     0x0800015f   Thumb Code     0  startup_gd32f30x_hd.o(.text)
    WWDGT_IRQHandler                         0x0800015f   Thumb Code     0  startup_gd32f30x_hd.o(.text)
    __aeabi_dmul                             0x08000169   Thumb Code   228  dmul.o(.text)
    __aeabi_ddiv                             0x0800024d   Thumb Code   222  ddiv.o(.text)
    __aeabi_ui2d                             0x0800032b   Thumb Code    26  dfltui.o(.text)
    __aeabi_d2uiz                            0x08000345   Thumb Code    50  dfixui.o(.text)
    __aeabi_f2d                              0x08000377   Thumb Code    38  f2d.o(.text)
    __aeabi_cdrcmple                         0x0800039d   Thumb Code    48  cdrcmple.o(.text)
    __aeabi_uidiv                            0x080003cd   Thumb Code     0  uidiv.o(.text)
    __aeabi_uidivmod                         0x080003cd   Thumb Code    44  uidiv.o(.text)
    __aeabi_uldivmod                         0x080003f9   Thumb Code    98  uldiv.o(.text)
    __aeabi_llsr                             0x0800045b   Thumb Code    32  llushr.o(.text)
    _ll_ushift_r                             0x0800045b   Thumb Code     0  llushr.o(.text)
    localtime                                0x0800047d   Thumb Code     6  localtime_w.o(.text)
    _localtime                               0x08000489   Thumb Code   134  localtime_i.o(.text)
    __I$use$fp                               0x08000515   Thumb Code     0  iusefp.o(.text)
    _double_round                            0x08000515   Thumb Code    30  depilogue.o(.text)
    _double_epilogue                         0x08000533   Thumb Code   156  depilogue.o(.text)
    __aeabi_dadd                             0x080005cf   Thumb Code   322  dadd.o(.text)
    __aeabi_dsub                             0x08000711   Thumb Code     6  dadd.o(.text)
    __aeabi_drsub                            0x08000717   Thumb Code     6  dadd.o(.text)
    __aeabi_d2ulz                            0x0800071d   Thumb Code    48  dfixul.o(.text)
    __scatterload                            0x0800074d   Thumb Code    28  init.o(.text)
    __scatterload_rt2                        0x0800074d   Thumb Code     0  init.o(.text)
    __aeabi_llsl                             0x08000771   Thumb Code    30  llshl.o(.text)
    _ll_shift_l                              0x08000771   Thumb Code     0  llshl.o(.text)
    __aeabi_lasr                             0x0800078f   Thumb Code    36  llsshr.o(.text)
    _ll_sshift_r                             0x0800078f   Thumb Code     0  llsshr.o(.text)
    AdcDrvInit                               0x08000821   Thumb Code    12  adc_drv.o(i.AdcDrvInit)
    AdcDrvTest                               0x0800082d   Thumb Code    82  adc_drv.o(i.AdcDrvTest)
    DacDrvInit                               0x080009bd   Thumb Code    12  dac_drv.o(i.DacDrvInit)
    DacDrvTest                               0x080009c9   Thumb Code    12  dac_drv.o(i.DacDrvTest)
    Dac_Set_Vol                              0x080009f1   Thumb Code   176  dac_drv.o(i.Dac_Set_Vol)
    DelayInit                                0x08000ae1   Thumb Code    50  delay.o(i.DelayInit)
    GetRtcTime                               0x08000b1d   Thumb Code    54  rtc_drv.o(i.GetRtcTime)
    Get_Adc_Average                          0x08000b53   Thumb Code    40  adc_drv.o(i.Get_Adc_Average)
    LedDrvInit                               0x08000bb5   Thumb Code    86  led_drv.o(i.LedDrvInit)
    RtcDrvInit                               0x08000c9d   Thumb Code   140  rtc_drv.o(i.RtcDrvInit)
    RtcDrvTest                               0x08000d2d   Thumb Code    50  rtc_drv.o(i.RtcDrvTest)
    SysTick_Handler                          0x08000d8d   Thumb Code     8  systick_drv.o(i.SysTick_Handler)
    SystemInit                               0x08000d95   Thumb Code   156  system_gd32f30x.o(i.SystemInit)
    SystickDrvInit                           0x08000e3d   Thumb Code    78  systick_drv.o(i.SystickDrvInit)
    TaskHandler                              0x08000e8d   Thumb Code    56  main.o(i.TaskHandler)
    TaskSchedule                             0x08000ecd   Thumb Code   100  main.o(i.TaskSchedule)
    TurnOffLed                               0x08000f39   Thumb Code    40  led_drv.o(i.TurnOffLed)
    TurnOnLed                                0x08000f65   Thumb Code    40  led_drv.o(i.TurnOnLed)
    USART0_IRQHandler                        0x08000f91   Thumb Code    54  usb2com_drv.o(i.USART0_IRQHandler)
    Usb2ComAppInit                           0x08000fd5   Thumb Code    10  usb2com_app.o(i.Usb2ComAppInit)
    Usb2ComDrvInit                           0x08000fe5   Thumb Code   164  usb2com_drv.o(i.Usb2ComDrvInit)
    Usb2ComTask                              0x0800108d   Thumb Code    72  usb2com_app.o(i.Usb2ComTask)
    __0printf                                0x080010dd   Thumb Code    22  printfa.o(i.__0printf)
    __1printf                                0x080010dd   Thumb Code     0  printfa.o(i.__0printf)
    __2printf                                0x080010dd   Thumb Code     0  printfa.o(i.__0printf)
    __c89printf                              0x080010dd   Thumb Code     0  printfa.o(i.__0printf)
    printf                                   0x080010dd   Thumb Code     0  printfa.o(i.__0printf)
    __scatterload_copy                       0x080010fd   Thumb Code    14  handlers.o(i.__scatterload_copy)
    __scatterload_null                       0x0800110b   Thumb Code     2  handlers.o(i.__scatterload_null)
    __scatterload_zeroinit                   0x0800110d   Thumb Code    14  handlers.o(i.__scatterload_zeroinit)
    adc_calibration_enable                   0x080019cf   Thumb Code    42  gd32f30x_adc.o(i.adc_calibration_enable)
    adc_channel_length_config                0x080019f9   Thumb Code    70  gd32f30x_adc.o(i.adc_channel_length_config)
    adc_data_alignment_config                0x08001a3f   Thumb Code    22  gd32f30x_adc.o(i.adc_data_alignment_config)
    adc_deinit                               0x08001a55   Thumb Code    84  gd32f30x_adc.o(i.adc_deinit)
    adc_enable                               0x08001aad   Thumb Code    18  gd32f30x_adc.o(i.adc_enable)
    adc_external_trigger_config              0x08001abf   Thumb Code    62  gd32f30x_adc.o(i.adc_external_trigger_config)
    adc_external_trigger_source_config       0x08001afd   Thumb Code    48  gd32f30x_adc.o(i.adc_external_trigger_source_config)
    adc_flag_get                             0x08001b2d   Thumb Code    14  gd32f30x_adc.o(i.adc_flag_get)
    adc_mode_config                          0x08001b3d   Thumb Code    22  gd32f30x_adc.o(i.adc_mode_config)
    adc_regular_channel_config               0x08001b59   Thumb Code   172  gd32f30x_adc.o(i.adc_regular_channel_config)
    adc_regular_data_read                    0x08001c05   Thumb Code     8  gd32f30x_adc.o(i.adc_regular_data_read)
    adc_software_trigger_enable              0x08001c0d   Thumb Code    30  gd32f30x_adc.o(i.adc_software_trigger_enable)
    adc_special_function_config              0x08001c2b   Thumb Code    90  gd32f30x_adc.o(i.adc_special_function_config)
    bkp_deinit                               0x08001c85   Thumb Code    12  gd32f30x_bkp.o(i.bkp_deinit)
    bkp_read_data                            0x08001c91   Thumb Code    50  gd32f30x_bkp.o(i.bkp_read_data)
    bkp_write_data                           0x08001cc9   Thumb Code    46  gd32f30x_bkp.o(i.bkp_write_data)
    dac_data_set                             0x08001cfd   Thumb Code    82  gd32f30x_dac.o(i.dac_data_set)
    dac_deinit                               0x08001d55   Thumb Code    20  gd32f30x_dac.o(i.dac_deinit)
    dac_dma_disable                          0x08001d69   Thumb Code    30  gd32f30x_dac.o(i.dac_dma_disable)
    dac_enable                               0x08001d8d   Thumb Code    30  gd32f30x_dac.o(i.dac_enable)
    dac_output_buffer_disable                0x08001db1   Thumb Code    30  gd32f30x_dac.o(i.dac_output_buffer_disable)
    dac_trigger_disable                      0x08001dd5   Thumb Code    30  gd32f30x_dac.o(i.dac_trigger_disable)
    dac_wave_mode_config                     0x08001df9   Thumb Code    48  gd32f30x_dac.o(i.dac_wave_mode_config)
    delay_ms                                 0x08001e2d   Thumb Code    24  delay.o(i.delay_ms)
    delay_us                                 0x08001e45   Thumb Code    34  delay.o(i.delay_us)
    fputc                                    0x08001e71   Thumb Code    36  usb2com_drv.o(i.fputc)
    gpio_bit_reset                           0x08001e99   Thumb Code     4  gd32f30x_gpio.o(i.gpio_bit_reset)
    gpio_bit_set                             0x08001e9d   Thumb Code     4  gd32f30x_gpio.o(i.gpio_bit_set)
    gpio_init                                0x08001ea1   Thumb Code   188  gd32f30x_gpio.o(i.gpio_init)
    main                                     0x08001f5d   Thumb Code    16  main.o(i.main)
    nvic_irq_enable                          0x08001f6d   Thumb Code   186  gd32f30x_misc.o(i.nvic_irq_enable)
    nvic_priority_group_set                  0x08002031   Thumb Code    10  gd32f30x_misc.o(i.nvic_priority_group_set)
    pmu_backup_write_enable                  0x08002045   Thumb Code    14  gd32f30x_pmu.o(i.pmu_backup_write_enable)
    rcu_adc_clock_config                     0x08002059   Thumb Code    98  gd32f30x_rcu.o(i.rcu_adc_clock_config)
    rcu_bkp_reset_disable                    0x080020c5   Thumb Code    14  gd32f30x_rcu.o(i.rcu_bkp_reset_disable)
    rcu_bkp_reset_enable                     0x080020d9   Thumb Code    14  gd32f30x_rcu.o(i.rcu_bkp_reset_enable)
    rcu_clock_freq_get                       0x080020ed   Thumb Code   310  gd32f30x_rcu.o(i.rcu_clock_freq_get)
    rcu_flag_get                             0x08002245   Thumb Code    30  gd32f30x_rcu.o(i.rcu_flag_get)
    rcu_osci_on                              0x08002269   Thumb Code    28  gd32f30x_rcu.o(i.rcu_osci_on)
    rcu_osci_stab_wait                       0x08002289   Thumb Code   268  gd32f30x_rcu.o(i.rcu_osci_stab_wait)
    rcu_periph_clock_enable                  0x08002399   Thumb Code    28  gd32f30x_rcu.o(i.rcu_periph_clock_enable)
    rcu_periph_reset_disable                 0x080023b9   Thumb Code    28  gd32f30x_rcu.o(i.rcu_periph_reset_disable)
    rcu_periph_reset_enable                  0x080023d9   Thumb Code    28  gd32f30x_rcu.o(i.rcu_periph_reset_enable)
    rcu_rtc_clock_config                     0x080023f9   Thumb Code    18  gd32f30x_rcu.o(i.rcu_rtc_clock_config)
    regUsb2Comcb                             0x08002411   Thumb Code     8  usb2com_drv.o(i.regUsb2Comcb)
    rtc_configuration_mode_enter             0x0800241d   Thumb Code    14  gd32f30x_rtc.o(i.rtc_configuration_mode_enter)
    rtc_configuration_mode_exit              0x08002431   Thumb Code    14  gd32f30x_rtc.o(i.rtc_configuration_mode_exit)
    rtc_counter_get                          0x08002445   Thumb Code    16  gd32f30x_rtc.o(i.rtc_counter_get)
    rtc_counter_set                          0x08002459   Thumb Code    26  gd32f30x_rtc.o(i.rtc_counter_set)
    rtc_lwoff_wait                           0x08002479   Thumb Code    16  gd32f30x_rtc.o(i.rtc_lwoff_wait)
    rtc_prescaler_set                        0x0800248d   Thumb Code    28  gd32f30x_rtc.o(i.rtc_prescaler_set)
    rtc_register_sync_wait                   0x080024ad   Thumb Code    28  gd32f30x_rtc.o(i.rtc_register_sync_wait)
    usart_baudrate_set                       0x080025e9   Thumb Code   136  gd32f30x_usart.o(i.usart_baudrate_set)
    usart_data_receive                       0x08002679   Thumb Code    10  gd32f30x_usart.o(i.usart_data_receive)
    usart_data_transmit                      0x08002683   Thumb Code     8  gd32f30x_usart.o(i.usart_data_transmit)
    usart_deinit                             0x0800268d   Thumb Code   136  gd32f30x_usart.o(i.usart_deinit)
    usart_enable                             0x0800271d   Thumb Code    10  gd32f30x_usart.o(i.usart_enable)
    usart_flag_clear                         0x08002727   Thumb Code    18  gd32f30x_usart.o(i.usart_flag_clear)
    usart_flag_get                           0x08002739   Thumb Code    30  gd32f30x_usart.o(i.usart_flag_get)
    usart_interrupt_enable                   0x08002757   Thumb Code    26  gd32f30x_usart.o(i.usart_interrupt_enable)
    usart_interrupt_flag_clear               0x08002771   Thumb Code    18  gd32f30x_usart.o(i.usart_interrupt_flag_clear)
    usart_interrupt_flag_get                 0x08002783   Thumb Code    56  gd32f30x_usart.o(i.usart_interrupt_flag_get)
    usart_parity_config                      0x080027bb   Thumb Code    16  gd32f30x_usart.o(i.usart_parity_config)
    usart_receive_config                     0x080027cb   Thumb Code    20  gd32f30x_usart.o(i.usart_receive_config)
    usart_stop_bit_set                       0x080027df   Thumb Code    16  gd32f30x_usart.o(i.usart_stop_bit_set)
    usart_transmit_config                    0x080027ef   Thumb Code    20  gd32f30x_usart.o(i.usart_transmit_config)
    usart_word_length_set                    0x08002803   Thumb Code    16  gd32f30x_usart.o(i.usart_word_length_set)
    Region$$Table$$Base                      0x08002838   Number         0  anon$$obj.o(Region$$Table)
    Region$$Table$$Limit                     0x08002858   Number         0  anon$$obj.o(Region$$Table)
    len                                      0x20000034   Data           1  main.o(.data)
    g_gpioList                               0x20000038   Data          24  led_drv.o(.data)
    g_Usb2comUart0                           0x20000050   Data          24  usb2com_drv.o(.data)
    uartProcessUartData                      0x20000068   Data           4  usb2com_drv.o(.data)
    __stdout                                 0x2000006c   Data           4  stdout.o(.data)
    __initial_sp                             0x200004b0   Data           0  startup_gd32f30x_hd.o(STACK)



==============================================================================

Memory Map of the image

  Image Entry point : 0x08000131

  Load Region LR_IROM1 (Base: 0x08000000, Size: 0x000028c8, Max: 0x00040000, ABSOLUTE)

    Execution Region ER_IROM1 (Exec base: 0x08000000, Load base: 0x08000000, Size: 0x00002858, Max: 0x00040000, ABSOLUTE)

    Exec Addr    Load Addr    Size         Type   Attr      Idx    E Section Name        Object

    0x08000000   0x08000000   0x00000130   Data   RO          536    RESET               startup_gd32f30x_hd.o
    0x08000130   0x08000130   0x00000000   Code   RO         2713  * .ARM.Collect$$$$00000000  mc_w.l(entry.o)
    0x08000130   0x08000130   0x00000004   Code   RO         2996    .ARM.Collect$$$$00000001  mc_w.l(entry2.o)
    0x08000134   0x08000134   0x00000004   Code   RO         2999    .ARM.Collect$$$$00000004  mc_w.l(entry5.o)
    0x08000138   0x08000138   0x00000000   Code   RO         3001    .ARM.Collect$$$$00000008  mc_w.l(entry7b.o)
    0x08000138   0x08000138   0x00000000   Code   RO         3003    .ARM.Collect$$$$0000000A  mc_w.l(entry8b.o)
    0x08000138   0x08000138   0x00000008   Code   RO         3004    .ARM.Collect$$$$0000000B  mc_w.l(entry9a.o)
    0x08000140   0x08000140   0x00000000   Code   RO         3006    .ARM.Collect$$$$0000000D  mc_w.l(entry10a.o)
    0x08000140   0x08000140   0x00000000   Code   RO         3008    .ARM.Collect$$$$0000000F  mc_w.l(entry11a.o)
    0x08000140   0x08000140   0x00000004   Code   RO         2997    .ARM.Collect$$$$00002712  mc_w.l(entry2.o)
    0x08000144   0x08000144   0x00000024   Code   RO          537    .text               startup_gd32f30x_hd.o
    0x08000168   0x08000168   0x000000e4   Code   RO         2984    .text               mf_w.l(dmul.o)
    0x0800024c   0x0800024c   0x000000de   Code   RO         2986    .text               mf_w.l(ddiv.o)
    0x0800032a   0x0800032a   0x0000001a   Code   RO         2988    .text               mf_w.l(dfltui.o)
    0x08000344   0x08000344   0x00000032   Code   RO         2990    .text               mf_w.l(dfixui.o)
    0x08000376   0x08000376   0x00000026   Code   RO         2992    .text               mf_w.l(f2d.o)
    0x0800039c   0x0800039c   0x00000030   Code   RO         2994    .text               mf_w.l(cdrcmple.o)
    0x080003cc   0x080003cc   0x0000002c   Code   RO         3011    .text               mc_w.l(uidiv.o)
    0x080003f8   0x080003f8   0x00000062   Code   RO         3013    .text               mc_w.l(uldiv.o)
    0x0800045a   0x0800045a   0x00000020   Code   RO         3015    .text               mc_w.l(llushr.o)
    0x0800047a   0x0800047a   0x00000002   PAD
    0x0800047c   0x0800047c   0x0000000c   Code   RO         3017    .text               mc_w.l(localtime_w.o)
    0x08000488   0x08000488   0x0000008c   Code   RO         3020    .text               mc_w.l(localtime_i.o)
    0x08000514   0x08000514   0x00000000   Code   RO         3023    .text               mc_w.l(iusefp.o)
    0x08000514   0x08000514   0x000000ba   Code   RO         3024    .text               mf_w.l(depilogue.o)
    0x080005ce   0x080005ce   0x0000014e   Code   RO         3026    .text               mf_w.l(dadd.o)
    0x0800071c   0x0800071c   0x00000030   Code   RO         3028    .text               mf_w.l(dfixul.o)
    0x0800074c   0x0800074c   0x00000024   Code   RO         3030    .text               mc_w.l(init.o)
    0x08000770   0x08000770   0x0000001e   Code   RO         3032    .text               mc_w.l(llshl.o)
    0x0800078e   0x0800078e   0x00000024   Code   RO         3034    .text               mc_w.l(llsshr.o)
    0x080007b2   0x080007b2   0x00000002   PAD
    0x080007b4   0x080007b4   0x0000006c   Code   RO          252    i.AdcConfigInit     adc_drv.o
    0x08000820   0x08000820   0x0000000c   Code   RO          253    i.AdcDrvInit        adc_drv.o
    0x0800082c   0x0800082c   0x00000078   Code   RO          254    i.AdcDrvTest        adc_drv.o
    0x080008a4   0x080008a4   0x0000001c   Code   RO          255    i.AdcGpioInit       adc_drv.o
    0x080008c0   0x080008c0   0x00000008   Code   RO           61    i.AllAppInit        main.o
    0x080008c8   0x080008c8   0x00000024   Code   RO           62    i.AllDrvInit        main.o
    0x080008ec   0x080008ec   0x00000078   Code   RO            1    i.CtlDac            usb2com_app.o
    0x08000964   0x08000964   0x00000018   Code   RO            2    i.CtlLed            usb2com_app.o
    0x0800097c   0x0800097c   0x00000040   Code   RO          401    i.DacConfgInit      dac_drv.o
    0x080009bc   0x080009bc   0x0000000c   Code   RO          402    i.DacDrvInit        dac_drv.o
    0x080009c8   0x080009c8   0x0000000c   Code   RO          403    i.DacDrvTest        dac_drv.o
    0x080009d4   0x080009d4   0x0000001c   Code   RO          404    i.DacGpioInit       dac_drv.o
    0x080009f0   0x080009f0   0x000000f0   Code   RO          405    i.Dac_Set_Vol       dac_drv.o
    0x08000ae0   0x08000ae0   0x0000003c   Code   RO          220    i.DelayInit         delay.o
    0x08000b1c   0x08000b1c   0x00000036   Code   RO          450    i.GetRtcTime        rtc_drv.o
    0x08000b52   0x08000b52   0x00000028   Code   RO          256    i.Get_Adc_Average   adc_drv.o
    0x08000b7a   0x08000b7a   0x00000002   PAD
    0x08000b7c   0x08000b7c   0x00000038   Code   RO          257    i.Get_Adc_Value     adc_drv.o
    0x08000bb4   0x08000bb4   0x0000005c   Code   RO          309    i.LedDrvInit        led_drv.o
    0x08000c10   0x08000c10   0x00000028   Code   RO          498    i.NVIC_SetPriority  systick_drv.o
    0x08000c38   0x08000c38   0x00000064   Code   RO            3    i.ProcessUartData   usb2com_app.o
    0x08000c9c   0x08000c9c   0x00000090   Code   RO          451    i.RtcDrvInit        rtc_drv.o
    0x08000d2c   0x08000d2c   0x00000060   Code   RO          452    i.RtcDrvTest        rtc_drv.o
    0x08000d8c   0x08000d8c   0x00000008   Code   RO          499    i.SysTick_Handler   systick_drv.o
    0x08000d94   0x08000d94   0x000000a8   Code   RO          544    i.SystemInit        system_gd32f30x.o
    0x08000e3c   0x08000e3c   0x0000004e   Code   RO          500    i.SystickDrvInit    systick_drv.o
    0x08000e8a   0x08000e8a   0x00000002   PAD
    0x08000e8c   0x08000e8c   0x00000040   Code   RO           63    i.TaskHandler       main.o
    0x08000ecc   0x08000ecc   0x0000006c   Code   RO           64    i.TaskSchedule      main.o
    0x08000f38   0x08000f38   0x0000002c   Code   RO          311    i.TurnOffLed        led_drv.o
    0x08000f64   0x08000f64   0x0000002c   Code   RO          312    i.TurnOnLed         led_drv.o
    0x08000f90   0x08000f90   0x00000044   Code   RO          350    i.USART0_IRQHandler  usb2com_drv.o
    0x08000fd4   0x08000fd4   0x00000010   Code   RO            4    i.Usb2ComAppInit    usb2com_app.o
    0x08000fe4   0x08000fe4   0x000000a8   Code   RO          351    i.Usb2ComDrvInit    usb2com_drv.o
    0x0800108c   0x0800108c   0x00000050   Code   RO            5    i.Usb2ComTask       usb2com_app.o
    0x080010dc   0x080010dc   0x00000020   Code   RO         2956    i.__0printf         mc_w.l(printfa.o)
    0x080010fc   0x080010fc   0x0000000e   Code   RO         3038    i.__scatterload_copy  mc_w.l(handlers.o)
    0x0800110a   0x0800110a   0x00000002   Code   RO         3039    i.__scatterload_null  mc_w.l(handlers.o)
    0x0800110c   0x0800110c   0x0000000e   Code   RO         3040    i.__scatterload_zeroinit  mc_w.l(handlers.o)
    0x0800111a   0x0800111a   0x00000002   PAD
    0x0800111c   0x0800111c   0x00000184   Code   RO         2963    i._fp_digits        mc_w.l(printfa.o)
    0x080012a0   0x080012a0   0x000006dc   Code   RO         2964    i._printf_core      mc_w.l(printfa.o)
    0x0800197c   0x0800197c   0x00000024   Code   RO         2965    i._printf_post_padding  mc_w.l(printfa.o)
    0x080019a0   0x080019a0   0x0000002e   Code   RO         2966    i._printf_pre_padding  mc_w.l(printfa.o)
    0x080019ce   0x080019ce   0x0000002a   Code   RO         1533    i.adc_calibration_enable  gd32f30x_adc.o
    0x080019f8   0x080019f8   0x00000046   Code   RO         1534    i.adc_channel_length_config  gd32f30x_adc.o
    0x08001a3e   0x08001a3e   0x00000016   Code   RO         1535    i.adc_data_alignment_config  gd32f30x_adc.o
    0x08001a54   0x08001a54   0x00000058   Code   RO         1536    i.adc_deinit        gd32f30x_adc.o
    0x08001aac   0x08001aac   0x00000012   Code   RO         1541    i.adc_enable        gd32f30x_adc.o
    0x08001abe   0x08001abe   0x0000003e   Code   RO         1542    i.adc_external_trigger_config  gd32f30x_adc.o
    0x08001afc   0x08001afc   0x00000030   Code   RO         1543    i.adc_external_trigger_source_config  gd32f30x_adc.o
    0x08001b2c   0x08001b2c   0x0000000e   Code   RO         1545    i.adc_flag_get      gd32f30x_adc.o
    0x08001b3a   0x08001b3a   0x00000002   PAD
    0x08001b3c   0x08001b3c   0x0000001c   Code   RO         1553    i.adc_mode_config   gd32f30x_adc.o
    0x08001b58   0x08001b58   0x000000ac   Code   RO         1557    i.adc_regular_channel_config  gd32f30x_adc.o
    0x08001c04   0x08001c04   0x00000008   Code   RO         1558    i.adc_regular_data_read  gd32f30x_adc.o
    0x08001c0c   0x08001c0c   0x0000001e   Code   RO         1560    i.adc_software_trigger_enable  gd32f30x_adc.o
    0x08001c2a   0x08001c2a   0x0000005a   Code   RO         1561    i.adc_special_function_config  gd32f30x_adc.o
    0x08001c84   0x08001c84   0x0000000c   Code   RO         2000    i.bkp_deinit        gd32f30x_bkp.o
    0x08001c90   0x08001c90   0x00000038   Code   RO         2005    i.bkp_read_data     gd32f30x_bkp.o
    0x08001cc8   0x08001cc8   0x00000034   Code   RO         2019    i.bkp_write_data    gd32f30x_bkp.o
    0x08001cfc   0x08001cfc   0x00000058   Code   RO         1376    i.dac_data_set      gd32f30x_dac.o
    0x08001d54   0x08001d54   0x00000014   Code   RO         1377    i.dac_deinit        gd32f30x_dac.o
    0x08001d68   0x08001d68   0x00000024   Code   RO         1379    i.dac_dma_disable   gd32f30x_dac.o
    0x08001d8c   0x08001d8c   0x00000024   Code   RO         1381    i.dac_enable        gd32f30x_dac.o
    0x08001db0   0x08001db0   0x00000024   Code   RO         1383    i.dac_output_buffer_disable  gd32f30x_dac.o
    0x08001dd4   0x08001dd4   0x00000024   Code   RO         1389    i.dac_trigger_disable  gd32f30x_dac.o
    0x08001df8   0x08001df8   0x00000034   Code   RO         1393    i.dac_wave_mode_config  gd32f30x_dac.o
    0x08001e2c   0x08001e2c   0x00000018   Code   RO          221    i.delay_ms          delay.o
    0x08001e44   0x08001e44   0x0000002c   Code   RO          222    i.delay_us          delay.o
    0x08001e70   0x08001e70   0x00000028   Code   RO          353    i.fputc             usb2com_drv.o
    0x08001e98   0x08001e98   0x00000004   Code   RO          919    i.gpio_bit_reset    gd32f30x_gpio.o
    0x08001e9c   0x08001e9c   0x00000004   Code   RO          920    i.gpio_bit_set      gd32f30x_gpio.o
    0x08001ea0   0x08001ea0   0x000000bc   Code   RO          929    i.gpio_init         gd32f30x_gpio.o
    0x08001f5c   0x08001f5c   0x00000010   Code   RO           65    i.main              main.o
    0x08001f6c   0x08001f6c   0x000000c4   Code   RO         1853    i.nvic_irq_enable   gd32f30x_misc.o
    0x08002030   0x08002030   0x00000014   Code   RO         1854    i.nvic_priority_group_set  gd32f30x_misc.o
    0x08002044   0x08002044   0x00000014   Code   RO         2138    i.pmu_backup_write_enable  gd32f30x_pmu.o
    0x08002058   0x08002058   0x0000006c   Code   RO          598    i.rcu_adc_clock_config  gd32f30x_rcu.o
    0x080020c4   0x080020c4   0x00000014   Code   RO          603    i.rcu_bkp_reset_disable  gd32f30x_rcu.o
    0x080020d8   0x080020d8   0x00000014   Code   RO          604    i.rcu_bkp_reset_enable  gd32f30x_rcu.o
    0x080020ec   0x080020ec   0x00000158   Code   RO          607    i.rcu_clock_freq_get  gd32f30x_rcu.o
    0x08002244   0x08002244   0x00000024   Code   RO          610    i.rcu_flag_get      gd32f30x_rcu.o
    0x08002268   0x08002268   0x00000020   Code   RO          622    i.rcu_osci_on       gd32f30x_rcu.o
    0x08002288   0x08002288   0x00000110   Code   RO          623    i.rcu_osci_stab_wait  gd32f30x_rcu.o
    0x08002398   0x08002398   0x00000020   Code   RO          625    i.rcu_periph_clock_enable  gd32f30x_rcu.o
    0x080023b8   0x080023b8   0x00000020   Code   RO          628    i.rcu_periph_reset_disable  gd32f30x_rcu.o
    0x080023d8   0x080023d8   0x00000020   Code   RO          629    i.rcu_periph_reset_enable  gd32f30x_rcu.o
    0x080023f8   0x080023f8   0x00000018   Code   RO          633    i.rcu_rtc_clock_config  gd32f30x_rcu.o
    0x08002410   0x08002410   0x0000000c   Code   RO          354    i.regUsb2Comcb      usb2com_drv.o
    0x0800241c   0x0800241c   0x00000014   Code   RO         1909    i.rtc_configuration_mode_enter  gd32f30x_rtc.o
    0x08002430   0x08002430   0x00000014   Code   RO         1910    i.rtc_configuration_mode_exit  gd32f30x_rtc.o
    0x08002444   0x08002444   0x00000014   Code   RO         1911    i.rtc_counter_get   gd32f30x_rtc.o
    0x08002458   0x08002458   0x00000020   Code   RO         1912    i.rtc_counter_set   gd32f30x_rtc.o
    0x08002478   0x08002478   0x00000014   Code   RO         1918    i.rtc_lwoff_wait    gd32f30x_rtc.o
    0x0800248c   0x0800248c   0x00000020   Code   RO         1919    i.rtc_prescaler_set  gd32f30x_rtc.o
    0x080024ac   0x080024ac   0x00000020   Code   RO         1920    i.rtc_register_sync_wait  gd32f30x_rtc.o
    0x080024cc   0x080024cc   0x00000114   Code   RO          545    i.system_clock_120m_hxtal  system_gd32f30x.o
    0x080025e0   0x080025e0   0x00000008   Code   RO          546    i.system_clock_config  system_gd32f30x.o
    0x080025e8   0x080025e8   0x00000090   Code   RO         1053    i.usart_baudrate_set  gd32f30x_usart.o
    0x08002678   0x08002678   0x0000000a   Code   RO         1056    i.usart_data_receive  gd32f30x_usart.o
    0x08002682   0x08002682   0x00000008   Code   RO         1057    i.usart_data_transmit  gd32f30x_usart.o
    0x0800268a   0x0800268a   0x00000002   PAD
    0x0800268c   0x0800268c   0x00000090   Code   RO         1058    i.usart_deinit      gd32f30x_usart.o
    0x0800271c   0x0800271c   0x0000000a   Code   RO         1062    i.usart_enable      gd32f30x_usart.o
    0x08002726   0x08002726   0x00000012   Code   RO         1063    i.usart_flag_clear  gd32f30x_usart.o
    0x08002738   0x08002738   0x0000001e   Code   RO         1064    i.usart_flag_get    gd32f30x_usart.o
    0x08002756   0x08002756   0x0000001a   Code   RO         1071    i.usart_interrupt_enable  gd32f30x_usart.o
    0x08002770   0x08002770   0x00000012   Code   RO         1072    i.usart_interrupt_flag_clear  gd32f30x_usart.o
    0x08002782   0x08002782   0x00000038   Code   RO         1073    i.usart_interrupt_flag_get  gd32f30x_usart.o
    0x080027ba   0x080027ba   0x00000010   Code   RO         1084    i.usart_parity_config  gd32f30x_usart.o
    0x080027ca   0x080027ca   0x00000014   Code   RO         1086    i.usart_receive_config  gd32f30x_usart.o
    0x080027de   0x080027de   0x00000010   Code   RO         1096    i.usart_stop_bit_set  gd32f30x_usart.o
    0x080027ee   0x080027ee   0x00000014   Code   RO         1100    i.usart_transmit_config  gd32f30x_usart.o
    0x08002802   0x08002802   0x00000010   Code   RO         1101    i.usart_word_length_set  gd32f30x_usart.o
    0x08002812   0x08002812   0x00000018   Code   RO            6    i.xorSum            usb2com_app.o
    0x0800282a   0x0800282a   0x0000000c   Data   RO         3021    .constdata          mc_w.l(localtime_i.o)
    0x08002836   0x08002836   0x00000002   PAD
    0x08002838   0x08002838   0x00000020   Data   RO         3036    Region$$Table       anon$$obj.o


    Execution Region RW_IRAM1 (Exec base: 0x20000000, Load base: 0x08002858, Size: 0x000004b0, Max: 0x0000c000, ABSOLUTE)

    Exec Addr    Load Addr    Size         Type   Attr      Idx    E Section Name        Object

    0x20000000   0x08002858   0x00000002   Data   RW            8    .data               usb2com_app.o
    0x20000002   0x0800285a   0x00000002   PAD
    0x20000004   0x0800285c   0x00000031   Data   RW           66    .data               main.o
    0x20000035   0x0800288d   0x00000003   PAD
    0x20000038   0x08002890   0x00000018   Data   RW          313    .data               led_drv.o
    0x20000050   0x080028a8   0x0000001c   Data   RW          355    .data               usb2com_drv.o
    0x2000006c   0x080028c4   0x00000004   Data   RW         3010    .data               mc_w.l(stdout.o)
    0x20000070        -       0x00000014   Zero   RW            7    .bss                usb2com_app.o
    0x20000084        -       0x0000002c   Zero   RW         3018    .bss                mc_w.l(localtime_w.o)
    0x200000b0        -       0x00000400   Zero   RW          534    STACK               startup_gd32f30x_hd.o


==============================================================================

Image component sizes


      Code (inc. data)   RO Data    RW Data    ZI Data      Debug   Object Name

       364         50          0          0          0       3184   adc_drv.o
       356         68          0          0          0       2460   dac_drv.o
       128         20          0          0          0       1554   delay.o
       692         10          0          0          0       8160   gd32f30x_adc.o
       120         12          0          0          0       5206   gd32f30x_bkp.o
       304         34          0          0          0       3844   gd32f30x_dac.o
       196          0          0          0          0       1964   gd32f30x_gpio.o
       216         20          0          0          0       1376   gd32f30x_misc.o
        20          6          0          0          0        494   gd32f30x_pmu.o
       952        100          0          0          0      23939   gd32f30x_rcu.o
       176         34          0          0          0       3631   gd32f30x_rtc.o
       552         16          0          0          0      15645   gd32f30x_usart.o
       180         14          0         24          0       2347   led_drv.o
       232         16          0         49          0      24366   main.o
       294         50          0          0          0       3459   rtc_drv.o
        36          8        304          0       1024        808   startup_gd32f30x_hd.o
       452         30          0          0          0       2389   system_gd32f30x.o
       126          8          0          0          0      27938   systick_drv.o
       364         28          0          2         20       8611   usb2com_app.o
       288         26          0         28          0       4425   usb2com_drv.o

    ----------------------------------------------------------------------
      6056        550        336        108       1044     145800   Object Totals
         0          0         32          0          0          0   (incl. Generated)
         8          0          0          5          0          0   (incl. Padding)

    ----------------------------------------------------------------------

      Code (inc. data)   RO Data    RW Data    ZI Data      Debug   Library Member Name

         0          0          0          0          0          0   entry.o
         0          0          0          0          0          0   entry10a.o
         0          0          0          0          0          0   entry11a.o
         8          4          0          0          0          0   entry2.o
         4          0          0          0          0          0   entry5.o
         0          0          0          0          0          0   entry7b.o
         0          0          0          0          0          0   entry8b.o
         8          4          0          0          0          0   entry9a.o
        30          0          0          0          0          0   handlers.o
        36          8          0          0          0         68   init.o
         0          0          0          0          0          0   iusefp.o
        30          0          0          0          0         68   llshl.o
        36          0          0          0          0         68   llsshr.o
        32          0          0          0          0         68   llushr.o
       140          6         12          0          0         76   localtime_i.o
        12          6          0          0         44         68   localtime_w.o
      2258         90          0          0          0        452   printfa.o
         0          0          0          4          0          0   stdout.o
        44          0          0          0          0         80   uidiv.o
        98          0          0          0          0         92   uldiv.o
        48          0          0          0          0         68   cdrcmple.o
       334          0          0          0          0        148   dadd.o
       222          0          0          0          0        100   ddiv.o
       186          0          0          0          0        176   depilogue.o
        50          0          0          0          0         76   dfixui.o
        48          0          0          0          0         68   dfixul.o
        26          0          0          0          0         76   dfltui.o
       228          0          0          0          0         96   dmul.o
        38          0          0          0          0         68   f2d.o

    ----------------------------------------------------------------------
      3922        118         14          4         44       1916   Library Totals
         6          0          2          0          0          0   (incl. Padding)

    ----------------------------------------------------------------------

      Code (inc. data)   RO Data    RW Data    ZI Data      Debug   Library Name

      2736        118         12          4         44       1040   mc_w.l
      1180          0          0          0          0        876   mf_w.l

    ----------------------------------------------------------------------
      3922        118         14          4         44       1916   Library Totals

    ----------------------------------------------------------------------

==============================================================================


      Code (inc. data)   RO Data    RW Data    ZI Data      Debug   

      9978        668        350        112       1088     137132   Grand Totals
      9978        668        350        112       1088     137132   ELF Image Totals
      9978        668        350        112          0          0   ROM Totals

==============================================================================

    Total RO  Size (Code + RO Data)                10328 (  10.09kB)
    Total RW  Size (RW Data + ZI Data)              1200 (   1.17kB)
    Total ROM Size (Code + RO Data + RW Data)      10440 (  10.20kB)

==============================================================================

