Component: ARM Compiler 5.06 update 6 (build 750) Tool: armlink [4d35ed]

==============================================================================

Section Cross References

    gd32f30x_it.o(i.EXTI10_15_IRQHandler) refers to gd32f30x_exti.o(i.exti_interrupt_flag_get) for exti_interrupt_flag_get
    gd32f30x_it.o(i.EXTI10_15_IRQHandler) refers to gd32f30x_exti.o(i.exti_interrupt_flag_clear) for exti_interrupt_flag_clear
    gd32f30x_it.o(i.EXTI10_15_IRQHandler) refers to queue.o(i.xQueueGiveFromISR) for xQueueGiveFromISR
    gd32f30x_it.o(i.EXTI10_15_IRQHandler) refers to main.o(.data) for binary_semaphore
    main.o(i.fputc) refers to gd32f30x_usart.o(i.usart_data_transmit) for usart_data_transmit
    main.o(i.fputc) refers to gd32f30x_usart.o(i.usart_flag_get) for usart_flag_get
    main.o(i.main) refers to gd32f30x_misc.o(i.nvic_priority_group_set) for nvic_priority_group_set
    main.o(i.main) refers to gd32f307c_eval.o(i.gd_eval_com_init) for gd_eval_com_init
    main.o(i.main) refers to printfb.o(i.__0printf$bare) for __2printf
    main.o(i.main) refers to tasks.o(i.xTaskCreate) for xTaskCreate
    main.o(i.main) refers to tasks.o(i.vTaskStartScheduler) for vTaskStartScheduler
    main.o(i.main) refers to main.o(i.vTask1) for vTask1
    main.o(i.main) refers to main.o(i.vTask2) for vTask2
    main.o(i.main) refers to main.o(i.vTask3) for vTask3
    main.o(i.vTask1) refers to printfb.o(i.__0printf$bare) for __2printf
    main.o(i.vTask1) refers to main.o(.data) for flagIdleTaskrun
    main.o(i.vTask2) refers to printfb.o(i.__0printf$bare) for __2printf
    main.o(i.vTask2) refers to main.o(.data) for flagIdleTaskrun
==============================================================================

Removing Unused input sections from the image.

    Removing gd32f30x_it.o(.rev16_text), (4 bytes).
    Removing gd32f30x_it.o(.revsh_text), (4 bytes).
    Removing main.o(.rev16_text), (4 bytes).
    Removing main.o(.revsh_text), (4 bytes).
    Removing gd32f30x_adc.o(.rev16_text), (4 bytes).
    Removing gd32f30x_adc.o(.revsh_text), (4 bytes).
    Removing gd32f30x_adc.o(i.adc_calibration_enable), (42 bytes).
    Removing gd32f30x_adc.o(i.adc_channel_length_config), (70 bytes).
    Removing gd32f30x_adc.o(i.adc_data_alignment_config), (22 bytes).
    Removing gd32f30x_adc.o(i.adc_deinit), (88 bytes).
    Removing gd32f30x_adc.o(i.adc_disable), (10 bytes).
    Removing gd32f30x_adc.o(i.adc_discontinuous_mode_config), (76 bytes).
    Removing gd32f30x_adc.o(i.adc_dma_mode_disable), (10 bytes).
    Removing gd32f30x_adc.o(i.adc_dma_mode_enable), (10 bytes).
    Removing gd32f30x_adc.o(i.adc_enable), (18 bytes).
    Removing gd32f30x_adc.o(i.adc_external_trigger_config), (62 bytes).
    Removing gd32f30x_adc.o(i.adc_external_trigger_source_config), (48 bytes).
    Removing gd32f30x_adc.o(i.adc_flag_clear), (8 bytes).
==============================================================================

Image Symbol Table

    Local Symbols

    Symbol Name                              Value     Ov Type        Size  Object(Section)

    ../clib/microlib/division.c              0x00000000   Number         0  uidiv.o ABSOLUTE
    ../clib/microlib/division.c              0x00000000   Number         0  uldiv.o ABSOLUTE
    ../clib/microlib/init/entry.s            0x00000000   Number         0  entry.o ABSOLUTE
    ../clib/microlib/init/entry.s            0x00000000   Number         0  entry2.o ABSOLUTE
    ../clib/microlib/init/entry.s            0x00000000   Number         0  entry5.o ABSOLUTE
    ../clib/microlib/init/entry.s            0x00000000   Number         0  entry7a.o ABSOLUTE
    ../clib/microlib/init/entry.s            0x00000000   Number         0  entry7b.o ABSOLUTE
    ../clib/microlib/init/entry.s            0x00000000   Number         0  entry8a.o ABSOLUTE
    ../clib/microlib/init/entry.s            0x00000000   Number         0  entry8b.o ABSOLUTE
    ../clib/microlib/init/entry.s            0x00000000   Number         0  entry9a.o ABSOLUTE
    ../clib/microlib/init/entry.s            0x00000000   Number         0  entry9b.o ABSOLUTE
    ../clib/microlib/init/entry.s            0x00000000   Number         0  entry10a.o ABSOLUTE
    ../clib/microlib/init/entry.s            0x00000000   Number         0  entry11a.o ABSOLUTE
    ../clib/microlib/init/entry.s            0x00000000   Number         0  entry10b.o ABSOLUTE
    ../clib/microlib/init/entry.s            0x00000000   Number         0  entry11b.o ABSOLUTE
    ../clib/microlib/longlong.c              0x00000000   Number         0  llushr.o ABSOLUTE
    ../clib/microlib/longlong.c              0x00000000   Number         0  llsshr.o ABSOLUTE
    ../clib/microlib/longlong.c              0x00000000   Number         0  llshl.o ABSOLUTE
    ../clib/microlib/printf/printf.c         0x00000000   Number         0  printfa.o ABSOLUTE
    ../clib/microlib/printf/printf.c         0x00000000   Number         0  printf8.o ABSOLUTE
    ../clib/microlib/printf/printf.c         0x00000000   Number         0  printf7.o ABSOLUTE
    ../clib/microlib/printf/printf.c         0x00000000   Number         0  printf6.o ABSOLUTE
    ../clib/microlib/printf/printf.c         0x00000000   Number         0  printf5.o ABSOLUTE
    ../clib/microlib/printf/printf.c         0x00000000   Number         0  printf4.o ABSOLUTE
    ../clib/microlib/printf/printf.c         0x00000000   Number         0  printf3.o ABSOLUTE
    ../clib/microlib/printf/printf.c         0x00000000   Number         0  printf1.o ABSOLUTE
    ../clib/microlib/printf/printf.c         0x00000000   Number         0  printf0.o ABSOLUTE
    ../clib/microlib/printf/printf.c         0x00000000   Number         0  printfb.o ABSOLUTE
    ../clib/microlib/printf/printf.c         0x00000000   Number         0  printf2.o ABSOLUTE
    ../clib/microlib/stdio/streams.c         0x00000000   Number         0  stdout.o ABSOLUTE
    ../clib/microlib/string/memcpy.c         0x00000000   Number         0  memcpyb.o ABSOLUTE
    ../clib/microlib/string/memcpy.c         0x00000000   Number         0  memcpya.o ABSOLUTE
    ../clib/microlib/string/memset.c         0x00000000   Number         0  memseta.o ABSOLUTE
    ../clib/microlib/string/strlen.c         0x00000000   Number         0  strlen.o ABSOLUTE
    ../clib/microlib/stubs.s                 0x00000000   Number         0  iusefp.o ABSOLUTE
    ../fplib/microlib/fpadd.c                0x00000000   Number         0  dadd.o ABSOLUTE
    ../fplib/microlib/fpdiv.c                0x00000000   Number         0  ddiv.o ABSOLUTE
    ../fplib/microlib/fpepilogue.c           0x00000000   Number         0  depilogue.o ABSOLUTE
    ../fplib/microlib/fpfix.c                0x00000000   Number         0  dfixul.o ABSOLUTE
    ../fplib/microlib/fpmul.c                0x00000000   Number         0  dmul.o ABSOLUTE
    ..\..\..\Library\Firmware\CMSIS\GD\GD32F30x\Source\ARM\startup_gd32f30x_cl.s 0x00000000   Number         0  startup_gd32f30x_cl.o ABSOLUTE
    ..\..\..\Library\Firmware\CMSIS\GD\GD32F30x\Source\system_gd32f30x.c 0x00000000   Number         0  system_gd32f30x.o ABSOLUTE
    ..\..\..\Library\Firmware\GD32F30x_standard_peripheral\Source\gd32f30x_adc.c 0x00000000   Number         0  gd32f30x_adc.o ABSOLUTE
    ..\..\..\Library\Firmware\GD32F30x_standard_peripheral\Source\gd32f30x_bkp.c 0x00000000   Number         0  gd32f30x_bkp.o ABSOLUTE
    ..\..\..\Library\Firmware\GD32F30x_standard_peripheral\Source\gd32f30x_can.c 0x00000000   Number         0  gd32f30x_can.o ABSOLUTE
    ..\..\..\Library\Firmware\GD32F30x_standard_peripheral\Source\gd32f30x_crc.c 0x00000000   Number         0  gd32f30x_crc.o ABSOLUTE
    ..\..\..\Library\Firmware\GD32F30x_standard_peripheral\Source\gd32f30x_ctc.c 0x00000000   Number         0  gd32f30x_ctc.o ABSOLUTE
    ..\..\..\Library\Firmware\GD32F30x_standard_peripheral\Source\gd32f30x_dac.c 0x00000000   Number         0  gd32f30x_dac.o ABSOLUTE
    ..\..\..\Library\Firmware\GD32F30x_standard_peripheral\Source\gd32f30x_dbg.c 0x00000000   Number         0  gd32f30x_dbg.o ABSOLUTE
    ..\..\..\Library\Firmware\GD32F30x_standard_peripheral\Source\gd32f30x_dma.c 0x00000000   Number         0  gd32f30x_dma.o ABSOLUTE
    ..\..\..\Library\Firmware\GD32F30x_standard_peripheral\Source\gd32f30x_enet.c 0x00000000   Number         0  gd32f30x_enet.o ABSOLUTE
    ..\..\..\Library\Firmware\GD32F30x_standard_peripheral\Source\gd32f30x_exmc.c 0x00000000   Number         0  gd32f30x_exmc.o ABSOLUTE
    ..\..\..\Library\Firmware\GD32F30x_standard_peripheral\Source\gd32f30x_exti.c 0x00000000   Number         0  gd32f30x_exti.o ABSOLUTE
    ..\..\..\Library\Firmware\GD32F30x_standard_peripheral\Source\gd32f30x_fmc.c 0x00000000   Number         0  gd32f30x_fmc.o ABSOLUTE
    ..\..\..\Library\Firmware\GD32F30x_standard_peripheral\Source\gd32f30x_fwdgt.c 0x00000000   Number         0  gd32f30x_fwdgt.o ABSOLUTE
    ..\..\..\Library\Firmware\GD32F30x_standard_peripheral\Source\gd32f30x_gpio.c 0x00000000   Number         0  gd32f30x_gpio.o ABSOLUTE
    ..\..\..\Library\Firmware\GD32F30x_standard_peripheral\Source\gd32f30x_i2c.c 0x00000000   Number         0  gd32f30x_i2c.o ABSOLUTE
    ..\..\..\Library\Firmware\GD32F30x_standard_peripheral\Source\gd32f30x_misc.c 0x00000000   Number         0  gd32f30x_misc.o ABSOLUTE
    ..\..\..\Library\Firmware\GD32F30x_standard_peripheral\Source\gd32f30x_pmu.c 0x00000000   Number         0  gd32f30x_pmu.o ABSOLUTE
    ..\..\..\Library\Firmware\GD32F30x_standard_peripheral\Source\gd32f30x_rcu.c 0x00000000   Number         0  gd32f30x_rcu.o ABSOLUTE
    ..\..\..\Library\Firmware\GD32F30x_standard_peripheral\Source\gd32f30x_rtc.c 0x00000000   Number         0  gd32f30x_rtc.o ABSOLUTE
    ..\..\..\Library\Firmware\GD32F30x_standard_peripheral\Source\gd32f30x_sdio.c 0x00000000   Number         0  gd32f30x_sdio.o ABSOLUTE
    ..\..\..\Library\Firmware\GD32F30x_standard_peripheral\Source\gd32f30x_spi.c 0x00000000   Number         0  gd32f30x_spi.o ABSOLUTE
    ..\..\..\Library\Firmware\GD32F30x_standard_peripheral\Source\gd32f30x_timer.c 0x00000000   Number         0  gd32f30x_timer.o ABSOLUTE
    ..\..\..\Library\Firmware\GD32F30x_standard_peripheral\Source\gd32f30x_usart.c 0x00000000   Number         0  gd32f30x_usart.o ABSOLUTE
    ..\..\..\Library\Firmware\GD32F30x_standard_peripheral\Source\gd32f30x_wwdgt.c 0x00000000   Number         0  gd32f30x_wwdgt.o ABSOLUTE
    ..\..\..\Library\Utilities\gd32f307c_eval.c 0x00000000   Number         0  gd32f307c_eval.o ABSOLUTE
    ..\..\Third_Party\FreeRTOSv10.1.1\FreeRTOS\Source\croutine.c 0x00000000   Number         0  croutine.o ABSOLUTE
    ..\..\Third_Party\FreeRTOSv10.1.1\FreeRTOS\Source\event_groups.c 0x00000000   Number         0  event_groups.o ABSOLUTE
    ..\..\Third_Party\FreeRTOSv10.1.1\FreeRTOS\Source\list.c 0x00000000   Number         0  list.o ABSOLUTE
    ..\..\Third_Party\FreeRTOSv10.1.1\FreeRTOS\Source\portable\MemMang\heap_4.c 0x00000000   Number         0  heap_4.o ABSOLUTE
    ..\..\Third_Party\FreeRTOSv10.1.1\FreeRTOS\Source\portable\RVDS\ARM_CM3\port.c 0x00000000   Number         0  port.o ABSOLUTE
    ..\..\Third_Party\FreeRTOSv10.1.1\FreeRTOS\Source\queue.c 0x00000000   Number         0  queue.o ABSOLUTE
    ..\..\Third_Party\FreeRTOSv10.1.1\FreeRTOS\Source\tasks.c 0x00000000   Number         0  tasks.o ABSOLUTE
    ..\..\Third_Party\FreeRTOSv10.1.1\FreeRTOS\Source\timers.c 0x00000000   Number         0  timers.o ABSOLUTE
    ..\\..\\..\\Library\\Firmware\\CMSIS\\GD\\GD32F30x\\Source\\system_gd32f30x.c 0x00000000   Number         0  system_gd32f30x.o ABSOLUTE
    ..\\..\\..\\Library\\Firmware\\GD32F30x_standard_peripheral\\Source\\gd32f30x_adc.c 0x00000000   Number         0  gd32f30x_adc.o ABSOLUTE
    ..\\..\\..\\Library\\Firmware\\GD32F30x_standard_peripheral\\Source\\gd32f30x_bkp.c 0x00000000   Number         0  gd32f30x_bkp.o ABSOLUTE
    ..\\..\\..\\Library\\Firmware\\GD32F30x_standard_peripheral\\Source\\gd32f30x_can.c 0x00000000   Number         0  gd32f30x_can.o ABSOLUTE
    ..\\..\\..\\Library\\Firmware\\GD32F30x_standard_peripheral\\Source\\gd32f30x_crc.c 0x00000000   Number         0  gd32f30x_crc.o ABSOLUTE
    ..\\..\\..\\Library\\Firmware\\GD32F30x_standard_peripheral\\Source\\gd32f30x_ctc.c 0x00000000   Number         0  gd32f30x_ctc.o ABSOLUTE
    ..\\..\\..\\Library\\Firmware\\GD32F30x_standard_peripheral\\Source\\gd32f30x_dac.c 0x00000000   Number         0  gd32f30x_dac.o ABSOLUTE
    ..\\..\\..\\Library\\Firmware\\GD32F30x_standard_peripheral\\Source\\gd32f30x_dbg.c 0x00000000   Number         0  gd32f30x_dbg.o ABSOLUTE
    ..\\..\\..\\Library\\Firmware\\GD32F30x_standard_peripheral\\Source\\gd32f30x_dma.c 0x00000000   Number         0  gd32f30x_dma.o ABSOLUTE
    ..\\..\\..\\Library\\Firmware\\GD32F30x_standard_peripheral\\Source\\gd32f30x_enet.c 0x00000000   Number         0  gd32f30x_enet.o ABSOLUTE
    ..\\..\\..\\Library\\Firmware\\GD32F30x_standard_peripheral\\Source\\gd32f30x_exmc.c 0x00000000   Number         0  gd32f30x_exmc.o ABSOLUTE
    ..\\..\\..\\Library\\Firmware\\GD32F30x_standard_peripheral\\Source\\gd32f30x_exti.c 0x00000000   Number         0  gd32f30x_exti.o ABSOLUTE
    ..\\..\\..\\Library\\Firmware\\GD32F30x_standard_peripheral\\Source\\gd32f30x_fmc.c 0x00000000   Number         0  gd32f30x_fmc.o ABSOLUTE
    ..\\..\\..\\Library\\Firmware\\GD32F30x_standard_peripheral\\Source\\gd32f30x_fwdgt.c 0x00000000   Number         0  gd32f30x_fwdgt.o ABSOLUTE
    ..\\..\\..\\Library\\Firmware\\GD32F30x_standard_peripheral\\Source\\gd32f30x_gpio.c 0x00000000   Number         0  gd32f30x_gpio.o ABSOLUTE
    ..\\..\\..\\Library\\Firmware\\GD32F30x_standard_peripheral\\Source\\gd32f30x_i2c.c 0x00000000   Number         0  gd32f30x_i2c.o ABSOLUTE
    ..\\..\\..\\Library\\Firmware\\GD32F30x_standard_peripheral\\Source\\gd32f30x_misc.c 0x00000000   Number         0  gd32f30x_misc.o ABSOLUTE
    ..\\..\\..\\Library\\Firmware\\GD32F30x_standard_peripheral\\Source\\gd32f30x_pmu.c 0x00000000   Number         0  gd32f30x_pmu.o ABSOLUTE
    ..\\..\\..\\Library\\Firmware\\GD32F30x_standard_peripheral\\Source\\gd32f30x_rcu.c 0x00000000   Number         0  gd32f30x_rcu.o ABSOLUTE
    ..\\..\\..\\Library\\Firmware\\GD32F30x_standard_peripheral\\Source\\gd32f30x_rtc.c 0x00000000   Number         0  gd32f30x_rtc.o ABSOLUTE
    ..\\..\\..\\Library\\Firmware\\GD32F30x_standard_peripheral\\Source\\gd32f30x_sdio.c 0x00000000   Number         0  gd32f30x_sdio.o ABSOLUTE
    ..\\..\\..\\Library\\Firmware\\GD32F30x_standard_peripheral\\Source\\gd32f30x_spi.c 0x00000000   Number         0  gd32f30x_spi.o ABSOLUTE
    ..\\..\\..\\Library\\Firmware\\GD32F30x_standard_peripheral\\Source\\gd32f30x_timer.c 0x00000000   Number         0  gd32f30x_timer.o ABSOLUTE
    ..\\..\\..\\Library\\Firmware\\GD32F30x_standard_peripheral\\Source\\gd32f30x_usart.c 0x00000000   Number         0  gd32f30x_usart.o ABSOLUTE
    ..\\..\\..\\Library\\Firmware\\GD32F30x_standard_peripheral\\Source\\gd32f30x_wwdgt.c 0x00000000   Number         0  gd32f30x_wwdgt.o ABSOLUTE
    ..\\..\\..\\Library\\Utilities\\gd32f307c_eval.c 0x00000000   Number         0  gd32f307c_eval.o ABSOLUTE
    ..\\..\\Third_Party\\FreeRTOSv10.1.1\\FreeRTOS\\Source\\portable\\RVDS\\ARM_CM3\\port.c 0x00000000   Number         0  port.o ABSOLUTE
    ..\\gd32f30x_it.c                        0x00000000   Number         0  gd32f30x_it.o ABSOLUTE
    ..\\main.c                               0x00000000   Number         0  main.o ABSOLUTE
    ..\gd32f30x_it.c                         0x00000000   Number         0  gd32f30x_it.o ABSOLUTE
    ..\main.c                                0x00000000   Number         0  main.o ABSOLUTE
    cdrcmple.s                               0x00000000   Number         0  cdrcmple.o ABSOLUTE
    dc.s                                     0x00000000   Number         0  dc.o ABSOLUTE
    handlers.s                               0x00000000   Number         0  handlers.o ABSOLUTE
    init.s                                   0x00000000   Number         0  init.o ABSOLUTE
    RESET                                    0x08000000   Section      336  startup_gd32f30x_cl.o(RESET)
    .ARM.Collect$$$$00000000                 0x08000150   Section        0  entry.o(.ARM.Collect$$$$00000000)
    .ARM.Collect$$$$00000001                 0x08000150   Section        4  entry2.o(.ARM.Collect$$$$00000001)
    .ARM.Collect$$$$00000004                 0x08000154   Section        4  entry5.o(.ARM.Collect$$$$00000004)
    .ARM.Collect$$$$00000008                 0x08000158   Section        0  entry7b.o(.ARM.Collect$$$$00000008)
    .ARM.Collect$$$$0000000A                 0x08000158   Section        0  entry8b.o(.ARM.Collect$$$$0000000A)
    .ARM.Collect$$$$0000000B                 0x08000158   Section        8  entry9a.o(.ARM.Collect$$$$0000000B)
    .ARM.Collect$$$$0000000D                 0x08000160   Section        0  entry10a.o(.ARM.Collect$$$$0000000D)
    .ARM.Collect$$$$0000000F                 0x08000160   Section        0  entry11a.o(.ARM.Collect$$$$0000000F)
    .ARM.Collect$$$$00002712                 0x08000160   Section        4  entry2.o(.ARM.Collect$$$$00002712)
    __lit__00000000                          0x08000160   Data           4  entry2.o(.ARM.Collect$$$$00002712)
    .emb_text                                0x08000164   Section      150  port.o(.emb_text)
    $v0                                      0x08000164   Number         0  port.o(.emb_text)
    .text                                    0x080001fc   Section       36  startup_gd32f30x_cl.o(.text)
    $v0                                      0x080001fc   Number         0  startup_gd32f30x_cl.o(.text)
    .text                                    0x08000220   Section        0  memseta.o(.text)
    .text                                    0x08000244   Section       36  init.o(.text)
    i.BusFault_Handler                       0x08000268   Section        0  gd32f30x_it.o(i.BusFault_Handler)
    i.DebugMon_Handler                       0x0800026c   Section        0  gd32f30x_it.o(i.DebugMon_Handler)
    i.EXTI10_15_IRQHandler                   0x08000270   Section        0  gd32f30x_it.o(i.EXTI10_15_IRQHandler)
    i.HardFault_Handler                      0x080002b4   Section        0  gd32f30x_it.o(i.HardFault_Handler)
    i.MemManage_Handler                      0x080002b8   Section        0  gd32f30x_it.o(i.MemManage_Handler)
    i.NMI_Handler                            0x080002bc   Section        0  gd32f30x_it.o(i.NMI_Handler)
    i.SysTick_Handler                        0x080002c0   Section        0  port.o(i.SysTick_Handler)
    i.SystemInit                             0x080002f4   Section        0  system_gd32f30x.o(i.SystemInit)
    i.UsageFault_Handler                     0x08000344   Section        0  gd32f30x_it.o(i.UsageFault_Handler)
    i.__0printf$bare                         0x08000348   Section        0  printfb.o(i.__0printf$bare)
    i.__scatterload_copy                     0x08000358   Section       14  handlers.o(i.__scatterload_copy)
    i.__scatterload_null                     0x08000366   Section        2  handlers.o(i.__scatterload_null)
    i.__scatterload_zeroinit                 0x08000368   Section       14  handlers.o(i.__scatterload_zeroinit)
    i._printf_core                           0x08000376   Section        0  printfb.o(i._printf_core)
    _printf_core                             0x08000377   Thumb Code    34  printfb.o(i._printf_core)
    i.exti_interrupt_flag_clear              0x08000398   Section        0  gd32f30x_exti.o(i.exti_interrupt_flag_clear)
    i.exti_interrupt_flag_get                0x080003a4   Section        0  gd32f30x_exti.o(i.exti_interrupt_flag_get)
    i.fputc                                  0x080003c8   Section        0  main.o(i.fputc)
    i.gd_eval_com_init                       0x080003ec   Section        0  gd32f307c_eval.o(i.gd_eval_com_init)
    i.gpio_init                              0x08000484   Section        0  gd32f30x_gpio.o(i.gpio_init)
    i.main                                   0x08000540   Section        0  main.o(i.main)
    i.nvic_priority_group_set                0x080005e0   Section        0  gd32f30x_misc.o(i.nvic_priority_group_set)
    i.prvAddNewTaskToReadyList               0x080005f4   Section        0  tasks.o(i.prvAddNewTaskToReadyList)
    prvAddNewTaskToReadyList                 0x080005f5   Thumb Code   156  tasks.o(i.prvAddNewTaskToReadyList)
    i.prvCheckTasksWaitingTermination        0x080006ac   Section        0  tasks.o(i.prvCheckTasksWaitingTermination)
    prvCheckTasksWaitingTermination          0x080006ad   Thumb Code    60  tasks.o(i.prvCheckTasksWaitingTermination)
    i.prvDeleteTCB                           0x080006f4   Section        0  tasks.o(i.prvDeleteTCB)
    prvDeleteTCB                             0x080006f5   Thumb Code    18  tasks.o(i.prvDeleteTCB)
    i.prvHeapInit                            0x08000708   Section        0  heap_4.o(i.prvHeapInit)
    prvHeapInit                              0x08000709   Thumb Code    98  heap_4.o(i.prvHeapInit)
    i.prvIdleTask                            0x08000784   Section        0  tasks.o(i.prvIdleTask)
    prvIdleTask                              0x08000785   Thumb Code    32  tasks.o(i.prvIdleTask)
    i.prvInitialiseNewTask                   0x080007ac   Section        0  tasks.o(i.prvInitialiseNewTask)
    prvInitialiseNewTask                     0x080007ad   Thumb Code   204  tasks.o(i.prvInitialiseNewTask)
    i.prvInitialiseTaskLists                 0x08000878   Section        0  tasks.o(i.prvInitialiseTaskLists)
    prvInitialiseTaskLists                   0x08000879   Thumb Code    70  tasks.o(i.prvInitialiseTaskLists)
    i.prvInsertBlockIntoFreeList             0x080008e0   Section        0  heap_4.o(i.prvInsertBlockIntoFreeList)
    prvInsertBlockIntoFreeList               0x080008e1   Thumb Code    96  heap_4.o(i.prvInsertBlockIntoFreeList)
    i.prvResetNextTaskUnblockTime            0x08000948   Section        0  tasks.o(i.prvResetNextTaskUnblockTime)
    prvResetNextTaskUnblockTime              0x08000949   Thumb Code    42  tasks.o(i.prvResetNextTaskUnblockTime)
    i.prvTaskExitError                       0x0800097c   Section        0  port.o(i.prvTaskExitError)
    prvTaskExitError                         0x0800097d   Thumb Code    60  port.o(i.prvTaskExitError)
    i.pvPortMalloc                           0x080009bc   Section        0  heap_4.o(i.pvPortMalloc)
    i.pxPortInitialiseStack                  0x08000af8   Section        0  port.o(i.pxPortInitialiseStack)
    i.rcu_clock_freq_get                     0x08000b1c   Section        0  gd32f30x_rcu.o(i.rcu_clock_freq_get)
    i.rcu_periph_clock_enable                0x08000c74   Section        0  gd32f30x_rcu.o(i.rcu_periph_clock_enable)
    i.rcu_periph_reset_disable               0x08000c94   Section        0  gd32f30x_rcu.o(i.rcu_periph_reset_disable)
    i.rcu_periph_reset_enable                0x08000cb4   Section        0  gd32f30x_rcu.o(i.rcu_periph_reset_enable)
    i.system_clock_120m_hxtal                0x08000cd4   Section        0  system_gd32f30x.o(i.system_clock_120m_hxtal)
    system_clock_120m_hxtal                  0x08000cd5   Thumb Code   256  system_gd32f30x.o(i.system_clock_120m_hxtal)
    i.system_clock_config                    0x08000de4   Section        0  system_gd32f30x.o(i.system_clock_config)
    system_clock_config                      0x08000de5   Thumb Code     8  system_gd32f30x.o(i.system_clock_config)
    i.usart_baudrate_set                     0x08000dec   Section        0  gd32f30x_usart.o(i.usart_baudrate_set)
    i.usart_data_transmit                    0x08000e7c   Section        0  gd32f30x_usart.o(i.usart_data_transmit)
    i.usart_deinit                           0x08000e84   Section        0  gd32f30x_usart.o(i.usart_deinit)
    i.usart_enable                           0x08000f14   Section        0  gd32f30x_usart.o(i.usart_enable)
    i.usart_flag_get                         0x08000f1e   Section        0  gd32f30x_usart.o(i.usart_flag_get)
    i.usart_receive_config                   0x08000f3c   Section        0  gd32f30x_usart.o(i.usart_receive_config)
    i.usart_transmit_config                  0x08000f4c   Section        0  gd32f30x_usart.o(i.usart_transmit_config)
    i.uxListRemove                           0x08000f5c   Section        0  list.o(i.uxListRemove)
    i.vListInitialise                        0x08000f84   Section        0  list.o(i.vListInitialise)
    i.vListInitialiseItem                    0x08000f9e   Section        0  list.o(i.vListInitialiseItem)
    i.vListInsertEnd                         0x08000fa4   Section        0  list.o(i.vListInsertEnd)
    i.vPortEnterCritical                     0x08000fbc   Section        0  port.o(i.vPortEnterCritical)
    i.vPortExitCritical                      0x08001010   Section        0  port.o(i.vPortExitCritical)
    i.vPortFree                              0x0800104c   Section        0  heap_4.o(i.vPortFree)
    i.vPortSetupTimerInterrupt               0x080010e0   Section        0  port.o(i.vPortSetupTimerInterrupt)
    i.vPortValidateInterruptPriority         0x08001108   Section        0  port.o(i.vPortValidateInterruptPriority)
    i.vTask1                                 0x08001180   Section        0  main.o(i.vTask1)
    i.vTask2                                 0x080011c4   Section        0  main.o(i.vTask2)
    i.vTask3                                 0x08001208   Section        0  main.o(i.vTask3)
    i.vTaskStartScheduler                    0x0800124c   Section        0  tasks.o(i.vTaskStartScheduler)
    i.vTaskSuspendAll                        0x080012d4   Section        0  tasks.o(i.vTaskSuspendAll)
    i.vTaskSwitchContext                     0x080012e4   Section        0  tasks.o(i.vTaskSwitchContext)
    i.xPortStartScheduler                    0x08001370   Section        0  port.o(i.xPortStartScheduler)
    i.xQueueGiveFromISR                      0x08001468   Section        0  queue.o(i.xQueueGiveFromISR)
    i.xTaskCreate                            0x08001548   Section        0  tasks.o(i.xTaskCreate)
    i.xTaskIncrementTick                     0x080015a8   Section        0  tasks.o(i.xTaskIncrementTick)
    i.xTaskRemoveFromEventList               0x080016f0   Section        0  tasks.o(i.xTaskRemoveFromEventList)
    i.xTaskResumeAll                         0x08001788   Section        0  tasks.o(i.xTaskResumeAll)
    .data                                    0x20000000   Section       20  main.o(.data)
    flagIdleTaskrun                          0x20000000   Data           4  main.o(.data)
    .data                                    0x20000014   Section       60  tasks.o(.data)
    pxDelayedTaskList                        0x20000018   Data           4  tasks.o(.data)
    pxOverflowDelayedTaskList                0x2000001c   Data           4  tasks.o(.data)
    uxDeletedTasksWaitingCleanUp             0x20000020   Data           4  tasks.o(.data)
    uxCurrentNumberOfTasks                   0x20000024   Data           4  tasks.o(.data)
    xTickCount                               0x20000028   Data           4  tasks.o(.data)
    uxTopReadyPriority                       0x2000002c   Data           4  tasks.o(.data)
    xSchedulerRunning                        0x20000030   Data           4  tasks.o(.data)
    uxPendedTicks                            0x20000034   Data           4  tasks.o(.data)
    xYieldPending                            0x20000038   Data           4  tasks.o(.data)
    xNumOfOverflows                          0x2000003c   Data           4  tasks.o(.data)
    uxTaskNumber                             0x20000040   Data           4  tasks.o(.data)
    xNextTaskUnblockTime                     0x20000044   Data           4  tasks.o(.data)
    xIdleTaskHandle                          0x20000048   Data           4  tasks.o(.data)
    uxSchedulerSuspended                     0x2000004c   Data           4  tasks.o(.data)
    .data                                    0x20000050   Section       24  heap_4.o(.data)
    xStart                                   0x20000050   Data           8  heap_4.o(.data)
    pxEnd                                    0x20000058   Data           4  heap_4.o(.data)
    xFreeBytesRemaining                      0x2000005c   Data           4  heap_4.o(.data)
    xMinimumEverFreeBytesRemaining           0x20000060   Data           4  heap_4.o(.data)
    xBlockAllocatedBit                       0x20000064   Data           4  heap_4.o(.data)
    .data                                    0x20000068   Section       12  port.o(.data)
    uxCriticalNesting                        0x20000068   Data           4  port.o(.data)
    ucMaxSysCallPriority                     0x2000006c   Data           1  port.o(.data)
    ulMaxPRIGROUPValue                       0x20000070   Data           4  port.o(.data)
    .data                                    0x20000074   Section        4  system_gd32f30x.o(.data)
    .data                                    0x20000078   Section      125  gd32f307c_eval.o(.data)
    GPIO_PORT                                0x20000078   Data          16  gd32f307c_eval.o(.data)
    GPIO_PIN                                 0x20000088   Data          16  gd32f307c_eval.o(.data)
    COM_CLK                                  0x20000098   Data           4  gd32f307c_eval.o(.data)
    COM_TX_PIN                               0x2000009c   Data           8  gd32f307c_eval.o(.data)
    COM_RX_PIN                               0x200000a4   Data           8  gd32f307c_eval.o(.data)
    COM_GPIO_PORT                            0x200000ac   Data           8  gd32f307c_eval.o(.data)
    COM_GPIO_CLK                             0x200000b4   Data           4  gd32f307c_eval.o(.data)
    GPIO_CLK                                 0x200000b8   Data           8  gd32f307c_eval.o(.data)
    KEY_PORT                                 0x200000c0   Data          12  gd32f307c_eval.o(.data)
    KEY_PIN                                  0x200000cc   Data          12  gd32f307c_eval.o(.data)
    KEY_CLK                                  0x200000d8   Data           6  gd32f307c_eval.o(.data)
    KEY_EXTI_LINE                            0x200000e0   Data          12  gd32f307c_eval.o(.data)
    KEY_PORT_SOURCE                          0x200000ec   Data           3  gd32f307c_eval.o(.data)
    KEY_PIN_SOURCE                           0x200000ef   Data           3  gd32f307c_eval.o(.data)
    KEY_IRQn                                 0x200000f2   Data           3  gd32f307c_eval.o(.data)
    .data                                    0x200000f8   Section        4  stdout.o(.data)
    .bss                                     0x200000fc   Section      260  tasks.o(.bss)
    pxReadyTasksLists                        0x200000fc   Data         160  tasks.o(.bss)
    xDelayedTaskList1                        0x2000019c   Data          20  tasks.o(.bss)
    xDelayedTaskList2                        0x200001b0   Data          20  tasks.o(.bss)
    xPendingReadyList                        0x200001c4   Data          20  tasks.o(.bss)
    xTasksWaitingTermination                 0x200001d8   Data          20  tasks.o(.bss)
    xSuspendedTaskList                       0x200001ec   Data          20  tasks.o(.bss)
    .bss                                     0x20000200   Section    16384  heap_4.o(.bss)
    ucHeap                                   0x20000200   Data       16384  heap_4.o(.bss)
    STACK                                    0x20004200   Section     1024  startup_gd32f30x_cl.o(STACK)

    Global Symbols

    Symbol Name                              Value     Ov Type        Size  Object(Section)

    BuildAttributes$$THM_ISAv4$E$P$D$K$B$S$7EM$VFPi3$EXTD16$VFPS$VFMA$PE$A:L22UL41UL21$X:L11$S22US41US21$IEEE1$IW$USESV6$~STKCKD$USESV7$~SHL$OSPACE$ROPI$EBA8$MICROLIB$REQ8$PRES8$EABIv2 0x00000000   Number         0  anon$$obj.o ABSOLUTE
    __ARM_use_no_argv                        0x00000000   Number         0  main.o ABSOLUTE
    __cpp_initialize__aeabi_                  - Undefined Weak Reference
    __cxa_finalize                            - Undefined Weak Reference
    __decompress                              - Undefined Weak Reference
    _clock_init                               - Undefined Weak Reference
    _microlib_exit                            - Undefined Weak Reference
    __Vectors_Size                           0x00000150   Number         0  startup_gd32f30x_cl.o ABSOLUTE
    __Vectors                                0x08000000   Data           4  startup_gd32f30x_cl.o(RESET)
    __Vectors_End                            0x08000150   Data           0  startup_gd32f30x_cl.o(RESET)
    __main                                   0x08000151   Thumb Code     0  entry.o(.ARM.Collect$$$$00000000)
    _main_stk                                0x08000151   Thumb Code     0  entry2.o(.ARM.Collect$$$$00000001)
    _main_scatterload                        0x08000155   Thumb Code     0  entry5.o(.ARM.Collect$$$$00000004)
    __main_after_scatterload                 0x08000159   Thumb Code     0  entry5.o(.ARM.Collect$$$$00000004)
    _main_clock                              0x08000159   Thumb Code     0  entry7b.o(.ARM.Collect$$$$00000008)
    _main_cpp_init                           0x08000159   Thumb Code     0  entry8b.o(.ARM.Collect$$$$0000000A)
    _main_init                               0x08000159   Thumb Code     0  entry9a.o(.ARM.Collect$$$$0000000B)
    __rt_final_cpp                           0x08000161   Thumb Code     0  entry10a.o(.ARM.Collect$$$$0000000D)
    __rt_final_exit                          0x08000161   Thumb Code     0  entry11a.o(.ARM.Collect$$$$0000000F)
    SVC_Handler                              0x08000165   Thumb Code    32  port.o(.emb_text)
    __asm___6_port_c_39a90d8d__prvStartFirstTask 0x08000189   Thumb Code    28  port.o(.emb_text)
    PendSV_Handler                           0x080001a9   Thumb Code    72  port.o(.emb_text)
    vPortGetIPSR                             0x080001f5   Thumb Code     6  port.o(.emb_text)
    Reset_Handler                            0x080001fd   Thumb Code     8  startup_gd32f30x_cl.o(.text)
    ADC0_1_IRQHandler                        0x08000217   Thumb Code     0  startup_gd32f30x_cl.o(.text)
    CAN0_EWMC_IRQHandler                     0x08000217   Thumb Code     0  startup_gd32f30x_cl.o(.text)
    CAN0_RX0_IRQHandler                      0x08000217   Thumb Code     0  startup_gd32f30x_cl.o(.text)
    CAN0_RX1_IRQHandler                      0x08000217   Thumb Code     0  startup_gd32f30x_cl.o(.text)
    CAN0_TX_IRQHandler                       0x08000217   Thumb Code     0  startup_gd32f30x_cl.o(.text)
    CAN1_EWMC_IRQHandler                     0x08000217   Thumb Code     0  startup_gd32f30x_cl.o(.text)
    CAN1_RX0_IRQHandler                      0x08000217   Thumb Code     0  startup_gd32f30x_cl.o(.text)
    CAN1_RX1_IRQHandler                      0x08000217   Thumb Code     0  startup_gd32f30x_cl.o(.text)
    CAN1_TX_IRQHandler                       0x08000217   Thumb Code     0  startup_gd32f30x_cl.o(.text)
    DMA0_Channel0_IRQHandler                 0x08000217   Thumb Code     0  startup_gd32f30x_cl.o(.text)
    DMA0_Channel1_IRQHandler                 0x08000217   Thumb Code     0  startup_gd32f30x_cl.o(.text)
    DMA0_Channel2_IRQHandler                 0x08000217   Thumb Code     0  startup_gd32f30x_cl.o(.text)
    DMA0_Channel3_IRQHandler                 0x08000217   Thumb Code     0  startup_gd32f30x_cl.o(.text)
    DMA0_Channel4_IRQHandler                 0x08000217   Thumb Code     0  startup_gd32f30x_cl.o(.text)
    DMA0_Channel5_IRQHandler                 0x08000217   Thumb Code     0  startup_gd32f30x_cl.o(.text)
    DMA0_Channel6_IRQHandler                 0x08000217   Thumb Code     0  startup_gd32f30x_cl.o(.text)
    DMA1_Channel0_IRQHandler                 0x08000217   Thumb Code     0  startup_gd32f30x_cl.o(.text)
    DMA1_Channel1_IRQHandler                 0x08000217   Thumb Code     0  startup_gd32f30x_cl.o(.text)
    DMA1_Channel2_IRQHandler                 0x08000217   Thumb Code     0  startup_gd32f30x_cl.o(.text)
    DMA1_Channel3_IRQHandler                 0x08000217   Thumb Code     0  startup_gd32f30x_cl.o(.text)
    DMA1_Channel4_IRQHandler                 0x08000217   Thumb Code     0  startup_gd32f30x_cl.o(.text)
    ENET_IRQHandler                          0x08000217   Thumb Code     0  startup_gd32f30x_cl.o(.text)
    ENET_WKUP_IRQHandler                     0x08000217   Thumb Code     0  startup_gd32f30x_cl.o(.text)
    EXMC_IRQHandler                          0x08000217   Thumb Code     0  startup_gd32f30x_cl.o(.text)
    EXTI0_IRQHandler                         0x08000217   Thumb Code     0  startup_gd32f30x_cl.o(.text)
    EXTI1_IRQHandler                         0x08000217   Thumb Code     0  startup_gd32f30x_cl.o(.text)
    EXTI2_IRQHandler                         0x08000217   Thumb Code     0  startup_gd32f30x_cl.o(.text)
    EXTI3_IRQHandler                         0x08000217   Thumb Code     0  startup_gd32f30x_cl.o(.text)
    EXTI4_IRQHandler                         0x08000217   Thumb Code     0  startup_gd32f30x_cl.o(.text)
    EXTI5_9_IRQHandler                       0x08000217   Thumb Code     0  startup_gd32f30x_cl.o(.text)
    FMC_IRQHandler                           0x08000217   Thumb Code     0  startup_gd32f30x_cl.o(.text)
    I2C0_ER_IRQHandler                       0x08000217   Thumb Code     0  startup_gd32f30x_cl.o(.text)
    I2C0_EV_IRQHandler                       0x08000217   Thumb Code     0  startup_gd32f30x_cl.o(.text)
    I2C1_ER_IRQHandler                       0x08000217   Thumb Code     0  startup_gd32f30x_cl.o(.text)
    I2C1_EV_IRQHandler                       0x08000217   Thumb Code     0  startup_gd32f30x_cl.o(.text)
    LVD_IRQHandler                           0x08000217   Thumb Code     0  startup_gd32f30x_cl.o(.text)
    RCU_CTC_IRQHandler                       0x08000217   Thumb Code     0  startup_gd32f30x_cl.o(.text)
    RTC_Alarm_IRQHandler                     0x08000217   Thumb Code     0  startup_gd32f30x_cl.o(.text)
    RTC_IRQHandler                           0x08000217   Thumb Code     0  startup_gd32f30x_cl.o(.text)
    SPI0_IRQHandler                          0x08000217   Thumb Code     0  startup_gd32f30x_cl.o(.text)
    SPI1_IRQHandler                          0x08000217   Thumb Code     0  startup_gd32f30x_cl.o(.text)
    SPI2_IRQHandler                          0x08000217   Thumb Code     0  startup_gd32f30x_cl.o(.text)
    TAMPER_IRQHandler                        0x08000217   Thumb Code     0  startup_gd32f30x_cl.o(.text)
    TIMER0_BRK_TIMER8_IRQHandler             0x08000217   Thumb Code     0  startup_gd32f30x_cl.o(.text)
    TIMER0_Channel_IRQHandler                0x08000217   Thumb Code     0  startup_gd32f30x_cl.o(.text)
    TIMER0_TRG_CMT_TIMER10_IRQHandler        0x08000217   Thumb Code     0  startup_gd32f30x_cl.o(.text)
    TIMER0_UP_TIMER9_IRQHandler              0x08000217   Thumb Code     0  startup_gd32f30x_cl.o(.text)
    TIMER1_IRQHandler                        0x08000217   Thumb Code     0  startup_gd32f30x_cl.o(.text)
    TIMER2_IRQHandler                        0x08000217   Thumb Code     0  startup_gd32f30x_cl.o(.text)
    TIMER3_IRQHandler                        0x08000217   Thumb Code     0  startup_gd32f30x_cl.o(.text)
    TIMER4_IRQHandler                        0x08000217   Thumb Code     0  startup_gd32f30x_cl.o(.text)
    TIMER5_IRQHandler                        0x08000217   Thumb Code     0  startup_gd32f30x_cl.o(.text)
    TIMER6_IRQHandler                        0x08000217   Thumb Code     0  startup_gd32f30x_cl.o(.text)
    TIMER7_BRK_TIMER11_IRQHandler            0x08000217   Thumb Code     0  startup_gd32f30x_cl.o(.text)
    TIMER7_Channel_IRQHandler                0x08000217   Thumb Code     0  startup_gd32f30x_cl.o(.text)
    TIMER7_TRG_CMT_TIMER13_IRQHandler        0x08000217   Thumb Code     0  startup_gd32f30x_cl.o(.text)
    TIMER7_UP_TIMER12_IRQHandler             0x08000217   Thumb Code     0  startup_gd32f30x_cl.o(.text)
    UART3_IRQHandler                         0x08000217   Thumb Code     0  startup_gd32f30x_cl.o(.text)
    UART4_IRQHandler                         0x08000217   Thumb Code     0  startup_gd32f30x_cl.o(.text)
    USART0_IRQHandler                        0x08000217   Thumb Code     0  startup_gd32f30x_cl.o(.text)
    USART1_IRQHandler                        0x08000217   Thumb Code     0  startup_gd32f30x_cl.o(.text)
    USART2_IRQHandler                        0x08000217   Thumb Code     0  startup_gd32f30x_cl.o(.text)
    USBFS_IRQHandler                         0x08000217   Thumb Code     0  startup_gd32f30x_cl.o(.text)
    USBFS_WKUP_IRQHandler                    0x08000217   Thumb Code     0  startup_gd32f30x_cl.o(.text)
    WWDGT_IRQHandler                         0x08000217   Thumb Code     0  startup_gd32f30x_cl.o(.text)
    __aeabi_memset                           0x08000221   Thumb Code    14  memseta.o(.text)
    __aeabi_memset4                          0x08000221   Thumb Code     0  memseta.o(.text)
    __aeabi_memset8                          0x08000221   Thumb Code     0  memseta.o(.text)
    __aeabi_memclr                           0x0800022f   Thumb Code     4  memseta.o(.text)
    __aeabi_memclr4                          0x0800022f   Thumb Code     0  memseta.o(.text)
    __aeabi_memclr8                          0x0800022f   Thumb Code     0  memseta.o(.text)
    _memset$wrapper                          0x08000233   Thumb Code    18  memseta.o(.text)
    __scatterload                            0x08000245   Thumb Code    28  init.o(.text)
    __scatterload_rt2                        0x08000245   Thumb Code     0  init.o(.text)
    BusFault_Handler                         0x08000269   Thumb Code     4  gd32f30x_it.o(i.BusFault_Handler)
    DebugMon_Handler                         0x0800026d   Thumb Code     2  gd32f30x_it.o(i.DebugMon_Handler)
    EXTI10_15_IRQHandler                     0x08000271   Thumb Code    58  gd32f30x_it.o(i.EXTI10_15_IRQHandler)
    HardFault_Handler                        0x080002b5   Thumb Code     4  gd32f30x_it.o(i.HardFault_Handler)
    MemManage_Handler                        0x080002b9   Thumb Code     4  gd32f30x_it.o(i.MemManage_Handler)
    NMI_Handler                              0x080002bd   Thumb Code     2  gd32f30x_it.o(i.NMI_Handler)
    SysTick_Handler                          0x080002c1   Thumb Code    46  port.o(i.SysTick_Handler)
    SystemInit                               0x080002f5   Thumb Code    66  system_gd32f30x.o(i.SystemInit)
    UsageFault_Handler                       0x08000345   Thumb Code     4  gd32f30x_it.o(i.UsageFault_Handler)
    __0printf$bare                           0x08000349   Thumb Code     8  printfb.o(i.__0printf$bare)
    __1printf$bare                           0x08000349   Thumb Code     0  printfb.o(i.__0printf$bare)
    __2printf                                0x08000349   Thumb Code     0  printfb.o(i.__0printf$bare)
    __scatterload_copy                       0x08000359   Thumb Code    14  handlers.o(i.__scatterload_copy)
    __scatterload_null                       0x08000367   Thumb Code     2  handlers.o(i.__scatterload_null)
    __scatterload_zeroinit                   0x08000369   Thumb Code    14  handlers.o(i.__scatterload_zeroinit)
    exti_interrupt_flag_clear                0x08000399   Thumb Code     6  gd32f30x_exti.o(i.exti_interrupt_flag_clear)
    exti_interrupt_flag_get                  0x080003a5   Thumb Code    32  gd32f30x_exti.o(i.exti_interrupt_flag_get)
    fputc                                    0x080003c9   Thumb Code    32  main.o(i.fputc)
    gd_eval_com_init                         0x080003ed   Thumb Code   122  gd32f307c_eval.o(i.gd_eval_com_init)
    gpio_init                                0x08000485   Thumb Code   188  gd32f30x_gpio.o(i.gpio_init)
    main                                     0x08000541   Thumb Code    90  main.o(i.main)
    nvic_priority_group_set                  0x080005e1   Thumb Code    10  gd32f30x_misc.o(i.nvic_priority_group_set)
    pvPortMalloc                             0x080009bd   Thumb Code   296  heap_4.o(i.pvPortMalloc)
    pxPortInitialiseStack                    0x08000af9   Thumb Code    30  port.o(i.pxPortInitialiseStack)
    rcu_clock_freq_get                       0x08000b1d   Thumb Code   310  gd32f30x_rcu.o(i.rcu_clock_freq_get)
    rcu_periph_clock_enable                  0x08000c75   Thumb Code    28  gd32f30x_rcu.o(i.rcu_periph_clock_enable)
    rcu_periph_reset_disable                 0x08000c95   Thumb Code    28  gd32f30x_rcu.o(i.rcu_periph_reset_disable)
    rcu_periph_reset_enable                  0x08000cb5   Thumb Code    28  gd32f30x_rcu.o(i.rcu_periph_reset_enable)
    usart_baudrate_set                       0x08000ded   Thumb Code   136  gd32f30x_usart.o(i.usart_baudrate_set)
    usart_data_transmit                      0x08000e7d   Thumb Code     8  gd32f30x_usart.o(i.usart_data_transmit)
    usart_deinit                             0x08000e85   Thumb Code   136  gd32f30x_usart.o(i.usart_deinit)
    usart_enable                             0x08000f15   Thumb Code    10  gd32f30x_usart.o(i.usart_enable)
    usart_flag_get                           0x08000f1f   Thumb Code    30  gd32f30x_usart.o(i.usart_flag_get)
    usart_receive_config                     0x08000f3d   Thumb Code    16  gd32f30x_usart.o(i.usart_receive_config)
    usart_transmit_config                    0x08000f4d   Thumb Code    16  gd32f30x_usart.o(i.usart_transmit_config)
    uxListRemove                             0x08000f5d   Thumb Code    40  list.o(i.uxListRemove)
    vListInitialise                          0x08000f85   Thumb Code    26  list.o(i.vListInitialise)
    vListInitialiseItem                      0x08000f9f   Thumb Code     6  list.o(i.vListInitialiseItem)
    vListInsertEnd                           0x08000fa5   Thumb Code    24  list.o(i.vListInsertEnd)
    vPortEnterCritical                       0x08000fbd   Thumb Code    76  port.o(i.vPortEnterCritical)
    vPortExitCritical                        0x08001011   Thumb Code    56  port.o(i.vPortExitCritical)
    vPortFree                                0x0800104d   Thumb Code   140  heap_4.o(i.vPortFree)
    vPortSetupTimerInterrupt                 0x080010e1   Thumb Code    36  port.o(i.vPortSetupTimerInterrupt)
    vPortValidateInterruptPriority           0x08001109   Thumb Code   106  port.o(i.vPortValidateInterruptPriority)
    vTask1                                   0x08001181   Thumb Code    32  main.o(i.vTask1)
    vTask2                                   0x080011c5   Thumb Code    32  main.o(i.vTask2)
    vTask3                                   0x08001209   Thumb Code    30  main.o(i.vTask3)
    vTaskStartScheduler                      0x0800124d   Thumb Code   108  tasks.o(i.vTaskStartScheduler)
    vTaskSuspendAll                          0x080012d5   Thumb Code    12  tasks.o(i.vTaskSuspendAll)
    vTaskSwitchContext                       0x080012e5   Thumb Code   118  tasks.o(i.vTaskSwitchContext)
    xPortStartScheduler                      0x08001371   Thumb Code   228  port.o(i.xPortStartScheduler)
    xQueueGiveFromISR                        0x08001469   Thumb Code   224  queue.o(i.xQueueGiveFromISR)
    xTaskCreate                              0x08001549   Thumb Code    96  tasks.o(i.xTaskCreate)
    xTaskIncrementTick                       0x080015a9   Thumb Code   282  tasks.o(i.xTaskIncrementTick)
    xTaskRemoveFromEventList                 0x080016f1   Thumb Code   128  tasks.o(i.xTaskRemoveFromEventList)
    xTaskResumeAll                           0x08001789   Thumb Code   224  tasks.o(i.xTaskResumeAll)
    Region$$Table$$Base                      0x0800188c   Number         0  anon$$obj.o(Region$$Table)
    Region$$Table$$Limit                     0x080018ac   Number         0  anon$$obj.o(Region$$Table)
    flagTask1run                             0x20000004   Data           4  main.o(.data)
    flagTask2run                             0x20000008   Data           4  main.o(.data)
    flagTask3run                             0x2000000c   Data           4  main.o(.data)
    binary_semaphore                         0x20000010   Data           4  main.o(.data)
    pxCurrentTCB                             0x20000014   Data           4  tasks.o(.data)
    SystemCoreClock                          0x20000074   Data           4  system_gd32f30x.o(.data)
    __stdout                                 0x200000f8   Data           4  stdout.o(.data)
    __initial_sp                             0x20004600   Data           0  startup_gd32f30x_cl.o(STACK)



==============================================================================

Memory Map of the image

  Image Entry point : 0x08000151

  Load Region LR_IROM1 (Base: 0x08000000, Size: 0x000019a8, Max: 0x00040000, ABSOLUTE)

    Execution Region ER_IROM1 (Exec base: 0x08000000, Load base: 0x08000000, Size: 0x000018ac, Max: 0x00040000, ABSOLUTE)

    Exec Addr    Load Addr    Size         Type   Attr      Idx    E Section Name        Object

    0x08000000   0x08000000   0x00000150   Data   RO         5241    RESET               startup_gd32f30x_cl.o
    0x08000150   0x08000150   0x00000000   Code   RO         5246  * .ARM.Collect$$$$00000000  mc_w.l(entry.o)
    0x08000150   0x08000150   0x00000004   Code   RO         5517    .ARM.Collect$$$$00000001  mc_w.l(entry2.o)
    0x08000154   0x08000154   0x00000004   Code   RO         5520    .ARM.Collect$$$$00000004  mc_w.l(entry5.o)
    0x08000158   0x08000158   0x00000000   Code   RO         5522    .ARM.Collect$$$$00000008  mc_w.l(entry7b.o)
    0x08000158   0x08000158   0x00000000   Code   RO         5524    .ARM.Collect$$$$0000000A  mc_w.l(entry8b.o)
    0x08000158   0x08000158   0x00000008   Code   RO         5525    .ARM.Collect$$$$0000000B  mc_w.l(entry9a.o)
    0x08000160   0x08000160   0x00000000   Code   RO         5527    .ARM.Collect$$$$0000000D  mc_w.l(entry10a.o)
    0x08000160   0x08000160   0x00000000   Code   RO         5529    .ARM.Collect$$$$0000000F  mc_w.l(entry11a.o)
    0x08000160   0x08000160   0x00000004   Code   RO         5518    .ARM.Collect$$$$00002712  mc_w.l(entry2.o)
    0x08000164   0x08000164   0x00000096   Code   RO         5059    .emb_text           port.o
    0x080001fa   0x080001fa   0x00000002   PAD
    0x080001fc   0x080001fc   0x00000024   Code   RO         5242    .text               startup_gd32f30x_cl.o
    0x08000220   0x08000220   0x00000024   Code   RO         5251    .text               mc_w.l(memseta.o)
    0x08000244   0x08000244   0x00000024   Code   RO         5547    .text               mc_w.l(init.o)
    0x08000268   0x08000268   0x00000004   Code   RO            3    i.BusFault_Handler  gd32f30x_it.o
    0x0800026c   0x0800026c   0x00000002   Code   RO            4    i.DebugMon_Handler  gd32f30x_it.o
    0x0800026e   0x0800026e   0x00000002   PAD
    0x08000270   0x08000270   0x00000044   Code   RO            5    i.EXTI10_15_IRQHandler  gd32f30x_it.o
    0x080002b4   0x080002b4   0x00000004   Code   RO            6    i.HardFault_Handler  gd32f30x_it.o
    0x080002b8   0x080002b8   0x00000004   Code   RO            7    i.MemManage_Handler  gd32f30x_it.o
    0x080002bc   0x080002bc   0x00000002   Code   RO            8    i.NMI_Handler       gd32f30x_it.o
    0x080002be   0x080002be   0x00000002   PAD
    0x080002c0   0x080002c0   0x00000034   Code   RO         5060    i.SysTick_Handler   port.o
    0x080002f4   0x080002f4   0x00000050   Code   RO         5139    i.SystemInit        system_gd32f30x.o
    0x08000344   0x08000344   0x00000004   Code   RO            9    i.UsageFault_Handler  gd32f30x_it.o
    0x08000348   0x08000348   0x00000010   Code   RO         5258    i.__0printf$bare    mc_w.l(printfb.o)
    0x08000358   0x08000358   0x0000000e   Code   RO         5559    i.__scatterload_copy  mc_w.l(handlers.o)
    0x08000366   0x08000366   0x00000002   Code   RO         5560    i.__scatterload_null  mc_w.l(handlers.o)
    0x08000368   0x08000368   0x0000000e   Code   RO         5561    i.__scatterload_zeroinit  mc_w.l(handlers.o)
    0x08000376   0x08000376   0x00000022   Code   RO         5265    i._printf_core      mc_w.l(printfb.o)
    0x08000398   0x08000398   0x0000000c   Code   RO         1708    i.exti_interrupt_flag_clear  gd32f30x_exti.o
    0x080003a4   0x080003a4   0x00000024   Code   RO         1709    i.exti_interrupt_flag_get  gd32f30x_exti.o
    0x080003c8   0x080003c8   0x00000024   Code   RO          203    i.fputc             main.o
    0x080003ec   0x080003ec   0x00000098   Code   RO         5180    i.gd_eval_com_init  gd32f307c_eval.o
    0x08000484   0x08000484   0x000000bc   Code   RO         2071    i.gpio_init         gd32f30x_gpio.o
    0x08000540   0x08000540   0x000000a0   Code   RO          204    i.main              main.o
    0x080005e0   0x080005e0   0x00000014   Code   RO         2384    i.nvic_priority_group_set  gd32f30x_misc.o
    0x080005f4   0x080005f4   0x000000b8   Code   RO         4631    i.prvAddNewTaskToReadyList  tasks.o
    0x080006ac   0x080006ac   0x00000048   Code   RO         4632    i.prvCheckTasksWaitingTermination  tasks.o
    0x080006f4   0x080006f4   0x00000012   Code   RO         4633    i.prvDeleteTCB      tasks.o
    0x08000706   0x08000706   0x00000002   PAD
    0x08000708   0x08000708   0x0000007c   Code   RO         4998    i.prvHeapInit       heap_4.o
    0x08000784   0x08000784   0x00000028   Code   RO         4634    i.prvIdleTask       tasks.o
    0x080007ac   0x080007ac   0x000000cc   Code   RO         4635    i.prvInitialiseNewTask  tasks.o
    0x08000878   0x08000878   0x00000068   Code   RO         4636    i.prvInitialiseTaskLists  tasks.o
    0x080008e0   0x080008e0   0x00000068   Code   RO         4999    i.prvInsertBlockIntoFreeList  heap_4.o
    0x08000948   0x08000948   0x00000034   Code   RO         4638    i.prvResetNextTaskUnblockTime  tasks.o
    0x0800097c   0x0800097c   0x00000040   Code   RO         5061    i.prvTaskExitError  port.o
    0x080009bc   0x080009bc   0x0000013c   Code   RO         5000    i.pvPortMalloc      heap_4.o
    0x08000af8   0x08000af8   0x00000024   Code   RO         5062    i.pxPortInitialiseStack  port.o
    0x08000b1c   0x08000b1c   0x00000158   Code   RO         2581    i.rcu_clock_freq_get  gd32f30x_rcu.o
    0x08000c74   0x08000c74   0x00000020   Code   RO         2599    i.rcu_periph_clock_enable  gd32f30x_rcu.o
    0x08000c94   0x08000c94   0x00000020   Code   RO         2602    i.rcu_periph_reset_disable  gd32f30x_rcu.o
    0x08000cb4   0x08000cb4   0x00000020   Code   RO         2603    i.rcu_periph_reset_enable  gd32f30x_rcu.o
    0x08000cd4   0x08000cd4   0x00000110   Code   RO         5140    i.system_clock_120m_hxtal  system_gd32f30x.o
    0x08000de4   0x08000de4   0x00000008   Code   RO         5141    i.system_clock_config  system_gd32f30x.o
    0x08000dec   0x08000dec   0x00000090   Code   RO         3897    i.usart_baudrate_set  gd32f30x_usart.o
    0x08000e7c   0x08000e7c   0x00000008   Code   RO         3901    i.usart_data_transmit  gd32f30x_usart.o
    0x08000e84   0x08000e84   0x00000090   Code   RO         3902    i.usart_deinit      gd32f30x_usart.o
    0x08000f14   0x08000f14   0x0000000a   Code   RO         3906    i.usart_enable      gd32f30x_usart.o
    0x08000f1e   0x08000f1e   0x0000001e   Code   RO         3908    i.usart_flag_get    gd32f30x_usart.o
    0x08000f3c   0x08000f3c   0x00000010   Code   RO         3930    i.usart_receive_config  gd32f30x_usart.o
    0x08000f4c   0x08000f4c   0x00000010   Code   RO         3944    i.usart_transmit_config  gd32f30x_usart.o
    0x08000f5c   0x08000f5c   0x00000028   Code   RO         4381    i.uxListRemove      list.o
    0x08000f84   0x08000f84   0x0000001a   Code   RO         4382    i.vListInitialise   list.o
    0x08000f9e   0x08000f9e   0x00000006   Code   RO         4383    i.vListInitialiseItem  list.o
    0x08000fa4   0x08000fa4   0x00000018   Code   RO         4385    i.vListInsertEnd    list.o
    0x08000fbc   0x08000fbc   0x00000054   Code   RO         5064    i.vPortEnterCritical  port.o
    0x08001010   0x08001010   0x0000003c   Code   RO         5065    i.vPortExitCritical  port.o
    0x0800104c   0x0800104c   0x00000094   Code   RO         5001    i.vPortFree         heap_4.o
    0x080010e0   0x080010e0   0x00000028   Code   RO         5066    i.vPortSetupTimerInterrupt  port.o
    0x08001108   0x08001108   0x00000078   Code   RO         5067    i.vPortValidateInterruptPriority  port.o
    0x08001180   0x08001180   0x00000044   Code   RO          205    i.vTask1            main.o
    0x080011c4   0x080011c4   0x00000044   Code   RO          206    i.vTask2            main.o
    0x08001208   0x08001208   0x00000044   Code   RO          207    i.vTask3            main.o
    0x0800124c   0x0800124c   0x00000088   Code   RO         4667    i.vTaskStartScheduler  tasks.o
    0x080012d4   0x080012d4   0x00000010   Code   RO         4669    i.vTaskSuspendAll   tasks.o
    0x080012e4   0x080012e4   0x0000008c   Code   RO         4670    i.vTaskSwitchContext  tasks.o
    0x08001370   0x08001370   0x000000f8   Code   RO         5068    i.xPortStartScheduler  port.o
    0x08001468   0x08001468   0x000000e0   Code   RO         4441    i.xQueueGiveFromISR  queue.o
    0x08001548   0x08001548   0x00000060   Code   RO         4672    i.xTaskCreate       tasks.o
    0x080015a8   0x080015a8   0x00000148   Code   RO         4680    i.xTaskIncrementTick  tasks.o
    0x080016f0   0x080016f0   0x00000098   Code   RO         4685    i.xTaskRemoveFromEventList  tasks.o
    0x08001788   0x08001788   0x00000104   Code   RO         4686    i.xTaskResumeAll    tasks.o
    0x0800188c   0x0800188c   0x00000020   Data   RO         5557    Region$$Table       anon$$obj.o


    Execution Region RW_IRAM1 (Exec base: 0x20000000, Load base: 0x080018ac, Size: 0x00004600, Max: 0x0000c000, ABSOLUTE)

    Exec Addr    Load Addr    Size         Type   Attr      Idx    E Section Name        Object

    0x20000000   0x080018ac   0x00000014   Data   RW          208    .data               main.o
    0x20000014   0x080018c0   0x0000003c   Data   RW         4689    .data               tasks.o
    0x20000050   0x080018fc   0x00000018   Data   RW         5006    .data               heap_4.o
    0x20000068   0x08001914   0x0000000c   Data   RW         5069    .data               port.o
    0x20000074   0x08001920   0x00000004   Data   RW         5142    .data               system_gd32f30x.o
    0x20000078   0x08001924   0x0000007d   Data   RW         5187    .data               gd32f307c_eval.o
    0x200000f5   0x080019a1   0x00000003   PAD
    0x200000f8   0x080019a4   0x00000004   Data   RW         5531    .data               mc_w.l(stdout.o)
    0x200000fc        -       0x00000104   Zero   RW         4688    .bss                tasks.o
    0x20000200        -       0x00004000   Zero   RW         5005    .bss                heap_4.o
    0x20004200        -       0x00000400   Zero   RW         5239    STACK               startup_gd32f30x_cl.o


==============================================================================

Image component sizes


      Code (inc. data)   RO Data    RW Data    ZI Data      Debug   Object Name

         0          0          0          0          0       8456   event_groups.o
       152         30          0        125          0       2043   gd32f307c_eval.o
        48         10          0          0          0       1606   gd32f30x_exti.o
       188          0          0          0          0       1056   gd32f30x_gpio.o
        88         10          0          0          0      50180   gd32f30x_it.o
        20         10          0          0          0        734   gd32f30x_misc.o
       440         46          0          0          0       3644   gd32f30x_rcu.o
       368         16          0          0          0       5669   gd32f30x_usart.o
       692         62          0         24      16384       8187   heap_4.o
        96          0          0          0          0       3432   list.o
       400        184          0         20          0       9272   main.o
       854         78          0         12          0      12937   port.o
       224          0          0          0          0       5912   queue.o
        36          8        336          0       1024       1004   startup_gd32f30x_cl.o
       360         30          0          4          0       2511   system_gd32f30x.o
      1802        252          0         60        260      19987   tasks.o

    ----------------------------------------------------------------------
      5776        736        368        248      17668     136630   Object Totals
         0          0         32          0          0          0   (incl. Generated)
         8          0          0          3          0          0   (incl. Padding)

    ----------------------------------------------------------------------

      Code (inc. data)   RO Data    RW Data    ZI Data      Debug   Library Member Name

         0          0          0          0          0          0   entry.o
         0          0          0          0          0          0   entry10a.o
         0          0          0          0          0          0   entry11a.o
         8          4          0          0          0          0   entry2.o
         4          0          0          0          0          0   entry5.o
         0          0          0          0          0          0   entry7b.o
         0          0          0          0          0          0   entry8b.o
         8          4          0          0          0          0   entry9a.o
        30          0          0          0          0          0   handlers.o
        36          8          0          0          0         68   init.o
        36          0          0          0          0        108   memseta.o
        50          8          0          0          0        152   printfb.o
         0          0          0          4          0          0   stdout.o

    ----------------------------------------------------------------------
       172         24          0          4          0        328   Library Totals
         0          0          0          0          0          0   (incl. Padding)

    ----------------------------------------------------------------------

      Code (inc. data)   RO Data    RW Data    ZI Data      Debug   Library Name

       172         24          0          4          0        328   mc_w.l

    ----------------------------------------------------------------------
       172         24          0          4          0        328   Library Totals

    ----------------------------------------------------------------------

==============================================================================


      Code (inc. data)   RO Data    RW Data    ZI Data      Debug   

      5948        760        368        252      17668     131310   Grand Totals
      5948        760        368        252      17668     131310   ELF Image Totals
      5948        760        368        252          0          0   ROM Totals

==============================================================================

    Total RO  Size (Code + RO Data)                 6316 (   6.17kB)
    Total RW  Size (RW Data + ZI Data)             17920 (  17.50kB)
    Total ROM Size (Code + RO Data + RW Data)       6568 (   6.41kB)

==============================================================================

