Component: ARM Compiler 5.06 update 6 (build 750) Tool: armlink [4d35ed]

==============================================================================

Section Cross References

    hmi_app.o(i.GetIrCode) refers to hmi_app.o(.data) for irCodeFlag
    hmi_app.o(i.HmiAppInit) refers to infrared_drv.o(i.regParaIrFrame) for regParaIrFrame
    hmi_app.o(i.HmiAppInit) refers to hmi_app.o(i.ParaIrFrame) for ParaIrFrame
    hmi_app.o(i.InfraredDrvTest) refers to hmi_app.o(i.GetIrCode) for GetIrCode
    hmi_app.o(i.InfraredDrvTest) refers to printf5.o(i.__0printf$5) for __2printf
    hmi_app.o(i.InfraredDrvTest) refers to timer_drv.o(i.PwmUpdatePropor) for PwmUpdatePropor
    hmi_app.o(i.ParaIrFrame) refers to hmi_app.o(.data) for headFlag
    main.o(i.AllAppInit) refers to hmi_app.o(i.HmiAppInit) for HmiAppInit
    main.o(i.AllDrvInit) refers to delay.o(i.delay_init) for delay_init
    main.o(i.AllDrvInit) refers to usb2com_drv.o(i.Usb2ComDrvInit) for Usb2ComDrvInit
    main.o(i.AllDrvInit) refers to timer_drv.o(i.TimerDrvInit) for TimerDrvInit
    main.o(i.AllDrvInit) refers to infrared_drv.o(i.InfraredDrvInit) for InfraredDrvInit
    main.o(i.main) refers to main.o(i.AllDrvInit) for AllDrvInit
    main.o(i.main) refers to main.o(i.AllAppInit) for AllAppInit
    main.o(i.main) refers to hmi_app.o(i.InfraredDrvTest) for InfraredDrvTest
    startup_gd32f30x_hd.o(RESET) refers to startup_gd32f30x_hd.o(STACK) for __initial_sp
    startup_gd32f30x_hd.o(RESET) refers to startup_gd32f30x_hd.o(.text) for Reset_Handler
    startup_gd32f30x_hd.o(RESET) refers to infrared_drv.o(i.TIMER1_IRQHandler) for TIMER1_IRQHandler
==============================================================================

Removing Unused input sections from the image.

    Removing startup_gd32f30x_hd.o(HEAP), (1024 bytes).
    Removing system_gd32f30x.o(.rev16_text), (4 bytes).
    Removing system_gd32f30x.o(.revsh_text), (4 bytes).
    Removing system_gd32f30x.o(i.SystemCoreClockUpdate), (316 bytes).
    Removing system_gd32f30x.o(.data), (4 bytes).
    Removing delay.o(.rev16_text), (4 bytes).
    Removing delay.o(.revsh_text), (4 bytes).
    Removing infrared_drv.o(.rev16_text), (4 bytes).
    Removing infrared_drv.o(.revsh_text), (4 bytes).
    Removing key_drv.o(.rev16_text), (4 bytes).
    Removing key_drv.o(.revsh_text), (4 bytes).
    Removing key_drv.o(i.KeyExitInit), (176 bytes).
    Removing led_drv.o(.rev16_text), (4 bytes).
    Removing led_drv.o(.revsh_text), (4 bytes).
    Removing led_drv.o(i.LedDrvInit), (92 bytes).
    Removing led_drv.o(i.ToggleLed), (80 bytes).
    Removing led_drv.o(i.TurnOffLed), (44 bytes).
    Removing led_drv.o(i.TurnOnLed), (44 bytes).
==============================================================================

Image Symbol Table

    Local Symbols

    Symbol Name                              Value     Ov Type        Size  Object(Section)

    ../clib/microlib/division.c              0x00000000   Number         0  uldiv.o ABSOLUTE
    ../clib/microlib/division.c              0x00000000   Number         0  uidiv.o ABSOLUTE
    ../clib/microlib/errno.c                 0x00000000   Number         0  errno.o ABSOLUTE
    ../clib/microlib/init/entry.s            0x00000000   Number         0  entry8a.o ABSOLUTE
    ../clib/microlib/init/entry.s            0x00000000   Number         0  entry7b.o ABSOLUTE
    ../clib/microlib/init/entry.s            0x00000000   Number         0  entry7a.o ABSOLUTE
    ../clib/microlib/init/entry.s            0x00000000   Number         0  entry5.o ABSOLUTE
    ../clib/microlib/init/entry.s            0x00000000   Number         0  entry2.o ABSOLUTE
    ../clib/microlib/init/entry.s            0x00000000   Number         0  entry9b.o ABSOLUTE
    ../clib/microlib/init/entry.s            0x00000000   Number         0  entry10a.o ABSOLUTE
    ../clib/microlib/init/entry.s            0x00000000   Number         0  entry10b.o ABSOLUTE
    ../clib/microlib/init/entry.s            0x00000000   Number         0  entry8b.o ABSOLUTE
    ../clib/microlib/init/entry.s            0x00000000   Number         0  entry11a.o ABSOLUTE
    ../clib/microlib/init/entry.s            0x00000000   Number         0  entry11b.o ABSOLUTE
    ../clib/microlib/init/entry.s            0x00000000   Number         0  entry.o ABSOLUTE
    ../clib/microlib/init/entry.s            0x00000000   Number         0  entry9a.o ABSOLUTE
    ../clib/microlib/longlong.c              0x00000000   Number         0  llushr.o ABSOLUTE
    ../clib/microlib/longlong.c              0x00000000   Number         0  llshl.o ABSOLUTE
    ../clib/microlib/longlong.c              0x00000000   Number         0  llsshr.o ABSOLUTE
    ../clib/microlib/printf/printf.c         0x00000000   Number         0  printf8.o ABSOLUTE
    ../clib/microlib/printf/printf.c         0x00000000   Number         0  printf4.o ABSOLUTE
    ../clib/microlib/printf/printf.c         0x00000000   Number         0  printf5.o ABSOLUTE
    ../clib/microlib/printf/printf.c         0x00000000   Number         0  printf6.o ABSOLUTE
    ../clib/microlib/printf/printf.c         0x00000000   Number         0  printf7.o ABSOLUTE
    ../clib/microlib/printf/printf.c         0x00000000   Number         0  printfa.o ABSOLUTE
    ../clib/microlib/printf/printf.c         0x00000000   Number         0  printf3.o ABSOLUTE
    ../clib/microlib/printf/printf.c         0x00000000   Number         0  printf2.o ABSOLUTE
    ../clib/microlib/printf/printf.c         0x00000000   Number         0  printf1.o ABSOLUTE
    ../clib/microlib/printf/printf.c         0x00000000   Number         0  printf0.o ABSOLUTE
    ../clib/microlib/printf/printf.c         0x00000000   Number         0  printfb.o ABSOLUTE
    ../clib/microlib/printf/stubs.s          0x00000000   Number         0  stubs.o ABSOLUTE
    ../clib/microlib/stdio/streams.c         0x00000000   Number         0  stdout.o ABSOLUTE
    ../clib/microlib/stubs.s                 0x00000000   Number         0  iusefp.o ABSOLUTE
    ../fplib/microlib/fpadd.c                0x00000000   Number         0  dadd.o ABSOLUTE
    ../fplib/microlib/fpdiv.c                0x00000000   Number         0  ddiv.o ABSOLUTE
    ../fplib/microlib/fpepilogue.c           0x00000000   Number         0  depilogue.o ABSOLUTE
    ../fplib/microlib/fpfix.c                0x00000000   Number         0  dfixui.o ABSOLUTE
    ../fplib/microlib/fpfix.c                0x00000000   Number         0  dfixi.o ABSOLUTE
    ../fplib/microlib/fpfix.c                0x00000000   Number         0  dfixul.o ABSOLUTE
    ../fplib/microlib/fpflt.c                0x00000000   Number         0  dfltui.o ABSOLUTE
    ../fplib/microlib/fpflt.c                0x00000000   Number         0  dflti.o ABSOLUTE
    ../fplib/microlib/fpmul.c                0x00000000   Number         0  dmul.o ABSOLUTE
    ../fplib/microlib/fpneg.c                0x00000000   Number         0  dneg.o ABSOLUTE
    ../mathlib/cos_i.c                       0x00000000   Number         0  cos_i.o ABSOLUTE
    ../mathlib/dunder.c                      0x00000000   Number         0  dunder.o ABSOLUTE
    ../mathlib/fabs.c                        0x00000000   Number         0  fabs.o ABSOLUTE
    ../mathlib/fpclassify.c                  0x00000000   Number         0  fpclassify.o ABSOLUTE
    ../mathlib/poly.c                        0x00000000   Number         0  poly.o ABSOLUTE
    ../mathlib/rred.c                        0x00000000   Number         0  rred.o ABSOLUTE
    ../mathlib/sin.c                         0x00000000   Number         0  sin_x.o ABSOLUTE
    ../mathlib/sin.c                         0x00000000   Number         0  sin.o ABSOLUTE
    ../mathlib/sin_i.c                       0x00000000   Number         0  sin_i.o ABSOLUTE
    ../mathlib/sin_i.c                       0x00000000   Number         0  sin_i_x.o ABSOLUTE
    App\hmi_app.c                            0x00000000   Number         0  hmi_app.o ABSOLUTE
    App\main.c                               0x00000000   Number         0  main.o ABSOLUTE
    Arm\\system_gd32f30x.c                   0x00000000   Number         0  system_gd32f30x.o ABSOLUTE
    Arm\startup_gd32f30x_hd.s                0x00000000   Number         0  startup_gd32f30x_hd.o ABSOLUTE
    Arm\system_gd32f30x.c                    0x00000000   Number         0  system_gd32f30x.o ABSOLUTE
    Driver\Usb2Com_drv.c                     0x00000000   Number         0  usb2com_drv.o ABSOLUTE
    Driver\\Usb2Com_drv.c                    0x00000000   Number         0  usb2com_drv.o ABSOLUTE
    Driver\\delay.c                          0x00000000   Number         0  delay.o ABSOLUTE
    Driver\\infrared_drv.c                   0x00000000   Number         0  infrared_drv.o ABSOLUTE
    Driver\\key_drv.c                        0x00000000   Number         0  key_drv.o ABSOLUTE
    Driver\\led_drv.c                        0x00000000   Number         0  led_drv.o ABSOLUTE
    Driver\\timer_drv.c                      0x00000000   Number         0  timer_drv.o ABSOLUTE
    Driver\delay.c                           0x00000000   Number         0  delay.o ABSOLUTE
    Driver\infrared_drv.c                    0x00000000   Number         0  infrared_drv.o ABSOLUTE
    Driver\key_drv.c                         0x00000000   Number         0  key_drv.o ABSOLUTE
    Driver\led_drv.c                         0x00000000   Number         0  led_drv.o ABSOLUTE
    Driver\timer_drv.c                       0x00000000   Number         0  timer_drv.o ABSOLUTE
    GD32_Lib\Source\gd32f30x_exti.c          0x00000000   Number         0  gd32f30x_exti.o ABSOLUTE
    GD32_Lib\Source\gd32f30x_gpio.c          0x00000000   Number         0  gd32f30x_gpio.o ABSOLUTE
    GD32_Lib\Source\gd32f30x_misc.c          0x00000000   Number         0  gd32f30x_misc.o ABSOLUTE
    GD32_Lib\Source\gd32f30x_rcu.c           0x00000000   Number         0  gd32f30x_rcu.o ABSOLUTE
    GD32_Lib\Source\gd32f30x_timer.c         0x00000000   Number         0  gd32f30x_timer.o ABSOLUTE
    GD32_Lib\Source\gd32f30x_usart.c         0x00000000   Number         0  gd32f30x_usart.o ABSOLUTE
    GD32_Lib\\Source\\gd32f30x_exti.c        0x00000000   Number         0  gd32f30x_exti.o ABSOLUTE
    GD32_Lib\\Source\\gd32f30x_gpio.c        0x00000000   Number         0  gd32f30x_gpio.o ABSOLUTE
    GD32_Lib\\Source\\gd32f30x_misc.c        0x00000000   Number         0  gd32f30x_misc.o ABSOLUTE
    GD32_Lib\\Source\\gd32f30x_rcu.c         0x00000000   Number         0  gd32f30x_rcu.o ABSOLUTE
    GD32_Lib\\Source\\gd32f30x_timer.c       0x00000000   Number         0  gd32f30x_timer.o ABSOLUTE
    GD32_Lib\\Source\\gd32f30x_usart.c       0x00000000   Number         0  gd32f30x_usart.o ABSOLUTE
    cdrcmple.s                               0x00000000   Number         0  cdrcmple.o ABSOLUTE
    dc.s                                     0x00000000   Number         0  dc.o ABSOLUTE
    handlers.s                               0x00000000   Number         0  handlers.o ABSOLUTE
    init.s                                   0x00000000   Number         0  init.o ABSOLUTE
    RESET                                    0x08000000   Section      304  startup_gd32f30x_hd.o(RESET)
    .ARM.Collect$$$$00000000                 0x08000130   Section        0  entry.o(.ARM.Collect$$$$00000000)
    .ARM.Collect$$$$00000001                 0x08000130   Section        4  entry2.o(.ARM.Collect$$$$00000001)
    .ARM.Collect$$$$00000004                 0x08000134   Section        4  entry5.o(.ARM.Collect$$$$00000004)
    .ARM.Collect$$$$00000008                 0x08000138   Section        0  entry7b.o(.ARM.Collect$$$$00000008)
    .ARM.Collect$$$$0000000A                 0x08000138   Section        0  entry8b.o(.ARM.Collect$$$$0000000A)
    .ARM.Collect$$$$0000000B                 0x08000138   Section        8  entry9a.o(.ARM.Collect$$$$0000000B)
    .ARM.Collect$$$$0000000D                 0x08000140   Section        0  entry10a.o(.ARM.Collect$$$$0000000D)
    .ARM.Collect$$$$0000000F                 0x08000140   Section        0  entry11a.o(.ARM.Collect$$$$0000000F)
    .ARM.Collect$$$$00002712                 0x08000140   Section        4  entry2.o(.ARM.Collect$$$$00002712)
    __lit__00000000                          0x08000140   Data           4  entry2.o(.ARM.Collect$$$$00002712)
    .text                                    0x08000144   Section       36  startup_gd32f30x_hd.o(.text)
    $v0                                      0x08000144   Number         0  startup_gd32f30x_hd.o(.text)
    .text                                    0x08000168   Section        0  dmul.o(.text)
    .text                                    0x0800024c   Section        0  ddiv.o(.text)
    .text                                    0x0800032a   Section        0  dfltui.o(.text)
    .text                                    0x08000344   Section        0  dfixui.o(.text)
    .text                                    0x08000376   Section        0  uldiv.o(.text)
    .text                                    0x080003d8   Section        0  llushr.o(.text)
    .text                                    0x080003f8   Section        0  iusefp.o(.text)
    .text                                    0x080003f8   Section        0  depilogue.o(.text)
    .text                                    0x080004b2   Section        0  dadd.o(.text)
    .text                                    0x08000600   Section       36  init.o(.text)
    .text                                    0x08000624   Section        0  llshl.o(.text)
    .text                                    0x08000642   Section        0  llsshr.o(.text)
    .text                                    0x08000666   Section        0  dflti.o(.text)
    .text                                    0x08000688   Section        0  dfixi.o(.text)
    i.AllAppInit                             0x080006c6   Section        0  main.o(i.AllAppInit)
    AllAppInit                               0x080006c7   Thumb Code     8  main.o(i.AllAppInit)
    i.AllDrvInit                             0x080006ce   Section        0  main.o(i.AllDrvInit)
    AllDrvInit                               0x080006cf   Thumb Code    22  main.o(i.AllDrvInit)
    i.EXTI10_15_IRQHandler                   0x080006e4   Section        0  key_drv.o(i.EXTI10_15_IRQHandler)
    i.GetIrCode                              0x08000760   Section        0  hmi_app.o(i.GetIrCode)
    i.HmiAppInit                             0x08000784   Section        0  hmi_app.o(i.HmiAppInit)
    i.InfraredDrvInit                        0x08000794   Section        0  infrared_drv.o(i.InfraredDrvInit)
    i.InfraredDrvTest                        0x080007a8   Section        0  hmi_app.o(i.InfraredDrvTest)
    i.InfraredGpioInit                       0x08000864   Section        0  infrared_drv.o(i.InfraredGpioInit)
    InfraredGpioInit                         0x08000865   Thumb Code    24  infrared_drv.o(i.InfraredGpioInit)
    i.InfraredTimerInit                      0x08000880   Section        0  infrared_drv.o(i.InfraredTimerInit)
    InfraredTimerInit                        0x08000881   Thumb Code   112  infrared_drv.o(i.InfraredTimerInit)
    i.ParaIrFrame                            0x080008f0   Section        0  hmi_app.o(i.ParaIrFrame)
    ParaIrFrame                              0x080008f1   Thumb Code   228  hmi_app.o(i.ParaIrFrame)
    i.PwmDrvTest                             0x080009e4   Section        0  timer_drv.o(i.PwmDrvTest)
    i.PwmUpdatePropor                        0x08000ba8   Section        0  timer_drv.o(i.PwmUpdatePropor)
    i.SystemInit                             0x08000ccc   Section        0  system_gd32f30x.o(i.SystemInit)
    i.TIMER1_IRQHandler                      0x08000d74   Section        0  infrared_drv.o(i.TIMER1_IRQHandler)
    i.TimeInit                               0x08000db4   Section        0  timer_drv.o(i.TimeInit)
    TimeInit                                 0x08000db5   Thumb Code   206  timer_drv.o(i.TimeInit)
    i.TimerDrvInit                           0x08000e88   Section        0  timer_drv.o(i.TimerDrvInit)
    i.TimerGpioInit                          0x08000e9c   Section        0  timer_drv.o(i.TimerGpioInit)
    TimerGpioInit                            0x08000e9d   Thumb Code    72  timer_drv.o(i.TimerGpioInit)
    i.Usb2ComDrvInit                         0x08000ee8   Section        0  usb2com_drv.o(i.Usb2ComDrvInit)
    i.Usb2ComGpioInit                        0x08000ef8   Section        0  usb2com_drv.o(i.Usb2ComGpioInit)
    Usb2ComGpioInit                          0x08000ef9   Thumb Code    40  usb2com_drv.o(i.Usb2ComGpioInit)
    i.Usb2ComUartInit                        0x08000f24   Section        0  usb2com_drv.o(i.Usb2ComUartInit)
    Usb2ComUartInit                          0x08000f25   Thumb Code    96  usb2com_drv.o(i.Usb2ComUartInit)
    i.__0printf$5                            0x08000f8c   Section        0  printf5.o(i.__0printf$5)
    i.__ARM_fpclassify                       0x08000fac   Section        0  fpclassify.o(i.__ARM_fpclassify)
    i.__hardfp_sin                           0x08000fe0   Section        0  sin.o(i.__hardfp_sin)
    i.__ieee754_rem_pio2                     0x080010a8   Section        0  rred.o(i.__ieee754_rem_pio2)
    i.__kernel_cos                           0x080014e0   Section        0  cos_i.o(i.__kernel_cos)
    i.__kernel_poly                          0x08001650   Section        0  poly.o(i.__kernel_poly)
    i.__kernel_sin                           0x08001748   Section        0  sin_i.o(i.__kernel_sin)
    i.__mathlib_dbl_infnan                   0x08001878   Section        0  dunder.o(i.__mathlib_dbl_infnan)
    i.__mathlib_dbl_invalid                  0x08001890   Section        0  dunder.o(i.__mathlib_dbl_invalid)
    i.__mathlib_dbl_underflow                0x080018b0   Section        0  dunder.o(i.__mathlib_dbl_underflow)
    i.__scatterload_copy                     0x080018d0   Section       14  handlers.o(i.__scatterload_copy)
    i.__scatterload_null                     0x080018de   Section        2  handlers.o(i.__scatterload_null)
    i.__scatterload_zeroinit                 0x080018e0   Section       14  handlers.o(i.__scatterload_zeroinit)
    i.__set_errno                            0x080018f0   Section        0  errno.o(i.__set_errno)
    i._printf_core                           0x080018fc   Section        0  printf5.o(i._printf_core)
    _printf_core                             0x080018fd   Thumb Code   658  printf5.o(i._printf_core)
    i.delay_init                             0x08001bbc   Section        0  delay.o(i.delay_init)
    i.delay_ms                               0x08001c14   Section        0  delay.o(i.delay_ms)
    i.delay_us                               0x08001c4c   Section        0  delay.o(i.delay_us)
    i.exti_interrupt_flag_clear              0x08001c98   Section        0  gd32f30x_exti.o(i.exti_interrupt_flag_clear)
    i.fabs                                   0x08001ca4   Section        0  fabs.o(i.fabs)
    i.fputc                                  0x08001cbc   Section        0  usb2com_drv.o(i.fputc)
    i.gpio_bit_set                           0x08001ce4   Section        0  gd32f30x_gpio.o(i.gpio_bit_set)
    i.gpio_bit_write                         0x08001ce8   Section        0  gd32f30x_gpio.o(i.gpio_bit_write)
    i.gpio_init                              0x08001cf2   Section        0  gd32f30x_gpio.o(i.gpio_init)
    i.gpio_input_bit_get                     0x08001dae   Section        0  gd32f30x_gpio.o(i.gpio_input_bit_get)
    i.main                                   0x08001dbe   Section        0  main.o(i.main)
    i.nvic_irq_enable                        0x08001dd0   Section        0  gd32f30x_misc.o(i.nvic_irq_enable)
    i.nvic_priority_group_set                0x08001e94   Section        0  gd32f30x_misc.o(i.nvic_priority_group_set)
    i.rcu_clock_freq_get                     0x08001ea8   Section        0  gd32f30x_rcu.o(i.rcu_clock_freq_get)
    i.rcu_periph_clock_enable                0x08002000   Section        0  gd32f30x_rcu.o(i.rcu_periph_clock_enable)
    i.rcu_periph_reset_disable               0x08002020   Section        0  gd32f30x_rcu.o(i.rcu_periph_reset_disable)
    i.rcu_periph_reset_enable                0x08002040   Section        0  gd32f30x_rcu.o(i.rcu_periph_reset_enable)
    i.regParaIrFrame                         0x08002060   Section        0  infrared_drv.o(i.regParaIrFrame)
    i.system_clock_120m_hxtal                0x0800206c   Section        0  system_gd32f30x.o(i.system_clock_120m_hxtal)
    system_clock_120m_hxtal                  0x0800206d   Thumb Code   258  system_gd32f30x.o(i.system_clock_120m_hxtal)
    i.system_clock_config                    0x08002180   Section        0  system_gd32f30x.o(i.system_clock_config)
    system_clock_config                      0x08002181   Thumb Code     8  system_gd32f30x.o(i.system_clock_config)
    i.timer_channel_capture_value_register_read 0x08002188   Section        0  gd32f30x_timer.o(i.timer_channel_capture_value_register_read)
    i.timer_channel_input_capture_prescaler_config 0x080021b2   Section        0  gd32f30x_timer.o(i.timer_channel_input_capture_prescaler_config)
    i.timer_channel_input_struct_para_init   0x0800220c   Section        0  gd32f30x_timer.o(i.timer_channel_input_struct_para_init)
    i.timer_channel_output_config            0x0800221c   Section        0  gd32f30x_timer.o(i.timer_channel_output_config)
    i.timer_channel_output_mode_config       0x08002408   Section        0  gd32f30x_timer.o(i.timer_channel_output_mode_config)
    i.timer_channel_output_pulse_value_config 0x08002462   Section        0  gd32f30x_timer.o(i.timer_channel_output_pulse_value_config)
    i.timer_channel_output_struct_para_init  0x08002488   Section        0  gd32f30x_timer.o(i.timer_channel_output_struct_para_init)
    i.timer_counter_value_config             0x08002498   Section        0  gd32f30x_timer.o(i.timer_counter_value_config)
    i.timer_deinit                           0x0800249c   Section        0  gd32f30x_timer.o(i.timer_deinit)
    i.timer_enable                           0x08002578   Section        0  gd32f30x_timer.o(i.timer_enable)
    i.timer_init                             0x08002584   Section        0  gd32f30x_timer.o(i.timer_init)
    i.timer_input_capture_config             0x0800261c   Section        0  gd32f30x_timer.o(i.timer_input_capture_config)
    i.timer_interrupt_enable                 0x08002762   Section        0  gd32f30x_timer.o(i.timer_interrupt_enable)
    i.timer_interrupt_flag_clear             0x0800276a   Section        0  gd32f30x_timer.o(i.timer_interrupt_flag_clear)
    i.timer_interrupt_flag_get               0x08002770   Section        0  gd32f30x_timer.o(i.timer_interrupt_flag_get)
    i.timer_primary_output_config            0x08002788   Section        0  gd32f30x_timer.o(i.timer_primary_output_config)
    i.timer_struct_para_init                 0x080027a0   Section        0  gd32f30x_timer.o(i.timer_struct_para_init)
    i.usart_baudrate_set                     0x080027b8   Section        0  gd32f30x_usart.o(i.usart_baudrate_set)
    i.usart_data_transmit                    0x08002848   Section        0  gd32f30x_usart.o(i.usart_data_transmit)
    i.usart_deinit                           0x08002850   Section        0  gd32f30x_usart.o(i.usart_deinit)
    i.usart_enable                           0x080028e0   Section        0  gd32f30x_usart.o(i.usart_enable)
    i.usart_flag_get                         0x080028ea   Section        0  gd32f30x_usart.o(i.usart_flag_get)
    i.usart_interrupt_enable                 0x08002908   Section        0  gd32f30x_usart.o(i.usart_interrupt_enable)
    i.usart_parity_config                    0x08002922   Section        0  gd32f30x_usart.o(i.usart_parity_config)
    i.usart_receive_config                   0x08002932   Section        0  gd32f30x_usart.o(i.usart_receive_config)
    i.usart_stop_bit_set                     0x08002946   Section        0  gd32f30x_usart.o(i.usart_stop_bit_set)
    i.usart_transmit_config                  0x08002956   Section        0  gd32f30x_usart.o(i.usart_transmit_config)
    i.usart_word_length_set                  0x0800296a   Section        0  gd32f30x_usart.o(i.usart_word_length_set)
    .constdata                               0x08002980   Section       48  cos_i.o(.constdata)
    C                                        0x08002980   Data          48  cos_i.o(.constdata)
    .constdata                               0x080029b0   Section      200  rred.o(.constdata)
    pio2s                                    0x080029b0   Data          48  rred.o(.constdata)
    twooverpi                                0x080029e0   Data         152  rred.o(.constdata)
    .constdata                               0x08002a78   Section       40  sin_i.o(.constdata)
    S                                        0x08002a78   Data          40  sin_i.o(.constdata)
    .data                                    0x20000000   Section        7  hmi_app.o(.data)
    irCode                                   0x20000000   Data           4  hmi_app.o(.data)
    irCodeFlag                               0x20000004   Data           1  hmi_app.o(.data)
    headFlag                                 0x20000005   Data           1  hmi_app.o(.data)
    index                                    0x20000006   Data           1  hmi_app.o(.data)
    .data                                    0x20000008   Section        2  delay.o(.data)
    g_fac_us                                 0x20000008   Data           2  delay.o(.data)
    .data                                    0x2000000c   Section        4  infrared_drv.o(.data)
    .data                                    0x20000010   Section        2  timer_drv.o(.data)
    .data                                    0x20000014   Section       32  usb2com_drv.o(.data)
    .data                                    0x20000034   Section        4  stdout.o(.data)
    .data                                    0x20000038   Section        4  errno.o(.data)
    _errno                                   0x20000038   Data           4  errno.o(.data)
    STACK                                    0x20000040   Section     1024  startup_gd32f30x_hd.o(STACK)

    Global Symbols

    Symbol Name                              Value     Ov Type        Size  Object(Section)

    BuildAttributes$$THM_ISAv4$E$P$D$K$B$S$7EM$VFPi3$EXTD16$VFPS$VFMA$PE$A:L22UL41UL21$X:L11$S22US41US21$IEEE1$IW$USESV6$~STKCKD$USESV7$~SHL$OTIME$ROPI$IEEEX$EBA8$MICROLIB$REQ8$PRES8$EABIv2 0x00000000   Number         0  anon$$obj.o ABSOLUTE
    __ARM_use_no_argv                        0x00000000   Number         0  main.o ABSOLUTE
    _printf_a                                0x00000000   Number         0  stubs.o ABSOLUTE
    _printf_c                                0x00000000   Number         0  stubs.o ABSOLUTE
    _printf_charcount                        0x00000000   Number         0  stubs.o ABSOLUTE
    _printf_d                                0x00000000   Number         0  stubs.o ABSOLUTE
    _printf_e                                0x00000000   Number         0  stubs.o ABSOLUTE
    _printf_f                                0x00000000   Number         0  stubs.o ABSOLUTE
    _printf_flags                            0x00000000   Number         0  stubs.o ABSOLUTE
    _printf_fp_dec                           0x00000000   Number         0  stubs.o ABSOLUTE
    _printf_fp_hex                           0x00000000   Number         0  stubs.o ABSOLUTE
    _printf_g                                0x00000000   Number         0  stubs.o ABSOLUTE
    _printf_i                                0x00000000   Number         0  stubs.o ABSOLUTE
    _printf_int_dec                          0x00000000   Number         0  stubs.o ABSOLUTE
    _printf_l                                0x00000000   Number         0  stubs.o ABSOLUTE
    _printf_lc                               0x00000000   Number         0  stubs.o ABSOLUTE
    _printf_ll                               0x00000000   Number         0  stubs.o ABSOLUTE
    _printf_lld                              0x00000000   Number         0  stubs.o ABSOLUTE
    _printf_lli                              0x00000000   Number         0  stubs.o ABSOLUTE
    _printf_llo                              0x00000000   Number         0  stubs.o ABSOLUTE
    _printf_llu                              0x00000000   Number         0  stubs.o ABSOLUTE
    _printf_llx                              0x00000000   Number         0  stubs.o ABSOLUTE
    _printf_longlong_dec                     0x00000000   Number         0  stubs.o ABSOLUTE
    _printf_longlong_hex                     0x00000000   Number         0  stubs.o ABSOLUTE
    _printf_longlong_oct                     0x00000000   Number         0  stubs.o ABSOLUTE
    _printf_ls                               0x00000000   Number         0  stubs.o ABSOLUTE
    _printf_mbtowc                           0x00000000   Number         0  stubs.o ABSOLUTE
    _printf_n                                0x00000000   Number         0  stubs.o ABSOLUTE
    _printf_o                                0x00000000   Number         0  stubs.o ABSOLUTE
    _printf_p                                0x00000000   Number         0  stubs.o ABSOLUTE
    _printf_percent                          0x00000000   Number         0  stubs.o ABSOLUTE
    _printf_pre_padding                      0x00000000   Number         0  stubs.o ABSOLUTE
    _printf_return_value                     0x00000000   Number         0  stubs.o ABSOLUTE
    _printf_s                                0x00000000   Number         0  stubs.o ABSOLUTE
    _printf_sizespec                         0x00000000   Number         0  stubs.o ABSOLUTE
    _printf_str                              0x00000000   Number         0  stubs.o ABSOLUTE
    _printf_truncate_signed                  0x00000000   Number         0  stubs.o ABSOLUTE
    _printf_truncate_unsigned                0x00000000   Number         0  stubs.o ABSOLUTE
    _printf_u                                0x00000000   Number         0  stubs.o ABSOLUTE
    _printf_wc                               0x00000000   Number         0  stubs.o ABSOLUTE
    _printf_wctomb                           0x00000000   Number         0  stubs.o ABSOLUTE
    _printf_widthprec                        0x00000000   Number         0  stubs.o ABSOLUTE
    _printf_x                                0x00000000   Number         0  stubs.o ABSOLUTE
    __cpp_initialize__aeabi_                  - Undefined Weak Reference
    __cxa_finalize                            - Undefined Weak Reference
    __decompress                              - Undefined Weak Reference
    _clock_init                               - Undefined Weak Reference
    _microlib_exit                            - Undefined Weak Reference
    __Vectors_Size                           0x00000130   Number         0  startup_gd32f30x_hd.o ABSOLUTE
    __Vectors                                0x08000000   Data           4  startup_gd32f30x_hd.o(RESET)
    __Vectors_End                            0x08000130   Data           0  startup_gd32f30x_hd.o(RESET)
    __main                                   0x08000131   Thumb Code     0  entry.o(.ARM.Collect$$$$00000000)
    _main_stk                                0x08000131   Thumb Code     0  entry2.o(.ARM.Collect$$$$00000001)
    _main_scatterload                        0x08000135   Thumb Code     0  entry5.o(.ARM.Collect$$$$00000004)
    __main_after_scatterload                 0x08000139   Thumb Code     0  entry5.o(.ARM.Collect$$$$00000004)
    _main_clock                              0x08000139   Thumb Code     0  entry7b.o(.ARM.Collect$$$$00000008)
    _main_cpp_init                           0x08000139   Thumb Code     0  entry8b.o(.ARM.Collect$$$$0000000A)
    _main_init                               0x08000139   Thumb Code     0  entry9a.o(.ARM.Collect$$$$0000000B)
    __rt_final_cpp                           0x08000141   Thumb Code     0  entry10a.o(.ARM.Collect$$$$0000000D)
    __rt_final_exit                          0x08000141   Thumb Code     0  entry11a.o(.ARM.Collect$$$$0000000F)
    Reset_Handler                            0x08000145   Thumb Code     8  startup_gd32f30x_hd.o(.text)
    NMI_Handler                              0x0800014d   Thumb Code     2  startup_gd32f30x_hd.o(.text)
    HardFault_Handler                        0x0800014f   Thumb Code     2  startup_gd32f30x_hd.o(.text)
    MemManage_Handler                        0x08000151   Thumb Code     2  startup_gd32f30x_hd.o(.text)
    BusFault_Handler                         0x08000153   Thumb Code     2  startup_gd32f30x_hd.o(.text)
    UsageFault_Handler                       0x08000155   Thumb Code     2  startup_gd32f30x_hd.o(.text)
    SVC_Handler                              0x08000157   Thumb Code     2  startup_gd32f30x_hd.o(.text)
    DebugMon_Handler                         0x08000159   Thumb Code     2  startup_gd32f30x_hd.o(.text)
    PendSV_Handler                           0x0800015b   Thumb Code     2  startup_gd32f30x_hd.o(.text)
    SysTick_Handler                          0x0800015d   Thumb Code     2  startup_gd32f30x_hd.o(.text)
    ADC0_1_IRQHandler                        0x0800015f   Thumb Code     0  startup_gd32f30x_hd.o(.text)
    ADC2_IRQHandler                          0x0800015f   Thumb Code     0  startup_gd32f30x_hd.o(.text)
    CAN0_EWMC_IRQHandler                     0x0800015f   Thumb Code     0  startup_gd32f30x_hd.o(.text)
    CAN0_RX1_IRQHandler                      0x0800015f   Thumb Code     0  startup_gd32f30x_hd.o(.text)
    DMA0_Channel0_IRQHandler                 0x0800015f   Thumb Code     0  startup_gd32f30x_hd.o(.text)
    DMA0_Channel1_IRQHandler                 0x0800015f   Thumb Code     0  startup_gd32f30x_hd.o(.text)
    DMA0_Channel2_IRQHandler                 0x0800015f   Thumb Code     0  startup_gd32f30x_hd.o(.text)
    DMA0_Channel3_IRQHandler                 0x0800015f   Thumb Code     0  startup_gd32f30x_hd.o(.text)
    DMA0_Channel4_IRQHandler                 0x0800015f   Thumb Code     0  startup_gd32f30x_hd.o(.text)
    DMA0_Channel5_IRQHandler                 0x0800015f   Thumb Code     0  startup_gd32f30x_hd.o(.text)
    DMA0_Channel6_IRQHandler                 0x0800015f   Thumb Code     0  startup_gd32f30x_hd.o(.text)
    DMA1_Channel0_IRQHandler                 0x0800015f   Thumb Code     0  startup_gd32f30x_hd.o(.text)
    DMA1_Channel1_IRQHandler                 0x0800015f   Thumb Code     0  startup_gd32f30x_hd.o(.text)
    DMA1_Channel2_IRQHandler                 0x0800015f   Thumb Code     0  startup_gd32f30x_hd.o(.text)
    DMA1_Channel3_4_IRQHandler               0x0800015f   Thumb Code     0  startup_gd32f30x_hd.o(.text)
    EXMC_IRQHandler                          0x0800015f   Thumb Code     0  startup_gd32f30x_hd.o(.text)
    EXTI0_IRQHandler                         0x0800015f   Thumb Code     0  startup_gd32f30x_hd.o(.text)
    EXTI1_IRQHandler                         0x0800015f   Thumb Code     0  startup_gd32f30x_hd.o(.text)
    EXTI2_IRQHandler                         0x0800015f   Thumb Code     0  startup_gd32f30x_hd.o(.text)
    EXTI3_IRQHandler                         0x0800015f   Thumb Code     0  startup_gd32f30x_hd.o(.text)
    EXTI4_IRQHandler                         0x0800015f   Thumb Code     0  startup_gd32f30x_hd.o(.text)
    EXTI5_9_IRQHandler                       0x0800015f   Thumb Code     0  startup_gd32f30x_hd.o(.text)
    FMC_IRQHandler                           0x0800015f   Thumb Code     0  startup_gd32f30x_hd.o(.text)
    I2C0_ER_IRQHandler                       0x0800015f   Thumb Code     0  startup_gd32f30x_hd.o(.text)
    I2C0_EV_IRQHandler                       0x0800015f   Thumb Code     0  startup_gd32f30x_hd.o(.text)
    I2C1_ER_IRQHandler                       0x0800015f   Thumb Code     0  startup_gd32f30x_hd.o(.text)
    I2C1_EV_IRQHandler                       0x0800015f   Thumb Code     0  startup_gd32f30x_hd.o(.text)
    LVD_IRQHandler                           0x0800015f   Thumb Code     0  startup_gd32f30x_hd.o(.text)
    RCU_CTC_IRQHandler                       0x0800015f   Thumb Code     0  startup_gd32f30x_hd.o(.text)
    RTC_Alarm_IRQHandler                     0x0800015f   Thumb Code     0  startup_gd32f30x_hd.o(.text)
    RTC_IRQHandler                           0x0800015f   Thumb Code     0  startup_gd32f30x_hd.o(.text)
    SDIO_IRQHandler                          0x0800015f   Thumb Code     0  startup_gd32f30x_hd.o(.text)
    SPI0_IRQHandler                          0x0800015f   Thumb Code     0  startup_gd32f30x_hd.o(.text)
    SPI1_IRQHandler                          0x0800015f   Thumb Code     0  startup_gd32f30x_hd.o(.text)
    SPI2_IRQHandler                          0x0800015f   Thumb Code     0  startup_gd32f30x_hd.o(.text)
    TAMPER_IRQHandler                        0x0800015f   Thumb Code     0  startup_gd32f30x_hd.o(.text)
    TIMER0_BRK_IRQHandler                    0x0800015f   Thumb Code     0  startup_gd32f30x_hd.o(.text)
    TIMER0_Channel_IRQHandler                0x0800015f   Thumb Code     0  startup_gd32f30x_hd.o(.text)
    TIMER0_TRG_CMT_IRQHandler                0x0800015f   Thumb Code     0  startup_gd32f30x_hd.o(.text)
    TIMER0_UP_IRQHandler                     0x0800015f   Thumb Code     0  startup_gd32f30x_hd.o(.text)
    TIMER2_IRQHandler                        0x0800015f   Thumb Code     0  startup_gd32f30x_hd.o(.text)
    TIMER3_IRQHandler                        0x0800015f   Thumb Code     0  startup_gd32f30x_hd.o(.text)
    TIMER4_IRQHandler                        0x0800015f   Thumb Code     0  startup_gd32f30x_hd.o(.text)
    TIMER5_IRQHandler                        0x0800015f   Thumb Code     0  startup_gd32f30x_hd.o(.text)
    TIMER6_IRQHandler                        0x0800015f   Thumb Code     0  startup_gd32f30x_hd.o(.text)
    TIMER7_BRK_IRQHandler                    0x0800015f   Thumb Code     0  startup_gd32f30x_hd.o(.text)
    TIMER7_Channel_IRQHandler                0x0800015f   Thumb Code     0  startup_gd32f30x_hd.o(.text)
    TIMER7_TRG_CMT_IRQHandler                0x0800015f   Thumb Code     0  startup_gd32f30x_hd.o(.text)
    TIMER7_UP_IRQHandler                     0x0800015f   Thumb Code     0  startup_gd32f30x_hd.o(.text)
    UART3_IRQHandler                         0x0800015f   Thumb Code     0  startup_gd32f30x_hd.o(.text)
    UART4_IRQHandler                         0x0800015f   Thumb Code     0  startup_gd32f30x_hd.o(.text)
    USART0_IRQHandler                        0x0800015f   Thumb Code     0  startup_gd32f30x_hd.o(.text)
    USART1_IRQHandler                        0x0800015f   Thumb Code     0  startup_gd32f30x_hd.o(.text)
    USART2_IRQHandler                        0x0800015f   Thumb Code     0  startup_gd32f30x_hd.o(.text)
    USBD_HP_CAN0_TX_IRQHandler               0x0800015f   Thumb Code     0  startup_gd32f30x_hd.o(.text)
    USBD_LP_CAN0_RX0_IRQHandler              0x0800015f   Thumb Code     0  startup_gd32f30x_hd.o(.text)
    USBD_WKUP_IRQHandler                     0x0800015f   Thumb Code     0  startup_gd32f30x_hd.o(.text)
    WWDGT_IRQHandler                         0x0800015f   Thumb Code     0  startup_gd32f30x_hd.o(.text)
    __aeabi_dmul                             0x08000169   Thumb Code   228  dmul.o(.text)
    __aeabi_ddiv                             0x0800024d   Thumb Code   222  ddiv.o(.text)
    __aeabi_ui2d                             0x0800032b   Thumb Code    26  dfltui.o(.text)
    __aeabi_d2uiz                            0x08000345   Thumb Code    50  dfixui.o(.text)
    __aeabi_uldivmod                         0x08000377   Thumb Code    98  uldiv.o(.text)
    __aeabi_llsr                             0x080003d9   Thumb Code    32  llushr.o(.text)
    _ll_ushift_r                             0x080003d9   Thumb Code     0  llushr.o(.text)
    __I$use$fp                               0x080003f9   Thumb Code     0  iusefp.o(.text)
    _double_round                            0x080003f9   Thumb Code    30  depilogue.o(.text)
    _double_epilogue                         0x08000417   Thumb Code   156  depilogue.o(.text)
    __aeabi_dadd                             0x080004b3   Thumb Code   322  dadd.o(.text)
    __aeabi_dsub                             0x080005f5   Thumb Code     6  dadd.o(.text)
    __aeabi_drsub                            0x080005fb   Thumb Code     6  dadd.o(.text)
    __scatterload                            0x08000601   Thumb Code    28  init.o(.text)
    __scatterload_rt2                        0x08000601   Thumb Code     0  init.o(.text)
    __aeabi_llsl                             0x08000625   Thumb Code    30  llshl.o(.text)
    _ll_shift_l                              0x08000625   Thumb Code     0  llshl.o(.text)
    __aeabi_lasr                             0x08000643   Thumb Code    36  llsshr.o(.text)
    _ll_sshift_r                             0x08000643   Thumb Code     0  llsshr.o(.text)
    __aeabi_i2d                              0x08000667   Thumb Code    34  dflti.o(.text)
    __aeabi_d2iz                             0x08000689   Thumb Code    62  dfixi.o(.text)
    EXTI10_15_IRQHandler                     0x080006e5   Thumb Code   116  key_drv.o(i.EXTI10_15_IRQHandler)
    GetIrCode                                0x08000761   Thumb Code    28  hmi_app.o(i.GetIrCode)
    HmiAppInit                               0x08000785   Thumb Code    10  hmi_app.o(i.HmiAppInit)
    InfraredDrvInit                          0x08000795   Thumb Code    18  infrared_drv.o(i.InfraredDrvInit)
    InfraredDrvTest                          0x080007a9   Thumb Code   156  hmi_app.o(i.InfraredDrvTest)
    PwmDrvTest                               0x080009e5   Thumb Code   430  timer_drv.o(i.PwmDrvTest)
    PwmUpdatePropor                          0x08000ba9   Thumb Code   284  timer_drv.o(i.PwmUpdatePropor)
    SystemInit                               0x08000ccd   Thumb Code   156  system_gd32f30x.o(i.SystemInit)
    TIMER1_IRQHandler                        0x08000d75   Thumb Code    58  infrared_drv.o(i.TIMER1_IRQHandler)
    TimerDrvInit                             0x08000e89   Thumb Code    18  timer_drv.o(i.TimerDrvInit)
    Usb2ComDrvInit                           0x08000ee9   Thumb Code    16  usb2com_drv.o(i.Usb2ComDrvInit)
    __0printf$5                              0x08000f8d   Thumb Code    22  printf5.o(i.__0printf$5)
    __1printf$5                              0x08000f8d   Thumb Code     0  printf5.o(i.__0printf$5)
    __2printf                                0x08000f8d   Thumb Code     0  printf5.o(i.__0printf$5)
    __ARM_fpclassify                         0x08000fad   Thumb Code    48  fpclassify.o(i.__ARM_fpclassify)
    __hardfp_sin                             0x08000fe1   Thumb Code   180  sin.o(i.__hardfp_sin)
    __ieee754_rem_pio2                       0x080010a9   Thumb Code   938  rred.o(i.__ieee754_rem_pio2)
    __kernel_cos                             0x080014e1   Thumb Code   322  cos_i.o(i.__kernel_cos)
    __kernel_poly                            0x08001651   Thumb Code   248  poly.o(i.__kernel_poly)
    __kernel_sin                             0x08001749   Thumb Code   280  sin_i.o(i.__kernel_sin)
    __mathlib_dbl_infnan                     0x08001879   Thumb Code    20  dunder.o(i.__mathlib_dbl_infnan)
    __mathlib_dbl_invalid                    0x08001891   Thumb Code    24  dunder.o(i.__mathlib_dbl_invalid)
    __mathlib_dbl_underflow                  0x080018b1   Thumb Code    24  dunder.o(i.__mathlib_dbl_underflow)
    __scatterload_copy                       0x080018d1   Thumb Code    14  handlers.o(i.__scatterload_copy)
    __scatterload_null                       0x080018df   Thumb Code     2  handlers.o(i.__scatterload_null)
    __scatterload_zeroinit                   0x080018e1   Thumb Code    14  handlers.o(i.__scatterload_zeroinit)
    __set_errno                              0x080018f1   Thumb Code     6  errno.o(i.__set_errno)
    delay_init                               0x08001bbd   Thumb Code    74  delay.o(i.delay_init)
    delay_ms                                 0x08001c15   Thumb Code    50  delay.o(i.delay_ms)
    delay_us                                 0x08001c4d   Thumb Code    72  delay.o(i.delay_us)
    exti_interrupt_flag_clear                0x08001c99   Thumb Code     6  gd32f30x_exti.o(i.exti_interrupt_flag_clear)
    fabs                                     0x08001ca5   Thumb Code    24  fabs.o(i.fabs)
    fputc                                    0x08001cbd   Thumb Code    36  usb2com_drv.o(i.fputc)
    gpio_bit_set                             0x08001ce5   Thumb Code     4  gd32f30x_gpio.o(i.gpio_bit_set)
    gpio_bit_write                           0x08001ce9   Thumb Code    10  gd32f30x_gpio.o(i.gpio_bit_write)
    gpio_init                                0x08001cf3   Thumb Code   188  gd32f30x_gpio.o(i.gpio_init)
    gpio_input_bit_get                       0x08001daf   Thumb Code    16  gd32f30x_gpio.o(i.gpio_input_bit_get)
    main                                     0x08001dbf   Thumb Code    16  main.o(i.main)
    nvic_irq_enable                          0x08001dd1   Thumb Code   186  gd32f30x_misc.o(i.nvic_irq_enable)
    nvic_priority_group_set                  0x08001e95   Thumb Code    10  gd32f30x_misc.o(i.nvic_priority_group_set)
    rcu_clock_freq_get                       0x08001ea9   Thumb Code   310  gd32f30x_rcu.o(i.rcu_clock_freq_get)
    rcu_periph_clock_enable                  0x08002001   Thumb Code    28  gd32f30x_rcu.o(i.rcu_periph_clock_enable)
    rcu_periph_reset_disable                 0x08002021   Thumb Code    28  gd32f30x_rcu.o(i.rcu_periph_reset_disable)
    rcu_periph_reset_enable                  0x08002041   Thumb Code    28  gd32f30x_rcu.o(i.rcu_periph_reset_enable)
    regParaIrFrame                           0x08002061   Thumb Code     8  infrared_drv.o(i.regParaIrFrame)
    timer_channel_capture_value_register_read 0x08002189   Thumb Code    42  gd32f30x_timer.o(i.timer_channel_capture_value_register_read)
    timer_channel_input_capture_prescaler_config 0x080021b3   Thumb Code    90  gd32f30x_timer.o(i.timer_channel_input_capture_prescaler_config)
    timer_channel_input_struct_para_init     0x0800220d   Thumb Code    16  gd32f30x_timer.o(i.timer_channel_input_struct_para_init)
    timer_channel_output_config              0x0800221d   Thumb Code   484  gd32f30x_timer.o(i.timer_channel_output_config)
    timer_channel_output_mode_config         0x08002409   Thumb Code    90  gd32f30x_timer.o(i.timer_channel_output_mode_config)
    timer_channel_output_pulse_value_config  0x08002463   Thumb Code    38  gd32f30x_timer.o(i.timer_channel_output_pulse_value_config)
    timer_channel_output_struct_para_init    0x08002489   Thumb Code    16  gd32f30x_timer.o(i.timer_channel_output_struct_para_init)
    timer_counter_value_config               0x08002499   Thumb Code     4  gd32f30x_timer.o(i.timer_counter_value_config)
    timer_deinit                             0x0800249d   Thumb Code   210  gd32f30x_timer.o(i.timer_deinit)
    timer_enable                             0x08002579   Thumb Code    10  gd32f30x_timer.o(i.timer_enable)
    timer_init                               0x08002585   Thumb Code   122  gd32f30x_timer.o(i.timer_init)
    timer_input_capture_config               0x0800261d   Thumb Code   326  gd32f30x_timer.o(i.timer_input_capture_config)
    timer_interrupt_enable                   0x08002763   Thumb Code     8  gd32f30x_timer.o(i.timer_interrupt_enable)
    timer_interrupt_flag_clear               0x0800276b   Thumb Code     6  gd32f30x_timer.o(i.timer_interrupt_flag_clear)
    timer_interrupt_flag_get                 0x08002771   Thumb Code    24  gd32f30x_timer.o(i.timer_interrupt_flag_get)
    timer_primary_output_config              0x08002789   Thumb Code    24  gd32f30x_timer.o(i.timer_primary_output_config)
    timer_struct_para_init                   0x080027a1   Thumb Code    22  gd32f30x_timer.o(i.timer_struct_para_init)
    usart_baudrate_set                       0x080027b9   Thumb Code   136  gd32f30x_usart.o(i.usart_baudrate_set)
    usart_data_transmit                      0x08002849   Thumb Code     8  gd32f30x_usart.o(i.usart_data_transmit)
    usart_deinit                             0x08002851   Thumb Code   136  gd32f30x_usart.o(i.usart_deinit)
    usart_enable                             0x080028e1   Thumb Code    10  gd32f30x_usart.o(i.usart_enable)
    usart_flag_get                           0x080028eb   Thumb Code    30  gd32f30x_usart.o(i.usart_flag_get)
    usart_interrupt_enable                   0x08002909   Thumb Code    26  gd32f30x_usart.o(i.usart_interrupt_enable)
    usart_parity_config                      0x08002923   Thumb Code    16  gd32f30x_usart.o(i.usart_parity_config)
    usart_receive_config                     0x08002933   Thumb Code    20  gd32f30x_usart.o(i.usart_receive_config)
    usart_stop_bit_set                       0x08002947   Thumb Code    16  gd32f30x_usart.o(i.usart_stop_bit_set)
    usart_transmit_config                    0x08002957   Thumb Code    20  gd32f30x_usart.o(i.usart_transmit_config)
    usart_word_length_set                    0x0800296b   Thumb Code    16  gd32f30x_usart.o(i.usart_word_length_set)
    Region$$Table$$Base                      0x08002aa0   Number         0  anon$$obj.o(Region$$Table)
    Region$$Table$$Limit                     0x08002ac0   Number         0  anon$$obj.o(Region$$Table)
    paraIrFrame                              0x2000000c   Data           4  infrared_drv.o(.data)
    pValue                                   0x20000010   Data           2  timer_drv.o(.data)
    g_Usb2comUart0                           0x20000014   Data          32  usb2com_drv.o(.data)
    __stdout                                 0x20000034   Data           4  stdout.o(.data)
    __initial_sp                             0x20000440   Data           0  startup_gd32f30x_hd.o(STACK)



==============================================================================

Memory Map of the image

  Image Entry point : 0x08000131

  Load Region LR_IROM1 (Base: 0x08000000, Size: 0x00002afc, Max: 0x00040000, ABSOLUTE)

    Execution Region ER_IROM1 (Exec base: 0x08000000, Load base: 0x08000000, Size: 0x00002ac0, Max: 0x00040000, ABSOLUTE)

    Exec Addr    Load Addr    Size         Type   Attr      Idx    E Section Name        Object

    0x08000000   0x08000000   0x00000130   Data   RO           86    RESET               startup_gd32f30x_hd.o
    0x08000130   0x08000130   0x00000000   Code   RO         1868  * .ARM.Collect$$$$00000000  mc_w.l(entry.o)
    0x08000130   0x08000130   0x00000004   Code   RO         2168    .ARM.Collect$$$$00000001  mc_w.l(entry2.o)
    0x08000134   0x08000134   0x00000004   Code   RO         2171    .ARM.Collect$$$$00000004  mc_w.l(entry5.o)
    0x08000138   0x08000138   0x00000000   Code   RO         2173    .ARM.Collect$$$$00000008  mc_w.l(entry7b.o)
    0x08000138   0x08000138   0x00000000   Code   RO         2175    .ARM.Collect$$$$0000000A  mc_w.l(entry8b.o)
    0x08000138   0x08000138   0x00000008   Code   RO         2176    .ARM.Collect$$$$0000000B  mc_w.l(entry9a.o)
    0x08000140   0x08000140   0x00000000   Code   RO         2178    .ARM.Collect$$$$0000000D  mc_w.l(entry10a.o)
    0x08000140   0x08000140   0x00000000   Code   RO         2180    .ARM.Collect$$$$0000000F  mc_w.l(entry11a.o)
    0x08000140   0x08000140   0x00000004   Code   RO         2169    .ARM.Collect$$$$00002712  mc_w.l(entry2.o)
    0x08000144   0x08000144   0x00000024   Code   RO           87    .text               startup_gd32f30x_hd.o
    0x08000168   0x08000168   0x000000e4   Code   RO         2132    .text               mf_w.l(dmul.o)
    0x0800024c   0x0800024c   0x000000de   Code   RO         2134    .text               mf_w.l(ddiv.o)
    0x0800032a   0x0800032a   0x0000001a   Code   RO         2136    .text               mf_w.l(dfltui.o)
    0x08000344   0x08000344   0x00000032   Code   RO         2138    .text               mf_w.l(dfixui.o)
    0x08000376   0x08000376   0x00000062   Code   RO         2185    .text               mc_w.l(uldiv.o)
    0x080003d8   0x080003d8   0x00000020   Code   RO         2187    .text               mc_w.l(llushr.o)
    0x080003f8   0x080003f8   0x00000000   Code   RO         2196    .text               mc_w.l(iusefp.o)
    0x080003f8   0x080003f8   0x000000ba   Code   RO         2197    .text               mf_w.l(depilogue.o)
    0x080004b2   0x080004b2   0x0000014e   Code   RO         2199    .text               mf_w.l(dadd.o)
    0x08000600   0x08000600   0x00000024   Code   RO         2217    .text               mc_w.l(init.o)
    0x08000624   0x08000624   0x0000001e   Code   RO         2219    .text               mc_w.l(llshl.o)
    0x08000642   0x08000642   0x00000024   Code   RO         2221    .text               mc_w.l(llsshr.o)
    0x08000666   0x08000666   0x00000022   Code   RO         2223    .text               mf_w.l(dflti.o)
    0x08000688   0x08000688   0x0000003e   Code   RO         2225    .text               mf_w.l(dfixi.o)
    0x080006c6   0x080006c6   0x00000008   Code   RO           56    i.AllAppInit        main.o
    0x080006ce   0x080006ce   0x00000016   Code   RO           57    i.AllDrvInit        main.o
    0x080006e4   0x080006e4   0x0000007c   Code   RO          334    i.EXTI10_15_IRQHandler  key_drv.o
    0x08000760   0x08000760   0x00000024   Code   RO            1    i.GetIrCode         hmi_app.o
    0x08000784   0x08000784   0x00000010   Code   RO            2    i.HmiAppInit        hmi_app.o
    0x08000794   0x08000794   0x00000012   Code   RO          281    i.InfraredDrvInit   infrared_drv.o
    0x080007a6   0x080007a6   0x00000002   PAD
    0x080007a8   0x080007a8   0x000000bc   Code   RO            3    i.InfraredDrvTest   hmi_app.o
    0x08000864   0x08000864   0x0000001c   Code   RO          282    i.InfraredGpioInit  infrared_drv.o
    0x08000880   0x08000880   0x00000070   Code   RO          283    i.InfraredTimerInit  infrared_drv.o
    0x080008f0   0x080008f0   0x000000f4   Code   RO            4    i.ParaIrFrame       hmi_app.o
    0x080009e4   0x080009e4   0x000001c4   Code   RO          407    i.PwmDrvTest        timer_drv.o
    0x08000ba8   0x08000ba8   0x00000124   Code   RO          408    i.PwmUpdatePropor   timer_drv.o
    0x08000ccc   0x08000ccc   0x000000a8   Code   RO           95    i.SystemInit        system_gd32f30x.o
    0x08000d74   0x08000d74   0x00000040   Code   RO          284    i.TIMER1_IRQHandler  infrared_drv.o
    0x08000db4   0x08000db4   0x000000d4   Code   RO          409    i.TimeInit          timer_drv.o
    0x08000e88   0x08000e88   0x00000012   Code   RO          410    i.TimerDrvInit      timer_drv.o
    0x08000e9a   0x08000e9a   0x00000002   PAD
    0x08000e9c   0x08000e9c   0x0000004c   Code   RO          411    i.TimerGpioInit     timer_drv.o
    0x08000ee8   0x08000ee8   0x00000010   Code   RO          456    i.Usb2ComDrvInit    usb2com_drv.o
    0x08000ef8   0x08000ef8   0x0000002c   Code   RO          457    i.Usb2ComGpioInit   usb2com_drv.o
    0x08000f24   0x08000f24   0x00000068   Code   RO          458    i.Usb2ComUartInit   usb2com_drv.o
    0x08000f8c   0x08000f8c   0x00000020   Code   RO         2004    i.__0printf$5       mc_w.l(printf5.o)
    0x08000fac   0x08000fac   0x00000030   Code   RO         2213    i.__ARM_fpclassify  m_wm.l(fpclassify.o)
    0x08000fdc   0x08000fdc   0x00000004   PAD
    0x08000fe0   0x08000fe0   0x000000c8   Code   RO         1856    i.__hardfp_sin      m_wm.l(sin.o)
    0x080010a8   0x080010a8   0x00000438   Code   RO         2157    i.__ieee754_rem_pio2  m_wm.l(rred.o)
    0x080014e0   0x080014e0   0x00000170   Code   RO         2140    i.__kernel_cos      m_wm.l(cos_i.o)
    0x08001650   0x08001650   0x000000f8   Code   RO         2215    i.__kernel_poly     m_wm.l(poly.o)
    0x08001748   0x08001748   0x00000130   Code   RO         2162    i.__kernel_sin      m_wm.l(sin_i.o)
    0x08001878   0x08001878   0x00000014   Code   RO         2144    i.__mathlib_dbl_infnan  m_wm.l(dunder.o)
    0x0800188c   0x0800188c   0x00000004   PAD
    0x08001890   0x08001890   0x00000020   Code   RO         2146    i.__mathlib_dbl_invalid  m_wm.l(dunder.o)
    0x080018b0   0x080018b0   0x00000020   Code   RO         2149    i.__mathlib_dbl_underflow  m_wm.l(dunder.o)
    0x080018d0   0x080018d0   0x0000000e   Code   RO         2229    i.__scatterload_copy  mc_w.l(handlers.o)
    0x080018de   0x080018de   0x00000002   Code   RO         2230    i.__scatterload_null  mc_w.l(handlers.o)
    0x080018e0   0x080018e0   0x0000000e   Code   RO         2231    i.__scatterload_zeroinit  mc_w.l(handlers.o)
    0x080018ee   0x080018ee   0x00000002   PAD
    0x080018f0   0x080018f0   0x0000000c   Code   RO         2191    i.__set_errno       mc_w.l(errno.o)
    0x080018fc   0x080018fc   0x000002c0   Code   RO         2011    i._printf_core      mc_w.l(printf5.o)
    0x08001bbc   0x08001bbc   0x00000058   Code   RO          227    i.delay_init        delay.o
    0x08001c14   0x08001c14   0x00000038   Code   RO          228    i.delay_ms          delay.o
    0x08001c4c   0x08001c4c   0x0000004c   Code   RO          229    i.delay_us          delay.o
    0x08001c98   0x08001c98   0x0000000c   Code   RO         1777    i.exti_interrupt_flag_clear  gd32f30x_exti.o
    0x08001ca4   0x08001ca4   0x00000018   Code   RO         2209    i.fabs              m_wm.l(fabs.o)
    0x08001cbc   0x08001cbc   0x00000028   Code   RO          459    i.fputc             usb2com_drv.o
    0x08001ce4   0x08001ce4   0x00000004   Code   RO         1584    i.gpio_bit_set      gd32f30x_gpio.o
    0x08001ce8   0x08001ce8   0x0000000a   Code   RO         1585    i.gpio_bit_write    gd32f30x_gpio.o
    0x08001cf2   0x08001cf2   0x000000bc   Code   RO         1593    i.gpio_init         gd32f30x_gpio.o
    0x08001dae   0x08001dae   0x00000010   Code   RO         1594    i.gpio_input_bit_get  gd32f30x_gpio.o
    0x08001dbe   0x08001dbe   0x00000010   Code   RO           58    i.main              main.o
    0x08001dce   0x08001dce   0x00000002   PAD
    0x08001dd0   0x08001dd0   0x000000c4   Code   RO         1714    i.nvic_irq_enable   gd32f30x_misc.o
    0x08001e94   0x08001e94   0x00000014   Code   RO         1715    i.nvic_priority_group_set  gd32f30x_misc.o
    0x08001ea8   0x08001ea8   0x00000158   Code   RO         1340    i.rcu_clock_freq_get  gd32f30x_rcu.o
    0x08002000   0x08002000   0x00000020   Code   RO         1358    i.rcu_periph_clock_enable  gd32f30x_rcu.o
    0x08002020   0x08002020   0x00000020   Code   RO         1361    i.rcu_periph_reset_disable  gd32f30x_rcu.o
    0x08002040   0x08002040   0x00000020   Code   RO         1362    i.rcu_periph_reset_enable  gd32f30x_rcu.o
    0x08002060   0x08002060   0x0000000c   Code   RO          285    i.regParaIrFrame    infrared_drv.o
    0x0800206c   0x0800206c   0x00000114   Code   RO           96    i.system_clock_120m_hxtal  system_gd32f30x.o
    0x08002180   0x08002180   0x00000008   Code   RO           97    i.system_clock_config  system_gd32f30x.o
    0x08002188   0x08002188   0x0000002a   Code   RO          508    i.timer_channel_capture_value_register_read  gd32f30x_timer.o
    0x080021b2   0x080021b2   0x0000005a   Code   RO          514    i.timer_channel_input_capture_prescaler_config  gd32f30x_timer.o
    0x0800220c   0x0800220c   0x00000010   Code   RO          515    i.timer_channel_input_struct_para_init  gd32f30x_timer.o
    0x0800221c   0x0800221c   0x000001ec   Code   RO          517    i.timer_channel_output_config  gd32f30x_timer.o
    0x08002408   0x08002408   0x0000005a   Code   RO          519    i.timer_channel_output_mode_config  gd32f30x_timer.o
    0x08002462   0x08002462   0x00000026   Code   RO          521    i.timer_channel_output_pulse_value_config  gd32f30x_timer.o
    0x08002488   0x08002488   0x00000010   Code   RO          524    i.timer_channel_output_struct_para_init  gd32f30x_timer.o
    0x08002498   0x08002498   0x00000004   Code   RO          529    i.timer_counter_value_config  gd32f30x_timer.o
    0x0800249c   0x0800249c   0x000000dc   Code   RO          530    i.timer_deinit      gd32f30x_timer.o
    0x08002578   0x08002578   0x0000000a   Code   RO          535    i.timer_enable      gd32f30x_timer.o
    0x08002582   0x08002582   0x00000002   PAD
    0x08002584   0x08002584   0x00000098   Code   RO          545    i.timer_init        gd32f30x_timer.o
    0x0800261c   0x0800261c   0x00000146   Code   RO          546    i.timer_input_capture_config  gd32f30x_timer.o
    0x08002762   0x08002762   0x00000008   Code   RO          552    i.timer_interrupt_enable  gd32f30x_timer.o
    0x0800276a   0x0800276a   0x00000006   Code   RO          553    i.timer_interrupt_flag_clear  gd32f30x_timer.o
    0x08002770   0x08002770   0x00000018   Code   RO          554    i.timer_interrupt_flag_get  gd32f30x_timer.o
    0x08002788   0x08002788   0x00000018   Code   RO          560    i.timer_primary_output_config  gd32f30x_timer.o
    0x080027a0   0x080027a0   0x00000016   Code   RO          565    i.timer_struct_para_init  gd32f30x_timer.o
    0x080027b6   0x080027b6   0x00000002   PAD
    0x080027b8   0x080027b8   0x00000090   Code   RO         1012    i.usart_baudrate_set  gd32f30x_usart.o
    0x08002848   0x08002848   0x00000008   Code   RO         1016    i.usart_data_transmit  gd32f30x_usart.o
    0x08002850   0x08002850   0x00000090   Code   RO         1017    i.usart_deinit      gd32f30x_usart.o
    0x080028e0   0x080028e0   0x0000000a   Code   RO         1021    i.usart_enable      gd32f30x_usart.o
    0x080028ea   0x080028ea   0x0000001e   Code   RO         1023    i.usart_flag_get    gd32f30x_usart.o
    0x08002908   0x08002908   0x0000001a   Code   RO         1030    i.usart_interrupt_enable  gd32f30x_usart.o
    0x08002922   0x08002922   0x00000010   Code   RO         1043    i.usart_parity_config  gd32f30x_usart.o
    0x08002932   0x08002932   0x00000014   Code   RO         1045    i.usart_receive_config  gd32f30x_usart.o
    0x08002946   0x08002946   0x00000010   Code   RO         1055    i.usart_stop_bit_set  gd32f30x_usart.o
    0x08002956   0x08002956   0x00000014   Code   RO         1059    i.usart_transmit_config  gd32f30x_usart.o
    0x0800296a   0x0800296a   0x00000010   Code   RO         1060    i.usart_word_length_set  gd32f30x_usart.o
    0x0800297a   0x0800297a   0x00000006   PAD
    0x08002980   0x08002980   0x00000030   Data   RO         2141    .constdata          m_wm.l(cos_i.o)
    0x080029b0   0x080029b0   0x000000c8   Data   RO         2159    .constdata          m_wm.l(rred.o)
    0x08002a78   0x08002a78   0x00000028   Data   RO         2163    .constdata          m_wm.l(sin_i.o)
    0x08002aa0   0x08002aa0   0x00000020   Data   RO         2227    Region$$Table       anon$$obj.o


    Execution Region RW_IRAM1 (Exec base: 0x20000000, Load base: 0x08002ac0, Size: 0x00000440, Max: 0x0000c000, ABSOLUTE)

    Exec Addr    Load Addr    Size         Type   Attr      Idx    E Section Name        Object

    0x20000000   0x08002ac0   0x00000007   Data   RW            5    .data               hmi_app.o
    0x20000007   0x08002ac7   0x00000001   PAD
    0x20000008   0x08002ac8   0x00000002   Data   RW          230    .data               delay.o
    0x2000000a   0x08002aca   0x00000002   PAD
    0x2000000c   0x08002acc   0x00000004   Data   RW          286    .data               infrared_drv.o
    0x20000010   0x08002ad0   0x00000002   Data   RW          412    .data               timer_drv.o
    0x20000012   0x08002ad2   0x00000002   PAD
    0x20000014   0x08002ad4   0x00000020   Data   RW          460    .data               usb2com_drv.o
    0x20000034   0x08002af4   0x00000004   Data   RW         2182    .data               mc_w.l(stdout.o)
    0x20000038   0x08002af8   0x00000004   Data   RW         2192    .data               mc_w.l(errno.o)
    0x2000003c   0x08002afc   0x00000004   PAD
    0x20000040        -       0x00000400   Zero   RW           84    STACK               startup_gd32f30x_hd.o


==============================================================================

Image component sizes


      Code (inc. data)   RO Data    RW Data    ZI Data      Debug   Object Name

       220         24          0          2          0      32598   delay.o
        12          6          0          0          0       4700   gd32f30x_exti.o
       218          0          0          0          0      14689   gd32f30x_gpio.o
       216         20          0          0          0       1388   gd32f30x_misc.o
       440         46          0          0          0      19852   gd32f30x_rcu.o
      1580         48          0          0          0      26770   gd32f30x_timer.o
       450         16          0          0          0      13233   gd32f30x_usart.o
       484         62          0          7          0       7463   hmi_app.o
       234         14          0          4          0       3389   infrared_drv.o
       124          8          0          0          0        555   key_drv.o
        46          0          0          0          0       1327   main.o
        36          8        304          0       1024        844   startup_gd32f30x_hd.o
       452         30          0          0          0      39097   system_gd32f30x.o
      1050         50          0          2          0       3175   timer_drv.o
       204         16          0         32          0       4198   usb2com_drv.o

    ----------------------------------------------------------------------
      5782        348        336         52       1024     173278   Object Totals
         0          0         32          0          0          0   (incl. Generated)
        16          0          0          5          0          0   (incl. Padding)

    ----------------------------------------------------------------------

      Code (inc. data)   RO Data    RW Data    ZI Data      Debug   Library Member Name

       368         46         48          0          0        200   cos_i.o
        84         16          0          0          0        372   dunder.o
        24          0          0          0          0        124   fabs.o
        48          0          0          0          0        124   fpclassify.o
       248          0          0          0          0        152   poly.o
      1080        142        200          0          0        188   rred.o
       200         20          0          0          0        164   sin.o
       304         24         40          0          0        208   sin_i.o
         0          0          0          0          0          0   entry.o
         0          0          0          0          0          0   entry10a.o
         0          0          0          0          0          0   entry11a.o
         8          4          0          0          0          0   entry2.o
         4          0          0          0          0          0   entry5.o
         0          0          0          0          0          0   entry7b.o
         0          0          0          0          0          0   entry8b.o
         8          4          0          0          0          0   entry9a.o
        12          6          0          4          0         68   errno.o
        30          0          0          0          0          0   handlers.o
        36          8          0          0          0         68   init.o
         0          0          0          0          0          0   iusefp.o
        30          0          0          0          0         68   llshl.o
        36          0          0          0          0         68   llsshr.o
        32          0          0          0          0         68   llushr.o
       736         56          0          0          0        184   printf5.o
         0          0          0          4          0          0   stdout.o
        98          0          0          0          0         92   uldiv.o
       334          0          0          0          0        148   dadd.o
       222          0          0          0          0        100   ddiv.o
       186          0          0          0          0        176   depilogue.o
        62          0          0          0          0         80   dfixi.o
        50          0          0          0          0         76   dfixui.o
        34          0          0          0          0         76   dflti.o
        26          0          0          0          0         76   dfltui.o
       228          0          0          0          0         96   dmul.o

    ----------------------------------------------------------------------
      4538        326        288          8          4       2976   Library Totals
        10          0          0          0          4          0   (incl. Padding)

    ----------------------------------------------------------------------

      Code (inc. data)   RO Data    RW Data    ZI Data      Debug   Library Name

      2356        248        288          0          0       1532   m_wm.l
      1030         78          0          8          0        616   mc_w.l
      1142          0          0          0          0        828   mf_w.l

    ----------------------------------------------------------------------
      4538        326        288          8          4       2976   Library Totals

    ----------------------------------------------------------------------

==============================================================================


      Code (inc. data)   RO Data    RW Data    ZI Data      Debug   

     10320        674        624         60       1028     168482   Grand Totals
     10320        674        624         60       1028     168482   ELF Image Totals
     10320        674        624         60          0          0   ROM Totals

==============================================================================

    Total RO  Size (Code + RO Data)                10944 (  10.69kB)
    Total RW  Size (RW Data + ZI Data)              1088 (   1.06kB)
    Total ROM Size (Code + RO Data + RW Data)      11004 (  10.75kB)

==============================================================================

