Component: ARM Compiler 5.06 update 6 (build 750) Tool: armlink [4d35ed]

==============================================================================

Section Cross References

    main.o(i.AllDrvInit) refers to led_drv.o(i.LedDrvInit) for LedDrvInit
    main.o(i.AllDrvInit) refers to usb2com_drv.o(i.Usb2ComDrvInit) for Usb2ComDrvInit
    main.o(i.AllDrvInit) refers to printfb.o(i.__0printf$bare) for __2printf
    main.o(i.AllDrvInit) refers to wwdgt_drv.o(i.WwdgtDrvInit) for WwdgtDrvInit
    main.o(i.main) refers to printfb.o(i.__0printf$bare) for __2printf
    main.o(i.main) refers to main.o(i.AllDrvInit) for AllDrvInit
    main.o(i.main) refers to main.o(i.delay) for delay
    main.o(i.main) refers to wwdgt_drv.o(i.WwdgtDrvTest) for WwdgtDrvTest
    startup_gd32f30x_hd.o(RESET) refers to startup_gd32f30x_hd.o(STACK) for __initial_sp
    startup_gd32f30x_hd.o(RESET) refers to startup_gd32f30x_hd.o(.text) for Reset_Handler
    startup_gd32f30x_hd.o(RESET) refers to wwdgt_drv.o(i.WWDGT_IRQHandler) for WWDGT_IRQHandler
    startup_gd32f30x_hd.o(.text) refers to system_gd32f30x.o(i.SystemInit) for SystemInit
    startup_gd32f30x_hd.o(.text) refers to entry.o(.ARM.Collect$$$$00000000) for __main
    system_gd32f30x.o(i.SystemCoreClockUpdate) refers to system_gd32f30x.o(.data) for SystemCoreClock
    system_gd32f30x.o(i.SystemInit) refers to system_gd32f30x.o(i.system_clock_config) for system_clock_config
    system_gd32f30x.o(i.system_clock_config) refers to system_gd32f30x.o(i.system_clock_120m_hxtal) for system_clock_120m_hxtal
    led_drv.o(i.LedDrvInit) refers to gd32f30x_rcu.o(i.rcu_periph_clock_enable) for rcu_periph_clock_enable
    led_drv.o(i.LedDrvInit) refers to gd32f30x_gpio.o(i.gpio_init) for gpio_init
==============================================================================

Removing Unused input sections from the image.

    Removing main.o(.rev16_text), (4 bytes).
    Removing main.o(.revsh_text), (4 bytes).
    Removing startup_gd32f30x_hd.o(HEAP), (1024 bytes).
    Removing system_gd32f30x.o(.rev16_text), (4 bytes).
    Removing system_gd32f30x.o(.revsh_text), (4 bytes).
    Removing system_gd32f30x.o(i.SystemCoreClockUpdate), (316 bytes).
    Removing system_gd32f30x.o(.data), (4 bytes).
    Removing led_drv.o(.rev16_text), (4 bytes).
    Removing led_drv.o(.revsh_text), (4 bytes).
    Removing led_drv.o(i.TurnOffLed), (44 bytes).
    Removing usb2com_drv.o(.rev16_text), (4 bytes).
    Removing usb2com_drv.o(.revsh_text), (4 bytes).
    Removing wwdgt_drv.o(.rev16_text), (4 bytes).
    Removing wwdgt_drv.o(.revsh_text), (4 bytes).
    Removing gd32f30x_rcu.o(.rev16_text), (4 bytes).
    Removing gd32f30x_rcu.o(.revsh_text), (4 bytes).
    Removing gd32f30x_rcu.o(i.rcu_adc_clock_config), (108 bytes).
    Removing gd32f30x_rcu.o(i.rcu_ahb_clock_config), (24 bytes).
==============================================================================

Image Symbol Table

    Local Symbols

    Symbol Name                              Value     Ov Type        Size  Object(Section)

    ../clib/microlib/division.c              0x00000000   Number         0  uldiv.o ABSOLUTE
    ../clib/microlib/division.c              0x00000000   Number         0  uidiv.o ABSOLUTE
    ../clib/microlib/init/entry.s            0x00000000   Number         0  entry10a.o ABSOLUTE
    ../clib/microlib/init/entry.s            0x00000000   Number         0  entry2.o ABSOLUTE
    ../clib/microlib/init/entry.s            0x00000000   Number         0  entry11b.o ABSOLUTE
    ../clib/microlib/init/entry.s            0x00000000   Number         0  entry11a.o ABSOLUTE
    ../clib/microlib/init/entry.s            0x00000000   Number         0  entry10b.o ABSOLUTE
    ../clib/microlib/init/entry.s            0x00000000   Number         0  entry.o ABSOLUTE
    ../clib/microlib/init/entry.s            0x00000000   Number         0  entry9b.o ABSOLUTE
    ../clib/microlib/init/entry.s            0x00000000   Number         0  entry9a.o ABSOLUTE
    ../clib/microlib/init/entry.s            0x00000000   Number         0  entry8b.o ABSOLUTE
    ../clib/microlib/init/entry.s            0x00000000   Number         0  entry8a.o ABSOLUTE
    ../clib/microlib/init/entry.s            0x00000000   Number         0  entry7b.o ABSOLUTE
    ../clib/microlib/init/entry.s            0x00000000   Number         0  entry5.o ABSOLUTE
    ../clib/microlib/init/entry.s            0x00000000   Number         0  entry7a.o ABSOLUTE
    ../clib/microlib/longlong.c              0x00000000   Number         0  llshl.o ABSOLUTE
    ../clib/microlib/longlong.c              0x00000000   Number         0  llushr.o ABSOLUTE
    ../clib/microlib/longlong.c              0x00000000   Number         0  llsshr.o ABSOLUTE
    ../clib/microlib/printf/printf.c         0x00000000   Number         0  printfb.o ABSOLUTE
    ../clib/microlib/printf/printf.c         0x00000000   Number         0  printf0.o ABSOLUTE
    ../clib/microlib/printf/printf.c         0x00000000   Number         0  printfa.o ABSOLUTE
    ../clib/microlib/printf/printf.c         0x00000000   Number         0  printf8.o ABSOLUTE
    ../clib/microlib/printf/printf.c         0x00000000   Number         0  printf7.o ABSOLUTE
    ../clib/microlib/printf/printf.c         0x00000000   Number         0  printf6.o ABSOLUTE
    ../clib/microlib/printf/printf.c         0x00000000   Number         0  printf5.o ABSOLUTE
    ../clib/microlib/printf/printf.c         0x00000000   Number         0  printf4.o ABSOLUTE
    ../clib/microlib/printf/printf.c         0x00000000   Number         0  printf3.o ABSOLUTE
    ../clib/microlib/printf/printf.c         0x00000000   Number         0  printf2.o ABSOLUTE
    ../clib/microlib/printf/printf.c         0x00000000   Number         0  printf1.o ABSOLUTE
    ../clib/microlib/stdio/streams.c         0x00000000   Number         0  stdout.o ABSOLUTE
    ../clib/microlib/stubs.s                 0x00000000   Number         0  iusefp.o ABSOLUTE
    ../fplib/microlib/fpadd.c                0x00000000   Number         0  dadd.o ABSOLUTE
    ../fplib/microlib/fpdiv.c                0x00000000   Number         0  ddiv.o ABSOLUTE
    ../fplib/microlib/fpepilogue.c           0x00000000   Number         0  depilogue.o ABSOLUTE
    ../fplib/microlib/fpfix.c                0x00000000   Number         0  dfixul.o ABSOLUTE
    ../fplib/microlib/fpmul.c                0x00000000   Number         0  dmul.o ABSOLUTE
    App\\main.c                              0x00000000   Number         0  main.o ABSOLUTE
    App\main.c                               0x00000000   Number         0  main.o ABSOLUTE
    Arm\\system_gd32f30x.c                   0x00000000   Number         0  system_gd32f30x.o ABSOLUTE
    Arm\startup_gd32f30x_hd.s                0x00000000   Number         0  startup_gd32f30x_hd.o ABSOLUTE
    Arm\system_gd32f30x.c                    0x00000000   Number         0  system_gd32f30x.o ABSOLUTE
    Driver\Usb2Com_drv.c                     0x00000000   Number         0  usb2com_drv.o ABSOLUTE
    Driver\\Usb2Com_drv.c                    0x00000000   Number         0  usb2com_drv.o ABSOLUTE
    Driver\\led_drv.c                        0x00000000   Number         0  led_drv.o ABSOLUTE
    Driver\\wwdgt_drv.c                      0x00000000   Number         0  wwdgt_drv.o ABSOLUTE
    Driver\led_drv.c                         0x00000000   Number         0  led_drv.o ABSOLUTE
    Driver\wwdgt_drv.c                       0x00000000   Number         0  wwdgt_drv.o ABSOLUTE
    GD32_Lib\Source\gd32f30x_exti.c          0x00000000   Number         0  gd32f30x_exti.o ABSOLUTE
    GD32_Lib\Source\gd32f30x_gpio.c          0x00000000   Number         0  gd32f30x_gpio.o ABSOLUTE
    GD32_Lib\Source\gd32f30x_misc.c          0x00000000   Number         0  gd32f30x_misc.o ABSOLUTE
    GD32_Lib\Source\gd32f30x_rcu.c           0x00000000   Number         0  gd32f30x_rcu.o ABSOLUTE
    GD32_Lib\Source\gd32f30x_usart.c         0x00000000   Number         0  gd32f30x_usart.o ABSOLUTE
    GD32_Lib\Source\gd32f30x_wwdgt.c         0x00000000   Number         0  gd32f30x_wwdgt.o ABSOLUTE
    GD32_Lib\\Source\\gd32f30x_exti.c        0x00000000   Number         0  gd32f30x_exti.o ABSOLUTE
    GD32_Lib\\Source\\gd32f30x_gpio.c        0x00000000   Number         0  gd32f30x_gpio.o ABSOLUTE
    GD32_Lib\\Source\\gd32f30x_misc.c        0x00000000   Number         0  gd32f30x_misc.o ABSOLUTE
    GD32_Lib\\Source\\gd32f30x_rcu.c         0x00000000   Number         0  gd32f30x_rcu.o ABSOLUTE
    GD32_Lib\\Source\\gd32f30x_usart.c       0x00000000   Number         0  gd32f30x_usart.o ABSOLUTE
    GD32_Lib\\Source\\gd32f30x_wwdgt.c       0x00000000   Number         0  gd32f30x_wwdgt.o ABSOLUTE
    cdrcmple.s                               0x00000000   Number         0  cdrcmple.o ABSOLUTE
    dc.s                                     0x00000000   Number         0  dc.o ABSOLUTE
    handlers.s                               0x00000000   Number         0  handlers.o ABSOLUTE
    init.s                                   0x00000000   Number         0  init.o ABSOLUTE
    RESET                                    0x08000000   Section      304  startup_gd32f30x_hd.o(RESET)
    .ARM.Collect$$$$00000000                 0x08000130   Section        0  entry.o(.ARM.Collect$$$$00000000)
    .ARM.Collect$$$$00000001                 0x08000130   Section        4  entry2.o(.ARM.Collect$$$$00000001)
    .ARM.Collect$$$$00000004                 0x08000134   Section        4  entry5.o(.ARM.Collect$$$$00000004)
    .ARM.Collect$$$$00000008                 0x08000138   Section        0  entry7b.o(.ARM.Collect$$$$00000008)
    .ARM.Collect$$$$0000000A                 0x08000138   Section        0  entry8b.o(.ARM.Collect$$$$0000000A)
    .ARM.Collect$$$$0000000B                 0x08000138   Section        8  entry9a.o(.ARM.Collect$$$$0000000B)
    .ARM.Collect$$$$0000000D                 0x08000140   Section        0  entry10a.o(.ARM.Collect$$$$0000000D)
    .ARM.Collect$$$$0000000F                 0x08000140   Section        0  entry11a.o(.ARM.Collect$$$$0000000F)
    .ARM.Collect$$$$00002712                 0x08000140   Section        4  entry2.o(.ARM.Collect$$$$00002712)
    __lit__00000000                          0x08000140   Data           4  entry2.o(.ARM.Collect$$$$00002712)
    .text                                    0x08000144   Section       36  startup_gd32f30x_hd.o(.text)
    $v0                                      0x08000144   Number         0  startup_gd32f30x_hd.o(.text)
    .text                                    0x08000168   Section       36  init.o(.text)
    i.AllDrvInit                             0x0800018c   Section        0  main.o(i.AllDrvInit)
    AllDrvInit                               0x0800018d   Thumb Code    30  main.o(i.AllDrvInit)
    i.LedDrvInit                             0x080001e0   Section        0  led_drv.o(i.LedDrvInit)
    i.SystemInit                             0x0800023c   Section        0  system_gd32f30x.o(i.SystemInit)
    i.ToggleLed                              0x080002e4   Section        0  led_drv.o(i.ToggleLed)
    i.TurnOnLed                              0x08000334   Section        0  led_drv.o(i.TurnOnLed)
    i.Usb2ComDrvInit                         0x08000360   Section        0  usb2com_drv.o(i.Usb2ComDrvInit)
    i.Usb2ComGpioInit                        0x08000370   Section        0  usb2com_drv.o(i.Usb2ComGpioInit)
    Usb2ComGpioInit                          0x08000371   Thumb Code    40  usb2com_drv.o(i.Usb2ComGpioInit)
    i.Usb2ComUartInit                        0x0800039c   Section        0  usb2com_drv.o(i.Usb2ComUartInit)
    Usb2ComUartInit                          0x0800039d   Thumb Code   108  usb2com_drv.o(i.Usb2ComUartInit)
    i.WWDGT_IRQHandler                       0x08000410   Section        0  wwdgt_drv.o(i.WWDGT_IRQHandler)
    i.WwdgtDrvInit                           0x08000424   Section        0  wwdgt_drv.o(i.WwdgtDrvInit)
    i.WwdgtDrvTest                           0x08000456   Section        0  wwdgt_drv.o(i.WwdgtDrvTest)
    i.__0printf$bare                         0x08000460   Section        0  printfb.o(i.__0printf$bare)
    i.__scatterload_copy                     0x08000470   Section       14  handlers.o(i.__scatterload_copy)
    i.__scatterload_null                     0x0800047e   Section        2  handlers.o(i.__scatterload_null)
    i.__scatterload_zeroinit                 0x08000480   Section       14  handlers.o(i.__scatterload_zeroinit)
    i._printf_core                           0x0800048e   Section        0  printfb.o(i._printf_core)
    _printf_core                             0x0800048f   Thumb Code    34  printfb.o(i._printf_core)
    i.delay                                  0x080004b0   Section        0  main.o(i.delay)
    delay                                    0x080004b1   Thumb Code    26  main.o(i.delay)
    i.fputc                                  0x080004cc   Section        0  usb2com_drv.o(i.fputc)
    i.gpio_bit_reset                         0x080004f4   Section        0  gd32f30x_gpio.o(i.gpio_bit_reset)
    i.gpio_bit_set                           0x080004f8   Section        0  gd32f30x_gpio.o(i.gpio_bit_set)
    i.gpio_bit_write                         0x080004fc   Section        0  gd32f30x_gpio.o(i.gpio_bit_write)
    i.gpio_init                              0x08000506   Section        0  gd32f30x_gpio.o(i.gpio_init)
    i.gpio_input_bit_get                     0x080005c2   Section        0  gd32f30x_gpio.o(i.gpio_input_bit_get)
    i.main                                   0x080005d4   Section        0  main.o(i.main)
    i.nvic_irq_enable                        0x08000638   Section        0  gd32f30x_misc.o(i.nvic_irq_enable)
    i.nvic_priority_group_set                0x080006fc   Section        0  gd32f30x_misc.o(i.nvic_priority_group_set)
    i.rcu_clock_freq_get                     0x08000710   Section        0  gd32f30x_rcu.o(i.rcu_clock_freq_get)
    i.rcu_periph_clock_enable                0x08000868   Section        0  gd32f30x_rcu.o(i.rcu_periph_clock_enable)
    i.rcu_periph_reset_disable               0x08000888   Section        0  gd32f30x_rcu.o(i.rcu_periph_reset_disable)
    i.rcu_periph_reset_enable                0x080008a8   Section        0  gd32f30x_rcu.o(i.rcu_periph_reset_enable)
    i.system_clock_120m_hxtal                0x080008c8   Section        0  system_gd32f30x.o(i.system_clock_120m_hxtal)
    system_clock_120m_hxtal                  0x080008c9   Thumb Code   258  system_gd32f30x.o(i.system_clock_120m_hxtal)
    i.system_clock_config                    0x080009dc   Section        0  system_gd32f30x.o(i.system_clock_config)
    system_clock_config                      0x080009dd   Thumb Code     8  system_gd32f30x.o(i.system_clock_config)
    i.usart_baudrate_set                     0x080009e4   Section        0  gd32f30x_usart.o(i.usart_baudrate_set)
    i.usart_data_transmit                    0x08000a74   Section        0  gd32f30x_usart.o(i.usart_data_transmit)
    i.usart_deinit                           0x08000a7c   Section        0  gd32f30x_usart.o(i.usart_deinit)
    i.usart_enable                           0x08000b0c   Section        0  gd32f30x_usart.o(i.usart_enable)
    i.usart_flag_get                         0x08000b16   Section        0  gd32f30x_usart.o(i.usart_flag_get)
    i.usart_interrupt_enable                 0x08000b34   Section        0  gd32f30x_usart.o(i.usart_interrupt_enable)
    i.usart_parity_config                    0x08000b4e   Section        0  gd32f30x_usart.o(i.usart_parity_config)
    i.usart_receive_config                   0x08000b5e   Section        0  gd32f30x_usart.o(i.usart_receive_config)
    i.usart_stop_bit_set                     0x08000b72   Section        0  gd32f30x_usart.o(i.usart_stop_bit_set)
    i.usart_transmit_config                  0x08000b82   Section        0  gd32f30x_usart.o(i.usart_transmit_config)
    i.usart_word_length_set                  0x08000b96   Section        0  gd32f30x_usart.o(i.usart_word_length_set)
    i.wwdgt_config                           0x08000ba8   Section        0  gd32f30x_wwdgt.o(i.wwdgt_config)
    i.wwdgt_counter_update                   0x08000bc4   Section        0  gd32f30x_wwdgt.o(i.wwdgt_counter_update)
    i.wwdgt_enable                           0x08000bd4   Section        0  gd32f30x_wwdgt.o(i.wwdgt_enable)
    i.wwdgt_flag_clear                       0x08000be8   Section        0  gd32f30x_wwdgt.o(i.wwdgt_flag_clear)
    i.wwdgt_interrupt_enable                 0x08000bf4   Section        0  gd32f30x_wwdgt.o(i.wwdgt_interrupt_enable)
    .data                                    0x20000000   Section       24  led_drv.o(.data)
    .data                                    0x20000018   Section       32  usb2com_drv.o(.data)
    .data                                    0x20000038   Section        4  stdout.o(.data)
    STACK                                    0x20000040   Section     1024  startup_gd32f30x_hd.o(STACK)

    Global Symbols

    Symbol Name                              Value     Ov Type        Size  Object(Section)

    BuildAttributes$$THM_ISAv4$E$P$D$K$B$S$7EM$VFPi3$EXTD16$VFPS$VFMA$PE$A:L22UL41UL21$X:L11$S22US41US21$IEEE1$IW$USESV6$~STKCKD$USESV7$~SHL$OSPACE$ROPI$EBA8$MICROLIB$REQ8$PRES8$EABIv2 0x00000000   Number         0  anon$$obj.o ABSOLUTE
    __ARM_use_no_argv                        0x00000000   Number         0  main.o ABSOLUTE
    __cpp_initialize__aeabi_                  - Undefined Weak Reference
    __cxa_finalize                            - Undefined Weak Reference
    __decompress                              - Undefined Weak Reference
    _clock_init                               - Undefined Weak Reference
    _microlib_exit                            - Undefined Weak Reference
    __Vectors_Size                           0x00000130   Number         0  startup_gd32f30x_hd.o ABSOLUTE
    __Vectors                                0x08000000   Data           4  startup_gd32f30x_hd.o(RESET)
    __Vectors_End                            0x08000130   Data           0  startup_gd32f30x_hd.o(RESET)
    __main                                   0x08000131   Thumb Code     0  entry.o(.ARM.Collect$$$$00000000)
    _main_stk                                0x08000131   Thumb Code     0  entry2.o(.ARM.Collect$$$$00000001)
    _main_scatterload                        0x08000135   Thumb Code     0  entry5.o(.ARM.Collect$$$$00000004)
    __main_after_scatterload                 0x08000139   Thumb Code     0  entry5.o(.ARM.Collect$$$$00000004)
    _main_clock                              0x08000139   Thumb Code     0  entry7b.o(.ARM.Collect$$$$00000008)
    _main_cpp_init                           0x08000139   Thumb Code     0  entry8b.o(.ARM.Collect$$$$0000000A)
    _main_init                               0x08000139   Thumb Code     0  entry9a.o(.ARM.Collect$$$$0000000B)
    __rt_final_cpp                           0x08000141   Thumb Code     0  entry10a.o(.ARM.Collect$$$$0000000D)
    __rt_final_exit                          0x08000141   Thumb Code     0  entry11a.o(.ARM.Collect$$$$0000000F)
    Reset_Handler                            0x08000145   Thumb Code     8  startup_gd32f30x_hd.o(.text)
    NMI_Handler                              0x0800014d   Thumb Code     2  startup_gd32f30x_hd.o(.text)
    HardFault_Handler                        0x0800014f   Thumb Code     2  startup_gd32f30x_hd.o(.text)
    MemManage_Handler                        0x08000151   Thumb Code     2  startup_gd32f30x_hd.o(.text)
    BusFault_Handler                         0x08000153   Thumb Code     2  startup_gd32f30x_hd.o(.text)
    UsageFault_Handler                       0x08000155   Thumb Code     2  startup_gd32f30x_hd.o(.text)
    SVC_Handler                              0x08000157   Thumb Code     2  startup_gd32f30x_hd.o(.text)
    DebugMon_Handler                         0x08000159   Thumb Code     2  startup_gd32f30x_hd.o(.text)
    PendSV_Handler                           0x0800015b   Thumb Code     2  startup_gd32f30x_hd.o(.text)
    SysTick_Handler                          0x0800015d   Thumb Code     2  startup_gd32f30x_hd.o(.text)
    ADC0_1_IRQHandler                        0x0800015f   Thumb Code     0  startup_gd32f30x_hd.o(.text)
    ADC2_IRQHandler                          0x0800015f   Thumb Code     0  startup_gd32f30x_hd.o(.text)
    CAN0_EWMC_IRQHandler                     0x0800015f   Thumb Code     0  startup_gd32f30x_hd.o(.text)
    CAN0_RX1_IRQHandler                      0x0800015f   Thumb Code     0  startup_gd32f30x_hd.o(.text)
    DMA0_Channel0_IRQHandler                 0x0800015f   Thumb Code     0  startup_gd32f30x_hd.o(.text)
    DMA0_Channel1_IRQHandler                 0x0800015f   Thumb Code     0  startup_gd32f30x_hd.o(.text)
    DMA0_Channel2_IRQHandler                 0x0800015f   Thumb Code     0  startup_gd32f30x_hd.o(.text)
    DMA0_Channel3_IRQHandler                 0x0800015f   Thumb Code     0  startup_gd32f30x_hd.o(.text)
    DMA0_Channel4_IRQHandler                 0x0800015f   Thumb Code     0  startup_gd32f30x_hd.o(.text)
    DMA0_Channel5_IRQHandler                 0x0800015f   Thumb Code     0  startup_gd32f30x_hd.o(.text)
    DMA0_Channel6_IRQHandler                 0x0800015f   Thumb Code     0  startup_gd32f30x_hd.o(.text)
    DMA1_Channel0_IRQHandler                 0x0800015f   Thumb Code     0  startup_gd32f30x_hd.o(.text)
    DMA1_Channel1_IRQHandler                 0x0800015f   Thumb Code     0  startup_gd32f30x_hd.o(.text)
    DMA1_Channel2_IRQHandler                 0x0800015f   Thumb Code     0  startup_gd32f30x_hd.o(.text)
    DMA1_Channel3_4_IRQHandler               0x0800015f   Thumb Code     0  startup_gd32f30x_hd.o(.text)
    EXMC_IRQHandler                          0x0800015f   Thumb Code     0  startup_gd32f30x_hd.o(.text)
    EXTI0_IRQHandler                         0x0800015f   Thumb Code     0  startup_gd32f30x_hd.o(.text)
    EXTI10_15_IRQHandler                     0x0800015f   Thumb Code     0  startup_gd32f30x_hd.o(.text)
    EXTI1_IRQHandler                         0x0800015f   Thumb Code     0  startup_gd32f30x_hd.o(.text)
    EXTI2_IRQHandler                         0x0800015f   Thumb Code     0  startup_gd32f30x_hd.o(.text)
    EXTI3_IRQHandler                         0x0800015f   Thumb Code     0  startup_gd32f30x_hd.o(.text)
    EXTI4_IRQHandler                         0x0800015f   Thumb Code     0  startup_gd32f30x_hd.o(.text)
    EXTI5_9_IRQHandler                       0x0800015f   Thumb Code     0  startup_gd32f30x_hd.o(.text)
    FMC_IRQHandler                           0x0800015f   Thumb Code     0  startup_gd32f30x_hd.o(.text)
    I2C0_ER_IRQHandler                       0x0800015f   Thumb Code     0  startup_gd32f30x_hd.o(.text)
    I2C0_EV_IRQHandler                       0x0800015f   Thumb Code     0  startup_gd32f30x_hd.o(.text)
    I2C1_ER_IRQHandler                       0x0800015f   Thumb Code     0  startup_gd32f30x_hd.o(.text)
    I2C1_EV_IRQHandler                       0x0800015f   Thumb Code     0  startup_gd32f30x_hd.o(.text)
    LVD_IRQHandler                           0x0800015f   Thumb Code     0  startup_gd32f30x_hd.o(.text)
    RCU_CTC_IRQHandler                       0x0800015f   Thumb Code     0  startup_gd32f30x_hd.o(.text)
    RTC_Alarm_IRQHandler                     0x0800015f   Thumb Code     0  startup_gd32f30x_hd.o(.text)
    RTC_IRQHandler                           0x0800015f   Thumb Code     0  startup_gd32f30x_hd.o(.text)
    SDIO_IRQHandler                          0x0800015f   Thumb Code     0  startup_gd32f30x_hd.o(.text)
    SPI0_IRQHandler                          0x0800015f   Thumb Code     0  startup_gd32f30x_hd.o(.text)
    SPI1_IRQHandler                          0x0800015f   Thumb Code     0  startup_gd32f30x_hd.o(.text)
    SPI2_IRQHandler                          0x0800015f   Thumb Code     0  startup_gd32f30x_hd.o(.text)
    TAMPER_IRQHandler                        0x0800015f   Thumb Code     0  startup_gd32f30x_hd.o(.text)
    TIMER0_BRK_IRQHandler                    0x0800015f   Thumb Code     0  startup_gd32f30x_hd.o(.text)
    TIMER0_Channel_IRQHandler                0x0800015f   Thumb Code     0  startup_gd32f30x_hd.o(.text)
    TIMER0_TRG_CMT_IRQHandler                0x0800015f   Thumb Code     0  startup_gd32f30x_hd.o(.text)
    TIMER0_UP_IRQHandler                     0x0800015f   Thumb Code     0  startup_gd32f30x_hd.o(.text)
    TIMER1_IRQHandler                        0x0800015f   Thumb Code     0  startup_gd32f30x_hd.o(.text)
    TIMER2_IRQHandler                        0x0800015f   Thumb Code     0  startup_gd32f30x_hd.o(.text)
    TIMER3_IRQHandler                        0x0800015f   Thumb Code     0  startup_gd32f30x_hd.o(.text)
    TIMER4_IRQHandler                        0x0800015f   Thumb Code     0  startup_gd32f30x_hd.o(.text)
    TIMER5_IRQHandler                        0x0800015f   Thumb Code     0  startup_gd32f30x_hd.o(.text)
    TIMER6_IRQHandler                        0x0800015f   Thumb Code     0  startup_gd32f30x_hd.o(.text)
    TIMER7_BRK_IRQHandler                    0x0800015f   Thumb Code     0  startup_gd32f30x_hd.o(.text)
    TIMER7_Channel_IRQHandler                0x0800015f   Thumb Code     0  startup_gd32f30x_hd.o(.text)
    TIMER7_TRG_CMT_IRQHandler                0x0800015f   Thumb Code     0  startup_gd32f30x_hd.o(.text)
    TIMER7_UP_IRQHandler                     0x0800015f   Thumb Code     0  startup_gd32f30x_hd.o(.text)
    UART3_IRQHandler                         0x0800015f   Thumb Code     0  startup_gd32f30x_hd.o(.text)
    UART4_IRQHandler                         0x0800015f   Thumb Code     0  startup_gd32f30x_hd.o(.text)
    USART0_IRQHandler                        0x0800015f   Thumb Code     0  startup_gd32f30x_hd.o(.text)
    USART1_IRQHandler                        0x0800015f   Thumb Code     0  startup_gd32f30x_hd.o(.text)
    USART2_IRQHandler                        0x0800015f   Thumb Code     0  startup_gd32f30x_hd.o(.text)
    USBD_HP_CAN0_TX_IRQHandler               0x0800015f   Thumb Code     0  startup_gd32f30x_hd.o(.text)
    USBD_LP_CAN0_RX0_IRQHandler              0x0800015f   Thumb Code     0  startup_gd32f30x_hd.o(.text)
    USBD_WKUP_IRQHandler                     0x0800015f   Thumb Code     0  startup_gd32f30x_hd.o(.text)
    __scatterload                            0x08000169   Thumb Code    28  init.o(.text)
    __scatterload_rt2                        0x08000169   Thumb Code     0  init.o(.text)
    LedDrvInit                               0x080001e1   Thumb Code    86  led_drv.o(i.LedDrvInit)
    SystemInit                               0x0800023d   Thumb Code   156  system_gd32f30x.o(i.SystemInit)
    ToggleLed                                0x080002e5   Thumb Code    76  led_drv.o(i.ToggleLed)
    TurnOnLed                                0x08000335   Thumb Code    40  led_drv.o(i.TurnOnLed)
    Usb2ComDrvInit                           0x08000361   Thumb Code    16  usb2com_drv.o(i.Usb2ComDrvInit)
    WWDGT_IRQHandler                         0x08000411   Thumb Code    20  wwdgt_drv.o(i.WWDGT_IRQHandler)
    WwdgtDrvInit                             0x08000425   Thumb Code    50  wwdgt_drv.o(i.WwdgtDrvInit)
    WwdgtDrvTest                             0x08000457   Thumb Code    10  wwdgt_drv.o(i.WwdgtDrvTest)
    __0printf$bare                           0x08000461   Thumb Code     8  printfb.o(i.__0printf$bare)
    __1printf$bare                           0x08000461   Thumb Code     0  printfb.o(i.__0printf$bare)
    __2printf                                0x08000461   Thumb Code     0  printfb.o(i.__0printf$bare)
    __scatterload_copy                       0x08000471   Thumb Code    14  handlers.o(i.__scatterload_copy)
    __scatterload_null                       0x0800047f   Thumb Code     2  handlers.o(i.__scatterload_null)
    __scatterload_zeroinit                   0x08000481   Thumb Code    14  handlers.o(i.__scatterload_zeroinit)
    fputc                                    0x080004cd   Thumb Code    36  usb2com_drv.o(i.fputc)
    gpio_bit_reset                           0x080004f5   Thumb Code     4  gd32f30x_gpio.o(i.gpio_bit_reset)
    gpio_bit_set                             0x080004f9   Thumb Code     4  gd32f30x_gpio.o(i.gpio_bit_set)
    gpio_bit_write                           0x080004fd   Thumb Code    10  gd32f30x_gpio.o(i.gpio_bit_write)
    gpio_init                                0x08000507   Thumb Code   188  gd32f30x_gpio.o(i.gpio_init)
    gpio_input_bit_get                       0x080005c3   Thumb Code    16  gd32f30x_gpio.o(i.gpio_input_bit_get)
    main                                     0x080005d5   Thumb Code    42  main.o(i.main)
    nvic_irq_enable                          0x08000639   Thumb Code   186  gd32f30x_misc.o(i.nvic_irq_enable)
    nvic_priority_group_set                  0x080006fd   Thumb Code    10  gd32f30x_misc.o(i.nvic_priority_group_set)
    rcu_clock_freq_get                       0x08000711   Thumb Code   310  gd32f30x_rcu.o(i.rcu_clock_freq_get)
    rcu_periph_clock_enable                  0x08000869   Thumb Code    28  gd32f30x_rcu.o(i.rcu_periph_clock_enable)
    rcu_periph_reset_disable                 0x08000889   Thumb Code    28  gd32f30x_rcu.o(i.rcu_periph_reset_disable)
    rcu_periph_reset_enable                  0x080008a9   Thumb Code    28  gd32f30x_rcu.o(i.rcu_periph_reset_enable)
    usart_baudrate_set                       0x080009e5   Thumb Code   136  gd32f30x_usart.o(i.usart_baudrate_set)
    usart_data_transmit                      0x08000a75   Thumb Code     8  gd32f30x_usart.o(i.usart_data_transmit)
    usart_deinit                             0x08000a7d   Thumb Code   136  gd32f30x_usart.o(i.usart_deinit)
    usart_enable                             0x08000b0d   Thumb Code    10  gd32f30x_usart.o(i.usart_enable)
    usart_flag_get                           0x08000b17   Thumb Code    30  gd32f30x_usart.o(i.usart_flag_get)
    usart_interrupt_enable                   0x08000b35   Thumb Code    26  gd32f30x_usart.o(i.usart_interrupt_enable)
    usart_parity_config                      0x08000b4f   Thumb Code    16  gd32f30x_usart.o(i.usart_parity_config)
    usart_receive_config                     0x08000b5f   Thumb Code    20  gd32f30x_usart.o(i.usart_receive_config)
    usart_stop_bit_set                       0x08000b73   Thumb Code    16  gd32f30x_usart.o(i.usart_stop_bit_set)
    usart_transmit_config                    0x08000b83   Thumb Code    20  gd32f30x_usart.o(i.usart_transmit_config)
    usart_word_length_set                    0x08000b97   Thumb Code    16  gd32f30x_usart.o(i.usart_word_length_set)
    wwdgt_config                             0x08000ba9   Thumb Code    22  gd32f30x_wwdgt.o(i.wwdgt_config)
    wwdgt_counter_update                     0x08000bc5   Thumb Code    10  gd32f30x_wwdgt.o(i.wwdgt_counter_update)
    wwdgt_enable                             0x08000bd5   Thumb Code    14  gd32f30x_wwdgt.o(i.wwdgt_enable)
    wwdgt_flag_clear                         0x08000be9   Thumb Code     8  gd32f30x_wwdgt.o(i.wwdgt_flag_clear)
    wwdgt_interrupt_enable                   0x08000bf5   Thumb Code    14  gd32f30x_wwdgt.o(i.wwdgt_interrupt_enable)
    Region$$Table$$Base                      0x08000c08   Number         0  anon$$obj.o(Region$$Table)
    Region$$Table$$Limit                     0x08000c28   Number         0  anon$$obj.o(Region$$Table)
    g_gpioList                               0x20000000   Data          24  led_drv.o(.data)
    g_Usb2comUart0                           0x20000018   Data          32  usb2com_drv.o(.data)
    __stdout                                 0x20000038   Data           4  stdout.o(.data)
    __initial_sp                             0x20000440   Data           0  startup_gd32f30x_hd.o(STACK)



==============================================================================

Memory Map of the image

  Image Entry point : 0x08000131

  Load Region LR_IROM1 (Base: 0x08000000, Size: 0x00000c64, Max: 0x00040000, ABSOLUTE)

    Execution Region ER_IROM1 (Exec base: 0x08000000, Load base: 0x08000000, Size: 0x00000c28, Max: 0x00040000, ABSOLUTE)

    Exec Addr    Load Addr    Size         Type   Attr      Idx    E Section Name        Object

    0x08000000   0x08000000   0x00000130   Data   RO          147    RESET               startup_gd32f30x_hd.o
    0x08000130   0x08000130   0x00000000   Code   RO         1301  * .ARM.Collect$$$$00000000  mc_w.l(entry.o)
    0x08000130   0x08000130   0x00000004   Code   RO         1564    .ARM.Collect$$$$00000001  mc_w.l(entry2.o)
    0x08000134   0x08000134   0x00000004   Code   RO         1567    .ARM.Collect$$$$00000004  mc_w.l(entry5.o)
    0x08000138   0x08000138   0x00000000   Code   RO         1569    .ARM.Collect$$$$00000008  mc_w.l(entry7b.o)
    0x08000138   0x08000138   0x00000000   Code   RO         1571    .ARM.Collect$$$$0000000A  mc_w.l(entry8b.o)
    0x08000138   0x08000138   0x00000008   Code   RO         1572    .ARM.Collect$$$$0000000B  mc_w.l(entry9a.o)
    0x08000140   0x08000140   0x00000000   Code   RO         1574    .ARM.Collect$$$$0000000D  mc_w.l(entry10a.o)
    0x08000140   0x08000140   0x00000000   Code   RO         1576    .ARM.Collect$$$$0000000F  mc_w.l(entry11a.o)
    0x08000140   0x08000140   0x00000004   Code   RO         1565    .ARM.Collect$$$$00002712  mc_w.l(entry2.o)
    0x08000144   0x08000144   0x00000024   Code   RO          148    .text               startup_gd32f30x_hd.o
    0x08000168   0x08000168   0x00000024   Code   RO         1594    .text               mc_w.l(init.o)
    0x0800018c   0x0800018c   0x00000054   Code   RO            3    i.AllDrvInit        main.o
    0x080001e0   0x080001e0   0x0000005c   Code   RO          209    i.LedDrvInit        led_drv.o
    0x0800023c   0x0800023c   0x000000a8   Code   RO          155    i.SystemInit        system_gd32f30x.o
    0x080002e4   0x080002e4   0x00000050   Code   RO          210    i.ToggleLed         led_drv.o
    0x08000334   0x08000334   0x0000002c   Code   RO          212    i.TurnOnLed         led_drv.o
    0x08000360   0x08000360   0x00000010   Code   RO          250    i.Usb2ComDrvInit    usb2com_drv.o
    0x08000370   0x08000370   0x0000002c   Code   RO          251    i.Usb2ComGpioInit   usb2com_drv.o
    0x0800039c   0x0800039c   0x00000074   Code   RO          252    i.Usb2ComUartInit   usb2com_drv.o
    0x08000410   0x08000410   0x00000014   Code   RO          299    i.WWDGT_IRQHandler  wwdgt_drv.o
    0x08000424   0x08000424   0x00000032   Code   RO          300    i.WwdgtDrvInit      wwdgt_drv.o
    0x08000456   0x08000456   0x0000000a   Code   RO          301    i.WwdgtDrvTest      wwdgt_drv.o
    0x08000460   0x08000460   0x00000010   Code   RO         1305    i.__0printf$bare    mc_w.l(printfb.o)
    0x08000470   0x08000470   0x0000000e   Code   RO         1606    i.__scatterload_copy  mc_w.l(handlers.o)
    0x0800047e   0x0800047e   0x00000002   Code   RO         1607    i.__scatterload_null  mc_w.l(handlers.o)
    0x08000480   0x08000480   0x0000000e   Code   RO         1608    i.__scatterload_zeroinit  mc_w.l(handlers.o)
    0x0800048e   0x0800048e   0x00000022   Code   RO         1312    i._printf_core      mc_w.l(printfb.o)
    0x080004b0   0x080004b0   0x0000001a   Code   RO            4    i.delay             main.o
    0x080004ca   0x080004ca   0x00000002   PAD
    0x080004cc   0x080004cc   0x00000028   Code   RO          253    i.fputc             usb2com_drv.o
    0x080004f4   0x080004f4   0x00000004   Code   RO         1084    i.gpio_bit_reset    gd32f30x_gpio.o
    0x080004f8   0x080004f8   0x00000004   Code   RO         1085    i.gpio_bit_set      gd32f30x_gpio.o
    0x080004fc   0x080004fc   0x0000000a   Code   RO         1086    i.gpio_bit_write    gd32f30x_gpio.o
    0x08000506   0x08000506   0x000000bc   Code   RO         1094    i.gpio_init         gd32f30x_gpio.o
    0x080005c2   0x080005c2   0x00000010   Code   RO         1095    i.gpio_input_bit_get  gd32f30x_gpio.o
    0x080005d2   0x080005d2   0x00000002   PAD
    0x080005d4   0x080005d4   0x00000064   Code   RO            5    i.main              main.o
    0x08000638   0x08000638   0x000000c4   Code   RO         1028    i.nvic_irq_enable   gd32f30x_misc.o
    0x080006fc   0x080006fc   0x00000014   Code   RO         1029    i.nvic_priority_group_set  gd32f30x_misc.o
    0x08000710   0x08000710   0x00000158   Code   RO          340    i.rcu_clock_freq_get  gd32f30x_rcu.o
    0x08000868   0x08000868   0x00000020   Code   RO          358    i.rcu_periph_clock_enable  gd32f30x_rcu.o
    0x08000888   0x08000888   0x00000020   Code   RO          361    i.rcu_periph_reset_disable  gd32f30x_rcu.o
    0x080008a8   0x080008a8   0x00000020   Code   RO          362    i.rcu_periph_reset_enable  gd32f30x_rcu.o
    0x080008c8   0x080008c8   0x00000114   Code   RO          156    i.system_clock_120m_hxtal  system_gd32f30x.o
    0x080009dc   0x080009dc   0x00000008   Code   RO          157    i.system_clock_config  system_gd32f30x.o
    0x080009e4   0x080009e4   0x00000090   Code   RO          652    i.usart_baudrate_set  gd32f30x_usart.o
    0x08000a74   0x08000a74   0x00000008   Code   RO          656    i.usart_data_transmit  gd32f30x_usart.o
    0x08000a7c   0x08000a7c   0x00000090   Code   RO          657    i.usart_deinit      gd32f30x_usart.o
    0x08000b0c   0x08000b0c   0x0000000a   Code   RO          661    i.usart_enable      gd32f30x_usart.o
    0x08000b16   0x08000b16   0x0000001e   Code   RO          663    i.usart_flag_get    gd32f30x_usart.o
    0x08000b34   0x08000b34   0x0000001a   Code   RO          670    i.usart_interrupt_enable  gd32f30x_usart.o
    0x08000b4e   0x08000b4e   0x00000010   Code   RO          683    i.usart_parity_config  gd32f30x_usart.o
    0x08000b5e   0x08000b5e   0x00000014   Code   RO          685    i.usart_receive_config  gd32f30x_usart.o
    0x08000b72   0x08000b72   0x00000010   Code   RO          695    i.usart_stop_bit_set  gd32f30x_usart.o
    0x08000b82   0x08000b82   0x00000014   Code   RO          699    i.usart_transmit_config  gd32f30x_usart.o
    0x08000b96   0x08000b96   0x00000010   Code   RO          700    i.usart_word_length_set  gd32f30x_usart.o
    0x08000ba6   0x08000ba6   0x00000002   PAD
    0x08000ba8   0x08000ba8   0x0000001c   Code   RO          971    i.wwdgt_config      gd32f30x_wwdgt.o
    0x08000bc4   0x08000bc4   0x00000010   Code   RO          972    i.wwdgt_counter_update  gd32f30x_wwdgt.o
    0x08000bd4   0x08000bd4   0x00000014   Code   RO          974    i.wwdgt_enable      gd32f30x_wwdgt.o
    0x08000be8   0x08000be8   0x0000000c   Code   RO          975    i.wwdgt_flag_clear  gd32f30x_wwdgt.o
    0x08000bf4   0x08000bf4   0x00000014   Code   RO          977    i.wwdgt_interrupt_enable  gd32f30x_wwdgt.o
    0x08000c08   0x08000c08   0x00000020   Data   RO         1604    Region$$Table       anon$$obj.o


    Execution Region RW_IRAM1 (Exec base: 0x20000000, Load base: 0x08000c28, Size: 0x00000440, Max: 0x0000c000, ABSOLUTE)

    Exec Addr    Load Addr    Size         Type   Attr      Idx    E Section Name        Object

    0x20000000   0x08000c28   0x00000018   Data   RW          213    .data               led_drv.o
    0x20000018   0x08000c40   0x00000020   Data   RW          254    .data               usb2com_drv.o
    0x20000038   0x08000c60   0x00000004   Data   RW         1578    .data               mc_w.l(stdout.o)
    0x2000003c   0x08000c64   0x00000004   PAD
    0x20000040        -       0x00000400   Zero   RW          145    STACK               startup_gd32f30x_hd.o


==============================================================================

Image component sizes


      Code (inc. data)   RO Data    RW Data    ZI Data      Debug   Object Name

       222          0          0          0          0      15186   gd32f30x_gpio.o
       216         20          0          0          0       1368   gd32f30x_misc.o
       440         46          0          0          0      19804   gd32f30x_rcu.o
       450         16          0          0          0      13101   gd32f30x_usart.o
        96         28          0          0          0       2589   gd32f30x_wwdgt.o
       216         14          0         24          0       2382   led_drv.o
       210        112          0          0          0      43563   main.o
        36          8        304          0       1024        804   startup_gd32f30x_hd.o
       452         30          0          0          0       2373   system_gd32f30x.o
       216         16          0         32          0       4186   usb2com_drv.o
        80          0          0          0          0       1593   wwdgt_drv.o

    ----------------------------------------------------------------------
      2640        290        336         56       1024     106949   Object Totals
         0          0         32          0          0          0   (incl. Generated)
         6          0          0          0          0          0   (incl. Padding)

    ----------------------------------------------------------------------

      Code (inc. data)   RO Data    RW Data    ZI Data      Debug   Library Member Name

         0          0          0          0          0          0   entry.o
         0          0          0          0          0          0   entry10a.o
         0          0          0          0          0          0   entry11a.o
         8          4          0          0          0          0   entry2.o
         4          0          0          0          0          0   entry5.o
         0          0          0          0          0          0   entry7b.o
         0          0          0          0          0          0   entry8b.o
         8          4          0          0          0          0   entry9a.o
        30          0          0          0          0          0   handlers.o
        36          8          0          0          0         68   init.o
        50          8          0          0          0        152   printfb.o
         0          0          0          4          0          0   stdout.o

    ----------------------------------------------------------------------
       136         24          0          4          4        220   Library Totals
         0          0          0          0          4          0   (incl. Padding)

    ----------------------------------------------------------------------

      Code (inc. data)   RO Data    RW Data    ZI Data      Debug   Library Name

       136         24          0          4          0        220   mc_w.l

    ----------------------------------------------------------------------
       136         24          0          4          4        220   Library Totals

    ----------------------------------------------------------------------

==============================================================================


      Code (inc. data)   RO Data    RW Data    ZI Data      Debug   

      2776        314        336         60       1028     103421   Grand Totals
      2776        314        336         60       1028     103421   ELF Image Totals
      2776        314        336         60          0          0   ROM Totals

==============================================================================

    Total RO  Size (Code + RO Data)                 3112 (   3.04kB)
    Total RW  Size (RW Data + ZI Data)              1088 (   1.06kB)
    Total ROM Size (Code + RO Data + RW Data)       3172 (   3.10kB)

==============================================================================

