Component: ARM Compiler 5.06 update 6 (build 750) Tool: armlink [4d35ed]

==============================================================================

Section Cross References

    main.o(i.AllDrvInit) refers to led_drv.o(i.LedDrvInit) for LedDrvInit
    main.o(i.AllDrvInit) refers to timer_drv.o(i.TimerDrvInit) for TimerDrvInit
    main.o(i.AllDrvInit) refers to usb2com_drv.o(i.Usb2ComDrvInit) for Usb2ComDrvInit
    main.o(i.main) refers to main.o(i.AllDrvInit) for AllDrvInit
    timer_drv.o(i.TIMER0_UP_IRQHandler) refers to gd32f30x_timer.o(i.timer_interrupt_flag_get) for timer_interrupt_flag_get
    timer_drv.o(i.TIMER0_UP_IRQHandler) refers to gd32f30x_timer.o(i.timer_interrupt_flag_clear) for timer_interrupt_flag_clear
    timer_drv.o(i.TIMER0_UP_IRQHandler) refers to led_drv.o(i.ToggleLed) for ToggleLed
    timer_drv.o(i.TIMER0_UP_IRQHandler) refers to printfb.o(i.__0printf$bare) for __2printf
    timer_drv.o(i.TIMER0_UP_IRQHandler) refers to timer_drv.o(.data) for TimeCnt
    timer_drv.o(i.TimerDrvInit) refers to timer_drv.o(i.TimerInit) for TimerInit
    timer_drv.o(i.TimerInit) refers to gd32f30x_rcu.o(i.rcu_periph_clock_enable) for rcu_periph_clock_enable
    timer_drv.o(i.TimerInit) refers to gd32f30x_timer.o(i.timer_deinit) for timer_deinit
    timer_drv.o(i.TimerInit) refers to gd32f30x_timer.o(i.timer_struct_para_init) for timer_struct_para_init
    timer_drv.o(i.TimerInit) refers to gd32f30x_timer.o(i.timer_init) for timer_init
    timer_drv.o(i.TimerInit) refers to gd32f30x_timer.o(i.timer_interrupt_enable) for timer_interrupt_enable
    timer_drv.o(i.TimerInit) refers to gd32f30x_misc.o(i.nvic_irq_enable) for nvic_irq_enable
    timer_drv.o(i.TimerInit) refers to gd32f30x_timer.o(i.timer_interrupt_flag_clear) for timer_interrupt_flag_clear
    timer_drv.o(i.TimerInit) refers to gd32f30x_timer.o(i.timer_enable) for timer_enable
==============================================================================

Removing Unused input sections from the image.

    Removing timer_drv.o(.rev16_text), (4 bytes).
    Removing timer_drv.o(.revsh_text), (4 bytes).
    Removing led_drv.o(.rev16_text), (4 bytes).
    Removing led_drv.o(.revsh_text), (4 bytes).
    Removing led_drv.o(i.TurnOffLed), (44 bytes).
    Removing led_drv.o(i.TurnOnLed), (44 bytes).
    Removing usb2com_drv.o(.rev16_text), (4 bytes).
    Removing usb2com_drv.o(.revsh_text), (4 bytes).
    Removing usb2com_drv.o(i.Usb2ComTxTesting), (48 bytes).
    Removing usb2com_drv.o(i.regUsb2Comcb), (12 bytes).
    Removing startup_gd32f30x_hd.o(HEAP), (1024 bytes).
    Removing system_gd32f30x.o(.rev16_text), (4 bytes).
    Removing system_gd32f30x.o(.revsh_text), (4 bytes).
    Removing system_gd32f30x.o(i.SystemCoreClockUpdate), (316 bytes).
    Removing system_gd32f30x.o(.data), (4 bytes).
    Removing gd32f30x_rcu.o(.rev16_text), (4 bytes).
    Removing gd32f30x_rcu.o(.revsh_text), (4 bytes).
    Removing gd32f30x_rcu.o(i.rcu_adc_clock_config), (108 bytes).
==============================================================================

Image Symbol Table

    Local Symbols

    Symbol Name                              Value     Ov Type        Size  Object(Section)

    ../clib/microlib/division.c              0x00000000   Number         0  uldiv.o ABSOLUTE
    ../clib/microlib/division.c              0x00000000   Number         0  uidiv.o ABSOLUTE
    ../clib/microlib/init/entry.s            0x00000000   Number         0  entry11b.o ABSOLUTE
    ../clib/microlib/init/entry.s            0x00000000   Number         0  entry11a.o ABSOLUTE
    ../clib/microlib/init/entry.s            0x00000000   Number         0  entry10b.o ABSOLUTE
    ../clib/microlib/init/entry.s            0x00000000   Number         0  entry10a.o ABSOLUTE
    ../clib/microlib/init/entry.s            0x00000000   Number         0  entry9b.o ABSOLUTE
    ../clib/microlib/init/entry.s            0x00000000   Number         0  entry9a.o ABSOLUTE
    ../clib/microlib/init/entry.s            0x00000000   Number         0  entry8b.o ABSOLUTE
    ../clib/microlib/init/entry.s            0x00000000   Number         0  entry8a.o ABSOLUTE
    ../clib/microlib/init/entry.s            0x00000000   Number         0  entry7b.o ABSOLUTE
    ../clib/microlib/init/entry.s            0x00000000   Number         0  entry5.o ABSOLUTE
    ../clib/microlib/init/entry.s            0x00000000   Number         0  entry2.o ABSOLUTE
    ../clib/microlib/init/entry.s            0x00000000   Number         0  entry7a.o ABSOLUTE
    ../clib/microlib/init/entry.s            0x00000000   Number         0  entry.o ABSOLUTE
    ../clib/microlib/longlong.c              0x00000000   Number         0  llsshr.o ABSOLUTE
    ../clib/microlib/longlong.c              0x00000000   Number         0  llushr.o ABSOLUTE
    ../clib/microlib/longlong.c              0x00000000   Number         0  llshl.o ABSOLUTE
    ../clib/microlib/printf/printf.c         0x00000000   Number         0  printf7.o ABSOLUTE
    ../clib/microlib/printf/printf.c         0x00000000   Number         0  printfa.o ABSOLUTE
    ../clib/microlib/printf/printf.c         0x00000000   Number         0  printf6.o ABSOLUTE
    ../clib/microlib/printf/printf.c         0x00000000   Number         0  printf8.o ABSOLUTE
    ../clib/microlib/printf/printf.c         0x00000000   Number         0  printf5.o ABSOLUTE
    ../clib/microlib/printf/printf.c         0x00000000   Number         0  printf4.o ABSOLUTE
    ../clib/microlib/printf/printf.c         0x00000000   Number         0  printf3.o ABSOLUTE
    ../clib/microlib/printf/printf.c         0x00000000   Number         0  printf2.o ABSOLUTE
    ../clib/microlib/printf/printf.c         0x00000000   Number         0  printf1.o ABSOLUTE
    ../clib/microlib/printf/printf.c         0x00000000   Number         0  printf0.o ABSOLUTE
    ../clib/microlib/printf/printf.c         0x00000000   Number         0  printfb.o ABSOLUTE
    ../clib/microlib/stdio/streams.c         0x00000000   Number         0  stdout.o ABSOLUTE
    ../clib/microlib/stubs.s                 0x00000000   Number         0  iusefp.o ABSOLUTE
    ../fplib/microlib/fpadd.c                0x00000000   Number         0  dadd.o ABSOLUTE
    ../fplib/microlib/fpdiv.c                0x00000000   Number         0  ddiv.o ABSOLUTE
    ../fplib/microlib/fpepilogue.c           0x00000000   Number         0  depilogue.o ABSOLUTE
    ../fplib/microlib/fpfix.c                0x00000000   Number         0  dfixul.o ABSOLUTE
    ../fplib/microlib/fpmul.c                0x00000000   Number         0  dmul.o ABSOLUTE
    App\main.c                               0x00000000   Number         0  main.o ABSOLUTE
    Arm\\system_gd32f30x.c                   0x00000000   Number         0  system_gd32f30x.o ABSOLUTE
    Arm\startup_gd32f30x_hd.s                0x00000000   Number         0  startup_gd32f30x_hd.o ABSOLUTE
    Arm\system_gd32f30x.c                    0x00000000   Number         0  system_gd32f30x.o ABSOLUTE
    Driver\Usb2Com_drv.c                     0x00000000   Number         0  usb2com_drv.o ABSOLUTE
    Driver\\Usb2Com_drv.c                    0x00000000   Number         0  usb2com_drv.o ABSOLUTE
    Driver\\led_drv.c                        0x00000000   Number         0  led_drv.o ABSOLUTE
    Driver\\timer_drv.c                      0x00000000   Number         0  timer_drv.o ABSOLUTE
    Driver\led_drv.c                         0x00000000   Number         0  led_drv.o ABSOLUTE
    Driver\timer_drv.c                       0x00000000   Number         0  timer_drv.o ABSOLUTE
    GD32_Lib\Source\gd32f30x_exti.c          0x00000000   Number         0  gd32f30x_exti.o ABSOLUTE
    GD32_Lib\Source\gd32f30x_gpio.c          0x00000000   Number         0  gd32f30x_gpio.o ABSOLUTE
    GD32_Lib\Source\gd32f30x_misc.c          0x00000000   Number         0  gd32f30x_misc.o ABSOLUTE
    GD32_Lib\Source\gd32f30x_rcu.c           0x00000000   Number         0  gd32f30x_rcu.o ABSOLUTE
    GD32_Lib\Source\gd32f30x_timer.c         0x00000000   Number         0  gd32f30x_timer.o ABSOLUTE
    GD32_Lib\Source\gd32f30x_usart.c         0x00000000   Number         0  gd32f30x_usart.o ABSOLUTE
    GD32_Lib\\Source\\gd32f30x_exti.c        0x00000000   Number         0  gd32f30x_exti.o ABSOLUTE
    GD32_Lib\\Source\\gd32f30x_gpio.c        0x00000000   Number         0  gd32f30x_gpio.o ABSOLUTE
    GD32_Lib\\Source\\gd32f30x_misc.c        0x00000000   Number         0  gd32f30x_misc.o ABSOLUTE
    GD32_Lib\\Source\\gd32f30x_rcu.c         0x00000000   Number         0  gd32f30x_rcu.o ABSOLUTE
    GD32_Lib\\Source\\gd32f30x_timer.c       0x00000000   Number         0  gd32f30x_timer.o ABSOLUTE
    GD32_Lib\\Source\\gd32f30x_usart.c       0x00000000   Number         0  gd32f30x_usart.o ABSOLUTE
    cdrcmple.s                               0x00000000   Number         0  cdrcmple.o ABSOLUTE
    dc.s                                     0x00000000   Number         0  dc.o ABSOLUTE
    handlers.s                               0x00000000   Number         0  handlers.o ABSOLUTE
    init.s                                   0x00000000   Number         0  init.o ABSOLUTE
    RESET                                    0x08000000   Section      304  startup_gd32f30x_hd.o(RESET)
    .ARM.Collect$$$$00000000                 0x08000130   Section        0  entry.o(.ARM.Collect$$$$00000000)
    .ARM.Collect$$$$00000001                 0x08000130   Section        4  entry2.o(.ARM.Collect$$$$00000001)
    .ARM.Collect$$$$00000004                 0x08000134   Section        4  entry5.o(.ARM.Collect$$$$00000004)
    .ARM.Collect$$$$00000008                 0x08000138   Section        0  entry7b.o(.ARM.Collect$$$$00000008)
    .ARM.Collect$$$$0000000A                 0x08000138   Section        0  entry8b.o(.ARM.Collect$$$$0000000A)
    .ARM.Collect$$$$0000000B                 0x08000138   Section        8  entry9a.o(.ARM.Collect$$$$0000000B)
    .ARM.Collect$$$$0000000D                 0x08000140   Section        0  entry10a.o(.ARM.Collect$$$$0000000D)
    .ARM.Collect$$$$0000000F                 0x08000140   Section        0  entry11a.o(.ARM.Collect$$$$0000000F)
    .ARM.Collect$$$$00002712                 0x08000140   Section        4  entry2.o(.ARM.Collect$$$$00002712)
    __lit__00000000                          0x08000140   Data           4  entry2.o(.ARM.Collect$$$$00002712)
    .text                                    0x08000144   Section       36  startup_gd32f30x_hd.o(.text)
    $v0                                      0x08000144   Number         0  startup_gd32f30x_hd.o(.text)
    .text                                    0x08000168   Section       36  init.o(.text)
    i.AllDrvInit                             0x0800018c   Section        0  main.o(i.AllDrvInit)
    AllDrvInit                               0x0800018d   Thumb Code    20  main.o(i.AllDrvInit)
    i.LedDrvInit                             0x080001a0   Section        0  led_drv.o(i.LedDrvInit)
    i.SystemInit                             0x080001fc   Section        0  system_gd32f30x.o(i.SystemInit)
    i.TIMER0_UP_IRQHandler                   0x080002a4   Section        0  timer_drv.o(i.TIMER0_UP_IRQHandler)
    i.TimerDrvInit                           0x08000308   Section        0  timer_drv.o(i.TimerDrvInit)
    i.TimerInit                              0x08000314   Section        0  timer_drv.o(i.TimerInit)
    TimerInit                                0x08000315   Thumb Code    88  timer_drv.o(i.TimerInit)
    i.ToggleLed                              0x08000370   Section        0  led_drv.o(i.ToggleLed)
    i.USART0_IRQHandler                      0x080003c0   Section        0  usb2com_drv.o(i.USART0_IRQHandler)
    i.Usb2ComDrvInit                         0x08000404   Section        0  usb2com_drv.o(i.Usb2ComDrvInit)
    i.__0printf$bare                         0x080004ac   Section        0  printfb.o(i.__0printf$bare)
    i.__scatterload_copy                     0x080004bc   Section       14  handlers.o(i.__scatterload_copy)
    i.__scatterload_null                     0x080004ca   Section        2  handlers.o(i.__scatterload_null)
    i.__scatterload_zeroinit                 0x080004cc   Section       14  handlers.o(i.__scatterload_zeroinit)
    i._printf_core                           0x080004da   Section        0  printfb.o(i._printf_core)
    _printf_core                             0x080004db   Thumb Code    34  printfb.o(i._printf_core)
    i.fputc                                  0x080004fc   Section        0  usb2com_drv.o(i.fputc)
    i.gpio_bit_set                           0x08000524   Section        0  gd32f30x_gpio.o(i.gpio_bit_set)
    i.gpio_bit_write                         0x08000528   Section        0  gd32f30x_gpio.o(i.gpio_bit_write)
    i.gpio_init                              0x08000532   Section        0  gd32f30x_gpio.o(i.gpio_init)
    i.gpio_input_bit_get                     0x080005ee   Section        0  gd32f30x_gpio.o(i.gpio_input_bit_get)
    i.main                                   0x080005fe   Section        0  main.o(i.main)
    i.nvic_irq_enable                        0x08000608   Section        0  gd32f30x_misc.o(i.nvic_irq_enable)
    i.nvic_priority_group_set                0x080006cc   Section        0  gd32f30x_misc.o(i.nvic_priority_group_set)
    i.rcu_clock_freq_get                     0x080006e0   Section        0  gd32f30x_rcu.o(i.rcu_clock_freq_get)
    i.rcu_periph_clock_enable                0x08000838   Section        0  gd32f30x_rcu.o(i.rcu_periph_clock_enable)
    i.rcu_periph_reset_disable               0x08000858   Section        0  gd32f30x_rcu.o(i.rcu_periph_reset_disable)
    i.rcu_periph_reset_enable                0x08000878   Section        0  gd32f30x_rcu.o(i.rcu_periph_reset_enable)
    i.system_clock_120m_hxtal                0x08000898   Section        0  system_gd32f30x.o(i.system_clock_120m_hxtal)
    system_clock_120m_hxtal                  0x08000899   Thumb Code   258  system_gd32f30x.o(i.system_clock_120m_hxtal)
    i.system_clock_config                    0x080009ac   Section        0  system_gd32f30x.o(i.system_clock_config)
    system_clock_config                      0x080009ad   Thumb Code     8  system_gd32f30x.o(i.system_clock_config)
    i.timer_deinit                           0x080009b4   Section        0  gd32f30x_timer.o(i.timer_deinit)
    i.timer_enable                           0x08000a90   Section        0  gd32f30x_timer.o(i.timer_enable)
    i.timer_init                             0x08000a9c   Section        0  gd32f30x_timer.o(i.timer_init)
    i.timer_interrupt_enable                 0x08000b34   Section        0  gd32f30x_timer.o(i.timer_interrupt_enable)
    i.timer_interrupt_flag_clear             0x08000b3c   Section        0  gd32f30x_timer.o(i.timer_interrupt_flag_clear)
    i.timer_interrupt_flag_get               0x08000b42   Section        0  gd32f30x_timer.o(i.timer_interrupt_flag_get)
    i.timer_struct_para_init                 0x08000b5a   Section        0  gd32f30x_timer.o(i.timer_struct_para_init)
    i.usart_baudrate_set                     0x08000b70   Section        0  gd32f30x_usart.o(i.usart_baudrate_set)
    i.usart_data_receive                     0x08000c00   Section        0  gd32f30x_usart.o(i.usart_data_receive)
    i.usart_data_transmit                    0x08000c0a   Section        0  gd32f30x_usart.o(i.usart_data_transmit)
    i.usart_deinit                           0x08000c14   Section        0  gd32f30x_usart.o(i.usart_deinit)
    i.usart_enable                           0x08000ca4   Section        0  gd32f30x_usart.o(i.usart_enable)
    i.usart_flag_clear                       0x08000cae   Section        0  gd32f30x_usart.o(i.usart_flag_clear)
    i.usart_flag_get                         0x08000cc0   Section        0  gd32f30x_usart.o(i.usart_flag_get)
    i.usart_interrupt_enable                 0x08000cde   Section        0  gd32f30x_usart.o(i.usart_interrupt_enable)
    i.usart_interrupt_flag_clear             0x08000cf8   Section        0  gd32f30x_usart.o(i.usart_interrupt_flag_clear)
    i.usart_interrupt_flag_get               0x08000d0a   Section        0  gd32f30x_usart.o(i.usart_interrupt_flag_get)
    i.usart_parity_config                    0x08000d42   Section        0  gd32f30x_usart.o(i.usart_parity_config)
    i.usart_receive_config                   0x08000d52   Section        0  gd32f30x_usart.o(i.usart_receive_config)
    i.usart_stop_bit_set                     0x08000d66   Section        0  gd32f30x_usart.o(i.usart_stop_bit_set)
    i.usart_transmit_config                  0x08000d76   Section        0  gd32f30x_usart.o(i.usart_transmit_config)
    i.usart_word_length_set                  0x08000d8a   Section        0  gd32f30x_usart.o(i.usart_word_length_set)
    .data                                    0x20000000   Section        2  timer_drv.o(.data)
    TimeCnt                                  0x20000000   Data           2  timer_drv.o(.data)
    .data                                    0x20000004   Section       24  led_drv.o(.data)
    .data                                    0x2000001c   Section       28  usb2com_drv.o(.data)
    .data                                    0x20000038   Section        4  stdout.o(.data)
    STACK                                    0x20000040   Section     1024  startup_gd32f30x_hd.o(STACK)

    Global Symbols

    Symbol Name                              Value     Ov Type        Size  Object(Section)

    BuildAttributes$$THM_ISAv4$E$P$D$K$B$S$7EM$VFPi3$EXTD16$VFPS$VFMA$PE$A:L22UL41UL21$X:L11$S22US41US21$IEEE1$IW$USESV6$~STKCKD$USESV7$~SHL$OSPACE$ROPI$EBA8$MICROLIB$REQ8$PRES8$EABIv2 0x00000000   Number         0  anon$$obj.o ABSOLUTE
    __ARM_use_no_argv                        0x00000000   Number         0  main.o ABSOLUTE
    __cpp_initialize__aeabi_                  - Undefined Weak Reference
    __cxa_finalize                            - Undefined Weak Reference
    __decompress                              - Undefined Weak Reference
    _clock_init                               - Undefined Weak Reference
    _microlib_exit                            - Undefined Weak Reference
    __Vectors_Size                           0x00000130   Number         0  startup_gd32f30x_hd.o ABSOLUTE
    __Vectors                                0x08000000   Data           4  startup_gd32f30x_hd.o(RESET)
    __Vectors_End                            0x08000130   Data           0  startup_gd32f30x_hd.o(RESET)
    __main                                   0x08000131   Thumb Code     0  entry.o(.ARM.Collect$$$$00000000)
    _main_stk                                0x08000131   Thumb Code     0  entry2.o(.ARM.Collect$$$$00000001)
    _main_scatterload                        0x08000135   Thumb Code     0  entry5.o(.ARM.Collect$$$$00000004)
    __main_after_scatterload                 0x08000139   Thumb Code     0  entry5.o(.ARM.Collect$$$$00000004)
    _main_clock                              0x08000139   Thumb Code     0  entry7b.o(.ARM.Collect$$$$00000008)
    _main_cpp_init                           0x08000139   Thumb Code     0  entry8b.o(.ARM.Collect$$$$0000000A)
    _main_init                               0x08000139   Thumb Code     0  entry9a.o(.ARM.Collect$$$$0000000B)
    __rt_final_cpp                           0x08000141   Thumb Code     0  entry10a.o(.ARM.Collect$$$$0000000D)
    __rt_final_exit                          0x08000141   Thumb Code     0  entry11a.o(.ARM.Collect$$$$0000000F)
    Reset_Handler                            0x08000145   Thumb Code     8  startup_gd32f30x_hd.o(.text)
    NMI_Handler                              0x0800014d   Thumb Code     2  startup_gd32f30x_hd.o(.text)
    HardFault_Handler                        0x0800014f   Thumb Code     2  startup_gd32f30x_hd.o(.text)
    MemManage_Handler                        0x08000151   Thumb Code     2  startup_gd32f30x_hd.o(.text)
    BusFault_Handler                         0x08000153   Thumb Code     2  startup_gd32f30x_hd.o(.text)
    UsageFault_Handler                       0x08000155   Thumb Code     2  startup_gd32f30x_hd.o(.text)
    SVC_Handler                              0x08000157   Thumb Code     2  startup_gd32f30x_hd.o(.text)
    DebugMon_Handler                         0x08000159   Thumb Code     2  startup_gd32f30x_hd.o(.text)
    PendSV_Handler                           0x0800015b   Thumb Code     2  startup_gd32f30x_hd.o(.text)
    SysTick_Handler                          0x0800015d   Thumb Code     2  startup_gd32f30x_hd.o(.text)
    ADC0_1_IRQHandler                        0x0800015f   Thumb Code     0  startup_gd32f30x_hd.o(.text)
    ADC2_IRQHandler                          0x0800015f   Thumb Code     0  startup_gd32f30x_hd.o(.text)
    CAN0_EWMC_IRQHandler                     0x0800015f   Thumb Code     0  startup_gd32f30x_hd.o(.text)
    CAN0_RX1_IRQHandler                      0x0800015f   Thumb Code     0  startup_gd32f30x_hd.o(.text)
    DMA0_Channel0_IRQHandler                 0x0800015f   Thumb Code     0  startup_gd32f30x_hd.o(.text)
    DMA0_Channel1_IRQHandler                 0x0800015f   Thumb Code     0  startup_gd32f30x_hd.o(.text)
    DMA0_Channel2_IRQHandler                 0x0800015f   Thumb Code     0  startup_gd32f30x_hd.o(.text)
    DMA0_Channel3_IRQHandler                 0x0800015f   Thumb Code     0  startup_gd32f30x_hd.o(.text)
    DMA0_Channel4_IRQHandler                 0x0800015f   Thumb Code     0  startup_gd32f30x_hd.o(.text)
    DMA0_Channel5_IRQHandler                 0x0800015f   Thumb Code     0  startup_gd32f30x_hd.o(.text)
    DMA0_Channel6_IRQHandler                 0x0800015f   Thumb Code     0  startup_gd32f30x_hd.o(.text)
    DMA1_Channel0_IRQHandler                 0x0800015f   Thumb Code     0  startup_gd32f30x_hd.o(.text)
    DMA1_Channel1_IRQHandler                 0x0800015f   Thumb Code     0  startup_gd32f30x_hd.o(.text)
    DMA1_Channel2_IRQHandler                 0x0800015f   Thumb Code     0  startup_gd32f30x_hd.o(.text)
    DMA1_Channel3_4_IRQHandler               0x0800015f   Thumb Code     0  startup_gd32f30x_hd.o(.text)
    EXMC_IRQHandler                          0x0800015f   Thumb Code     0  startup_gd32f30x_hd.o(.text)
    EXTI0_IRQHandler                         0x0800015f   Thumb Code     0  startup_gd32f30x_hd.o(.text)
    EXTI10_15_IRQHandler                     0x0800015f   Thumb Code     0  startup_gd32f30x_hd.o(.text)
    EXTI1_IRQHandler                         0x0800015f   Thumb Code     0  startup_gd32f30x_hd.o(.text)
    EXTI2_IRQHandler                         0x0800015f   Thumb Code     0  startup_gd32f30x_hd.o(.text)
    EXTI3_IRQHandler                         0x0800015f   Thumb Code     0  startup_gd32f30x_hd.o(.text)
    EXTI4_IRQHandler                         0x0800015f   Thumb Code     0  startup_gd32f30x_hd.o(.text)
    EXTI5_9_IRQHandler                       0x0800015f   Thumb Code     0  startup_gd32f30x_hd.o(.text)
    FMC_IRQHandler                           0x0800015f   Thumb Code     0  startup_gd32f30x_hd.o(.text)
    I2C0_ER_IRQHandler                       0x0800015f   Thumb Code     0  startup_gd32f30x_hd.o(.text)
    I2C0_EV_IRQHandler                       0x0800015f   Thumb Code     0  startup_gd32f30x_hd.o(.text)
    I2C1_ER_IRQHandler                       0x0800015f   Thumb Code     0  startup_gd32f30x_hd.o(.text)
    I2C1_EV_IRQHandler                       0x0800015f   Thumb Code     0  startup_gd32f30x_hd.o(.text)
    LVD_IRQHandler                           0x0800015f   Thumb Code     0  startup_gd32f30x_hd.o(.text)
    RCU_CTC_IRQHandler                       0x0800015f   Thumb Code     0  startup_gd32f30x_hd.o(.text)
    RTC_Alarm_IRQHandler                     0x0800015f   Thumb Code     0  startup_gd32f30x_hd.o(.text)
    RTC_IRQHandler                           0x0800015f   Thumb Code     0  startup_gd32f30x_hd.o(.text)
    SDIO_IRQHandler                          0x0800015f   Thumb Code     0  startup_gd32f30x_hd.o(.text)
    SPI0_IRQHandler                          0x0800015f   Thumb Code     0  startup_gd32f30x_hd.o(.text)
    SPI1_IRQHandler                          0x0800015f   Thumb Code     0  startup_gd32f30x_hd.o(.text)
    SPI2_IRQHandler                          0x0800015f   Thumb Code     0  startup_gd32f30x_hd.o(.text)
    TAMPER_IRQHandler                        0x0800015f   Thumb Code     0  startup_gd32f30x_hd.o(.text)
    TIMER0_BRK_IRQHandler                    0x0800015f   Thumb Code     0  startup_gd32f30x_hd.o(.text)
    TIMER0_Channel_IRQHandler                0x0800015f   Thumb Code     0  startup_gd32f30x_hd.o(.text)
    TIMER0_TRG_CMT_IRQHandler                0x0800015f   Thumb Code     0  startup_gd32f30x_hd.o(.text)
    TIMER1_IRQHandler                        0x0800015f   Thumb Code     0  startup_gd32f30x_hd.o(.text)
    TIMER2_IRQHandler                        0x0800015f   Thumb Code     0  startup_gd32f30x_hd.o(.text)
    TIMER3_IRQHandler                        0x0800015f   Thumb Code     0  startup_gd32f30x_hd.o(.text)
    TIMER4_IRQHandler                        0x0800015f   Thumb Code     0  startup_gd32f30x_hd.o(.text)
    TIMER5_IRQHandler                        0x0800015f   Thumb Code     0  startup_gd32f30x_hd.o(.text)
    TIMER6_IRQHandler                        0x0800015f   Thumb Code     0  startup_gd32f30x_hd.o(.text)
    TIMER7_BRK_IRQHandler                    0x0800015f   Thumb Code     0  startup_gd32f30x_hd.o(.text)
    TIMER7_Channel_IRQHandler                0x0800015f   Thumb Code     0  startup_gd32f30x_hd.o(.text)
    TIMER7_TRG_CMT_IRQHandler                0x0800015f   Thumb Code     0  startup_gd32f30x_hd.o(.text)
    TIMER7_UP_IRQHandler                     0x0800015f   Thumb Code     0  startup_gd32f30x_hd.o(.text)
    UART3_IRQHandler                         0x0800015f   Thumb Code     0  startup_gd32f30x_hd.o(.text)
    UART4_IRQHandler                         0x0800015f   Thumb Code     0  startup_gd32f30x_hd.o(.text)
    USART1_IRQHandler                        0x0800015f   Thumb Code     0  startup_gd32f30x_hd.o(.text)
    USART2_IRQHandler                        0x0800015f   Thumb Code     0  startup_gd32f30x_hd.o(.text)
    USBD_HP_CAN0_TX_IRQHandler               0x0800015f   Thumb Code     0  startup_gd32f30x_hd.o(.text)
    USBD_LP_CAN0_RX0_IRQHandler              0x0800015f   Thumb Code     0  startup_gd32f30x_hd.o(.text)
    USBD_WKUP_IRQHandler                     0x0800015f   Thumb Code     0  startup_gd32f30x_hd.o(.text)
    WWDGT_IRQHandler                         0x0800015f   Thumb Code     0  startup_gd32f30x_hd.o(.text)
    __scatterload                            0x08000169   Thumb Code    28  init.o(.text)
    __scatterload_rt2                        0x08000169   Thumb Code     0  init.o(.text)
    LedDrvInit                               0x080001a1   Thumb Code    86  led_drv.o(i.LedDrvInit)
    SystemInit                               0x080001fd   Thumb Code   156  system_gd32f30x.o(i.SystemInit)
    TIMER0_UP_IRQHandler                     0x080002a5   Thumb Code    58  timer_drv.o(i.TIMER0_UP_IRQHandler)
    TimerDrvInit                             0x08000309   Thumb Code    12  timer_drv.o(i.TimerDrvInit)
    ToggleLed                                0x08000371   Thumb Code    76  led_drv.o(i.ToggleLed)
    USART0_IRQHandler                        0x080003c1   Thumb Code    54  usb2com_drv.o(i.USART0_IRQHandler)
    Usb2ComDrvInit                           0x08000405   Thumb Code   164  usb2com_drv.o(i.Usb2ComDrvInit)
    __0printf$bare                           0x080004ad   Thumb Code     8  printfb.o(i.__0printf$bare)
    __1printf$bare                           0x080004ad   Thumb Code     0  printfb.o(i.__0printf$bare)
    __2printf                                0x080004ad   Thumb Code     0  printfb.o(i.__0printf$bare)
    __scatterload_copy                       0x080004bd   Thumb Code    14  handlers.o(i.__scatterload_copy)
    __scatterload_null                       0x080004cb   Thumb Code     2  handlers.o(i.__scatterload_null)
    __scatterload_zeroinit                   0x080004cd   Thumb Code    14  handlers.o(i.__scatterload_zeroinit)
    fputc                                    0x080004fd   Thumb Code    36  usb2com_drv.o(i.fputc)
    gpio_bit_set                             0x08000525   Thumb Code     4  gd32f30x_gpio.o(i.gpio_bit_set)
    gpio_bit_write                           0x08000529   Thumb Code    10  gd32f30x_gpio.o(i.gpio_bit_write)
    gpio_init                                0x08000533   Thumb Code   188  gd32f30x_gpio.o(i.gpio_init)
    gpio_input_bit_get                       0x080005ef   Thumb Code    16  gd32f30x_gpio.o(i.gpio_input_bit_get)
    main                                     0x080005ff   Thumb Code     8  main.o(i.main)
    nvic_irq_enable                          0x08000609   Thumb Code   186  gd32f30x_misc.o(i.nvic_irq_enable)
    nvic_priority_group_set                  0x080006cd   Thumb Code    10  gd32f30x_misc.o(i.nvic_priority_group_set)
    rcu_clock_freq_get                       0x080006e1   Thumb Code   310  gd32f30x_rcu.o(i.rcu_clock_freq_get)
    rcu_periph_clock_enable                  0x08000839   Thumb Code    28  gd32f30x_rcu.o(i.rcu_periph_clock_enable)
    rcu_periph_reset_disable                 0x08000859   Thumb Code    28  gd32f30x_rcu.o(i.rcu_periph_reset_disable)
    rcu_periph_reset_enable                  0x08000879   Thumb Code    28  gd32f30x_rcu.o(i.rcu_periph_reset_enable)
    timer_deinit                             0x080009b5   Thumb Code   210  gd32f30x_timer.o(i.timer_deinit)
    timer_enable                             0x08000a91   Thumb Code    10  gd32f30x_timer.o(i.timer_enable)
    timer_init                               0x08000a9d   Thumb Code   122  gd32f30x_timer.o(i.timer_init)
    timer_interrupt_enable                   0x08000b35   Thumb Code     8  gd32f30x_timer.o(i.timer_interrupt_enable)
    timer_interrupt_flag_clear               0x08000b3d   Thumb Code     6  gd32f30x_timer.o(i.timer_interrupt_flag_clear)
    timer_interrupt_flag_get                 0x08000b43   Thumb Code    24  gd32f30x_timer.o(i.timer_interrupt_flag_get)
    timer_struct_para_init                   0x08000b5b   Thumb Code    22  gd32f30x_timer.o(i.timer_struct_para_init)
    usart_baudrate_set                       0x08000b71   Thumb Code   136  gd32f30x_usart.o(i.usart_baudrate_set)
    usart_data_receive                       0x08000c01   Thumb Code    10  gd32f30x_usart.o(i.usart_data_receive)
    usart_data_transmit                      0x08000c0b   Thumb Code     8  gd32f30x_usart.o(i.usart_data_transmit)
    usart_deinit                             0x08000c15   Thumb Code   136  gd32f30x_usart.o(i.usart_deinit)
    usart_enable                             0x08000ca5   Thumb Code    10  gd32f30x_usart.o(i.usart_enable)
    usart_flag_clear                         0x08000caf   Thumb Code    18  gd32f30x_usart.o(i.usart_flag_clear)
    usart_flag_get                           0x08000cc1   Thumb Code    30  gd32f30x_usart.o(i.usart_flag_get)
    usart_interrupt_enable                   0x08000cdf   Thumb Code    26  gd32f30x_usart.o(i.usart_interrupt_enable)
    usart_interrupt_flag_clear               0x08000cf9   Thumb Code    18  gd32f30x_usart.o(i.usart_interrupt_flag_clear)
    usart_interrupt_flag_get                 0x08000d0b   Thumb Code    56  gd32f30x_usart.o(i.usart_interrupt_flag_get)
    usart_parity_config                      0x08000d43   Thumb Code    16  gd32f30x_usart.o(i.usart_parity_config)
    usart_receive_config                     0x08000d53   Thumb Code    20  gd32f30x_usart.o(i.usart_receive_config)
    usart_stop_bit_set                       0x08000d67   Thumb Code    16  gd32f30x_usart.o(i.usart_stop_bit_set)
    usart_transmit_config                    0x08000d77   Thumb Code    20  gd32f30x_usart.o(i.usart_transmit_config)
    usart_word_length_set                    0x08000d8b   Thumb Code    16  gd32f30x_usart.o(i.usart_word_length_set)
    Region$$Table$$Base                      0x08000d9c   Number         0  anon$$obj.o(Region$$Table)
    Region$$Table$$Limit                     0x08000dbc   Number         0  anon$$obj.o(Region$$Table)
    g_gpioList                               0x20000004   Data          24  led_drv.o(.data)
    g_Usb2comUart0                           0x2000001c   Data          24  usb2com_drv.o(.data)
    uartProcessUartData                      0x20000034   Data           4  usb2com_drv.o(.data)
    __stdout                                 0x20000038   Data           4  stdout.o(.data)
    __initial_sp                             0x20000440   Data           0  startup_gd32f30x_hd.o(STACK)



==============================================================================

Memory Map of the image

  Image Entry point : 0x08000131

  Load Region LR_IROM1 (Base: 0x08000000, Size: 0x00000df8, Max: 0x00040000, ABSOLUTE)

    Execution Region ER_IROM1 (Exec base: 0x08000000, Load base: 0x08000000, Size: 0x00000dbc, Max: 0x00040000, ABSOLUTE)

    Exec Addr    Load Addr    Size         Type   Attr      Idx    E Section Name        Object

    0x08000000   0x08000000   0x00000130   Data   RO          265    RESET               startup_gd32f30x_hd.o
    0x08000130   0x08000130   0x00000000   Code   RO         1684  * .ARM.Collect$$$$00000000  mc_w.l(entry.o)
    0x08000130   0x08000130   0x00000004   Code   RO         1947    .ARM.Collect$$$$00000001  mc_w.l(entry2.o)
    0x08000134   0x08000134   0x00000004   Code   RO         1950    .ARM.Collect$$$$00000004  mc_w.l(entry5.o)
    0x08000138   0x08000138   0x00000000   Code   RO         1952    .ARM.Collect$$$$00000008  mc_w.l(entry7b.o)
    0x08000138   0x08000138   0x00000000   Code   RO         1954    .ARM.Collect$$$$0000000A  mc_w.l(entry8b.o)
    0x08000138   0x08000138   0x00000008   Code   RO         1955    .ARM.Collect$$$$0000000B  mc_w.l(entry9a.o)
    0x08000140   0x08000140   0x00000000   Code   RO         1957    .ARM.Collect$$$$0000000D  mc_w.l(entry10a.o)
    0x08000140   0x08000140   0x00000000   Code   RO         1959    .ARM.Collect$$$$0000000F  mc_w.l(entry11a.o)
    0x08000140   0x08000140   0x00000004   Code   RO         1948    .ARM.Collect$$$$00002712  mc_w.l(entry2.o)
    0x08000144   0x08000144   0x00000024   Code   RO          266    .text               startup_gd32f30x_hd.o
    0x08000168   0x08000168   0x00000024   Code   RO         1977    .text               mc_w.l(init.o)
    0x0800018c   0x0800018c   0x00000014   Code   RO            1    i.AllDrvInit        main.o
    0x080001a0   0x080001a0   0x0000005c   Code   RO          170    i.LedDrvInit        led_drv.o
    0x080001fc   0x080001fc   0x000000a8   Code   RO          273    i.SystemInit        system_gd32f30x.o
    0x080002a4   0x080002a4   0x00000064   Code   RO           34    i.TIMER0_UP_IRQHandler  timer_drv.o
    0x08000308   0x08000308   0x0000000c   Code   RO           35    i.TimerDrvInit      timer_drv.o
    0x08000314   0x08000314   0x0000005c   Code   RO           36    i.TimerInit         timer_drv.o
    0x08000370   0x08000370   0x00000050   Code   RO          171    i.ToggleLed         led_drv.o
    0x080003c0   0x080003c0   0x00000044   Code   RO          211    i.USART0_IRQHandler  usb2com_drv.o
    0x08000404   0x08000404   0x000000a8   Code   RO          212    i.Usb2ComDrvInit    usb2com_drv.o
    0x080004ac   0x080004ac   0x00000010   Code   RO         1688    i.__0printf$bare    mc_w.l(printfb.o)
    0x080004bc   0x080004bc   0x0000000e   Code   RO         1989    i.__scatterload_copy  mc_w.l(handlers.o)
    0x080004ca   0x080004ca   0x00000002   Code   RO         1990    i.__scatterload_null  mc_w.l(handlers.o)
    0x080004cc   0x080004cc   0x0000000e   Code   RO         1991    i.__scatterload_zeroinit  mc_w.l(handlers.o)
    0x080004da   0x080004da   0x00000022   Code   RO         1695    i._printf_core      mc_w.l(printfb.o)
    0x080004fc   0x080004fc   0x00000028   Code   RO          214    i.fputc             usb2com_drv.o
    0x08000524   0x08000524   0x00000004   Code   RO          649    i.gpio_bit_set      gd32f30x_gpio.o
    0x08000528   0x08000528   0x0000000a   Code   RO          650    i.gpio_bit_write    gd32f30x_gpio.o
    0x08000532   0x08000532   0x000000bc   Code   RO          658    i.gpio_init         gd32f30x_gpio.o
    0x080005ee   0x080005ee   0x00000010   Code   RO          659    i.gpio_input_bit_get  gd32f30x_gpio.o
    0x080005fe   0x080005fe   0x00000008   Code   RO            2    i.main              main.o
    0x08000606   0x08000606   0x00000002   PAD
    0x08000608   0x08000608   0x000000c4   Code   RO         1314    i.nvic_irq_enable   gd32f30x_misc.o
    0x080006cc   0x080006cc   0x00000014   Code   RO         1315    i.nvic_priority_group_set  gd32f30x_misc.o
    0x080006e0   0x080006e0   0x00000158   Code   RO          336    i.rcu_clock_freq_get  gd32f30x_rcu.o
    0x08000838   0x08000838   0x00000020   Code   RO          354    i.rcu_periph_clock_enable  gd32f30x_rcu.o
    0x08000858   0x08000858   0x00000020   Code   RO          357    i.rcu_periph_reset_disable  gd32f30x_rcu.o
    0x08000878   0x08000878   0x00000020   Code   RO          358    i.rcu_periph_reset_enable  gd32f30x_rcu.o
    0x08000898   0x08000898   0x00000114   Code   RO          274    i.system_clock_120m_hxtal  system_gd32f30x.o
    0x080009ac   0x080009ac   0x00000008   Code   RO          275    i.system_clock_config  system_gd32f30x.o
    0x080009b4   0x080009b4   0x000000dc   Code   RO          812    i.timer_deinit      gd32f30x_timer.o
    0x08000a90   0x08000a90   0x0000000a   Code   RO          817    i.timer_enable      gd32f30x_timer.o
    0x08000a9a   0x08000a9a   0x00000002   PAD
    0x08000a9c   0x08000a9c   0x00000098   Code   RO          827    i.timer_init        gd32f30x_timer.o
    0x08000b34   0x08000b34   0x00000008   Code   RO          834    i.timer_interrupt_enable  gd32f30x_timer.o
    0x08000b3c   0x08000b3c   0x00000006   Code   RO          835    i.timer_interrupt_flag_clear  gd32f30x_timer.o
    0x08000b42   0x08000b42   0x00000018   Code   RO          836    i.timer_interrupt_flag_get  gd32f30x_timer.o
    0x08000b5a   0x08000b5a   0x00000016   Code   RO          847    i.timer_struct_para_init  gd32f30x_timer.o
    0x08000b70   0x08000b70   0x00000090   Code   RO         1370    i.usart_baudrate_set  gd32f30x_usart.o
    0x08000c00   0x08000c00   0x0000000a   Code   RO         1373    i.usart_data_receive  gd32f30x_usart.o
    0x08000c0a   0x08000c0a   0x00000008   Code   RO         1374    i.usart_data_transmit  gd32f30x_usart.o
    0x08000c12   0x08000c12   0x00000002   PAD
    0x08000c14   0x08000c14   0x00000090   Code   RO         1375    i.usart_deinit      gd32f30x_usart.o
    0x08000ca4   0x08000ca4   0x0000000a   Code   RO         1379    i.usart_enable      gd32f30x_usart.o
    0x08000cae   0x08000cae   0x00000012   Code   RO         1380    i.usart_flag_clear  gd32f30x_usart.o
    0x08000cc0   0x08000cc0   0x0000001e   Code   RO         1381    i.usart_flag_get    gd32f30x_usart.o
    0x08000cde   0x08000cde   0x0000001a   Code   RO         1388    i.usart_interrupt_enable  gd32f30x_usart.o
    0x08000cf8   0x08000cf8   0x00000012   Code   RO         1389    i.usart_interrupt_flag_clear  gd32f30x_usart.o
    0x08000d0a   0x08000d0a   0x00000038   Code   RO         1390    i.usart_interrupt_flag_get  gd32f30x_usart.o
    0x08000d42   0x08000d42   0x00000010   Code   RO         1401    i.usart_parity_config  gd32f30x_usart.o
    0x08000d52   0x08000d52   0x00000014   Code   RO         1403    i.usart_receive_config  gd32f30x_usart.o
    0x08000d66   0x08000d66   0x00000010   Code   RO         1413    i.usart_stop_bit_set  gd32f30x_usart.o
    0x08000d76   0x08000d76   0x00000014   Code   RO         1417    i.usart_transmit_config  gd32f30x_usart.o
    0x08000d8a   0x08000d8a   0x00000010   Code   RO         1418    i.usart_word_length_set  gd32f30x_usart.o
    0x08000d9a   0x08000d9a   0x00000002   PAD
    0x08000d9c   0x08000d9c   0x00000020   Data   RO         1987    Region$$Table       anon$$obj.o


    Execution Region RW_IRAM1 (Exec base: 0x20000000, Load base: 0x08000dbc, Size: 0x00000440, Max: 0x0000c000, ABSOLUTE)

    Exec Addr    Load Addr    Size         Type   Attr      Idx    E Section Name        Object

    0x20000000   0x08000dbc   0x00000002   Data   RW           37    .data               timer_drv.o
    0x20000002   0x08000dbe   0x00000002   PAD
    0x20000004   0x08000dc0   0x00000018   Data   RW          174    .data               led_drv.o
    0x2000001c   0x08000dd8   0x0000001c   Data   RW          216    .data               usb2com_drv.o
    0x20000038   0x08000df4   0x00000004   Data   RW         1961    .data               mc_w.l(stdout.o)
    0x2000003c   0x08000df8   0x00000004   PAD
    0x20000040        -       0x00000400   Zero   RW          263    STACK               startup_gd32f30x_hd.o


==============================================================================

Image component sizes


      Code (inc. data)   RO Data    RW Data    ZI Data      Debug   Object Name

       218          0          0          0          0      14649   gd32f30x_gpio.o
       216         20          0          0          0       1372   gd32f30x_misc.o
       440         46          0          0          0      19812   gd32f30x_rcu.o
       442         40          0          0          0      19841   gd32f30x_timer.o
       552         16          0          0          0      15621   gd32f30x_usart.o
       172         10          0         24          0       1870   led_drv.o
        28          0          0          0          0       5371   main.o
        36          8        304          0       1024        808   startup_gd32f30x_hd.o
       452         30          0          0          0       2377   system_gd32f30x.o
       204         46          0          2          0      50002   timer_drv.o
       276         22          0         28          0       3918   usb2com_drv.o

    ----------------------------------------------------------------------
      3044        238        336         56       1024     135641   Object Totals
         0          0         32          0          0          0   (incl. Generated)
         8          0          0          2          0          0   (incl. Padding)

    ----------------------------------------------------------------------

      Code (inc. data)   RO Data    RW Data    ZI Data      Debug   Library Member Name

         0          0          0          0          0          0   entry.o
         0          0          0          0          0          0   entry10a.o
         0          0          0          0          0          0   entry11a.o
         8          4          0          0          0          0   entry2.o
         4          0          0          0          0          0   entry5.o
         0          0          0          0          0          0   entry7b.o
         0          0          0          0          0          0   entry8b.o
         8          4          0          0          0          0   entry9a.o
        30          0          0          0          0          0   handlers.o
        36          8          0          0          0         68   init.o
        50          8          0          0          0        152   printfb.o
         0          0          0          4          0          0   stdout.o

    ----------------------------------------------------------------------
       136         24          0          4          4        220   Library Totals
         0          0          0          0          4          0   (incl. Padding)

    ----------------------------------------------------------------------

      Code (inc. data)   RO Data    RW Data    ZI Data      Debug   Library Name

       136         24          0          4          0        220   mc_w.l

    ----------------------------------------------------------------------
       136         24          0          4          4        220   Library Totals

    ----------------------------------------------------------------------

==============================================================================


      Code (inc. data)   RO Data    RW Data    ZI Data      Debug   

      3180        262        336         60       1028     131913   Grand Totals
      3180        262        336         60       1028     131913   ELF Image Totals
      3180        262        336         60          0          0   ROM Totals

==============================================================================

    Total RO  Size (Code + RO Data)                 3516 (   3.43kB)
    Total RW  Size (RW Data + ZI Data)              1088 (   1.06kB)
    Total ROM Size (Code + RO Data + RW Data)       3576 (   3.49kB)

==============================================================================

