:020000040800F2
:10000000D80800204501000821080008C50700089D
:100010001D080008A1060008710E0008000000007D
:100020000000000000000000000000003B0D000880
:10003000A506000800000000390D00083D0D00086D
:100040005F0100085F0100085F0100085F01000810
:100050005F0100085F0100085F0100085F01000800
:100060005F0100085F0100085F0100085F010008F0
:100070005F0100085F0100085F0100085F010008E0
:100080005F0100085F0100085F0100085F010008D0
:100090005F0100085F0100085F0100085F010008C0
:1000A0005F0100085F0100085F0100085F010008B0
:1000B0005F0100085F0100085F0100085F010008A0
:1000C0005F0100085F0100085F0100085F01000890
:1000D0005F010008E90D00085F0100085F010008EA
:1000E0005F0100085F0100085F0100085F01000870
:1000F0005F0100085F0100085F0100085F01000860
:100100005F0100085F0100085F0100085F0100084F
:100110005F0100085F0100085F0100085F0100083F
:100120005F0100085F0100085F0100085F0100082F
:10013000DFF80CD000F060FA00480047DD1200083C
:10014000D80800200648804706480047FEE7FEE73B
:10015000FEE7FEE7FEE7FEE7FEE7FEE7FEE7FEE777
:10016000410D0008310100082DE9FE4F804681EA6B
:100170000300C00F0C46009021F0004123F0004521
:10018000B8EB0200A94105D24046214690461C46E4
:100190000B46024623F00040104347D0270DC7F31B
:1001A0000A00C3F30A510290401A019040286BDA0A
:1001B000C3F3130040F4801B0098924620B1002343
:1001C000D2EB030A63EB0B0B01985946C0F14002D6
:1001D000504600F083F906460D4650465946019AAE
:1001E00000F09BF910EB08006141002487EA1152EE
:1001F00084EAE7731A4340D0009A62B3019A012A55
:100200004FEA075215DC001B61EB02014FF0004280
:1002100002EA0752CDE90042001C41F58011324646
:100220002B4600F09BF903B0BDE8F08F4046214615
:10023000F9E7001B61EB0201001C41F58013001877
:100240005B412018A2F5001747EB030140EAD57087
:10025000B6196D4111E06D084FEA360645EAC075E2
:100260004FEA0752001B61EB0201001C41F58011AF
:1002700049084FEA30000019514132462B4603B07D
:10028000BDE8F04F00F05BB9009801224000002368
:10029000D0EB020263EBE073009821464FEAE07472
:1002A000B8EB000061EB0401E9E783F000435BE792
:1002B00081F0004158E72DE9FE4F81EA030404F084
:1002C000004421F0004100944FF0000B23F0004364
:1002D00050EA01045ED052EA03045BD0C3F30A542F
:1002E000C1F30A552C44A4F2F3340194A0FB025448
:1002F000C1F3130141F48011C3F3130343F48013DA
:1003000001FB024400FB034E840A970A44EA81542D
:1003100047EA8357A4FB076802958D0A05FB07850A
:100320004FEA932C04FB0C542705029D4FEA065814
:1003300047EA1637B5EB08056EEB070C870E920EF1
:1003400047EA811742EA8312A7FB0201B6EB0B01D1
:1003500064EB00042B0D43EA0C335E1844EB1C5095
:10036000DA465146E7FB0201C5F313044FEA0B33AB
:1003700043EA14534FEA0432019C43EA0603A4F112
:100380000C040294009CCDE900B400F0E7F803B03F
:10039000BDE8F08F00200146F9E72DE9F04D81EA34
:1003A000030404F0004B21F0004514464FF0000A0E
:1003B00023F0004150EA050220D054EA01021DD08A
:1003C000C5F30A570246C5F31303C1F31300C1F383
:1003D0000A5640F4801543F48013A7EB0608101B5F
:1003E000D64608F2FD3873EB050002D308F1010888
:1003F00001E092185B41B8F1000F03DA00200146DA
:10040000BDE8F08D00204FF48011064684460EE0D2
:10041000171B73EB050705D3121B63EB050306439C
:100420004CEA010C49084FEA300092185B4150EA4F
:100430000107EDD152EA030012D082EA040083EAF8
:100440000501084305D0101BAB4106D20122002351
:1004500006E000224FF0004302E06FF0010253106B
:100460001AEB06004CEB085110EB0A0041EB0B01B4
:10047000BDE8F04D00F063B870B5C1F30A5201F069
:1004800000450024C1F3130140F2FF3341F4801111
:100490009A4201DA002070BD40F233439A42A2F240
:1004A000334203DC524200F028F800E090402C4335
:1004B000F1D0404270BD00F0004230F000400AD060
:1004C000C10D01F56071C0F3160042EA0151C20886
:1004D000400711437047002001467047202A04DB83
:1004E000203A00FA02F1002070479140C2F1200347
:1004F00020FA03F3194390407047202A04DB203A86
:1005000021FA02F00021704721FA02F3D040C2F133
:1005100020029140084319467047202A06DBCB177A
:10052000203A41FA02F043EAE07306E041FA02F3AE
:10053000D040C2F12002914008431946704710B5DF
:10054000141E73F1000408DA401C41F100019218F6
:100550005B411A4301D120F0010010BD2DE9F04D9F
:1005600092469B4611B1B1FA81F202E0B0FA80F2F4
:1005700020329046FFF7B2FF04460F4640EA0A00D9
:1005800041EA0B0153465A46084313D0114653EA39
:10059000010019D0C8F140025046FFF7AEFF0546F2
:1005A0000E46504659464246FFF798FF084305D08D
:1005B000012004E020463946BDE8F08D00200543C7
:1005C00046EAE0762C4337430A986305E40AA0EB39
:1005D00008000022FD0A44EA47540A3002D50020F0
:1005E0000146E9E7010510196941DDE908450019EF
:1005F0006941BDE8F04DA2E7064C074D06E0E06812
:1006000040F0010394E8070098471034AC42F6D359
:10061000FFF792FDF83100081832000810B540F2DB
:10062000046001F00FF81023032200211A4800F0A3
:10063000F6FD40F2096001F005F8184800F06CFC86
:10064000022000F01DFF002000F0DAFC00224FF431
:100650008071124800F04BFD002202210F4800F08B
:1006600046FD00210D4800F04CFC012211460B48CC
:1006700000F087FC4FF460220121084800F0A0FC44
:1006800001221146054800F019FC044800F070FCF6
:10069000024800F0FEFB10BD0010014000240140A4
:1006A00000BFFEE77047000070B504460025072331
:1006B00022460021094800F0B1FC0121074800F062
:1006C00007FD00BF0221054800F092FC0128F9D186
:1006D000024800F0F9FC0546284670BD00240140A0
:1006E0002DE9F04107460C460025002608E0384673
:1006F000FFF7DAFF0544052000F04AFD701CC6B282
:10070000A642F4DBB5FBF4F080B2BDE8F081000056
:1007100010B52DED088B14211020FFF7E1FF08EE36
:10072000100AB8EE480A10EE100AFFF7C4FE41ECBA
:100730001A0B9FED1A0B53EC102BFFF7BCFD41EC8D
:10074000190B53EC192B9FED170B51EC100BFFF706
:10075000ACFD41EC1B0B9FED150B53EC102BFFF781
:100760001CFE41EC1A0B9FED130B53EC102BFFF703
:10077000FBFC41EC190B9FED110B53EC102B51ECD2
:10078000190BFFF798FD41EC190B41EC1A0BFFF721
:1007900073FE04B22046BDEC088B10BD666666662B
:1007A00066664A3F333333333333F73F091B9E5E6C
:1007B00029CB703F0000000000003940000000001D
:1007C0000000594000BFFEE710B540F2026000F0A3
:1007D00039FF40F2056000F035FF4FF480730322CB
:1007E00010210C4800F01BFD0423032210210A48AD
:1007F00000F015FD00BF01221102064800F00AFDBD
:1008000000BF00BF01220421034800F003FD00BF28
:1008100010BD0000000801400014014000BFFEE7C9
:100820007047000070B500240EE0002506E00020AF
:10083000074901EBC5010855681CC5B2802DF6DBE0
:1008400000F0F6F8601CC4B2082CEEDB70BD0000AE
:10085000D4000020F0B5144600267F2801DC3F2993
:1008600000DDF0BD0B46CF1701EB5777FF10C7F146
:100870000707FAB2CF1701EB5777FF10A1EBC707B5
:10088000FDB2C5F107070123BB40DEB24CB10A4BF4
:1008900003EBC0039B5C3343074F07EBC007BB541C
:1008A00008E0054B03EBC0039B5CB343024F07EB2F
:1008B000C007BB5400BFD4E7D400002010B540F2FD
:1008C000036000F0BFFE40F2046000F0BBFE4FF496
:1008D000C06000F0B7FE012303221021524800F04F
:1008E0009EFC4FF4787303221021504800F097FCCF
:1008F00000BF002280214D4800F08CFC00BF00BFEB
:1009000001225102494800F085FC00BF00BF0122CE
:100910001102464800F07EFC00BF00BF01224021CA
:10092000414800F077FC00BF00BF012211463E485D
:1009300000F070FC00BF00BF002220213B4800F007
:1009400069FC00BF642000F023FC00BF01222021CD
:10095000364800F05FFC00BF0021AE2000F08EF9A9
:100960000021D52000F08AF90021802000F086F9CE
:100970000021A82000F082F900213F2000F07EF93C
:100980000021D32000F07AF90021084600F076F922
:100990000021402000F072F900218D2000F06EF956
:1009A0000021142000F06AF90021202000F066F9EF
:1009B0000021022000F062F90021A12000F05EF980
:1009C0000021C02000F05AF90021DA2000F056F989
:1009D0000021122000F052F90021812000F04EF990
:1009E0000021EF2000F04AF90021D92000F046F95B
:1009F0000021F12000F042F90021DB2000F03EF957
:100A00000021302000F03AF90021A42000F036F94E
:100A10000021A62000F032F90021AF2000F02EF9CD
:100A2000FFF700FF10BD0000000C01400010014066
:100A300070B500241CE004F1B001C8B2002100F040
:100A40001DF90021084600F019F90021102000F0DE
:100A500015F9002508E0084901EBC501085D0121F1
:100A600000F00CF9681CC5B2802DF4DB601CC4B228
:100A7000082CE0DB70BD0000D40000202DE9F84F09
:100A800080460F4616461C46BA462046E31704EB3E
:100A90005373DB1021464FEAE47C04EB5C7C4FEAA5
:100AA000EC0CA4EBCC0CBCF1000F02D04FF0010C0D
:100AB00001E04FF0000C6344224604EBD27C4FEA85
:100AC0006C0C03FB0CF303F0FF0BA6F12000C6B285
:100AD00000254EE00C2C07D106EB4600274901EB20
:100AE0008000405D009013E0102C05D1244800EBFD
:100AF0000610405D00900BE0182C07D106EBC600F5
:100B0000204901EB8000405D009001E0BDE8F88FD6
:100B10004FF0000927E0009800F0800028B1394626
:100B200040460A9AFFF796FE09E00A9808B90120A4
:100B300000E00020024639464046FFF78BFE009851
:100B40004006000E0090781CC7B2A7EB0A00A04236
:100B500005D1574608F1010000F0FF0806E009F151
:100B6000010000F0FF09B9F1080FD4DB00BF681CD9
:100B7000C5B25D45AEDB00BFC8E70000361A00080D
:100B8000AA1E00089A2400082DE9FF4F81B00746ED
:100B900091461E460E9D4FF0000A002439E0301B9E
:100BA000401EC1B20A2000F0F3FBB9FBF0F00A21AD
:100BB000B0FBF1F201FB1208BAF1000F16D1701E62
:100BC000A04213DDB8F1000F0ED10120AB4605EBBA
:100BD000DB71491001FB04710090C8B22B46202242
:100BE0000299FFF74BFF12E04FF0010A0120AB46DC
:100BF00005EBDB71491001FB04710090C8B208F1EC
:100C00003001CAB22B460299FFF738FF00BF601CC3
:100C1000C4B2B442C3DB05B0BDE8F08FF8B50646F8
:100C20000F4615461C4621E004EBD4714910C1F172
:100C30008001B14202DA00263819C7B2C4F140007F
:100C4000B84204DA002006460746FFF7EBFD012014
:100C500000902A78234639463046FFF70FFF20469A
:100C600004EBD07106EB6101CEB26D1C28787E28B2
:100C700002DC28782028D7DAF8BD000070B50446D9
:100C80000E4600BF2EB101221102294800F0C2FA1F
:100C900005E000224FF48071254800F0BBFA00BF48
:100CA00000BF00224FF40071214800F0B3FA00BFEA
:100CB00000252BE000BF002201211E4800F0AAFA07
:100CC00000BF012000F080FA04F0800030B100BFC6
:100CD00001224021174800F09DFA06E000BF0022E3
:100CE0004021144800F096FA00BF012000F06CFA91
:100CF00000BF012211460F4800F08CFA00BF01200E
:100D000000F062FA6006040E681CC5B2082DD1DB43
:100D100000BF00220121074800F07CFA00BF00BF9D
:100D200001225102024800F075FA00BF70BD0000B8
:100D300000100140000C01407047704770470000F0
:100D400008B52648006840F470002449086024482B
:100D5000006840F001002249086000BF2048006898
:100D600000F002000028F9D000BF1D48406840F0A4
:100D700080001B4948600020009002E00098401C61
:100D8000009000985028F9D31548406840F0900032
:100D9000134948600020009002E00098401C009039
:100DA00000985028F9D300BF0D48406820F0030098
:100DB0000B494860084600680A490840084908602D
:100DC0004FF41F0088600846006820F48020086007
:100DD00000204860C86200F0EFFC08BD88ED00E02C
:100DE00000100240FFFFF6FE10B51D491D4800F03F
:100DF000DAFD10B31B4800F02BFDC4B21A4800887E
:100E000000F40040C8B91848008800F4804060B180
:100E10000A2C03D000201449088020E012480088E2
:100E200040F400401049088019E00D2C06D10E480E
:100E3000008840F480400C49088010E00A4800888F
:100E4000C0F30D0009490C5407480088401C0649AE
:100E5000088008460088C72801DD0020088010BDF2
:100E60000503050000380140080000200C000020A8
:100E700000BFFEE702E008C8121F08C1002AFAD12D
:100E800070477047002001E001C1121F002AFBD10A
:100E90007047816841F00801816000BF816801F0FE
:100EA00008010029FAD1816841F00401816000BF86
:100EB000816801F004010029FAD1704730B5012999
:100EC00002D002291AD10CE0C36A23F47003C36272
:100ED000C36A541E4FF4700505EA04542343C362E9
:100EE0000DE0836B23F440138363836B541E4FF434
:100EF000401505EA04542343836300E000BF00BFAC
:100F000030BD21B1826842F40062826003E08268F1
:100F100022F400628260704710B5044613482044F2
:100F200030B1B0F5806F0CD0B0F5C05F1BD111E0CF
:100F300040F2093000F0A6FB40F2093000F092FBCD
:100F400012E040F20A3000F09DFB40F20A3000F05F
:100F500089FB09E040F20F3000F094FB40F20F30C3
:100F600000F080FB00E000BF00BF10BD00DCFEBF52
:100F7000816801F0010119B9816841F001018160C6
:100F8000704772B101F001031BB1836843F4801311
:100F9000836001F0020393B1836843F400438360EC
:100FA0000DE001F001031BB1836823F4801383601B
:100FB00001F002031BB1836823F400438360704790
:100FC000012902D0022910D107E0836823F46023AD
:100FD000836083681343836008E0836823F4E043FD
:100FE000836083681343836000E000BF00BF7047E5
:100FF0000246002013680B4003B101207047000037
:101000000549096821F47021034A116011460968F5
:10101000014311607047000004240140F0B51D46F3
:1010200006290CD2436B01EB81071F26BE40B34358
:1010300001EB810602FA06F63343436322E00C29F2
:101040000ED2036B8E1F06EB86071F26BE40B343EE
:101050008E1F06EB860602FA06F63343036311E0A1
:1010600010290FD2C36AA1F10C0606EB86071F26D2
:10107000BE40B343A1F10C0606EB860602FA06F663
:101080003343C3620A2A0CD2046902EB42070726E3
:10109000BE40B44302EB420605FA06F6344304614F
:1010A00011E0122A0FD2C468A2F10A0606EB460725
:1010B0000726BE40B443A2F10A0606EB460605FA2F
:1010C00006F63443C460F0BD0146C86C80B2704778
:1010D00001F001021AB1826842F48002826001F0DC
:1010E00002021AB1826842F4001282607047AAB10B
:1010F00001F480731BB1436843F48073436001F4CF
:1011000080631BB1436843F48063436001F00203D2
:10111000CBB1836843F00203836014E001F4807371
:101120001BB1436823F48073436001F480631BB1F7
:10113000436823F48063436001F002031BB18368BA
:1011400023F002038360704710B5FFF767FA00F0E1
:1011500001F810BD0348006840F400000149086030
:10116000704700000824014000214FF0E022116187
:101170001146096921F0040111610146C21700EB13
:101180005272C2F3CF02014B1A8070470000002058
:1011900070B504464FF47A7094FBF0F594FBF0F1CF
:1011A00000FB114603E0074800F00EF86D1E002D0D
:1011B000F9D12EB14FF47A7106FB01F000F004F87A
:1011C00070BD000040420F000146114A12884A4398
:1011D0004FF0E0235A6100229A611A46126942F0E8
:1011E00001021A6100BF4FF0E022106900F0010215
:1011F0001AB100F48032002AF5D04FF0E0221269D3
:1012000022F001024FF0E0231A6100229A61704738
:10121000000000200AB1016100E041617047F0B5B3
:10122000044616460025002201F00F0501F01007C4
:1012300047B1042E05D145F00305E76B1F43E76373
:1012400000E0354300201EE0012787401F40C7B162
:1012500022684FEA800C0F2707FA0CF7BA43870081
:1012600005FA07F73A43282904D1012787401F4090
:10127000676105E0482903D1012787401F402761A6
:101280002260471CB8B20828DED3082022E00127DC
:1012900087401F40E7B16268A0F108074FEA870C5A
:1012A0000F2707FA0CF7BA43A0F10807BF0005FAA9
:1012B00007F73A43282904D1012787401F40676177
:1012C00005E0482903D1012787401F40276162605C
:1012D000471CB8B21028DAD3F0BD000008B578205A
:1012E000FFF742FF4FF4E13000F006FBFFF76CFA26
:1012F000FFF7E4FAFFF728FF0C231DA200210846A0
:10130000FFF78CFC01200C2360220021009072204A
:10131000FFF7B4FB2BE0FFF7FBF90446002C06DADD
:101320000C2319A200214E20FFF778FC05E00C23C6
:1013300016A200214E20FFF771FC642094FBF0F50B
:101340000C2002232A46002100905420FFF71CFCA9
:10135000642094FBF0F100FB11450C2002232A4687
:10136000002100906620FFF70FFCFFF761FBD2E73A
:101370005468652074656D70657220697320303023
:101380002E303020430000002D000000200000001F
:1013900010B50246012000E050430B1EA1F10104EC
:1013A000E1B2F9D110BD00002DE9F04103460D4630
:1013B000164600240027A0462A48006800F4E06092
:1013C000B0F5E06F03D100BF4FF0040830E02548CE
:1013D000006800F4E060B0F5C06F03D101274FF062
:1013E000030825E01F48006800F4E060B0F5A06F36
:1013F00002D10227B8461BE01A48006800F4E060FA
:10140000B0F5806F03D103274FF0010810E01548B5
:10141000006800F4E060B0F5407F03D104274FF08E
:10142000000805E04FF4A06000F020F80227B8465D
:10143000C7F1040005FA00F4C8F104010F20C84008
:101440003040044324010848C45403F01F01012024
:1014500088405911890001F1E021C1F80001BDE87F
:10146000F08100000CED00E000E400E002490143DF
:10147000024A1160704700000000FA050CED00E020
:10148000184B5968184B1940164BDA6A22F0005273
:101490000C2820D2DFE800F0060708091F0C1F0DFA
:1014A0001516171800BF00BF00BF41EA803113E0D6
:1014B00000BF20F004004FF0805343EA803319430B
:1014C0000AE000BF00BF00BF20F00C0041EA8031FD
:1014D00042F0005200E000BF00BF024B5960DA62E8
:1014E0007047000000100240FF3FFFEF2DE9F04F72
:1014F0008CB0074600200A904AA090E8004CC068D3
:10150000CDE905BECDF810A007900FF21C1ADAE95C
:10151000000ACDE9020A0FF2101ADAE9000ACDE951
:10152000000A44484068C0F381000B900B9820B13A
:10153000012804D002283FD103E03F4A3EE03E4A62
:101540003CE03C48406800F4803CBCF5803F12D150
:101550003848C06A00F08048B8F1000F01D1364B1E
:1015600000E0364B3348406800F40039B9F5003FDD
:1015700002D15B0800E0324B2E484068C0F3834143
:101580002C48406800F0006008B141F01001294883
:10159000406800F0804008B141F020010F2901D2DD
:1015A000891C06E00F2903D33E2901D8491C00E01D
:1015B0003F2103FB01F201E01F4A00BF00BF1D48AD
:1015C0004068C0F3031504A8465D22FA06F41948E2
:1015D0004068C0F3022502A8465D24FA06F009908F
:1015E00014484068C0F3C2251DF8056024FA06F0CF
:1015F000089037B1012F06D0022F06D0032F0AD151
:1016000006E00A9208E00A9406E009980A9003E0CE
:1016100008980A9000E000BF00BF0A980CB0BDE82F
:10162000F08F000000000000000000000102030431
:10163000060708090010024000127A00006CDC0264
:1016400000093D00064A02EB9011096800F01F03F3
:1016500001229A401143024B03EB90121160704734
:1016600000100240064A02EB9011096800F01F03C7
:1016700001229A409143024B03EB90121160704794
:1016800000100240064A02EB9011096800F01F03A7
:1016900001229A401143024B03EB901211607047F4
:1016A00000100240002000213F4A126842F48032BC
:1016B0003D4B1A6000BF401C3B4A126802F40031E7
:1016C00019B94FF6FF729042F5D1374A126802F409
:1016D00000320AB900BFFEE7334AD26942F08052B5
:1016E000314BDA61314A126842F440422F4B1A60A2
:1016F0002D4A52682C4B5A601A4652685A601A4654
:10170000526842F480625A601A46526822F44032AB
:101710005A601A46526842F440325A601A46526879
:10172000234B1A40204B5A601A465268214B1A43E9
:101730001D4B5A601A46126842F080721A6000BF50
:10174000194A126802F00072002AF9D0174A12688A
:1017500042F48032154B1A6000BF144A526802F4FA
:101760008032002AF9D0114A126842F400320F4B3D
:101770001A6000BF0D4A526802F40032002AF9D004
:10178000094A526822F00302074B5A601A4652680F
:1017900042F002025A6000BF034A526802F0080297
:1017A000002AF9D07047000000100240007000408D
:1017B000FFFFC3B70000340810B5FFF773FF10BD7B
:1017C0002DE9F04704460D460027B846B9460026E5
:1017D0001D49601A8C421CD006DC1C48204470B1A4
:1017E000B0F5806F1FD10FE0B0F5806F16D0B0F567
:1017F0006C4F18D10320FFF779FE074614E0022052
:10180000FFF774FE07460FE00220FFF76FFE074662
:101810000AE00220FFF76AFE074605E00220FFF714
:1018200065FE074600E000BF00BF07EB5500B0FBB8
:10183000F5F64FF6F07006EA000806F00F0948EAE0
:101840000900A060BDE8F087004C004000BCFFBF6D
:1018500001464868C0F308007047000010B5044610
:101860002049601A8C4228D006DC1F48204490B1E1
:10187000B0F5806F33D117E0B0F5806F26D0B0F5AA
:101880006C4F2CD140F20E30FFF7FCFE40F20E30D0
:10189000FFF7E8FE24E040F21140FFF7F3FE40F2CC
:1018A0001140FFF7DFFE1BE040F21240FFF7EAFEB7
:1018B00040F21240FFF7D6FE12E040F21340FFF76D
:1018C000E1FE40F21340FFF7CDFE09E040F2144084
:1018D000FFF7D8FE40F21440FFF7C4FE00E000BF5F
:1018E00000BF10BD004C004000BCFFBFC16841F408
:1018F0000051C1607047000010B5044640F202601C
:10190000FFF7A0FE4FF4C060FFF79CFE40F20E60B0
:10191000FFF798FE4FF40073032218211948FFF7D0
:101920007EFC4FF48063032204211648FFF777FC06
:101930001548FFF793FF21461348FFF741FF0021A9
:10194000114800F05EF800210F4800F06CF800210B
:101950000D4800F044F804210B4800F048F8082135
:10196000094800F056F840F20531074800F00EF83B
:10197000032211462520FFF717FD0348FFF7B6FFA6
:1019800010BD0000000801400038014010B500EB18
:101990009112126801F01F040123A3401A4300EBC7
:1019A00091131A6010BD70B5024600230024C1F3E4
:1019B0008910105801F01F060125B54000EA050303
:1019C00002EB91500068C1F304460125B54000EADE
:1019D000050414B10BB1012070BD0020FCE7C26802
:1019E00022F4C062C260C2680A43C2607047C26823
:1019F00022F00402C260C26801F004031A43C2600C
:101A00007047026922F44052026102690A4302618E
:101A10007047C26822F00802C260C26801F0080381
:101A20001A43C2607047C26822F48052C260C26822
:101A30000A43C26070470000000000000000000080
:101A40000000000000003F40000000000000000017
:101A50003000400030004000000009000BC03D0095
:101A60000BC03D00090018C024407FE022403180B7
:101A70000000180024C01B000D803240018003804C
:101A80001C4027401C800740004010006000000000
:101A90000000000000000000000000001F80204047
:101AA00040200000402020401F800000000009006E
:101AB00006001F80060009000000040004003F80AB
:101AC000040004000000001000600000000000009E
:101AD00000000400040004000400040000000000F2
:101AE00000400000000000000000002001C00600CF
:101AF0003800400000001F802040204020401F8010
:101B00000000000010403FC000400000000018C06E
:101B100021402240244018400000108020402440F2
:101B200024401B80000002000D0011003FC0014056
:101B300000003C80244024402440238000001F807B
:101B4000244024403440038000003000200027C09F
:101B50003800200000001B802440244024401B80CB
:101B600000001C0022C0224022401F800000000014
:101B700000000840000000000000000000000460B9
:101B8000000000000000000004000A001100208096
:101B90004040090009000900090009000000000098
:101BA0004040208011000A0004001800200023405B
:101BB0002400180000001F802040274029401F40BB
:101BC0000000004007C039000F0001C00040204065
:101BD0003FC0244024401B8000001F802040204044
:101BE00020403080000020403FC0204020401F8027
:101BF000000020403FC024402E4030C00000204064
:101C00003FC024402E00300000000F001080204014
:101C100022403380020020403FC0040004003FC047
:101C20002040204020403FC0204020400000006075
:101C3000202020203FC02000200020403FC0244022
:101C40000B0030C0204020403FC0204000400040FA
:101C500000C03FC03C0003C03C003FC0000020402B
:101C60003FC00C4023003FC020001F802040204088
:101C700020401F80000020403FC024402400180066
:101C800000001F802140214020E01FA000002040D4
:101C90003FC02440260019C0004018C02440244002
:101CA000224031800000300020403FC02040300002
:101CB000000020003F80004000403F8020002000C6
:101CC0003E0001C0070038002000380007C03C007B
:101CD00007C038000000204039C0060039C020404D
:101CE00000002000384007C038402000000030408D
:101CF00021C02640384020C00000000000007FE0E6
:101D0000402040200000000070000C0003800040D4
:101D100000000000402040207FE0000000000000A4
:101D20002000400020000000000000100010001003
:101D30000010001000100000000040000000000033
:101D40000000000002800540054003C00040200064
:101D50003FC00440044003800000000003800440B2
:101D600004400640000000000380044024403FC0BF
:101D700000400000038005400540034000000000D3
:101D800004401FC0244024402000000002E0055011
:101D900005500650042020403FC00440040003C00A
:101DA00000400000044027C0004000000000001078
:101DB0000010041027E00000000020403FC0014058
:101DC000070004C00440204020403FC000400040C5
:101DD000000007C0040007C0040003C00000044066
:101DE00007C00440040003C000400000038004401A
:101DF000044003800000041007F0045004400380F6
:101E00000000000003800440045007F0001004406C
:101E100007C0024004000400000000000640054026
:101E2000054004C00000000004001F800440004082
:101E30000000040007800040044007C00040040088
:101E4000070004C0018006000400060001C007006E
:101E500001C006000000044006C0010006C00440A6
:101E600000000410071004E00180060004000000D8
:101E7000044005C0064004400000000000000400CB
:101E80007BE040200000000000000000FFF00000A8
:101E90000000000040207BE0040000000000400043
:101EA00080004000200020004000000000000000F2
:101EB0000000000000000000000000000000000022
:101EC0001FCC000C000000000000000008003000E3
:101ED00060000800300060000000022003FC1E20AB
:101EE000022003FC1E200220000000000E18110436
:101EF0003FFF10840C78000000000F0010840F38A2
:101F000000C0077818840078000000780F8410C49F
:101F100011240E9800E40084000808006800700096
:101F200000000000000000000000000000000000B1
:101F300007E01818200440020000000040022004BE
:101F4000181807E000000000000002400240018075
:101F50000FF00180024002400000008000800080FD
:101F60000FF800800080008000000001000D000ECE
:101F70000000000000000000000000000080008061
:101F8000008000800080008000800000000C000CB9
:101F90000000000000000000000000000006001823
:101FA00000600180060018002000000007F008080B
:101FB00010041004080807F00000000008040804DA
:101FC0001FFC000400040000000000000E0C1014B0
:101FD0001024104411840E0C000000000C18100492
:101FE0001104110412880C700000000000E00320AE
:101FF000042408241FFC0024000000001F98108403
:1020000011041104108810700000000007F0088807
:102010001104110418880070000000001C0010005A
:1020200010FC13001C001000000000000E381144CA
:102030001084108411440E38000000000700088C42
:1020400010441044088807F0000000000000000061
:10205000030C030C00000000000000000000000161
:1020600001060000000000000000000000800140A8
:1020700002200410080810040000022002200220A0
:1020800002200220022002200000000010040808A4
:102090000410022001400080000000000E00120029
:1020A000100C106C10800F00000003E00C1813E4FB
:1020B000142417C4082807D000000004003C03C4FF
:1020C0001C40074000E4001C000410041FFC110425
:1020D000110411040E880070000003E00C181004B5
:1020E0001004100410081C10000010041FFC100441
:1020F00010041004080807F0000010041FFC11046D
:10210000110417C410040818000010041FFC110467
:10211000110017C010000800000003E00C181004A4
:10212000100410441C780040000010041FFC1084B0
:102130000080008010841FFC1004000010041004B4
:102140001FFC100410040000000000030001100137
:1021500010011FFE10001000000010041FFC1104ED
:1021600003801464181C1004000010041FFC1004E9
:10217000000400040004000C000010041FFC1F00F9
:1021800000FC1F001FFC1004000010041FFC0C04C6
:10219000030000E010181FFC100007F008081004EE
:1021A00010041004080807F0000010041FFC10843D
:1021B0001080108010800F00000007F00818102415
:1021C0001024101C080A07F2000010041FFC110460
:1021D000110011C011300E0C000400000E1C11047F
:1021E0001084108410441C380000180010001004E3
:1021F0001FFC100410001800000010001FF810044D
:102200000004000410041FF8100010001E0011E06C
:10221000001C007013801C0010001FC0103C00E068
:102220001F0000E0103C1FC000001004180C163402
:1022300001C001C01634180C100410001C00130457
:1022400000FC13041C00100000000804101C1064A3
:10225000108413041C04101800000000000000008B
:102260007FFE4002400240020000000030000C00EF
:1022700003800060001C00030000000040024002D8
:1022800040027FFE0000000000000000000020006F
:10229000400040004000200000000001000100015B
:1022A00000010001000100010001000040004000A9
:1022B0002000000000000000000000000098012441
:1022C00001440144014400FC000410001FFC00888C
:1022D0000104010400880070000000000070008804
:1022E000010401040104008800000000007000885F
:1022F0000104010411081FFC0004000000F801445F
:1023000001440144014400C800000000010401042C
:102310000FFC1104110411001800000000D601295F
:102320000129012901C90106000010041FFC0084D5
:1023300001000100010400FC000400000104190474
:1023400019FC00040004000000000000000300016C
:102350000101190119FE0000000010041FFC0024F7
:10236000004001B4010C010400000000100410043E
:102370001FFC0004000400000000010401FC010433
:10238000010001FC0104010000FC010401FC0084C7
:1023900001000100010400FC0004000000F8010439
:1023A00001040104010400F80000010101FF00859F
:1023B0000104010400880070000000000070008823
:1023C00001040104010501FF00010104010401FCF5
:1023D00000840104010001800000000000CC012401
:1023E00001240124012401980000000001000100E3
:1023F00007F80104010400000000010001F80004D6
:1024000000040004010801FC0004010001800170C7
:10241000000C001001600180010001F0010C00308F
:1024200001C00030010C01F0010000000104018C2A
:1024300000740170018C010400000101018101712F
:10244000000E001801600180010000000184010CF1
:10245000013401440184010C000000000000000070
:10246000000001003EFC40024002000000000000AD
:102470000000FFFF000000000000000040024002DA
:102480003EFC010000000000000000006000800031
:1024900080004000400020002000000000000000FC
:1024A000000000000000000000000000000000002C
:1024B000000000000000000000000000000000001C
:1024C000000000000000000000000000000F803845
:1024D0000FFE380F803800000000000000000000F0
:1024E00000000000000000000100000600000C00D9
:1024F000003800003100000600000C000038000029
:102500003000000000000000000061800067F80754
:10251000F980006180006180006180006180006757
:10252000F807F98000618000000000000000000052
:1025300001C0E003E0F00630080418081FFFFE04A5
:102540000E080787F00381E000000000000001F0A2
:1025500000060C00040408060C7001F9C0000E000F
:10256000003BE000EC18070808040C180003E0002A
:1025700000000001E00007F003F818041C0804172D
:102580000807E1D003C0E00023B0003C08002008A9
:1025900000001000000000000001000031000032C7
:1025A00000001C000000000000000000000000000F
:1025B000000000000000000000000000000000001B
:1025C000000000000000000000007F0001FFC007C5
:1025D00080F00C0018100004200002000000000031
:1025E000002000021000040C00180780F001FFC05A
:1025F000007F00000000000000000000000000005C
:102600000000000000004200006600006600003C80
:102610000000180003FFC0001800003C0000660026
:1026200000660000420000000000080000080000F2
:10263000080000080000080001FFC00008000008B2
:102640000000080000080000080000000000000171
:1026500000003100003200001C00000000000000FB
:10266000000000000000000000000000000000006A
:102670000000080000080000080000080000080032
:102680000008000008000008000008000008000022
:1026900000000000000000000000380000380000CA
:1026A00038000000000000000000000000000000F2
:1026B00000000000000000000000000600001C00F8
:1026C0000070000180000E0000380000C00007000C
:1026D000001C0000300000000000000000007F80AF
:1026E00001FFE003807006001804000804000806DB
:1026F000001803807001FFE0007F800000000000F0
:102700000000000001000801000801000803FFF8B4
:1027100007FFF800000800000800000800000000A3
:10272000000000000001C03802C0580400980401F5
:1027300018040218040418061C1803F81801E0F81D
:1027400000000000000000000001C0E003C0F00431
:10275000000804080804080806180803F41801E72C
:10276000F00001E000000000000000000000030095
:10277000000D00001100006100008108030108073E
:10278000FFF80FFFF800010800010800000000003A
:10279000000000E007FCD006080806100806100834
:1027A000061008061838060FF00607C000000000E3
:1027B0000000000000003F8001FFE00384300208B9
:1027C00018041008041008041008071810030FF06C
:1027D0000007C000000000000000000003C0000768
:1027E00000000600000600F80607F806180006E0DC
:1027F0000007000006000000000000000001E1E00A
:1028000003F7F0063410041808041808040C080430
:102810000C0806161803F3F001C1E00000000000E8
:102820000000F80003FC3003063804020804020824
:102830000402080404100308F001FFC0007F000038
:102840000000000000000000000000000000000088
:102850000000703800703800703800000000000080
:102860000000000000000000000000000000000068
:10287000000000000000301A00301C0000000000C2
:102880000000000000000000000000000000000048
:1028900000080000140000220000410000808001B8
:1028A00000400200200400100800080000000000A2
:1028B0000000210000210000210000210000210073
:1028C0000021000021000021000021000021000063
:1028D00000000000000000000800080400100200D2
:1028E0002001004000808000410000220000140010
:1028F00000080000000000000003C00004C0000445
:102900000000080038080F380808380810000C309C
:102910000007E00003C000000000000000003F804E
:1029200000FFE0038070020F1006708804C0880466
:102930008308047F8802C09003012000FE4000004D
:10294000080000180001F8003E0801C2000702005C
:1029500007E20000FE00001FC80001F80000380078
:10296000000804000807FFF807FFF8040808040837
:102970000804080804080806180803F41801E7F01A
:102980000001E0000000000000003F8001FFE003C4
:102990008070020018040008040008040008040005
:1029A000100600200780C000000004000807FFF8A0
:1029B00007FFF804000804000804000804001802D7
:1029C000001003807001FFE0007F80000000040021
:1029D0000807FFF807FFF8040808040808040808B7
:1029E000040808043E0804000806001801006000FE
:1029F000000004000807FFF807FFF80408080408AF
:102A000000040800040800043E0006000006000060
:102A1000018000000000000000003F8001FFE00393
:102A2000807006001804000804020804020802036B
:102A3000F00783F000020000020004000807FFF81E
:102A400007FFF8040808000800000800000800005C
:102A5000080004080807FFF807FFF8040008000052
:102A60000000000004000804000804000807FFF844
:102A700007FFF80400080400080400080000000034
:102A80000000000000000006000007000001040034
:102A90000104000104000307FFFE07FFFC0400001F
:102AA00004000004000004000807FFF807FFF80412
:102AB0000C08001800003E0004C7800503C806008B
:102AC000F804003804001800000804000807FFF8A4
:102AD00007FFF804000800000800000800000800D4
:102AE000000800000800001800006000000004005A
:102AF0000807FFF807800807FC00007FC00003F804
:102B00000007C000780007800807FFF807FFF804F7
:102B1000000804000807FFF807000803C00000E0F1
:102B200000003800001E000007000001C00400F093
:102B300007FFF8040000000000007F8001FFE003B1
:102B4000807006001804000804000806001803003E
:102B50003001FFE0007F8000000004000807FFF85C
:102B600007FFF8040408040400040400040400043B
:102B70000400060C0003F80001F000000000000053
:102B800000007F8001FFE003807006008804008859
:102B90000400C806003C03003E01FFE6007F8400FD
:102BA000000004000807FFF807FFF80408080408FD
:102BB00000040C00040F00040BC00610F003F038F2
:102BC00001E00800000800000001E0F803F0300612
:102BD0003010041808041808040C08040C08020635
:102BE000180207F00781E0000000018000060000E5
:102BF00004000004000004000807FFF807FFF804C1
:102C00000008040000040000060000018000040029
:102C10000007FFE007FFF0040018000008000008AC
:102C200000000800000800000804001007FFE0048E
:102C3000000004000006000007E00007FE00041F7B
:102C4000E00001F80000380001E0043E0007C00089
:102C500006000004000004000007E00007FFC004B5
:102C60001FF80007C007F80007FF80043FF80007BF
:102C7000C004F80007000004000000000004000881
:102C800006001807C07805F1C8003E00001F800448
:102C900063E80780F806001804000800000004003C
:102CA0000006000007800007E008047C08001FF809
:102CB0000007F800180804E00807000006000004F8
:102CC00000000000000100080600380400F80403BA
:102CD000E8040F08047C0805F00807C0080700187E
:102CE0000400600000000000000000000000000080
:102CF00000000000003FFFFE200002200002200034
:102D0000022000022000020000000000000000007D
:102D100008000007000000C00000380000060000A6
:102D200001C000003000000E0000010000000000A3
:102D3000000000002000022000022000022000020B
:102D40002000023FFFFE0000000000000000000025
:102D5000000000000000000000000008000010005B
:102D600000300000200000300000100000080000CB
:102D70000000000000000000010000010000010050
:102D8000000100000100000100000100000100003E
:102D9000010000010000010000010000000000002F
:102DA00000000020000020000010000010000000C3
:102DB0000000000000000000000000000000000013
:102DC000000000F00019F8001B1800220800260877
:102DD000002408002410003FF8001FF8000008003D
:102DE000001800000004000007FFF80FFFF00018B3
:102DF00018001008002008002008003018001FF0FC
:102E0000000FC00000000000000007C0001FF0001D
:102E10001830002008002008002008003C08001C92
:102E2000100000600000000000000000000007C06B
:102E3000001FF000381800200800200800200804B7
:102E4000101007FFF80FFFF0000010000000000056
:102E5000000000000007C0001FF000123000221820
:102E6000002208002208003208001E10000E200078
:102E7000000000000000200000200800200801FFE2
:102E8000F803FFF8062008042008042008072000A3
:102E900003000000000000000000000E000E6E00A5
:102EA0001FF30031B10020B10020B1003191001FAB
:102EB00013002E1E00200E00300000000004000849
:102EC00007FFF80FFFF800100800200000200000A6
:102ED0002008003FF8001FF8000008000000000074
:102EE00000000000002008002008002008063FF82D
:102EF000063FF8000008000008000008000000007D
:102F0000000000000000000000000300000300209B
:102F100001002001002003063FFE063FFC000000E8
:102F200000000000000000000004000807FFF80F88
:102F3000FFF8000188000300002FC00038F80020CF
:102F40003800200800000800000000000000000019
:102F500004000804000804000807FFF80FFFF80049
:102F60000008000008000008000000000000002029
:102F700008003FF8003FF8001008002000003FF86C
:102F8000003FF8001008002000003FF8003FF80064
:102F90000008000000002008003FF8003FF8001083
:102FA00008001000002000002008003FF8001FF873
:102FB0000000080000000000000007C0000FF00043
:102FC00018300030080020080020080030080018E1
:102FD00030000FF00007C0000000000000002001DA
:102FE000003FFF003FFF00101100200900200800F3
:102FF0002008003038001FF0000FC0000000000063
:10300000000007C0001FF00038180020080020084A
:10301000002009001011001FFF003FFF0000010009
:103020000000002008002008002008003FF8003FB2
:10303000F8000808001008002008002000003000F8
:10304000003000000000000000000000000C7800CC
:103050001E180033080023080021080021880021E1
:10306000980030F0003860000000000000002000F0
:1030700000200000200000FFF003FFF800200800FF
:1030800020080020080000300000000000000000C0
:1030900000002000003FF0007FF80000180000084A
:1030A000000008002010003FF8007FF00000100032
:1030B0000000000000002000003000003C00003F45
:1030C000800023F0000078000070002380003C00A6
:1030D000003000002000002000003C00003FE00025
:1030E00023F80000E0002700003E00003FE0002140
:1030F000F80001E0003E0000200000000000200871
:10310000002008003838003E680027800003C8000F
:103110002CF80038380020180020080000000000BB
:1031200000002000003003003C01003F830023EC3E
:10313000000070002380003C000020000020000000
:1031400000000000000000000038080020380020C7
:10315000F80023E8002F88003E08003808002018F7
:1031600000007000000000000000000000000000EF
:1031700000000000000008000014001FF7FC3000F1
:103180000620000200000000000000000000000017
:10319000000000000000000000000000FFFFFF0032
:1031A000000000000000000000000000000000001F
:1031B000000000002000023000061FF7FC00140091
:1031C00000080000000000000000000000000000F7
:1031D00000000000001800006000004000004000F7
:1031E000002000001000000800000400000400009F
:1031F0000C00001000000000183200080000002041
:103200000C000000740E0008243200080C0000209E
:10321000CC080000840E0008000000000000000040
:0432200000000000AA
:0400000508000131BD
:00000001FF
