Component: ARM Compiler 5.06 update 6 (build 750) Tool: armlink [4d35ed]

==============================================================================

Section Cross References

    main.o(i.AllAppInit) refers to hmi_app.o(i.HmiAppInit) for HmiAppInit
    main.o(i.AllDrvInit) refers to delay.o(i.delay_init) for delay_init
    main.o(i.AllDrvInit) refers to led_drv.o(i.LedDrvInit) for LedDrvInit
    main.o(i.AllDrvInit) refers to usb2com_drv.o(i.Usb2ComDrvInit) for Usb2ComDrvInit
    main.o(i.AllDrvInit) refers to infrared_drv.o(i.InfraredDrvInit) for InfraredDrvInit
    main.o(i.AllDrvInit) refers to timer_drv.o(i.TimerDrvInit) for TimerDrvInit
    main.o(i.AllDrvInit) refers to adc_drv.o(i.AdcDrvInit) for AdcDrvInit
    main.o(i.AllDrvInit) refers to rtc_drv.o(i.RtcDrvInit) for RtcDrvInit
    main.o(i.AllDrvInit) refers to at24cxx_drv.o(i.AT24CxxDrvInit) for AT24CxxDrvInit
    main.o(i.main) refers to main.o(i.AllDrvInit) for AllDrvInit
    main.o(i.main) refers to main.o(i.AllAppInit) for AllAppInit
    main.o(i.main) refers to hmi_app.o(i.InfraredDrvTest) for InfraredDrvTest
    hmi_app.o(i.GetIrCode) refers to hmi_app.o(.data) for irCodeFlag
    hmi_app.o(i.HmiAppInit) refers to infrared_drv.o(i.regParaIrFrame) for regParaIrFrame
    hmi_app.o(i.HmiAppInit) refers to hmi_app.o(i.ParaIrFrame) for ParaIrFrame
    hmi_app.o(i.InfraredDrvTest) refers to hmi_app.o(i.GetIrCode) for GetIrCode
    hmi_app.o(i.InfraredDrvTest) refers to printfa.o(i.__0printf) for __2printf
    hmi_app.o(i.InfraredDrvTest) refers to led_drv.o(i.TurnOnLed) for TurnOnLed
==============================================================================

Removing Unused input sections from the image.

    Removing infrared_drv.o(.rev16_text), (4 bytes).
    Removing infrared_drv.o(.revsh_text), (4 bytes).
    Removing led_drv.o(.rev16_text), (4 bytes).
    Removing led_drv.o(.revsh_text), (4 bytes).
    Removing led_drv.o(i.ToggleLed), (80 bytes).
    Removing usb2com_drv.o(.rev16_text), (4 bytes).
    Removing usb2com_drv.o(.revsh_text), (4 bytes).
    Removing delay.o(.rev16_text), (4 bytes).
    Removing delay.o(.revsh_text), (4 bytes).
    Removing timer_drv.o(.rev16_text), (4 bytes).
    Removing timer_drv.o(.revsh_text), (4 bytes).
    Removing adc_drv.o(.rev16_text), (4 bytes).
    Removing adc_drv.o(.revsh_text), (4 bytes).
    Removing rtc_drv.o(.rev16_text), (4 bytes).
    Removing rtc_drv.o(.revsh_text), (4 bytes).
    Removing rtc_drv.o(i.SetRtcTime), (58 bytes).
    Removing i2c_drv.o(.rev16_text), (4 bytes).
    Removing i2c_drv.o(.revsh_text), (4 bytes).
==============================================================================

Image Symbol Table

    Local Symbols

    Symbol Name                              Value     Ov Type        Size  Object(Section)

    ../clib/microlib/division.c              0x00000000   Number         0  uldiv.o ABSOLUTE
    ../clib/microlib/division.c              0x00000000   Number         0  uidiv.o ABSOLUTE
    ../clib/microlib/errno.c                 0x00000000   Number         0  errno.o ABSOLUTE
    ../clib/microlib/init/entry.s            0x00000000   Number         0  entry7a.o ABSOLUTE
    ../clib/microlib/init/entry.s            0x00000000   Number         0  entry5.o ABSOLUTE
    ../clib/microlib/init/entry.s            0x00000000   Number         0  entry2.o ABSOLUTE
    ../clib/microlib/init/entry.s            0x00000000   Number         0  entry11b.o ABSOLUTE
    ../clib/microlib/init/entry.s            0x00000000   Number         0  entry.o ABSOLUTE
    ../clib/microlib/init/entry.s            0x00000000   Number         0  entry9a.o ABSOLUTE
    ../clib/microlib/init/entry.s            0x00000000   Number         0  entry9b.o ABSOLUTE
    ../clib/microlib/init/entry.s            0x00000000   Number         0  entry10a.o ABSOLUTE
    ../clib/microlib/init/entry.s            0x00000000   Number         0  entry8b.o ABSOLUTE
    ../clib/microlib/init/entry.s            0x00000000   Number         0  entry8a.o ABSOLUTE
    ../clib/microlib/init/entry.s            0x00000000   Number         0  entry7b.o ABSOLUTE
    ../clib/microlib/init/entry.s            0x00000000   Number         0  entry10b.o ABSOLUTE
    ../clib/microlib/init/entry.s            0x00000000   Number         0  entry11a.o ABSOLUTE
    ../clib/microlib/longlong.c              0x00000000   Number         0  llshl.o ABSOLUTE
    ../clib/microlib/longlong.c              0x00000000   Number         0  llushr.o ABSOLUTE
    ../clib/microlib/longlong.c              0x00000000   Number         0  llsshr.o ABSOLUTE
    ../clib/microlib/printf/printf.c         0x00000000   Number         0  printf6.o ABSOLUTE
    ../clib/microlib/printf/printf.c         0x00000000   Number         0  printf7.o ABSOLUTE
    ../clib/microlib/printf/printf.c         0x00000000   Number         0  printf8.o ABSOLUTE
    ../clib/microlib/printf/printf.c         0x00000000   Number         0  printfa.o ABSOLUTE
    ../clib/microlib/printf/printf.c         0x00000000   Number         0  printf4.o ABSOLUTE
    ../clib/microlib/printf/printf.c         0x00000000   Number         0  printfb.o ABSOLUTE
    ../clib/microlib/printf/printf.c         0x00000000   Number         0  printf0.o ABSOLUTE
    ../clib/microlib/printf/printf.c         0x00000000   Number         0  printf1.o ABSOLUTE
    ../clib/microlib/printf/printf.c         0x00000000   Number         0  printf2.o ABSOLUTE
    ../clib/microlib/printf/printf.c         0x00000000   Number         0  printf3.o ABSOLUTE
    ../clib/microlib/printf/printf.c         0x00000000   Number         0  printf5.o ABSOLUTE
    ../clib/microlib/printf/stubs.s          0x00000000   Number         0  stubs.o ABSOLUTE
    ../clib/microlib/stdio/streams.c         0x00000000   Number         0  stdout.o ABSOLUTE
    ../clib/microlib/stubs.s                 0x00000000   Number         0  iusefp.o ABSOLUTE
    ../clib/microlib/time/localtime.c        0x00000000   Number         0  localtime_w.o ABSOLUTE
    ../clib/microlib/time/localtime.c        0x00000000   Number         0  localtime.o ABSOLUTE
    ../clib/microlib/time/localtime.c        0x00000000   Number         0  localtime_i.o ABSOLUTE
    ../clib/microlib/time/mktime.c           0x00000000   Number         0  mktime.o ABSOLUTE
    ../fplib/microlib/f2d.c                  0x00000000   Number         0  f2d.o ABSOLUTE
    ../fplib/microlib/fpadd.c                0x00000000   Number         0  dadd.o ABSOLUTE
    ../fplib/microlib/fpdiv.c                0x00000000   Number         0  ddiv.o ABSOLUTE
    ../fplib/microlib/fpepilogue.c           0x00000000   Number         0  depilogue.o ABSOLUTE
    ../fplib/microlib/fpfix.c                0x00000000   Number         0  dfixi.o ABSOLUTE
    ../fplib/microlib/fpfix.c                0x00000000   Number         0  dfixui.o ABSOLUTE
    ../fplib/microlib/fpfix.c                0x00000000   Number         0  dfixul.o ABSOLUTE
    ../fplib/microlib/fpflt.c                0x00000000   Number         0  dfltui.o ABSOLUTE
    ../fplib/microlib/fpflt.c                0x00000000   Number         0  dflti.o ABSOLUTE
    ../fplib/microlib/fpmul.c                0x00000000   Number         0  dmul.o ABSOLUTE
    ../fplib/microlib/fpneg.c                0x00000000   Number         0  dneg.o ABSOLUTE
    ../mathlib/cos_i.c                       0x00000000   Number         0  cos_i.o ABSOLUTE
    ../mathlib/dunder.c                      0x00000000   Number         0  dunder.o ABSOLUTE
    ../mathlib/fabs.c                        0x00000000   Number         0  fabs.o ABSOLUTE
    ../mathlib/fpclassify.c                  0x00000000   Number         0  fpclassify.o ABSOLUTE
    ../mathlib/poly.c                        0x00000000   Number         0  poly.o ABSOLUTE
    ../mathlib/rred.c                        0x00000000   Number         0  rred.o ABSOLUTE
    ../mathlib/sin.c                         0x00000000   Number         0  sin_x.o ABSOLUTE
    ../mathlib/sin.c                         0x00000000   Number         0  sin.o ABSOLUTE
    ../mathlib/sin_i.c                       0x00000000   Number         0  sin_i_x.o ABSOLUTE
    ../mathlib/sin_i.c                       0x00000000   Number         0  sin_i.o ABSOLUTE
    App\hmi_app.c                            0x00000000   Number         0  hmi_app.o ABSOLUTE
    App\main.c                               0x00000000   Number         0  main.o ABSOLUTE
    Arm\\system_gd32f30x.c                   0x00000000   Number         0  system_gd32f30x.o ABSOLUTE
    Arm\startup_gd32f30x_hd.s                0x00000000   Number         0  startup_gd32f30x_hd.o ABSOLUTE
    Arm\system_gd32f30x.c                    0x00000000   Number         0  system_gd32f30x.o ABSOLUTE
    Driver\Usb2Com_drv.c                     0x00000000   Number         0  usb2com_drv.o ABSOLUTE
    Driver\\Usb2Com_drv.c                    0x00000000   Number         0  usb2com_drv.o ABSOLUTE
    Driver\\adc_drv.c                        0x00000000   Number         0  adc_drv.o ABSOLUTE
    Driver\\delay.c                          0x00000000   Number         0  delay.o ABSOLUTE
    Driver\\i2c_drv.c                        0x00000000   Number         0  i2c_drv.o ABSOLUTE
    Driver\\infrared_drv.c                   0x00000000   Number         0  infrared_drv.o ABSOLUTE
    Driver\\led_drv.c                        0x00000000   Number         0  led_drv.o ABSOLUTE
    Driver\\rtc_drv.c                        0x00000000   Number         0  rtc_drv.o ABSOLUTE
    Driver\\timer_drv.c                      0x00000000   Number         0  timer_drv.o ABSOLUTE
    Driver\adc_drv.c                         0x00000000   Number         0  adc_drv.o ABSOLUTE
    Driver\at24cxx_drv.c                     0x00000000   Number         0  at24cxx_drv.o ABSOLUTE
    Driver\delay.c                           0x00000000   Number         0  delay.o ABSOLUTE
    Driver\i2c_drv.c                         0x00000000   Number         0  i2c_drv.o ABSOLUTE
    Driver\infrared_drv.c                    0x00000000   Number         0  infrared_drv.o ABSOLUTE
    Driver\led_drv.c                         0x00000000   Number         0  led_drv.o ABSOLUTE
    Driver\rtc_drv.c                         0x00000000   Number         0  rtc_drv.o ABSOLUTE
    Driver\timer_drv.c                       0x00000000   Number         0  timer_drv.o ABSOLUTE
    GD32_Lib\Source\gd32f30x_adc.c           0x00000000   Number         0  gd32f30x_adc.o ABSOLUTE
    GD32_Lib\Source\gd32f30x_bkp.c           0x00000000   Number         0  gd32f30x_bkp.o ABSOLUTE
    GD32_Lib\Source\gd32f30x_exti.c          0x00000000   Number         0  gd32f30x_exti.o ABSOLUTE
    GD32_Lib\Source\gd32f30x_gpio.c          0x00000000   Number         0  gd32f30x_gpio.o ABSOLUTE
    GD32_Lib\Source\gd32f30x_i2c.c           0x00000000   Number         0  gd32f30x_i2c.o ABSOLUTE
    GD32_Lib\Source\gd32f30x_misc.c          0x00000000   Number         0  gd32f30x_misc.o ABSOLUTE
    GD32_Lib\Source\gd32f30x_pmu.c           0x00000000   Number         0  gd32f30x_pmu.o ABSOLUTE
    GD32_Lib\Source\gd32f30x_rcu.c           0x00000000   Number         0  gd32f30x_rcu.o ABSOLUTE
    GD32_Lib\Source\gd32f30x_rtc.c           0x00000000   Number         0  gd32f30x_rtc.o ABSOLUTE
    GD32_Lib\Source\gd32f30x_timer.c         0x00000000   Number         0  gd32f30x_timer.o ABSOLUTE
    GD32_Lib\Source\gd32f30x_usart.c         0x00000000   Number         0  gd32f30x_usart.o ABSOLUTE
    GD32_Lib\\Source\\gd32f30x_adc.c         0x00000000   Number         0  gd32f30x_adc.o ABSOLUTE
    GD32_Lib\\Source\\gd32f30x_bkp.c         0x00000000   Number         0  gd32f30x_bkp.o ABSOLUTE
    GD32_Lib\\Source\\gd32f30x_exti.c        0x00000000   Number         0  gd32f30x_exti.o ABSOLUTE
    GD32_Lib\\Source\\gd32f30x_gpio.c        0x00000000   Number         0  gd32f30x_gpio.o ABSOLUTE
    GD32_Lib\\Source\\gd32f30x_i2c.c         0x00000000   Number         0  gd32f30x_i2c.o ABSOLUTE
    GD32_Lib\\Source\\gd32f30x_misc.c        0x00000000   Number         0  gd32f30x_misc.o ABSOLUTE
    GD32_Lib\\Source\\gd32f30x_pmu.c         0x00000000   Number         0  gd32f30x_pmu.o ABSOLUTE
    GD32_Lib\\Source\\gd32f30x_rcu.c         0x00000000   Number         0  gd32f30x_rcu.o ABSOLUTE
    GD32_Lib\\Source\\gd32f30x_rtc.c         0x00000000   Number         0  gd32f30x_rtc.o ABSOLUTE
    GD32_Lib\\Source\\gd32f30x_timer.c       0x00000000   Number         0  gd32f30x_timer.o ABSOLUTE
    GD32_Lib\\Source\\gd32f30x_usart.c       0x00000000   Number         0  gd32f30x_usart.o ABSOLUTE
    cdrcmple.s                               0x00000000   Number         0  cdrcmple.o ABSOLUTE
    dc.s                                     0x00000000   Number         0  dc.o ABSOLUTE
    handlers.s                               0x00000000   Number         0  handlers.o ABSOLUTE
    init.s                                   0x00000000   Number         0  init.o ABSOLUTE
    RESET                                    0x08000000   Section      304  startup_gd32f30x_hd.o(RESET)
    .ARM.Collect$$$$00000000                 0x08000130   Section        0  entry.o(.ARM.Collect$$$$00000000)
    .ARM.Collect$$$$00000001                 0x08000130   Section        4  entry2.o(.ARM.Collect$$$$00000001)
    .ARM.Collect$$$$00000004                 0x08000134   Section        4  entry5.o(.ARM.Collect$$$$00000004)
    .ARM.Collect$$$$00000008                 0x08000138   Section        0  entry7b.o(.ARM.Collect$$$$00000008)
    .ARM.Collect$$$$0000000A                 0x08000138   Section        0  entry8b.o(.ARM.Collect$$$$0000000A)
    .ARM.Collect$$$$0000000B                 0x08000138   Section        8  entry9a.o(.ARM.Collect$$$$0000000B)
    .ARM.Collect$$$$0000000D                 0x08000140   Section        0  entry10a.o(.ARM.Collect$$$$0000000D)
    .ARM.Collect$$$$0000000F                 0x08000140   Section        0  entry11a.o(.ARM.Collect$$$$0000000F)
    .ARM.Collect$$$$00002712                 0x08000140   Section        4  entry2.o(.ARM.Collect$$$$00002712)
    __lit__00000000                          0x08000140   Data           4  entry2.o(.ARM.Collect$$$$00002712)
    .text                                    0x08000144   Section       36  startup_gd32f30x_hd.o(.text)
    $v0                                      0x08000144   Number         0  startup_gd32f30x_hd.o(.text)
    .text                                    0x08000168   Section        0  dmul.o(.text)
    .text                                    0x0800024c   Section        0  ddiv.o(.text)
    .text                                    0x0800032a   Section        0  dfltui.o(.text)
    .text                                    0x08000344   Section        0  dfixui.o(.text)
    .text                                    0x08000376   Section        0  f2d.o(.text)
    .text                                    0x0800039c   Section       48  cdrcmple.o(.text)
    .text                                    0x080003cc   Section        0  uidiv.o(.text)
    .text                                    0x080003f8   Section        0  uldiv.o(.text)
    .text                                    0x0800045a   Section        0  llushr.o(.text)
    .text                                    0x0800047c   Section        0  localtime_w.o(.text)
    .text                                    0x08000488   Section        0  localtime_i.o(.text)
    .text                                    0x08000514   Section        0  depilogue.o(.text)
    .text                                    0x08000514   Section        0  iusefp.o(.text)
    .text                                    0x080005ce   Section        0  dadd.o(.text)
    .text                                    0x0800071c   Section        0  dfixul.o(.text)
    .text                                    0x0800074c   Section       36  init.o(.text)
    .text                                    0x08000770   Section        0  llshl.o(.text)
    .text                                    0x0800078e   Section        0  llsshr.o(.text)
    .text                                    0x080007b2   Section        0  dflti.o(.text)
    .text                                    0x080007d4   Section        0  dfixi.o(.text)
    i.AT24CXX_Read                           0x08000812   Section        0  at24cxx_drv.o(i.AT24CXX_Read)
    i.AT24CXX_ReadOneByte                    0x08000834   Section        0  at24cxx_drv.o(i.AT24CXX_ReadOneByte)
    i.AT24CXX_Write                          0x08000886   Section        0  at24cxx_drv.o(i.AT24CXX_Write)
    i.AT24CXX_WriteOneByte                   0x080008aa   Section        0  at24cxx_drv.o(i.AT24CXX_WriteOneByte)
    i.AT24CxxDrvInit                         0x080008fa   Section        0  at24cxx_drv.o(i.AT24CxxDrvInit)
    i.AdcConfigInit                          0x08000904   Section        0  adc_drv.o(i.AdcConfigInit)
    AdcConfigInit                            0x08000905   Thumb Code    94  adc_drv.o(i.AdcConfigInit)
    i.AdcDrvInit                             0x08000968   Section        0  adc_drv.o(i.AdcDrvInit)
    i.AdcDrvTest                             0x08000974   Section        0  adc_drv.o(i.AdcDrvTest)
    i.AdcGpioInit                            0x08000a24   Section        0  adc_drv.o(i.AdcGpioInit)
    AdcGpioInit                              0x08000a25   Thumb Code    24  adc_drv.o(i.AdcGpioInit)
    i.AllAppInit                             0x08000a40   Section        0  main.o(i.AllAppInit)
    AllAppInit                               0x08000a41   Thumb Code     8  main.o(i.AllAppInit)
    i.AllDrvInit                             0x08000a48   Section        0  main.o(i.AllDrvInit)
    AllDrvInit                               0x08000a49   Thumb Code    38  main.o(i.AllDrvInit)
    i.At24cxxDrvTest                         0x08000a70   Section        0  at24cxx_drv.o(i.At24cxxDrvTest)
    i.GetIrCode                              0x08000b8c   Section        0  hmi_app.o(i.GetIrCode)
    i.GetRtcTime                             0x08000bb0   Section        0  rtc_drv.o(i.GetRtcTime)
    i.Get_Adc_Average                        0x08000be6   Section        0  adc_drv.o(i.Get_Adc_Average)
    i.Get_Adc_Value                          0x08000c10   Section        0  adc_drv.o(i.Get_Adc_Value)
    Get_Adc_Value                            0x08000c11   Thumb Code    52  adc_drv.o(i.Get_Adc_Value)
    i.HmiAppInit                             0x08000c48   Section        0  hmi_app.o(i.HmiAppInit)
    i.IIC_Ack                                0x08000c58   Section        0  i2c_drv.o(i.IIC_Ack)
    i.IIC_Init                               0x08000c9c   Section        0  i2c_drv.o(i.IIC_Init)
    i.IIC_NAck                               0x08000ccc   Section        0  i2c_drv.o(i.IIC_NAck)
    i.IIC_Read_Byte                          0x08000d00   Section        0  i2c_drv.o(i.IIC_Read_Byte)
    i.IIC_Send_Byte                          0x08000d58   Section        0  i2c_drv.o(i.IIC_Send_Byte)
    i.IIC_Start                              0x08000da8   Section        0  i2c_drv.o(i.IIC_Start)
    i.IIC_Stop                               0x08000de8   Section        0  i2c_drv.o(i.IIC_Stop)
    i.IIC_Wait_Ack                           0x08000e1c   Section        0  i2c_drv.o(i.IIC_Wait_Ack)
    i.IIC_delay                              0x08000e78   Section        0  i2c_drv.o(i.IIC_delay)
    IIC_delay                                0x08000e79   Thumb Code    10  i2c_drv.o(i.IIC_delay)
    i.InfraredDrvInit                        0x08000e82   Section        0  infrared_drv.o(i.InfraredDrvInit)
    i.InfraredDrvTest                        0x08000e94   Section        0  hmi_app.o(i.InfraredDrvTest)
    i.InfraredGpioInit                       0x08000f50   Section        0  infrared_drv.o(i.InfraredGpioInit)
    InfraredGpioInit                         0x08000f51   Thumb Code    24  infrared_drv.o(i.InfraredGpioInit)
    i.InfraredTimerInit                      0x08000f6c   Section        0  infrared_drv.o(i.InfraredTimerInit)
    InfraredTimerInit                        0x08000f6d   Thumb Code   112  infrared_drv.o(i.InfraredTimerInit)
    i.LedDrvInit                             0x08000fdc   Section        0  led_drv.o(i.LedDrvInit)
    i.ParaIrFrame                            0x08001038   Section        0  hmi_app.o(i.ParaIrFrame)
    ParaIrFrame                              0x08001039   Thumb Code   228  hmi_app.o(i.ParaIrFrame)
    i.PwmDrvTest                             0x0800112c   Section        0  timer_drv.o(i.PwmDrvTest)
    i.PwmUpdatePropor                        0x080011c8   Section        0  timer_drv.o(i.PwmUpdatePropor)
    i.RtcDrvInit                             0x08001234   Section        0  rtc_drv.o(i.RtcDrvInit)
    i.RtcDrvTest                             0x080012c4   Section        0  rtc_drv.o(i.RtcDrvTest)
    i.SystemInit                             0x08001324   Section        0  system_gd32f30x.o(i.SystemInit)
    i.TIMER1_IRQHandler                      0x080013cc   Section        0  infrared_drv.o(i.TIMER1_IRQHandler)
    i.TimeInit                               0x0800140c   Section        0  timer_drv.o(i.TimeInit)
    TimeInit                                 0x0800140d   Thumb Code   108  timer_drv.o(i.TimeInit)
    i.TimerDrvInit                           0x0800147c   Section        0  timer_drv.o(i.TimerDrvInit)
    i.TimerGpioInit                          0x08001490   Section        0  timer_drv.o(i.TimerGpioInit)
    TimerGpioInit                            0x08001491   Thumb Code    26  timer_drv.o(i.TimerGpioInit)
    i.TurnOffLed                             0x080014b0   Section        0  led_drv.o(i.TurnOffLed)
    i.TurnOnLed                              0x080014dc   Section        0  led_drv.o(i.TurnOnLed)
    i.Usb2ComDrvInit                         0x08001508   Section        0  usb2com_drv.o(i.Usb2ComDrvInit)
    i.Usb2ComGpioInit                        0x08001518   Section        0  usb2com_drv.o(i.Usb2ComGpioInit)
    Usb2ComGpioInit                          0x08001519   Thumb Code    40  usb2com_drv.o(i.Usb2ComGpioInit)
    i.Usb2ComUartInit                        0x08001544   Section        0  usb2com_drv.o(i.Usb2ComUartInit)
    Usb2ComUartInit                          0x08001545   Thumb Code    96  usb2com_drv.o(i.Usb2ComUartInit)
    i.__0printf                              0x080015ac   Section        0  printfa.o(i.__0printf)
    i.__ARM_fpclassify                       0x080015cc   Section        0  fpclassify.o(i.__ARM_fpclassify)
    i.__hardfp_sin                           0x08001600   Section        0  sin.o(i.__hardfp_sin)
    i.__ieee754_rem_pio2                     0x080016c8   Section        0  rred.o(i.__ieee754_rem_pio2)
    i.__kernel_cos                           0x08001b00   Section        0  cos_i.o(i.__kernel_cos)
    i.__kernel_poly                          0x08001c70   Section        0  poly.o(i.__kernel_poly)
    i.__kernel_sin                           0x08001d68   Section        0  sin_i.o(i.__kernel_sin)
    i.__mathlib_dbl_infnan                   0x08001e98   Section        0  dunder.o(i.__mathlib_dbl_infnan)
    i.__mathlib_dbl_invalid                  0x08001eb0   Section        0  dunder.o(i.__mathlib_dbl_invalid)
    i.__mathlib_dbl_underflow                0x08001ed0   Section        0  dunder.o(i.__mathlib_dbl_underflow)
    i.__scatterload_copy                     0x08001ef0   Section       14  handlers.o(i.__scatterload_copy)
    i.__scatterload_null                     0x08001efe   Section        2  handlers.o(i.__scatterload_null)
    i.__scatterload_zeroinit                 0x08001f00   Section       14  handlers.o(i.__scatterload_zeroinit)
    i.__set_errno                            0x08001f10   Section        0  errno.o(i.__set_errno)
    i._fp_digits                             0x08001f1c   Section        0  printfa.o(i._fp_digits)
    _fp_digits                               0x08001f1d   Thumb Code   366  printfa.o(i._fp_digits)
    i._printf_core                           0x080020a0   Section        0  printfa.o(i._printf_core)
    _printf_core                             0x080020a1   Thumb Code  1744  printfa.o(i._printf_core)
    i._printf_post_padding                   0x0800277c   Section        0  printfa.o(i._printf_post_padding)
    _printf_post_padding                     0x0800277d   Thumb Code    36  printfa.o(i._printf_post_padding)
    i._printf_pre_padding                    0x080027a0   Section        0  printfa.o(i._printf_pre_padding)
    _printf_pre_padding                      0x080027a1   Thumb Code    46  printfa.o(i._printf_pre_padding)
    i.adc_calibration_enable                 0x080027ce   Section        0  gd32f30x_adc.o(i.adc_calibration_enable)
    i.adc_data_alignment_config              0x080027f8   Section        0  gd32f30x_adc.o(i.adc_data_alignment_config)
    i.adc_deinit                             0x08002810   Section        0  gd32f30x_adc.o(i.adc_deinit)
    i.adc_enable                             0x08002868   Section        0  gd32f30x_adc.o(i.adc_enable)
    i.adc_external_trigger_config            0x0800287a   Section        0  gd32f30x_adc.o(i.adc_external_trigger_config)
    i.adc_external_trigger_source_config     0x080028b8   Section        0  gd32f30x_adc.o(i.adc_external_trigger_source_config)
    i.adc_flag_get                           0x080028e8   Section        0  gd32f30x_adc.o(i.adc_flag_get)
    i.adc_mode_config                        0x080028f8   Section        0  gd32f30x_adc.o(i.adc_mode_config)
    i.adc_regular_channel_config             0x08002914   Section        0  gd32f30x_adc.o(i.adc_regular_channel_config)
    i.adc_regular_data_read                  0x080029c0   Section        0  gd32f30x_adc.o(i.adc_regular_data_read)
    i.adc_software_trigger_enable            0x080029c8   Section        0  gd32f30x_adc.o(i.adc_software_trigger_enable)
    i.adc_special_function_config            0x080029e6   Section        0  gd32f30x_adc.o(i.adc_special_function_config)
    i.bkp_deinit                             0x08002a40   Section        0  gd32f30x_bkp.o(i.bkp_deinit)
    i.bkp_read_data                          0x08002a4c   Section        0  gd32f30x_bkp.o(i.bkp_read_data)
    i.bkp_write_data                         0x08002a84   Section        0  gd32f30x_bkp.o(i.bkp_write_data)
    i.delay_init                             0x08002ab8   Section        0  delay.o(i.delay_init)
    i.delay_ms                               0x08002b10   Section        0  delay.o(i.delay_ms)
    i.delay_us                               0x08002b48   Section        0  delay.o(i.delay_us)
    i.fabs                                   0x08002b94   Section        0  fabs.o(i.fabs)
    i.fputc                                  0x08002bac   Section        0  usb2com_drv.o(i.fputc)
    i.gpio_bit_reset                         0x08002bd4   Section        0  gd32f30x_gpio.o(i.gpio_bit_reset)
    i.gpio_bit_set                           0x08002bd8   Section        0  gd32f30x_gpio.o(i.gpio_bit_set)
    i.gpio_bit_write                         0x08002bdc   Section        0  gd32f30x_gpio.o(i.gpio_bit_write)
    i.gpio_init                              0x08002be6   Section        0  gd32f30x_gpio.o(i.gpio_init)
    i.gpio_input_bit_get                     0x08002ca2   Section        0  gd32f30x_gpio.o(i.gpio_input_bit_get)
    i.main                                   0x08002cb2   Section        0  main.o(i.main)
    i.nvic_irq_enable                        0x08002cc4   Section        0  gd32f30x_misc.o(i.nvic_irq_enable)
    i.nvic_priority_group_set                0x08002d88   Section        0  gd32f30x_misc.o(i.nvic_priority_group_set)
    i.pmu_backup_write_enable                0x08002d9c   Section        0  gd32f30x_pmu.o(i.pmu_backup_write_enable)
    i.rcu_adc_clock_config                   0x08002db0   Section        0  gd32f30x_rcu.o(i.rcu_adc_clock_config)
    i.rcu_bkp_reset_disable                  0x08002e1c   Section        0  gd32f30x_rcu.o(i.rcu_bkp_reset_disable)
    i.rcu_bkp_reset_enable                   0x08002e30   Section        0  gd32f30x_rcu.o(i.rcu_bkp_reset_enable)
    i.rcu_clock_freq_get                     0x08002e44   Section        0  gd32f30x_rcu.o(i.rcu_clock_freq_get)
    i.rcu_flag_get                           0x08002f9c   Section        0  gd32f30x_rcu.o(i.rcu_flag_get)
    i.rcu_osci_on                            0x08002fc0   Section        0  gd32f30x_rcu.o(i.rcu_osci_on)
    i.rcu_osci_stab_wait                     0x08002fe0   Section        0  gd32f30x_rcu.o(i.rcu_osci_stab_wait)
    i.rcu_periph_clock_enable                0x080030f0   Section        0  gd32f30x_rcu.o(i.rcu_periph_clock_enable)
    i.rcu_periph_reset_disable               0x08003110   Section        0  gd32f30x_rcu.o(i.rcu_periph_reset_disable)
    i.rcu_periph_reset_enable                0x08003130   Section        0  gd32f30x_rcu.o(i.rcu_periph_reset_enable)
    i.rcu_rtc_clock_config                   0x08003150   Section        0  gd32f30x_rcu.o(i.rcu_rtc_clock_config)
    i.regParaIrFrame                         0x08003168   Section        0  infrared_drv.o(i.regParaIrFrame)
    i.rtc_configuration_mode_enter           0x08003174   Section        0  gd32f30x_rtc.o(i.rtc_configuration_mode_enter)
    i.rtc_configuration_mode_exit            0x08003188   Section        0  gd32f30x_rtc.o(i.rtc_configuration_mode_exit)
    i.rtc_counter_get                        0x0800319c   Section        0  gd32f30x_rtc.o(i.rtc_counter_get)
    i.rtc_counter_set                        0x080031b0   Section        0  gd32f30x_rtc.o(i.rtc_counter_set)
    i.rtc_lwoff_wait                         0x080031d0   Section        0  gd32f30x_rtc.o(i.rtc_lwoff_wait)
    i.rtc_prescaler_set                      0x080031e4   Section        0  gd32f30x_rtc.o(i.rtc_prescaler_set)
    i.rtc_register_sync_wait                 0x08003204   Section        0  gd32f30x_rtc.o(i.rtc_register_sync_wait)
    i.system_clock_120m_hxtal                0x08003224   Section        0  system_gd32f30x.o(i.system_clock_120m_hxtal)
    system_clock_120m_hxtal                  0x08003225   Thumb Code   258  system_gd32f30x.o(i.system_clock_120m_hxtal)
    i.system_clock_config                    0x08003338   Section        0  system_gd32f30x.o(i.system_clock_config)
    system_clock_config                      0x08003339   Thumb Code     8  system_gd32f30x.o(i.system_clock_config)
    i.timer_channel_capture_value_register_read 0x08003340   Section        0  gd32f30x_timer.o(i.timer_channel_capture_value_register_read)
    i.timer_channel_input_capture_prescaler_config 0x0800336a   Section        0  gd32f30x_timer.o(i.timer_channel_input_capture_prescaler_config)
    i.timer_channel_input_struct_para_init   0x080033c4   Section        0  gd32f30x_timer.o(i.timer_channel_input_struct_para_init)
    i.timer_channel_output_config            0x080033d4   Section        0  gd32f30x_timer.o(i.timer_channel_output_config)
    i.timer_channel_output_mode_config       0x080035c0   Section        0  gd32f30x_timer.o(i.timer_channel_output_mode_config)
    i.timer_channel_output_pulse_value_config 0x0800361a   Section        0  gd32f30x_timer.o(i.timer_channel_output_pulse_value_config)
    i.timer_channel_output_struct_para_init  0x08003640   Section        0  gd32f30x_timer.o(i.timer_channel_output_struct_para_init)
    i.timer_counter_value_config             0x08003650   Section        0  gd32f30x_timer.o(i.timer_counter_value_config)
    i.timer_deinit                           0x08003654   Section        0  gd32f30x_timer.o(i.timer_deinit)
    i.timer_enable                           0x08003730   Section        0  gd32f30x_timer.o(i.timer_enable)
    i.timer_init                             0x0800373c   Section        0  gd32f30x_timer.o(i.timer_init)
    i.timer_input_capture_config             0x080037d4   Section        0  gd32f30x_timer.o(i.timer_input_capture_config)
    i.timer_interrupt_enable                 0x0800391a   Section        0  gd32f30x_timer.o(i.timer_interrupt_enable)
    i.timer_interrupt_flag_clear             0x08003922   Section        0  gd32f30x_timer.o(i.timer_interrupt_flag_clear)
    i.timer_interrupt_flag_get               0x08003928   Section        0  gd32f30x_timer.o(i.timer_interrupt_flag_get)
    i.timer_primary_output_config            0x08003940   Section        0  gd32f30x_timer.o(i.timer_primary_output_config)
    i.timer_struct_para_init                 0x08003958   Section        0  gd32f30x_timer.o(i.timer_struct_para_init)
    i.usart_baudrate_set                     0x08003970   Section        0  gd32f30x_usart.o(i.usart_baudrate_set)
    i.usart_data_transmit                    0x08003a00   Section        0  gd32f30x_usart.o(i.usart_data_transmit)
    i.usart_deinit                           0x08003a08   Section        0  gd32f30x_usart.o(i.usart_deinit)
    i.usart_enable                           0x08003a98   Section        0  gd32f30x_usart.o(i.usart_enable)
    i.usart_flag_get                         0x08003aa2   Section        0  gd32f30x_usart.o(i.usart_flag_get)
    i.usart_interrupt_enable                 0x08003ac0   Section        0  gd32f30x_usart.o(i.usart_interrupt_enable)
    i.usart_parity_config                    0x08003ada   Section        0  gd32f30x_usart.o(i.usart_parity_config)
    i.usart_receive_config                   0x08003aea   Section        0  gd32f30x_usart.o(i.usart_receive_config)
    i.usart_stop_bit_set                     0x08003afe   Section        0  gd32f30x_usart.o(i.usart_stop_bit_set)
    i.usart_transmit_config                  0x08003b0e   Section        0  gd32f30x_usart.o(i.usart_transmit_config)
    i.usart_word_length_set                  0x08003b22   Section        0  gd32f30x_usart.o(i.usart_word_length_set)
    .constdata                               0x08003b38   Section       48  cos_i.o(.constdata)
    C                                        0x08003b38   Data          48  cos_i.o(.constdata)
    .constdata                               0x08003b68   Section      200  rred.o(.constdata)
    pio2s                                    0x08003b68   Data          48  rred.o(.constdata)
    twooverpi                                0x08003b98   Data         152  rred.o(.constdata)
    .constdata                               0x08003c30   Section       40  sin_i.o(.constdata)
    S                                        0x08003c30   Data          40  sin_i.o(.constdata)
    .constdata                               0x08003c58   Section       12  localtime_i.o(.constdata)
    monlen                                   0x08003c58   Data          12  localtime_i.o(.constdata)
    .data                                    0x20000000   Section        7  hmi_app.o(.data)
    irCode                                   0x20000000   Data           4  hmi_app.o(.data)
    irCodeFlag                               0x20000004   Data           1  hmi_app.o(.data)
    headFlag                                 0x20000005   Data           1  hmi_app.o(.data)
    index                                    0x20000006   Data           1  hmi_app.o(.data)
    .data                                    0x20000008   Section        4  infrared_drv.o(.data)
    .data                                    0x2000000c   Section       24  led_drv.o(.data)
    .data                                    0x20000024   Section       32  usb2com_drv.o(.data)
    .data                                    0x20000044   Section        2  delay.o(.data)
    g_fac_us                                 0x20000044   Data           2  delay.o(.data)
    .data                                    0x20000046   Section        2  timer_drv.o(.data)
    .data                                    0x20000048   Section        4  stdout.o(.data)
    .data                                    0x2000004c   Section        4  errno.o(.data)
    _errno                                   0x2000004c   Data           4  errno.o(.data)
    .bss                                     0x20000050   Section       44  localtime_w.o(.bss)
    _tms                                     0x20000050   Data          44  localtime_w.o(.bss)
    STACK                                    0x20000080   Section     1024  startup_gd32f30x_hd.o(STACK)

    Global Symbols

    Symbol Name                              Value     Ov Type        Size  Object(Section)

    BuildAttributes$$THM_ISAv4$E$P$D$K$B$S$7EM$VFPi3$EXTD16$VFPS$VFMA$PE$A:L22UL41UL21$X:L11$S22US41US21$IEEE1$IW$USESV6$~STKCKD$USESV7$~SHL$OTIME$ROPI$IEEEX$EBA8$MICROLIB$REQ8$PRES8$EABIv2 0x00000000   Number         0  anon$$obj.o ABSOLUTE
    __ARM_use_no_argv                        0x00000000   Number         0  main.o ABSOLUTE
    _printf_a                                0x00000000   Number         0  stubs.o ABSOLUTE
    _printf_c                                0x00000000   Number         0  stubs.o ABSOLUTE
    _printf_charcount                        0x00000000   Number         0  stubs.o ABSOLUTE
    _printf_d                                0x00000000   Number         0  stubs.o ABSOLUTE
    _printf_e                                0x00000000   Number         0  stubs.o ABSOLUTE
    _printf_f                                0x00000000   Number         0  stubs.o ABSOLUTE
    _printf_flags                            0x00000000   Number         0  stubs.o ABSOLUTE
    _printf_fp_dec                           0x00000000   Number         0  stubs.o ABSOLUTE
    _printf_fp_hex                           0x00000000   Number         0  stubs.o ABSOLUTE
    _printf_g                                0x00000000   Number         0  stubs.o ABSOLUTE
    _printf_i                                0x00000000   Number         0  stubs.o ABSOLUTE
    _printf_int_dec                          0x00000000   Number         0  stubs.o ABSOLUTE
    _printf_l                                0x00000000   Number         0  stubs.o ABSOLUTE
    _printf_lc                               0x00000000   Number         0  stubs.o ABSOLUTE
    _printf_ll                               0x00000000   Number         0  stubs.o ABSOLUTE
    _printf_lld                              0x00000000   Number         0  stubs.o ABSOLUTE
    _printf_lli                              0x00000000   Number         0  stubs.o ABSOLUTE
    _printf_llo                              0x00000000   Number         0  stubs.o ABSOLUTE
    _printf_llu                              0x00000000   Number         0  stubs.o ABSOLUTE
    _printf_llx                              0x00000000   Number         0  stubs.o ABSOLUTE
    _printf_longlong_dec                     0x00000000   Number         0  stubs.o ABSOLUTE
    _printf_longlong_hex                     0x00000000   Number         0  stubs.o ABSOLUTE
    _printf_longlong_oct                     0x00000000   Number         0  stubs.o ABSOLUTE
    _printf_ls                               0x00000000   Number         0  stubs.o ABSOLUTE
    _printf_mbtowc                           0x00000000   Number         0  stubs.o ABSOLUTE
    _printf_n                                0x00000000   Number         0  stubs.o ABSOLUTE
    _printf_o                                0x00000000   Number         0  stubs.o ABSOLUTE
    _printf_p                                0x00000000   Number         0  stubs.o ABSOLUTE
    _printf_percent                          0x00000000   Number         0  stubs.o ABSOLUTE
    _printf_pre_padding                      0x00000000   Number         0  stubs.o ABSOLUTE
    _printf_return_value                     0x00000000   Number         0  stubs.o ABSOLUTE
    _printf_s                                0x00000000   Number         0  stubs.o ABSOLUTE
    _printf_sizespec                         0x00000000   Number         0  stubs.o ABSOLUTE
    _printf_str                              0x00000000   Number         0  stubs.o ABSOLUTE
    _printf_truncate_signed                  0x00000000   Number         0  stubs.o ABSOLUTE
    _printf_truncate_unsigned                0x00000000   Number         0  stubs.o ABSOLUTE
    _printf_u                                0x00000000   Number         0  stubs.o ABSOLUTE
    _printf_wc                               0x00000000   Number         0  stubs.o ABSOLUTE
    _printf_wctomb                           0x00000000   Number         0  stubs.o ABSOLUTE
    _printf_widthprec                        0x00000000   Number         0  stubs.o ABSOLUTE
    _printf_x                                0x00000000   Number         0  stubs.o ABSOLUTE
    __cpp_initialize__aeabi_                  - Undefined Weak Reference
    __cxa_finalize                            - Undefined Weak Reference
    __decompress                              - Undefined Weak Reference
    _clock_init                               - Undefined Weak Reference
    _microlib_exit                            - Undefined Weak Reference
    __Vectors_Size                           0x00000130   Number         0  startup_gd32f30x_hd.o ABSOLUTE
    __Vectors                                0x08000000   Data           4  startup_gd32f30x_hd.o(RESET)
    __Vectors_End                            0x08000130   Data           0  startup_gd32f30x_hd.o(RESET)
    __main                                   0x08000131   Thumb Code     0  entry.o(.ARM.Collect$$$$00000000)
    _main_stk                                0x08000131   Thumb Code     0  entry2.o(.ARM.Collect$$$$00000001)
    _main_scatterload                        0x08000135   Thumb Code     0  entry5.o(.ARM.Collect$$$$00000004)
    __main_after_scatterload                 0x08000139   Thumb Code     0  entry5.o(.ARM.Collect$$$$00000004)
    _main_clock                              0x08000139   Thumb Code     0  entry7b.o(.ARM.Collect$$$$00000008)
    _main_cpp_init                           0x08000139   Thumb Code     0  entry8b.o(.ARM.Collect$$$$0000000A)
    _main_init                               0x08000139   Thumb Code     0  entry9a.o(.ARM.Collect$$$$0000000B)
    __rt_final_cpp                           0x08000141   Thumb Code     0  entry10a.o(.ARM.Collect$$$$0000000D)
    __rt_final_exit                          0x08000141   Thumb Code     0  entry11a.o(.ARM.Collect$$$$0000000F)
    Reset_Handler                            0x08000145   Thumb Code     8  startup_gd32f30x_hd.o(.text)
    NMI_Handler                              0x0800014d   Thumb Code     2  startup_gd32f30x_hd.o(.text)
    HardFault_Handler                        0x0800014f   Thumb Code     2  startup_gd32f30x_hd.o(.text)
    MemManage_Handler                        0x08000151   Thumb Code     2  startup_gd32f30x_hd.o(.text)
    BusFault_Handler                         0x08000153   Thumb Code     2  startup_gd32f30x_hd.o(.text)
    UsageFault_Handler                       0x08000155   Thumb Code     2  startup_gd32f30x_hd.o(.text)
    SVC_Handler                              0x08000157   Thumb Code     2  startup_gd32f30x_hd.o(.text)
    DebugMon_Handler                         0x08000159   Thumb Code     2  startup_gd32f30x_hd.o(.text)
    PendSV_Handler                           0x0800015b   Thumb Code     2  startup_gd32f30x_hd.o(.text)
    SysTick_Handler                          0x0800015d   Thumb Code     2  startup_gd32f30x_hd.o(.text)
    ADC0_1_IRQHandler                        0x0800015f   Thumb Code     0  startup_gd32f30x_hd.o(.text)
    ADC2_IRQHandler                          0x0800015f   Thumb Code     0  startup_gd32f30x_hd.o(.text)
    CAN0_EWMC_IRQHandler                     0x0800015f   Thumb Code     0  startup_gd32f30x_hd.o(.text)
    CAN0_RX1_IRQHandler                      0x0800015f   Thumb Code     0  startup_gd32f30x_hd.o(.text)
    DMA0_Channel0_IRQHandler                 0x0800015f   Thumb Code     0  startup_gd32f30x_hd.o(.text)
    DMA0_Channel1_IRQHandler                 0x0800015f   Thumb Code     0  startup_gd32f30x_hd.o(.text)
    DMA0_Channel2_IRQHandler                 0x0800015f   Thumb Code     0  startup_gd32f30x_hd.o(.text)
    DMA0_Channel3_IRQHandler                 0x0800015f   Thumb Code     0  startup_gd32f30x_hd.o(.text)
    DMA0_Channel4_IRQHandler                 0x0800015f   Thumb Code     0  startup_gd32f30x_hd.o(.text)
    DMA0_Channel5_IRQHandler                 0x0800015f   Thumb Code     0  startup_gd32f30x_hd.o(.text)
    DMA0_Channel6_IRQHandler                 0x0800015f   Thumb Code     0  startup_gd32f30x_hd.o(.text)
    DMA1_Channel0_IRQHandler                 0x0800015f   Thumb Code     0  startup_gd32f30x_hd.o(.text)
    DMA1_Channel1_IRQHandler                 0x0800015f   Thumb Code     0  startup_gd32f30x_hd.o(.text)
    DMA1_Channel2_IRQHandler                 0x0800015f   Thumb Code     0  startup_gd32f30x_hd.o(.text)
    DMA1_Channel3_4_IRQHandler               0x0800015f   Thumb Code     0  startup_gd32f30x_hd.o(.text)
    EXMC_IRQHandler                          0x0800015f   Thumb Code     0  startup_gd32f30x_hd.o(.text)
    EXTI0_IRQHandler                         0x0800015f   Thumb Code     0  startup_gd32f30x_hd.o(.text)
    EXTI10_15_IRQHandler                     0x0800015f   Thumb Code     0  startup_gd32f30x_hd.o(.text)
    EXTI1_IRQHandler                         0x0800015f   Thumb Code     0  startup_gd32f30x_hd.o(.text)
    EXTI2_IRQHandler                         0x0800015f   Thumb Code     0  startup_gd32f30x_hd.o(.text)
    EXTI3_IRQHandler                         0x0800015f   Thumb Code     0  startup_gd32f30x_hd.o(.text)
    EXTI4_IRQHandler                         0x0800015f   Thumb Code     0  startup_gd32f30x_hd.o(.text)
    EXTI5_9_IRQHandler                       0x0800015f   Thumb Code     0  startup_gd32f30x_hd.o(.text)
    FMC_IRQHandler                           0x0800015f   Thumb Code     0  startup_gd32f30x_hd.o(.text)
    I2C0_ER_IRQHandler                       0x0800015f   Thumb Code     0  startup_gd32f30x_hd.o(.text)
    I2C0_EV_IRQHandler                       0x0800015f   Thumb Code     0  startup_gd32f30x_hd.o(.text)
    I2C1_ER_IRQHandler                       0x0800015f   Thumb Code     0  startup_gd32f30x_hd.o(.text)
    I2C1_EV_IRQHandler                       0x0800015f   Thumb Code     0  startup_gd32f30x_hd.o(.text)
    LVD_IRQHandler                           0x0800015f   Thumb Code     0  startup_gd32f30x_hd.o(.text)
    RCU_CTC_IRQHandler                       0x0800015f   Thumb Code     0  startup_gd32f30x_hd.o(.text)
    RTC_Alarm_IRQHandler                     0x0800015f   Thumb Code     0  startup_gd32f30x_hd.o(.text)
    RTC_IRQHandler                           0x0800015f   Thumb Code     0  startup_gd32f30x_hd.o(.text)
    SDIO_IRQHandler                          0x0800015f   Thumb Code     0  startup_gd32f30x_hd.o(.text)
    SPI0_IRQHandler                          0x0800015f   Thumb Code     0  startup_gd32f30x_hd.o(.text)
    SPI1_IRQHandler                          0x0800015f   Thumb Code     0  startup_gd32f30x_hd.o(.text)
    SPI2_IRQHandler                          0x0800015f   Thumb Code     0  startup_gd32f30x_hd.o(.text)
    TAMPER_IRQHandler                        0x0800015f   Thumb Code     0  startup_gd32f30x_hd.o(.text)
    TIMER0_BRK_IRQHandler                    0x0800015f   Thumb Code     0  startup_gd32f30x_hd.o(.text)
    TIMER0_Channel_IRQHandler                0x0800015f   Thumb Code     0  startup_gd32f30x_hd.o(.text)
    TIMER0_TRG_CMT_IRQHandler                0x0800015f   Thumb Code     0  startup_gd32f30x_hd.o(.text)
    TIMER0_UP_IRQHandler                     0x0800015f   Thumb Code     0  startup_gd32f30x_hd.o(.text)
    TIMER2_IRQHandler                        0x0800015f   Thumb Code     0  startup_gd32f30x_hd.o(.text)
    TIMER3_IRQHandler                        0x0800015f   Thumb Code     0  startup_gd32f30x_hd.o(.text)
    TIMER4_IRQHandler                        0x0800015f   Thumb Code     0  startup_gd32f30x_hd.o(.text)
    TIMER5_IRQHandler                        0x0800015f   Thumb Code     0  startup_gd32f30x_hd.o(.text)
    TIMER6_IRQHandler                        0x0800015f   Thumb Code     0  startup_gd32f30x_hd.o(.text)
    TIMER7_BRK_IRQHandler                    0x0800015f   Thumb Code     0  startup_gd32f30x_hd.o(.text)
    TIMER7_Channel_IRQHandler                0x0800015f   Thumb Code     0  startup_gd32f30x_hd.o(.text)
    TIMER7_TRG_CMT_IRQHandler                0x0800015f   Thumb Code     0  startup_gd32f30x_hd.o(.text)
    TIMER7_UP_IRQHandler                     0x0800015f   Thumb Code     0  startup_gd32f30x_hd.o(.text)
    UART3_IRQHandler                         0x0800015f   Thumb Code     0  startup_gd32f30x_hd.o(.text)
    UART4_IRQHandler                         0x0800015f   Thumb Code     0  startup_gd32f30x_hd.o(.text)
    USART0_IRQHandler                        0x0800015f   Thumb Code     0  startup_gd32f30x_hd.o(.text)
    USART1_IRQHandler                        0x0800015f   Thumb Code     0  startup_gd32f30x_hd.o(.text)
    USART2_IRQHandler                        0x0800015f   Thumb Code     0  startup_gd32f30x_hd.o(.text)
    USBD_HP_CAN0_TX_IRQHandler               0x0800015f   Thumb Code     0  startup_gd32f30x_hd.o(.text)
    USBD_LP_CAN0_RX0_IRQHandler              0x0800015f   Thumb Code     0  startup_gd32f30x_hd.o(.text)
    USBD_WKUP_IRQHandler                     0x0800015f   Thumb Code     0  startup_gd32f30x_hd.o(.text)
    WWDGT_IRQHandler                         0x0800015f   Thumb Code     0  startup_gd32f30x_hd.o(.text)
    __aeabi_dmul                             0x08000169   Thumb Code   228  dmul.o(.text)
    __aeabi_ddiv                             0x0800024d   Thumb Code   222  ddiv.o(.text)
    __aeabi_ui2d                             0x0800032b   Thumb Code    26  dfltui.o(.text)
    __aeabi_d2uiz                            0x08000345   Thumb Code    50  dfixui.o(.text)
    __aeabi_f2d                              0x08000377   Thumb Code    38  f2d.o(.text)
    __aeabi_cdrcmple                         0x0800039d   Thumb Code    48  cdrcmple.o(.text)
    __aeabi_uidiv                            0x080003cd   Thumb Code     0  uidiv.o(.text)
    __aeabi_uidivmod                         0x080003cd   Thumb Code    44  uidiv.o(.text)
    __aeabi_uldivmod                         0x080003f9   Thumb Code    98  uldiv.o(.text)
    __aeabi_llsr                             0x0800045b   Thumb Code    32  llushr.o(.text)
    _ll_ushift_r                             0x0800045b   Thumb Code     0  llushr.o(.text)
    localtime                                0x0800047d   Thumb Code     6  localtime_w.o(.text)
    _localtime                               0x08000489   Thumb Code   134  localtime_i.o(.text)
    __I$use$fp                               0x08000515   Thumb Code     0  iusefp.o(.text)
    _double_round                            0x08000515   Thumb Code    30  depilogue.o(.text)
    _double_epilogue                         0x08000533   Thumb Code   156  depilogue.o(.text)
    __aeabi_dadd                             0x080005cf   Thumb Code   322  dadd.o(.text)
    __aeabi_dsub                             0x08000711   Thumb Code     6  dadd.o(.text)
    __aeabi_drsub                            0x08000717   Thumb Code     6  dadd.o(.text)
    __aeabi_d2ulz                            0x0800071d   Thumb Code    48  dfixul.o(.text)
    __scatterload                            0x0800074d   Thumb Code    28  init.o(.text)
    __scatterload_rt2                        0x0800074d   Thumb Code     0  init.o(.text)
    __aeabi_llsl                             0x08000771   Thumb Code    30  llshl.o(.text)
    _ll_shift_l                              0x08000771   Thumb Code     0  llshl.o(.text)
    __aeabi_lasr                             0x0800078f   Thumb Code    36  llsshr.o(.text)
    _ll_sshift_r                             0x0800078f   Thumb Code     0  llsshr.o(.text)
    __aeabi_i2d                              0x080007b3   Thumb Code    34  dflti.o(.text)
    __aeabi_d2iz                             0x080007d5   Thumb Code    62  dfixi.o(.text)
    AT24CXX_Read                             0x08000813   Thumb Code    34  at24cxx_drv.o(i.AT24CXX_Read)
    AT24CXX_ReadOneByte                      0x08000835   Thumb Code    82  at24cxx_drv.o(i.AT24CXX_ReadOneByte)
    AT24CXX_Write                            0x08000887   Thumb Code    36  at24cxx_drv.o(i.AT24CXX_Write)
    AT24CXX_WriteOneByte                     0x080008ab   Thumb Code    80  at24cxx_drv.o(i.AT24CXX_WriteOneByte)
    AT24CxxDrvInit                           0x080008fb   Thumb Code     8  at24cxx_drv.o(i.AT24CxxDrvInit)
    AdcDrvInit                               0x08000969   Thumb Code    12  adc_drv.o(i.AdcDrvInit)
    AdcDrvTest                               0x08000975   Thumb Code   132  adc_drv.o(i.AdcDrvTest)
    At24cxxDrvTest                           0x08000a71   Thumb Code   140  at24cxx_drv.o(i.At24cxxDrvTest)
    GetIrCode                                0x08000b8d   Thumb Code    28  hmi_app.o(i.GetIrCode)
    GetRtcTime                               0x08000bb1   Thumb Code    54  rtc_drv.o(i.GetRtcTime)
    Get_Adc_Average                          0x08000be7   Thumb Code    40  adc_drv.o(i.Get_Adc_Average)
    HmiAppInit                               0x08000c49   Thumb Code    10  hmi_app.o(i.HmiAppInit)
    IIC_Ack                                  0x08000c59   Thumb Code    64  i2c_drv.o(i.IIC_Ack)
    IIC_Init                                 0x08000c9d   Thumb Code    44  i2c_drv.o(i.IIC_Init)
    IIC_NAck                                 0x08000ccd   Thumb Code    48  i2c_drv.o(i.IIC_NAck)
    IIC_Read_Byte                            0x08000d01   Thumb Code    84  i2c_drv.o(i.IIC_Read_Byte)
    IIC_Send_Byte                            0x08000d59   Thumb Code    74  i2c_drv.o(i.IIC_Send_Byte)
    IIC_Start                                0x08000da9   Thumb Code    60  i2c_drv.o(i.IIC_Start)
    IIC_Stop                                 0x08000de9   Thumb Code    48  i2c_drv.o(i.IIC_Stop)
    IIC_Wait_Ack                             0x08000e1d   Thumb Code    88  i2c_drv.o(i.IIC_Wait_Ack)
    InfraredDrvInit                          0x08000e83   Thumb Code    18  infrared_drv.o(i.InfraredDrvInit)
    InfraredDrvTest                          0x08000e95   Thumb Code   156  hmi_app.o(i.InfraredDrvTest)
    LedDrvInit                               0x08000fdd   Thumb Code    86  led_drv.o(i.LedDrvInit)
    PwmDrvTest                               0x0800112d   Thumb Code   134  timer_drv.o(i.PwmDrvTest)
    PwmUpdatePropor                          0x080011c9   Thumb Code   100  timer_drv.o(i.PwmUpdatePropor)
    RtcDrvInit                               0x08001235   Thumb Code   140  rtc_drv.o(i.RtcDrvInit)
    RtcDrvTest                               0x080012c5   Thumb Code    50  rtc_drv.o(i.RtcDrvTest)
    SystemInit                               0x08001325   Thumb Code   156  system_gd32f30x.o(i.SystemInit)
    TIMER1_IRQHandler                        0x080013cd   Thumb Code    58  infrared_drv.o(i.TIMER1_IRQHandler)
    TimerDrvInit                             0x0800147d   Thumb Code    18  timer_drv.o(i.TimerDrvInit)
    TurnOffLed                               0x080014b1   Thumb Code    40  led_drv.o(i.TurnOffLed)
    TurnOnLed                                0x080014dd   Thumb Code    40  led_drv.o(i.TurnOnLed)
    Usb2ComDrvInit                           0x08001509   Thumb Code    16  usb2com_drv.o(i.Usb2ComDrvInit)
    __0printf                                0x080015ad   Thumb Code    22  printfa.o(i.__0printf)
    __1printf                                0x080015ad   Thumb Code     0  printfa.o(i.__0printf)
    __2printf                                0x080015ad   Thumb Code     0  printfa.o(i.__0printf)
    __c89printf                              0x080015ad   Thumb Code     0  printfa.o(i.__0printf)
    printf                                   0x080015ad   Thumb Code     0  printfa.o(i.__0printf)
    __ARM_fpclassify                         0x080015cd   Thumb Code    48  fpclassify.o(i.__ARM_fpclassify)
    __hardfp_sin                             0x08001601   Thumb Code   180  sin.o(i.__hardfp_sin)
    __ieee754_rem_pio2                       0x080016c9   Thumb Code   938  rred.o(i.__ieee754_rem_pio2)
    __kernel_cos                             0x08001b01   Thumb Code   322  cos_i.o(i.__kernel_cos)
    __kernel_poly                            0x08001c71   Thumb Code   248  poly.o(i.__kernel_poly)
    __kernel_sin                             0x08001d69   Thumb Code   280  sin_i.o(i.__kernel_sin)
    __mathlib_dbl_infnan                     0x08001e99   Thumb Code    20  dunder.o(i.__mathlib_dbl_infnan)
    __mathlib_dbl_invalid                    0x08001eb1   Thumb Code    24  dunder.o(i.__mathlib_dbl_invalid)
    __mathlib_dbl_underflow                  0x08001ed1   Thumb Code    24  dunder.o(i.__mathlib_dbl_underflow)
    __scatterload_copy                       0x08001ef1   Thumb Code    14  handlers.o(i.__scatterload_copy)
    __scatterload_null                       0x08001eff   Thumb Code     2  handlers.o(i.__scatterload_null)
    __scatterload_zeroinit                   0x08001f01   Thumb Code    14  handlers.o(i.__scatterload_zeroinit)
    __set_errno                              0x08001f11   Thumb Code     6  errno.o(i.__set_errno)
    adc_calibration_enable                   0x080027cf   Thumb Code    42  gd32f30x_adc.o(i.adc_calibration_enable)
    adc_data_alignment_config                0x080027f9   Thumb Code    22  gd32f30x_adc.o(i.adc_data_alignment_config)
    adc_deinit                               0x08002811   Thumb Code    84  gd32f30x_adc.o(i.adc_deinit)
    adc_enable                               0x08002869   Thumb Code    18  gd32f30x_adc.o(i.adc_enable)
    adc_external_trigger_config              0x0800287b   Thumb Code    62  gd32f30x_adc.o(i.adc_external_trigger_config)
    adc_external_trigger_source_config       0x080028b9   Thumb Code    48  gd32f30x_adc.o(i.adc_external_trigger_source_config)
    adc_flag_get                             0x080028e9   Thumb Code    14  gd32f30x_adc.o(i.adc_flag_get)
    adc_mode_config                          0x080028f9   Thumb Code    22  gd32f30x_adc.o(i.adc_mode_config)
    adc_regular_channel_config               0x08002915   Thumb Code   172  gd32f30x_adc.o(i.adc_regular_channel_config)
    adc_regular_data_read                    0x080029c1   Thumb Code     8  gd32f30x_adc.o(i.adc_regular_data_read)
    adc_software_trigger_enable              0x080029c9   Thumb Code    30  gd32f30x_adc.o(i.adc_software_trigger_enable)
    adc_special_function_config              0x080029e7   Thumb Code    90  gd32f30x_adc.o(i.adc_special_function_config)
    bkp_deinit                               0x08002a41   Thumb Code    12  gd32f30x_bkp.o(i.bkp_deinit)
    bkp_read_data                            0x08002a4d   Thumb Code    50  gd32f30x_bkp.o(i.bkp_read_data)
    bkp_write_data                           0x08002a85   Thumb Code    46  gd32f30x_bkp.o(i.bkp_write_data)
    delay_init                               0x08002ab9   Thumb Code    74  delay.o(i.delay_init)
    delay_ms                                 0x08002b11   Thumb Code    50  delay.o(i.delay_ms)
    delay_us                                 0x08002b49   Thumb Code    72  delay.o(i.delay_us)
    fabs                                     0x08002b95   Thumb Code    24  fabs.o(i.fabs)
    fputc                                    0x08002bad   Thumb Code    36  usb2com_drv.o(i.fputc)
    gpio_bit_reset                           0x08002bd5   Thumb Code     4  gd32f30x_gpio.o(i.gpio_bit_reset)
    gpio_bit_set                             0x08002bd9   Thumb Code     4  gd32f30x_gpio.o(i.gpio_bit_set)
    gpio_bit_write                           0x08002bdd   Thumb Code    10  gd32f30x_gpio.o(i.gpio_bit_write)
    gpio_init                                0x08002be7   Thumb Code   188  gd32f30x_gpio.o(i.gpio_init)
    gpio_input_bit_get                       0x08002ca3   Thumb Code    16  gd32f30x_gpio.o(i.gpio_input_bit_get)
    main                                     0x08002cb3   Thumb Code    16  main.o(i.main)
    nvic_irq_enable                          0x08002cc5   Thumb Code   186  gd32f30x_misc.o(i.nvic_irq_enable)
    nvic_priority_group_set                  0x08002d89   Thumb Code    10  gd32f30x_misc.o(i.nvic_priority_group_set)
    pmu_backup_write_enable                  0x08002d9d   Thumb Code    14  gd32f30x_pmu.o(i.pmu_backup_write_enable)
    rcu_adc_clock_config                     0x08002db1   Thumb Code    98  gd32f30x_rcu.o(i.rcu_adc_clock_config)
    rcu_bkp_reset_disable                    0x08002e1d   Thumb Code    14  gd32f30x_rcu.o(i.rcu_bkp_reset_disable)
    rcu_bkp_reset_enable                     0x08002e31   Thumb Code    14  gd32f30x_rcu.o(i.rcu_bkp_reset_enable)
    rcu_clock_freq_get                       0x08002e45   Thumb Code   310  gd32f30x_rcu.o(i.rcu_clock_freq_get)
    rcu_flag_get                             0x08002f9d   Thumb Code    30  gd32f30x_rcu.o(i.rcu_flag_get)
    rcu_osci_on                              0x08002fc1   Thumb Code    28  gd32f30x_rcu.o(i.rcu_osci_on)
    rcu_osci_stab_wait                       0x08002fe1   Thumb Code   268  gd32f30x_rcu.o(i.rcu_osci_stab_wait)
    rcu_periph_clock_enable                  0x080030f1   Thumb Code    28  gd32f30x_rcu.o(i.rcu_periph_clock_enable)
    rcu_periph_reset_disable                 0x08003111   Thumb Code    28  gd32f30x_rcu.o(i.rcu_periph_reset_disable)
    rcu_periph_reset_enable                  0x08003131   Thumb Code    28  gd32f30x_rcu.o(i.rcu_periph_reset_enable)
    rcu_rtc_clock_config                     0x08003151   Thumb Code    18  gd32f30x_rcu.o(i.rcu_rtc_clock_config)
    regParaIrFrame                           0x08003169   Thumb Code     8  infrared_drv.o(i.regParaIrFrame)
    rtc_configuration_mode_enter             0x08003175   Thumb Code    14  gd32f30x_rtc.o(i.rtc_configuration_mode_enter)
    rtc_configuration_mode_exit              0x08003189   Thumb Code    14  gd32f30x_rtc.o(i.rtc_configuration_mode_exit)
    rtc_counter_get                          0x0800319d   Thumb Code    16  gd32f30x_rtc.o(i.rtc_counter_get)
    rtc_counter_set                          0x080031b1   Thumb Code    26  gd32f30x_rtc.o(i.rtc_counter_set)
    rtc_lwoff_wait                           0x080031d1   Thumb Code    16  gd32f30x_rtc.o(i.rtc_lwoff_wait)
    rtc_prescaler_set                        0x080031e5   Thumb Code    28  gd32f30x_rtc.o(i.rtc_prescaler_set)
    rtc_register_sync_wait                   0x08003205   Thumb Code    28  gd32f30x_rtc.o(i.rtc_register_sync_wait)
    timer_channel_capture_value_register_read 0x08003341   Thumb Code    42  gd32f30x_timer.o(i.timer_channel_capture_value_register_read)
    timer_channel_input_capture_prescaler_config 0x0800336b   Thumb Code    90  gd32f30x_timer.o(i.timer_channel_input_capture_prescaler_config)
    timer_channel_input_struct_para_init     0x080033c5   Thumb Code    16  gd32f30x_timer.o(i.timer_channel_input_struct_para_init)
    timer_channel_output_config              0x080033d5   Thumb Code   484  gd32f30x_timer.o(i.timer_channel_output_config)
    timer_channel_output_mode_config         0x080035c1   Thumb Code    90  gd32f30x_timer.o(i.timer_channel_output_mode_config)
    timer_channel_output_pulse_value_config  0x0800361b   Thumb Code    38  gd32f30x_timer.o(i.timer_channel_output_pulse_value_config)
    timer_channel_output_struct_para_init    0x08003641   Thumb Code    16  gd32f30x_timer.o(i.timer_channel_output_struct_para_init)
    timer_counter_value_config               0x08003651   Thumb Code     4  gd32f30x_timer.o(i.timer_counter_value_config)
    timer_deinit                             0x08003655   Thumb Code   210  gd32f30x_timer.o(i.timer_deinit)
    timer_enable                             0x08003731   Thumb Code    10  gd32f30x_timer.o(i.timer_enable)
    timer_init                               0x0800373d   Thumb Code   122  gd32f30x_timer.o(i.timer_init)
    timer_input_capture_config               0x080037d5   Thumb Code   326  gd32f30x_timer.o(i.timer_input_capture_config)
    timer_interrupt_enable                   0x0800391b   Thumb Code     8  gd32f30x_timer.o(i.timer_interrupt_enable)
    timer_interrupt_flag_clear               0x08003923   Thumb Code     6  gd32f30x_timer.o(i.timer_interrupt_flag_clear)
    timer_interrupt_flag_get                 0x08003929   Thumb Code    24  gd32f30x_timer.o(i.timer_interrupt_flag_get)
    timer_primary_output_config              0x08003941   Thumb Code    24  gd32f30x_timer.o(i.timer_primary_output_config)
    timer_struct_para_init                   0x08003959   Thumb Code    22  gd32f30x_timer.o(i.timer_struct_para_init)
    usart_baudrate_set                       0x08003971   Thumb Code   136  gd32f30x_usart.o(i.usart_baudrate_set)
    usart_data_transmit                      0x08003a01   Thumb Code     8  gd32f30x_usart.o(i.usart_data_transmit)
    usart_deinit                             0x08003a09   Thumb Code   136  gd32f30x_usart.o(i.usart_deinit)
    usart_enable                             0x08003a99   Thumb Code    10  gd32f30x_usart.o(i.usart_enable)
    usart_flag_get                           0x08003aa3   Thumb Code    30  gd32f30x_usart.o(i.usart_flag_get)
    usart_interrupt_enable                   0x08003ac1   Thumb Code    26  gd32f30x_usart.o(i.usart_interrupt_enable)
    usart_parity_config                      0x08003adb   Thumb Code    16  gd32f30x_usart.o(i.usart_parity_config)
    usart_receive_config                     0x08003aeb   Thumb Code    20  gd32f30x_usart.o(i.usart_receive_config)
    usart_stop_bit_set                       0x08003aff   Thumb Code    16  gd32f30x_usart.o(i.usart_stop_bit_set)
    usart_transmit_config                    0x08003b0f   Thumb Code    20  gd32f30x_usart.o(i.usart_transmit_config)
    usart_word_length_set                    0x08003b23   Thumb Code    16  gd32f30x_usart.o(i.usart_word_length_set)
    Region$$Table$$Base                      0x08003c64   Number         0  anon$$obj.o(Region$$Table)
    Region$$Table$$Limit                     0x08003c84   Number         0  anon$$obj.o(Region$$Table)
    paraIrFrame                              0x20000008   Data           4  infrared_drv.o(.data)
    g_gpioList                               0x2000000c   Data          24  led_drv.o(.data)
    g_Usb2comUart0                           0x20000024   Data          32  usb2com_drv.o(.data)
    pValue                                   0x20000046   Data           2  timer_drv.o(.data)
    __stdout                                 0x20000048   Data           4  stdout.o(.data)
    __initial_sp                             0x20000480   Data           0  startup_gd32f30x_hd.o(STACK)



==============================================================================

Memory Map of the image

  Image Entry point : 0x08000131

  Load Region LR_IROM1 (Base: 0x08000000, Size: 0x00003cd4, Max: 0x00040000, ABSOLUTE)

    Execution Region ER_IROM1 (Exec base: 0x08000000, Load base: 0x08000000, Size: 0x00003c84, Max: 0x00040000, ABSOLUTE)

    Exec Addr    Load Addr    Size         Type   Attr      Idx    E Section Name        Object

    0x08000000   0x08000000   0x00000130   Data   RO          653    RESET               startup_gd32f30x_hd.o
    0x08000130   0x08000130   0x00000000   Code   RO         2881  * .ARM.Collect$$$$00000000  mc_w.l(entry.o)
    0x08000130   0x08000130   0x00000004   Code   RO         3192    .ARM.Collect$$$$00000001  mc_w.l(entry2.o)
    0x08000134   0x08000134   0x00000004   Code   RO         3195    .ARM.Collect$$$$00000004  mc_w.l(entry5.o)
    0x08000138   0x08000138   0x00000000   Code   RO         3197    .ARM.Collect$$$$00000008  mc_w.l(entry7b.o)
    0x08000138   0x08000138   0x00000000   Code   RO         3199    .ARM.Collect$$$$0000000A  mc_w.l(entry8b.o)
    0x08000138   0x08000138   0x00000008   Code   RO         3200    .ARM.Collect$$$$0000000B  mc_w.l(entry9a.o)
    0x08000140   0x08000140   0x00000000   Code   RO         3202    .ARM.Collect$$$$0000000D  mc_w.l(entry10a.o)
    0x08000140   0x08000140   0x00000000   Code   RO         3204    .ARM.Collect$$$$0000000F  mc_w.l(entry11a.o)
    0x08000140   0x08000140   0x00000004   Code   RO         3193    .ARM.Collect$$$$00002712  mc_w.l(entry2.o)
    0x08000144   0x08000144   0x00000024   Code   RO          654    .text               startup_gd32f30x_hd.o
    0x08000168   0x08000168   0x000000e4   Code   RO         3152    .text               mf_w.l(dmul.o)
    0x0800024c   0x0800024c   0x000000de   Code   RO         3154    .text               mf_w.l(ddiv.o)
    0x0800032a   0x0800032a   0x0000001a   Code   RO         3156    .text               mf_w.l(dfltui.o)
    0x08000344   0x08000344   0x00000032   Code   RO         3158    .text               mf_w.l(dfixui.o)
    0x08000376   0x08000376   0x00000026   Code   RO         3160    .text               mf_w.l(f2d.o)
    0x0800039c   0x0800039c   0x00000030   Code   RO         3162    .text               mf_w.l(cdrcmple.o)
    0x080003cc   0x080003cc   0x0000002c   Code   RO         3207    .text               mc_w.l(uidiv.o)
    0x080003f8   0x080003f8   0x00000062   Code   RO         3209    .text               mc_w.l(uldiv.o)
    0x0800045a   0x0800045a   0x00000020   Code   RO         3211    .text               mc_w.l(llushr.o)
    0x0800047a   0x0800047a   0x00000002   PAD
    0x0800047c   0x0800047c   0x0000000c   Code   RO         3213    .text               mc_w.l(localtime_w.o)
    0x08000488   0x08000488   0x0000008c   Code   RO         3216    .text               mc_w.l(localtime_i.o)
    0x08000514   0x08000514   0x00000000   Code   RO         3226    .text               mc_w.l(iusefp.o)
    0x08000514   0x08000514   0x000000ba   Code   RO         3227    .text               mf_w.l(depilogue.o)
    0x080005ce   0x080005ce   0x0000014e   Code   RO         3229    .text               mf_w.l(dadd.o)
    0x0800071c   0x0800071c   0x00000030   Code   RO         3233    .text               mf_w.l(dfixul.o)
    0x0800074c   0x0800074c   0x00000024   Code   RO         3245    .text               mc_w.l(init.o)
    0x08000770   0x08000770   0x0000001e   Code   RO         3247    .text               mc_w.l(llshl.o)
    0x0800078e   0x0800078e   0x00000024   Code   RO         3249    .text               mc_w.l(llsshr.o)
    0x080007b2   0x080007b2   0x00000022   Code   RO         3251    .text               mf_w.l(dflti.o)
    0x080007d4   0x080007d4   0x0000003e   Code   RO         3253    .text               mf_w.l(dfixi.o)
    0x08000812   0x08000812   0x00000022   Code   RO          585    i.AT24CXX_Read      at24cxx_drv.o
    0x08000834   0x08000834   0x00000052   Code   RO          587    i.AT24CXX_ReadOneByte  at24cxx_drv.o
    0x08000886   0x08000886   0x00000024   Code   RO          588    i.AT24CXX_Write     at24cxx_drv.o
    0x080008aa   0x080008aa   0x00000050   Code   RO          590    i.AT24CXX_WriteOneByte  at24cxx_drv.o
    0x080008fa   0x080008fa   0x00000008   Code   RO          591    i.AT24CxxDrvInit    at24cxx_drv.o
    0x08000902   0x08000902   0x00000002   PAD
    0x08000904   0x08000904   0x00000064   Code   RO          414    i.AdcConfigInit     adc_drv.o
    0x08000968   0x08000968   0x0000000c   Code   RO          415    i.AdcDrvInit        adc_drv.o
    0x08000974   0x08000974   0x000000b0   Code   RO          416    i.AdcDrvTest        adc_drv.o
    0x08000a24   0x08000a24   0x0000001c   Code   RO          417    i.AdcGpioInit       adc_drv.o
    0x08000a40   0x08000a40   0x00000008   Code   RO            1    i.AllAppInit        main.o
    0x08000a48   0x08000a48   0x00000026   Code   RO            2    i.AllDrvInit        main.o
    0x08000a6e   0x08000a6e   0x00000002   PAD
    0x08000a70   0x08000a70   0x0000011c   Code   RO          592    i.At24cxxDrvTest    at24cxx_drv.o
    0x08000b8c   0x08000b8c   0x00000024   Code   RO           55    i.GetIrCode         hmi_app.o
    0x08000bb0   0x08000bb0   0x00000036   Code   RO          468    i.GetRtcTime        rtc_drv.o
    0x08000be6   0x08000be6   0x00000028   Code   RO          418    i.Get_Adc_Average   adc_drv.o
    0x08000c0e   0x08000c0e   0x00000002   PAD
    0x08000c10   0x08000c10   0x00000038   Code   RO          419    i.Get_Adc_Value     adc_drv.o
    0x08000c48   0x08000c48   0x00000010   Code   RO           56    i.HmiAppInit        hmi_app.o
    0x08000c58   0x08000c58   0x00000044   Code   RO          516    i.IIC_Ack           i2c_drv.o
    0x08000c9c   0x08000c9c   0x00000030   Code   RO          517    i.IIC_Init          i2c_drv.o
    0x08000ccc   0x08000ccc   0x00000034   Code   RO          518    i.IIC_NAck          i2c_drv.o
    0x08000d00   0x08000d00   0x00000058   Code   RO          519    i.IIC_Read_Byte     i2c_drv.o
    0x08000d58   0x08000d58   0x00000050   Code   RO          520    i.IIC_Send_Byte     i2c_drv.o
    0x08000da8   0x08000da8   0x00000040   Code   RO          521    i.IIC_Start         i2c_drv.o
    0x08000de8   0x08000de8   0x00000034   Code   RO          522    i.IIC_Stop          i2c_drv.o
    0x08000e1c   0x08000e1c   0x0000005c   Code   RO          523    i.IIC_Wait_Ack      i2c_drv.o
    0x08000e78   0x08000e78   0x0000000a   Code   RO          524    i.IIC_delay         i2c_drv.o
    0x08000e82   0x08000e82   0x00000012   Code   RO           95    i.InfraredDrvInit   infrared_drv.o
    0x08000e94   0x08000e94   0x000000bc   Code   RO           57    i.InfraredDrvTest   hmi_app.o
    0x08000f50   0x08000f50   0x0000001c   Code   RO           96    i.InfraredGpioInit  infrared_drv.o
    0x08000f6c   0x08000f6c   0x00000070   Code   RO           97    i.InfraredTimerInit  infrared_drv.o
    0x08000fdc   0x08000fdc   0x0000005c   Code   RO          240    i.LedDrvInit        led_drv.o
    0x08001038   0x08001038   0x000000f4   Code   RO           58    i.ParaIrFrame       hmi_app.o
    0x0800112c   0x0800112c   0x0000009c   Code   RO          365    i.PwmDrvTest        timer_drv.o
    0x080011c8   0x080011c8   0x0000006c   Code   RO          366    i.PwmUpdatePropor   timer_drv.o
    0x08001234   0x08001234   0x00000090   Code   RO          469    i.RtcDrvInit        rtc_drv.o
    0x080012c4   0x080012c4   0x00000060   Code   RO          470    i.RtcDrvTest        rtc_drv.o
    0x08001324   0x08001324   0x000000a8   Code   RO          661    i.SystemInit        system_gd32f30x.o
    0x080013cc   0x080013cc   0x00000040   Code   RO           98    i.TIMER1_IRQHandler  infrared_drv.o
    0x0800140c   0x0800140c   0x00000070   Code   RO          367    i.TimeInit          timer_drv.o
    0x0800147c   0x0800147c   0x00000012   Code   RO          368    i.TimerDrvInit      timer_drv.o
    0x0800148e   0x0800148e   0x00000002   PAD
    0x08001490   0x08001490   0x00000020   Code   RO          369    i.TimerGpioInit     timer_drv.o
    0x080014b0   0x080014b0   0x0000002c   Code   RO          242    i.TurnOffLed        led_drv.o
    0x080014dc   0x080014dc   0x0000002c   Code   RO          243    i.TurnOnLed         led_drv.o
    0x08001508   0x08001508   0x00000010   Code   RO          281    i.Usb2ComDrvInit    usb2com_drv.o
    0x08001518   0x08001518   0x0000002c   Code   RO          282    i.Usb2ComGpioInit   usb2com_drv.o
    0x08001544   0x08001544   0x00000068   Code   RO          283    i.Usb2ComUartInit   usb2com_drv.o
    0x080015ac   0x080015ac   0x00000020   Code   RO         3124    i.__0printf         mc_w.l(printfa.o)
    0x080015cc   0x080015cc   0x00000030   Code   RO         3241    i.__ARM_fpclassify  m_wm.l(fpclassify.o)
    0x080015fc   0x080015fc   0x00000004   PAD
    0x08001600   0x08001600   0x000000c8   Code   RO         2869    i.__hardfp_sin      m_wm.l(sin.o)
    0x080016c8   0x080016c8   0x00000438   Code   RO         3181    i.__ieee754_rem_pio2  m_wm.l(rred.o)
    0x08001b00   0x08001b00   0x00000170   Code   RO         3164    i.__kernel_cos      m_wm.l(cos_i.o)
    0x08001c70   0x08001c70   0x000000f8   Code   RO         3243    i.__kernel_poly     m_wm.l(poly.o)
    0x08001d68   0x08001d68   0x00000130   Code   RO         3186    i.__kernel_sin      m_wm.l(sin_i.o)
    0x08001e98   0x08001e98   0x00000014   Code   RO         3168    i.__mathlib_dbl_infnan  m_wm.l(dunder.o)
    0x08001eac   0x08001eac   0x00000004   PAD
    0x08001eb0   0x08001eb0   0x00000020   Code   RO         3170    i.__mathlib_dbl_invalid  m_wm.l(dunder.o)
    0x08001ed0   0x08001ed0   0x00000020   Code   RO         3173    i.__mathlib_dbl_underflow  m_wm.l(dunder.o)
    0x08001ef0   0x08001ef0   0x0000000e   Code   RO         3257    i.__scatterload_copy  mc_w.l(handlers.o)
    0x08001efe   0x08001efe   0x00000002   Code   RO         3258    i.__scatterload_null  mc_w.l(handlers.o)
    0x08001f00   0x08001f00   0x0000000e   Code   RO         3259    i.__scatterload_zeroinit  mc_w.l(handlers.o)
    0x08001f0e   0x08001f0e   0x00000002   PAD
    0x08001f10   0x08001f10   0x0000000c   Code   RO         3221    i.__set_errno       mc_w.l(errno.o)
    0x08001f1c   0x08001f1c   0x00000184   Code   RO         3131    i._fp_digits        mc_w.l(printfa.o)
    0x080020a0   0x080020a0   0x000006dc   Code   RO         3132    i._printf_core      mc_w.l(printfa.o)
    0x0800277c   0x0800277c   0x00000024   Code   RO         3133    i._printf_post_padding  mc_w.l(printfa.o)
    0x080027a0   0x080027a0   0x0000002e   Code   RO         3134    i._printf_pre_padding  mc_w.l(printfa.o)
    0x080027ce   0x080027ce   0x0000002a   Code   RO         2166    i.adc_calibration_enable  gd32f30x_adc.o
    0x080027f8   0x080027f8   0x00000016   Code   RO         2168    i.adc_data_alignment_config  gd32f30x_adc.o
    0x0800280e   0x0800280e   0x00000002   PAD
    0x08002810   0x08002810   0x00000058   Code   RO         2169    i.adc_deinit        gd32f30x_adc.o
    0x08002868   0x08002868   0x00000012   Code   RO         2174    i.adc_enable        gd32f30x_adc.o
    0x0800287a   0x0800287a   0x0000003e   Code   RO         2175    i.adc_external_trigger_config  gd32f30x_adc.o
    0x080028b8   0x080028b8   0x00000030   Code   RO         2176    i.adc_external_trigger_source_config  gd32f30x_adc.o
    0x080028e8   0x080028e8   0x0000000e   Code   RO         2178    i.adc_flag_get      gd32f30x_adc.o
    0x080028f6   0x080028f6   0x00000002   PAD
    0x080028f8   0x080028f8   0x0000001c   Code   RO         2186    i.adc_mode_config   gd32f30x_adc.o
    0x08002914   0x08002914   0x000000ac   Code   RO         2190    i.adc_regular_channel_config  gd32f30x_adc.o
    0x080029c0   0x080029c0   0x00000008   Code   RO         2191    i.adc_regular_data_read  gd32f30x_adc.o
    0x080029c8   0x080029c8   0x0000001e   Code   RO         2193    i.adc_software_trigger_enable  gd32f30x_adc.o
    0x080029e6   0x080029e6   0x0000005a   Code   RO         2194    i.adc_special_function_config  gd32f30x_adc.o
    0x08002a40   0x08002a40   0x0000000c   Code   RO         2396    i.bkp_deinit        gd32f30x_bkp.o
    0x08002a4c   0x08002a4c   0x00000038   Code   RO         2401    i.bkp_read_data     gd32f30x_bkp.o
    0x08002a84   0x08002a84   0x00000034   Code   RO         2415    i.bkp_write_data    gd32f30x_bkp.o
    0x08002ab8   0x08002ab8   0x00000058   Code   RO          324    i.delay_init        delay.o
    0x08002b10   0x08002b10   0x00000038   Code   RO          325    i.delay_ms          delay.o
    0x08002b48   0x08002b48   0x0000004c   Code   RO          326    i.delay_us          delay.o
    0x08002b94   0x08002b94   0x00000018   Code   RO         3237    i.fabs              m_wm.l(fabs.o)
    0x08002bac   0x08002bac   0x00000028   Code   RO          284    i.fputc             usb2com_drv.o
    0x08002bd4   0x08002bd4   0x00000004   Code   RO         1036    i.gpio_bit_reset    gd32f30x_gpio.o
    0x08002bd8   0x08002bd8   0x00000004   Code   RO         1037    i.gpio_bit_set      gd32f30x_gpio.o
    0x08002bdc   0x08002bdc   0x0000000a   Code   RO         1038    i.gpio_bit_write    gd32f30x_gpio.o
    0x08002be6   0x08002be6   0x000000bc   Code   RO         1046    i.gpio_init         gd32f30x_gpio.o
    0x08002ca2   0x08002ca2   0x00000010   Code   RO         1047    i.gpio_input_bit_get  gd32f30x_gpio.o
    0x08002cb2   0x08002cb2   0x00000010   Code   RO            3    i.main              main.o
    0x08002cc2   0x08002cc2   0x00000002   PAD
    0x08002cc4   0x08002cc4   0x000000c4   Code   RO         2022    i.nvic_irq_enable   gd32f30x_misc.o
    0x08002d88   0x08002d88   0x00000014   Code   RO         2023    i.nvic_priority_group_set  gd32f30x_misc.o
    0x08002d9c   0x08002d9c   0x00000014   Code   RO         2534    i.pmu_backup_write_enable  gd32f30x_pmu.o
    0x08002db0   0x08002db0   0x0000006c   Code   RO          715    i.rcu_adc_clock_config  gd32f30x_rcu.o
    0x08002e1c   0x08002e1c   0x00000014   Code   RO          720    i.rcu_bkp_reset_disable  gd32f30x_rcu.o
    0x08002e30   0x08002e30   0x00000014   Code   RO          721    i.rcu_bkp_reset_enable  gd32f30x_rcu.o
    0x08002e44   0x08002e44   0x00000158   Code   RO          724    i.rcu_clock_freq_get  gd32f30x_rcu.o
    0x08002f9c   0x08002f9c   0x00000024   Code   RO          727    i.rcu_flag_get      gd32f30x_rcu.o
    0x08002fc0   0x08002fc0   0x00000020   Code   RO          739    i.rcu_osci_on       gd32f30x_rcu.o
    0x08002fe0   0x08002fe0   0x00000110   Code   RO          740    i.rcu_osci_stab_wait  gd32f30x_rcu.o
    0x080030f0   0x080030f0   0x00000020   Code   RO          742    i.rcu_periph_clock_enable  gd32f30x_rcu.o
    0x08003110   0x08003110   0x00000020   Code   RO          745    i.rcu_periph_reset_disable  gd32f30x_rcu.o
    0x08003130   0x08003130   0x00000020   Code   RO          746    i.rcu_periph_reset_enable  gd32f30x_rcu.o
    0x08003150   0x08003150   0x00000018   Code   RO          750    i.rcu_rtc_clock_config  gd32f30x_rcu.o
    0x08003168   0x08003168   0x0000000c   Code   RO           99    i.regParaIrFrame    infrared_drv.o
    0x08003174   0x08003174   0x00000014   Code   RO         1930    i.rtc_configuration_mode_enter  gd32f30x_rtc.o
    0x08003188   0x08003188   0x00000014   Code   RO         1931    i.rtc_configuration_mode_exit  gd32f30x_rtc.o
    0x0800319c   0x0800319c   0x00000014   Code   RO         1932    i.rtc_counter_get   gd32f30x_rtc.o
    0x080031b0   0x080031b0   0x00000020   Code   RO         1933    i.rtc_counter_set   gd32f30x_rtc.o
    0x080031d0   0x080031d0   0x00000014   Code   RO         1939    i.rtc_lwoff_wait    gd32f30x_rtc.o
    0x080031e4   0x080031e4   0x00000020   Code   RO         1940    i.rtc_prescaler_set  gd32f30x_rtc.o
    0x08003204   0x08003204   0x00000020   Code   RO         1941    i.rtc_register_sync_wait  gd32f30x_rtc.o
    0x08003224   0x08003224   0x00000114   Code   RO          662    i.system_clock_120m_hxtal  system_gd32f30x.o
    0x08003338   0x08003338   0x00000008   Code   RO          663    i.system_clock_config  system_gd32f30x.o
    0x08003340   0x08003340   0x0000002a   Code   RO         1178    i.timer_channel_capture_value_register_read  gd32f30x_timer.o
    0x0800336a   0x0800336a   0x0000005a   Code   RO         1184    i.timer_channel_input_capture_prescaler_config  gd32f30x_timer.o
    0x080033c4   0x080033c4   0x00000010   Code   RO         1185    i.timer_channel_input_struct_para_init  gd32f30x_timer.o
    0x080033d4   0x080033d4   0x000001ec   Code   RO         1187    i.timer_channel_output_config  gd32f30x_timer.o
    0x080035c0   0x080035c0   0x0000005a   Code   RO         1189    i.timer_channel_output_mode_config  gd32f30x_timer.o
    0x0800361a   0x0800361a   0x00000026   Code   RO         1191    i.timer_channel_output_pulse_value_config  gd32f30x_timer.o
    0x08003640   0x08003640   0x00000010   Code   RO         1194    i.timer_channel_output_struct_para_init  gd32f30x_timer.o
    0x08003650   0x08003650   0x00000004   Code   RO         1199    i.timer_counter_value_config  gd32f30x_timer.o
    0x08003654   0x08003654   0x000000dc   Code   RO         1200    i.timer_deinit      gd32f30x_timer.o
    0x08003730   0x08003730   0x0000000a   Code   RO         1205    i.timer_enable      gd32f30x_timer.o
    0x0800373a   0x0800373a   0x00000002   PAD
    0x0800373c   0x0800373c   0x00000098   Code   RO         1215    i.timer_init        gd32f30x_timer.o
    0x080037d4   0x080037d4   0x00000146   Code   RO         1216    i.timer_input_capture_config  gd32f30x_timer.o
    0x0800391a   0x0800391a   0x00000008   Code   RO         1222    i.timer_interrupt_enable  gd32f30x_timer.o
    0x08003922   0x08003922   0x00000006   Code   RO         1223    i.timer_interrupt_flag_clear  gd32f30x_timer.o
    0x08003928   0x08003928   0x00000018   Code   RO         1224    i.timer_interrupt_flag_get  gd32f30x_timer.o
    0x08003940   0x08003940   0x00000018   Code   RO         1230    i.timer_primary_output_config  gd32f30x_timer.o
    0x08003958   0x08003958   0x00000016   Code   RO         1235    i.timer_struct_para_init  gd32f30x_timer.o
    0x0800396e   0x0800396e   0x00000002   PAD
    0x08003970   0x08003970   0x00000090   Code   RO         1613    i.usart_baudrate_set  gd32f30x_usart.o
    0x08003a00   0x08003a00   0x00000008   Code   RO         1617    i.usart_data_transmit  gd32f30x_usart.o
    0x08003a08   0x08003a08   0x00000090   Code   RO         1618    i.usart_deinit      gd32f30x_usart.o
    0x08003a98   0x08003a98   0x0000000a   Code   RO         1622    i.usart_enable      gd32f30x_usart.o
    0x08003aa2   0x08003aa2   0x0000001e   Code   RO         1624    i.usart_flag_get    gd32f30x_usart.o
    0x08003ac0   0x08003ac0   0x0000001a   Code   RO         1631    i.usart_interrupt_enable  gd32f30x_usart.o
    0x08003ada   0x08003ada   0x00000010   Code   RO         1644    i.usart_parity_config  gd32f30x_usart.o
    0x08003aea   0x08003aea   0x00000014   Code   RO         1646    i.usart_receive_config  gd32f30x_usart.o
    0x08003afe   0x08003afe   0x00000010   Code   RO         1656    i.usart_stop_bit_set  gd32f30x_usart.o
    0x08003b0e   0x08003b0e   0x00000014   Code   RO         1660    i.usart_transmit_config  gd32f30x_usart.o
    0x08003b22   0x08003b22   0x00000010   Code   RO         1661    i.usart_word_length_set  gd32f30x_usart.o
    0x08003b32   0x08003b32   0x00000006   PAD
    0x08003b38   0x08003b38   0x00000030   Data   RO         3165    .constdata          m_wm.l(cos_i.o)
    0x08003b68   0x08003b68   0x000000c8   Data   RO         3183    .constdata          m_wm.l(rred.o)
    0x08003c30   0x08003c30   0x00000028   Data   RO         3187    .constdata          m_wm.l(sin_i.o)
    0x08003c58   0x08003c58   0x0000000c   Data   RO         3217    .constdata          mc_w.l(localtime_i.o)
    0x08003c64   0x08003c64   0x00000020   Data   RO         3255    Region$$Table       anon$$obj.o


    Execution Region RW_IRAM1 (Exec base: 0x20000000, Load base: 0x08003c84, Size: 0x00000480, Max: 0x0000c000, ABSOLUTE)

    Exec Addr    Load Addr    Size         Type   Attr      Idx    E Section Name        Object

    0x20000000   0x08003c84   0x00000007   Data   RW           59    .data               hmi_app.o
    0x20000007   0x08003c8b   0x00000001   PAD
    0x20000008   0x08003c8c   0x00000004   Data   RW          100    .data               infrared_drv.o
    0x2000000c   0x08003c90   0x00000018   Data   RW          244    .data               led_drv.o
    0x20000024   0x08003ca8   0x00000020   Data   RW          285    .data               usb2com_drv.o
    0x20000044   0x08003cc8   0x00000002   Data   RW          327    .data               delay.o
    0x20000046   0x08003cca   0x00000002   Data   RW          370    .data               timer_drv.o
    0x20000048   0x08003ccc   0x00000004   Data   RW         3206    .data               mc_w.l(stdout.o)
    0x2000004c   0x08003cd0   0x00000004   Data   RW         3222    .data               mc_w.l(errno.o)
    0x20000050        -       0x0000002c   Zero   RW         3214    .bss                mc_w.l(localtime_w.o)
    0x2000007c   0x08003cd4   0x00000004   PAD
    0x20000080        -       0x00000400   Zero   RW          651    STACK               startup_gd32f30x_hd.o


==============================================================================

Image component sizes


      Code (inc. data)   RO Data    RW Data    ZI Data      Debug   Object Name

       412         58          0          0          0       3268   adc_drv.o
       524        144          0          0          0       4410   at24cxx_drv.o
       220         24          0          2          0      28394   delay.o
       622         10          0          0          0       7624   gd32f30x_adc.o
       120         12          0          0          0       5254   gd32f30x_bkp.o
       222          0          0          0          0      15282   gd32f30x_gpio.o
       216         20          0          0          0       1400   gd32f30x_misc.o
        20          6          0          0          0        506   gd32f30x_pmu.o
       952        100          0          0          0      24083   gd32f30x_rcu.o
       176         34          0          0          0       3715   gd32f30x_rtc.o
      1580         48          0          0          0      26890   gd32f30x_timer.o
       450         16          0          0          0      13293   gd32f30x_usart.o
       484         62          0          7          0       3051   hmi_app.o
       554         34          0          0          0       4758   i2c_drv.o
       234         14          0          4          0      44393   infrared_drv.o
       180         14          0         24          0       2407   led_drv.o
        62          0          0          0          0       5863   main.o
       294         50          0          0          0       3519   rtc_drv.o
        36          8        304          0       1024        816   startup_gd32f30x_hd.o
       452         30          0          0          0       2437   system_gd32f30x.o
       426         40          0          2          0       3035   timer_drv.o
       204         16          0         32          0       4234   usb2com_drv.o

    ----------------------------------------------------------------------
      8464        740        336         72       1024     208632   Object Totals
         0          0         32          0          0          0   (incl. Generated)
        24          0          0          1          0          0   (incl. Padding)

    ----------------------------------------------------------------------

      Code (inc. data)   RO Data    RW Data    ZI Data      Debug   Library Member Name

       368         46         48          0          0        200   cos_i.o
        84         16          0          0          0        372   dunder.o
        24          0          0          0          0        124   fabs.o
        48          0          0          0          0        124   fpclassify.o
       248          0          0          0          0        152   poly.o
      1080        142        200          0          0        188   rred.o
       200         20          0          0          0        164   sin.o
       304         24         40          0          0        208   sin_i.o
         0          0          0          0          0          0   entry.o
         0          0          0          0          0          0   entry10a.o
         0          0          0          0          0          0   entry11a.o
         8          4          0          0          0          0   entry2.o
         4          0          0          0          0          0   entry5.o
         0          0          0          0          0          0   entry7b.o
         0          0          0          0          0          0   entry8b.o
         8          4          0          0          0          0   entry9a.o
        12          6          0          4          0         68   errno.o
        30          0          0          0          0          0   handlers.o
        36          8          0          0          0         68   init.o
         0          0          0          0          0          0   iusefp.o
        30          0          0          0          0         68   llshl.o
        36          0          0          0          0         68   llsshr.o
        32          0          0          0          0         68   llushr.o
       140          6         12          0          0         76   localtime_i.o
        12          6          0          0         44         68   localtime_w.o
      2258         90          0          0          0        452   printfa.o
         0          0          0          4          0          0   stdout.o
        44          0          0          0          0         80   uidiv.o
        98          0          0          0          0         92   uldiv.o
        48          0          0          0          0         68   cdrcmple.o
       334          0          0          0          0        148   dadd.o
       222          0          0          0          0        100   ddiv.o
       186          0          0          0          0        176   depilogue.o
        62          0          0          0          0         80   dfixi.o
        50          0          0          0          0         76   dfixui.o
        48          0          0          0          0         68   dfixul.o
        34          0          0          0          0         76   dflti.o
        26          0          0          0          0         76   dfltui.o
       228          0          0          0          0         96   dmul.o
        38          0          0          0          0         68   f2d.o

    ----------------------------------------------------------------------
      6392        372        300          8         48       3672   Library Totals
        12          0          0          0          4          0   (incl. Padding)

    ----------------------------------------------------------------------

      Code (inc. data)   RO Data    RW Data    ZI Data      Debug   Library Name

      2356        248        288          0          0       1532   m_wm.l
      2748        124         12          8         44       1108   mc_w.l
      1276          0          0          0          0       1032   mf_w.l

    ----------------------------------------------------------------------
      6392        372        300          8         48       3672   Library Totals

    ----------------------------------------------------------------------

==============================================================================


      Code (inc. data)   RO Data    RW Data    ZI Data      Debug   

     14856       1112        636         80       1072     198616   Grand Totals
     14856       1112        636         80       1072     198616   ELF Image Totals
     14856       1112        636         80          0          0   ROM Totals

==============================================================================

    Total RO  Size (Code + RO Data)                15492 (  15.13kB)
    Total RW  Size (RW Data + ZI Data)              1152 (   1.13kB)
    Total ROM Size (Code + RO Data + RW Data)      15572 (  15.21kB)

==============================================================================

