:020000040800F2
:1000000068090020D1010008D9030008D1030008C5
:10001000D503000895030008110500080000000042
:10002000000000000000000000000000DD030008E8
:100030009903000800000000DB030008DF0300084C
:10004000EB010008EB010008EB010008EB010008E0
:10005000EB010008EB010008EB010008EB010008D0
:10006000EB010008EB010008EB010008EB010008C0
:10007000EB010008EB010008EB010008EB010008B0
:10008000EB010008EB010008EB010008EB010008A0
:10009000EB010008EB010008EB010008EB01000890
:1000A000EB010008EB010008EB010008EB01000880
:1000B000EB010008EB010008EB010008EB01000870
:1000C000EB010008EB010008EB010008EB01000860
:1000D000EB01000889040008EB010008EB010008AF
:1000E000EB010008EB010008EB010008EB01000840
:1000F000EB010008EB010008EB010008EB01000830
:10010000EB010008EB010008EB010008EB0100081F
:10011000EB010008EB010008EB010008EB0100080F
:10012000EB010008EB010008EB010008EB010008FF
:1001300000F002F800F03CF80AA090E8000C8244BD
:100140008344AAF10107DA4501D100F031F8AFF29A
:10015000090EBAE80F0013F0010F18BFFB1A43F0A5
:1001600001031847240D0000440D0000103A24BF7D
:1001700078C878C1FAD8520724BF30C830C144BF0C
:1001800004680C607047000000230024002500264E
:10019000103A28BF78C1FBD8520728BF30C148BFEA
:1001A0000B6070471FB500F056FE1FBD10B510BDA7
:1001B00000F0BDF81146FFF7F5FF00F0B9FA00F0C6
:1001C000DBF803B4FFF7F2FF03BC00F0A3F9000073
:1001D0000948804709480047FEE7FEE7FEE7FEE7DB
:1001E000FEE7FEE7FEE7FEE7FEE7FEE70448054917
:1001F000054A064B70470000E10300083101000882
:1002000068010020680900206805002068050020BA
:1002100070470000014900F007B80000D800002036
:10022000704770477047704770B50C4601680020F2
:100230004A1C3ED03C22B1FBF2F302FB1313B1FB8C
:10024000F2F12360B1FBF2F302FB1313B1FBF2F105
:1002500018226360B1FBF2F302FB1313B1FBF2F15E
:1002600046F2E0320A440721A360B2FBF1F301FB3E
:10027000132140F2B553B2FBF3F5A161B2FBF3F1E8
:1002800003FB15228900B2F5B77F08D39B10521EDD
:10029000B2FBF3F52944B2FBF3F503FB15220F4B38
:1002A000E261616189077B440CD03B2A0AD3521C6E
:1002B00008E02C21204600F013F80120E0600AE05D
:1002C000521A401C195C9142FAD9521CC4E903200D
:1002D0004FF0FF302062204670BD0000D20B0000BE
:1002E0004FF0000200B5134694469646203922BFCF
:1002F000A0E80C50A0E80C50B1F12001BFF4F7AF1A
:10030000090728BFA0E80C5048BF0CC05DF804EBFB
:10031000890028BF40F8042B08BF704748BF20F869
:10032000022B11F0804F18BF00F8012B7047754663
:1003300000F02CF8AE4605006946534620F0070051
:10034000854618B020B5FFF751FFBDE820404FF0BB
:1003500000064FF000074FF000084FF0000B21F0AF
:100360000701AC46ACE8C009ACE8C009ACE8C0097C
:10037000ACE8C0098D46704710B50446AFF3008065
:100380002046BDE81040FFF71CBF00000048704742
:100390000401002000BFFEE7704738B5044600F0B6
:1003A00067FB00F5E14000906846FFF733FF054624
:1003B000A88A00F26C702080287C401CA070287BEA
:1003C000E070287A2071287960712878A07138BD92
:1003D00000BFFEE700BFFEE77047704770477047F9
:1003E00008B52648006840F4700024490860244895
:1003F000006840F001002249086000BF2048006802
:1004000000F002000028F9D000BF1D48406840F00D
:1004100080001B4948600020009002E00098401CCA
:10042000009000985028F9D31548406840F090009B
:10043000134948600020009002E00098401C0090A2
:1004400000985028F9D300BF0D48406820F0030001
:100450000B494860084600680A4908400849086096
:100460004FF41F0088600846006820F48020086070
:1004700000204860C86200F0AFFB08BD88ED00E0D6
:1004800000100240FFFFF6FE10B51D491D4800F0A8
:100490009AFC10B31B4800F0EBFBC4B21A4800886A
:1004A00000F40040C8B91848008800F4804060B1EA
:1004B0000A2C03D000201449088020E0124800884C
:1004C00040F400401049088019E00D2C06D10E4878
:1004D000008840F480400C49088010E00A480088F9
:1004E000C0F30D0009490C5407480088401C064918
:1004F000088008460088C72801DD0020088010BD5C
:10050000050305000038014008000020100000200D
:1005100000BFFEE700BF704700214FF0E0221161ED
:100520001146096921F0040111610146C21700EB6F
:100530005272C2F3CF02014B1A80704700000020B4
:1005400070B504464FF47A7094FBF0F594FBF0F12B
:1005500000FB114603E0074800F00EF86D1E002D69
:10056000F9D12EB14FF47A7106FB01F000F004F8D6
:1005700070BD000040420F000146114A12884A43F4
:100580004FF0E0235A6100229A611A46126942F044
:1005900001021A6100BF4FF0E022106900F0010271
:1005A0001AB100F48032002AF5D04FF0E02212692F
:1005B00022F001024FF0E0231A6100229A61704795
:1005C000000000202DE9F04304460D460A2095FB6B
:1005D000F0F100FB1150C6B20A2095FBF0F0C7B253
:1005E0000A2094FBF0F100FB114000F0FF080A2004
:1005F00094FBF0F000F0FF0933463A464146484686
:1006000000F040FABDE8F0830AB1016100E0416109
:100610007047F0B5044616460025002201F00F058C
:1006200001F0100747B1042E05D145F00305E76B33
:100630001F43E76300E0354300201EE001278740A9
:100640001F40C7B122684FEA800C0F2707FA0CF74A
:10065000BA43870005FA07F73A43282904D101274E
:1006600087401F40676105E0482903D10127874083
:100670001F4027612260471CB8B20828DED308203B
:1006800022E0012787401F40E7B16268A0F1080718
:100690004FEA870C0F2707FA0CF7BA43A0F10807B7
:1006A000BF0005FA07F73A43282904D101278740FC
:1006B0001F40676105E0482903D1012787401F409B
:1006C00027616260471CB8B21028DAD3F0BD000081
:1006D00010B540F2026000F05DF940F2036000F0F6
:1006E00059F940F2EF13032210210F48FFF791FF51
:1006F0002E23032210210D48FFF78BFF0122022138
:100700000A48FFF781FF012204210848FFF77CFF18
:10071000012208210548FFF777FF01222021034825
:10072000FFF772FF10BD0000000C014000080140FF
:100730001CB57820FFF7F0FE4FF4E13000F0ECFA42
:10074000FFF7C6FF0DE06846FFF727FE9DF805108E
:100750009DF80400FFF736FF00F04CF90520FFF785
:10076000EFFEF0E72DE9F04103460D461646002462
:100770000027A0462A48006800F4E060B0F5E06F6A
:1007800003D100BF4FF0040830E02548006800F4B2
:10079000E060B0F5C06F03D101274FF0030825E0FA
:1007A0001F48006800F4E060B0F5A06F02D1022796
:1007B000B8461BE01A48006800F4E060B0F5806FAE
:1007C00003D103274FF0010810E01548006800F43A
:1007D000E060B0F5407F03D104274FF0000805E04A
:1007E0004FF4A06000F020F80227B846C7F10400DB
:1007F00005FA00F4C8F104010F20C840304004435A
:1008000024010848C45403F01F01012088405911F5
:10081000890001F1E021C1F80001BDE8F08100008C
:100820000CED00E000E400E002490143024A1160DF
:10083000704700000000FA050CED00E02DE9F04FD4
:100840008CB0074600200A904AA090E8004CC0688F
:10085000CDE905BECDF810A007900FF21C1ADAE919
:10086000000ACDE9020A0FF2101ADAE9000ACDE90E
:10087000000A44484068C0F381000B900B9820B1F7
:10088000012804D002283FD103E03F4A3EE03E4A1F
:100890003CE03C48406800F4803CBCF5803F12D10D
:1008A0003848C06A00F08048B8F1000F01D1364BDB
:1008B00000E0364B3348406800F40039B9F5003F9A
:1008C00002D15B0800E0324B2E484068C0F3834100
:1008D0002C48406800F0006008B141F01001294840
:1008E000406800F0804008B141F020010F2901D29A
:1008F000891C06E00F2903D33E2901D8491C00E0DA
:100900003F2103FB01F201E01F4A00BF00BF1D4869
:100910004068C0F3031504A8465D22FA06F419489E
:100920004068C0F3022502A8465D24FA06F009904B
:1009300014484068C0F3C2251DF8056024FA06F08B
:10094000089037B1012F06D0022F06D0032F0AD10D
:1009500006E00A9208E00A9406E009980A9003E08B
:1009600008980A9000E000BF00BF0A980CB0BDE8EC
:10097000F08F0000000000000000000001020304EE
:10098000060708090010024000127A00006CDC0221
:1009900000093D00064A02EB9011096800F01F03B0
:1009A00001229A401143024B03EB901211607047F1
:1009B00000100240064A02EB9011096800F01F0384
:1009C00001229A409143024B03EB90121160704751
:1009D00000100240064A02EB9011096800F01F0364
:1009E00001229A401143024B03EB901211607047B1
:1009F0000010024070B5002508E0174830F81510C7
:100A000001221648FFF700FE681CC5B2042DF4DB76
:100A1000134814490978405C134931F810401348D1
:100A20000460E043C0B21149091D08600A480D4A3C
:100A3000127830F8121000220848FFF7E5FD094946
:100A40000978481CC11700EB91718910A0EB810156
:100A5000044A117070BD0000740E000800080140C7
:100A60000A0000200E000020600E0008100C01405B
:100A7000002003490868091F096840EA01407047DF
:100A80001C28004030B50A2490FBF4F504FB150443
:100A90000B4D2C700A2491FBF4F504FB1514084D42
:100AA0006C700A2492FBF4F504FB1524044DAC7021
:100AB0000A2493FBF4F504FB1534014DEC7030BDB2
:100AC0000A000020002000213F4A126842F48032D0
:100AD0003D4B1A6000BF401C3B4A126802F40031D3
:100AE00019B94FF6FF729042F5D1374A126802F4F5
:100AF00000320AB900BFFEE7334AD26942F08052A1
:100B0000314BDA61314A126842F440422F4B1A608D
:100B10002D4A52682C4B5A601A4652685A601A463F
:100B2000526842F480625A601A46526822F4403297
:100B30005A601A46526842F440325A601A46526865
:100B4000234B1A40204B5A601A465268214B1A43D5
:100B50001D4B5A601A46126842F080721A6000BF3C
:100B6000194A126802F00072002AF9D0174A126876
:100B700042F48032154B1A6000BF144A526802F4E6
:100B80008032002AF9D0114A126842F400320F4B29
:100B90001A6000BF0D4A526802F40032002AF9D0F0
:100BA000094A526822F00302074B5A601A465268FB
:100BB00042F002025A6000BF034A526802F0080283
:100BC000002AF9D070470000001002400070004079
:100BD000FFFFC3B70000340810B5FFF773FF10BD67
:100BE0002DE9F04704460D460027B846B9460026D1
:100BF0001D49601A8C421CD006DC1C48204470B190
:100C0000B0F5806F1FD10FE0B0F5806F16D0B0F552
:100C10006C4F18D10320FFF711FE074614E00220A5
:100C2000FFF70CFE07460FE00220FFF707FE07461E
:100C30000AE00220FFF702FE074605E00220FFF768
:100C4000FDFD074600E000BF00BF07EB5500B0FB0D
:100C5000F5F64FF6F07006EA000806F00F0948EACC
:100C60000900A060BDE8F087004C004000BCFFBF59
:100C700001464868C0F308007047000010B50446FC
:100C80002049601A8C4228D006DC1F48204490B1CD
:100C9000B0F5806F33D117E0B0F5806F26D0B0F596
:100CA0006C4F2CD140F20E30FFF794FE40F20E3024
:100CB000FFF780FE24E040F21140FFF78BFE40F288
:100CC0001140FFF777FE1BE040F21240FFF782FE73
:100CD00040F21240FFF76EFE12E040F21340FFF7C1
:100CE00079FE40F21340FFF765FE09E040F2144040
:100CF000FFF770FE40F21440FFF75CFE00E000BF1B
:100D000000BF10BD004C004000BCFFBFC16841F4F3
:100D10000051C1607047000010B5044640F2026007
:100D2000FFF738FE4FF4C060FFF734FE40F20E606C
:100D3000FFF730FE4FF40073032218211948FFF724
:100D400068FC4FF48063032204211648FFF761FC1E
:100D50001548FFF793FF21461348FFF741FF002195
:100D6000114800F05EF800210F4800F06CF80021F7
:100D70000D4800F044F804210B4800F048F8082121
:100D8000094800F056F840F20531074800F00EF827
:100D9000032211462520FFF7E5FC0348FFF7B6FFC5
:100DA00010BD0000000801400038014010B500EB04
:100DB0009112126801F01F040123A3401A4300EBB3
:100DC00091131A6010BD70B5024600230024C1F3D0
:100DD0008910105801F01F060125B54000EA0503EF
:100DE00002EB91500068C1F304460125B54000EACA
:100DF000050414B10BB1012070BD0020FCE7C268EE
:100E000022F4C062C260C2680A43C2607047C2680E
:100E100022F00402C260C26801F004031A43C260F7
:100E20007047026922F44052026102690A4302617A
:100E30007047C26822F00802C260C26801F008036D
:100E40001A43C2607047C26822F48052C260C2680E
:100E50000A43C26070474FF04070E1EE100A7047DD
:100E60006F010601AB018F01C601CD01ED01070144
:100E7000EF01CF0102000400080020001F1D1F1E0B
:100E80001F1E1F1F1E1F1E1FA80E0008000000208F
:100E9000100000006C010008B80E000810000020CF
:100EA0005809000088010008000000000000000050
:080EB00000000000000000003A
:0400000508000131BD
:00000001FF
