Component: ARM Compiler 5.06 update 6 (build 750) Tool: armlink [4d35ed]

==============================================================================

Section Cross References

    main.o(i.AllDrvInit) refers to usb2com_drv.o(i.Usb2ComDrvInit) for Usb2ComDrvInit
    main.o(i.AllDrvInit) refers to delay.o(i.delay_init) for delay_init
    main.o(i.AllDrvInit) refers to at24cxx_drv.o(i.AT24CxxDrvInit) for AT24CxxDrvInit
    main.o(i.main) refers to main.o(i.AllDrvInit) for AllDrvInit
    main.o(i.main) refers to at24cxx_drv.o(i.At24cxxDrvTest) for At24cxxDrvTest
    i2c_drv.o(i.IIC_Ack) refers to gd32f30x_gpio.o(i.gpio_bit_write) for gpio_bit_write
    i2c_drv.o(i.IIC_Ack) refers to i2c_drv.o(i.IIC_delay) for IIC_delay
    i2c_drv.o(i.IIC_Init) refers to gd32f30x_rcu.o(i.rcu_periph_clock_enable) for rcu_periph_clock_enable
    i2c_drv.o(i.IIC_Init) refers to gd32f30x_gpio.o(i.gpio_init) for gpio_init
    i2c_drv.o(i.IIC_Init) refers to i2c_drv.o(i.IIC_Stop) for IIC_Stop
    i2c_drv.o(i.IIC_NAck) refers to gd32f30x_gpio.o(i.gpio_bit_write) for gpio_bit_write
    i2c_drv.o(i.IIC_NAck) refers to i2c_drv.o(i.IIC_delay) for IIC_delay
    i2c_drv.o(i.IIC_Read_Byte) refers to gd32f30x_gpio.o(i.gpio_bit_write) for gpio_bit_write
    i2c_drv.o(i.IIC_Read_Byte) refers to i2c_drv.o(i.IIC_delay) for IIC_delay
    i2c_drv.o(i.IIC_Read_Byte) refers to gd32f30x_gpio.o(i.gpio_input_bit_get) for gpio_input_bit_get
    i2c_drv.o(i.IIC_Read_Byte) refers to i2c_drv.o(i.IIC_NAck) for IIC_NAck
    i2c_drv.o(i.IIC_Read_Byte) refers to i2c_drv.o(i.IIC_Ack) for IIC_Ack
    i2c_drv.o(i.IIC_Send_Byte) refers to gd32f30x_gpio.o(i.gpio_bit_write) for gpio_bit_write
==============================================================================

Removing Unused input sections from the image.

    Removing main.o(.rev16_text), (4 bytes).
    Removing main.o(.revsh_text), (4 bytes).
    Removing i2c_drv.o(.rev16_text), (4 bytes).
    Removing i2c_drv.o(.revsh_text), (4 bytes).
    Removing at24cxx_drv.o(i.AT24CXX_Check), (48 bytes).
    Removing at24cxx_drv.o(i.AT24CXX_ReadLenByte), (44 bytes).
    Removing at24cxx_drv.o(i.AT24CXX_WriteLenByte), (42 bytes).
    Removing delay.o(.rev16_text), (4 bytes).
    Removing delay.o(.revsh_text), (4 bytes).
    Removing usb2com_drv.o(.rev16_text), (4 bytes).
    Removing usb2com_drv.o(.revsh_text), (4 bytes).
    Removing usb2com_drv.o(i.CtlLed), (24 bytes).
    Removing usb2com_drv.o(i.Usb2ComTask), (80 bytes).
    Removing usb2com_drv.o(i.Usb2ComTxTesting), (48 bytes).
    Removing usb2com_drv.o(i.xorSum), (24 bytes).
    Removing led_drv.o(.rev16_text), (4 bytes).
    Removing led_drv.o(.revsh_text), (4 bytes).
    Removing led_drv.o(i.LedDrvInit), (92 bytes).
==============================================================================

Image Symbol Table

    Local Symbols

    Symbol Name                              Value     Ov Type        Size  Object(Section)

    ../clib/microlib/division.c              0x00000000   Number         0  uidiv.o ABSOLUTE
    ../clib/microlib/division.c              0x00000000   Number         0  uldiv.o ABSOLUTE
    ../clib/microlib/init/entry.s            0x00000000   Number         0  entry7b.o ABSOLUTE
    ../clib/microlib/init/entry.s            0x00000000   Number         0  entry5.o ABSOLUTE
    ../clib/microlib/init/entry.s            0x00000000   Number         0  entry7a.o ABSOLUTE
    ../clib/microlib/init/entry.s            0x00000000   Number         0  entry11b.o ABSOLUTE
    ../clib/microlib/init/entry.s            0x00000000   Number         0  entry8b.o ABSOLUTE
    ../clib/microlib/init/entry.s            0x00000000   Number         0  entry.o ABSOLUTE
    ../clib/microlib/init/entry.s            0x00000000   Number         0  entry11a.o ABSOLUTE
    ../clib/microlib/init/entry.s            0x00000000   Number         0  entry10b.o ABSOLUTE
    ../clib/microlib/init/entry.s            0x00000000   Number         0  entry10a.o ABSOLUTE
    ../clib/microlib/init/entry.s            0x00000000   Number         0  entry9b.o ABSOLUTE
    ../clib/microlib/init/entry.s            0x00000000   Number         0  entry9a.o ABSOLUTE
    ../clib/microlib/init/entry.s            0x00000000   Number         0  entry8a.o ABSOLUTE
    ../clib/microlib/init/entry.s            0x00000000   Number         0  entry2.o ABSOLUTE
    ../clib/microlib/longlong.c              0x00000000   Number         0  llsshr.o ABSOLUTE
    ../clib/microlib/longlong.c              0x00000000   Number         0  llushr.o ABSOLUTE
    ../clib/microlib/longlong.c              0x00000000   Number         0  llshl.o ABSOLUTE
    ../clib/microlib/printf/printf.c         0x00000000   Number         0  printf8.o ABSOLUTE
    ../clib/microlib/printf/printf.c         0x00000000   Number         0  printfb.o ABSOLUTE
    ../clib/microlib/printf/printf.c         0x00000000   Number         0  printf0.o ABSOLUTE
    ../clib/microlib/printf/printf.c         0x00000000   Number         0  printf1.o ABSOLUTE
    ../clib/microlib/printf/printf.c         0x00000000   Number         0  printf2.o ABSOLUTE
    ../clib/microlib/printf/printf.c         0x00000000   Number         0  printf3.o ABSOLUTE
    ../clib/microlib/printf/printf.c         0x00000000   Number         0  printf4.o ABSOLUTE
    ../clib/microlib/printf/printf.c         0x00000000   Number         0  printf5.o ABSOLUTE
    ../clib/microlib/printf/printf.c         0x00000000   Number         0  printf6.o ABSOLUTE
    ../clib/microlib/printf/printf.c         0x00000000   Number         0  printf7.o ABSOLUTE
    ../clib/microlib/printf/printf.c         0x00000000   Number         0  printfa.o ABSOLUTE
    ../clib/microlib/printf/stubs.s          0x00000000   Number         0  stubs.o ABSOLUTE
    ../clib/microlib/stdio/streams.c         0x00000000   Number         0  stdout.o ABSOLUTE
    ../clib/microlib/stubs.s                 0x00000000   Number         0  iusefp.o ABSOLUTE
    ../fplib/microlib/fpadd.c                0x00000000   Number         0  dadd.o ABSOLUTE
    ../fplib/microlib/fpdiv.c                0x00000000   Number         0  ddiv.o ABSOLUTE
    ../fplib/microlib/fpepilogue.c           0x00000000   Number         0  depilogue.o ABSOLUTE
    ../fplib/microlib/fpfix.c                0x00000000   Number         0  dfixul.o ABSOLUTE
    ../fplib/microlib/fpmul.c                0x00000000   Number         0  dmul.o ABSOLUTE
    App\\main.c                              0x00000000   Number         0  main.o ABSOLUTE
    App\main.c                               0x00000000   Number         0  main.o ABSOLUTE
    Arm\\system_gd32f30x.c                   0x00000000   Number         0  system_gd32f30x.o ABSOLUTE
    Arm\startup_gd32f30x_hd.s                0x00000000   Number         0  startup_gd32f30x_hd.o ABSOLUTE
    Arm\system_gd32f30x.c                    0x00000000   Number         0  system_gd32f30x.o ABSOLUTE
    Driver\Usb2Com_drv.c                     0x00000000   Number         0  usb2com_drv.o ABSOLUTE
    Driver\\Usb2Com_drv.c                    0x00000000   Number         0  usb2com_drv.o ABSOLUTE
    Driver\\delay.c                          0x00000000   Number         0  delay.o ABSOLUTE
    Driver\\i2c_drv.c                        0x00000000   Number         0  i2c_drv.o ABSOLUTE
    Driver\\led_drv.c                        0x00000000   Number         0  led_drv.o ABSOLUTE
    Driver\at24cxx_drv.c                     0x00000000   Number         0  at24cxx_drv.o ABSOLUTE
    Driver\delay.c                           0x00000000   Number         0  delay.o ABSOLUTE
    Driver\i2c_drv.c                         0x00000000   Number         0  i2c_drv.o ABSOLUTE
    Driver\led_drv.c                         0x00000000   Number         0  led_drv.o ABSOLUTE
    GD32_Lib\Source\gd32f30x_dma.c           0x00000000   Number         0  gd32f30x_dma.o ABSOLUTE
    GD32_Lib\Source\gd32f30x_exti.c          0x00000000   Number         0  gd32f30x_exti.o ABSOLUTE
    GD32_Lib\Source\gd32f30x_gpio.c          0x00000000   Number         0  gd32f30x_gpio.o ABSOLUTE
    GD32_Lib\Source\gd32f30x_i2c.c           0x00000000   Number         0  gd32f30x_i2c.o ABSOLUTE
    GD32_Lib\Source\gd32f30x_misc.c          0x00000000   Number         0  gd32f30x_misc.o ABSOLUTE
    GD32_Lib\Source\gd32f30x_rcu.c           0x00000000   Number         0  gd32f30x_rcu.o ABSOLUTE
    GD32_Lib\Source\gd32f30x_usart.c         0x00000000   Number         0  gd32f30x_usart.o ABSOLUTE
    GD32_Lib\\Source\\gd32f30x_dma.c         0x00000000   Number         0  gd32f30x_dma.o ABSOLUTE
    GD32_Lib\\Source\\gd32f30x_exti.c        0x00000000   Number         0  gd32f30x_exti.o ABSOLUTE
    GD32_Lib\\Source\\gd32f30x_gpio.c        0x00000000   Number         0  gd32f30x_gpio.o ABSOLUTE
    GD32_Lib\\Source\\gd32f30x_i2c.c         0x00000000   Number         0  gd32f30x_i2c.o ABSOLUTE
    GD32_Lib\\Source\\gd32f30x_misc.c        0x00000000   Number         0  gd32f30x_misc.o ABSOLUTE
    GD32_Lib\\Source\\gd32f30x_rcu.c         0x00000000   Number         0  gd32f30x_rcu.o ABSOLUTE
    GD32_Lib\\Source\\gd32f30x_usart.c       0x00000000   Number         0  gd32f30x_usart.o ABSOLUTE
    cdrcmple.s                               0x00000000   Number         0  cdrcmple.o ABSOLUTE
    dc.s                                     0x00000000   Number         0  dc.o ABSOLUTE
    handlers.s                               0x00000000   Number         0  handlers.o ABSOLUTE
    init.s                                   0x00000000   Number         0  init.o ABSOLUTE
    RESET                                    0x08000000   Section      304  startup_gd32f30x_hd.o(RESET)
    .ARM.Collect$$$$00000000                 0x08000130   Section        0  entry.o(.ARM.Collect$$$$00000000)
    .ARM.Collect$$$$00000001                 0x08000130   Section        4  entry2.o(.ARM.Collect$$$$00000001)
    .ARM.Collect$$$$00000004                 0x08000134   Section        4  entry5.o(.ARM.Collect$$$$00000004)
    .ARM.Collect$$$$00000008                 0x08000138   Section        0  entry7b.o(.ARM.Collect$$$$00000008)
    .ARM.Collect$$$$0000000A                 0x08000138   Section        0  entry8b.o(.ARM.Collect$$$$0000000A)
    .ARM.Collect$$$$0000000B                 0x08000138   Section        8  entry9a.o(.ARM.Collect$$$$0000000B)
    .ARM.Collect$$$$0000000D                 0x08000140   Section        0  entry10a.o(.ARM.Collect$$$$0000000D)
    .ARM.Collect$$$$0000000F                 0x08000140   Section        0  entry11a.o(.ARM.Collect$$$$0000000F)
    .ARM.Collect$$$$00002712                 0x08000140   Section        4  entry2.o(.ARM.Collect$$$$00002712)
    __lit__00000000                          0x08000140   Data           4  entry2.o(.ARM.Collect$$$$00002712)
    .text                                    0x08000144   Section       36  startup_gd32f30x_hd.o(.text)
    $v0                                      0x08000144   Number         0  startup_gd32f30x_hd.o(.text)
    .text                                    0x08000168   Section        0  uldiv.o(.text)
    .text                                    0x080001cc   Section       36  init.o(.text)
    .text                                    0x080001f0   Section        0  llshl.o(.text)
    .text                                    0x0800020e   Section        0  llushr.o(.text)
    i.AT24CXX_Read                           0x0800022e   Section        0  at24cxx_drv.o(i.AT24CXX_Read)
    i.AT24CXX_ReadOneByte                    0x08000250   Section        0  at24cxx_drv.o(i.AT24CXX_ReadOneByte)
    i.AT24CXX_Write                          0x080002a2   Section        0  at24cxx_drv.o(i.AT24CXX_Write)
    i.AT24CXX_WriteOneByte                   0x080002c6   Section        0  at24cxx_drv.o(i.AT24CXX_WriteOneByte)
    i.AT24CxxDrvInit                         0x08000316   Section        0  at24cxx_drv.o(i.AT24CxxDrvInit)
    i.AllDrvInit                             0x0800031e   Section        0  main.o(i.AllDrvInit)
    AllDrvInit                               0x0800031f   Thumb Code    18  main.o(i.AllDrvInit)
    i.At24cxxDrvTest                         0x08000330   Section        0  at24cxx_drv.o(i.At24cxxDrvTest)
    i.IIC_Ack                                0x0800044c   Section        0  i2c_drv.o(i.IIC_Ack)
    i.IIC_Init                               0x08000490   Section        0  i2c_drv.o(i.IIC_Init)
    i.IIC_NAck                               0x080004c0   Section        0  i2c_drv.o(i.IIC_NAck)
    i.IIC_Read_Byte                          0x080004f4   Section        0  i2c_drv.o(i.IIC_Read_Byte)
    i.IIC_Send_Byte                          0x0800054c   Section        0  i2c_drv.o(i.IIC_Send_Byte)
    i.IIC_Start                              0x0800059c   Section        0  i2c_drv.o(i.IIC_Start)
    i.IIC_Stop                               0x080005dc   Section        0  i2c_drv.o(i.IIC_Stop)
    i.IIC_Wait_Ack                           0x08000610   Section        0  i2c_drv.o(i.IIC_Wait_Ack)
    i.IIC_delay                              0x0800066c   Section        0  i2c_drv.o(i.IIC_delay)
    IIC_delay                                0x0800066d   Thumb Code    10  i2c_drv.o(i.IIC_delay)
    i.SystemInit                             0x08000678   Section        0  system_gd32f30x.o(i.SystemInit)
    i.USART0_IRQHandler                      0x08000720   Section        0  usb2com_drv.o(i.USART0_IRQHandler)
    i.Usb2ComDrvInit                         0x08000788   Section        0  usb2com_drv.o(i.Usb2ComDrvInit)
    i.Usb2ComGpioInit                        0x0800079c   Section        0  usb2com_drv.o(i.Usb2ComGpioInit)
    Usb2ComGpioInit                          0x0800079d   Thumb Code    40  usb2com_drv.o(i.Usb2ComGpioInit)
    i.Usb2ComUartInit                        0x080007c8   Section        0  usb2com_drv.o(i.Usb2ComUartInit)
    Usb2ComUartInit                          0x080007c9   Thumb Code   108  usb2com_drv.o(i.Usb2ComUartInit)
    i.Usb2comDmaInit                         0x0800083c   Section        0  usb2com_drv.o(i.Usb2comDmaInit)
    Usb2comDmaInit                           0x0800083d   Thumb Code   100  usb2com_drv.o(i.Usb2comDmaInit)
    i.__0printf$8                            0x080008ac   Section        0  printf8.o(i.__0printf$8)
    i.__scatterload_copy                     0x080008cc   Section       14  handlers.o(i.__scatterload_copy)
    i.__scatterload_null                     0x080008da   Section        2  handlers.o(i.__scatterload_null)
    i.__scatterload_zeroinit                 0x080008dc   Section       14  handlers.o(i.__scatterload_zeroinit)
    i._printf_core                           0x080008ec   Section        0  printf8.o(i._printf_core)
    _printf_core                             0x080008ed   Thumb Code   996  printf8.o(i._printf_core)
    i._printf_post_padding                   0x08000cfc   Section        0  printf8.o(i._printf_post_padding)
    _printf_post_padding                     0x08000cfd   Thumb Code    36  printf8.o(i._printf_post_padding)
    i._printf_pre_padding                    0x08000d20   Section        0  printf8.o(i._printf_pre_padding)
    _printf_pre_padding                      0x08000d21   Thumb Code    46  printf8.o(i._printf_pre_padding)
    i.delay_init                             0x08000d50   Section        0  delay.o(i.delay_init)
    i.delay_ms                               0x08000d78   Section        0  delay.o(i.delay_ms)
    i.delay_us                               0x08000db0   Section        0  delay.o(i.delay_us)
    i.dma_channel_disable                    0x08000dfc   Section        0  gd32f30x_dma.o(i.dma_channel_disable)
    i.dma_channel_enable                     0x08000e2e   Section        0  gd32f30x_dma.o(i.dma_channel_enable)
    i.dma_deinit                             0x08000e60   Section        0  gd32f30x_dma.o(i.dma_deinit)
    i.dma_init                               0x08000ed0   Section        0  gd32f30x_dma.o(i.dma_init)
    i.dma_periph_and_channel_check           0x08001000   Section        0  gd32f30x_dma.o(i.dma_periph_and_channel_check)
    dma_periph_and_channel_check             0x08001001   Thumb Code    18  gd32f30x_dma.o(i.dma_periph_and_channel_check)
    i.dma_transfer_number_config             0x08001018   Section        0  gd32f30x_dma.o(i.dma_transfer_number_config)
    i.dma_transfer_number_get                0x0800103e   Section        0  gd32f30x_dma.o(i.dma_transfer_number_get)
    i.fputc                                  0x08001060   Section        0  usb2com_drv.o(i.fputc)
    i.gpio_bit_write                         0x08001088   Section        0  gd32f30x_gpio.o(i.gpio_bit_write)
    i.gpio_init                              0x08001092   Section        0  gd32f30x_gpio.o(i.gpio_init)
    i.gpio_input_bit_get                     0x0800114e   Section        0  gd32f30x_gpio.o(i.gpio_input_bit_get)
    i.main                                   0x0800115e   Section        0  main.o(i.main)
    i.nvic_irq_enable                        0x0800116c   Section        0  gd32f30x_misc.o(i.nvic_irq_enable)
    i.nvic_priority_group_set                0x08001230   Section        0  gd32f30x_misc.o(i.nvic_priority_group_set)
    i.rcu_clock_freq_get                     0x08001244   Section        0  gd32f30x_rcu.o(i.rcu_clock_freq_get)
    i.rcu_periph_clock_enable                0x0800139c   Section        0  gd32f30x_rcu.o(i.rcu_periph_clock_enable)
    i.rcu_periph_reset_disable               0x080013bc   Section        0  gd32f30x_rcu.o(i.rcu_periph_reset_disable)
    i.rcu_periph_reset_enable                0x080013dc   Section        0  gd32f30x_rcu.o(i.rcu_periph_reset_enable)
    i.system_clock_120m_hxtal                0x080013fc   Section        0  system_gd32f30x.o(i.system_clock_120m_hxtal)
    system_clock_120m_hxtal                  0x080013fd   Thumb Code   258  system_gd32f30x.o(i.system_clock_120m_hxtal)
    i.system_clock_config                    0x08001510   Section        0  system_gd32f30x.o(i.system_clock_config)
    system_clock_config                      0x08001511   Thumb Code     8  system_gd32f30x.o(i.system_clock_config)
    i.usart_baudrate_set                     0x08001518   Section        0  gd32f30x_usart.o(i.usart_baudrate_set)
    i.usart_data_receive                     0x080015a8   Section        0  gd32f30x_usart.o(i.usart_data_receive)
    i.usart_data_transmit                    0x080015b2   Section        0  gd32f30x_usart.o(i.usart_data_transmit)
    i.usart_deinit                           0x080015bc   Section        0  gd32f30x_usart.o(i.usart_deinit)
    i.usart_dma_receive_config               0x0800164c   Section        0  gd32f30x_usart.o(i.usart_dma_receive_config)
    i.usart_enable                           0x08001660   Section        0  gd32f30x_usart.o(i.usart_enable)
    i.usart_flag_get                         0x0800166a   Section        0  gd32f30x_usart.o(i.usart_flag_get)
    i.usart_interrupt_enable                 0x08001688   Section        0  gd32f30x_usart.o(i.usart_interrupt_enable)
    i.usart_interrupt_flag_clear             0x080016a2   Section        0  gd32f30x_usart.o(i.usart_interrupt_flag_clear)
    i.usart_interrupt_flag_get               0x080016b4   Section        0  gd32f30x_usart.o(i.usart_interrupt_flag_get)
    i.usart_parity_config                    0x080016ec   Section        0  gd32f30x_usart.o(i.usart_parity_config)
    i.usart_receive_config                   0x080016fc   Section        0  gd32f30x_usart.o(i.usart_receive_config)
    i.usart_stop_bit_set                     0x08001710   Section        0  gd32f30x_usart.o(i.usart_stop_bit_set)
    i.usart_transmit_config                  0x08001720   Section        0  gd32f30x_usart.o(i.usart_transmit_config)
    i.usart_word_length_set                  0x08001734   Section        0  gd32f30x_usart.o(i.usart_word_length_set)
    .data                                    0x20000000   Section        2  delay.o(.data)
    g_fac_us                                 0x20000000   Data           2  delay.o(.data)
    .data                                    0x20000004   Section       36  usb2com_drv.o(.data)
    g_pktRecv                                0x20000004   Data           1  usb2com_drv.o(.data)
    .data                                    0x20000028   Section        4  stdout.o(.data)
    .bss                                     0x2000002c   Section       20  usb2com_drv.o(.bss)
    STACK                                    0x20000040   Section     1024  startup_gd32f30x_hd.o(STACK)

    Global Symbols

    Symbol Name                              Value     Ov Type        Size  Object(Section)

    BuildAttributes$$THM_ISAv4$E$P$D$K$B$S$7EM$VFPi3$EXTD16$VFPS$VFMA$PE$A:L22UL41UL21$X:L11$S22US41US21$IEEE1$IW$USESV6$~STKCKD$USESV7$~SHL$OSPACE$ROPI$EBA8$MICROLIB$REQ8$PRES8$EABIv2 0x00000000   Number         0  anon$$obj.o ABSOLUTE
    __ARM_use_no_argv                        0x00000000   Number         0  main.o ABSOLUTE
    _printf_a                                0x00000000   Number         0  stubs.o ABSOLUTE
    _printf_c                                0x00000000   Number         0  stubs.o ABSOLUTE
    _printf_charcount                        0x00000000   Number         0  stubs.o ABSOLUTE
    _printf_d                                0x00000000   Number         0  stubs.o ABSOLUTE
    _printf_e                                0x00000000   Number         0  stubs.o ABSOLUTE
    _printf_f                                0x00000000   Number         0  stubs.o ABSOLUTE
    _printf_flags                            0x00000000   Number         0  stubs.o ABSOLUTE
    _printf_fp_dec                           0x00000000   Number         0  stubs.o ABSOLUTE
    _printf_fp_hex                           0x00000000   Number         0  stubs.o ABSOLUTE
    _printf_g                                0x00000000   Number         0  stubs.o ABSOLUTE
    _printf_i                                0x00000000   Number         0  stubs.o ABSOLUTE
    _printf_int_dec                          0x00000000   Number         0  stubs.o ABSOLUTE
    _printf_l                                0x00000000   Number         0  stubs.o ABSOLUTE
    _printf_lc                               0x00000000   Number         0  stubs.o ABSOLUTE
    _printf_ll                               0x00000000   Number         0  stubs.o ABSOLUTE
    _printf_lld                              0x00000000   Number         0  stubs.o ABSOLUTE
    _printf_lli                              0x00000000   Number         0  stubs.o ABSOLUTE
    _printf_llo                              0x00000000   Number         0  stubs.o ABSOLUTE
    _printf_llu                              0x00000000   Number         0  stubs.o ABSOLUTE
    _printf_llx                              0x00000000   Number         0  stubs.o ABSOLUTE
    _printf_longlong_dec                     0x00000000   Number         0  stubs.o ABSOLUTE
    _printf_longlong_hex                     0x00000000   Number         0  stubs.o ABSOLUTE
    _printf_longlong_oct                     0x00000000   Number         0  stubs.o ABSOLUTE
    _printf_ls                               0x00000000   Number         0  stubs.o ABSOLUTE
    _printf_mbtowc                           0x00000000   Number         0  stubs.o ABSOLUTE
    _printf_n                                0x00000000   Number         0  stubs.o ABSOLUTE
    _printf_o                                0x00000000   Number         0  stubs.o ABSOLUTE
    _printf_p                                0x00000000   Number         0  stubs.o ABSOLUTE
    _printf_percent                          0x00000000   Number         0  stubs.o ABSOLUTE
    _printf_pre_padding                      0x00000000   Number         0  stubs.o ABSOLUTE
    _printf_return_value                     0x00000000   Number         0  stubs.o ABSOLUTE
    _printf_s                                0x00000000   Number         0  stubs.o ABSOLUTE
    _printf_sizespec                         0x00000000   Number         0  stubs.o ABSOLUTE
    _printf_str                              0x00000000   Number         0  stubs.o ABSOLUTE
    _printf_truncate_signed                  0x00000000   Number         0  stubs.o ABSOLUTE
    _printf_truncate_unsigned                0x00000000   Number         0  stubs.o ABSOLUTE
    _printf_u                                0x00000000   Number         0  stubs.o ABSOLUTE
    _printf_wc                               0x00000000   Number         0  stubs.o ABSOLUTE
    _printf_wctomb                           0x00000000   Number         0  stubs.o ABSOLUTE
    _printf_widthprec                        0x00000000   Number         0  stubs.o ABSOLUTE
    _printf_x                                0x00000000   Number         0  stubs.o ABSOLUTE
    __cpp_initialize__aeabi_                  - Undefined Weak Reference
    __cxa_finalize                            - Undefined Weak Reference
    __decompress                              - Undefined Weak Reference
    _clock_init                               - Undefined Weak Reference
    _microlib_exit                            - Undefined Weak Reference
    __Vectors_Size                           0x00000130   Number         0  startup_gd32f30x_hd.o ABSOLUTE
    __Vectors                                0x08000000   Data           4  startup_gd32f30x_hd.o(RESET)
    __Vectors_End                            0x08000130   Data           0  startup_gd32f30x_hd.o(RESET)
    __main                                   0x08000131   Thumb Code     0  entry.o(.ARM.Collect$$$$00000000)
    _main_stk                                0x08000131   Thumb Code     0  entry2.o(.ARM.Collect$$$$00000001)
    _main_scatterload                        0x08000135   Thumb Code     0  entry5.o(.ARM.Collect$$$$00000004)
    __main_after_scatterload                 0x08000139   Thumb Code     0  entry5.o(.ARM.Collect$$$$00000004)
    _main_clock                              0x08000139   Thumb Code     0  entry7b.o(.ARM.Collect$$$$00000008)
    _main_cpp_init                           0x08000139   Thumb Code     0  entry8b.o(.ARM.Collect$$$$0000000A)
    _main_init                               0x08000139   Thumb Code     0  entry9a.o(.ARM.Collect$$$$0000000B)
    __rt_final_cpp                           0x08000141   Thumb Code     0  entry10a.o(.ARM.Collect$$$$0000000D)
    __rt_final_exit                          0x08000141   Thumb Code     0  entry11a.o(.ARM.Collect$$$$0000000F)
    Reset_Handler                            0x08000145   Thumb Code     8  startup_gd32f30x_hd.o(.text)
    NMI_Handler                              0x0800014d   Thumb Code     2  startup_gd32f30x_hd.o(.text)
    HardFault_Handler                        0x0800014f   Thumb Code     2  startup_gd32f30x_hd.o(.text)
    MemManage_Handler                        0x08000151   Thumb Code     2  startup_gd32f30x_hd.o(.text)
    BusFault_Handler                         0x08000153   Thumb Code     2  startup_gd32f30x_hd.o(.text)
    UsageFault_Handler                       0x08000155   Thumb Code     2  startup_gd32f30x_hd.o(.text)
    SVC_Handler                              0x08000157   Thumb Code     2  startup_gd32f30x_hd.o(.text)
    DebugMon_Handler                         0x08000159   Thumb Code     2  startup_gd32f30x_hd.o(.text)
    PendSV_Handler                           0x0800015b   Thumb Code     2  startup_gd32f30x_hd.o(.text)
    SysTick_Handler                          0x0800015d   Thumb Code     2  startup_gd32f30x_hd.o(.text)
    ADC0_1_IRQHandler                        0x0800015f   Thumb Code     0  startup_gd32f30x_hd.o(.text)
    ADC2_IRQHandler                          0x0800015f   Thumb Code     0  startup_gd32f30x_hd.o(.text)
    CAN0_EWMC_IRQHandler                     0x0800015f   Thumb Code     0  startup_gd32f30x_hd.o(.text)
    CAN0_RX1_IRQHandler                      0x0800015f   Thumb Code     0  startup_gd32f30x_hd.o(.text)
    DMA0_Channel0_IRQHandler                 0x0800015f   Thumb Code     0  startup_gd32f30x_hd.o(.text)
    DMA0_Channel1_IRQHandler                 0x0800015f   Thumb Code     0  startup_gd32f30x_hd.o(.text)
    DMA0_Channel2_IRQHandler                 0x0800015f   Thumb Code     0  startup_gd32f30x_hd.o(.text)
    DMA0_Channel3_IRQHandler                 0x0800015f   Thumb Code     0  startup_gd32f30x_hd.o(.text)
    DMA0_Channel4_IRQHandler                 0x0800015f   Thumb Code     0  startup_gd32f30x_hd.o(.text)
    DMA0_Channel5_IRQHandler                 0x0800015f   Thumb Code     0  startup_gd32f30x_hd.o(.text)
    DMA0_Channel6_IRQHandler                 0x0800015f   Thumb Code     0  startup_gd32f30x_hd.o(.text)
    DMA1_Channel0_IRQHandler                 0x0800015f   Thumb Code     0  startup_gd32f30x_hd.o(.text)
    DMA1_Channel1_IRQHandler                 0x0800015f   Thumb Code     0  startup_gd32f30x_hd.o(.text)
    DMA1_Channel2_IRQHandler                 0x0800015f   Thumb Code     0  startup_gd32f30x_hd.o(.text)
    DMA1_Channel3_4_IRQHandler               0x0800015f   Thumb Code     0  startup_gd32f30x_hd.o(.text)
    EXMC_IRQHandler                          0x0800015f   Thumb Code     0  startup_gd32f30x_hd.o(.text)
    EXTI0_IRQHandler                         0x0800015f   Thumb Code     0  startup_gd32f30x_hd.o(.text)
    EXTI10_15_IRQHandler                     0x0800015f   Thumb Code     0  startup_gd32f30x_hd.o(.text)
    EXTI1_IRQHandler                         0x0800015f   Thumb Code     0  startup_gd32f30x_hd.o(.text)
    EXTI2_IRQHandler                         0x0800015f   Thumb Code     0  startup_gd32f30x_hd.o(.text)
    EXTI3_IRQHandler                         0x0800015f   Thumb Code     0  startup_gd32f30x_hd.o(.text)
    EXTI4_IRQHandler                         0x0800015f   Thumb Code     0  startup_gd32f30x_hd.o(.text)
    EXTI5_9_IRQHandler                       0x0800015f   Thumb Code     0  startup_gd32f30x_hd.o(.text)
    FMC_IRQHandler                           0x0800015f   Thumb Code     0  startup_gd32f30x_hd.o(.text)
    I2C0_ER_IRQHandler                       0x0800015f   Thumb Code     0  startup_gd32f30x_hd.o(.text)
    I2C0_EV_IRQHandler                       0x0800015f   Thumb Code     0  startup_gd32f30x_hd.o(.text)
    I2C1_ER_IRQHandler                       0x0800015f   Thumb Code     0  startup_gd32f30x_hd.o(.text)
    I2C1_EV_IRQHandler                       0x0800015f   Thumb Code     0  startup_gd32f30x_hd.o(.text)
    LVD_IRQHandler                           0x0800015f   Thumb Code     0  startup_gd32f30x_hd.o(.text)
    RCU_CTC_IRQHandler                       0x0800015f   Thumb Code     0  startup_gd32f30x_hd.o(.text)
    RTC_Alarm_IRQHandler                     0x0800015f   Thumb Code     0  startup_gd32f30x_hd.o(.text)
    RTC_IRQHandler                           0x0800015f   Thumb Code     0  startup_gd32f30x_hd.o(.text)
    SDIO_IRQHandler                          0x0800015f   Thumb Code     0  startup_gd32f30x_hd.o(.text)
    SPI0_IRQHandler                          0x0800015f   Thumb Code     0  startup_gd32f30x_hd.o(.text)
    SPI1_IRQHandler                          0x0800015f   Thumb Code     0  startup_gd32f30x_hd.o(.text)
    SPI2_IRQHandler                          0x0800015f   Thumb Code     0  startup_gd32f30x_hd.o(.text)
    TAMPER_IRQHandler                        0x0800015f   Thumb Code     0  startup_gd32f30x_hd.o(.text)
    TIMER0_BRK_IRQHandler                    0x0800015f   Thumb Code     0  startup_gd32f30x_hd.o(.text)
    TIMER0_Channel_IRQHandler                0x0800015f   Thumb Code     0  startup_gd32f30x_hd.o(.text)
    TIMER0_TRG_CMT_IRQHandler                0x0800015f   Thumb Code     0  startup_gd32f30x_hd.o(.text)
    TIMER0_UP_IRQHandler                     0x0800015f   Thumb Code     0  startup_gd32f30x_hd.o(.text)
    TIMER1_IRQHandler                        0x0800015f   Thumb Code     0  startup_gd32f30x_hd.o(.text)
    TIMER2_IRQHandler                        0x0800015f   Thumb Code     0  startup_gd32f30x_hd.o(.text)
    TIMER3_IRQHandler                        0x0800015f   Thumb Code     0  startup_gd32f30x_hd.o(.text)
    TIMER4_IRQHandler                        0x0800015f   Thumb Code     0  startup_gd32f30x_hd.o(.text)
    TIMER5_IRQHandler                        0x0800015f   Thumb Code     0  startup_gd32f30x_hd.o(.text)
    TIMER6_IRQHandler                        0x0800015f   Thumb Code     0  startup_gd32f30x_hd.o(.text)
    TIMER7_BRK_IRQHandler                    0x0800015f   Thumb Code     0  startup_gd32f30x_hd.o(.text)
    TIMER7_Channel_IRQHandler                0x0800015f   Thumb Code     0  startup_gd32f30x_hd.o(.text)
    TIMER7_TRG_CMT_IRQHandler                0x0800015f   Thumb Code     0  startup_gd32f30x_hd.o(.text)
    TIMER7_UP_IRQHandler                     0x0800015f   Thumb Code     0  startup_gd32f30x_hd.o(.text)
    UART3_IRQHandler                         0x0800015f   Thumb Code     0  startup_gd32f30x_hd.o(.text)
    UART4_IRQHandler                         0x0800015f   Thumb Code     0  startup_gd32f30x_hd.o(.text)
    USART1_IRQHandler                        0x0800015f   Thumb Code     0  startup_gd32f30x_hd.o(.text)
    USART2_IRQHandler                        0x0800015f   Thumb Code     0  startup_gd32f30x_hd.o(.text)
    USBD_HP_CAN0_TX_IRQHandler               0x0800015f   Thumb Code     0  startup_gd32f30x_hd.o(.text)
    USBD_LP_CAN0_RX0_IRQHandler              0x0800015f   Thumb Code     0  startup_gd32f30x_hd.o(.text)
    USBD_WKUP_IRQHandler                     0x0800015f   Thumb Code     0  startup_gd32f30x_hd.o(.text)
    WWDGT_IRQHandler                         0x0800015f   Thumb Code     0  startup_gd32f30x_hd.o(.text)
    __aeabi_uldivmod                         0x08000169   Thumb Code    98  uldiv.o(.text)
    __scatterload                            0x080001cd   Thumb Code    28  init.o(.text)
    __scatterload_rt2                        0x080001cd   Thumb Code     0  init.o(.text)
    __aeabi_llsl                             0x080001f1   Thumb Code    30  llshl.o(.text)
    _ll_shift_l                              0x080001f1   Thumb Code     0  llshl.o(.text)
    __aeabi_llsr                             0x0800020f   Thumb Code    32  llushr.o(.text)
    _ll_ushift_r                             0x0800020f   Thumb Code     0  llushr.o(.text)
    AT24CXX_Read                             0x0800022f   Thumb Code    34  at24cxx_drv.o(i.AT24CXX_Read)
    AT24CXX_ReadOneByte                      0x08000251   Thumb Code    82  at24cxx_drv.o(i.AT24CXX_ReadOneByte)
    AT24CXX_Write                            0x080002a3   Thumb Code    36  at24cxx_drv.o(i.AT24CXX_Write)
    AT24CXX_WriteOneByte                     0x080002c7   Thumb Code    80  at24cxx_drv.o(i.AT24CXX_WriteOneByte)
    AT24CxxDrvInit                           0x08000317   Thumb Code     8  at24cxx_drv.o(i.AT24CxxDrvInit)
    At24cxxDrvTest                           0x08000331   Thumb Code   140  at24cxx_drv.o(i.At24cxxDrvTest)
    IIC_Ack                                  0x0800044d   Thumb Code    64  i2c_drv.o(i.IIC_Ack)
    IIC_Init                                 0x08000491   Thumb Code    44  i2c_drv.o(i.IIC_Init)
    IIC_NAck                                 0x080004c1   Thumb Code    48  i2c_drv.o(i.IIC_NAck)
    IIC_Read_Byte                            0x080004f5   Thumb Code    84  i2c_drv.o(i.IIC_Read_Byte)
    IIC_Send_Byte                            0x0800054d   Thumb Code    74  i2c_drv.o(i.IIC_Send_Byte)
    IIC_Start                                0x0800059d   Thumb Code    60  i2c_drv.o(i.IIC_Start)
    IIC_Stop                                 0x080005dd   Thumb Code    48  i2c_drv.o(i.IIC_Stop)
    IIC_Wait_Ack                             0x08000611   Thumb Code    88  i2c_drv.o(i.IIC_Wait_Ack)
    SystemInit                               0x08000679   Thumb Code   156  system_gd32f30x.o(i.SystemInit)
    USART0_IRQHandler                        0x08000721   Thumb Code    92  usb2com_drv.o(i.USART0_IRQHandler)
    Usb2ComDrvInit                           0x08000789   Thumb Code    20  usb2com_drv.o(i.Usb2ComDrvInit)
    __0printf$8                              0x080008ad   Thumb Code    22  printf8.o(i.__0printf$8)
    __1printf$8                              0x080008ad   Thumb Code     0  printf8.o(i.__0printf$8)
    __2printf                                0x080008ad   Thumb Code     0  printf8.o(i.__0printf$8)
    __scatterload_copy                       0x080008cd   Thumb Code    14  handlers.o(i.__scatterload_copy)
    __scatterload_null                       0x080008db   Thumb Code     2  handlers.o(i.__scatterload_null)
    __scatterload_zeroinit                   0x080008dd   Thumb Code    14  handlers.o(i.__scatterload_zeroinit)
    delay_init                               0x08000d51   Thumb Code    36  delay.o(i.delay_init)
    delay_ms                                 0x08000d79   Thumb Code    50  delay.o(i.delay_ms)
    delay_us                                 0x08000db1   Thumb Code    72  delay.o(i.delay_us)
    dma_channel_disable                      0x08000dfd   Thumb Code    50  gd32f30x_dma.o(i.dma_channel_disable)
    dma_channel_enable                       0x08000e2f   Thumb Code    50  gd32f30x_dma.o(i.dma_channel_enable)
    dma_deinit                               0x08000e61   Thumb Code   112  gd32f30x_dma.o(i.dma_deinit)
    dma_init                                 0x08000ed1   Thumb Code   302  gd32f30x_dma.o(i.dma_init)
    dma_transfer_number_config               0x08001019   Thumb Code    38  gd32f30x_dma.o(i.dma_transfer_number_config)
    dma_transfer_number_get                  0x0800103f   Thumb Code    34  gd32f30x_dma.o(i.dma_transfer_number_get)
    fputc                                    0x08001061   Thumb Code    36  usb2com_drv.o(i.fputc)
    gpio_bit_write                           0x08001089   Thumb Code    10  gd32f30x_gpio.o(i.gpio_bit_write)
    gpio_init                                0x08001093   Thumb Code   188  gd32f30x_gpio.o(i.gpio_init)
    gpio_input_bit_get                       0x0800114f   Thumb Code    16  gd32f30x_gpio.o(i.gpio_input_bit_get)
    main                                     0x0800115f   Thumb Code    12  main.o(i.main)
    nvic_irq_enable                          0x0800116d   Thumb Code   186  gd32f30x_misc.o(i.nvic_irq_enable)
    nvic_priority_group_set                  0x08001231   Thumb Code    10  gd32f30x_misc.o(i.nvic_priority_group_set)
    rcu_clock_freq_get                       0x08001245   Thumb Code   310  gd32f30x_rcu.o(i.rcu_clock_freq_get)
    rcu_periph_clock_enable                  0x0800139d   Thumb Code    28  gd32f30x_rcu.o(i.rcu_periph_clock_enable)
    rcu_periph_reset_disable                 0x080013bd   Thumb Code    28  gd32f30x_rcu.o(i.rcu_periph_reset_disable)
    rcu_periph_reset_enable                  0x080013dd   Thumb Code    28  gd32f30x_rcu.o(i.rcu_periph_reset_enable)
    usart_baudrate_set                       0x08001519   Thumb Code   136  gd32f30x_usart.o(i.usart_baudrate_set)
    usart_data_receive                       0x080015a9   Thumb Code    10  gd32f30x_usart.o(i.usart_data_receive)
    usart_data_transmit                      0x080015b3   Thumb Code     8  gd32f30x_usart.o(i.usart_data_transmit)
    usart_deinit                             0x080015bd   Thumb Code   136  gd32f30x_usart.o(i.usart_deinit)
    usart_dma_receive_config                 0x0800164d   Thumb Code    20  gd32f30x_usart.o(i.usart_dma_receive_config)
    usart_enable                             0x08001661   Thumb Code    10  gd32f30x_usart.o(i.usart_enable)
    usart_flag_get                           0x0800166b   Thumb Code    30  gd32f30x_usart.o(i.usart_flag_get)
    usart_interrupt_enable                   0x08001689   Thumb Code    26  gd32f30x_usart.o(i.usart_interrupt_enable)
    usart_interrupt_flag_clear               0x080016a3   Thumb Code    18  gd32f30x_usart.o(i.usart_interrupt_flag_clear)
    usart_interrupt_flag_get                 0x080016b5   Thumb Code    56  gd32f30x_usart.o(i.usart_interrupt_flag_get)
    usart_parity_config                      0x080016ed   Thumb Code    16  gd32f30x_usart.o(i.usart_parity_config)
    usart_receive_config                     0x080016fd   Thumb Code    20  gd32f30x_usart.o(i.usart_receive_config)
    usart_stop_bit_set                       0x08001711   Thumb Code    16  gd32f30x_usart.o(i.usart_stop_bit_set)
    usart_transmit_config                    0x08001721   Thumb Code    20  gd32f30x_usart.o(i.usart_transmit_config)
    usart_word_length_set                    0x08001735   Thumb Code    16  gd32f30x_usart.o(i.usart_word_length_set)
    Region$$Table$$Base                      0x08001744   Number         0  anon$$obj.o(Region$$Table)
    Region$$Table$$Limit                     0x08001764   Number         0  anon$$obj.o(Region$$Table)
    g_Usb2comUart0                           0x20000008   Data          32  usb2com_drv.o(.data)
    __stdout                                 0x20000028   Data           4  stdout.o(.data)
    g_RxPackageData                          0x2000002c   Data          20  usb2com_drv.o(.bss)
    __initial_sp                             0x20000440   Data           0  startup_gd32f30x_hd.o(STACK)



==============================================================================

Memory Map of the image

  Image Entry point : 0x08000131

  Load Region LR_IROM1 (Base: 0x08000000, Size: 0x00001790, Max: 0x00040000, ABSOLUTE)

    Execution Region ER_IROM1 (Exec base: 0x08000000, Load base: 0x08000000, Size: 0x00001764, Max: 0x00040000, ABSOLUTE)

    Exec Addr    Load Addr    Size         Type   Attr      Idx    E Section Name        Object

    0x08000000   0x08000000   0x00000130   Data   RO          495    RESET               startup_gd32f30x_hd.o
    0x08000130   0x08000130   0x00000000   Code   RO         1806  * .ARM.Collect$$$$00000000  mc_w.l(entry.o)
    0x08000130   0x08000130   0x00000004   Code   RO         2070    .ARM.Collect$$$$00000001  mc_w.l(entry2.o)
    0x08000134   0x08000134   0x00000004   Code   RO         2073    .ARM.Collect$$$$00000004  mc_w.l(entry5.o)
    0x08000138   0x08000138   0x00000000   Code   RO         2075    .ARM.Collect$$$$00000008  mc_w.l(entry7b.o)
    0x08000138   0x08000138   0x00000000   Code   RO         2077    .ARM.Collect$$$$0000000A  mc_w.l(entry8b.o)
    0x08000138   0x08000138   0x00000008   Code   RO         2078    .ARM.Collect$$$$0000000B  mc_w.l(entry9a.o)
    0x08000140   0x08000140   0x00000000   Code   RO         2080    .ARM.Collect$$$$0000000D  mc_w.l(entry10a.o)
    0x08000140   0x08000140   0x00000000   Code   RO         2082    .ARM.Collect$$$$0000000F  mc_w.l(entry11a.o)
    0x08000140   0x08000140   0x00000004   Code   RO         2071    .ARM.Collect$$$$00002712  mc_w.l(entry2.o)
    0x08000144   0x08000144   0x00000024   Code   RO          496    .text               startup_gd32f30x_hd.o
    0x08000168   0x08000168   0x00000062   Code   RO         2087    .text               mc_w.l(uldiv.o)
    0x080001ca   0x080001ca   0x00000002   PAD
    0x080001cc   0x080001cc   0x00000024   Code   RO         2100    .text               mc_w.l(init.o)
    0x080001f0   0x080001f0   0x0000001e   Code   RO         2102    .text               mc_w.l(llshl.o)
    0x0800020e   0x0800020e   0x00000020   Code   RO         2104    .text               mc_w.l(llushr.o)
    0x0800022e   0x0800022e   0x00000022   Code   RO          214    i.AT24CXX_Read      at24cxx_drv.o
    0x08000250   0x08000250   0x00000052   Code   RO          216    i.AT24CXX_ReadOneByte  at24cxx_drv.o
    0x080002a2   0x080002a2   0x00000024   Code   RO          217    i.AT24CXX_Write     at24cxx_drv.o
    0x080002c6   0x080002c6   0x00000050   Code   RO          219    i.AT24CXX_WriteOneByte  at24cxx_drv.o
    0x08000316   0x08000316   0x00000008   Code   RO          220    i.AT24CxxDrvInit    at24cxx_drv.o
    0x0800031e   0x0800031e   0x00000012   Code   RO            3    i.AllDrvInit        main.o
    0x08000330   0x08000330   0x0000011c   Code   RO          221    i.At24cxxDrvTest    at24cxx_drv.o
    0x0800044c   0x0800044c   0x00000044   Code   RO          142    i.IIC_Ack           i2c_drv.o
    0x08000490   0x08000490   0x00000030   Code   RO          143    i.IIC_Init          i2c_drv.o
    0x080004c0   0x080004c0   0x00000034   Code   RO          144    i.IIC_NAck          i2c_drv.o
    0x080004f4   0x080004f4   0x00000058   Code   RO          145    i.IIC_Read_Byte     i2c_drv.o
    0x0800054c   0x0800054c   0x00000050   Code   RO          146    i.IIC_Send_Byte     i2c_drv.o
    0x0800059c   0x0800059c   0x00000040   Code   RO          147    i.IIC_Start         i2c_drv.o
    0x080005dc   0x080005dc   0x00000034   Code   RO          148    i.IIC_Stop          i2c_drv.o
    0x08000610   0x08000610   0x0000005c   Code   RO          149    i.IIC_Wait_Ack      i2c_drv.o
    0x0800066c   0x0800066c   0x0000000a   Code   RO          150    i.IIC_delay         i2c_drv.o
    0x08000676   0x08000676   0x00000002   PAD
    0x08000678   0x08000678   0x000000a8   Code   RO          441    i.SystemInit        system_gd32f30x.o
    0x08000720   0x08000720   0x00000068   Code   RO          317    i.USART0_IRQHandler  usb2com_drv.o
    0x08000788   0x08000788   0x00000014   Code   RO          318    i.Usb2ComDrvInit    usb2com_drv.o
    0x0800079c   0x0800079c   0x0000002c   Code   RO          319    i.Usb2ComGpioInit   usb2com_drv.o
    0x080007c8   0x080007c8   0x00000074   Code   RO          322    i.Usb2ComUartInit   usb2com_drv.o
    0x0800083c   0x0800083c   0x00000070   Code   RO          323    i.Usb2comDmaInit    usb2com_drv.o
    0x080008ac   0x080008ac   0x00000020   Code   RO         2016    i.__0printf$8       mc_w.l(printf8.o)
    0x080008cc   0x080008cc   0x0000000e   Code   RO         2112    i.__scatterload_copy  mc_w.l(handlers.o)
    0x080008da   0x080008da   0x00000002   Code   RO         2113    i.__scatterload_null  mc_w.l(handlers.o)
    0x080008dc   0x080008dc   0x0000000e   Code   RO         2114    i.__scatterload_zeroinit  mc_w.l(handlers.o)
    0x080008ea   0x080008ea   0x00000002   PAD
    0x080008ec   0x080008ec   0x00000410   Code   RO         2023    i._printf_core      mc_w.l(printf8.o)
    0x08000cfc   0x08000cfc   0x00000024   Code   RO         2024    i._printf_post_padding  mc_w.l(printf8.o)
    0x08000d20   0x08000d20   0x0000002e   Code   RO         2025    i._printf_pre_padding  mc_w.l(printf8.o)
    0x08000d4e   0x08000d4e   0x00000002   PAD
    0x08000d50   0x08000d50   0x00000028   Code   RO          282    i.delay_init        delay.o
    0x08000d78   0x08000d78   0x00000038   Code   RO          283    i.delay_ms          delay.o
    0x08000db0   0x08000db0   0x0000004c   Code   RO          284    i.delay_us          delay.o
    0x08000dfc   0x08000dfc   0x00000032   Code   RO         1621    i.dma_channel_disable  gd32f30x_dma.o
    0x08000e2e   0x08000e2e   0x00000032   Code   RO         1622    i.dma_channel_enable  gd32f30x_dma.o
    0x08000e60   0x08000e60   0x00000070   Code   RO         1625    i.dma_deinit        gd32f30x_dma.o
    0x08000ed0   0x08000ed0   0x0000012e   Code   RO         1628    i.dma_init          gd32f30x_dma.o
    0x08000ffe   0x08000ffe   0x00000002   PAD
    0x08001000   0x08001000   0x00000018   Code   RO         1640    i.dma_periph_and_channel_check  gd32f30x_dma.o
    0x08001018   0x08001018   0x00000026   Code   RO         1647    i.dma_transfer_number_config  gd32f30x_dma.o
    0x0800103e   0x0800103e   0x00000022   Code   RO         1648    i.dma_transfer_number_get  gd32f30x_dma.o
    0x08001060   0x08001060   0x00000028   Code   RO          324    i.fputc             usb2com_drv.o
    0x08001088   0x08001088   0x0000000a   Code   RO         1031    i.gpio_bit_write    gd32f30x_gpio.o
    0x08001092   0x08001092   0x000000bc   Code   RO         1039    i.gpio_init         gd32f30x_gpio.o
    0x0800114e   0x0800114e   0x00000010   Code   RO         1040    i.gpio_input_bit_get  gd32f30x_gpio.o
    0x0800115e   0x0800115e   0x0000000c   Code   RO            4    i.main              main.o
    0x0800116a   0x0800116a   0x00000002   PAD
    0x0800116c   0x0800116c   0x000000c4   Code   RO         1566    i.nvic_irq_enable   gd32f30x_misc.o
    0x08001230   0x08001230   0x00000014   Code   RO         1567    i.nvic_priority_group_set  gd32f30x_misc.o
    0x08001244   0x08001244   0x00000158   Code   RO          783    i.rcu_clock_freq_get  gd32f30x_rcu.o
    0x0800139c   0x0800139c   0x00000020   Code   RO          801    i.rcu_periph_clock_enable  gd32f30x_rcu.o
    0x080013bc   0x080013bc   0x00000020   Code   RO          804    i.rcu_periph_reset_disable  gd32f30x_rcu.o
    0x080013dc   0x080013dc   0x00000020   Code   RO          805    i.rcu_periph_reset_enable  gd32f30x_rcu.o
    0x080013fc   0x080013fc   0x00000114   Code   RO          442    i.system_clock_120m_hxtal  system_gd32f30x.o
    0x08001510   0x08001510   0x00000008   Code   RO          443    i.system_clock_config  system_gd32f30x.o
    0x08001518   0x08001518   0x00000090   Code   RO         1160    i.usart_baudrate_set  gd32f30x_usart.o
    0x080015a8   0x080015a8   0x0000000a   Code   RO         1163    i.usart_data_receive  gd32f30x_usart.o
    0x080015b2   0x080015b2   0x00000008   Code   RO         1164    i.usart_data_transmit  gd32f30x_usart.o
    0x080015ba   0x080015ba   0x00000002   PAD
    0x080015bc   0x080015bc   0x00000090   Code   RO         1165    i.usart_deinit      gd32f30x_usart.o
    0x0800164c   0x0800164c   0x00000014   Code   RO         1167    i.usart_dma_receive_config  gd32f30x_usart.o
    0x08001660   0x08001660   0x0000000a   Code   RO         1169    i.usart_enable      gd32f30x_usart.o
    0x0800166a   0x0800166a   0x0000001e   Code   RO         1171    i.usart_flag_get    gd32f30x_usart.o
    0x08001688   0x08001688   0x0000001a   Code   RO         1178    i.usart_interrupt_enable  gd32f30x_usart.o
    0x080016a2   0x080016a2   0x00000012   Code   RO         1179    i.usart_interrupt_flag_clear  gd32f30x_usart.o
    0x080016b4   0x080016b4   0x00000038   Code   RO         1180    i.usart_interrupt_flag_get  gd32f30x_usart.o
    0x080016ec   0x080016ec   0x00000010   Code   RO         1191    i.usart_parity_config  gd32f30x_usart.o
    0x080016fc   0x080016fc   0x00000014   Code   RO         1193    i.usart_receive_config  gd32f30x_usart.o
    0x08001710   0x08001710   0x00000010   Code   RO         1203    i.usart_stop_bit_set  gd32f30x_usart.o
    0x08001720   0x08001720   0x00000014   Code   RO         1207    i.usart_transmit_config  gd32f30x_usart.o
    0x08001734   0x08001734   0x00000010   Code   RO         1208    i.usart_word_length_set  gd32f30x_usart.o
    0x08001744   0x08001744   0x00000020   Data   RO         2110    Region$$Table       anon$$obj.o


    Execution Region RW_IRAM1 (Exec base: 0x20000000, Load base: 0x08001764, Size: 0x00000440, Max: 0x0000c000, ABSOLUTE)

    Exec Addr    Load Addr    Size         Type   Attr      Idx    E Section Name        Object

    0x20000000   0x08001764   0x00000002   Data   RW          285    .data               delay.o
    0x20000002   0x08001766   0x00000002   PAD
    0x20000004   0x08001768   0x00000024   Data   RW          327    .data               usb2com_drv.o
    0x20000028   0x0800178c   0x00000004   Data   RW         2084    .data               mc_w.l(stdout.o)
    0x2000002c        -       0x00000014   Zero   RW          326    .bss                usb2com_drv.o
    0x20000040        -       0x00000400   Zero   RW          493    STACK               startup_gd32f30x_hd.o


==============================================================================

Image component sizes


      Code (inc. data)   RO Data    RW Data    ZI Data      Debug   Object Name

       524        144          0          0          0       4350   at24cxx_drv.o
       172         14          0          2          0       1815   delay.o
       610          6          0          0          0       9750   gd32f30x_dma.o
       214          0          0          0          0      14126   gd32f30x_gpio.o
       216         20          0          0          0       1384   gd32f30x_misc.o
       440         46          0          0          0      19840   gd32f30x_rcu.o
       554         16          0          0          0      15721   gd32f30x_usart.o
       554         34          0          0          0       4678   i2c_drv.o
        30          0          0          0          0      31159   main.o
        36          8        304          0       1024        812   startup_gd32f30x_hd.o
       452         30          0          0          0       2397   system_gd32f30x.o
       436         40          0         36         20       5650   usb2com_drv.o

    ----------------------------------------------------------------------
      4246        358        336         40       1044     111682   Object Totals
         0          0         32          0          0          0   (incl. Generated)
         8          0          0          2          0          0   (incl. Padding)

    ----------------------------------------------------------------------

      Code (inc. data)   RO Data    RW Data    ZI Data      Debug   Library Member Name

         0          0          0          0          0          0   entry.o
         0          0          0          0          0          0   entry10a.o
         0          0          0          0          0          0   entry11a.o
         8          4          0          0          0          0   entry2.o
         4          0          0          0          0          0   entry5.o
         0          0          0          0          0          0   entry7b.o
         0          0          0          0          0          0   entry8b.o
         8          4          0          0          0          0   entry9a.o
        30          0          0          0          0          0   handlers.o
        36          8          0          0          0         68   init.o
        30          0          0          0          0         68   llshl.o
        32          0          0          0          0         68   llushr.o
      1154         54          0          0          0        352   printf8.o
         0          0          0          4          0          0   stdout.o
        98          0          0          0          0         92   uldiv.o

    ----------------------------------------------------------------------
      1406         70          0          4          0        648   Library Totals
         6          0          0          0          0          0   (incl. Padding)

    ----------------------------------------------------------------------

      Code (inc. data)   RO Data    RW Data    ZI Data      Debug   Library Name

      1400         70          0          4          0        648   mc_w.l

    ----------------------------------------------------------------------
      1406         70          0          4          0        648   Library Totals

    ----------------------------------------------------------------------

==============================================================================


      Code (inc. data)   RO Data    RW Data    ZI Data      Debug   

      5652        428        336         44       1044     106674   Grand Totals
      5652        428        336         44       1044     106674   ELF Image Totals
      5652        428        336         44          0          0   ROM Totals

==============================================================================

    Total RO  Size (Code + RO Data)                 5988 (   5.85kB)
    Total RW  Size (RW Data + ZI Data)              1088 (   1.06kB)
    Total ROM Size (Code + RO Data + RW Data)       6032 (   5.89kB)

==============================================================================

