Component: ARM Compiler 5.06 update 6 (build 750) Tool: armlink [4d35ed]

==============================================================================

Section Cross References

    main.o(i.AllDrvInit) refers to usb2com_drv.o(i.Usb2ComDrvInit) for Usb2ComDrvInit
    main.o(i.AllDrvInit) refers to delay.o(i.delay_init) for delay_init
    main.o(i.AllDrvInit) refers to aht10_drv.o(i.AHT10_Init) for AHT10_Init
    main.o(i.AllDrvInit) refers to timer_drv.o(i.TimerDrvInit) for TimerDrvInit
    main.o(i.main) refers to main.o(i.AllDrvInit) for AllDrvInit
    main.o(i.main) refers to aht10_drv.o(i.AHT10DrvTest) for AHT10DrvTest
    delay.o(i.delay_init) refers to delay.o(.data) for g_fac_us
    delay.o(i.delay_ms) refers to delay.o(i.delay_us) for delay_us
    delay.o(i.delay_us) refers to delay.o(.data) for g_fac_us
    i2c_drv.o(i.IIC_Ack) refers to gd32f30x_gpio.o(i.gpio_bit_write) for gpio_bit_write
    i2c_drv.o(i.IIC_Ack) refers to i2c_drv.o(i.IIC_delay) for IIC_delay
    i2c_drv.o(i.IIC_Init) refers to gd32f30x_rcu.o(i.rcu_periph_clock_enable) for rcu_periph_clock_enable
    i2c_drv.o(i.IIC_Init) refers to gd32f30x_gpio.o(i.gpio_init) for gpio_init
    i2c_drv.o(i.IIC_Init) refers to i2c_drv.o(i.IIC_Stop) for IIC_Stop
    i2c_drv.o(i.IIC_NAck) refers to gd32f30x_gpio.o(i.gpio_bit_write) for gpio_bit_write
    i2c_drv.o(i.IIC_NAck) refers to i2c_drv.o(i.IIC_delay) for IIC_delay
    i2c_drv.o(i.IIC_Read_Byte) refers to gd32f30x_gpio.o(i.gpio_bit_write) for gpio_bit_write
    i2c_drv.o(i.IIC_Read_Byte) refers to i2c_drv.o(i.IIC_delay) for IIC_delay
==============================================================================

Removing Unused input sections from the image.

    Removing main.o(.rev16_text), (4 bytes).
    Removing main.o(.revsh_text), (4 bytes).
    Removing delay.o(.rev16_text), (4 bytes).
    Removing delay.o(.revsh_text), (4 bytes).
    Removing i2c_drv.o(.rev16_text), (4 bytes).
    Removing i2c_drv.o(.revsh_text), (4 bytes).
    Removing usb2com_drv.o(.rev16_text), (4 bytes).
    Removing usb2com_drv.o(.revsh_text), (4 bytes).
    Removing usb2com_drv.o(i.Usb2ComTxTesting), (48 bytes).
    Removing aht10_drv.o(.rev16_text), (4 bytes).
    Removing aht10_drv.o(.revsh_text), (4 bytes).
    Removing timer_drv.o(.rev16_text), (4 bytes).
    Removing timer_drv.o(.revsh_text), (4 bytes).
    Removing timer_drv.o(.data), (4 bytes).
    Removing startup_gd32f30x_hd.o(HEAP), (1024 bytes).
    Removing system_gd32f30x.o(.rev16_text), (4 bytes).
    Removing system_gd32f30x.o(.revsh_text), (4 bytes).
    Removing system_gd32f30x.o(i.SystemCoreClockUpdate), (316 bytes).
==============================================================================

Image Symbol Table

    Local Symbols

    Symbol Name                              Value     Ov Type        Size  Object(Section)

    ../clib/microlib/division.c              0x00000000   Number         0  uldiv.o ABSOLUTE
    ../clib/microlib/division.c              0x00000000   Number         0  uidiv.o ABSOLUTE
    ../clib/microlib/init/entry.s            0x00000000   Number         0  entry11a.o ABSOLUTE
    ../clib/microlib/init/entry.s            0x00000000   Number         0  entry8b.o ABSOLUTE
    ../clib/microlib/init/entry.s            0x00000000   Number         0  entry5.o ABSOLUTE
    ../clib/microlib/init/entry.s            0x00000000   Number         0  entry9a.o ABSOLUTE
    ../clib/microlib/init/entry.s            0x00000000   Number         0  entry9b.o ABSOLUTE
    ../clib/microlib/init/entry.s            0x00000000   Number         0  entry11b.o ABSOLUTE
    ../clib/microlib/init/entry.s            0x00000000   Number         0  entry10a.o ABSOLUTE
    ../clib/microlib/init/entry.s            0x00000000   Number         0  entry10b.o ABSOLUTE
    ../clib/microlib/init/entry.s            0x00000000   Number         0  entry.o ABSOLUTE
    ../clib/microlib/init/entry.s            0x00000000   Number         0  entry8a.o ABSOLUTE
    ../clib/microlib/init/entry.s            0x00000000   Number         0  entry7b.o ABSOLUTE
    ../clib/microlib/init/entry.s            0x00000000   Number         0  entry7a.o ABSOLUTE
    ../clib/microlib/init/entry.s            0x00000000   Number         0  entry2.o ABSOLUTE
    ../clib/microlib/longlong.c              0x00000000   Number         0  llshl.o ABSOLUTE
    ../clib/microlib/longlong.c              0x00000000   Number         0  llsshr.o ABSOLUTE
    ../clib/microlib/longlong.c              0x00000000   Number         0  llushr.o ABSOLUTE
    ../clib/microlib/printf/printf.c         0x00000000   Number         0  printf3.o ABSOLUTE
    ../clib/microlib/printf/printf.c         0x00000000   Number         0  printf2.o ABSOLUTE
    ../clib/microlib/printf/printf.c         0x00000000   Number         0  printf1.o ABSOLUTE
    ../clib/microlib/printf/printf.c         0x00000000   Number         0  printf0.o ABSOLUTE
    ../clib/microlib/printf/printf.c         0x00000000   Number         0  printfb.o ABSOLUTE
    ../clib/microlib/printf/printf.c         0x00000000   Number         0  printf5.o ABSOLUTE
    ../clib/microlib/printf/printf.c         0x00000000   Number         0  printfa.o ABSOLUTE
    ../clib/microlib/printf/printf.c         0x00000000   Number         0  printf4.o ABSOLUTE
    ../clib/microlib/printf/printf.c         0x00000000   Number         0  printf8.o ABSOLUTE
    ../clib/microlib/printf/printf.c         0x00000000   Number         0  printf7.o ABSOLUTE
    ../clib/microlib/printf/printf.c         0x00000000   Number         0  printf6.o ABSOLUTE
    ../clib/microlib/printf/stubs.s          0x00000000   Number         0  stubs.o ABSOLUTE
    ../clib/microlib/stdio/streams.c         0x00000000   Number         0  stdout.o ABSOLUTE
    ../clib/microlib/stubs.s                 0x00000000   Number         0  iusefp.o ABSOLUTE
    ../fplib/microlib/d2f.c                  0x00000000   Number         0  d2f.o ABSOLUTE
    ../fplib/microlib/f2d.c                  0x00000000   Number         0  f2d.o ABSOLUTE
    ../fplib/microlib/fpadd.c                0x00000000   Number         0  dadd.o ABSOLUTE
    ../fplib/microlib/fpdiv.c                0x00000000   Number         0  ddiv.o ABSOLUTE
    ../fplib/microlib/fpepilogue.c           0x00000000   Number         0  fepilogue.o ABSOLUTE
    ../fplib/microlib/fpepilogue.c           0x00000000   Number         0  depilogue.o ABSOLUTE
    ../fplib/microlib/fpfix.c                0x00000000   Number         0  dfixul.o ABSOLUTE
    ../fplib/microlib/fpflt.c                0x00000000   Number         0  dfltui.o ABSOLUTE
    ../fplib/microlib/fpmul.c                0x00000000   Number         0  dmul.o ABSOLUTE
    App\\main.c                              0x00000000   Number         0  main.o ABSOLUTE
    App\main.c                               0x00000000   Number         0  main.o ABSOLUTE
    Arm\\system_gd32f30x.c                   0x00000000   Number         0  system_gd32f30x.o ABSOLUTE
    Arm\startup_gd32f30x_hd.s                0x00000000   Number         0  startup_gd32f30x_hd.o ABSOLUTE
    Arm\system_gd32f30x.c                    0x00000000   Number         0  system_gd32f30x.o ABSOLUTE
    Driver\Usb2Com_drv.c                     0x00000000   Number         0  usb2com_drv.o ABSOLUTE
    Driver\\Usb2Com_drv.c                    0x00000000   Number         0  usb2com_drv.o ABSOLUTE
    Driver\\aht10_drv.c                      0x00000000   Number         0  aht10_drv.o ABSOLUTE
    Driver\\delay.c                          0x00000000   Number         0  delay.o ABSOLUTE
    Driver\\i2c_drv.c                        0x00000000   Number         0  i2c_drv.o ABSOLUTE
    Driver\\timer_drv.c                      0x00000000   Number         0  timer_drv.o ABSOLUTE
    Driver\aht10_drv.c                       0x00000000   Number         0  aht10_drv.o ABSOLUTE
    Driver\delay.c                           0x00000000   Number         0  delay.o ABSOLUTE
    Driver\i2c_drv.c                         0x00000000   Number         0  i2c_drv.o ABSOLUTE
    Driver\timer_drv.c                       0x00000000   Number         0  timer_drv.o ABSOLUTE
    GD32_Lib\Source\gd32f30x_dma.c           0x00000000   Number         0  gd32f30x_dma.o ABSOLUTE
    GD32_Lib\Source\gd32f30x_gpio.c          0x00000000   Number         0  gd32f30x_gpio.o ABSOLUTE
    GD32_Lib\Source\gd32f30x_i2c.c           0x00000000   Number         0  gd32f30x_i2c.o ABSOLUTE
    GD32_Lib\Source\gd32f30x_misc.c          0x00000000   Number         0  gd32f30x_misc.o ABSOLUTE
    GD32_Lib\Source\gd32f30x_rcu.c           0x00000000   Number         0  gd32f30x_rcu.o ABSOLUTE
    GD32_Lib\Source\gd32f30x_timer.c         0x00000000   Number         0  gd32f30x_timer.o ABSOLUTE
    GD32_Lib\Source\gd32f30x_usart.c         0x00000000   Number         0  gd32f30x_usart.o ABSOLUTE
    GD32_Lib\\Source\\gd32f30x_dma.c         0x00000000   Number         0  gd32f30x_dma.o ABSOLUTE
    GD32_Lib\\Source\\gd32f30x_gpio.c        0x00000000   Number         0  gd32f30x_gpio.o ABSOLUTE
    GD32_Lib\\Source\\gd32f30x_i2c.c         0x00000000   Number         0  gd32f30x_i2c.o ABSOLUTE
    GD32_Lib\\Source\\gd32f30x_misc.c        0x00000000   Number         0  gd32f30x_misc.o ABSOLUTE
    GD32_Lib\\Source\\gd32f30x_rcu.c         0x00000000   Number         0  gd32f30x_rcu.o ABSOLUTE
    GD32_Lib\\Source\\gd32f30x_timer.c       0x00000000   Number         0  gd32f30x_timer.o ABSOLUTE
    GD32_Lib\\Source\\gd32f30x_usart.c       0x00000000   Number         0  gd32f30x_usart.o ABSOLUTE
    cdcmple.s                                0x00000000   Number         0  cdcmple.o ABSOLUTE
    cdrcmple.s                               0x00000000   Number         0  cdrcmple.o ABSOLUTE
    dc.s                                     0x00000000   Number         0  dc.o ABSOLUTE
    handlers.s                               0x00000000   Number         0  handlers.o ABSOLUTE
    init.s                                   0x00000000   Number         0  init.o ABSOLUTE
    RESET                                    0x08000000   Section      304  startup_gd32f30x_hd.o(RESET)
    .ARM.Collect$$$$00000000                 0x08000130   Section        0  entry.o(.ARM.Collect$$$$00000000)
    .ARM.Collect$$$$00000001                 0x08000130   Section        4  entry2.o(.ARM.Collect$$$$00000001)
    .ARM.Collect$$$$00000004                 0x08000134   Section        4  entry5.o(.ARM.Collect$$$$00000004)
    .ARM.Collect$$$$00000008                 0x08000138   Section        0  entry7b.o(.ARM.Collect$$$$00000008)
    .ARM.Collect$$$$0000000A                 0x08000138   Section        0  entry8b.o(.ARM.Collect$$$$0000000A)
    .ARM.Collect$$$$0000000B                 0x08000138   Section        8  entry9a.o(.ARM.Collect$$$$0000000B)
    .ARM.Collect$$$$0000000D                 0x08000140   Section        0  entry10a.o(.ARM.Collect$$$$0000000D)
    .ARM.Collect$$$$0000000F                 0x08000140   Section        0  entry11a.o(.ARM.Collect$$$$0000000F)
    .ARM.Collect$$$$00002712                 0x08000140   Section        4  entry2.o(.ARM.Collect$$$$00002712)
    __lit__00000000                          0x08000140   Data           4  entry2.o(.ARM.Collect$$$$00002712)
    .text                                    0x08000144   Section       36  startup_gd32f30x_hd.o(.text)
    $v0                                      0x08000144   Number         0  startup_gd32f30x_hd.o(.text)
    .text                                    0x08000168   Section        0  dadd.o(.text)
    .text                                    0x080002b6   Section        0  dmul.o(.text)
    .text                                    0x0800039a   Section        0  ddiv.o(.text)
    .text                                    0x08000478   Section        0  dfltui.o(.text)
    .text                                    0x08000492   Section        0  f2d.o(.text)
    .text                                    0x080004b8   Section       48  cdcmple.o(.text)
    .text                                    0x080004e8   Section        0  d2f.o(.text)
    .text                                    0x08000520   Section        0  uidiv.o(.text)
    .text                                    0x0800054c   Section        0  uldiv.o(.text)
    .text                                    0x080005ae   Section        0  llshl.o(.text)
    .text                                    0x080005cc   Section        0  llsshr.o(.text)
    .text                                    0x080005f0   Section        0  fepilogue.o(.text)
    .text                                    0x080005f0   Section        0  iusefp.o(.text)
    .text                                    0x0800065e   Section        0  depilogue.o(.text)
    .text                                    0x08000718   Section        0  dfixul.o(.text)
    .text                                    0x08000748   Section       48  cdrcmple.o(.text)
    .text                                    0x08000778   Section       36  init.o(.text)
    .text                                    0x0800079c   Section        0  llushr.o(.text)
    i.AHT10DrvTest                           0x080007bc   Section        0  aht10_drv.o(i.AHT10DrvTest)
    i.AHT10_Init                             0x080008f0   Section        0  aht10_drv.o(i.AHT10_Init)
    i.AHT10_ReadData                         0x08000900   Section        0  aht10_drv.o(i.AHT10_ReadData)
    i.AHT10_Trigger_Measure                  0x08000a3c   Section        0  aht10_drv.o(i.AHT10_Trigger_Measure)
    i.AllDrvInit                             0x08000ab0   Section        0  main.o(i.AllDrvInit)
    AllDrvInit                               0x08000ab1   Thumb Code    22  main.o(i.AllDrvInit)
    i.IIC_Ack                                0x08000ac8   Section        0  i2c_drv.o(i.IIC_Ack)
    i.IIC_Init                               0x08000b08   Section        0  i2c_drv.o(i.IIC_Init)
    i.IIC_NAck                               0x08000b34   Section        0  i2c_drv.o(i.IIC_NAck)
    i.IIC_Read_Byte                          0x08000b68   Section        0  i2c_drv.o(i.IIC_Read_Byte)
    i.IIC_Send_Byte                          0x08000bb0   Section        0  i2c_drv.o(i.IIC_Send_Byte)
    i.IIC_Start                              0x08000bfc   Section        0  i2c_drv.o(i.IIC_Start)
    i.IIC_Stop                               0x08000c38   Section        0  i2c_drv.o(i.IIC_Stop)
    i.IIC_Wait_Ack                           0x08000c6c   Section        0  i2c_drv.o(i.IIC_Wait_Ack)
    i.IIC_delay                              0x08000cc4   Section        0  i2c_drv.o(i.IIC_delay)
    IIC_delay                                0x08000cc5   Thumb Code    10  i2c_drv.o(i.IIC_delay)
    i.PwmUpdatePropor                        0x08000cd0   Section        0  timer_drv.o(i.PwmUpdatePropor)
    i.SystemInit                             0x08000d24   Section        0  system_gd32f30x.o(i.SystemInit)
    i.TimeInit                               0x08000dcc   Section        0  timer_drv.o(i.TimeInit)
    TimeInit                                 0x08000dcd   Thumb Code   110  timer_drv.o(i.TimeInit)
    i.TimerDrvInit                           0x08000e40   Section        0  timer_drv.o(i.TimerDrvInit)
    i.TimerGpioInit                          0x08000e54   Section        0  timer_drv.o(i.TimerGpioInit)
    TimerGpioInit                            0x08000e55   Thumb Code    26  timer_drv.o(i.TimerGpioInit)
    i.USART0_IRQHandler                      0x08000e74   Section        0  usb2com_drv.o(i.USART0_IRQHandler)
    i.Usb2ComDrvInit                         0x08000edc   Section        0  usb2com_drv.o(i.Usb2ComDrvInit)
    i.Usb2ComGpioInit                        0x08000ef0   Section        0  usb2com_drv.o(i.Usb2ComGpioInit)
    Usb2ComGpioInit                          0x08000ef1   Thumb Code    40  usb2com_drv.o(i.Usb2ComGpioInit)
    i.Usb2ComUartInit                        0x08000f1c   Section        0  usb2com_drv.o(i.Usb2ComUartInit)
    Usb2ComUartInit                          0x08000f1d   Thumb Code   108  usb2com_drv.o(i.Usb2ComUartInit)
    i.Usb2comDmaInit                         0x08000f90   Section        0  usb2com_drv.o(i.Usb2comDmaInit)
    Usb2comDmaInit                           0x08000f91   Thumb Code   100  usb2com_drv.o(i.Usb2comDmaInit)
    i.__0printf                              0x08001000   Section        0  printfa.o(i.__0printf)
    i.__scatterload_copy                     0x08001020   Section       14  handlers.o(i.__scatterload_copy)
    i.__scatterload_null                     0x0800102e   Section        2  handlers.o(i.__scatterload_null)
    i.__scatterload_zeroinit                 0x08001030   Section       14  handlers.o(i.__scatterload_zeroinit)
    i._fp_digits                             0x08001040   Section        0  printfa.o(i._fp_digits)
    _fp_digits                               0x08001041   Thumb Code   366  printfa.o(i._fp_digits)
    i._printf_core                           0x080011c4   Section        0  printfa.o(i._printf_core)
    _printf_core                             0x080011c5   Thumb Code  1744  printfa.o(i._printf_core)
    i._printf_post_padding                   0x080018a0   Section        0  printfa.o(i._printf_post_padding)
    _printf_post_padding                     0x080018a1   Thumb Code    36  printfa.o(i._printf_post_padding)
    i._printf_pre_padding                    0x080018c4   Section        0  printfa.o(i._printf_pre_padding)
    _printf_pre_padding                      0x080018c5   Thumb Code    46  printfa.o(i._printf_pre_padding)
    i.delay_init                             0x080018f4   Section        0  delay.o(i.delay_init)
    i.delay_ms                               0x0800191c   Section        0  delay.o(i.delay_ms)
    i.delay_us                               0x08001954   Section        0  delay.o(i.delay_us)
    i.dma_channel_disable                    0x080019a0   Section        0  gd32f30x_dma.o(i.dma_channel_disable)
    i.dma_channel_enable                     0x080019d2   Section        0  gd32f30x_dma.o(i.dma_channel_enable)
    i.dma_deinit                             0x08001a04   Section        0  gd32f30x_dma.o(i.dma_deinit)
    i.dma_init                               0x08001a74   Section        0  gd32f30x_dma.o(i.dma_init)
    i.dma_periph_and_channel_check           0x08001ba4   Section        0  gd32f30x_dma.o(i.dma_periph_and_channel_check)
    dma_periph_and_channel_check             0x08001ba5   Thumb Code    18  gd32f30x_dma.o(i.dma_periph_and_channel_check)
    i.dma_transfer_number_config             0x08001bbc   Section        0  gd32f30x_dma.o(i.dma_transfer_number_config)
    i.dma_transfer_number_get                0x08001be2   Section        0  gd32f30x_dma.o(i.dma_transfer_number_get)
    i.fputc                                  0x08001c04   Section        0  usb2com_drv.o(i.fputc)
    i.gpio_bit_write                         0x08001c2c   Section        0  gd32f30x_gpio.o(i.gpio_bit_write)
    i.gpio_init                              0x08001c36   Section        0  gd32f30x_gpio.o(i.gpio_init)
    i.gpio_input_bit_get                     0x08001cf2   Section        0  gd32f30x_gpio.o(i.gpio_input_bit_get)
    i.main                                   0x08001d02   Section        0  main.o(i.main)
    i.nvic_irq_enable                        0x08001d10   Section        0  gd32f30x_misc.o(i.nvic_irq_enable)
    i.nvic_priority_group_set                0x08001dd4   Section        0  gd32f30x_misc.o(i.nvic_priority_group_set)
    i.rcu_clock_freq_get                     0x08001de8   Section        0  gd32f30x_rcu.o(i.rcu_clock_freq_get)
    i.rcu_periph_clock_enable                0x08001f40   Section        0  gd32f30x_rcu.o(i.rcu_periph_clock_enable)
    i.rcu_periph_reset_disable               0x08001f60   Section        0  gd32f30x_rcu.o(i.rcu_periph_reset_disable)
    i.rcu_periph_reset_enable                0x08001f80   Section        0  gd32f30x_rcu.o(i.rcu_periph_reset_enable)
    i.system_clock_120m_hxtal                0x08001fa0   Section        0  system_gd32f30x.o(i.system_clock_120m_hxtal)
    system_clock_120m_hxtal                  0x08001fa1   Thumb Code   258  system_gd32f30x.o(i.system_clock_120m_hxtal)
    i.system_clock_config                    0x080020b4   Section        0  system_gd32f30x.o(i.system_clock_config)
    system_clock_config                      0x080020b5   Thumb Code     8  system_gd32f30x.o(i.system_clock_config)
    i.timer_channel_output_config            0x080020bc   Section        0  gd32f30x_timer.o(i.timer_channel_output_config)
    i.timer_channel_output_mode_config       0x080022a8   Section        0  gd32f30x_timer.o(i.timer_channel_output_mode_config)
    i.timer_channel_output_pulse_value_config 0x08002302   Section        0  gd32f30x_timer.o(i.timer_channel_output_pulse_value_config)
    i.timer_channel_output_struct_para_init  0x08002328   Section        0  gd32f30x_timer.o(i.timer_channel_output_struct_para_init)
    i.timer_deinit                           0x08002338   Section        0  gd32f30x_timer.o(i.timer_deinit)
    i.timer_enable                           0x08002414   Section        0  gd32f30x_timer.o(i.timer_enable)
    i.timer_init                             0x08002420   Section        0  gd32f30x_timer.o(i.timer_init)
    i.timer_primary_output_config            0x080024b8   Section        0  gd32f30x_timer.o(i.timer_primary_output_config)
    i.timer_struct_para_init                 0x080024d0   Section        0  gd32f30x_timer.o(i.timer_struct_para_init)
    i.usart_baudrate_set                     0x080024e8   Section        0  gd32f30x_usart.o(i.usart_baudrate_set)
    i.usart_data_receive                     0x08002578   Section        0  gd32f30x_usart.o(i.usart_data_receive)
    i.usart_data_transmit                    0x08002582   Section        0  gd32f30x_usart.o(i.usart_data_transmit)
    i.usart_deinit                           0x0800258c   Section        0  gd32f30x_usart.o(i.usart_deinit)
    i.usart_dma_receive_config               0x0800261c   Section        0  gd32f30x_usart.o(i.usart_dma_receive_config)
    i.usart_enable                           0x08002630   Section        0  gd32f30x_usart.o(i.usart_enable)
    i.usart_flag_get                         0x0800263a   Section        0  gd32f30x_usart.o(i.usart_flag_get)
    i.usart_interrupt_enable                 0x08002658   Section        0  gd32f30x_usart.o(i.usart_interrupt_enable)
    i.usart_interrupt_flag_clear             0x08002672   Section        0  gd32f30x_usart.o(i.usart_interrupt_flag_clear)
    i.usart_interrupt_flag_get               0x08002684   Section        0  gd32f30x_usart.o(i.usart_interrupt_flag_get)
    i.usart_parity_config                    0x080026bc   Section        0  gd32f30x_usart.o(i.usart_parity_config)
    i.usart_receive_config                   0x080026cc   Section        0  gd32f30x_usart.o(i.usart_receive_config)
    i.usart_stop_bit_set                     0x080026e0   Section        0  gd32f30x_usart.o(i.usart_stop_bit_set)
    i.usart_transmit_config                  0x080026f0   Section        0  gd32f30x_usart.o(i.usart_transmit_config)
    i.usart_word_length_set                  0x08002704   Section        0  gd32f30x_usart.o(i.usart_word_length_set)
    .data                                    0x20000000   Section        2  delay.o(.data)
    g_fac_us                                 0x20000000   Data           2  delay.o(.data)
    .data                                    0x20000004   Section       36  usb2com_drv.o(.data)
    g_pktRecv                                0x20000004   Data           1  usb2com_drv.o(.data)
    .data                                    0x20000028   Section        4  stdout.o(.data)
    .bss                                     0x2000002c   Section       20  usb2com_drv.o(.bss)
    STACK                                    0x20000040   Section     1024  startup_gd32f30x_hd.o(STACK)

    Global Symbols

    Symbol Name                              Value     Ov Type        Size  Object(Section)

    BuildAttributes$$THM_ISAv4$E$P$D$K$B$S$7EM$VFPi3$EXTD16$VFPS$VFMA$PE$A:L22UL41UL21$X:L11$S22US41US21$IEEE1$IW$USESV6$~STKCKD$USESV7$~SHL$OTIME$ROPI$EBA8$MICROLIB$REQ8$PRES8$EABIv2 0x00000000   Number         0  anon$$obj.o ABSOLUTE
    __ARM_use_no_argv                        0x00000000   Number         0  main.o ABSOLUTE
    _printf_a                                0x00000000   Number         0  stubs.o ABSOLUTE
    _printf_c                                0x00000000   Number         0  stubs.o ABSOLUTE
    _printf_charcount                        0x00000000   Number         0  stubs.o ABSOLUTE
    _printf_d                                0x00000000   Number         0  stubs.o ABSOLUTE
    _printf_e                                0x00000000   Number         0  stubs.o ABSOLUTE
    _printf_f                                0x00000000   Number         0  stubs.o ABSOLUTE
    _printf_flags                            0x00000000   Number         0  stubs.o ABSOLUTE
    _printf_fp_dec                           0x00000000   Number         0  stubs.o ABSOLUTE
    _printf_fp_hex                           0x00000000   Number         0  stubs.o ABSOLUTE
    _printf_g                                0x00000000   Number         0  stubs.o ABSOLUTE
    _printf_i                                0x00000000   Number         0  stubs.o ABSOLUTE
    _printf_int_dec                          0x00000000   Number         0  stubs.o ABSOLUTE
    _printf_l                                0x00000000   Number         0  stubs.o ABSOLUTE
    _printf_lc                               0x00000000   Number         0  stubs.o ABSOLUTE
    _printf_ll                               0x00000000   Number         0  stubs.o ABSOLUTE
    _printf_lld                              0x00000000   Number         0  stubs.o ABSOLUTE
    _printf_lli                              0x00000000   Number         0  stubs.o ABSOLUTE
    _printf_llo                              0x00000000   Number         0  stubs.o ABSOLUTE
    _printf_llu                              0x00000000   Number         0  stubs.o ABSOLUTE
    _printf_llx                              0x00000000   Number         0  stubs.o ABSOLUTE
    _printf_longlong_dec                     0x00000000   Number         0  stubs.o ABSOLUTE
    _printf_longlong_hex                     0x00000000   Number         0  stubs.o ABSOLUTE
    _printf_longlong_oct                     0x00000000   Number         0  stubs.o ABSOLUTE
    _printf_ls                               0x00000000   Number         0  stubs.o ABSOLUTE
    _printf_mbtowc                           0x00000000   Number         0  stubs.o ABSOLUTE
    _printf_n                                0x00000000   Number         0  stubs.o ABSOLUTE
    _printf_o                                0x00000000   Number         0  stubs.o ABSOLUTE
    _printf_p                                0x00000000   Number         0  stubs.o ABSOLUTE
    _printf_percent                          0x00000000   Number         0  stubs.o ABSOLUTE
    _printf_pre_padding                      0x00000000   Number         0  stubs.o ABSOLUTE
    _printf_return_value                     0x00000000   Number         0  stubs.o ABSOLUTE
    _printf_s                                0x00000000   Number         0  stubs.o ABSOLUTE
    _printf_sizespec                         0x00000000   Number         0  stubs.o ABSOLUTE
    _printf_str                              0x00000000   Number         0  stubs.o ABSOLUTE
    _printf_truncate_signed                  0x00000000   Number         0  stubs.o ABSOLUTE
    _printf_truncate_unsigned                0x00000000   Number         0  stubs.o ABSOLUTE
    _printf_u                                0x00000000   Number         0  stubs.o ABSOLUTE
    _printf_wc                               0x00000000   Number         0  stubs.o ABSOLUTE
    _printf_wctomb                           0x00000000   Number         0  stubs.o ABSOLUTE
    _printf_widthprec                        0x00000000   Number         0  stubs.o ABSOLUTE
    _printf_x                                0x00000000   Number         0  stubs.o ABSOLUTE
    __cpp_initialize__aeabi_                  - Undefined Weak Reference
    __cxa_finalize                            - Undefined Weak Reference
    __decompress                              - Undefined Weak Reference
    _clock_init                               - Undefined Weak Reference
    _microlib_exit                            - Undefined Weak Reference
    __Vectors_Size                           0x00000130   Number         0  startup_gd32f30x_hd.o ABSOLUTE
    __Vectors                                0x08000000   Data           4  startup_gd32f30x_hd.o(RESET)
    __Vectors_End                            0x08000130   Data           0  startup_gd32f30x_hd.o(RESET)
    __main                                   0x08000131   Thumb Code     0  entry.o(.ARM.Collect$$$$00000000)
    _main_stk                                0x08000131   Thumb Code     0  entry2.o(.ARM.Collect$$$$00000001)
    _main_scatterload                        0x08000135   Thumb Code     0  entry5.o(.ARM.Collect$$$$00000004)
    __main_after_scatterload                 0x08000139   Thumb Code     0  entry5.o(.ARM.Collect$$$$00000004)
    _main_clock                              0x08000139   Thumb Code     0  entry7b.o(.ARM.Collect$$$$00000008)
    _main_cpp_init                           0x08000139   Thumb Code     0  entry8b.o(.ARM.Collect$$$$0000000A)
    _main_init                               0x08000139   Thumb Code     0  entry9a.o(.ARM.Collect$$$$0000000B)
    __rt_final_cpp                           0x08000141   Thumb Code     0  entry10a.o(.ARM.Collect$$$$0000000D)
    __rt_final_exit                          0x08000141   Thumb Code     0  entry11a.o(.ARM.Collect$$$$0000000F)
    Reset_Handler                            0x08000145   Thumb Code     8  startup_gd32f30x_hd.o(.text)
    NMI_Handler                              0x0800014d   Thumb Code     2  startup_gd32f30x_hd.o(.text)
    HardFault_Handler                        0x0800014f   Thumb Code     2  startup_gd32f30x_hd.o(.text)
    MemManage_Handler                        0x08000151   Thumb Code     2  startup_gd32f30x_hd.o(.text)
    BusFault_Handler                         0x08000153   Thumb Code     2  startup_gd32f30x_hd.o(.text)
    UsageFault_Handler                       0x08000155   Thumb Code     2  startup_gd32f30x_hd.o(.text)
    SVC_Handler                              0x08000157   Thumb Code     2  startup_gd32f30x_hd.o(.text)
    DebugMon_Handler                         0x08000159   Thumb Code     2  startup_gd32f30x_hd.o(.text)
    PendSV_Handler                           0x0800015b   Thumb Code     2  startup_gd32f30x_hd.o(.text)
    SysTick_Handler                          0x0800015d   Thumb Code     2  startup_gd32f30x_hd.o(.text)
    ADC0_1_IRQHandler                        0x0800015f   Thumb Code     0  startup_gd32f30x_hd.o(.text)
    ADC2_IRQHandler                          0x0800015f   Thumb Code     0  startup_gd32f30x_hd.o(.text)
    CAN0_EWMC_IRQHandler                     0x0800015f   Thumb Code     0  startup_gd32f30x_hd.o(.text)
    CAN0_RX1_IRQHandler                      0x0800015f   Thumb Code     0  startup_gd32f30x_hd.o(.text)
    DMA0_Channel0_IRQHandler                 0x0800015f   Thumb Code     0  startup_gd32f30x_hd.o(.text)
    DMA0_Channel1_IRQHandler                 0x0800015f   Thumb Code     0  startup_gd32f30x_hd.o(.text)
    DMA0_Channel2_IRQHandler                 0x0800015f   Thumb Code     0  startup_gd32f30x_hd.o(.text)
    DMA0_Channel3_IRQHandler                 0x0800015f   Thumb Code     0  startup_gd32f30x_hd.o(.text)
    DMA0_Channel4_IRQHandler                 0x0800015f   Thumb Code     0  startup_gd32f30x_hd.o(.text)
    DMA0_Channel5_IRQHandler                 0x0800015f   Thumb Code     0  startup_gd32f30x_hd.o(.text)
    DMA0_Channel6_IRQHandler                 0x0800015f   Thumb Code     0  startup_gd32f30x_hd.o(.text)
    DMA1_Channel0_IRQHandler                 0x0800015f   Thumb Code     0  startup_gd32f30x_hd.o(.text)
    DMA1_Channel1_IRQHandler                 0x0800015f   Thumb Code     0  startup_gd32f30x_hd.o(.text)
    DMA1_Channel2_IRQHandler                 0x0800015f   Thumb Code     0  startup_gd32f30x_hd.o(.text)
    DMA1_Channel3_4_IRQHandler               0x0800015f   Thumb Code     0  startup_gd32f30x_hd.o(.text)
    EXMC_IRQHandler                          0x0800015f   Thumb Code     0  startup_gd32f30x_hd.o(.text)
    EXTI0_IRQHandler                         0x0800015f   Thumb Code     0  startup_gd32f30x_hd.o(.text)
    EXTI10_15_IRQHandler                     0x0800015f   Thumb Code     0  startup_gd32f30x_hd.o(.text)
    EXTI1_IRQHandler                         0x0800015f   Thumb Code     0  startup_gd32f30x_hd.o(.text)
    EXTI2_IRQHandler                         0x0800015f   Thumb Code     0  startup_gd32f30x_hd.o(.text)
    EXTI3_IRQHandler                         0x0800015f   Thumb Code     0  startup_gd32f30x_hd.o(.text)
    EXTI4_IRQHandler                         0x0800015f   Thumb Code     0  startup_gd32f30x_hd.o(.text)
    EXTI5_9_IRQHandler                       0x0800015f   Thumb Code     0  startup_gd32f30x_hd.o(.text)
    FMC_IRQHandler                           0x0800015f   Thumb Code     0  startup_gd32f30x_hd.o(.text)
    I2C0_ER_IRQHandler                       0x0800015f   Thumb Code     0  startup_gd32f30x_hd.o(.text)
    I2C0_EV_IRQHandler                       0x0800015f   Thumb Code     0  startup_gd32f30x_hd.o(.text)
    I2C1_ER_IRQHandler                       0x0800015f   Thumb Code     0  startup_gd32f30x_hd.o(.text)
    I2C1_EV_IRQHandler                       0x0800015f   Thumb Code     0  startup_gd32f30x_hd.o(.text)
    LVD_IRQHandler                           0x0800015f   Thumb Code     0  startup_gd32f30x_hd.o(.text)
    RCU_CTC_IRQHandler                       0x0800015f   Thumb Code     0  startup_gd32f30x_hd.o(.text)
    RTC_Alarm_IRQHandler                     0x0800015f   Thumb Code     0  startup_gd32f30x_hd.o(.text)
    RTC_IRQHandler                           0x0800015f   Thumb Code     0  startup_gd32f30x_hd.o(.text)
    SDIO_IRQHandler                          0x0800015f   Thumb Code     0  startup_gd32f30x_hd.o(.text)
    SPI0_IRQHandler                          0x0800015f   Thumb Code     0  startup_gd32f30x_hd.o(.text)
    SPI1_IRQHandler                          0x0800015f   Thumb Code     0  startup_gd32f30x_hd.o(.text)
    SPI2_IRQHandler                          0x0800015f   Thumb Code     0  startup_gd32f30x_hd.o(.text)
    TAMPER_IRQHandler                        0x0800015f   Thumb Code     0  startup_gd32f30x_hd.o(.text)
    TIMER0_BRK_IRQHandler                    0x0800015f   Thumb Code     0  startup_gd32f30x_hd.o(.text)
    TIMER0_Channel_IRQHandler                0x0800015f   Thumb Code     0  startup_gd32f30x_hd.o(.text)
    TIMER0_TRG_CMT_IRQHandler                0x0800015f   Thumb Code     0  startup_gd32f30x_hd.o(.text)
    TIMER0_UP_IRQHandler                     0x0800015f   Thumb Code     0  startup_gd32f30x_hd.o(.text)
    TIMER1_IRQHandler                        0x0800015f   Thumb Code     0  startup_gd32f30x_hd.o(.text)
    TIMER2_IRQHandler                        0x0800015f   Thumb Code     0  startup_gd32f30x_hd.o(.text)
    TIMER3_IRQHandler                        0x0800015f   Thumb Code     0  startup_gd32f30x_hd.o(.text)
    TIMER4_IRQHandler                        0x0800015f   Thumb Code     0  startup_gd32f30x_hd.o(.text)
    TIMER5_IRQHandler                        0x0800015f   Thumb Code     0  startup_gd32f30x_hd.o(.text)
    TIMER6_IRQHandler                        0x0800015f   Thumb Code     0  startup_gd32f30x_hd.o(.text)
    TIMER7_BRK_IRQHandler                    0x0800015f   Thumb Code     0  startup_gd32f30x_hd.o(.text)
    TIMER7_Channel_IRQHandler                0x0800015f   Thumb Code     0  startup_gd32f30x_hd.o(.text)
    TIMER7_TRG_CMT_IRQHandler                0x0800015f   Thumb Code     0  startup_gd32f30x_hd.o(.text)
    TIMER7_UP_IRQHandler                     0x0800015f   Thumb Code     0  startup_gd32f30x_hd.o(.text)
    UART3_IRQHandler                         0x0800015f   Thumb Code     0  startup_gd32f30x_hd.o(.text)
    UART4_IRQHandler                         0x0800015f   Thumb Code     0  startup_gd32f30x_hd.o(.text)
    USART1_IRQHandler                        0x0800015f   Thumb Code     0  startup_gd32f30x_hd.o(.text)
    USART2_IRQHandler                        0x0800015f   Thumb Code     0  startup_gd32f30x_hd.o(.text)
    USBD_HP_CAN0_TX_IRQHandler               0x0800015f   Thumb Code     0  startup_gd32f30x_hd.o(.text)
    USBD_LP_CAN0_RX0_IRQHandler              0x0800015f   Thumb Code     0  startup_gd32f30x_hd.o(.text)
    USBD_WKUP_IRQHandler                     0x0800015f   Thumb Code     0  startup_gd32f30x_hd.o(.text)
    WWDGT_IRQHandler                         0x0800015f   Thumb Code     0  startup_gd32f30x_hd.o(.text)
    __aeabi_dadd                             0x08000169   Thumb Code   322  dadd.o(.text)
    __aeabi_dsub                             0x080002ab   Thumb Code     6  dadd.o(.text)
    __aeabi_drsub                            0x080002b1   Thumb Code     6  dadd.o(.text)
    __aeabi_dmul                             0x080002b7   Thumb Code   228  dmul.o(.text)
    __aeabi_ddiv                             0x0800039b   Thumb Code   222  ddiv.o(.text)
    __aeabi_ui2d                             0x08000479   Thumb Code    26  dfltui.o(.text)
    __aeabi_f2d                              0x08000493   Thumb Code    38  f2d.o(.text)
    __aeabi_cdcmpeq                          0x080004b9   Thumb Code     0  cdcmple.o(.text)
    __aeabi_cdcmple                          0x080004b9   Thumb Code    48  cdcmple.o(.text)
    __aeabi_d2f                              0x080004e9   Thumb Code    56  d2f.o(.text)
    __aeabi_uidiv                            0x08000521   Thumb Code     0  uidiv.o(.text)
    __aeabi_uidivmod                         0x08000521   Thumb Code    44  uidiv.o(.text)
    __aeabi_uldivmod                         0x0800054d   Thumb Code    98  uldiv.o(.text)
    __aeabi_llsl                             0x080005af   Thumb Code    30  llshl.o(.text)
    _ll_shift_l                              0x080005af   Thumb Code     0  llshl.o(.text)
    __aeabi_lasr                             0x080005cd   Thumb Code    36  llsshr.o(.text)
    _ll_sshift_r                             0x080005cd   Thumb Code     0  llsshr.o(.text)
    __I$use$fp                               0x080005f1   Thumb Code     0  iusefp.o(.text)
    _float_round                             0x080005f1   Thumb Code    18  fepilogue.o(.text)
    _float_epilogue                          0x08000603   Thumb Code    92  fepilogue.o(.text)
    _double_round                            0x0800065f   Thumb Code    30  depilogue.o(.text)
    _double_epilogue                         0x0800067d   Thumb Code   156  depilogue.o(.text)
    __aeabi_d2ulz                            0x08000719   Thumb Code    48  dfixul.o(.text)
    __aeabi_cdrcmple                         0x08000749   Thumb Code    48  cdrcmple.o(.text)
    __scatterload                            0x08000779   Thumb Code    28  init.o(.text)
    __scatterload_rt2                        0x08000779   Thumb Code     0  init.o(.text)
    __aeabi_llsr                             0x0800079d   Thumb Code    32  llushr.o(.text)
    _ll_ushift_r                             0x0800079d   Thumb Code     0  llushr.o(.text)
    AHT10DrvTest                             0x080007bd   Thumb Code   192  aht10_drv.o(i.AHT10DrvTest)
    AHT10_Init                               0x080008f1   Thumb Code    14  aht10_drv.o(i.AHT10_Init)
    AHT10_ReadData                           0x08000901   Thumb Code   258  aht10_drv.o(i.AHT10_ReadData)
    AHT10_Trigger_Measure                    0x08000a3d   Thumb Code    90  aht10_drv.o(i.AHT10_Trigger_Measure)
    IIC_Ack                                  0x08000ac9   Thumb Code    60  i2c_drv.o(i.IIC_Ack)
    IIC_Init                                 0x08000b09   Thumb Code    40  i2c_drv.o(i.IIC_Init)
    IIC_NAck                                 0x08000b35   Thumb Code    46  i2c_drv.o(i.IIC_NAck)
    IIC_Read_Byte                            0x08000b69   Thumb Code    66  i2c_drv.o(i.IIC_Read_Byte)
    IIC_Send_Byte                            0x08000bb1   Thumb Code    70  i2c_drv.o(i.IIC_Send_Byte)
    IIC_Start                                0x08000bfd   Thumb Code    56  i2c_drv.o(i.IIC_Start)
    IIC_Stop                                 0x08000c39   Thumb Code    46  i2c_drv.o(i.IIC_Stop)
    IIC_Wait_Ack                             0x08000c6d   Thumb Code    84  i2c_drv.o(i.IIC_Wait_Ack)
    PwmUpdatePropor                          0x08000cd1   Thumb Code    78  timer_drv.o(i.PwmUpdatePropor)
    SystemInit                               0x08000d25   Thumb Code   156  system_gd32f30x.o(i.SystemInit)
    TimerDrvInit                             0x08000e41   Thumb Code    18  timer_drv.o(i.TimerDrvInit)
    USART0_IRQHandler                        0x08000e75   Thumb Code    92  usb2com_drv.o(i.USART0_IRQHandler)
    Usb2ComDrvInit                           0x08000edd   Thumb Code    20  usb2com_drv.o(i.Usb2ComDrvInit)
    __0printf                                0x08001001   Thumb Code    22  printfa.o(i.__0printf)
    __1printf                                0x08001001   Thumb Code     0  printfa.o(i.__0printf)
    __2printf                                0x08001001   Thumb Code     0  printfa.o(i.__0printf)
    __c89printf                              0x08001001   Thumb Code     0  printfa.o(i.__0printf)
    printf                                   0x08001001   Thumb Code     0  printfa.o(i.__0printf)
    __scatterload_copy                       0x08001021   Thumb Code    14  handlers.o(i.__scatterload_copy)
    __scatterload_null                       0x0800102f   Thumb Code     2  handlers.o(i.__scatterload_null)
    __scatterload_zeroinit                   0x08001031   Thumb Code    14  handlers.o(i.__scatterload_zeroinit)
    delay_init                               0x080018f5   Thumb Code    36  delay.o(i.delay_init)
    delay_ms                                 0x0800191d   Thumb Code    50  delay.o(i.delay_ms)
    delay_us                                 0x08001955   Thumb Code    72  delay.o(i.delay_us)
    dma_channel_disable                      0x080019a1   Thumb Code    50  gd32f30x_dma.o(i.dma_channel_disable)
    dma_channel_enable                       0x080019d3   Thumb Code    50  gd32f30x_dma.o(i.dma_channel_enable)
    dma_deinit                               0x08001a05   Thumb Code   112  gd32f30x_dma.o(i.dma_deinit)
    dma_init                                 0x08001a75   Thumb Code   302  gd32f30x_dma.o(i.dma_init)
    dma_transfer_number_config               0x08001bbd   Thumb Code    38  gd32f30x_dma.o(i.dma_transfer_number_config)
    dma_transfer_number_get                  0x08001be3   Thumb Code    34  gd32f30x_dma.o(i.dma_transfer_number_get)
    fputc                                    0x08001c05   Thumb Code    36  usb2com_drv.o(i.fputc)
    gpio_bit_write                           0x08001c2d   Thumb Code    10  gd32f30x_gpio.o(i.gpio_bit_write)
    gpio_init                                0x08001c37   Thumb Code   188  gd32f30x_gpio.o(i.gpio_init)
    gpio_input_bit_get                       0x08001cf3   Thumb Code    16  gd32f30x_gpio.o(i.gpio_input_bit_get)
    main                                     0x08001d03   Thumb Code    12  main.o(i.main)
    nvic_irq_enable                          0x08001d11   Thumb Code   186  gd32f30x_misc.o(i.nvic_irq_enable)
    nvic_priority_group_set                  0x08001dd5   Thumb Code    10  gd32f30x_misc.o(i.nvic_priority_group_set)
    rcu_clock_freq_get                       0x08001de9   Thumb Code   310  gd32f30x_rcu.o(i.rcu_clock_freq_get)
    rcu_periph_clock_enable                  0x08001f41   Thumb Code    28  gd32f30x_rcu.o(i.rcu_periph_clock_enable)
    rcu_periph_reset_disable                 0x08001f61   Thumb Code    28  gd32f30x_rcu.o(i.rcu_periph_reset_disable)
    rcu_periph_reset_enable                  0x08001f81   Thumb Code    28  gd32f30x_rcu.o(i.rcu_periph_reset_enable)
    timer_channel_output_config              0x080020bd   Thumb Code   484  gd32f30x_timer.o(i.timer_channel_output_config)
    timer_channel_output_mode_config         0x080022a9   Thumb Code    90  gd32f30x_timer.o(i.timer_channel_output_mode_config)
    timer_channel_output_pulse_value_config  0x08002303   Thumb Code    38  gd32f30x_timer.o(i.timer_channel_output_pulse_value_config)
    timer_channel_output_struct_para_init    0x08002329   Thumb Code    16  gd32f30x_timer.o(i.timer_channel_output_struct_para_init)
    timer_deinit                             0x08002339   Thumb Code   210  gd32f30x_timer.o(i.timer_deinit)
    timer_enable                             0x08002415   Thumb Code    10  gd32f30x_timer.o(i.timer_enable)
    timer_init                               0x08002421   Thumb Code   122  gd32f30x_timer.o(i.timer_init)
    timer_primary_output_config              0x080024b9   Thumb Code    24  gd32f30x_timer.o(i.timer_primary_output_config)
    timer_struct_para_init                   0x080024d1   Thumb Code    22  gd32f30x_timer.o(i.timer_struct_para_init)
    usart_baudrate_set                       0x080024e9   Thumb Code   136  gd32f30x_usart.o(i.usart_baudrate_set)
    usart_data_receive                       0x08002579   Thumb Code    10  gd32f30x_usart.o(i.usart_data_receive)
    usart_data_transmit                      0x08002583   Thumb Code     8  gd32f30x_usart.o(i.usart_data_transmit)
    usart_deinit                             0x0800258d   Thumb Code   136  gd32f30x_usart.o(i.usart_deinit)
    usart_dma_receive_config                 0x0800261d   Thumb Code    20  gd32f30x_usart.o(i.usart_dma_receive_config)
    usart_enable                             0x08002631   Thumb Code    10  gd32f30x_usart.o(i.usart_enable)
    usart_flag_get                           0x0800263b   Thumb Code    30  gd32f30x_usart.o(i.usart_flag_get)
    usart_interrupt_enable                   0x08002659   Thumb Code    26  gd32f30x_usart.o(i.usart_interrupt_enable)
    usart_interrupt_flag_clear               0x08002673   Thumb Code    18  gd32f30x_usart.o(i.usart_interrupt_flag_clear)
    usart_interrupt_flag_get                 0x08002685   Thumb Code    56  gd32f30x_usart.o(i.usart_interrupt_flag_get)
    usart_parity_config                      0x080026bd   Thumb Code    16  gd32f30x_usart.o(i.usart_parity_config)
    usart_receive_config                     0x080026cd   Thumb Code    20  gd32f30x_usart.o(i.usart_receive_config)
    usart_stop_bit_set                       0x080026e1   Thumb Code    16  gd32f30x_usart.o(i.usart_stop_bit_set)
    usart_transmit_config                    0x080026f1   Thumb Code    20  gd32f30x_usart.o(i.usart_transmit_config)
    usart_word_length_set                    0x08002705   Thumb Code    16  gd32f30x_usart.o(i.usart_word_length_set)
    Region$$Table$$Base                      0x08002714   Number         0  anon$$obj.o(Region$$Table)
    Region$$Table$$Limit                     0x08002734   Number         0  anon$$obj.o(Region$$Table)
    g_Usb2comUart0                           0x20000008   Data          32  usb2com_drv.o(.data)
    __stdout                                 0x20000028   Data           4  stdout.o(.data)
    g_RxPackageData                          0x2000002c   Data          20  usb2com_drv.o(.bss)
    __initial_sp                             0x20000440   Data           0  startup_gd32f30x_hd.o(STACK)



==============================================================================

Memory Map of the image

  Image Entry point : 0x08000131

  Load Region LR_IROM1 (Base: 0x08000000, Size: 0x00002760, Max: 0x00040000, ABSOLUTE)

    Execution Region ER_IROM1 (Exec base: 0x08000000, Load base: 0x08000000, Size: 0x00002734, Max: 0x00040000, ABSOLUTE)

    Exec Addr    Load Addr    Size         Type   Attr      Idx    E Section Name        Object

    0x08000000   0x08000000   0x00000130   Data   RO          404    RESET               startup_gd32f30x_hd.o
    0x08000130   0x08000130   0x00000000   Code   RO         2124  * .ARM.Collect$$$$00000000  mc_w.l(entry.o)
    0x08000130   0x08000130   0x00000004   Code   RO         2402    .ARM.Collect$$$$00000001  mc_w.l(entry2.o)
    0x08000134   0x08000134   0x00000004   Code   RO         2405    .ARM.Collect$$$$00000004  mc_w.l(entry5.o)
    0x08000138   0x08000138   0x00000000   Code   RO         2407    .ARM.Collect$$$$00000008  mc_w.l(entry7b.o)
    0x08000138   0x08000138   0x00000000   Code   RO         2409    .ARM.Collect$$$$0000000A  mc_w.l(entry8b.o)
    0x08000138   0x08000138   0x00000008   Code   RO         2410    .ARM.Collect$$$$0000000B  mc_w.l(entry9a.o)
    0x08000140   0x08000140   0x00000000   Code   RO         2412    .ARM.Collect$$$$0000000D  mc_w.l(entry10a.o)
    0x08000140   0x08000140   0x00000000   Code   RO         2414    .ARM.Collect$$$$0000000F  mc_w.l(entry11a.o)
    0x08000140   0x08000140   0x00000004   Code   RO         2403    .ARM.Collect$$$$00002712  mc_w.l(entry2.o)
    0x08000144   0x08000144   0x00000024   Code   RO          405    .text               startup_gd32f30x_hd.o
    0x08000168   0x08000168   0x0000014e   Code   RO         2388    .text               mf_w.l(dadd.o)
    0x080002b6   0x080002b6   0x000000e4   Code   RO         2390    .text               mf_w.l(dmul.o)
    0x0800039a   0x0800039a   0x000000de   Code   RO         2392    .text               mf_w.l(ddiv.o)
    0x08000478   0x08000478   0x0000001a   Code   RO         2394    .text               mf_w.l(dfltui.o)
    0x08000492   0x08000492   0x00000026   Code   RO         2396    .text               mf_w.l(f2d.o)
    0x080004b8   0x080004b8   0x00000030   Code   RO         2398    .text               mf_w.l(cdcmple.o)
    0x080004e8   0x080004e8   0x00000038   Code   RO         2400    .text               mf_w.l(d2f.o)
    0x08000520   0x08000520   0x0000002c   Code   RO         2417    .text               mc_w.l(uidiv.o)
    0x0800054c   0x0800054c   0x00000062   Code   RO         2419    .text               mc_w.l(uldiv.o)
    0x080005ae   0x080005ae   0x0000001e   Code   RO         2421    .text               mc_w.l(llshl.o)
    0x080005cc   0x080005cc   0x00000024   Code   RO         2423    .text               mc_w.l(llsshr.o)
    0x080005f0   0x080005f0   0x00000000   Code   RO         2425    .text               mc_w.l(iusefp.o)
    0x080005f0   0x080005f0   0x0000006e   Code   RO         2426    .text               mf_w.l(fepilogue.o)
    0x0800065e   0x0800065e   0x000000ba   Code   RO         2428    .text               mf_w.l(depilogue.o)
    0x08000718   0x08000718   0x00000030   Code   RO         2430    .text               mf_w.l(dfixul.o)
    0x08000748   0x08000748   0x00000030   Code   RO         2432    .text               mf_w.l(cdrcmple.o)
    0x08000778   0x08000778   0x00000024   Code   RO         2434    .text               mc_w.l(init.o)
    0x0800079c   0x0800079c   0x00000020   Code   RO         2436    .text               mc_w.l(llushr.o)
    0x080007bc   0x080007bc   0x00000134   Code   RO          316    i.AHT10DrvTest      aht10_drv.o
    0x080008f0   0x080008f0   0x0000000e   Code   RO          317    i.AHT10_Init        aht10_drv.o
    0x080008fe   0x080008fe   0x00000002   PAD
    0x08000900   0x08000900   0x0000013c   Code   RO          318    i.AHT10_ReadData    aht10_drv.o
    0x08000a3c   0x08000a3c   0x00000074   Code   RO          319    i.AHT10_Trigger_Measure  aht10_drv.o
    0x08000ab0   0x08000ab0   0x00000016   Code   RO            3    i.AllDrvInit        main.o
    0x08000ac6   0x08000ac6   0x00000002   PAD
    0x08000ac8   0x08000ac8   0x00000040   Code   RO          182    i.IIC_Ack           i2c_drv.o
    0x08000b08   0x08000b08   0x0000002c   Code   RO          183    i.IIC_Init          i2c_drv.o
    0x08000b34   0x08000b34   0x00000034   Code   RO          184    i.IIC_NAck          i2c_drv.o
    0x08000b68   0x08000b68   0x00000048   Code   RO          185    i.IIC_Read_Byte     i2c_drv.o
    0x08000bb0   0x08000bb0   0x0000004c   Code   RO          186    i.IIC_Send_Byte     i2c_drv.o
    0x08000bfc   0x08000bfc   0x0000003c   Code   RO          187    i.IIC_Start         i2c_drv.o
    0x08000c38   0x08000c38   0x00000034   Code   RO          188    i.IIC_Stop          i2c_drv.o
    0x08000c6c   0x08000c6c   0x00000058   Code   RO          189    i.IIC_Wait_Ack      i2c_drv.o
    0x08000cc4   0x08000cc4   0x0000000a   Code   RO          190    i.IIC_delay         i2c_drv.o
    0x08000cce   0x08000cce   0x00000002   PAD
    0x08000cd0   0x08000cd0   0x00000054   Code   RO          361    i.PwmUpdatePropor   timer_drv.o
    0x08000d24   0x08000d24   0x000000a8   Code   RO          412    i.SystemInit        system_gd32f30x.o
    0x08000dcc   0x08000dcc   0x00000074   Code   RO          362    i.TimeInit          timer_drv.o
    0x08000e40   0x08000e40   0x00000012   Code   RO          363    i.TimerDrvInit      timer_drv.o
    0x08000e52   0x08000e52   0x00000002   PAD
    0x08000e54   0x08000e54   0x00000020   Code   RO          364    i.TimerGpioInit     timer_drv.o
    0x08000e74   0x08000e74   0x00000068   Code   RO          252    i.USART0_IRQHandler  usb2com_drv.o
    0x08000edc   0x08000edc   0x00000014   Code   RO          253    i.Usb2ComDrvInit    usb2com_drv.o
    0x08000ef0   0x08000ef0   0x0000002c   Code   RO          254    i.Usb2ComGpioInit   usb2com_drv.o
    0x08000f1c   0x08000f1c   0x00000074   Code   RO          256    i.Usb2ComUartInit   usb2com_drv.o
    0x08000f90   0x08000f90   0x00000070   Code   RO          257    i.Usb2comDmaInit    usb2com_drv.o
    0x08001000   0x08001000   0x00000020   Code   RO         2360    i.__0printf         mc_w.l(printfa.o)
    0x08001020   0x08001020   0x0000000e   Code   RO         2440    i.__scatterload_copy  mc_w.l(handlers.o)
    0x0800102e   0x0800102e   0x00000002   Code   RO         2441    i.__scatterload_null  mc_w.l(handlers.o)
    0x08001030   0x08001030   0x0000000e   Code   RO         2442    i.__scatterload_zeroinit  mc_w.l(handlers.o)
    0x0800103e   0x0800103e   0x00000002   PAD
    0x08001040   0x08001040   0x00000184   Code   RO         2367    i._fp_digits        mc_w.l(printfa.o)
    0x080011c4   0x080011c4   0x000006dc   Code   RO         2368    i._printf_core      mc_w.l(printfa.o)
    0x080018a0   0x080018a0   0x00000024   Code   RO         2369    i._printf_post_padding  mc_w.l(printfa.o)
    0x080018c4   0x080018c4   0x0000002e   Code   RO         2370    i._printf_pre_padding  mc_w.l(printfa.o)
    0x080018f2   0x080018f2   0x00000002   PAD
    0x080018f4   0x080018f4   0x00000028   Code   RO          145    i.delay_init        delay.o
    0x0800191c   0x0800191c   0x00000038   Code   RO          146    i.delay_ms          delay.o
    0x08001954   0x08001954   0x0000004c   Code   RO          147    i.delay_us          delay.o
    0x080019a0   0x080019a0   0x00000032   Code   RO         1440    i.dma_channel_disable  gd32f30x_dma.o
    0x080019d2   0x080019d2   0x00000032   Code   RO         1441    i.dma_channel_enable  gd32f30x_dma.o
    0x08001a04   0x08001a04   0x00000070   Code   RO         1444    i.dma_deinit        gd32f30x_dma.o
    0x08001a74   0x08001a74   0x0000012e   Code   RO         1447    i.dma_init          gd32f30x_dma.o
    0x08001ba2   0x08001ba2   0x00000002   PAD
    0x08001ba4   0x08001ba4   0x00000018   Code   RO         1459    i.dma_periph_and_channel_check  gd32f30x_dma.o
    0x08001bbc   0x08001bbc   0x00000026   Code   RO         1466    i.dma_transfer_number_config  gd32f30x_dma.o
    0x08001be2   0x08001be2   0x00000022   Code   RO         1467    i.dma_transfer_number_get  gd32f30x_dma.o
    0x08001c04   0x08001c04   0x00000028   Code   RO          258    i.fputc             usb2com_drv.o
    0x08001c2c   0x08001c2c   0x0000000a   Code   RO         1109    i.gpio_bit_write    gd32f30x_gpio.o
    0x08001c36   0x08001c36   0x000000bc   Code   RO         1117    i.gpio_init         gd32f30x_gpio.o
    0x08001cf2   0x08001cf2   0x00000010   Code   RO         1118    i.gpio_input_bit_get  gd32f30x_gpio.o
    0x08001d02   0x08001d02   0x0000000c   Code   RO            4    i.main              main.o
    0x08001d0e   0x08001d0e   0x00000002   PAD
    0x08001d10   0x08001d10   0x000000c4   Code   RO         1628    i.nvic_irq_enable   gd32f30x_misc.o
    0x08001dd4   0x08001dd4   0x00000014   Code   RO         1629    i.nvic_priority_group_set  gd32f30x_misc.o
    0x08001de8   0x08001de8   0x00000158   Code   RO          475    i.rcu_clock_freq_get  gd32f30x_rcu.o
    0x08001f40   0x08001f40   0x00000020   Code   RO          493    i.rcu_periph_clock_enable  gd32f30x_rcu.o
    0x08001f60   0x08001f60   0x00000020   Code   RO          496    i.rcu_periph_reset_disable  gd32f30x_rcu.o
    0x08001f80   0x08001f80   0x00000020   Code   RO          497    i.rcu_periph_reset_enable  gd32f30x_rcu.o
    0x08001fa0   0x08001fa0   0x00000114   Code   RO          413    i.system_clock_120m_hxtal  system_gd32f30x.o
    0x080020b4   0x080020b4   0x00000008   Code   RO          414    i.system_clock_config  system_gd32f30x.o
    0x080020bc   0x080020bc   0x000001ec   Code   RO         1701    i.timer_channel_output_config  gd32f30x_timer.o
    0x080022a8   0x080022a8   0x0000005a   Code   RO         1703    i.timer_channel_output_mode_config  gd32f30x_timer.o
    0x08002302   0x08002302   0x00000026   Code   RO         1705    i.timer_channel_output_pulse_value_config  gd32f30x_timer.o
    0x08002328   0x08002328   0x00000010   Code   RO         1708    i.timer_channel_output_struct_para_init  gd32f30x_timer.o
    0x08002338   0x08002338   0x000000dc   Code   RO         1714    i.timer_deinit      gd32f30x_timer.o
    0x08002414   0x08002414   0x0000000a   Code   RO         1719    i.timer_enable      gd32f30x_timer.o
    0x0800241e   0x0800241e   0x00000002   PAD
    0x08002420   0x08002420   0x00000098   Code   RO         1729    i.timer_init        gd32f30x_timer.o
    0x080024b8   0x080024b8   0x00000018   Code   RO         1744    i.timer_primary_output_config  gd32f30x_timer.o
    0x080024d0   0x080024d0   0x00000016   Code   RO         1749    i.timer_struct_para_init  gd32f30x_timer.o
    0x080024e6   0x080024e6   0x00000002   PAD
    0x080024e8   0x080024e8   0x00000090   Code   RO          787    i.usart_baudrate_set  gd32f30x_usart.o
    0x08002578   0x08002578   0x0000000a   Code   RO          790    i.usart_data_receive  gd32f30x_usart.o
    0x08002582   0x08002582   0x00000008   Code   RO          791    i.usart_data_transmit  gd32f30x_usart.o
    0x0800258a   0x0800258a   0x00000002   PAD
    0x0800258c   0x0800258c   0x00000090   Code   RO          792    i.usart_deinit      gd32f30x_usart.o
    0x0800261c   0x0800261c   0x00000014   Code   RO          794    i.usart_dma_receive_config  gd32f30x_usart.o
    0x08002630   0x08002630   0x0000000a   Code   RO          796    i.usart_enable      gd32f30x_usart.o
    0x0800263a   0x0800263a   0x0000001e   Code   RO          798    i.usart_flag_get    gd32f30x_usart.o
    0x08002658   0x08002658   0x0000001a   Code   RO          805    i.usart_interrupt_enable  gd32f30x_usart.o
    0x08002672   0x08002672   0x00000012   Code   RO          806    i.usart_interrupt_flag_clear  gd32f30x_usart.o
    0x08002684   0x08002684   0x00000038   Code   RO          807    i.usart_interrupt_flag_get  gd32f30x_usart.o
    0x080026bc   0x080026bc   0x00000010   Code   RO          818    i.usart_parity_config  gd32f30x_usart.o
    0x080026cc   0x080026cc   0x00000014   Code   RO          820    i.usart_receive_config  gd32f30x_usart.o
    0x080026e0   0x080026e0   0x00000010   Code   RO          830    i.usart_stop_bit_set  gd32f30x_usart.o
    0x080026f0   0x080026f0   0x00000014   Code   RO          834    i.usart_transmit_config  gd32f30x_usart.o
    0x08002704   0x08002704   0x00000010   Code   RO          835    i.usart_word_length_set  gd32f30x_usart.o
    0x08002714   0x08002714   0x00000020   Data   RO         2438    Region$$Table       anon$$obj.o


    Execution Region RW_IRAM1 (Exec base: 0x20000000, Load base: 0x08002734, Size: 0x00000440, Max: 0x0000c000, ABSOLUTE)

    Exec Addr    Load Addr    Size         Type   Attr      Idx    E Section Name        Object

    0x20000000   0x08002734   0x00000002   Data   RW          148    .data               delay.o
    0x20000002   0x08002736   0x00000002   PAD
    0x20000004   0x08002738   0x00000024   Data   RW          260    .data               usb2com_drv.o
    0x20000028   0x0800275c   0x00000004   Data   RW         2416    .data               mc_w.l(stdout.o)
    0x2000002c        -       0x00000014   Zero   RW          259    .bss                usb2com_drv.o
    0x20000040        -       0x00000400   Zero   RW          402    STACK               startup_gd32f30x_hd.o


==============================================================================

Image component sizes


      Code (inc. data)   RO Data    RW Data    ZI Data      Debug   Object Name

       754        200          0          0          0       2593   aht10_drv.o
       172         14          0          2          0       1811   delay.o
       610          6          0          0          0       9730   gd32f30x_dma.o
       214          0          0          0          0      14118   gd32f30x_gpio.o
       216         20          0          0          0       1380   gd32f30x_misc.o
       440         46          0          0          0      19832   gd32f30x_rcu.o
      1064         48          0          0          0      21437   gd32f30x_timer.o
       554         16          0          0          0      15705   gd32f30x_usart.o
       518         40          0          0          0       4614   i2c_drv.o
        34          0          0          0          0      46327   main.o
        36          8        304          0       1024        812   startup_gd32f30x_hd.o
       452         30          0          0          0       2393   system_gd32f30x.o
       250         18          0          0          0       2133   timer_drv.o
       436         40          0         36         20       5590   usb2com_drv.o

    ----------------------------------------------------------------------
      5768        486        336         40       1044     148475   Object Totals
         0          0         32          0          0          0   (incl. Generated)
        18          0          0          2          0          0   (incl. Padding)

    ----------------------------------------------------------------------

      Code (inc. data)   RO Data    RW Data    ZI Data      Debug   Library Member Name

         0          0          0          0          0          0   entry.o
         0          0          0          0          0          0   entry10a.o
         0          0          0          0          0          0   entry11a.o
         8          4          0          0          0          0   entry2.o
         4          0          0          0          0          0   entry5.o
         0          0          0          0          0          0   entry7b.o
         0          0          0          0          0          0   entry8b.o
         8          4          0          0          0          0   entry9a.o
        30          0          0          0          0          0   handlers.o
        36          8          0          0          0         68   init.o
         0          0          0          0          0          0   iusefp.o
        30          0          0          0          0         68   llshl.o
        36          0          0          0          0         68   llsshr.o
        32          0          0          0          0         68   llushr.o
      2258         90          0          0          0        452   printfa.o
         0          0          0          4          0          0   stdout.o
        44          0          0          0          0         80   uidiv.o
        98          0          0          0          0         92   uldiv.o
        48          0          0          0          0         68   cdcmple.o
        48          0          0          0          0         68   cdrcmple.o
        56          0          0          0          0         88   d2f.o
       334          0          0          0          0        148   dadd.o
       222          0          0          0          0        100   ddiv.o
       186          0          0          0          0        176   depilogue.o
        48          0          0          0          0         68   dfixul.o
        26          0          0          0          0         76   dfltui.o
       228          0          0          0          0         96   dmul.o
        38          0          0          0          0         68   f2d.o
       110          0          0          0          0        168   fepilogue.o

    ----------------------------------------------------------------------
      3932        106          0          4          0       2020   Library Totals
         4          0          0          0          0          0   (incl. Padding)

    ----------------------------------------------------------------------

      Code (inc. data)   RO Data    RW Data    ZI Data      Debug   Library Name

      2584        106          0          4          0        896   mc_w.l
      1344          0          0          0          0       1124   mf_w.l

    ----------------------------------------------------------------------
      3932        106          0          4          0       2020   Library Totals

    ----------------------------------------------------------------------

==============================================================================


      Code (inc. data)   RO Data    RW Data    ZI Data      Debug   

      9700        592        336         44       1044     143011   Grand Totals
      9700        592        336         44       1044     143011   ELF Image Totals
      9700        592        336         44          0          0   ROM Totals

==============================================================================

    Total RO  Size (Code + RO Data)                10036 (   9.80kB)
    Total RW  Size (RW Data + ZI Data)              1088 (   1.06kB)
    Total ROM Size (Code + RO Data + RW Data)      10080 (   9.84kB)

==============================================================================

