Component: ARM Compiler 5.06 update 6 (build 750) Tool: armlink [4d35ed]

==============================================================================

Section Cross References

    main.o(i.AllDrvInit) refers to led_drv.o(i.LedDrvInit) for LedDrvInit
    main.o(i.AllDrvInit) refers to usb2com_drv.o(i.Usb2ComDrvInit) for Usb2ComDrvInit
    main.o(i.AllDrvInit) refers to adc_drv.o(i.AdcDrvInit) for AdcDrvInit
    main.o(i.AllDrvInit) refers to delay.o(i.delay_init) for delay_init
    main.o(i.main) refers to main.o(i.AllDrvInit) for AllDrvInit
    main.o(i.main) refers to printfa.o(i.__0printf) for __2printf
    main.o(i.main) refers to adc_drv.o(i.AdcDrvTest) for AdcDrvTest
    adc_drv.o(i.AdcConfigInit) refers to gd32f30x_rcu.o(i.rcu_periph_clock_enable) for rcu_periph_clock_enable
    adc_drv.o(i.AdcConfigInit) refers to gd32f30x_adc.o(i.adc_deinit) for adc_deinit
    adc_drv.o(i.AdcConfigInit) refers to gd32f30x_rcu.o(i.rcu_adc_clock_config) for rcu_adc_clock_config
    adc_drv.o(i.AdcConfigInit) refers to gd32f30x_adc.o(i.adc_mode_config) for adc_mode_config
    adc_drv.o(i.AdcConfigInit) refers to gd32f30x_adc.o(i.adc_special_function_config) for adc_special_function_config
    adc_drv.o(i.AdcConfigInit) refers to gd32f30x_adc.o(i.adc_data_alignment_config) for adc_data_alignment_config
    adc_drv.o(i.AdcConfigInit) refers to gd32f30x_adc.o(i.adc_external_trigger_config) for adc_external_trigger_config
    adc_drv.o(i.AdcConfigInit) refers to gd32f30x_adc.o(i.adc_external_trigger_source_config) for adc_external_trigger_source_config
    adc_drv.o(i.AdcConfigInit) refers to gd32f30x_adc.o(i.adc_enable) for adc_enable
    adc_drv.o(i.AdcConfigInit) refers to gd32f30x_adc.o(i.adc_calibration_enable) for adc_calibration_enable
    adc_drv.o(i.AdcDrvInit) refers to adc_drv.o(i.AdcGpioInit) for AdcGpioInit
==============================================================================

Removing Unused input sections from the image.

    Removing adc_drv.o(.rev16_text), (4 bytes).
    Removing adc_drv.o(.revsh_text), (4 bytes).
    Removing led_drv.o(.rev16_text), (4 bytes).
    Removing led_drv.o(.revsh_text), (4 bytes).
    Removing led_drv.o(i.ToggleLed), (80 bytes).
    Removing usb2com_drv.o(.rev16_text), (4 bytes).
    Removing usb2com_drv.o(.revsh_text), (4 bytes).
    Removing delay.o(.rev16_text), (4 bytes).
    Removing delay.o(.revsh_text), (4 bytes).
    Removing startup_gd32f30x_hd.o(HEAP), (1024 bytes).
    Removing system_gd32f30x.o(.rev16_text), (4 bytes).
    Removing system_gd32f30x.o(.revsh_text), (4 bytes).
    Removing system_gd32f30x.o(i.SystemCoreClockUpdate), (316 bytes).
    Removing system_gd32f30x.o(.data), (4 bytes).
    Removing gd32f30x_rcu.o(.rev16_text), (4 bytes).
    Removing gd32f30x_rcu.o(.revsh_text), (4 bytes).
    Removing gd32f30x_rcu.o(i.rcu_ahb_clock_config), (24 bytes).
    Removing gd32f30x_rcu.o(i.rcu_all_reset_flag_clear), (20 bytes).
==============================================================================

Image Symbol Table

    Local Symbols

    Symbol Name                              Value     Ov Type        Size  Object(Section)

    ../clib/microlib/division.c              0x00000000   Number         0  uldiv.o ABSOLUTE
    ../clib/microlib/division.c              0x00000000   Number         0  uidiv.o ABSOLUTE
    ../clib/microlib/init/entry.s            0x00000000   Number         0  entry11a.o ABSOLUTE
    ../clib/microlib/init/entry.s            0x00000000   Number         0  entry7b.o ABSOLUTE
    ../clib/microlib/init/entry.s            0x00000000   Number         0  entry10b.o ABSOLUTE
    ../clib/microlib/init/entry.s            0x00000000   Number         0  entry8a.o ABSOLUTE
    ../clib/microlib/init/entry.s            0x00000000   Number         0  entry10a.o ABSOLUTE
    ../clib/microlib/init/entry.s            0x00000000   Number         0  entry9b.o ABSOLUTE
    ../clib/microlib/init/entry.s            0x00000000   Number         0  entry.o ABSOLUTE
    ../clib/microlib/init/entry.s            0x00000000   Number         0  entry8b.o ABSOLUTE
    ../clib/microlib/init/entry.s            0x00000000   Number         0  entry9a.o ABSOLUTE
    ../clib/microlib/init/entry.s            0x00000000   Number         0  entry5.o ABSOLUTE
    ../clib/microlib/init/entry.s            0x00000000   Number         0  entry2.o ABSOLUTE
    ../clib/microlib/init/entry.s            0x00000000   Number         0  entry11b.o ABSOLUTE
    ../clib/microlib/init/entry.s            0x00000000   Number         0  entry7a.o ABSOLUTE
    ../clib/microlib/longlong.c              0x00000000   Number         0  llshl.o ABSOLUTE
    ../clib/microlib/longlong.c              0x00000000   Number         0  llsshr.o ABSOLUTE
    ../clib/microlib/longlong.c              0x00000000   Number         0  llushr.o ABSOLUTE
    ../clib/microlib/printf/printf.c         0x00000000   Number         0  printf8.o ABSOLUTE
    ../clib/microlib/printf/printf.c         0x00000000   Number         0  printfa.o ABSOLUTE
    ../clib/microlib/printf/printf.c         0x00000000   Number         0  printf7.o ABSOLUTE
    ../clib/microlib/printf/printf.c         0x00000000   Number         0  printf4.o ABSOLUTE
    ../clib/microlib/printf/printf.c         0x00000000   Number         0  printf3.o ABSOLUTE
    ../clib/microlib/printf/printf.c         0x00000000   Number         0  printf2.o ABSOLUTE
    ../clib/microlib/printf/printf.c         0x00000000   Number         0  printf1.o ABSOLUTE
    ../clib/microlib/printf/printf.c         0x00000000   Number         0  printf0.o ABSOLUTE
    ../clib/microlib/printf/printf.c         0x00000000   Number         0  printfb.o ABSOLUTE
    ../clib/microlib/printf/printf.c         0x00000000   Number         0  printf6.o ABSOLUTE
    ../clib/microlib/printf/printf.c         0x00000000   Number         0  printf5.o ABSOLUTE
    ../clib/microlib/printf/stubs.s          0x00000000   Number         0  stubs.o ABSOLUTE
    ../clib/microlib/stdio/streams.c         0x00000000   Number         0  stdout.o ABSOLUTE
    ../clib/microlib/stubs.s                 0x00000000   Number         0  iusefp.o ABSOLUTE
    ../fplib/microlib/f2d.c                  0x00000000   Number         0  f2d.o ABSOLUTE
    ../fplib/microlib/fpadd.c                0x00000000   Number         0  dadd.o ABSOLUTE
    ../fplib/microlib/fpdiv.c                0x00000000   Number         0  ddiv.o ABSOLUTE
    ../fplib/microlib/fpepilogue.c           0x00000000   Number         0  depilogue.o ABSOLUTE
    ../fplib/microlib/fpfix.c                0x00000000   Number         0  dfixul.o ABSOLUTE
    ../fplib/microlib/fpmul.c                0x00000000   Number         0  dmul.o ABSOLUTE
    App\main.c                               0x00000000   Number         0  main.o ABSOLUTE
    Arm\\system_gd32f30x.c                   0x00000000   Number         0  system_gd32f30x.o ABSOLUTE
    Arm\startup_gd32f30x_hd.s                0x00000000   Number         0  startup_gd32f30x_hd.o ABSOLUTE
    Arm\system_gd32f30x.c                    0x00000000   Number         0  system_gd32f30x.o ABSOLUTE
    Driver\Usb2Com_drv.c                     0x00000000   Number         0  usb2com_drv.o ABSOLUTE
    Driver\\Usb2Com_drv.c                    0x00000000   Number         0  usb2com_drv.o ABSOLUTE
    Driver\\adc_drv.c                        0x00000000   Number         0  adc_drv.o ABSOLUTE
    Driver\\delay.c                          0x00000000   Number         0  delay.o ABSOLUTE
    Driver\\led_drv.c                        0x00000000   Number         0  led_drv.o ABSOLUTE
    Driver\adc_drv.c                         0x00000000   Number         0  adc_drv.o ABSOLUTE
    Driver\delay.c                           0x00000000   Number         0  delay.o ABSOLUTE
    Driver\led_drv.c                         0x00000000   Number         0  led_drv.o ABSOLUTE
    GD32_Lib\Source\gd32f30x_adc.c           0x00000000   Number         0  gd32f30x_adc.o ABSOLUTE
    GD32_Lib\Source\gd32f30x_gpio.c          0x00000000   Number         0  gd32f30x_gpio.o ABSOLUTE
    GD32_Lib\Source\gd32f30x_rcu.c           0x00000000   Number         0  gd32f30x_rcu.o ABSOLUTE
    GD32_Lib\Source\gd32f30x_usart.c         0x00000000   Number         0  gd32f30x_usart.o ABSOLUTE
    GD32_Lib\\Source\\gd32f30x_adc.c         0x00000000   Number         0  gd32f30x_adc.o ABSOLUTE
    GD32_Lib\\Source\\gd32f30x_gpio.c        0x00000000   Number         0  gd32f30x_gpio.o ABSOLUTE
    GD32_Lib\\Source\\gd32f30x_rcu.c         0x00000000   Number         0  gd32f30x_rcu.o ABSOLUTE
    GD32_Lib\\Source\\gd32f30x_usart.c       0x00000000   Number         0  gd32f30x_usart.o ABSOLUTE
    cdrcmple.s                               0x00000000   Number         0  cdrcmple.o ABSOLUTE
    dc.s                                     0x00000000   Number         0  dc.o ABSOLUTE
    handlers.s                               0x00000000   Number         0  handlers.o ABSOLUTE
    init.s                                   0x00000000   Number         0  init.o ABSOLUTE
    RESET                                    0x08000000   Section      304  startup_gd32f30x_hd.o(RESET)
    .ARM.Collect$$$$00000000                 0x08000130   Section        0  entry.o(.ARM.Collect$$$$00000000)
    .ARM.Collect$$$$00000001                 0x08000130   Section        4  entry2.o(.ARM.Collect$$$$00000001)
    .ARM.Collect$$$$00000004                 0x08000134   Section        4  entry5.o(.ARM.Collect$$$$00000004)
    .ARM.Collect$$$$00000008                 0x08000138   Section        0  entry7b.o(.ARM.Collect$$$$00000008)
    .ARM.Collect$$$$0000000A                 0x08000138   Section        0  entry8b.o(.ARM.Collect$$$$0000000A)
    .ARM.Collect$$$$0000000B                 0x08000138   Section        8  entry9a.o(.ARM.Collect$$$$0000000B)
    .ARM.Collect$$$$0000000D                 0x08000140   Section        0  entry10a.o(.ARM.Collect$$$$0000000D)
    .ARM.Collect$$$$0000000F                 0x08000140   Section        0  entry11a.o(.ARM.Collect$$$$0000000F)
    .ARM.Collect$$$$00002712                 0x08000140   Section        4  entry2.o(.ARM.Collect$$$$00002712)
    __lit__00000000                          0x08000140   Data           4  entry2.o(.ARM.Collect$$$$00002712)
    .text                                    0x08000144   Section       36  startup_gd32f30x_hd.o(.text)
    $v0                                      0x08000144   Number         0  startup_gd32f30x_hd.o(.text)
    .text                                    0x08000168   Section        0  f2d.o(.text)
    .text                                    0x08000190   Section       48  cdrcmple.o(.text)
    .text                                    0x080001c0   Section        0  uidiv.o(.text)
    .text                                    0x080001ec   Section        0  uldiv.o(.text)
    .text                                    0x0800024e   Section        0  dadd.o(.text)
    .text                                    0x0800024e   Section        0  iusefp.o(.text)
    .text                                    0x0800039c   Section        0  dmul.o(.text)
    .text                                    0x08000480   Section        0  ddiv.o(.text)
    .text                                    0x0800055e   Section        0  dfixul.o(.text)
    .text                                    0x08000590   Section       36  init.o(.text)
    .text                                    0x080005b4   Section        0  llshl.o(.text)
    .text                                    0x080005d2   Section        0  llushr.o(.text)
    .text                                    0x080005f2   Section        0  llsshr.o(.text)
    .text                                    0x08000616   Section        0  depilogue.o(.text)
    i.AdcConfigInit                          0x080006d0   Section        0  adc_drv.o(i.AdcConfigInit)
    AdcConfigInit                            0x080006d1   Thumb Code    94  adc_drv.o(i.AdcConfigInit)
    i.AdcDrvInit                             0x08000734   Section        0  adc_drv.o(i.AdcDrvInit)
    i.AdcDrvTest                             0x08000740   Section        0  adc_drv.o(i.AdcDrvTest)
    i.AdcGpioInit                            0x080007f0   Section        0  adc_drv.o(i.AdcGpioInit)
    AdcGpioInit                              0x080007f1   Thumb Code    24  adc_drv.o(i.AdcGpioInit)
    i.AllDrvInit                             0x0800080c   Section        0  main.o(i.AllDrvInit)
    AllDrvInit                               0x0800080d   Thumb Code    22  main.o(i.AllDrvInit)
    i.Get_Adc_Average                        0x08000822   Section        0  adc_drv.o(i.Get_Adc_Average)
    i.Get_Adc_Value                          0x0800084c   Section        0  adc_drv.o(i.Get_Adc_Value)
    Get_Adc_Value                            0x0800084d   Thumb Code    52  adc_drv.o(i.Get_Adc_Value)
    i.LedDrvInit                             0x08000884   Section        0  led_drv.o(i.LedDrvInit)
    i.SystemInit                             0x080008e0   Section        0  system_gd32f30x.o(i.SystemInit)
    i.TurnOffLed                             0x08000988   Section        0  led_drv.o(i.TurnOffLed)
    i.TurnOnLed                              0x080009b4   Section        0  led_drv.o(i.TurnOnLed)
    i.Usb2ComDrvInit                         0x080009e0   Section        0  usb2com_drv.o(i.Usb2ComDrvInit)
    i.Usb2ComGpioInit                        0x080009f0   Section        0  usb2com_drv.o(i.Usb2ComGpioInit)
    Usb2ComGpioInit                          0x080009f1   Thumb Code    40  usb2com_drv.o(i.Usb2ComGpioInit)
    i.Usb2ComUartInit                        0x08000a1c   Section        0  usb2com_drv.o(i.Usb2ComUartInit)
    Usb2ComUartInit                          0x08000a1d   Thumb Code    96  usb2com_drv.o(i.Usb2ComUartInit)
    i.__0printf                              0x08000a84   Section        0  printfa.o(i.__0printf)
    i.__scatterload_copy                     0x08000aa4   Section       14  handlers.o(i.__scatterload_copy)
    i.__scatterload_null                     0x08000ab2   Section        2  handlers.o(i.__scatterload_null)
    i.__scatterload_zeroinit                 0x08000ab4   Section       14  handlers.o(i.__scatterload_zeroinit)
    i._fp_digits                             0x08000ac4   Section        0  printfa.o(i._fp_digits)
    _fp_digits                               0x08000ac5   Thumb Code   366  printfa.o(i._fp_digits)
    i._printf_core                           0x08000c48   Section        0  printfa.o(i._printf_core)
    _printf_core                             0x08000c49   Thumb Code  1744  printfa.o(i._printf_core)
    i._printf_post_padding                   0x08001324   Section        0  printfa.o(i._printf_post_padding)
    _printf_post_padding                     0x08001325   Thumb Code    36  printfa.o(i._printf_post_padding)
    i._printf_pre_padding                    0x08001348   Section        0  printfa.o(i._printf_pre_padding)
    _printf_pre_padding                      0x08001349   Thumb Code    46  printfa.o(i._printf_pre_padding)
    i.adc_calibration_enable                 0x08001376   Section        0  gd32f30x_adc.o(i.adc_calibration_enable)
    i.adc_data_alignment_config              0x080013a0   Section        0  gd32f30x_adc.o(i.adc_data_alignment_config)
    i.adc_deinit                             0x080013b8   Section        0  gd32f30x_adc.o(i.adc_deinit)
    i.adc_enable                             0x08001410   Section        0  gd32f30x_adc.o(i.adc_enable)
    i.adc_external_trigger_config            0x08001422   Section        0  gd32f30x_adc.o(i.adc_external_trigger_config)
    i.adc_external_trigger_source_config     0x08001460   Section        0  gd32f30x_adc.o(i.adc_external_trigger_source_config)
    i.adc_flag_get                           0x08001490   Section        0  gd32f30x_adc.o(i.adc_flag_get)
    i.adc_mode_config                        0x080014a0   Section        0  gd32f30x_adc.o(i.adc_mode_config)
    i.adc_regular_channel_config             0x080014bc   Section        0  gd32f30x_adc.o(i.adc_regular_channel_config)
    i.adc_regular_data_read                  0x08001568   Section        0  gd32f30x_adc.o(i.adc_regular_data_read)
    i.adc_software_trigger_enable            0x08001570   Section        0  gd32f30x_adc.o(i.adc_software_trigger_enable)
    i.adc_special_function_config            0x0800158e   Section        0  gd32f30x_adc.o(i.adc_special_function_config)
    i.delay_init                             0x080015e8   Section        0  delay.o(i.delay_init)
    i.delay_ms                               0x08001640   Section        0  delay.o(i.delay_ms)
    i.delay_us                               0x08001678   Section        0  delay.o(i.delay_us)
    i.fputc                                  0x080016c4   Section        0  usb2com_drv.o(i.fputc)
    i.gpio_bit_reset                         0x080016ec   Section        0  gd32f30x_gpio.o(i.gpio_bit_reset)
    i.gpio_bit_set                           0x080016f0   Section        0  gd32f30x_gpio.o(i.gpio_bit_set)
    i.gpio_init                              0x080016f4   Section        0  gd32f30x_gpio.o(i.gpio_init)
    i.main                                   0x080017b0   Section        0  main.o(i.main)
    i.rcu_adc_clock_config                   0x080017ec   Section        0  gd32f30x_rcu.o(i.rcu_adc_clock_config)
    i.rcu_clock_freq_get                     0x08001858   Section        0  gd32f30x_rcu.o(i.rcu_clock_freq_get)
    i.rcu_periph_clock_enable                0x080019b0   Section        0  gd32f30x_rcu.o(i.rcu_periph_clock_enable)
    i.rcu_periph_reset_disable               0x080019d0   Section        0  gd32f30x_rcu.o(i.rcu_periph_reset_disable)
    i.rcu_periph_reset_enable                0x080019f0   Section        0  gd32f30x_rcu.o(i.rcu_periph_reset_enable)
    i.system_clock_120m_hxtal                0x08001a10   Section        0  system_gd32f30x.o(i.system_clock_120m_hxtal)
    system_clock_120m_hxtal                  0x08001a11   Thumb Code   258  system_gd32f30x.o(i.system_clock_120m_hxtal)
    i.system_clock_config                    0x08001b24   Section        0  system_gd32f30x.o(i.system_clock_config)
    system_clock_config                      0x08001b25   Thumb Code     8  system_gd32f30x.o(i.system_clock_config)
    i.usart_baudrate_set                     0x08001b2c   Section        0  gd32f30x_usart.o(i.usart_baudrate_set)
    i.usart_data_transmit                    0x08001bbc   Section        0  gd32f30x_usart.o(i.usart_data_transmit)
    i.usart_deinit                           0x08001bc4   Section        0  gd32f30x_usart.o(i.usart_deinit)
    i.usart_enable                           0x08001c54   Section        0  gd32f30x_usart.o(i.usart_enable)
    i.usart_flag_get                         0x08001c5e   Section        0  gd32f30x_usart.o(i.usart_flag_get)
    i.usart_interrupt_enable                 0x08001c7c   Section        0  gd32f30x_usart.o(i.usart_interrupt_enable)
    i.usart_parity_config                    0x08001c96   Section        0  gd32f30x_usart.o(i.usart_parity_config)
    i.usart_receive_config                   0x08001ca6   Section        0  gd32f30x_usart.o(i.usart_receive_config)
    i.usart_stop_bit_set                     0x08001cba   Section        0  gd32f30x_usart.o(i.usart_stop_bit_set)
    i.usart_transmit_config                  0x08001cca   Section        0  gd32f30x_usart.o(i.usart_transmit_config)
    i.usart_word_length_set                  0x08001cde   Section        0  gd32f30x_usart.o(i.usart_word_length_set)
    .data                                    0x20000000   Section       24  led_drv.o(.data)
    .data                                    0x20000018   Section       32  usb2com_drv.o(.data)
    .data                                    0x20000038   Section        2  delay.o(.data)
    g_fac_us                                 0x20000038   Data           2  delay.o(.data)
    .data                                    0x2000003c   Section        4  stdout.o(.data)
    STACK                                    0x20000040   Section     1024  startup_gd32f30x_hd.o(STACK)

    Global Symbols

    Symbol Name                              Value     Ov Type        Size  Object(Section)

    BuildAttributes$$THM_ISAv4$E$P$D$K$B$S$7EM$VFPi3$EXTD16$VFPS$VFMA$PE$A:L22UL41UL21$X:L11$S22US41US21$IEEE1$IW$USESV6$~STKCKD$USESV7$~SHL$OSPACE$ROPI$EBA8$MICROLIB$REQ8$PRES8$EABIv2 0x00000000   Number         0  anon$$obj.o ABSOLUTE
    __ARM_use_no_argv                        0x00000000   Number         0  main.o ABSOLUTE
    _printf_a                                0x00000000   Number         0  stubs.o ABSOLUTE
    _printf_c                                0x00000000   Number         0  stubs.o ABSOLUTE
    _printf_charcount                        0x00000000   Number         0  stubs.o ABSOLUTE
    _printf_d                                0x00000000   Number         0  stubs.o ABSOLUTE
    _printf_e                                0x00000000   Number         0  stubs.o ABSOLUTE
    _printf_f                                0x00000000   Number         0  stubs.o ABSOLUTE
    _printf_flags                            0x00000000   Number         0  stubs.o ABSOLUTE
    _printf_fp_dec                           0x00000000   Number         0  stubs.o ABSOLUTE
    _printf_fp_hex                           0x00000000   Number         0  stubs.o ABSOLUTE
    _printf_g                                0x00000000   Number         0  stubs.o ABSOLUTE
    _printf_i                                0x00000000   Number         0  stubs.o ABSOLUTE
    _printf_int_dec                          0x00000000   Number         0  stubs.o ABSOLUTE
    _printf_l                                0x00000000   Number         0  stubs.o ABSOLUTE
    _printf_lc                               0x00000000   Number         0  stubs.o ABSOLUTE
    _printf_ll                               0x00000000   Number         0  stubs.o ABSOLUTE
    _printf_lld                              0x00000000   Number         0  stubs.o ABSOLUTE
    _printf_lli                              0x00000000   Number         0  stubs.o ABSOLUTE
    _printf_llo                              0x00000000   Number         0  stubs.o ABSOLUTE
    _printf_llu                              0x00000000   Number         0  stubs.o ABSOLUTE
    _printf_llx                              0x00000000   Number         0  stubs.o ABSOLUTE
    _printf_longlong_dec                     0x00000000   Number         0  stubs.o ABSOLUTE
    _printf_longlong_hex                     0x00000000   Number         0  stubs.o ABSOLUTE
    _printf_longlong_oct                     0x00000000   Number         0  stubs.o ABSOLUTE
    _printf_ls                               0x00000000   Number         0  stubs.o ABSOLUTE
    _printf_mbtowc                           0x00000000   Number         0  stubs.o ABSOLUTE
    _printf_n                                0x00000000   Number         0  stubs.o ABSOLUTE
    _printf_o                                0x00000000   Number         0  stubs.o ABSOLUTE
    _printf_p                                0x00000000   Number         0  stubs.o ABSOLUTE
    _printf_percent                          0x00000000   Number         0  stubs.o ABSOLUTE
    _printf_pre_padding                      0x00000000   Number         0  stubs.o ABSOLUTE
    _printf_return_value                     0x00000000   Number         0  stubs.o ABSOLUTE
    _printf_s                                0x00000000   Number         0  stubs.o ABSOLUTE
    _printf_sizespec                         0x00000000   Number         0  stubs.o ABSOLUTE
    _printf_str                              0x00000000   Number         0  stubs.o ABSOLUTE
    _printf_truncate_signed                  0x00000000   Number         0  stubs.o ABSOLUTE
    _printf_truncate_unsigned                0x00000000   Number         0  stubs.o ABSOLUTE
    _printf_u                                0x00000000   Number         0  stubs.o ABSOLUTE
    _printf_wc                               0x00000000   Number         0  stubs.o ABSOLUTE
    _printf_wctomb                           0x00000000   Number         0  stubs.o ABSOLUTE
    _printf_widthprec                        0x00000000   Number         0  stubs.o ABSOLUTE
    _printf_x                                0x00000000   Number         0  stubs.o ABSOLUTE
    __cpp_initialize__aeabi_                  - Undefined Weak Reference
    __cxa_finalize                            - Undefined Weak Reference
    __decompress                              - Undefined Weak Reference
    _clock_init                               - Undefined Weak Reference
    _microlib_exit                            - Undefined Weak Reference
    __Vectors_Size                           0x00000130   Number         0  startup_gd32f30x_hd.o ABSOLUTE
    __Vectors                                0x08000000   Data           4  startup_gd32f30x_hd.o(RESET)
    __Vectors_End                            0x08000130   Data           0  startup_gd32f30x_hd.o(RESET)
    __main                                   0x08000131   Thumb Code     0  entry.o(.ARM.Collect$$$$00000000)
    _main_stk                                0x08000131   Thumb Code     0  entry2.o(.ARM.Collect$$$$00000001)
    _main_scatterload                        0x08000135   Thumb Code     0  entry5.o(.ARM.Collect$$$$00000004)
    __main_after_scatterload                 0x08000139   Thumb Code     0  entry5.o(.ARM.Collect$$$$00000004)
    _main_clock                              0x08000139   Thumb Code     0  entry7b.o(.ARM.Collect$$$$00000008)
    _main_cpp_init                           0x08000139   Thumb Code     0  entry8b.o(.ARM.Collect$$$$0000000A)
    _main_init                               0x08000139   Thumb Code     0  entry9a.o(.ARM.Collect$$$$0000000B)
    __rt_final_cpp                           0x08000141   Thumb Code     0  entry10a.o(.ARM.Collect$$$$0000000D)
    __rt_final_exit                          0x08000141   Thumb Code     0  entry11a.o(.ARM.Collect$$$$0000000F)
    Reset_Handler                            0x08000145   Thumb Code     8  startup_gd32f30x_hd.o(.text)
    NMI_Handler                              0x0800014d   Thumb Code     2  startup_gd32f30x_hd.o(.text)
    HardFault_Handler                        0x0800014f   Thumb Code     2  startup_gd32f30x_hd.o(.text)
    MemManage_Handler                        0x08000151   Thumb Code     2  startup_gd32f30x_hd.o(.text)
    BusFault_Handler                         0x08000153   Thumb Code     2  startup_gd32f30x_hd.o(.text)
    UsageFault_Handler                       0x08000155   Thumb Code     2  startup_gd32f30x_hd.o(.text)
    SVC_Handler                              0x08000157   Thumb Code     2  startup_gd32f30x_hd.o(.text)
    DebugMon_Handler                         0x08000159   Thumb Code     2  startup_gd32f30x_hd.o(.text)
    PendSV_Handler                           0x0800015b   Thumb Code     2  startup_gd32f30x_hd.o(.text)
    SysTick_Handler                          0x0800015d   Thumb Code     2  startup_gd32f30x_hd.o(.text)
    ADC0_1_IRQHandler                        0x0800015f   Thumb Code     0  startup_gd32f30x_hd.o(.text)
    ADC2_IRQHandler                          0x0800015f   Thumb Code     0  startup_gd32f30x_hd.o(.text)
    CAN0_EWMC_IRQHandler                     0x0800015f   Thumb Code     0  startup_gd32f30x_hd.o(.text)
    CAN0_RX1_IRQHandler                      0x0800015f   Thumb Code     0  startup_gd32f30x_hd.o(.text)
    DMA0_Channel0_IRQHandler                 0x0800015f   Thumb Code     0  startup_gd32f30x_hd.o(.text)
    DMA0_Channel1_IRQHandler                 0x0800015f   Thumb Code     0  startup_gd32f30x_hd.o(.text)
    DMA0_Channel2_IRQHandler                 0x0800015f   Thumb Code     0  startup_gd32f30x_hd.o(.text)
    DMA0_Channel3_IRQHandler                 0x0800015f   Thumb Code     0  startup_gd32f30x_hd.o(.text)
    DMA0_Channel4_IRQHandler                 0x0800015f   Thumb Code     0  startup_gd32f30x_hd.o(.text)
    DMA0_Channel5_IRQHandler                 0x0800015f   Thumb Code     0  startup_gd32f30x_hd.o(.text)
    DMA0_Channel6_IRQHandler                 0x0800015f   Thumb Code     0  startup_gd32f30x_hd.o(.text)
    DMA1_Channel0_IRQHandler                 0x0800015f   Thumb Code     0  startup_gd32f30x_hd.o(.text)
    DMA1_Channel1_IRQHandler                 0x0800015f   Thumb Code     0  startup_gd32f30x_hd.o(.text)
    DMA1_Channel2_IRQHandler                 0x0800015f   Thumb Code     0  startup_gd32f30x_hd.o(.text)
    DMA1_Channel3_4_IRQHandler               0x0800015f   Thumb Code     0  startup_gd32f30x_hd.o(.text)
    EXMC_IRQHandler                          0x0800015f   Thumb Code     0  startup_gd32f30x_hd.o(.text)
    EXTI0_IRQHandler                         0x0800015f   Thumb Code     0  startup_gd32f30x_hd.o(.text)
    EXTI10_15_IRQHandler                     0x0800015f   Thumb Code     0  startup_gd32f30x_hd.o(.text)
    EXTI1_IRQHandler                         0x0800015f   Thumb Code     0  startup_gd32f30x_hd.o(.text)
    EXTI2_IRQHandler                         0x0800015f   Thumb Code     0  startup_gd32f30x_hd.o(.text)
    EXTI3_IRQHandler                         0x0800015f   Thumb Code     0  startup_gd32f30x_hd.o(.text)
    EXTI4_IRQHandler                         0x0800015f   Thumb Code     0  startup_gd32f30x_hd.o(.text)
    EXTI5_9_IRQHandler                       0x0800015f   Thumb Code     0  startup_gd32f30x_hd.o(.text)
    FMC_IRQHandler                           0x0800015f   Thumb Code     0  startup_gd32f30x_hd.o(.text)
    I2C0_ER_IRQHandler                       0x0800015f   Thumb Code     0  startup_gd32f30x_hd.o(.text)
    I2C0_EV_IRQHandler                       0x0800015f   Thumb Code     0  startup_gd32f30x_hd.o(.text)
    I2C1_ER_IRQHandler                       0x0800015f   Thumb Code     0  startup_gd32f30x_hd.o(.text)
    I2C1_EV_IRQHandler                       0x0800015f   Thumb Code     0  startup_gd32f30x_hd.o(.text)
    LVD_IRQHandler                           0x0800015f   Thumb Code     0  startup_gd32f30x_hd.o(.text)
    RCU_CTC_IRQHandler                       0x0800015f   Thumb Code     0  startup_gd32f30x_hd.o(.text)
    RTC_Alarm_IRQHandler                     0x0800015f   Thumb Code     0  startup_gd32f30x_hd.o(.text)
    RTC_IRQHandler                           0x0800015f   Thumb Code     0  startup_gd32f30x_hd.o(.text)
    SDIO_IRQHandler                          0x0800015f   Thumb Code     0  startup_gd32f30x_hd.o(.text)
    SPI0_IRQHandler                          0x0800015f   Thumb Code     0  startup_gd32f30x_hd.o(.text)
    SPI1_IRQHandler                          0x0800015f   Thumb Code     0  startup_gd32f30x_hd.o(.text)
    SPI2_IRQHandler                          0x0800015f   Thumb Code     0  startup_gd32f30x_hd.o(.text)
    TAMPER_IRQHandler                        0x0800015f   Thumb Code     0  startup_gd32f30x_hd.o(.text)
    TIMER0_BRK_IRQHandler                    0x0800015f   Thumb Code     0  startup_gd32f30x_hd.o(.text)
    TIMER0_Channel_IRQHandler                0x0800015f   Thumb Code     0  startup_gd32f30x_hd.o(.text)
    TIMER0_TRG_CMT_IRQHandler                0x0800015f   Thumb Code     0  startup_gd32f30x_hd.o(.text)
    TIMER0_UP_IRQHandler                     0x0800015f   Thumb Code     0  startup_gd32f30x_hd.o(.text)
    TIMER1_IRQHandler                        0x0800015f   Thumb Code     0  startup_gd32f30x_hd.o(.text)
    TIMER2_IRQHandler                        0x0800015f   Thumb Code     0  startup_gd32f30x_hd.o(.text)
    TIMER3_IRQHandler                        0x0800015f   Thumb Code     0  startup_gd32f30x_hd.o(.text)
    TIMER4_IRQHandler                        0x0800015f   Thumb Code     0  startup_gd32f30x_hd.o(.text)
    TIMER5_IRQHandler                        0x0800015f   Thumb Code     0  startup_gd32f30x_hd.o(.text)
    TIMER6_IRQHandler                        0x0800015f   Thumb Code     0  startup_gd32f30x_hd.o(.text)
    TIMER7_BRK_IRQHandler                    0x0800015f   Thumb Code     0  startup_gd32f30x_hd.o(.text)
    TIMER7_Channel_IRQHandler                0x0800015f   Thumb Code     0  startup_gd32f30x_hd.o(.text)
    TIMER7_TRG_CMT_IRQHandler                0x0800015f   Thumb Code     0  startup_gd32f30x_hd.o(.text)
    TIMER7_UP_IRQHandler                     0x0800015f   Thumb Code     0  startup_gd32f30x_hd.o(.text)
    UART3_IRQHandler                         0x0800015f   Thumb Code     0  startup_gd32f30x_hd.o(.text)
    UART4_IRQHandler                         0x0800015f   Thumb Code     0  startup_gd32f30x_hd.o(.text)
    USART0_IRQHandler                        0x0800015f   Thumb Code     0  startup_gd32f30x_hd.o(.text)
    USART1_IRQHandler                        0x0800015f   Thumb Code     0  startup_gd32f30x_hd.o(.text)
    USART2_IRQHandler                        0x0800015f   Thumb Code     0  startup_gd32f30x_hd.o(.text)
    USBD_HP_CAN0_TX_IRQHandler               0x0800015f   Thumb Code     0  startup_gd32f30x_hd.o(.text)
    USBD_LP_CAN0_RX0_IRQHandler              0x0800015f   Thumb Code     0  startup_gd32f30x_hd.o(.text)
    USBD_WKUP_IRQHandler                     0x0800015f   Thumb Code     0  startup_gd32f30x_hd.o(.text)
    WWDGT_IRQHandler                         0x0800015f   Thumb Code     0  startup_gd32f30x_hd.o(.text)
    __aeabi_f2d                              0x08000169   Thumb Code    38  f2d.o(.text)
    __aeabi_cdrcmple                         0x08000191   Thumb Code    48  cdrcmple.o(.text)
    __aeabi_uidiv                            0x080001c1   Thumb Code     0  uidiv.o(.text)
    __aeabi_uidivmod                         0x080001c1   Thumb Code    44  uidiv.o(.text)
    __aeabi_uldivmod                         0x080001ed   Thumb Code    98  uldiv.o(.text)
    __I$use$fp                               0x0800024f   Thumb Code     0  iusefp.o(.text)
    __aeabi_dadd                             0x0800024f   Thumb Code   322  dadd.o(.text)
    __aeabi_dsub                             0x08000391   Thumb Code     6  dadd.o(.text)
    __aeabi_drsub                            0x08000397   Thumb Code     6  dadd.o(.text)
    __aeabi_dmul                             0x0800039d   Thumb Code   228  dmul.o(.text)
    __aeabi_ddiv                             0x08000481   Thumb Code   222  ddiv.o(.text)
    __aeabi_d2ulz                            0x0800055f   Thumb Code    48  dfixul.o(.text)
    __scatterload                            0x08000591   Thumb Code    28  init.o(.text)
    __scatterload_rt2                        0x08000591   Thumb Code     0  init.o(.text)
    __aeabi_llsl                             0x080005b5   Thumb Code    30  llshl.o(.text)
    _ll_shift_l                              0x080005b5   Thumb Code     0  llshl.o(.text)
    __aeabi_llsr                             0x080005d3   Thumb Code    32  llushr.o(.text)
    _ll_ushift_r                             0x080005d3   Thumb Code     0  llushr.o(.text)
    __aeabi_lasr                             0x080005f3   Thumb Code    36  llsshr.o(.text)
    _ll_sshift_r                             0x080005f3   Thumb Code     0  llsshr.o(.text)
    _double_round                            0x08000617   Thumb Code    30  depilogue.o(.text)
    _double_epilogue                         0x08000635   Thumb Code   156  depilogue.o(.text)
    AdcDrvInit                               0x08000735   Thumb Code    12  adc_drv.o(i.AdcDrvInit)
    AdcDrvTest                               0x08000741   Thumb Code   132  adc_drv.o(i.AdcDrvTest)
    Get_Adc_Average                          0x08000823   Thumb Code    40  adc_drv.o(i.Get_Adc_Average)
    LedDrvInit                               0x08000885   Thumb Code    86  led_drv.o(i.LedDrvInit)
    SystemInit                               0x080008e1   Thumb Code   156  system_gd32f30x.o(i.SystemInit)
    TurnOffLed                               0x08000989   Thumb Code    40  led_drv.o(i.TurnOffLed)
    TurnOnLed                                0x080009b5   Thumb Code    40  led_drv.o(i.TurnOnLed)
    Usb2ComDrvInit                           0x080009e1   Thumb Code    16  usb2com_drv.o(i.Usb2ComDrvInit)
    __0printf                                0x08000a85   Thumb Code    22  printfa.o(i.__0printf)
    __1printf                                0x08000a85   Thumb Code     0  printfa.o(i.__0printf)
    __2printf                                0x08000a85   Thumb Code     0  printfa.o(i.__0printf)
    __c89printf                              0x08000a85   Thumb Code     0  printfa.o(i.__0printf)
    printf                                   0x08000a85   Thumb Code     0  printfa.o(i.__0printf)
    __scatterload_copy                       0x08000aa5   Thumb Code    14  handlers.o(i.__scatterload_copy)
    __scatterload_null                       0x08000ab3   Thumb Code     2  handlers.o(i.__scatterload_null)
    __scatterload_zeroinit                   0x08000ab5   Thumb Code    14  handlers.o(i.__scatterload_zeroinit)
    adc_calibration_enable                   0x08001377   Thumb Code    42  gd32f30x_adc.o(i.adc_calibration_enable)
    adc_data_alignment_config                0x080013a1   Thumb Code    22  gd32f30x_adc.o(i.adc_data_alignment_config)
    adc_deinit                               0x080013b9   Thumb Code    84  gd32f30x_adc.o(i.adc_deinit)
    adc_enable                               0x08001411   Thumb Code    18  gd32f30x_adc.o(i.adc_enable)
    adc_external_trigger_config              0x08001423   Thumb Code    62  gd32f30x_adc.o(i.adc_external_trigger_config)
    adc_external_trigger_source_config       0x08001461   Thumb Code    48  gd32f30x_adc.o(i.adc_external_trigger_source_config)
    adc_flag_get                             0x08001491   Thumb Code    14  gd32f30x_adc.o(i.adc_flag_get)
    adc_mode_config                          0x080014a1   Thumb Code    22  gd32f30x_adc.o(i.adc_mode_config)
    adc_regular_channel_config               0x080014bd   Thumb Code   172  gd32f30x_adc.o(i.adc_regular_channel_config)
    adc_regular_data_read                    0x08001569   Thumb Code     8  gd32f30x_adc.o(i.adc_regular_data_read)
    adc_software_trigger_enable              0x08001571   Thumb Code    30  gd32f30x_adc.o(i.adc_software_trigger_enable)
    adc_special_function_config              0x0800158f   Thumb Code    90  gd32f30x_adc.o(i.adc_special_function_config)
    delay_init                               0x080015e9   Thumb Code    74  delay.o(i.delay_init)
    delay_ms                                 0x08001641   Thumb Code    50  delay.o(i.delay_ms)
    delay_us                                 0x08001679   Thumb Code    72  delay.o(i.delay_us)
    fputc                                    0x080016c5   Thumb Code    36  usb2com_drv.o(i.fputc)
    gpio_bit_reset                           0x080016ed   Thumb Code     4  gd32f30x_gpio.o(i.gpio_bit_reset)
    gpio_bit_set                             0x080016f1   Thumb Code     4  gd32f30x_gpio.o(i.gpio_bit_set)
    gpio_init                                0x080016f5   Thumb Code   188  gd32f30x_gpio.o(i.gpio_init)
    main                                     0x080017b1   Thumb Code    18  main.o(i.main)
    rcu_adc_clock_config                     0x080017ed   Thumb Code    98  gd32f30x_rcu.o(i.rcu_adc_clock_config)
    rcu_clock_freq_get                       0x08001859   Thumb Code   310  gd32f30x_rcu.o(i.rcu_clock_freq_get)
    rcu_periph_clock_enable                  0x080019b1   Thumb Code    28  gd32f30x_rcu.o(i.rcu_periph_clock_enable)
    rcu_periph_reset_disable                 0x080019d1   Thumb Code    28  gd32f30x_rcu.o(i.rcu_periph_reset_disable)
    rcu_periph_reset_enable                  0x080019f1   Thumb Code    28  gd32f30x_rcu.o(i.rcu_periph_reset_enable)
    usart_baudrate_set                       0x08001b2d   Thumb Code   136  gd32f30x_usart.o(i.usart_baudrate_set)
    usart_data_transmit                      0x08001bbd   Thumb Code     8  gd32f30x_usart.o(i.usart_data_transmit)
    usart_deinit                             0x08001bc5   Thumb Code   136  gd32f30x_usart.o(i.usart_deinit)
    usart_enable                             0x08001c55   Thumb Code    10  gd32f30x_usart.o(i.usart_enable)
    usart_flag_get                           0x08001c5f   Thumb Code    30  gd32f30x_usart.o(i.usart_flag_get)
    usart_interrupt_enable                   0x08001c7d   Thumb Code    26  gd32f30x_usart.o(i.usart_interrupt_enable)
    usart_parity_config                      0x08001c97   Thumb Code    16  gd32f30x_usart.o(i.usart_parity_config)
    usart_receive_config                     0x08001ca7   Thumb Code    20  gd32f30x_usart.o(i.usart_receive_config)
    usart_stop_bit_set                       0x08001cbb   Thumb Code    16  gd32f30x_usart.o(i.usart_stop_bit_set)
    usart_transmit_config                    0x08001ccb   Thumb Code    20  gd32f30x_usart.o(i.usart_transmit_config)
    usart_word_length_set                    0x08001cdf   Thumb Code    16  gd32f30x_usart.o(i.usart_word_length_set)
    Region$$Table$$Base                      0x08001cf0   Number         0  anon$$obj.o(Region$$Table)
    Region$$Table$$Limit                     0x08001d10   Number         0  anon$$obj.o(Region$$Table)
    g_gpioList                               0x20000000   Data          24  led_drv.o(.data)
    g_Usb2comUart0                           0x20000018   Data          32  usb2com_drv.o(.data)
    __stdout                                 0x2000003c   Data           4  stdout.o(.data)
    __initial_sp                             0x20000440   Data           0  startup_gd32f30x_hd.o(STACK)



==============================================================================

Memory Map of the image

  Image Entry point : 0x08000131

  Load Region LR_IROM1 (Base: 0x08000000, Size: 0x00001d50, Max: 0x00040000, ABSOLUTE)

    Execution Region ER_IROM1 (Exec base: 0x08000000, Load base: 0x08000000, Size: 0x00001d10, Max: 0x00040000, ABSOLUTE)

    Exec Addr    Load Addr    Size         Type   Attr      Idx    E Section Name        Object

    0x08000000   0x08000000   0x00000130   Data   RO          319    RESET               startup_gd32f30x_hd.o
    0x08000130   0x08000130   0x00000000   Code   RO         1380  * .ARM.Collect$$$$00000000  mc_w.l(entry.o)
    0x08000130   0x08000130   0x00000004   Code   RO         1648    .ARM.Collect$$$$00000001  mc_w.l(entry2.o)
    0x08000134   0x08000134   0x00000004   Code   RO         1651    .ARM.Collect$$$$00000004  mc_w.l(entry5.o)
    0x08000138   0x08000138   0x00000000   Code   RO         1653    .ARM.Collect$$$$00000008  mc_w.l(entry7b.o)
    0x08000138   0x08000138   0x00000000   Code   RO         1655    .ARM.Collect$$$$0000000A  mc_w.l(entry8b.o)
    0x08000138   0x08000138   0x00000008   Code   RO         1656    .ARM.Collect$$$$0000000B  mc_w.l(entry9a.o)
    0x08000140   0x08000140   0x00000000   Code   RO         1658    .ARM.Collect$$$$0000000D  mc_w.l(entry10a.o)
    0x08000140   0x08000140   0x00000000   Code   RO         1660    .ARM.Collect$$$$0000000F  mc_w.l(entry11a.o)
    0x08000140   0x08000140   0x00000004   Code   RO         1649    .ARM.Collect$$$$00002712  mc_w.l(entry2.o)
    0x08000144   0x08000144   0x00000024   Code   RO          320    .text               startup_gd32f30x_hd.o
    0x08000168   0x08000168   0x00000026   Code   RO         1644    .text               mf_w.l(f2d.o)
    0x0800018e   0x0800018e   0x00000002   PAD
    0x08000190   0x08000190   0x00000030   Code   RO         1646    .text               mf_w.l(cdrcmple.o)
    0x080001c0   0x080001c0   0x0000002c   Code   RO         1663    .text               mc_w.l(uidiv.o)
    0x080001ec   0x080001ec   0x00000062   Code   RO         1665    .text               mc_w.l(uldiv.o)
    0x0800024e   0x0800024e   0x00000000   Code   RO         1667    .text               mc_w.l(iusefp.o)
    0x0800024e   0x0800024e   0x0000014e   Code   RO         1668    .text               mf_w.l(dadd.o)
    0x0800039c   0x0800039c   0x000000e4   Code   RO         1670    .text               mf_w.l(dmul.o)
    0x08000480   0x08000480   0x000000de   Code   RO         1672    .text               mf_w.l(ddiv.o)
    0x0800055e   0x0800055e   0x00000030   Code   RO         1674    .text               mf_w.l(dfixul.o)
    0x0800058e   0x0800058e   0x00000002   PAD
    0x08000590   0x08000590   0x00000024   Code   RO         1676    .text               mc_w.l(init.o)
    0x080005b4   0x080005b4   0x0000001e   Code   RO         1678    .text               mc_w.l(llshl.o)
    0x080005d2   0x080005d2   0x00000020   Code   RO         1680    .text               mc_w.l(llushr.o)
    0x080005f2   0x080005f2   0x00000024   Code   RO         1682    .text               mc_w.l(llsshr.o)
    0x08000616   0x08000616   0x000000ba   Code   RO         1684    .text               mf_w.l(depilogue.o)
    0x080006d0   0x080006d0   0x00000064   Code   RO           41    i.AdcConfigInit     adc_drv.o
    0x08000734   0x08000734   0x0000000c   Code   RO           42    i.AdcDrvInit        adc_drv.o
    0x08000740   0x08000740   0x000000b0   Code   RO           43    i.AdcDrvTest        adc_drv.o
    0x080007f0   0x080007f0   0x0000001c   Code   RO           44    i.AdcGpioInit       adc_drv.o
    0x0800080c   0x0800080c   0x00000016   Code   RO            1    i.AllDrvInit        main.o
    0x08000822   0x08000822   0x00000028   Code   RO           45    i.Get_Adc_Average   adc_drv.o
    0x0800084a   0x0800084a   0x00000002   PAD
    0x0800084c   0x0800084c   0x00000038   Code   RO           46    i.Get_Adc_Value     adc_drv.o
    0x08000884   0x08000884   0x0000005c   Code   RO          194    i.LedDrvInit        led_drv.o
    0x080008e0   0x080008e0   0x000000a8   Code   RO          327    i.SystemInit        system_gd32f30x.o
    0x08000988   0x08000988   0x0000002c   Code   RO          196    i.TurnOffLed        led_drv.o
    0x080009b4   0x080009b4   0x0000002c   Code   RO          197    i.TurnOnLed         led_drv.o
    0x080009e0   0x080009e0   0x00000010   Code   RO          235    i.Usb2ComDrvInit    usb2com_drv.o
    0x080009f0   0x080009f0   0x0000002c   Code   RO          236    i.Usb2ComGpioInit   usb2com_drv.o
    0x08000a1c   0x08000a1c   0x00000068   Code   RO          237    i.Usb2ComUartInit   usb2com_drv.o
    0x08000a84   0x08000a84   0x00000020   Code   RO         1616    i.__0printf         mc_w.l(printfa.o)
    0x08000aa4   0x08000aa4   0x0000000e   Code   RO         1688    i.__scatterload_copy  mc_w.l(handlers.o)
    0x08000ab2   0x08000ab2   0x00000002   Code   RO         1689    i.__scatterload_null  mc_w.l(handlers.o)
    0x08000ab4   0x08000ab4   0x0000000e   Code   RO         1690    i.__scatterload_zeroinit  mc_w.l(handlers.o)
    0x08000ac2   0x08000ac2   0x00000002   PAD
    0x08000ac4   0x08000ac4   0x00000184   Code   RO         1623    i._fp_digits        mc_w.l(printfa.o)
    0x08000c48   0x08000c48   0x000006dc   Code   RO         1624    i._printf_core      mc_w.l(printfa.o)
    0x08001324   0x08001324   0x00000024   Code   RO         1625    i._printf_post_padding  mc_w.l(printfa.o)
    0x08001348   0x08001348   0x0000002e   Code   RO         1626    i._printf_pre_padding  mc_w.l(printfa.o)
    0x08001376   0x08001376   0x0000002a   Code   RO         1152    i.adc_calibration_enable  gd32f30x_adc.o
    0x080013a0   0x080013a0   0x00000016   Code   RO         1154    i.adc_data_alignment_config  gd32f30x_adc.o
    0x080013b6   0x080013b6   0x00000002   PAD
    0x080013b8   0x080013b8   0x00000058   Code   RO         1155    i.adc_deinit        gd32f30x_adc.o
    0x08001410   0x08001410   0x00000012   Code   RO         1160    i.adc_enable        gd32f30x_adc.o
    0x08001422   0x08001422   0x0000003e   Code   RO         1161    i.adc_external_trigger_config  gd32f30x_adc.o
    0x08001460   0x08001460   0x00000030   Code   RO         1162    i.adc_external_trigger_source_config  gd32f30x_adc.o
    0x08001490   0x08001490   0x0000000e   Code   RO         1164    i.adc_flag_get      gd32f30x_adc.o
    0x0800149e   0x0800149e   0x00000002   PAD
    0x080014a0   0x080014a0   0x0000001c   Code   RO         1172    i.adc_mode_config   gd32f30x_adc.o
    0x080014bc   0x080014bc   0x000000ac   Code   RO         1176    i.adc_regular_channel_config  gd32f30x_adc.o
    0x08001568   0x08001568   0x00000008   Code   RO         1177    i.adc_regular_data_read  gd32f30x_adc.o
    0x08001570   0x08001570   0x0000001e   Code   RO         1179    i.adc_software_trigger_enable  gd32f30x_adc.o
    0x0800158e   0x0800158e   0x0000005a   Code   RO         1180    i.adc_special_function_config  gd32f30x_adc.o
    0x080015e8   0x080015e8   0x00000058   Code   RO          281    i.delay_init        delay.o
    0x08001640   0x08001640   0x00000038   Code   RO          282    i.delay_ms          delay.o
    0x08001678   0x08001678   0x0000004c   Code   RO          283    i.delay_us          delay.o
    0x080016c4   0x080016c4   0x00000028   Code   RO          238    i.fputc             usb2com_drv.o
    0x080016ec   0x080016ec   0x00000004   Code   RO          702    i.gpio_bit_reset    gd32f30x_gpio.o
    0x080016f0   0x080016f0   0x00000004   Code   RO          703    i.gpio_bit_set      gd32f30x_gpio.o
    0x080016f4   0x080016f4   0x000000bc   Code   RO          712    i.gpio_init         gd32f30x_gpio.o
    0x080017b0   0x080017b0   0x0000003c   Code   RO            2    i.main              main.o
    0x080017ec   0x080017ec   0x0000006c   Code   RO          381    i.rcu_adc_clock_config  gd32f30x_rcu.o
    0x08001858   0x08001858   0x00000158   Code   RO          390    i.rcu_clock_freq_get  gd32f30x_rcu.o
    0x080019b0   0x080019b0   0x00000020   Code   RO          408    i.rcu_periph_clock_enable  gd32f30x_rcu.o
    0x080019d0   0x080019d0   0x00000020   Code   RO          411    i.rcu_periph_reset_disable  gd32f30x_rcu.o
    0x080019f0   0x080019f0   0x00000020   Code   RO          412    i.rcu_periph_reset_enable  gd32f30x_rcu.o
    0x08001a10   0x08001a10   0x00000114   Code   RO          328    i.system_clock_120m_hxtal  system_gd32f30x.o
    0x08001b24   0x08001b24   0x00000008   Code   RO          329    i.system_clock_config  system_gd32f30x.o
    0x08001b2c   0x08001b2c   0x00000090   Code   RO          836    i.usart_baudrate_set  gd32f30x_usart.o
    0x08001bbc   0x08001bbc   0x00000008   Code   RO          840    i.usart_data_transmit  gd32f30x_usart.o
    0x08001bc4   0x08001bc4   0x00000090   Code   RO          841    i.usart_deinit      gd32f30x_usart.o
    0x08001c54   0x08001c54   0x0000000a   Code   RO          845    i.usart_enable      gd32f30x_usart.o
    0x08001c5e   0x08001c5e   0x0000001e   Code   RO          847    i.usart_flag_get    gd32f30x_usart.o
    0x08001c7c   0x08001c7c   0x0000001a   Code   RO          854    i.usart_interrupt_enable  gd32f30x_usart.o
    0x08001c96   0x08001c96   0x00000010   Code   RO          867    i.usart_parity_config  gd32f30x_usart.o
    0x08001ca6   0x08001ca6   0x00000014   Code   RO          869    i.usart_receive_config  gd32f30x_usart.o
    0x08001cba   0x08001cba   0x00000010   Code   RO          879    i.usart_stop_bit_set  gd32f30x_usart.o
    0x08001cca   0x08001cca   0x00000014   Code   RO          883    i.usart_transmit_config  gd32f30x_usart.o
    0x08001cde   0x08001cde   0x00000010   Code   RO          884    i.usart_word_length_set  gd32f30x_usart.o
    0x08001cee   0x08001cee   0x00000002   PAD
    0x08001cf0   0x08001cf0   0x00000020   Data   RO         1686    Region$$Table       anon$$obj.o


    Execution Region RW_IRAM1 (Exec base: 0x20000000, Load base: 0x08001d10, Size: 0x00000440, Max: 0x0000c000, ABSOLUTE)

    Exec Addr    Load Addr    Size         Type   Attr      Idx    E Section Name        Object

    0x20000000   0x08001d10   0x00000018   Data   RW          198    .data               led_drv.o
    0x20000018   0x08001d28   0x00000020   Data   RW          239    .data               usb2com_drv.o
    0x20000038   0x08001d48   0x00000002   Data   RW          284    .data               delay.o
    0x2000003a   0x08001d4a   0x00000002   PAD
    0x2000003c   0x08001d4c   0x00000004   Data   RW         1662    .data               mc_w.l(stdout.o)
    0x20000040        -       0x00000400   Zero   RW          317    STACK               startup_gd32f30x_hd.o


==============================================================================

Image component sizes


      Code (inc. data)   RO Data    RW Data    ZI Data      Debug   Object Name

       412         58          0          0          0      29012   adc_drv.o
       220         24          0          2          0      28366   delay.o
       622         10          0          0          0       7540   gd32f30x_adc.o
       196          0          0          0          0       1984   gd32f30x_gpio.o
       548         68          0          0          0      20487   gd32f30x_rcu.o
       450         16          0          0          0      13233   gd32f30x_usart.o
       180         14          0         24          0       2371   led_drv.o
        82         42          0          0          0       5407   main.o
        36          8        304          0       1024        812   startup_gd32f30x_hd.o
       452         30          0          0          0       2409   system_gd32f30x.o
       204         16          0         32          0       4198   usb2com_drv.o

    ----------------------------------------------------------------------
      3410        286        336         60       1024     115819   Object Totals
         0          0         32          0          0          0   (incl. Generated)
         8          0          0          2          0          0   (incl. Padding)

    ----------------------------------------------------------------------

      Code (inc. data)   RO Data    RW Data    ZI Data      Debug   Library Member Name

         0          0          0          0          0          0   entry.o
         0          0          0          0          0          0   entry10a.o
         0          0          0          0          0          0   entry11a.o
         8          4          0          0          0          0   entry2.o
         4          0          0          0          0          0   entry5.o
         0          0          0          0          0          0   entry7b.o
         0          0          0          0          0          0   entry8b.o
         8          4          0          0          0          0   entry9a.o
        30          0          0          0          0          0   handlers.o
        36          8          0          0          0         68   init.o
         0          0          0          0          0          0   iusefp.o
        30          0          0          0          0         68   llshl.o
        36          0          0          0          0         68   llsshr.o
        32          0          0          0          0         68   llushr.o
      2258         90          0          0          0        452   printfa.o
         0          0          0          4          0          0   stdout.o
        44          0          0          0          0         80   uidiv.o
        98          0          0          0          0         92   uldiv.o
        48          0          0          0          0         68   cdrcmple.o
       334          0          0          0          0        148   dadd.o
       222          0          0          0          0        100   ddiv.o
       186          0          0          0          0        176   depilogue.o
        48          0          0          0          0         68   dfixul.o
       228          0          0          0          0         96   dmul.o
        38          0          0          0          0         68   f2d.o

    ----------------------------------------------------------------------
      3694        106          0          4          0       1620   Library Totals
         6          0          0          0          0          0   (incl. Padding)

    ----------------------------------------------------------------------

      Code (inc. data)   RO Data    RW Data    ZI Data      Debug   Library Name

      2584        106          0          4          0        896   mc_w.l
      1104          0          0          0          0        724   mf_w.l

    ----------------------------------------------------------------------
      3694        106          0          4          0       1620   Library Totals

    ----------------------------------------------------------------------

==============================================================================


      Code (inc. data)   RO Data    RW Data    ZI Data      Debug   

      7104        392        336         64       1024     112063   Grand Totals
      7104        392        336         64       1024     112063   ELF Image Totals
      7104        392        336         64          0          0   ROM Totals

==============================================================================

    Total RO  Size (Code + RO Data)                 7440 (   7.27kB)
    Total RW  Size (RW Data + ZI Data)              1088 (   1.06kB)
    Total ROM Size (Code + RO Data + RW Data)       7504 (   7.33kB)

==============================================================================

