Component: ARM Compiler 5.06 update 6 (build 750) Tool: armlink [4d35ed]

==============================================================================

Section Cross References

    main.o(i.AllAppInit) refers to usb2com_app.o(i.Usb2ComAppInit) for Usb2ComAppInit
    main.o(i.AllDrvInit) refers to usb2com_drv.o(i.Usb2ComDrvInit) for Usb2ComDrvInit
    main.o(i.AllDrvInit) refers to led_drv.o(i.LedDrvInit) for LedDrvInit
    main.o(i.main) refers to main.o(i.AllDrvInit) for AllDrvInit
    main.o(i.main) refers to main.o(i.AllAppInit) for AllAppInit
    main.o(i.main) refers to usb2com_app.o(i.Usb2ComTask) for Usb2ComTask
    usb2com_app.o(i.CtlLed) refers to led_drv.o(i.TurnOnLed) for TurnOnLed
    usb2com_app.o(i.CtlLed) refers to led_drv.o(i.TurnOffLed) for TurnOffLed
    usb2com_app.o(i.ProcessUartData) refers to usb2com_app.o(.data) for index
    usb2com_app.o(i.ProcessUartData) refers to usb2com_app.o(.bss) for g_RxPackageData
    usb2com_app.o(i.Usb2ComAppInit) refers to usb2com_drv.o(i.regUsb2Comcb) for regUsb2Comcb
    usb2com_app.o(i.Usb2ComAppInit) refers to usb2com_app.o(i.ProcessUartData) for ProcessUartData
    usb2com_app.o(i.Usb2ComTask) refers to usb2com_app.o(i.xorSum) for xorSum
    usb2com_app.o(i.Usb2ComTask) refers to usb2com_app.o(i.CtlLed) for CtlLed
    usb2com_app.o(i.Usb2ComTask) refers to usb2com_app.o(.data) for g_pktRecv
    usb2com_app.o(i.Usb2ComTask) refers to usb2com_app.o(.bss) for g_RxPackageData
    startup_gd32f30x_hd.o(RESET) refers to startup_gd32f30x_hd.o(STACK) for __initial_sp
    startup_gd32f30x_hd.o(RESET) refers to startup_gd32f30x_hd.o(.text) for Reset_Handler
==============================================================================

Removing Unused input sections from the image.

    Removing startup_gd32f30x_hd.o(HEAP), (1024 bytes).
    Removing system_gd32f30x.o(.rev16_text), (4 bytes).
    Removing system_gd32f30x.o(.revsh_text), (4 bytes).
    Removing system_gd32f30x.o(i.SystemCoreClockUpdate), (316 bytes).
    Removing system_gd32f30x.o(.data), (4 bytes).
    Removing usb2com_drv.o(.rev16_text), (4 bytes).
    Removing usb2com_drv.o(.revsh_text), (4 bytes).
    Removing usb2com_drv.o(i.Usb2ComTxTesting), (48 bytes).
    Removing usb2com_drv.o(i.fputc), (40 bytes).
    Removing led_drv.o(.rev16_text), (4 bytes).
    Removing led_drv.o(.revsh_text), (4 bytes).
    Removing led_drv.o(i.ToggleLed), (80 bytes).
    Removing gd32f30x_rcu.o(.rev16_text), (4 bytes).
    Removing gd32f30x_rcu.o(.revsh_text), (4 bytes).
    Removing gd32f30x_rcu.o(i.rcu_adc_clock_config), (108 bytes).
    Removing gd32f30x_rcu.o(i.rcu_ahb_clock_config), (24 bytes).
    Removing gd32f30x_rcu.o(i.rcu_all_reset_flag_clear), (20 bytes).
    Removing gd32f30x_rcu.o(i.rcu_apb1_clock_config), (24 bytes).
==============================================================================

Image Symbol Table

    Local Symbols

    Symbol Name                              Value     Ov Type        Size  Object(Section)

    ../clib/microlib/init/entry.s            0x00000000   Number         0  entry2.o ABSOLUTE
    ../clib/microlib/init/entry.s            0x00000000   Number         0  entry.o ABSOLUTE
    ../clib/microlib/init/entry.s            0x00000000   Number         0  entry11b.o ABSOLUTE
    ../clib/microlib/init/entry.s            0x00000000   Number         0  entry11a.o ABSOLUTE
    ../clib/microlib/init/entry.s            0x00000000   Number         0  entry10b.o ABSOLUTE
    ../clib/microlib/init/entry.s            0x00000000   Number         0  entry10a.o ABSOLUTE
    ../clib/microlib/init/entry.s            0x00000000   Number         0  entry9b.o ABSOLUTE
    ../clib/microlib/init/entry.s            0x00000000   Number         0  entry9a.o ABSOLUTE
    ../clib/microlib/init/entry.s            0x00000000   Number         0  entry8b.o ABSOLUTE
    ../clib/microlib/init/entry.s            0x00000000   Number         0  entry8a.o ABSOLUTE
    ../clib/microlib/init/entry.s            0x00000000   Number         0  entry7b.o ABSOLUTE
    ../clib/microlib/init/entry.s            0x00000000   Number         0  entry7a.o ABSOLUTE
    ../clib/microlib/init/entry.s            0x00000000   Number         0  entry5.o ABSOLUTE
    ..\App\Usb2Com_app.c                     0x00000000   Number         0  usb2com_app.o ABSOLUTE
    ..\App\main.c                            0x00000000   Number         0  main.o ABSOLUTE
    ..\Arm\startup_gd32f30x_hd.s             0x00000000   Number         0  startup_gd32f30x_hd.o ABSOLUTE
    ..\Arm\system_gd32f30x.c                 0x00000000   Number         0  system_gd32f30x.o ABSOLUTE
    ..\Driver\Usb2Com_drv.c                  0x00000000   Number         0  usb2com_drv.o ABSOLUTE
    ..\Driver\led_drv.c                      0x00000000   Number         0  led_drv.o ABSOLUTE
    ..\GD32_lib\Source\gd32f30x_gpio.c       0x00000000   Number         0  gd32f30x_gpio.o ABSOLUTE
    ..\GD32_lib\Source\gd32f30x_misc.c       0x00000000   Number         0  gd32f30x_misc.o ABSOLUTE
    ..\GD32_lib\Source\gd32f30x_rcu.c        0x00000000   Number         0  gd32f30x_rcu.o ABSOLUTE
    ..\GD32_lib\Source\gd32f30x_usart.c      0x00000000   Number         0  gd32f30x_usart.o ABSOLUTE
    ..\\Arm\\system_gd32f30x.c               0x00000000   Number         0  system_gd32f30x.o ABSOLUTE
    ..\\Driver\\Usb2Com_drv.c                0x00000000   Number         0  usb2com_drv.o ABSOLUTE
    ..\\Driver\\led_drv.c                    0x00000000   Number         0  led_drv.o ABSOLUTE
    ..\\GD32_lib\\Source\\gd32f30x_gpio.c    0x00000000   Number         0  gd32f30x_gpio.o ABSOLUTE
    ..\\GD32_lib\\Source\\gd32f30x_misc.c    0x00000000   Number         0  gd32f30x_misc.o ABSOLUTE
    ..\\GD32_lib\\Source\\gd32f30x_rcu.c     0x00000000   Number         0  gd32f30x_rcu.o ABSOLUTE
    ..\\GD32_lib\\Source\\gd32f30x_usart.c   0x00000000   Number         0  gd32f30x_usart.o ABSOLUTE
    dc.s                                     0x00000000   Number         0  dc.o ABSOLUTE
    handlers.s                               0x00000000   Number         0  handlers.o ABSOLUTE
    init.s                                   0x00000000   Number         0  init.o ABSOLUTE
    RESET                                    0x08000000   Section      304  startup_gd32f30x_hd.o(RESET)
    .ARM.Collect$$$$00000000                 0x08000130   Section        0  entry.o(.ARM.Collect$$$$00000000)
    .ARM.Collect$$$$00000001                 0x08000130   Section        4  entry2.o(.ARM.Collect$$$$00000001)
    .ARM.Collect$$$$00000004                 0x08000134   Section        4  entry5.o(.ARM.Collect$$$$00000004)
    .ARM.Collect$$$$00000008                 0x08000138   Section        0  entry7b.o(.ARM.Collect$$$$00000008)
    .ARM.Collect$$$$0000000A                 0x08000138   Section        0  entry8b.o(.ARM.Collect$$$$0000000A)
    .ARM.Collect$$$$0000000B                 0x08000138   Section        8  entry9a.o(.ARM.Collect$$$$0000000B)
    .ARM.Collect$$$$0000000D                 0x08000140   Section        0  entry10a.o(.ARM.Collect$$$$0000000D)
    .ARM.Collect$$$$0000000F                 0x08000140   Section        0  entry11a.o(.ARM.Collect$$$$0000000F)
    .ARM.Collect$$$$00002712                 0x08000140   Section        4  entry2.o(.ARM.Collect$$$$00002712)
    __lit__00000000                          0x08000140   Data           4  entry2.o(.ARM.Collect$$$$00002712)
    .text                                    0x08000144   Section       36  startup_gd32f30x_hd.o(.text)
    $v0                                      0x08000144   Number         0  startup_gd32f30x_hd.o(.text)
    .text                                    0x08000168   Section       36  init.o(.text)
    i.AllAppInit                             0x0800018c   Section        0  main.o(i.AllAppInit)
    AllAppInit                               0x0800018d   Thumb Code     8  main.o(i.AllAppInit)
    i.AllDrvInit                             0x08000194   Section        0  main.o(i.AllDrvInit)
    AllDrvInit                               0x08000195   Thumb Code    16  main.o(i.AllDrvInit)
    i.CtlLed                                 0x080001a4   Section        0  usb2com_app.o(i.CtlLed)
    CtlLed                                   0x080001a5   Thumb Code    24  usb2com_app.o(i.CtlLed)
    i.LedDrvInit                             0x080001bc   Section        0  led_drv.o(i.LedDrvInit)
    i.ProcessUartData                        0x08000218   Section        0  usb2com_app.o(i.ProcessUartData)
    ProcessUartData                          0x08000219   Thumb Code    86  usb2com_app.o(i.ProcessUartData)
    i.SystemInit                             0x0800027c   Section        0  system_gd32f30x.o(i.SystemInit)
    i.TurnOffLed                             0x08000324   Section        0  led_drv.o(i.TurnOffLed)
    i.TurnOnLed                              0x08000350   Section        0  led_drv.o(i.TurnOnLed)
    i.USART0_IRQHandler                      0x0800037c   Section        0  usb2com_drv.o(i.USART0_IRQHandler)
    i.Usb2ComAppInit                         0x080003c0   Section        0  usb2com_app.o(i.Usb2ComAppInit)
    i.Usb2ComDrvInit                         0x080003d0   Section        0  usb2com_drv.o(i.Usb2ComDrvInit)
    i.Usb2ComTask                            0x08000478   Section        0  usb2com_app.o(i.Usb2ComTask)
    i.__scatterload_copy                     0x080004b8   Section       14  handlers.o(i.__scatterload_copy)
    i.__scatterload_null                     0x080004c6   Section        2  handlers.o(i.__scatterload_null)
    i.__scatterload_zeroinit                 0x080004c8   Section       14  handlers.o(i.__scatterload_zeroinit)
    i.gpio_bit_reset                         0x080004d6   Section        0  gd32f30x_gpio.o(i.gpio_bit_reset)
    i.gpio_bit_set                           0x080004da   Section        0  gd32f30x_gpio.o(i.gpio_bit_set)
    i.gpio_init                              0x080004de   Section        0  gd32f30x_gpio.o(i.gpio_init)
    i.main                                   0x0800059a   Section        0  main.o(i.main)
    i.nvic_irq_enable                        0x080005ac   Section        0  gd32f30x_misc.o(i.nvic_irq_enable)
    i.nvic_priority_group_set                0x08000670   Section        0  gd32f30x_misc.o(i.nvic_priority_group_set)
    i.rcu_clock_freq_get                     0x08000684   Section        0  gd32f30x_rcu.o(i.rcu_clock_freq_get)
    i.rcu_periph_clock_enable                0x080007dc   Section        0  gd32f30x_rcu.o(i.rcu_periph_clock_enable)
    i.rcu_periph_reset_disable               0x080007fc   Section        0  gd32f30x_rcu.o(i.rcu_periph_reset_disable)
    i.rcu_periph_reset_enable                0x0800081c   Section        0  gd32f30x_rcu.o(i.rcu_periph_reset_enable)
    i.regUsb2Comcb                           0x0800083c   Section        0  usb2com_drv.o(i.regUsb2Comcb)
    i.system_clock_120m_hxtal                0x08000848   Section        0  system_gd32f30x.o(i.system_clock_120m_hxtal)
    system_clock_120m_hxtal                  0x08000849   Thumb Code   258  system_gd32f30x.o(i.system_clock_120m_hxtal)
    i.system_clock_config                    0x0800095c   Section        0  system_gd32f30x.o(i.system_clock_config)
    system_clock_config                      0x0800095d   Thumb Code     8  system_gd32f30x.o(i.system_clock_config)
    i.usart_baudrate_set                     0x08000964   Section        0  gd32f30x_usart.o(i.usart_baudrate_set)
    i.usart_data_receive                     0x080009f4   Section        0  gd32f30x_usart.o(i.usart_data_receive)
    i.usart_deinit                           0x08000a00   Section        0  gd32f30x_usart.o(i.usart_deinit)
    i.usart_enable                           0x08000a90   Section        0  gd32f30x_usart.o(i.usart_enable)
    i.usart_flag_clear                       0x08000a9a   Section        0  gd32f30x_usart.o(i.usart_flag_clear)
    i.usart_interrupt_enable                 0x08000aac   Section        0  gd32f30x_usart.o(i.usart_interrupt_enable)
    i.usart_interrupt_flag_clear             0x08000ac6   Section        0  gd32f30x_usart.o(i.usart_interrupt_flag_clear)
    i.usart_interrupt_flag_get               0x08000ad8   Section        0  gd32f30x_usart.o(i.usart_interrupt_flag_get)
    i.usart_parity_config                    0x08000b10   Section        0  gd32f30x_usart.o(i.usart_parity_config)
    i.usart_receive_config                   0x08000b20   Section        0  gd32f30x_usart.o(i.usart_receive_config)
    i.usart_stop_bit_set                     0x08000b34   Section        0  gd32f30x_usart.o(i.usart_stop_bit_set)
    i.usart_transmit_config                  0x08000b44   Section        0  gd32f30x_usart.o(i.usart_transmit_config)
    i.usart_word_length_set                  0x08000b58   Section        0  gd32f30x_usart.o(i.usart_word_length_set)
    i.xorSum                                 0x08000b68   Section        0  usb2com_app.o(i.xorSum)
    xorSum                                   0x08000b69   Thumb Code    24  usb2com_app.o(i.xorSum)
    .data                                    0x20000000   Section        2  usb2com_app.o(.data)
    g_pktRecv                                0x20000000   Data           1  usb2com_app.o(.data)
    index                                    0x20000001   Data           1  usb2com_app.o(.data)
    .data                                    0x20000004   Section       28  usb2com_drv.o(.data)
    .data                                    0x20000020   Section       24  led_drv.o(.data)
    .bss                                     0x20000038   Section       20  usb2com_app.o(.bss)
    g_RxPackageData                          0x20000038   Data          20  usb2com_app.o(.bss)
    STACK                                    0x20000050   Section     1024  startup_gd32f30x_hd.o(STACK)

    Global Symbols

    Symbol Name                              Value     Ov Type        Size  Object(Section)

    BuildAttributes$$THM_ISAv4$E$P$D$K$B$S$7EM$VFPi3$EXTD16$VFPS$VFMA$PE$A:L22UL41UL21$X:L11$S22US41US21$IEEE1$IW$USESV6$~STKCKD$USESV7$~SHL$OSPACE$EBA8$MICROLIB$REQ8$PRES8$EABIv2 0x00000000   Number         0  anon$$obj.o ABSOLUTE
    __ARM_use_no_argv                        0x00000000   Number         0  main.o ABSOLUTE
    __cpp_initialize__aeabi_                  - Undefined Weak Reference
    __cxa_finalize                            - Undefined Weak Reference
    __decompress                              - Undefined Weak Reference
    _clock_init                               - Undefined Weak Reference
    _microlib_exit                            - Undefined Weak Reference
    __Vectors_Size                           0x00000130   Number         0  startup_gd32f30x_hd.o ABSOLUTE
    __Vectors                                0x08000000   Data           4  startup_gd32f30x_hd.o(RESET)
    __Vectors_End                            0x08000130   Data           0  startup_gd32f30x_hd.o(RESET)
    __main                                   0x08000131   Thumb Code     0  entry.o(.ARM.Collect$$$$00000000)
    _main_stk                                0x08000131   Thumb Code     0  entry2.o(.ARM.Collect$$$$00000001)
    _main_scatterload                        0x08000135   Thumb Code     0  entry5.o(.ARM.Collect$$$$00000004)
    __main_after_scatterload                 0x08000139   Thumb Code     0  entry5.o(.ARM.Collect$$$$00000004)
    _main_clock                              0x08000139   Thumb Code     0  entry7b.o(.ARM.Collect$$$$00000008)
    _main_cpp_init                           0x08000139   Thumb Code     0  entry8b.o(.ARM.Collect$$$$0000000A)
    _main_init                               0x08000139   Thumb Code     0  entry9a.o(.ARM.Collect$$$$0000000B)
    __rt_final_cpp                           0x08000141   Thumb Code     0  entry10a.o(.ARM.Collect$$$$0000000D)
    __rt_final_exit                          0x08000141   Thumb Code     0  entry11a.o(.ARM.Collect$$$$0000000F)
    Reset_Handler                            0x08000145   Thumb Code     8  startup_gd32f30x_hd.o(.text)
    NMI_Handler                              0x0800014d   Thumb Code     2  startup_gd32f30x_hd.o(.text)
    HardFault_Handler                        0x0800014f   Thumb Code     2  startup_gd32f30x_hd.o(.text)
    MemManage_Handler                        0x08000151   Thumb Code     2  startup_gd32f30x_hd.o(.text)
    BusFault_Handler                         0x08000153   Thumb Code     2  startup_gd32f30x_hd.o(.text)
    UsageFault_Handler                       0x08000155   Thumb Code     2  startup_gd32f30x_hd.o(.text)
    SVC_Handler                              0x08000157   Thumb Code     2  startup_gd32f30x_hd.o(.text)
    DebugMon_Handler                         0x08000159   Thumb Code     2  startup_gd32f30x_hd.o(.text)
    PendSV_Handler                           0x0800015b   Thumb Code     2  startup_gd32f30x_hd.o(.text)
    SysTick_Handler                          0x0800015d   Thumb Code     2  startup_gd32f30x_hd.o(.text)
    ADC0_1_IRQHandler                        0x0800015f   Thumb Code     0  startup_gd32f30x_hd.o(.text)
    ADC2_IRQHandler                          0x0800015f   Thumb Code     0  startup_gd32f30x_hd.o(.text)
    CAN0_EWMC_IRQHandler                     0x0800015f   Thumb Code     0  startup_gd32f30x_hd.o(.text)
    CAN0_RX1_IRQHandler                      0x0800015f   Thumb Code     0  startup_gd32f30x_hd.o(.text)
    DMA0_Channel0_IRQHandler                 0x0800015f   Thumb Code     0  startup_gd32f30x_hd.o(.text)
    DMA0_Channel1_IRQHandler                 0x0800015f   Thumb Code     0  startup_gd32f30x_hd.o(.text)
    DMA0_Channel2_IRQHandler                 0x0800015f   Thumb Code     0  startup_gd32f30x_hd.o(.text)
    DMA0_Channel3_IRQHandler                 0x0800015f   Thumb Code     0  startup_gd32f30x_hd.o(.text)
    DMA0_Channel4_IRQHandler                 0x0800015f   Thumb Code     0  startup_gd32f30x_hd.o(.text)
    DMA0_Channel5_IRQHandler                 0x0800015f   Thumb Code     0  startup_gd32f30x_hd.o(.text)
    DMA0_Channel6_IRQHandler                 0x0800015f   Thumb Code     0  startup_gd32f30x_hd.o(.text)
    DMA1_Channel0_IRQHandler                 0x0800015f   Thumb Code     0  startup_gd32f30x_hd.o(.text)
    DMA1_Channel1_IRQHandler                 0x0800015f   Thumb Code     0  startup_gd32f30x_hd.o(.text)
    DMA1_Channel2_IRQHandler                 0x0800015f   Thumb Code     0  startup_gd32f30x_hd.o(.text)
    DMA1_Channel3_4_IRQHandler               0x0800015f   Thumb Code     0  startup_gd32f30x_hd.o(.text)
    EXMC_IRQHandler                          0x0800015f   Thumb Code     0  startup_gd32f30x_hd.o(.text)
    EXTI0_IRQHandler                         0x0800015f   Thumb Code     0  startup_gd32f30x_hd.o(.text)
    EXTI10_15_IRQHandler                     0x0800015f   Thumb Code     0  startup_gd32f30x_hd.o(.text)
    EXTI1_IRQHandler                         0x0800015f   Thumb Code     0  startup_gd32f30x_hd.o(.text)
    EXTI2_IRQHandler                         0x0800015f   Thumb Code     0  startup_gd32f30x_hd.o(.text)
    EXTI3_IRQHandler                         0x0800015f   Thumb Code     0  startup_gd32f30x_hd.o(.text)
    EXTI4_IRQHandler                         0x0800015f   Thumb Code     0  startup_gd32f30x_hd.o(.text)
    EXTI5_9_IRQHandler                       0x0800015f   Thumb Code     0  startup_gd32f30x_hd.o(.text)
    FMC_IRQHandler                           0x0800015f   Thumb Code     0  startup_gd32f30x_hd.o(.text)
    I2C0_ER_IRQHandler                       0x0800015f   Thumb Code     0  startup_gd32f30x_hd.o(.text)
    I2C0_EV_IRQHandler                       0x0800015f   Thumb Code     0  startup_gd32f30x_hd.o(.text)
    I2C1_ER_IRQHandler                       0x0800015f   Thumb Code     0  startup_gd32f30x_hd.o(.text)
    I2C1_EV_IRQHandler                       0x0800015f   Thumb Code     0  startup_gd32f30x_hd.o(.text)
    LVD_IRQHandler                           0x0800015f   Thumb Code     0  startup_gd32f30x_hd.o(.text)
    RCU_CTC_IRQHandler                       0x0800015f   Thumb Code     0  startup_gd32f30x_hd.o(.text)
    RTC_Alarm_IRQHandler                     0x0800015f   Thumb Code     0  startup_gd32f30x_hd.o(.text)
    RTC_IRQHandler                           0x0800015f   Thumb Code     0  startup_gd32f30x_hd.o(.text)
    SDIO_IRQHandler                          0x0800015f   Thumb Code     0  startup_gd32f30x_hd.o(.text)
    SPI0_IRQHandler                          0x0800015f   Thumb Code     0  startup_gd32f30x_hd.o(.text)
    SPI1_IRQHandler                          0x0800015f   Thumb Code     0  startup_gd32f30x_hd.o(.text)
    SPI2_IRQHandler                          0x0800015f   Thumb Code     0  startup_gd32f30x_hd.o(.text)
    TAMPER_IRQHandler                        0x0800015f   Thumb Code     0  startup_gd32f30x_hd.o(.text)
    TIMER0_BRK_IRQHandler                    0x0800015f   Thumb Code     0  startup_gd32f30x_hd.o(.text)
    TIMER0_Channel_IRQHandler                0x0800015f   Thumb Code     0  startup_gd32f30x_hd.o(.text)
    TIMER0_TRG_CMT_IRQHandler                0x0800015f   Thumb Code     0  startup_gd32f30x_hd.o(.text)
    TIMER0_UP_IRQHandler                     0x0800015f   Thumb Code     0  startup_gd32f30x_hd.o(.text)
    TIMER1_IRQHandler                        0x0800015f   Thumb Code     0  startup_gd32f30x_hd.o(.text)
    TIMER2_IRQHandler                        0x0800015f   Thumb Code     0  startup_gd32f30x_hd.o(.text)
    TIMER3_IRQHandler                        0x0800015f   Thumb Code     0  startup_gd32f30x_hd.o(.text)
    TIMER4_IRQHandler                        0x0800015f   Thumb Code     0  startup_gd32f30x_hd.o(.text)
    TIMER5_IRQHandler                        0x0800015f   Thumb Code     0  startup_gd32f30x_hd.o(.text)
    TIMER6_IRQHandler                        0x0800015f   Thumb Code     0  startup_gd32f30x_hd.o(.text)
    TIMER7_BRK_IRQHandler                    0x0800015f   Thumb Code     0  startup_gd32f30x_hd.o(.text)
    TIMER7_Channel_IRQHandler                0x0800015f   Thumb Code     0  startup_gd32f30x_hd.o(.text)
    TIMER7_TRG_CMT_IRQHandler                0x0800015f   Thumb Code     0  startup_gd32f30x_hd.o(.text)
    TIMER7_UP_IRQHandler                     0x0800015f   Thumb Code     0  startup_gd32f30x_hd.o(.text)
    UART3_IRQHandler                         0x0800015f   Thumb Code     0  startup_gd32f30x_hd.o(.text)
    UART4_IRQHandler                         0x0800015f   Thumb Code     0  startup_gd32f30x_hd.o(.text)
    USART1_IRQHandler                        0x0800015f   Thumb Code     0  startup_gd32f30x_hd.o(.text)
    USART2_IRQHandler                        0x0800015f   Thumb Code     0  startup_gd32f30x_hd.o(.text)
    USBD_HP_CAN0_TX_IRQHandler               0x0800015f   Thumb Code     0  startup_gd32f30x_hd.o(.text)
    USBD_LP_CAN0_RX0_IRQHandler              0x0800015f   Thumb Code     0  startup_gd32f30x_hd.o(.text)
    USBD_WKUP_IRQHandler                     0x0800015f   Thumb Code     0  startup_gd32f30x_hd.o(.text)
    WWDGT_IRQHandler                         0x0800015f   Thumb Code     0  startup_gd32f30x_hd.o(.text)
    __scatterload                            0x08000169   Thumb Code    28  init.o(.text)
    __scatterload_rt2                        0x08000169   Thumb Code     0  init.o(.text)
    LedDrvInit                               0x080001bd   Thumb Code    86  led_drv.o(i.LedDrvInit)
    SystemInit                               0x0800027d   Thumb Code   156  system_gd32f30x.o(i.SystemInit)
    TurnOffLed                               0x08000325   Thumb Code    40  led_drv.o(i.TurnOffLed)
    TurnOnLed                                0x08000351   Thumb Code    40  led_drv.o(i.TurnOnLed)
    USART0_IRQHandler                        0x0800037d   Thumb Code    54  usb2com_drv.o(i.USART0_IRQHandler)
    Usb2ComAppInit                           0x080003c1   Thumb Code    10  usb2com_app.o(i.Usb2ComAppInit)
    Usb2ComDrvInit                           0x080003d1   Thumb Code   164  usb2com_drv.o(i.Usb2ComDrvInit)
    Usb2ComTask                              0x08000479   Thumb Code    54  usb2com_app.o(i.Usb2ComTask)
    __scatterload_copy                       0x080004b9   Thumb Code    14  handlers.o(i.__scatterload_copy)
    __scatterload_null                       0x080004c7   Thumb Code     2  handlers.o(i.__scatterload_null)
    __scatterload_zeroinit                   0x080004c9   Thumb Code    14  handlers.o(i.__scatterload_zeroinit)
    gpio_bit_reset                           0x080004d7   Thumb Code     4  gd32f30x_gpio.o(i.gpio_bit_reset)
    gpio_bit_set                             0x080004db   Thumb Code     4  gd32f30x_gpio.o(i.gpio_bit_set)
    gpio_init                                0x080004df   Thumb Code   188  gd32f30x_gpio.o(i.gpio_init)
    main                                     0x0800059b   Thumb Code    16  main.o(i.main)
    nvic_irq_enable                          0x080005ad   Thumb Code   186  gd32f30x_misc.o(i.nvic_irq_enable)
    nvic_priority_group_set                  0x08000671   Thumb Code    10  gd32f30x_misc.o(i.nvic_priority_group_set)
    rcu_clock_freq_get                       0x08000685   Thumb Code   310  gd32f30x_rcu.o(i.rcu_clock_freq_get)
    rcu_periph_clock_enable                  0x080007dd   Thumb Code    28  gd32f30x_rcu.o(i.rcu_periph_clock_enable)
    rcu_periph_reset_disable                 0x080007fd   Thumb Code    28  gd32f30x_rcu.o(i.rcu_periph_reset_disable)
    rcu_periph_reset_enable                  0x0800081d   Thumb Code    28  gd32f30x_rcu.o(i.rcu_periph_reset_enable)
    regUsb2Comcb                             0x0800083d   Thumb Code     8  usb2com_drv.o(i.regUsb2Comcb)
    usart_baudrate_set                       0x08000965   Thumb Code   136  gd32f30x_usart.o(i.usart_baudrate_set)
    usart_data_receive                       0x080009f5   Thumb Code    10  gd32f30x_usart.o(i.usart_data_receive)
    usart_deinit                             0x08000a01   Thumb Code   136  gd32f30x_usart.o(i.usart_deinit)
    usart_enable                             0x08000a91   Thumb Code    10  gd32f30x_usart.o(i.usart_enable)
    usart_flag_clear                         0x08000a9b   Thumb Code    18  gd32f30x_usart.o(i.usart_flag_clear)
    usart_interrupt_enable                   0x08000aad   Thumb Code    26  gd32f30x_usart.o(i.usart_interrupt_enable)
    usart_interrupt_flag_clear               0x08000ac7   Thumb Code    18  gd32f30x_usart.o(i.usart_interrupt_flag_clear)
    usart_interrupt_flag_get                 0x08000ad9   Thumb Code    56  gd32f30x_usart.o(i.usart_interrupt_flag_get)
    usart_parity_config                      0x08000b11   Thumb Code    16  gd32f30x_usart.o(i.usart_parity_config)
    usart_receive_config                     0x08000b21   Thumb Code    20  gd32f30x_usart.o(i.usart_receive_config)
    usart_stop_bit_set                       0x08000b35   Thumb Code    16  gd32f30x_usart.o(i.usart_stop_bit_set)
    usart_transmit_config                    0x08000b45   Thumb Code    20  gd32f30x_usart.o(i.usart_transmit_config)
    usart_word_length_set                    0x08000b59   Thumb Code    16  gd32f30x_usart.o(i.usart_word_length_set)
    Region$$Table$$Base                      0x08000b80   Number         0  anon$$obj.o(Region$$Table)
    Region$$Table$$Limit                     0x08000ba0   Number         0  anon$$obj.o(Region$$Table)
    g_Usb2comUart0                           0x20000004   Data          24  usb2com_drv.o(.data)
    uartProcessUartData                      0x2000001c   Data           4  usb2com_drv.o(.data)
    g_gpioList                               0x20000020   Data          24  led_drv.o(.data)
    __initial_sp                             0x20000450   Data           0  startup_gd32f30x_hd.o(STACK)



==============================================================================

Memory Map of the image

  Image Entry point : 0x08000131

  Load Region LR_IROM1 (Base: 0x08000000, Size: 0x00000bd8, Max: 0x00040000, ABSOLUTE)

    Execution Region ER_IROM1 (Exec base: 0x08000000, Load base: 0x08000000, Size: 0x00000ba0, Max: 0x00040000, ABSOLUTE)

    Exec Addr    Load Addr    Size         Type   Attr      Idx    E Section Name        Object

    0x08000000   0x08000000   0x00000130   Data   RO           82    RESET               startup_gd32f30x_hd.o
    0x08000130   0x08000130   0x00000000   Code   RO         1144  * .ARM.Collect$$$$00000000  mc_w.l(entry.o)
    0x08000130   0x08000130   0x00000004   Code   RO         1147    .ARM.Collect$$$$00000001  mc_w.l(entry2.o)
    0x08000134   0x08000134   0x00000004   Code   RO         1150    .ARM.Collect$$$$00000004  mc_w.l(entry5.o)
    0x08000138   0x08000138   0x00000000   Code   RO         1152    .ARM.Collect$$$$00000008  mc_w.l(entry7b.o)
    0x08000138   0x08000138   0x00000000   Code   RO         1154    .ARM.Collect$$$$0000000A  mc_w.l(entry8b.o)
    0x08000138   0x08000138   0x00000008   Code   RO         1155    .ARM.Collect$$$$0000000B  mc_w.l(entry9a.o)
    0x08000140   0x08000140   0x00000000   Code   RO         1157    .ARM.Collect$$$$0000000D  mc_w.l(entry10a.o)
    0x08000140   0x08000140   0x00000000   Code   RO         1159    .ARM.Collect$$$$0000000F  mc_w.l(entry11a.o)
    0x08000140   0x08000140   0x00000004   Code   RO         1148    .ARM.Collect$$$$00002712  mc_w.l(entry2.o)
    0x08000144   0x08000144   0x00000024   Code   RO           83    .text               startup_gd32f30x_hd.o
    0x08000168   0x08000168   0x00000024   Code   RO         1161    .text               mc_w.l(init.o)
    0x0800018c   0x0800018c   0x00000008   Code   RO            1    i.AllAppInit        main.o
    0x08000194   0x08000194   0x00000010   Code   RO            2    i.AllDrvInit        main.o
    0x080001a4   0x080001a4   0x00000018   Code   RO           41    i.CtlLed            usb2com_app.o
    0x080001bc   0x080001bc   0x0000005c   Code   RO          278    i.LedDrvInit        led_drv.o
    0x08000218   0x08000218   0x00000064   Code   RO           42    i.ProcessUartData   usb2com_app.o
    0x0800027c   0x0800027c   0x000000a8   Code   RO           91    i.SystemInit        system_gd32f30x.o
    0x08000324   0x08000324   0x0000002c   Code   RO          280    i.TurnOffLed        led_drv.o
    0x08000350   0x08000350   0x0000002c   Code   RO          281    i.TurnOnLed         led_drv.o
    0x0800037c   0x0800037c   0x00000044   Code   RO          223    i.USART0_IRQHandler  usb2com_drv.o
    0x080003c0   0x080003c0   0x00000010   Code   RO           43    i.Usb2ComAppInit    usb2com_app.o
    0x080003d0   0x080003d0   0x000000a8   Code   RO          224    i.Usb2ComDrvInit    usb2com_drv.o
    0x08000478   0x08000478   0x00000040   Code   RO           44    i.Usb2ComTask       usb2com_app.o
    0x080004b8   0x080004b8   0x0000000e   Code   RO         1165    i.__scatterload_copy  mc_w.l(handlers.o)
    0x080004c6   0x080004c6   0x00000002   Code   RO         1166    i.__scatterload_null  mc_w.l(handlers.o)
    0x080004c8   0x080004c8   0x0000000e   Code   RO         1167    i.__scatterload_zeroinit  mc_w.l(handlers.o)
    0x080004d6   0x080004d6   0x00000004   Code   RO          960    i.gpio_bit_reset    gd32f30x_gpio.o
    0x080004da   0x080004da   0x00000004   Code   RO          961    i.gpio_bit_set      gd32f30x_gpio.o
    0x080004de   0x080004de   0x000000bc   Code   RO          970    i.gpio_init         gd32f30x_gpio.o
    0x0800059a   0x0800059a   0x00000010   Code   RO            3    i.main              main.o
    0x080005aa   0x080005aa   0x00000002   PAD
    0x080005ac   0x080005ac   0x000000c4   Code   RO         1091    i.nvic_irq_enable   gd32f30x_misc.o
    0x08000670   0x08000670   0x00000014   Code   RO         1092    i.nvic_priority_group_set  gd32f30x_misc.o
    0x08000684   0x08000684   0x00000158   Code   RO          328    i.rcu_clock_freq_get  gd32f30x_rcu.o
    0x080007dc   0x080007dc   0x00000020   Code   RO          346    i.rcu_periph_clock_enable  gd32f30x_rcu.o
    0x080007fc   0x080007fc   0x00000020   Code   RO          349    i.rcu_periph_reset_disable  gd32f30x_rcu.o
    0x0800081c   0x0800081c   0x00000020   Code   RO          350    i.rcu_periph_reset_enable  gd32f30x_rcu.o
    0x0800083c   0x0800083c   0x0000000c   Code   RO          227    i.regUsb2Comcb      usb2com_drv.o
    0x08000848   0x08000848   0x00000114   Code   RO           92    i.system_clock_120m_hxtal  system_gd32f30x.o
    0x0800095c   0x0800095c   0x00000008   Code   RO           93    i.system_clock_config  system_gd32f30x.o
    0x08000964   0x08000964   0x00000090   Code   RO          640    i.usart_baudrate_set  gd32f30x_usart.o
    0x080009f4   0x080009f4   0x0000000a   Code   RO          643    i.usart_data_receive  gd32f30x_usart.o
    0x080009fe   0x080009fe   0x00000002   PAD
    0x08000a00   0x08000a00   0x00000090   Code   RO          645    i.usart_deinit      gd32f30x_usart.o
    0x08000a90   0x08000a90   0x0000000a   Code   RO          649    i.usart_enable      gd32f30x_usart.o
    0x08000a9a   0x08000a9a   0x00000012   Code   RO          650    i.usart_flag_clear  gd32f30x_usart.o
    0x08000aac   0x08000aac   0x0000001a   Code   RO          658    i.usart_interrupt_enable  gd32f30x_usart.o
    0x08000ac6   0x08000ac6   0x00000012   Code   RO          659    i.usart_interrupt_flag_clear  gd32f30x_usart.o
    0x08000ad8   0x08000ad8   0x00000038   Code   RO          660    i.usart_interrupt_flag_get  gd32f30x_usart.o
    0x08000b10   0x08000b10   0x00000010   Code   RO          671    i.usart_parity_config  gd32f30x_usart.o
    0x08000b20   0x08000b20   0x00000014   Code   RO          673    i.usart_receive_config  gd32f30x_usart.o
    0x08000b34   0x08000b34   0x00000010   Code   RO          683    i.usart_stop_bit_set  gd32f30x_usart.o
    0x08000b44   0x08000b44   0x00000014   Code   RO          687    i.usart_transmit_config  gd32f30x_usart.o
    0x08000b58   0x08000b58   0x00000010   Code   RO          688    i.usart_word_length_set  gd32f30x_usart.o
    0x08000b68   0x08000b68   0x00000018   Code   RO           45    i.xorSum            usb2com_app.o
    0x08000b80   0x08000b80   0x00000020   Data   RO         1163    Region$$Table       anon$$obj.o


    Execution Region RW_IRAM1 (Exec base: 0x20000000, Load base: 0x08000ba0, Size: 0x00000450, Max: 0x0000c000, ABSOLUTE)

    Exec Addr    Load Addr    Size         Type   Attr      Idx    E Section Name        Object

    0x20000000   0x08000ba0   0x00000002   Data   RW           47    .data               usb2com_app.o
    0x20000002   0x08000ba2   0x00000002   PAD
    0x20000004   0x08000ba4   0x0000001c   Data   RW          228    .data               usb2com_drv.o
    0x20000020   0x08000bc0   0x00000018   Data   RW          282    .data               led_drv.o
    0x20000038        -       0x00000014   Zero   RW           46    .bss                usb2com_app.o
    0x2000004c   0x08000bd8   0x00000004   PAD
    0x20000050        -       0x00000400   Zero   RW           80    STACK               startup_gd32f30x_hd.o


==============================================================================

Image component sizes


      Code (inc. data)   RO Data    RW Data    ZI Data      Debug   Object Name

       196          0          0          0          0       2016   gd32f30x_gpio.o
       216         20          0          0          0       1412   gd32f30x_misc.o
       440         46          0          0          0      19900   gd32f30x_rcu.o
       514         16          0          0          0      14658   gd32f30x_usart.o
       180         14          0         24          0       2415   led_drv.o
        40          0          0          0          0       5859   main.o
        36          8        304          0       1024        852   startup_gd32f30x_hd.o
       452         30          0          0          0      23617   system_gd32f30x.o
       228         30          0          2         20       3575   usb2com_app.o
       248         22          0         28          0       2701   usb2com_drv.o

    ----------------------------------------------------------------------
      2554        186        336         56       1048      77005   Object Totals
         0          0         32          0          0          0   (incl. Generated)
         4          0          0          2          4          0   (incl. Padding)

    ----------------------------------------------------------------------

      Code (inc. data)   RO Data    RW Data    ZI Data      Debug   Library Member Name

         0          0          0          0          0          0   entry.o
         0          0          0          0          0          0   entry10a.o
         0          0          0          0          0          0   entry11a.o
         8          4          0          0          0          0   entry2.o
         4          0          0          0          0          0   entry5.o
         0          0          0          0          0          0   entry7b.o
         0          0          0          0          0          0   entry8b.o
         8          4          0          0          0          0   entry9a.o
        30          0          0          0          0          0   handlers.o
        36          8          0          0          0         68   init.o

    ----------------------------------------------------------------------
        86         16          0          0          0         68   Library Totals
         0          0          0          0          0          0   (incl. Padding)

    ----------------------------------------------------------------------

      Code (inc. data)   RO Data    RW Data    ZI Data      Debug   Library Name

        86         16          0          0          0         68   mc_w.l

    ----------------------------------------------------------------------
        86         16          0          0          0         68   Library Totals

    ----------------------------------------------------------------------

==============================================================================


      Code (inc. data)   RO Data    RW Data    ZI Data      Debug   

      2640        202        336         56       1048      73777   Grand Totals
      2640        202        336         56       1048      73777   ELF Image Totals
      2640        202        336         56          0          0   ROM Totals

==============================================================================

    Total RO  Size (Code + RO Data)                 2976 (   2.91kB)
    Total RW  Size (RW Data + ZI Data)              1104 (   1.08kB)
    Total ROM Size (Code + RO Data + RW Data)       3032 (   2.96kB)

==============================================================================

