Component: ARM Compiler 5.06 update 6 (build 750) Tool: armlink [4d35ed]

==============================================================================

Section Cross References

    main.o(i.AllDrvInit) refers to led_drv.o(i.LedDrvInit) for LedDrvInit
    main.o(i.AllDrvInit) refers to timer_drv.o(i.TimerDrvInit) for TimerDrvInit
    main.o(i.AllDrvInit) refers to usb2com_drv.o(i.Usb2ComDrvInit) for Usb2ComDrvInit
    main.o(i.AllDrvInit) refers to keyboard_drv.o(i.keyboard_init) for keyboard_init
    main.o(i.AllDrvInit) refers to buzzer_drv.o(i.buzzer_init) for buzzer_init
    main.o(i.AllDrvInit) refers to delay.o(i.delay_init) for delay_init
    main.o(i.main) refers to main.o(i.AllDrvInit) for AllDrvInit
    main.o(i.main) refers to keyboard_drv.o(i.setPassWord) for setPassWord
    main.o(i.main) refers to keyboard_drv.o(i.keyBoardTest) for keyBoardTest
    main.o(i.main) refers to main.o(.constdata) for .constdata
    led_drv.o(i.LedDrvInit) refers to gd32f30x_rcu.o(i.rcu_periph_clock_enable) for rcu_periph_clock_enable
    led_drv.o(i.LedDrvInit) refers to gd32f30x_gpio.o(i.gpio_init) for gpio_init
    led_drv.o(i.LedDrvInit) refers to gd32f30x_gpio.o(i.gpio_bit_set) for gpio_bit_set
    led_drv.o(i.LedDrvInit) refers to led_drv.o(.data) for g_gpioList
    led_drv.o(i.ToggleLed) refers to gd32f30x_gpio.o(i.gpio_input_bit_get) for gpio_input_bit_get
    led_drv.o(i.ToggleLed) refers to gd32f30x_gpio.o(i.gpio_bit_write) for gpio_bit_write
    led_drv.o(i.ToggleLed) refers to led_drv.o(.data) for g_gpioList
    led_drv.o(i.TurnOffLed) refers to gd32f30x_gpio.o(i.gpio_bit_set) for gpio_bit_set
==============================================================================

Removing Unused input sections from the image.

    Removing led_drv.o(.rev16_text), (4 bytes).
    Removing led_drv.o(.revsh_text), (4 bytes).
    Removing led_drv.o(i.ToggleLed), (80 bytes).
    Removing led_drv.o(i.TurnOffLed), (44 bytes).
    Removing led_drv.o(i.TurnOnLed), (44 bytes).
    Removing usb2com_drv.o(.rev16_text), (4 bytes).
    Removing usb2com_drv.o(.revsh_text), (4 bytes).
    Removing usb2com_drv.o(i.Usb2ComTxTesting), (48 bytes).
    Removing usb2com_drv.o(i.regUsb2Comcb), (12 bytes).
    Removing keyboard_drv.o(.rev16_text), (4 bytes).
    Removing keyboard_drv.o(.revsh_text), (4 bytes).
    Removing keyboard_drv.o(i.showBit), (128 bytes).
    Removing delay.o(.rev16_text), (4 bytes).
    Removing delay.o(.revsh_text), (4 bytes).
    Removing timer_drv.o(.rev16_text), (4 bytes).
    Removing timer_drv.o(.revsh_text), (4 bytes).
    Removing buzzer_drv.o(.rev16_text), (4 bytes).
    Removing buzzer_drv.o(.revsh_text), (4 bytes).
==============================================================================

Image Symbol Table

    Local Symbols

    Symbol Name                              Value     Ov Type        Size  Object(Section)

    ../clib/microlib/division.c              0x00000000   Number         0  uidiv.o ABSOLUTE
    ../clib/microlib/division.c              0x00000000   Number         0  uldiv.o ABSOLUTE
    ../clib/microlib/init/entry.s            0x00000000   Number         0  entry2.o ABSOLUTE
    ../clib/microlib/init/entry.s            0x00000000   Number         0  entry7a.o ABSOLUTE
    ../clib/microlib/init/entry.s            0x00000000   Number         0  entry7b.o ABSOLUTE
    ../clib/microlib/init/entry.s            0x00000000   Number         0  entry11a.o ABSOLUTE
    ../clib/microlib/init/entry.s            0x00000000   Number         0  entry8a.o ABSOLUTE
    ../clib/microlib/init/entry.s            0x00000000   Number         0  entry9a.o ABSOLUTE
    ../clib/microlib/init/entry.s            0x00000000   Number         0  entry8b.o ABSOLUTE
    ../clib/microlib/init/entry.s            0x00000000   Number         0  entry11b.o ABSOLUTE
    ../clib/microlib/init/entry.s            0x00000000   Number         0  entry9b.o ABSOLUTE
    ../clib/microlib/init/entry.s            0x00000000   Number         0  entry10a.o ABSOLUTE
    ../clib/microlib/init/entry.s            0x00000000   Number         0  entry10b.o ABSOLUTE
    ../clib/microlib/init/entry.s            0x00000000   Number         0  entry.o ABSOLUTE
    ../clib/microlib/init/entry.s            0x00000000   Number         0  entry5.o ABSOLUTE
    ../clib/microlib/longlong.c              0x00000000   Number         0  llshl.o ABSOLUTE
    ../clib/microlib/longlong.c              0x00000000   Number         0  llushr.o ABSOLUTE
    ../clib/microlib/longlong.c              0x00000000   Number         0  llsshr.o ABSOLUTE
    ../clib/microlib/printf/printf.c         0x00000000   Number         0  printf2.o ABSOLUTE
    ../clib/microlib/printf/printf.c         0x00000000   Number         0  printf1.o ABSOLUTE
    ../clib/microlib/printf/printf.c         0x00000000   Number         0  printf0.o ABSOLUTE
    ../clib/microlib/printf/printf.c         0x00000000   Number         0  printfb.o ABSOLUTE
    ../clib/microlib/printf/printf.c         0x00000000   Number         0  printfa.o ABSOLUTE
    ../clib/microlib/printf/printf.c         0x00000000   Number         0  printf7.o ABSOLUTE
    ../clib/microlib/printf/printf.c         0x00000000   Number         0  printf6.o ABSOLUTE
    ../clib/microlib/printf/printf.c         0x00000000   Number         0  printf5.o ABSOLUTE
    ../clib/microlib/printf/printf.c         0x00000000   Number         0  printf4.o ABSOLUTE
    ../clib/microlib/printf/printf.c         0x00000000   Number         0  printf8.o ABSOLUTE
    ../clib/microlib/printf/printf.c         0x00000000   Number         0  printf3.o ABSOLUTE
    ../clib/microlib/printf/stubs.s          0x00000000   Number         0  stubs.o ABSOLUTE
    ../clib/microlib/stdio/streams.c         0x00000000   Number         0  stdout.o ABSOLUTE
    ../clib/microlib/string/memset.c         0x00000000   Number         0  memseta.o ABSOLUTE
    ../clib/microlib/stubs.s                 0x00000000   Number         0  iusefp.o ABSOLUTE
    ../fplib/microlib/fpadd.c                0x00000000   Number         0  dadd.o ABSOLUTE
    ../fplib/microlib/fpdiv.c                0x00000000   Number         0  ddiv.o ABSOLUTE
    ../fplib/microlib/fpepilogue.c           0x00000000   Number         0  depilogue.o ABSOLUTE
    ../fplib/microlib/fpfix.c                0x00000000   Number         0  dfixul.o ABSOLUTE
    ../fplib/microlib/fpmul.c                0x00000000   Number         0  dmul.o ABSOLUTE
    App\main.c                               0x00000000   Number         0  main.o ABSOLUTE
    Arm\\system_gd32f30x.c                   0x00000000   Number         0  system_gd32f30x.o ABSOLUTE
    Arm\startup_gd32f30x_hd.s                0x00000000   Number         0  startup_gd32f30x_hd.o ABSOLUTE
    Arm\system_gd32f30x.c                    0x00000000   Number         0  system_gd32f30x.o ABSOLUTE
    Driver\Usb2Com_drv.c                     0x00000000   Number         0  usb2com_drv.o ABSOLUTE
    Driver\\Usb2Com_drv.c                    0x00000000   Number         0  usb2com_drv.o ABSOLUTE
    Driver\\buzzer_drv.c                     0x00000000   Number         0  buzzer_drv.o ABSOLUTE
    Driver\\delay.c                          0x00000000   Number         0  delay.o ABSOLUTE
    Driver\\keyboard_drv.c                   0x00000000   Number         0  keyboard_drv.o ABSOLUTE
    Driver\\led_drv.c                        0x00000000   Number         0  led_drv.o ABSOLUTE
    Driver\\timer_drv.c                      0x00000000   Number         0  timer_drv.o ABSOLUTE
    Driver\buzzer_drv.c                      0x00000000   Number         0  buzzer_drv.o ABSOLUTE
    Driver\delay.c                           0x00000000   Number         0  delay.o ABSOLUTE
    Driver\keyboard_drv.c                    0x00000000   Number         0  keyboard_drv.o ABSOLUTE
    Driver\led_drv.c                         0x00000000   Number         0  led_drv.o ABSOLUTE
    Driver\timer_drv.c                       0x00000000   Number         0  timer_drv.o ABSOLUTE
    GD32_Lib\Source\gd32f30x_exti.c          0x00000000   Number         0  gd32f30x_exti.o ABSOLUTE
    GD32_Lib\Source\gd32f30x_gpio.c          0x00000000   Number         0  gd32f30x_gpio.o ABSOLUTE
    GD32_Lib\Source\gd32f30x_misc.c          0x00000000   Number         0  gd32f30x_misc.o ABSOLUTE
    GD32_Lib\Source\gd32f30x_rcu.c           0x00000000   Number         0  gd32f30x_rcu.o ABSOLUTE
    GD32_Lib\Source\gd32f30x_timer.c         0x00000000   Number         0  gd32f30x_timer.o ABSOLUTE
    GD32_Lib\Source\gd32f30x_usart.c         0x00000000   Number         0  gd32f30x_usart.o ABSOLUTE
    GD32_Lib\\Source\\gd32f30x_exti.c        0x00000000   Number         0  gd32f30x_exti.o ABSOLUTE
    GD32_Lib\\Source\\gd32f30x_gpio.c        0x00000000   Number         0  gd32f30x_gpio.o ABSOLUTE
    GD32_Lib\\Source\\gd32f30x_misc.c        0x00000000   Number         0  gd32f30x_misc.o ABSOLUTE
    GD32_Lib\\Source\\gd32f30x_rcu.c         0x00000000   Number         0  gd32f30x_rcu.o ABSOLUTE
    GD32_Lib\\Source\\gd32f30x_timer.c       0x00000000   Number         0  gd32f30x_timer.o ABSOLUTE
    GD32_Lib\\Source\\gd32f30x_usart.c       0x00000000   Number         0  gd32f30x_usart.o ABSOLUTE
    cdrcmple.s                               0x00000000   Number         0  cdrcmple.o ABSOLUTE
    dc.s                                     0x00000000   Number         0  dc.o ABSOLUTE
    handlers.s                               0x00000000   Number         0  handlers.o ABSOLUTE
    init.s                                   0x00000000   Number         0  init.o ABSOLUTE
    RESET                                    0x08000000   Section      304  startup_gd32f30x_hd.o(RESET)
    .ARM.Collect$$$$00000000                 0x08000130   Section        0  entry.o(.ARM.Collect$$$$00000000)
    .ARM.Collect$$$$00000001                 0x08000130   Section        4  entry2.o(.ARM.Collect$$$$00000001)
    .ARM.Collect$$$$00000004                 0x08000134   Section        4  entry5.o(.ARM.Collect$$$$00000004)
    .ARM.Collect$$$$00000008                 0x08000138   Section        0  entry7b.o(.ARM.Collect$$$$00000008)
    .ARM.Collect$$$$0000000A                 0x08000138   Section        0  entry8b.o(.ARM.Collect$$$$0000000A)
    .ARM.Collect$$$$0000000B                 0x08000138   Section        8  entry9a.o(.ARM.Collect$$$$0000000B)
    .ARM.Collect$$$$0000000D                 0x08000140   Section        0  entry10a.o(.ARM.Collect$$$$0000000D)
    .ARM.Collect$$$$0000000F                 0x08000140   Section        0  entry11a.o(.ARM.Collect$$$$0000000F)
    .ARM.Collect$$$$00002712                 0x08000140   Section        4  entry2.o(.ARM.Collect$$$$00002712)
    __lit__00000000                          0x08000140   Data           4  entry2.o(.ARM.Collect$$$$00002712)
    .text                                    0x08000144   Section       36  startup_gd32f30x_hd.o(.text)
    $v0                                      0x08000144   Number         0  startup_gd32f30x_hd.o(.text)
    .text                                    0x08000168   Section        0  memseta.o(.text)
    .text                                    0x0800018c   Section        0  uidiv.o(.text)
    .text                                    0x080001b8   Section       36  init.o(.text)
    i.AllDrvInit                             0x080001dc   Section        0  main.o(i.AllDrvInit)
    AllDrvInit                               0x080001dd   Thumb Code    34  main.o(i.AllDrvInit)
    i.LedDrvInit                             0x08000200   Section        0  led_drv.o(i.LedDrvInit)
    i.PwmDrvTest                             0x0800025c   Section        0  timer_drv.o(i.PwmDrvTest)
    i.SystemInit                             0x080002a8   Section        0  system_gd32f30x.o(i.SystemInit)
    i.TimeInit                               0x08000350   Section        0  timer_drv.o(i.TimeInit)
    TimeInit                                 0x08000351   Thumb Code   110  timer_drv.o(i.TimeInit)
    i.TimerDrvInit                           0x080003c4   Section        0  timer_drv.o(i.TimerDrvInit)
    i.TimerGpioInit                          0x080003d8   Section        0  timer_drv.o(i.TimerGpioInit)
    TimerGpioInit                            0x080003d9   Thumb Code    26  timer_drv.o(i.TimerGpioInit)
    i.USART0_IRQHandler                      0x080003f8   Section        0  usb2com_drv.o(i.USART0_IRQHandler)
    i.Usb2ComDrvInit                         0x0800043c   Section        0  usb2com_drv.o(i.Usb2ComDrvInit)
    i.__0printf$1                            0x080004e4   Section        0  printf1.o(i.__0printf$1)
    i.__scatterload_copy                     0x08000504   Section       14  handlers.o(i.__scatterload_copy)
    i.__scatterload_null                     0x08000512   Section        2  handlers.o(i.__scatterload_null)
    i.__scatterload_zeroinit                 0x08000514   Section       14  handlers.o(i.__scatterload_zeroinit)
    i._printf_core                           0x08000524   Section        0  printf1.o(i._printf_core)
    _printf_core                             0x08000525   Thumb Code   336  printf1.o(i._printf_core)
    i.active_ring                            0x08000678   Section        0  buzzer_drv.o(i.active_ring)
    i.buzzer_init                            0x08000698   Section        0  buzzer_drv.o(i.buzzer_init)
    i.checkPassword                          0x080006bc   Section        0  keyboard_drv.o(i.checkPassword)
    i.delay_init                             0x080006e4   Section        0  delay.o(i.delay_init)
    i.delay_ms                               0x0800070c   Section        0  delay.o(i.delay_ms)
    i.delay_us                               0x08000744   Section        0  delay.o(i.delay_us)
    i.fputc                                  0x08000790   Section        0  usb2com_drv.o(i.fputc)
    i.gpio_bit_reset                         0x080007b8   Section        0  gd32f30x_gpio.o(i.gpio_bit_reset)
    i.gpio_bit_set                           0x080007bc   Section        0  gd32f30x_gpio.o(i.gpio_bit_set)
    i.gpio_bit_write                         0x080007c0   Section        0  gd32f30x_gpio.o(i.gpio_bit_write)
    i.gpio_init                              0x080007ca   Section        0  gd32f30x_gpio.o(i.gpio_init)
    i.gpio_input_bit_get                     0x08000886   Section        0  gd32f30x_gpio.o(i.gpio_input_bit_get)
    i.handleKeypadInput                      0x08000898   Section        0  keyboard_drv.o(i.handleKeypadInput)
    i.keyBoardTest                           0x08000984   Section        0  keyboard_drv.o(i.keyBoardTest)
    i.keyboard_init                          0x080009a4   Section        0  keyboard_drv.o(i.keyboard_init)
    i.main                                   0x08000a00   Section        0  main.o(i.main)
    i.nvic_irq_enable                        0x08000a24   Section        0  gd32f30x_misc.o(i.nvic_irq_enable)
    i.nvic_priority_group_set                0x08000ae8   Section        0  gd32f30x_misc.o(i.nvic_priority_group_set)
    i.passive_ring                           0x08000afc   Section        0  buzzer_drv.o(i.passive_ring)
    i.rcu_clock_freq_get                     0x08000b30   Section        0  gd32f30x_rcu.o(i.rcu_clock_freq_get)
    i.rcu_periph_clock_enable                0x08000c88   Section        0  gd32f30x_rcu.o(i.rcu_periph_clock_enable)
    i.rcu_periph_reset_disable               0x08000ca8   Section        0  gd32f30x_rcu.o(i.rcu_periph_reset_disable)
    i.rcu_periph_reset_enable                0x08000cc8   Section        0  gd32f30x_rcu.o(i.rcu_periph_reset_enable)
    i.scanKeypad                             0x08000ce8   Section        0  keyboard_drv.o(i.scanKeypad)
    i.setPassWord                            0x08000d7c   Section        0  keyboard_drv.o(i.setPassWord)
    i.system_clock_120m_hxtal                0x08000d98   Section        0  system_gd32f30x.o(i.system_clock_120m_hxtal)
    system_clock_120m_hxtal                  0x08000d99   Thumb Code   258  system_gd32f30x.o(i.system_clock_120m_hxtal)
    i.system_clock_config                    0x08000eac   Section        0  system_gd32f30x.o(i.system_clock_config)
    system_clock_config                      0x08000ead   Thumb Code     8  system_gd32f30x.o(i.system_clock_config)
    i.timer_channel_output_config            0x08000eb4   Section        0  gd32f30x_timer.o(i.timer_channel_output_config)
    i.timer_channel_output_mode_config       0x080010a0   Section        0  gd32f30x_timer.o(i.timer_channel_output_mode_config)
    i.timer_channel_output_pulse_value_config 0x080010fa   Section        0  gd32f30x_timer.o(i.timer_channel_output_pulse_value_config)
    i.timer_channel_output_struct_para_init  0x08001120   Section        0  gd32f30x_timer.o(i.timer_channel_output_struct_para_init)
    i.timer_deinit                           0x08001130   Section        0  gd32f30x_timer.o(i.timer_deinit)
    i.timer_enable                           0x0800120c   Section        0  gd32f30x_timer.o(i.timer_enable)
    i.timer_init                             0x08001218   Section        0  gd32f30x_timer.o(i.timer_init)
    i.timer_primary_output_config            0x080012b0   Section        0  gd32f30x_timer.o(i.timer_primary_output_config)
    i.timer_struct_para_init                 0x080012c8   Section        0  gd32f30x_timer.o(i.timer_struct_para_init)
    i.usart_baudrate_set                     0x080012e0   Section        0  gd32f30x_usart.o(i.usart_baudrate_set)
    i.usart_data_receive                     0x08001370   Section        0  gd32f30x_usart.o(i.usart_data_receive)
    i.usart_data_transmit                    0x0800137a   Section        0  gd32f30x_usart.o(i.usart_data_transmit)
    i.usart_deinit                           0x08001384   Section        0  gd32f30x_usart.o(i.usart_deinit)
    i.usart_enable                           0x08001414   Section        0  gd32f30x_usart.o(i.usart_enable)
    i.usart_flag_clear                       0x0800141e   Section        0  gd32f30x_usart.o(i.usart_flag_clear)
    i.usart_flag_get                         0x08001430   Section        0  gd32f30x_usart.o(i.usart_flag_get)
    i.usart_interrupt_enable                 0x0800144e   Section        0  gd32f30x_usart.o(i.usart_interrupt_enable)
    i.usart_interrupt_flag_clear             0x08001468   Section        0  gd32f30x_usart.o(i.usart_interrupt_flag_clear)
    i.usart_interrupt_flag_get               0x0800147a   Section        0  gd32f30x_usart.o(i.usart_interrupt_flag_get)
    i.usart_parity_config                    0x080014b2   Section        0  gd32f30x_usart.o(i.usart_parity_config)
    i.usart_receive_config                   0x080014c2   Section        0  gd32f30x_usart.o(i.usart_receive_config)
    i.usart_stop_bit_set                     0x080014d6   Section        0  gd32f30x_usart.o(i.usart_stop_bit_set)
    i.usart_transmit_config                  0x080014e6   Section        0  gd32f30x_usart.o(i.usart_transmit_config)
    i.usart_word_length_set                  0x080014fa   Section        0  gd32f30x_usart.o(i.usart_word_length_set)
    .constdata                               0x0800150c   Section       16  main.o(.constdata)
    .data                                    0x20000000   Section       24  led_drv.o(.data)
    .data                                    0x20000018   Section       28  usb2com_drv.o(.data)
    .data                                    0x20000034   Section       30  keyboard_drv.o(.data)
    .data                                    0x20000052   Section        2  delay.o(.data)
    g_fac_us                                 0x20000052   Data           2  delay.o(.data)
    .data                                    0x20000054   Section        4  stdout.o(.data)
    .bss                                     0x20000058   Section       32  keyboard_drv.o(.bss)
    STACK                                    0x20000078   Section     1024  startup_gd32f30x_hd.o(STACK)

    Global Symbols

    Symbol Name                              Value     Ov Type        Size  Object(Section)

    BuildAttributes$$THM_ISAv4$E$P$D$K$B$S$7EM$VFPi3$EXTD16$VFPS$VFMA$PE$A:L22UL41UL21$X:L11$S22US41US21$IEEE1$IW$USESV6$~STKCKD$USESV7$~SHL$OSPACE$ROPI$EBA8$MICROLIB$REQ8$PRES8$EABIv2 0x00000000   Number         0  anon$$obj.o ABSOLUTE
    __ARM_use_no_argv                        0x00000000   Number         0  main.o ABSOLUTE
    _printf_a                                0x00000000   Number         0  stubs.o ABSOLUTE
    _printf_c                                0x00000000   Number         0  stubs.o ABSOLUTE
    _printf_charcount                        0x00000000   Number         0  stubs.o ABSOLUTE
    _printf_d                                0x00000000   Number         0  stubs.o ABSOLUTE
    _printf_e                                0x00000000   Number         0  stubs.o ABSOLUTE
    _printf_f                                0x00000000   Number         0  stubs.o ABSOLUTE
    _printf_flags                            0x00000000   Number         0  stubs.o ABSOLUTE
    _printf_fp_dec                           0x00000000   Number         0  stubs.o ABSOLUTE
    _printf_fp_hex                           0x00000000   Number         0  stubs.o ABSOLUTE
    _printf_g                                0x00000000   Number         0  stubs.o ABSOLUTE
    _printf_i                                0x00000000   Number         0  stubs.o ABSOLUTE
    _printf_int_dec                          0x00000000   Number         0  stubs.o ABSOLUTE
    _printf_l                                0x00000000   Number         0  stubs.o ABSOLUTE
    _printf_lc                               0x00000000   Number         0  stubs.o ABSOLUTE
    _printf_ll                               0x00000000   Number         0  stubs.o ABSOLUTE
    _printf_lld                              0x00000000   Number         0  stubs.o ABSOLUTE
    _printf_lli                              0x00000000   Number         0  stubs.o ABSOLUTE
    _printf_llo                              0x00000000   Number         0  stubs.o ABSOLUTE
    _printf_llu                              0x00000000   Number         0  stubs.o ABSOLUTE
    _printf_llx                              0x00000000   Number         0  stubs.o ABSOLUTE
    _printf_longlong_dec                     0x00000000   Number         0  stubs.o ABSOLUTE
    _printf_longlong_hex                     0x00000000   Number         0  stubs.o ABSOLUTE
    _printf_longlong_oct                     0x00000000   Number         0  stubs.o ABSOLUTE
    _printf_ls                               0x00000000   Number         0  stubs.o ABSOLUTE
    _printf_mbtowc                           0x00000000   Number         0  stubs.o ABSOLUTE
    _printf_n                                0x00000000   Number         0  stubs.o ABSOLUTE
    _printf_o                                0x00000000   Number         0  stubs.o ABSOLUTE
    _printf_p                                0x00000000   Number         0  stubs.o ABSOLUTE
    _printf_percent                          0x00000000   Number         0  stubs.o ABSOLUTE
    _printf_pre_padding                      0x00000000   Number         0  stubs.o ABSOLUTE
    _printf_return_value                     0x00000000   Number         0  stubs.o ABSOLUTE
    _printf_s                                0x00000000   Number         0  stubs.o ABSOLUTE
    _printf_sizespec                         0x00000000   Number         0  stubs.o ABSOLUTE
    _printf_str                              0x00000000   Number         0  stubs.o ABSOLUTE
    _printf_truncate_signed                  0x00000000   Number         0  stubs.o ABSOLUTE
    _printf_truncate_unsigned                0x00000000   Number         0  stubs.o ABSOLUTE
    _printf_u                                0x00000000   Number         0  stubs.o ABSOLUTE
    _printf_wc                               0x00000000   Number         0  stubs.o ABSOLUTE
    _printf_wctomb                           0x00000000   Number         0  stubs.o ABSOLUTE
    _printf_widthprec                        0x00000000   Number         0  stubs.o ABSOLUTE
    _printf_x                                0x00000000   Number         0  stubs.o ABSOLUTE
    __cpp_initialize__aeabi_                  - Undefined Weak Reference
    __cxa_finalize                            - Undefined Weak Reference
    __decompress                              - Undefined Weak Reference
    _clock_init                               - Undefined Weak Reference
    _microlib_exit                            - Undefined Weak Reference
    __Vectors_Size                           0x00000130   Number         0  startup_gd32f30x_hd.o ABSOLUTE
    __Vectors                                0x08000000   Data           4  startup_gd32f30x_hd.o(RESET)
    __Vectors_End                            0x08000130   Data           0  startup_gd32f30x_hd.o(RESET)
    __main                                   0x08000131   Thumb Code     0  entry.o(.ARM.Collect$$$$00000000)
    _main_stk                                0x08000131   Thumb Code     0  entry2.o(.ARM.Collect$$$$00000001)
    _main_scatterload                        0x08000135   Thumb Code     0  entry5.o(.ARM.Collect$$$$00000004)
    __main_after_scatterload                 0x08000139   Thumb Code     0  entry5.o(.ARM.Collect$$$$00000004)
    _main_clock                              0x08000139   Thumb Code     0  entry7b.o(.ARM.Collect$$$$00000008)
    _main_cpp_init                           0x08000139   Thumb Code     0  entry8b.o(.ARM.Collect$$$$0000000A)
    _main_init                               0x08000139   Thumb Code     0  entry9a.o(.ARM.Collect$$$$0000000B)
    __rt_final_cpp                           0x08000141   Thumb Code     0  entry10a.o(.ARM.Collect$$$$0000000D)
    __rt_final_exit                          0x08000141   Thumb Code     0  entry11a.o(.ARM.Collect$$$$0000000F)
    Reset_Handler                            0x08000145   Thumb Code     8  startup_gd32f30x_hd.o(.text)
    NMI_Handler                              0x0800014d   Thumb Code     2  startup_gd32f30x_hd.o(.text)
    HardFault_Handler                        0x0800014f   Thumb Code     2  startup_gd32f30x_hd.o(.text)
    MemManage_Handler                        0x08000151   Thumb Code     2  startup_gd32f30x_hd.o(.text)
    BusFault_Handler                         0x08000153   Thumb Code     2  startup_gd32f30x_hd.o(.text)
    UsageFault_Handler                       0x08000155   Thumb Code     2  startup_gd32f30x_hd.o(.text)
    SVC_Handler                              0x08000157   Thumb Code     2  startup_gd32f30x_hd.o(.text)
    DebugMon_Handler                         0x08000159   Thumb Code     2  startup_gd32f30x_hd.o(.text)
    PendSV_Handler                           0x0800015b   Thumb Code     2  startup_gd32f30x_hd.o(.text)
    SysTick_Handler                          0x0800015d   Thumb Code     2  startup_gd32f30x_hd.o(.text)
    ADC0_1_IRQHandler                        0x0800015f   Thumb Code     0  startup_gd32f30x_hd.o(.text)
    ADC2_IRQHandler                          0x0800015f   Thumb Code     0  startup_gd32f30x_hd.o(.text)
    CAN0_EWMC_IRQHandler                     0x0800015f   Thumb Code     0  startup_gd32f30x_hd.o(.text)
    CAN0_RX1_IRQHandler                      0x0800015f   Thumb Code     0  startup_gd32f30x_hd.o(.text)
    DMA0_Channel0_IRQHandler                 0x0800015f   Thumb Code     0  startup_gd32f30x_hd.o(.text)
    DMA0_Channel1_IRQHandler                 0x0800015f   Thumb Code     0  startup_gd32f30x_hd.o(.text)
    DMA0_Channel2_IRQHandler                 0x0800015f   Thumb Code     0  startup_gd32f30x_hd.o(.text)
    DMA0_Channel3_IRQHandler                 0x0800015f   Thumb Code     0  startup_gd32f30x_hd.o(.text)
    DMA0_Channel4_IRQHandler                 0x0800015f   Thumb Code     0  startup_gd32f30x_hd.o(.text)
    DMA0_Channel5_IRQHandler                 0x0800015f   Thumb Code     0  startup_gd32f30x_hd.o(.text)
    DMA0_Channel6_IRQHandler                 0x0800015f   Thumb Code     0  startup_gd32f30x_hd.o(.text)
    DMA1_Channel0_IRQHandler                 0x0800015f   Thumb Code     0  startup_gd32f30x_hd.o(.text)
    DMA1_Channel1_IRQHandler                 0x0800015f   Thumb Code     0  startup_gd32f30x_hd.o(.text)
    DMA1_Channel2_IRQHandler                 0x0800015f   Thumb Code     0  startup_gd32f30x_hd.o(.text)
    DMA1_Channel3_4_IRQHandler               0x0800015f   Thumb Code     0  startup_gd32f30x_hd.o(.text)
    EXMC_IRQHandler                          0x0800015f   Thumb Code     0  startup_gd32f30x_hd.o(.text)
    EXTI0_IRQHandler                         0x0800015f   Thumb Code     0  startup_gd32f30x_hd.o(.text)
    EXTI10_15_IRQHandler                     0x0800015f   Thumb Code     0  startup_gd32f30x_hd.o(.text)
    EXTI1_IRQHandler                         0x0800015f   Thumb Code     0  startup_gd32f30x_hd.o(.text)
    EXTI2_IRQHandler                         0x0800015f   Thumb Code     0  startup_gd32f30x_hd.o(.text)
    EXTI3_IRQHandler                         0x0800015f   Thumb Code     0  startup_gd32f30x_hd.o(.text)
    EXTI4_IRQHandler                         0x0800015f   Thumb Code     0  startup_gd32f30x_hd.o(.text)
    EXTI5_9_IRQHandler                       0x0800015f   Thumb Code     0  startup_gd32f30x_hd.o(.text)
    FMC_IRQHandler                           0x0800015f   Thumb Code     0  startup_gd32f30x_hd.o(.text)
    I2C0_ER_IRQHandler                       0x0800015f   Thumb Code     0  startup_gd32f30x_hd.o(.text)
    I2C0_EV_IRQHandler                       0x0800015f   Thumb Code     0  startup_gd32f30x_hd.o(.text)
    I2C1_ER_IRQHandler                       0x0800015f   Thumb Code     0  startup_gd32f30x_hd.o(.text)
    I2C1_EV_IRQHandler                       0x0800015f   Thumb Code     0  startup_gd32f30x_hd.o(.text)
    LVD_IRQHandler                           0x0800015f   Thumb Code     0  startup_gd32f30x_hd.o(.text)
    RCU_CTC_IRQHandler                       0x0800015f   Thumb Code     0  startup_gd32f30x_hd.o(.text)
    RTC_Alarm_IRQHandler                     0x0800015f   Thumb Code     0  startup_gd32f30x_hd.o(.text)
    RTC_IRQHandler                           0x0800015f   Thumb Code     0  startup_gd32f30x_hd.o(.text)
    SDIO_IRQHandler                          0x0800015f   Thumb Code     0  startup_gd32f30x_hd.o(.text)
    SPI0_IRQHandler                          0x0800015f   Thumb Code     0  startup_gd32f30x_hd.o(.text)
    SPI1_IRQHandler                          0x0800015f   Thumb Code     0  startup_gd32f30x_hd.o(.text)
    SPI2_IRQHandler                          0x0800015f   Thumb Code     0  startup_gd32f30x_hd.o(.text)
    TAMPER_IRQHandler                        0x0800015f   Thumb Code     0  startup_gd32f30x_hd.o(.text)
    TIMER0_BRK_IRQHandler                    0x0800015f   Thumb Code     0  startup_gd32f30x_hd.o(.text)
    TIMER0_Channel_IRQHandler                0x0800015f   Thumb Code     0  startup_gd32f30x_hd.o(.text)
    TIMER0_TRG_CMT_IRQHandler                0x0800015f   Thumb Code     0  startup_gd32f30x_hd.o(.text)
    TIMER0_UP_IRQHandler                     0x0800015f   Thumb Code     0  startup_gd32f30x_hd.o(.text)
    TIMER1_IRQHandler                        0x0800015f   Thumb Code     0  startup_gd32f30x_hd.o(.text)
    TIMER2_IRQHandler                        0x0800015f   Thumb Code     0  startup_gd32f30x_hd.o(.text)
    TIMER3_IRQHandler                        0x0800015f   Thumb Code     0  startup_gd32f30x_hd.o(.text)
    TIMER4_IRQHandler                        0x0800015f   Thumb Code     0  startup_gd32f30x_hd.o(.text)
    TIMER5_IRQHandler                        0x0800015f   Thumb Code     0  startup_gd32f30x_hd.o(.text)
    TIMER6_IRQHandler                        0x0800015f   Thumb Code     0  startup_gd32f30x_hd.o(.text)
    TIMER7_BRK_IRQHandler                    0x0800015f   Thumb Code     0  startup_gd32f30x_hd.o(.text)
    TIMER7_Channel_IRQHandler                0x0800015f   Thumb Code     0  startup_gd32f30x_hd.o(.text)
    TIMER7_TRG_CMT_IRQHandler                0x0800015f   Thumb Code     0  startup_gd32f30x_hd.o(.text)
    TIMER7_UP_IRQHandler                     0x0800015f   Thumb Code     0  startup_gd32f30x_hd.o(.text)
    UART3_IRQHandler                         0x0800015f   Thumb Code     0  startup_gd32f30x_hd.o(.text)
    UART4_IRQHandler                         0x0800015f   Thumb Code     0  startup_gd32f30x_hd.o(.text)
    USART1_IRQHandler                        0x0800015f   Thumb Code     0  startup_gd32f30x_hd.o(.text)
    USART2_IRQHandler                        0x0800015f   Thumb Code     0  startup_gd32f30x_hd.o(.text)
    USBD_HP_CAN0_TX_IRQHandler               0x0800015f   Thumb Code     0  startup_gd32f30x_hd.o(.text)
    USBD_LP_CAN0_RX0_IRQHandler              0x0800015f   Thumb Code     0  startup_gd32f30x_hd.o(.text)
    USBD_WKUP_IRQHandler                     0x0800015f   Thumb Code     0  startup_gd32f30x_hd.o(.text)
    WWDGT_IRQHandler                         0x0800015f   Thumb Code     0  startup_gd32f30x_hd.o(.text)
    __aeabi_memset                           0x08000169   Thumb Code    14  memseta.o(.text)
    __aeabi_memset4                          0x08000169   Thumb Code     0  memseta.o(.text)
    __aeabi_memset8                          0x08000169   Thumb Code     0  memseta.o(.text)
    __aeabi_memclr                           0x08000177   Thumb Code     4  memseta.o(.text)
    __aeabi_memclr4                          0x08000177   Thumb Code     0  memseta.o(.text)
    __aeabi_memclr8                          0x08000177   Thumb Code     0  memseta.o(.text)
    _memset$wrapper                          0x0800017b   Thumb Code    18  memseta.o(.text)
    __aeabi_uidiv                            0x0800018d   Thumb Code     0  uidiv.o(.text)
    __aeabi_uidivmod                         0x0800018d   Thumb Code    44  uidiv.o(.text)
    __scatterload                            0x080001b9   Thumb Code    28  init.o(.text)
    __scatterload_rt2                        0x080001b9   Thumb Code     0  init.o(.text)
    LedDrvInit                               0x08000201   Thumb Code    86  led_drv.o(i.LedDrvInit)
    PwmDrvTest                               0x0800025d   Thumb Code    62  timer_drv.o(i.PwmDrvTest)
    SystemInit                               0x080002a9   Thumb Code   156  system_gd32f30x.o(i.SystemInit)
    TimerDrvInit                             0x080003c5   Thumb Code    20  timer_drv.o(i.TimerDrvInit)
    USART0_IRQHandler                        0x080003f9   Thumb Code    54  usb2com_drv.o(i.USART0_IRQHandler)
    Usb2ComDrvInit                           0x0800043d   Thumb Code   164  usb2com_drv.o(i.Usb2ComDrvInit)
    __0printf$1                              0x080004e5   Thumb Code    22  printf1.o(i.__0printf$1)
    __1printf$1                              0x080004e5   Thumb Code     0  printf1.o(i.__0printf$1)
    __2printf                                0x080004e5   Thumb Code     0  printf1.o(i.__0printf$1)
    __scatterload_copy                       0x08000505   Thumb Code    14  handlers.o(i.__scatterload_copy)
    __scatterload_null                       0x08000513   Thumb Code     2  handlers.o(i.__scatterload_null)
    __scatterload_zeroinit                   0x08000515   Thumb Code    14  handlers.o(i.__scatterload_zeroinit)
    active_ring                              0x08000679   Thumb Code    28  buzzer_drv.o(i.active_ring)
    buzzer_init                              0x08000699   Thumb Code    32  buzzer_drv.o(i.buzzer_init)
    checkPassword                            0x080006bd   Thumb Code    32  keyboard_drv.o(i.checkPassword)
    delay_init                               0x080006e5   Thumb Code    36  delay.o(i.delay_init)
    delay_ms                                 0x0800070d   Thumb Code    50  delay.o(i.delay_ms)
    delay_us                                 0x08000745   Thumb Code    72  delay.o(i.delay_us)
    fputc                                    0x08000791   Thumb Code    36  usb2com_drv.o(i.fputc)
    gpio_bit_reset                           0x080007b9   Thumb Code     4  gd32f30x_gpio.o(i.gpio_bit_reset)
    gpio_bit_set                             0x080007bd   Thumb Code     4  gd32f30x_gpio.o(i.gpio_bit_set)
    gpio_bit_write                           0x080007c1   Thumb Code    10  gd32f30x_gpio.o(i.gpio_bit_write)
    gpio_init                                0x080007cb   Thumb Code   188  gd32f30x_gpio.o(i.gpio_init)
    gpio_input_bit_get                       0x08000887   Thumb Code    16  gd32f30x_gpio.o(i.gpio_input_bit_get)
    handleKeypadInput                        0x08000899   Thumb Code   186  keyboard_drv.o(i.handleKeypadInput)
    keyBoardTest                             0x08000985   Thumb Code    26  keyboard_drv.o(i.keyBoardTest)
    keyboard_init                            0x080009a5   Thumb Code    80  keyboard_drv.o(i.keyboard_init)
    main                                     0x08000a01   Thumb Code    30  main.o(i.main)
    nvic_irq_enable                          0x08000a25   Thumb Code   186  gd32f30x_misc.o(i.nvic_irq_enable)
    nvic_priority_group_set                  0x08000ae9   Thumb Code    10  gd32f30x_misc.o(i.nvic_priority_group_set)
    passive_ring                             0x08000afd   Thumb Code    48  buzzer_drv.o(i.passive_ring)
    rcu_clock_freq_get                       0x08000b31   Thumb Code   310  gd32f30x_rcu.o(i.rcu_clock_freq_get)
    rcu_periph_clock_enable                  0x08000c89   Thumb Code    28  gd32f30x_rcu.o(i.rcu_periph_clock_enable)
    rcu_periph_reset_disable                 0x08000ca9   Thumb Code    28  gd32f30x_rcu.o(i.rcu_periph_reset_disable)
    rcu_periph_reset_enable                  0x08000cc9   Thumb Code    28  gd32f30x_rcu.o(i.rcu_periph_reset_enable)
    scanKeypad                               0x08000ce9   Thumb Code   134  keyboard_drv.o(i.scanKeypad)
    setPassWord                              0x08000d7d   Thumb Code    22  keyboard_drv.o(i.setPassWord)
    timer_channel_output_config              0x08000eb5   Thumb Code   484  gd32f30x_timer.o(i.timer_channel_output_config)
    timer_channel_output_mode_config         0x080010a1   Thumb Code    90  gd32f30x_timer.o(i.timer_channel_output_mode_config)
    timer_channel_output_pulse_value_config  0x080010fb   Thumb Code    38  gd32f30x_timer.o(i.timer_channel_output_pulse_value_config)
    timer_channel_output_struct_para_init    0x08001121   Thumb Code    16  gd32f30x_timer.o(i.timer_channel_output_struct_para_init)
    timer_deinit                             0x08001131   Thumb Code   210  gd32f30x_timer.o(i.timer_deinit)
    timer_enable                             0x0800120d   Thumb Code    10  gd32f30x_timer.o(i.timer_enable)
    timer_init                               0x08001219   Thumb Code   122  gd32f30x_timer.o(i.timer_init)
    timer_primary_output_config              0x080012b1   Thumb Code    24  gd32f30x_timer.o(i.timer_primary_output_config)
    timer_struct_para_init                   0x080012c9   Thumb Code    22  gd32f30x_timer.o(i.timer_struct_para_init)
    usart_baudrate_set                       0x080012e1   Thumb Code   136  gd32f30x_usart.o(i.usart_baudrate_set)
    usart_data_receive                       0x08001371   Thumb Code    10  gd32f30x_usart.o(i.usart_data_receive)
    usart_data_transmit                      0x0800137b   Thumb Code     8  gd32f30x_usart.o(i.usart_data_transmit)
    usart_deinit                             0x08001385   Thumb Code   136  gd32f30x_usart.o(i.usart_deinit)
    usart_enable                             0x08001415   Thumb Code    10  gd32f30x_usart.o(i.usart_enable)
    usart_flag_clear                         0x0800141f   Thumb Code    18  gd32f30x_usart.o(i.usart_flag_clear)
    usart_flag_get                           0x08001431   Thumb Code    30  gd32f30x_usart.o(i.usart_flag_get)
    usart_interrupt_enable                   0x0800144f   Thumb Code    26  gd32f30x_usart.o(i.usart_interrupt_enable)
    usart_interrupt_flag_clear               0x08001469   Thumb Code    18  gd32f30x_usart.o(i.usart_interrupt_flag_clear)
    usart_interrupt_flag_get                 0x0800147b   Thumb Code    56  gd32f30x_usart.o(i.usart_interrupt_flag_get)
    usart_parity_config                      0x080014b3   Thumb Code    16  gd32f30x_usart.o(i.usart_parity_config)
    usart_receive_config                     0x080014c3   Thumb Code    20  gd32f30x_usart.o(i.usart_receive_config)
    usart_stop_bit_set                       0x080014d7   Thumb Code    16  gd32f30x_usart.o(i.usart_stop_bit_set)
    usart_transmit_config                    0x080014e7   Thumb Code    20  gd32f30x_usart.o(i.usart_transmit_config)
    usart_word_length_set                    0x080014fb   Thumb Code    16  gd32f30x_usart.o(i.usart_word_length_set)
    Region$$Table$$Base                      0x0800151c   Number         0  anon$$obj.o(Region$$Table)
    Region$$Table$$Limit                     0x0800153c   Number         0  anon$$obj.o(Region$$Table)
    g_gpioList                               0x20000000   Data          24  led_drv.o(.data)
    g_Usb2comUart0                           0x20000018   Data          24  usb2com_drv.o(.data)
    uartProcessUartData                      0x20000030   Data           4  usb2com_drv.o(.data)
    rowsPins                                 0x20000034   Data          16  keyboard_drv.o(.data)
    colsPins                                 0x20000044   Data          12  keyboard_drv.o(.data)
    inputIndex                               0x20000050   Data           1  keyboard_drv.o(.data)
    pkey                                     0x20000051   Data           1  keyboard_drv.o(.data)
    __stdout                                 0x20000054   Data           4  stdout.o(.data)
    password                                 0x20000058   Data          16  keyboard_drv.o(.bss)
    inputBuffer                              0x20000068   Data          16  keyboard_drv.o(.bss)
    __initial_sp                             0x20000478   Data           0  startup_gd32f30x_hd.o(STACK)



==============================================================================

Memory Map of the image

  Image Entry point : 0x08000131

  Load Region LR_IROM1 (Base: 0x08000000, Size: 0x00001594, Max: 0x00040000, ABSOLUTE)

    Execution Region ER_IROM1 (Exec base: 0x08000000, Load base: 0x08000000, Size: 0x0000153c, Max: 0x00040000, ABSOLUTE)

    Exec Addr    Load Addr    Size         Type   Attr      Idx    E Section Name        Object

    0x08000000   0x08000000   0x00000130   Data   RO          423    RESET               startup_gd32f30x_hd.o
    0x08000130   0x08000130   0x00000000   Code   RO         1842  * .ARM.Collect$$$$00000000  mc_w.l(entry.o)
    0x08000130   0x08000130   0x00000004   Code   RO         2108    .ARM.Collect$$$$00000001  mc_w.l(entry2.o)
    0x08000134   0x08000134   0x00000004   Code   RO         2111    .ARM.Collect$$$$00000004  mc_w.l(entry5.o)
    0x08000138   0x08000138   0x00000000   Code   RO         2113    .ARM.Collect$$$$00000008  mc_w.l(entry7b.o)
    0x08000138   0x08000138   0x00000000   Code   RO         2115    .ARM.Collect$$$$0000000A  mc_w.l(entry8b.o)
    0x08000138   0x08000138   0x00000008   Code   RO         2116    .ARM.Collect$$$$0000000B  mc_w.l(entry9a.o)
    0x08000140   0x08000140   0x00000000   Code   RO         2118    .ARM.Collect$$$$0000000D  mc_w.l(entry10a.o)
    0x08000140   0x08000140   0x00000000   Code   RO         2120    .ARM.Collect$$$$0000000F  mc_w.l(entry11a.o)
    0x08000140   0x08000140   0x00000004   Code   RO         2109    .ARM.Collect$$$$00002712  mc_w.l(entry2.o)
    0x08000144   0x08000144   0x00000024   Code   RO          424    .text               startup_gd32f30x_hd.o
    0x08000168   0x08000168   0x00000024   Code   RO         1845    .text               mc_w.l(memseta.o)
    0x0800018c   0x0800018c   0x0000002c   Code   RO         2123    .text               mc_w.l(uidiv.o)
    0x080001b8   0x080001b8   0x00000024   Code   RO         2138    .text               mc_w.l(init.o)
    0x080001dc   0x080001dc   0x00000022   Code   RO            1    i.AllDrvInit        main.o
    0x080001fe   0x080001fe   0x00000002   PAD
    0x08000200   0x08000200   0x0000005c   Code   RO           44    i.LedDrvInit        led_drv.o
    0x0800025c   0x0800025c   0x0000004c   Code   RO          351    i.PwmDrvTest        timer_drv.o
    0x080002a8   0x080002a8   0x000000a8   Code   RO          431    i.SystemInit        system_gd32f30x.o
    0x08000350   0x08000350   0x00000074   Code   RO          352    i.TimeInit          timer_drv.o
    0x080003c4   0x080003c4   0x00000014   Code   RO          353    i.TimerDrvInit      timer_drv.o
    0x080003d8   0x080003d8   0x00000020   Code   RO          354    i.TimerGpioInit     timer_drv.o
    0x080003f8   0x080003f8   0x00000044   Code   RO          181    i.USART0_IRQHandler  usb2com_drv.o
    0x0800043c   0x0800043c   0x000000a8   Code   RO          182    i.Usb2ComDrvInit    usb2com_drv.o
    0x080004e4   0x080004e4   0x00000020   Code   RO         1892    i.__0printf$1       mc_w.l(printf1.o)
    0x08000504   0x08000504   0x0000000e   Code   RO         2150    i.__scatterload_copy  mc_w.l(handlers.o)
    0x08000512   0x08000512   0x00000002   Code   RO         2151    i.__scatterload_null  mc_w.l(handlers.o)
    0x08000514   0x08000514   0x0000000e   Code   RO         2152    i.__scatterload_zeroinit  mc_w.l(handlers.o)
    0x08000522   0x08000522   0x00000002   PAD
    0x08000524   0x08000524   0x00000154   Code   RO         1899    i._printf_core      mc_w.l(printf1.o)
    0x08000678   0x08000678   0x00000020   Code   RO          391    i.active_ring       buzzer_drv.o
    0x08000698   0x08000698   0x00000024   Code   RO          392    i.buzzer_init       buzzer_drv.o
    0x080006bc   0x080006bc   0x00000028   Code   RO          238    i.checkPassword     keyboard_drv.o
    0x080006e4   0x080006e4   0x00000028   Code   RO          317    i.delay_init        delay.o
    0x0800070c   0x0800070c   0x00000038   Code   RO          318    i.delay_ms          delay.o
    0x08000744   0x08000744   0x0000004c   Code   RO          319    i.delay_us          delay.o
    0x08000790   0x08000790   0x00000028   Code   RO          184    i.fputc             usb2com_drv.o
    0x080007b8   0x080007b8   0x00000004   Code   RO          806    i.gpio_bit_reset    gd32f30x_gpio.o
    0x080007bc   0x080007bc   0x00000004   Code   RO          807    i.gpio_bit_set      gd32f30x_gpio.o
    0x080007c0   0x080007c0   0x0000000a   Code   RO          808    i.gpio_bit_write    gd32f30x_gpio.o
    0x080007ca   0x080007ca   0x000000bc   Code   RO          816    i.gpio_init         gd32f30x_gpio.o
    0x08000886   0x08000886   0x00000010   Code   RO          817    i.gpio_input_bit_get  gd32f30x_gpio.o
    0x08000896   0x08000896   0x00000002   PAD
    0x08000898   0x08000898   0x000000ec   Code   RO          239    i.handleKeypadInput  keyboard_drv.o
    0x08000984   0x08000984   0x00000020   Code   RO          240    i.keyBoardTest      keyboard_drv.o
    0x080009a4   0x080009a4   0x0000005c   Code   RO          241    i.keyboard_init     keyboard_drv.o
    0x08000a00   0x08000a00   0x00000024   Code   RO            2    i.main              main.o
    0x08000a24   0x08000a24   0x000000c4   Code   RO         1472    i.nvic_irq_enable   gd32f30x_misc.o
    0x08000ae8   0x08000ae8   0x00000014   Code   RO         1473    i.nvic_priority_group_set  gd32f30x_misc.o
    0x08000afc   0x08000afc   0x00000034   Code   RO          393    i.passive_ring      buzzer_drv.o
    0x08000b30   0x08000b30   0x00000158   Code   RO          494    i.rcu_clock_freq_get  gd32f30x_rcu.o
    0x08000c88   0x08000c88   0x00000020   Code   RO          512    i.rcu_periph_clock_enable  gd32f30x_rcu.o
    0x08000ca8   0x08000ca8   0x00000020   Code   RO          515    i.rcu_periph_reset_disable  gd32f30x_rcu.o
    0x08000cc8   0x08000cc8   0x00000020   Code   RO          516    i.rcu_periph_reset_enable  gd32f30x_rcu.o
    0x08000ce8   0x08000ce8   0x00000094   Code   RO          242    i.scanKeypad        keyboard_drv.o
    0x08000d7c   0x08000d7c   0x0000001c   Code   RO          243    i.setPassWord       keyboard_drv.o
    0x08000d98   0x08000d98   0x00000114   Code   RO          432    i.system_clock_120m_hxtal  system_gd32f30x.o
    0x08000eac   0x08000eac   0x00000008   Code   RO          433    i.system_clock_config  system_gd32f30x.o
    0x08000eb4   0x08000eb4   0x000001ec   Code   RO          957    i.timer_channel_output_config  gd32f30x_timer.o
    0x080010a0   0x080010a0   0x0000005a   Code   RO          959    i.timer_channel_output_mode_config  gd32f30x_timer.o
    0x080010fa   0x080010fa   0x00000026   Code   RO          961    i.timer_channel_output_pulse_value_config  gd32f30x_timer.o
    0x08001120   0x08001120   0x00000010   Code   RO          964    i.timer_channel_output_struct_para_init  gd32f30x_timer.o
    0x08001130   0x08001130   0x000000dc   Code   RO          970    i.timer_deinit      gd32f30x_timer.o
    0x0800120c   0x0800120c   0x0000000a   Code   RO          975    i.timer_enable      gd32f30x_timer.o
    0x08001216   0x08001216   0x00000002   PAD
    0x08001218   0x08001218   0x00000098   Code   RO          985    i.timer_init        gd32f30x_timer.o
    0x080012b0   0x080012b0   0x00000018   Code   RO         1000    i.timer_primary_output_config  gd32f30x_timer.o
    0x080012c8   0x080012c8   0x00000016   Code   RO         1005    i.timer_struct_para_init  gd32f30x_timer.o
    0x080012de   0x080012de   0x00000002   PAD
    0x080012e0   0x080012e0   0x00000090   Code   RO         1528    i.usart_baudrate_set  gd32f30x_usart.o
    0x08001370   0x08001370   0x0000000a   Code   RO         1531    i.usart_data_receive  gd32f30x_usart.o
    0x0800137a   0x0800137a   0x00000008   Code   RO         1532    i.usart_data_transmit  gd32f30x_usart.o
    0x08001382   0x08001382   0x00000002   PAD
    0x08001384   0x08001384   0x00000090   Code   RO         1533    i.usart_deinit      gd32f30x_usart.o
    0x08001414   0x08001414   0x0000000a   Code   RO         1537    i.usart_enable      gd32f30x_usart.o
    0x0800141e   0x0800141e   0x00000012   Code   RO         1538    i.usart_flag_clear  gd32f30x_usart.o
    0x08001430   0x08001430   0x0000001e   Code   RO         1539    i.usart_flag_get    gd32f30x_usart.o
    0x0800144e   0x0800144e   0x0000001a   Code   RO         1546    i.usart_interrupt_enable  gd32f30x_usart.o
    0x08001468   0x08001468   0x00000012   Code   RO         1547    i.usart_interrupt_flag_clear  gd32f30x_usart.o
    0x0800147a   0x0800147a   0x00000038   Code   RO         1548    i.usart_interrupt_flag_get  gd32f30x_usart.o
    0x080014b2   0x080014b2   0x00000010   Code   RO         1559    i.usart_parity_config  gd32f30x_usart.o
    0x080014c2   0x080014c2   0x00000014   Code   RO         1561    i.usart_receive_config  gd32f30x_usart.o
    0x080014d6   0x080014d6   0x00000010   Code   RO         1571    i.usart_stop_bit_set  gd32f30x_usart.o
    0x080014e6   0x080014e6   0x00000014   Code   RO         1575    i.usart_transmit_config  gd32f30x_usart.o
    0x080014fa   0x080014fa   0x00000010   Code   RO         1576    i.usart_word_length_set  gd32f30x_usart.o
    0x0800150a   0x0800150a   0x00000002   PAD
    0x0800150c   0x0800150c   0x00000010   Data   RO            3    .constdata          main.o
    0x0800151c   0x0800151c   0x00000020   Data   RO         2148    Region$$Table       anon$$obj.o


    Execution Region RW_IRAM1 (Exec base: 0x20000000, Load base: 0x0800153c, Size: 0x00000478, Max: 0x0000c000, ABSOLUTE)

    Exec Addr    Load Addr    Size         Type   Attr      Idx    E Section Name        Object

    0x20000000   0x0800153c   0x00000018   Data   RW           48    .data               led_drv.o
    0x20000018   0x08001554   0x0000001c   Data   RW          186    .data               usb2com_drv.o
    0x20000034   0x08001570   0x0000001e   Data   RW          246    .data               keyboard_drv.o
    0x20000052   0x0800158e   0x00000002   Data   RW          320    .data               delay.o
    0x20000054   0x08001590   0x00000004   Data   RW         2122    .data               mc_w.l(stdout.o)
    0x20000058        -       0x00000020   Zero   RW          245    .bss                keyboard_drv.o
    0x20000078        -       0x00000400   Zero   RW          421    STACK               startup_gd32f30x_hd.o


==============================================================================

Image component sizes


      Code (inc. data)   RO Data    RW Data    ZI Data      Debug   Object Name

       120         12          0          0          0       1519   buzzer_drv.o
       172         14          0          2          0       1815   delay.o
       222          0          0          0          0      15234   gd32f30x_gpio.o
       216         20          0          0          0       1384   gd32f30x_misc.o
       440         46          0          0          0      19840   gd32f30x_rcu.o
      1064         48          0          0          0      21453   gd32f30x_timer.o
       552         16          0          0          0      15701   gd32f30x_usart.o
       576         96          0         30         32       4607   keyboard_drv.o
        92          6          0         24          0      37650   led_drv.o
        70          6         16          0          0       5475   main.o
        36          8        304          0       1024        812   startup_gd32f30x_hd.o
       452         30          0          0          0       2397   system_gd32f30x.o
       244         26          0          0          0       2132   timer_drv.o
       276         22          0         28          0       3938   usb2com_drv.o

    ----------------------------------------------------------------------
      4544        350        352         84       1056     133957   Object Totals
         0          0         32          0          0          0   (incl. Generated)
        12          0          0          0          0          0   (incl. Padding)

    ----------------------------------------------------------------------

      Code (inc. data)   RO Data    RW Data    ZI Data      Debug   Library Member Name

         0          0          0          0          0          0   entry.o
         0          0          0          0          0          0   entry10a.o
         0          0          0          0          0          0   entry11a.o
         8          4          0          0          0          0   entry2.o
         4          0          0          0          0          0   entry5.o
         0          0          0          0          0          0   entry7b.o
         0          0          0          0          0          0   entry8b.o
         8          4          0          0          0          0   entry9a.o
        30          0          0          0          0          0   handlers.o
        36          8          0          0          0         68   init.o
        36          0          0          0          0        108   memseta.o
       372         14          0          0          0        184   printf1.o
         0          0          0          4          0          0   stdout.o
        44          0          0          0          0         80   uidiv.o

    ----------------------------------------------------------------------
       540         30          0          4          0        440   Library Totals
         2          0          0          0          0          0   (incl. Padding)

    ----------------------------------------------------------------------

      Code (inc. data)   RO Data    RW Data    ZI Data      Debug   Library Name

       538         30          0          4          0        440   mc_w.l

    ----------------------------------------------------------------------
       540         30          0          4          0        440   Library Totals

    ----------------------------------------------------------------------

==============================================================================


      Code (inc. data)   RO Data    RW Data    ZI Data      Debug   

      5084        380        352         88       1056     128897   Grand Totals
      5084        380        352         88       1056     128897   ELF Image Totals
      5084        380        352         88          0          0   ROM Totals

==============================================================================

    Total RO  Size (Code + RO Data)                 5436 (   5.31kB)
    Total RW  Size (RW Data + ZI Data)              1144 (   1.12kB)
    Total ROM Size (Code + RO Data + RW Data)       5524 (   5.39kB)

==============================================================================

