:020000040800F2
:1004000000C00020E1050008BD1800082F0A000800
:10041000B9180008F1080008B11900080000000030
:10042000000000000000000000000000C1180008EB
:10043000F508000800000000BF180008C3180008F5
:10044000FB050008FB050008FB050008FB0500088C
:10045000FB050008FB050008FB050008FB0500087C
:10046000FB050008FB050008FB050008FB0500086C
:10047000FB050008FB050008FB050008FB0500085C
:10048000FB050008FB050008FB050008FB0500084C
:10049000FB050008FB050008FB050008FB0500083C
:1004A000FB050008FB050008FB050008FB0500082C
:1004B000FB050008FB050008FB050008FB0500081C
:1004C000FB050008FB050008FB050008FB0500080C
:1004D000FB0500086D190008FB050008FB05000876
:1004E000FB050008FB050008FB050008FB050008EC
:1004F000FB050008FB050008FB050008FB050008DC
:10050000FB050008FB050008FB050008FB050008CB
:10051000FB050008FB050008FB050008FB050008BB
:10052000FB050008FB050008FB050008FB050008AB
:1005300000F002F800F044F80AA090E8000C8244B1
:100540008344AAF10107DA4501D100F039F8AFF28E
:10055000090EBAE80F0013F0010F18BFFB1A43F0A1
:100560000103184790750000B0750000103A24BFD1
:1005700078C878C1FAD8520724BF30C830C144BF08
:1005800004680C607047000000230024002500264A
:10059000103A28BF78C1FBD8520728BF30C148BFE6
:1005A0000B607047642900F07D80782900F0B680E8
:1005B000002070471FB504F0C4FA1FBD10B510BD70
:1005C00000F064F91146FFF7F5FF03F08FFD00F02E
:1005D00082F903B4FFF7F2FF03BC01F0EBF900006E
:1005E0000948804709480047FEE7FEE7FEE7FEE7C7
:1005F000FEE7FEE7FEE7FEE7FEE7FEE70448054903
:10060000054A064B70470000C51800083105000870
:100610009008002000C00020900C002000BC0020AA
:10062000704700000FB4044910B503AA029800F007
:10063000FFF810BC5DF814FB080000202DE9F04124
:100640000E460446002020622046E168884730B309
:10065000252805D0D4E901219047206A401CF2E703
:10066000E168204600278847050018D0A5F1410021
:10067000192802D820354FF4006732462946204613
:100680002760FFF78FFF40B1012804D0F61D26F048
:1006900007060836D8E7361DD6E72846DAE7206A87
:1006A000BDE8F0812DE9F041064600241068752967
:1006B000314616A510D0AFF30080002802DA404280
:1006C00013A507E031688A0701D512A502E04907A2
:1006D00004D511A5012401E0AFF3008000210A2216
:1006E00006F1240709E0B0FBF2FCB0FBF2F302FBD9
:1006F0001C00303078541846491C0028F3D123469A
:100700002A463046BDE8F04100F038B8000000004D
:100710002D0000002B0000002000000070B50446F2
:100720000D4621461068AFF300802188090502D5E7
:100730000F4A7A4402E00E4A7A440E32002104F154
:10074000240305E000F00F060009965D5E54491C85
:100750000028F7D120780023000704D5702D02D09F
:1007600009B1022311322046BDE8704000F006B8FE
:100770009673000070477047704770472DE9F04747
:100780000D4699469246044600F124080168880601
:1007900004D5E06921F01001216000E00120A842A9
:1007A00001DD471B00E00027A1697A1902EB09006F
:1007B000081AA0612078C00602D42046AFF300805A
:1007C000002608E0D4E901211AF806009047206AC3
:1007D000401C761C20624E45F4DB2078C0060AD50A
:1007E0002046AFF3008006E0D4E901213020904795
:1007F000206A401C2062381EA7F10107F4DC07E0E4
:10080000D4E9012118F805009047206A401C2062B5
:10081000281EA5F10105F3DC2046AFF30080207807
:10082000000602D50220BDE8F0870120FBE70000AA
:10083000074B70B50D467B4400F011F8044628467E
:1008400000F020F810B14FF0FF3070BD204670BDB1
:10085000DF14000001694A1C02610878704700B586
:100860008FB0CDE901310021059105497944CDE9E9
:10087000031011466846FFF7E1FE0FB000BD00000F
:10088000E5FFFFFF007B00F080007047754600F039
:100890002BF8AE4605006946534620F00700854612
:1008A00018B020B5FFF7AAFEBDE820404FF00006C3
:1008B0004FF000074FF000084FF0000B21F0070148
:1008C000AC46ACE8C009ACE8C009ACE8C009ACE88B
:1008D000C0098D46704710B50446AFF3008020462E
:1008E000BDE81040FFF775BE004870472C08002097
:1008F00000BFFEE7704730B503460C4615460022A0
:1009000007E0184600F008F824F812009B1C501C61
:1009100082B2AA42F5DB30BD01460888704700006C
:100920002DE9F05F80468A461746B8F1006F02D382
:100930003348804501D3BDE8F09F01F0CBF9A8F121
:10094000006B4FEADB25CBF34909C9F58064A74268
:1009500000DC3C464EE04FF0006101EBC5204A143C
:100960002849FFF7C8FF00260BE009EB06002549E0
:1009700031F810004FF6FF71884200D003E0701C80
:1009800086B2A642F1DB00BFA6421BDA4FF000613F
:1009900001EBC52001F02CF9002608E03AF816001A
:1009A00006EB0901174A22F81100701C86B2A64214
:1009B000F4DB4FF0006101EBC5204A14114900F04F
:1009C00023F804E022465146404600F01DF8A742B5
:1009D00000D110E06D1C4FF000090AEB440A08EB4F
:1009E0004408381B87B2B7F5806F02D94FF4806492
:1009F00000E03C46AFE700BF01F0E4F800BF9AE733
:100A00000000040800B400202DE9F04105460E4620
:100A10001746002407E036F81410284601F076F84F
:100A2000AD1C601C84B2BC42F5DBBDE8F08100BFA8
:100A3000FEE7000010B540F2026003F071FE0123F2
:100A400003222821084801F07EF94FF400530322C5
:100A50004821054801F077F94FF40043032248216B
:100A6000014801F070F910BD0008014070B504465E
:100A7000002514B10120254908702448007868B386
:100A80004FF40051224801F0BCF958B14FF4004135
:100A90001F4801F0B6F928B101211D4801F0B1F954
:100AA00001281BD10A2000F09BFF00201749087085
:100AB0004FF40051164801F0A4F900B901254FF494
:100AC0000041134801F09DF900B9022501211048A9
:100AD00001F097F9012816D1032514E04FF40051D5
:100AE0000B4801F08EF901280DD1C103084801F02F
:100AF00088F9012807D10121054801F082F910B9D0
:100B0000012002490870284670BD00001400002032
:100B10000008014070B5044600261048058840884A
:100B200045430021084600F0E1FC00F07BFE4FF455
:100B300080700B4908614000486100BF06E0094829
:100B400004608020064948610861761CAE42F6D3F5
:100B50004FF400700249086170BD00001C080020BD
:100B6000001001400C0C014010B504463B48847154
:100B7000002C37D1F020394908804FF4A07048800C
:100B80000846808845F21051884210D14FF4305009
:100B9000324908814FF4285048814FF42C50888105
:100BA0004FF4F07008804FF44870488006E02C2025
:100BB0002A4908812A2048812B208881274880885B
:100BC00047F29671884205D02448808845F210315A
:100BD00088423ED14FF4A070204908804FF4F07055
:100BE000488036E04FF4A0701C490880F02048800F
:100BF0000846808845F21051884210D14FF4305099
:100C0000164908814FF4285048814FF42C508881B0
:100C10004FF4487008804FF4F070488006E02C20B4
:100C20000E4908812A2048812B2088810B48808822
:100C300047F29671884205D00848808845F2103105
:100C4000884206D14FF4F070044908804FF4A07038
:100C50004880002000F090FA10BD00001C08002021
:100C600030B503460C4615465948808845F2105168
:100C7000884250D15649488900F0C2FD4FF4807037
:100C800054490861400048611812534908608020A7
:100C9000504948610861800008614D494989491CF3
:100CA00088B200F0ADFD4FF480704A490861400001
:100CB0004861D8B2484908608020464948610861C7
:100CC000800008614249888900F09AFD4FF48070E5
:100CD000404908614000486120123F490860802077
:100CE0003C49486108618000086139498989491C8B
:100CF00088B200F085FD4FF48070364908614000ED
:100D00004861E0B234490860802032494861086196
:100D1000800008613FE02E49488900F071FD4FF4E2
:100D200080702C4908614000486118122A49086007
:100D300080202849486108618000086140100861EE
:100D400040004861D8B224490860802021494861A8
:100D50000861800008611E49888900F051FD4FF448
:100D600080701C4908614000486120121A490860DF
:100D700080201849486108618000086140100861BE
:100D800040004861E0B21449086080201149486180
:100D90000861800008614FF480700E49486140008E
:100DA00048610B4800890C49086080200949486166
:100DB00008618000086140100861400048610648F1
:100DC00005608020486108618000086130BD000036
:100DD0001C080020001001400C0C01402DE9F04FD0
:100DE00005460E4617469846DDF824A04FF0000B46
:100DF000781B401C1FFA80FB34461EE02146284623
:100E000000F074FB00F00EFD4FF0000911E04FF40C
:100E100080700C490861400048610B48C0F800A090
:100E20008020486108618000086109F101001FFA13
:100E300080F9D945EBDB601C84B24445DEDDBDE8BA
:100E4000F08F0000001001400C0C014010B540F282
:100E5000036003F065FC40F2046003F061FC4FF4B2
:100E6000C06003F05DFC202303221021A04800F0A5
:100E70006AFF4023032210219D4800F064FF802375
:100E8000032210219A4800F05EFF4FF48073032282
:100E90001021974800F057FF4FF4007303221021F0
:100EA000934800F050FF4FF48063032210219048D4
:100EB00000F049FF4FF6FF73032210218D4800F028
:100EC00042FF01218C4800F0A5FF4FF400708849D3
:100ED00008614010086180200861402008614FF6D9
:100EE000FF71844800F0DEFF00BF0122202180480E
:100EF00000F024FF00BF0A2000F072FD00BF0022B6
:100F000020217B4800F01AFF00BF322000F068FD6E
:100F100000BF01222021764800F010FF00BFC8204A
:100F200000F05EFDD32000F06BFC00F0F1F8734997
:100F3000888000F0EDF87149888000F0E9F86F4989
:100F40008880084680884FF6FF7101EA00206B49CF
:100F5000888000F0DDF869498988084367498880FE
:100F60000846808847F2967188427DD0042000F0C0
:100F700047FC00F0CDF86149888000F0C9F85F496E
:100F8000888000F0C5F85D498880084680884FF663
:100F9000FF7101EA00205949888000F0B9F85749EB
:100FA00089880843554988800846808848F252510C
:100FB000884203D147F28970504988804F48808821
:100FC00047F2897188425CD0D42000F019FC00F00F
:100FD0009FF84A49888000F09BF84849888000F0D3
:100FE00097F846498880084680884FF6FF7101EAE5
:100FF00000204249888000F08BF8404989880843E6
:101000003E4988800846808845F21031884238D0B1
:1010100055214FF4704000F00DFCAA214FF2010061
:1010200000F008FC52214FF2020000F003FC0821FE
:101030004FF2030000F0FEFB01214FF2040000F02C
:10104000F9FB4FF4454000F0DBFB00F061F82B4961
:101050008880084680884FF6FF7101EA0020274902
:1010600088804CF2015000E00BE000F0C9FB00F07A
:101070004FF822498988084320498880052000F0DC
:10108000AFFC1E4881881EA0FFF7CCFA1B48808861
:1010900047F29671884202D102F023FF19E0174807
:1010A000808847F28971884202D102F046FE10E042
:1010B0001248808845F21031884202D100F046FF84
:1010C00007E00E48808845F21051884201D101F0B6
:1010D000B6FE0020FFF748FD00BF01229102044840
:1010E00000F02CFE00BF4FF6FF70FFF713FD10BDA0
:1010F00000100140000C0140000230001C080020DC
:10110000204C43442049443A25780D0A0000000051
:1011100008B54FF6FF7303224821154800F013FE6F
:101120000021134800F0BEFE4FF4807011490861A1
:101130004000486140204861022003F03FFA0C481B
:101140000830006880B2009040200A490861C00061
:1011500008614FF6FF7303221021054800F0F3FDEC
:101160004FF6FF71024800F09DFEBDF8000008BD7B
:10117000000C014000100140F0B505460024002796
:10118000D7488079012818D1082D15D2DFE805F05D
:101190000406080A0C0E101206250DE007250BE0C8
:1011A000042509E0052507E0012505E0002503E009
:1011B000032501E0022500BF00BF082D1CD2DFE897
:1011C00005F00406090C0F12151800BF14E044F0D6
:1011D000800411E044F040040EE044F0C0040BE051
:1011E00044F0200408E044F0600405E044F0A0046A
:1011F00002E044F0E00400BF00BF3627B848808812
:1012000045F21051884200D13F02B548808847F22C
:101210009671884205D0B248808847F28971884229
:1012200001D144F008042146384600F003FB04F0E5
:10123000200068B1AA480088A9494988884214DA80
:10124000A74806884088A6490880084646800CE0E2
:10125000A3480088A2494988884206DDA04806883C
:1012600040889F490880084646809D48808845F20E
:10127000105188427ED19A49488900F0C1FA4FF452
:1012800080709849086140004861002096490860D4
:10129000802094494861086180000861904949892B
:1012A000491C88B200F0ACFA4FF480708D49086197
:1012B0004000486100208C490860802089494861CD
:1012C00008618000086186494989891C88B200F05C
:1012D00097FA4FF480708349086140004861804864
:1012E0000088401E00128049086080207D494861C6
:1012F0000861800008617A494989C91C88B200F0F8
:101300007FFA4FF480707749086140004861744863
:101310000078401EC0B2744908608020714948615D
:101320000861800008616E49888900F069FA4FF40D
:1013300080706C4908614000486100206A4908607B
:101340008020684948610861800008616449898992
:10135000491C88B200F054FA4FF48070614908616A
:101360004000486100206049086080205D49486174
:10137000086100E032E08000086159498989891CD0
:1013800088B200F03DFA4FF4807056490861400081
:10139000486153484088401E00125349086080202D
:1013A000504948610861800008614D498989C91C1C
:1013B00088B200F025FA4FF480704A490861400075
:1013C000486147488078401EC0B247490860802085
:1013D000444948610861800008617FE040494889CC
:1013E00000F00EFA4FF480703E49086140004861F9
:1013F00000203D49086080203A494861086180002A
:1014000008614010086140004861002036490860CA
:1014100080203449486108618000086140100861FB
:10142000400048612E480088401E00122E49086086
:1014300080202C49486108618000086140100861E3
:101440004000486126480078401EC0B22649086026
:10145000802024494861086180000861204988890A
:1014600000F0CEF94FF480701E49086140004861D9
:1014700000201D49086080201A49486108618000E9
:10148000086140100861400048610020164908606A
:10149000802014494861086180000861401008619B
:1014A000400048610E484088401E00120E49086006
:1014B00080200C4948610861800008614010086183
:1014C0004000486106488078401EC0B20649086066
:1014D000802004494861086180000861F0BD000077
:1014E0001C080020001001400C0C014010B5034600
:1014F0000C464C48808845F21051884250D14949E9
:10150000488900F07DF94FF4807047490861400038
:1015100048611812454908608020434948610861C4
:10152000800008613F494989491C88B200F068F988
:101530004FF480703C49086140004861D8B23B4993
:101540000860802038494861086180000861354999
:10155000888900F055F94FF48070334908614000E4
:10156000486120123149086080202F494861086194
:10157000800008612B498989491C88B200F040F934
:101580004FF480702849086140004861E0B2274963
:1015900008608020244948610861800008613FE0BC
:1015A0002049488900F02CF94FF480701E490861E9
:1015B0004000486118121D49086080201A4948619E
:1015C0000861800008614010086140004861D8B29D
:1015D000164908608020144948610861800008614C
:1015E0001049888900F00CF94FF480700E490861A9
:1015F0004000486120120D49086080200A49486176
:101600000861800008614010086140004861E0B254
:10161000064908608020044948610861800008612B
:1016200010BD00001C080020001001400C0C0140FF
:101630002DE9FC4F80460E4615461C46B346002059
:10164000019000902046E31704EB5373DB10214612
:101650004FEAE47C04EB5C7C4FEAEC0CA4EBCC0C92
:10166000BCF1000F02D04FF0010C01E04FF0000C74
:101670006344224604EBD27C4FEA6C0C03FB0CF370
:10168000DBB20193A5F12000C5B20C2C06D0102CC2
:101690000BD0182C0ED0202C18D112E005EB4500F1
:1016A0002D4901EB8000009012E02C4800EB051062
:1016B00000900DE005EBC500294901EB800000908A
:1016C00006E0284800EB8510009001E0BDE8FC8FA3
:1016D00000BF00273BE0009810F807904FF0000A89
:1016E0002FE009F0800030B11F48028831464046A3
:1016F000FFF7B6FA07E00B9828B91C480288314674
:101700004046FFF7ADFA4FEA49604FEA1069701C96
:1017100086B217484088B04200DCD7E7A6EB0B0042
:10172000A0420AD15E4608F101001FFA80F8104875
:101730000088404500DCC9E706E00AF1010000F03E
:10174000FF0ABAF1080FCCDB00BF781CC7B20198C2
:101750008742C0DB00BFB9E74C4B0008C04F000810
:10176000B05500080C630008160000201800002087
:101770001C0800202DE9F84704460D46904699467E
:10178000DDE9096704F0FF0A08EB04001FFA80F89E
:1017900009EB05001FFA80F916E0444502DB5446C8
:1017A000A81985B24D4500DB14E0002000903A787E
:1017B000334629462046FFF73BFF304606EBD07103
:1017C00004EB61018CB27F1C38787E2802DC38780B
:1017D0002028E2DA00BFBDE8F88700004FF48071EE
:1017E000054A116149005161044908608021516135
:1017F0001161890011617047001001400C0C01401B
:101800004FF48071054A51614900516104490860F3
:101810008021516111618900116170470010014000
:101820000C0C014000B502490889FFF7E9FF00BD33
:101830001C08002010B504460B462046FFF7E0FFC9
:101840004FF4807005490861400048610448036016
:101850008020486108618000086110BD00100140CF
:101860000C0C014010B540F2026002F059FF40F24A
:10187000056002F055FF4FF48073032210210C48DD
:1018800000F061FA0423032210210A4800F05BFAF9
:1018900000BF01221102064800F050FA00BF00BF4D
:1018A00001220421034800F049FA00BF10BD0000E6
:1018B000000801400014014000BFFEE77047704778
:1018C0007047704708B52648006840F47000244906
:1018D00008602448006840F001002249086000BF09
:1018E0002048006800F002000028F9D000BF1D4821
:1018F000406840F080001B4948600020009002E0F2
:101900000098401C009000985028F9D31548406872
:1019100040F09000134948600020009002E00098D9
:10192000401C009000985028F9D300BF0D48406833
:1019300020F003000B494860084600680A49084047
:10194000084908604FF41F0088600846006820F4CA
:101950008020086000204860C86202F0A1FF08BD36
:1019600088ED00E000100240FFFFF6FE10B50C49C4
:101970000C4803F09EF888B10A4802F0DDFFC4B2BB
:1019800009480068B0F5244F08D20848064909689C
:10199000445405480068401C0349086010BD00001D
:1019A0000503050000380140100000200010002051
:1019B00000BFFEE700BF704700214FF0E022116139
:1019C0001146096921F0040111610146C21700EBBB
:1019D0005272C2F3CF02014B1A80704704000020FC
:1019E00070B504464FF47A7094FBF0F594FBF0F177
:1019F00000FB114603E0074800F00EF86D1E002DB5
:101A0000F9D12EB14FF47A7106FB01F000F004F821
:101A100070BD000040420F000146114A12884A433F
:101A20004FF0E0235A6100229A611A46126942F08F
:101A300001021A6100BF4FF0E022106900F00102BC
:101A40001AB100F48032002AF5D04FF0E02212697A
:101A500022F001024FF0E0231A6100229A617047E0
:101A60000400002000B50346012200BF00F00CF87E
:101A700002465B1E012A01D1002BF7D1012A00D1B9
:101A80000422104600BD000000200A49C96801F088
:101A9000010109B101200CE00649C96801F01001FB
:101AA00009B1032005E00349C96801F0040101B14F
:101AB000022070470020024000B50346012200BF0B
:101AC00000F00CF802465B1E012A01D1002BF7D171
:101AD000012A00D10422104600BD000000200A495E
:101AE000C96C01F0010109B101200CE00649C96C83
:101AF00001F0100109B1032005E00349C96C01F0B0
:101B0000040101B1022070470020024070B5044674
:101B10000D46002627480088B0F5007F31D92648B9
:101B2000844217D22548FFF79DFF0646002E3ED17E
:101B30002348006940F001002149086125801F48C1
:101B4000FFF790FF06461E48006920F001001C497F
:101B500008612CE01948FFF7AFFF06463EBB184866
:101B6000006D40F001001649086525801348FFF715
:101B7000A3FF06461248006D20F0010010490865D9
:101B800015E00E48FFF76EFF064686B90C4800695F
:101B900040F001000A49086125800848FFF762FF0C
:101BA00006460748006920F00100054908613046F3
:101BB00070BD0000E0F7FF1FFFFF07080000FF0FE8
:101BC000002002400848006940F080000649086192
:101BD00006480088B0F5007F04D90846006D40F043
:101BE000800008657047000000200240E0F7FF1FFA
:101BF00030B5054633480088B0F5007F44D93248F7
:101C000085421CD23148FFF72DFF0446002C56D1E7
:101C10002F48006940F002002D49086108464561DF
:101C2000006940F0400008612848FFF71BFF0446A8
:101C30002748006920F00200254908613FE0234859
:101C4000FFF73AFF0446002C39D12148006D40F0DF
:101C500002001F49086508464565C06900F002009A
:101C600008B1084645611A48006D40F04000184927
:101C700008651648FFF720FF04461548006D20F060
:101C80000200134908651AE01048FFF7EBFE04460E
:101C9000ACB90F48006940F002000D4908610846E0
:101CA0004561006940F0400008610848FFF7DAFE2E
:101CB00004460748006920F00200054908612046F3
:101CC00030BD0000E0F7FF1FFFFF07080000FF0F17
:101CD000002002400C48006900F0800020B10B4851
:101CE000094948600A4848600A480088B0F5007F02
:101CF00009D90548006D00F0800020B10348024971
:101D00004864034848647047002002402301674547
:101D1000AB89EFCDE0F7FF1F70B504460D4600BF5D
:101D20000621054802F05FFE0028F9D0E1B2024822
:101D300002F007FE204670BD003801400AB1016183
:101D400000E041617047F0B50446164600250022C8
:101D500001F00F0501F0100747B1042E05D145F041
:101D60000305E76B1F43E76300E0354300201EE0F7
:101D7000012787401F40C7B122684FEA800C0F2718
:101D800007FA0CF7BA43870005FA07F73A43282900
:101D900004D1012787401F40676105E0482903D12E
:101DA000012787401F4027612260471CB8B20828DE
:101DB000DED3082022E0012787401F40E7B1626898
:101DC000A0F108074FEA870C0F2707FA0CF7BA4370
:101DD000A0F10807BF0005FA07F73A43282904D104
:101DE000012787401F40676105E0482903D101278B
:101DF00087401F4027616260471CB8B21028DAD3C1
:101E0000F0BD02469068084008B1012070470020EC
:101E1000FCE70000F0B50A4600230024002100255D
:101E200000F00046B6F1004F02D11D4EF16901E00D
:101E30001B4E7168C0F3034583B200F44016B6F53B
:101E4000401F08D121F0E061154E766826F0E0666B
:101E5000134F7E6012E000F48016B6F5801F06D1A5
:101E6000032606FA05F4A14341F0E06106E0460DC1
:101E7000360103FA06F6B14341F0E06122B1460DA6
:101E8000360103FA06F6314300F00046B6F1004F82
:101E900002D1034EF16101E0014E7160F0BD00001E
:101EA00000000140C160704710B5C26821EA02031A
:101EB00002EA010443EA0443036110BD10B504467D
:101EC000206807490840B0F1005F08D16068054903
:101ED0000860206802F054FC02480068804710BD8A
:101EE0000000FE2F000000202DE9F05F06460F469F
:101EF00090460024B3463D46A1461BE068784FEA71
:101F0000002A287840EA0A0AAD1C2046611C8CB2DF
:101F10000D4921F810A0B4F5806F07D100244FF4CB
:101F200080625846FEF7FCFC0BF5006B09F10200DD
:101F30001FFA80F9C145E1D324B12246024958462F
:101F4000FEF7EEFCBDE8F09F1C00002010B5ED2070
:101F5000FFF756FC0120FFF741FCFE20FFF73EFC97
:101F6000EE20FFF74DFCDE20FFF738FC2120FFF7C5
:101F700035FCF120FFF744FC0120FFF72FFCDF20A8
:101F8000FFF73EFC1020FFF729FCC420FFF738FCC8
:101F90008F20FFF723FCC620FFF732FC0020FFF75D
:101FA0001DFCE220FFF71AFCE220FFF717FCE220FD
:101FB000FFF714FCBF20FFF723FCAA20FFF70EFC5D
:101FC000B020FFF71DFC0D20FFF708FC0020FFF7F5
:101FD00005FC0D20FFF702FC0020FFF7FFFB11209E
:101FE000FFF7FCFB0020FFF7F9FB1920FFF7F6FBDA
:101FF0000020FFF7F3FB2120FFF7F0FB0020FFF7A5
:10200000EDFB2D20FFF7EAFB0020FFF7E7FB3D206B
:10201000FFF7E4FB0020FFF7E1FB5D20FFF7DEFBAD
:102020000020FFF7DBFB5D20FFF7D8FB0020FFF768
:10203000D5FBB120FFF7E4FB8020FFF7CFFB0020AA
:10204000FFF7CCFB8B20FFF7C9FB0020FFF7C6FB97
:102050009620FFF7C3FB0020FFF7C0FBB220FFF77D
:10206000CFFB0020FFF7BAFB0020FFF7B7FB0220F1
:10207000FFF7B4FB0020FFF7B1FB0320FFF7AEFB37
:102080000020FFF7ABFBB320FFF7BAFB0020FFF700
:10209000A5FB0020FFF7A2FB0020FFF79FFB00201D
:1020A000FFF79CFB0020FFF799FB0020FFF796FB52
:1020B0000020FFF793FB0020FFF790FB0020FFF7C5
:1020C0008DFB0020FFF78AFB0020FFF787FB002035
:1020D000FFF784FB0020FFF781FB0020FFF77EFB6A
:1020E0000020FFF77BFB0020FFF778FB0020FFF7C5
:1020F00075FB0020FFF772FB0020FFF76FFB00204D
:10210000FFF76CFB0020FFF769FB0020FFF766FB81
:102110000020FFF763FB0020FFF760FBB420FFF710
:102120006FFB8B20FFF75AFB0020FFF757FB962031
:10213000FFF754FB0020FFF751FBA120FFF74EFBF8
:102140000020FFF74BFBB520FFF75AFB0220FFF7FB
:1021500045FB0020FFF742FB0320FFF73FFB002079
:10216000FFF73CFB0420FFF739FB0020FFF736FBAD
:10217000B620FFF745FB0020FFF730FB0020FFF7FC
:102180002DFBB720FFF73CFB0020FFF727FB0020CB
:10219000FFF724FB3F20FFF721FB0020FFF71EFB8A
:1021A0005E20FFF71BFB0020FFF718FB6420FFF702
:1021B00015FB0020FFF712FB8C20FFF70FFB002020
:1021C000FFF70CFBAC20FFF709FB0020FFF706FB35
:1021D000DC20FFF703FB0020FFF700FB7020FFF778
:1021E000FDFA0020FFF7FAFA9020FFF7F7FA002037
:1021F000FFF7F4FAEB20FFF7F1FA0020FFF7EEFA11
:10220000DC20FFF7EBFA0020FFF7E8FAB820FFF731
:10221000F7FA0020FFF7E2FA0020FFF7DFFA0020CC
:10222000FFF7DCFA0020FFF7D9FA0020FFF7D6FA13
:102230000020FFF7D3FA0020FFF7D0FA0020FFF7C5
:10224000CDFABA20FFF7DCFA2420FFF7C7FA002006
:10225000FFF7C4FA0020FFF7C1FA0020FFF7BEFA2B
:10226000C120FFF7CDFA2020FFF7B8FA0020FFF7D2
:10227000B5FA5420FFF7B2FA0020FFF7AFFAFF20BB
:10228000FFF7ACFA0020FFF7A9FAC220FFF7B8FA6F
:102290000A20FFF7A3FA0020FFF7A0FA0420FFF7B7
:1022A0009DFA0020FFF79AFAC320FFF7A9FA3C2015
:1022B000FFF794FA0020FFF791FA3A20FFF78EFA21
:1022C0000020FFF78BFA3920FFF788FA0020FFF78C
:1022D00085FA3720FFF782FA0020FFF77FFA3C20CB
:1022E000FFF77CFA0020FFF779FA3620FFF776FA3D
:1022F0000020FFF773FA3220FFF770FA0020FFF793
:102300006DFA2F20FFF76AFA0020FFF767FA2C20FA
:10231000FFF764FA0020FFF761FA2920FFF75EFA61
:102320000020FFF75BFA2620FFF758FA0020FFF79E
:1023300055FA2420FFF752FA0020FFF74FFA242025
:10234000FFF74CFA0020FFF749FA2320FFF746FA7F
:102350000020FFF743FA3C20FFF740FA0020FFF788
:102360003DFA3620FFF73AFA0020FFF737FA32201D
:10237000FFF734FA0020FFF731FA2F20FFF72EFA8B
:102380000020FFF72BFA2C20FFF728FA0020FFF798
:1023900025FA2920FFF722FA0020FFF71FFA26204E
:1023A000FFF71CFA0020FFF719FA2420FFF716FAAE
:1023B0000020FFF713FA2420FFF710FA0020FFF7A0
:1023C0000DFA2320FFF70AFA0020FFF707FAC420CE
:1023D000FFF716FA6220FFF701FA0020FFF7FEF977
:1023E0000520FFF7FBF90020FFF7F8F98420FFF73D
:1023F000F5F90020FFF7F2F9F020FFF7EFF90020E0
:10240000FFF7ECF91820FFF7E9F90020FFF7E6F9EC
:10241000A420FFF7E3F90020FFF7E0F91820FFF709
:10242000DDF90020FFF7DAF95020FFF7D7F9002097
:10243000FFF7D4F90C20FFF7D1F90020FFF7CEF910
:102440001720FFF7CBF90020FFF7C8F99520FFF719
:10245000C5F90020FFF7C2F9F320FFF7BFF900200C
:10246000FFF7BCF9E620FFF7B9F90020FFF7B6F94E
:10247000C520FFF7C5F93220FFF7B0F90020FFF7BC
:10248000ADF94420FFF7AAF90020FFF7A7F965206E
:10249000FFF7A4F90020FFF7A1F97620FFF79EF9D6
:1024A0000020FFF79BF98820FFF798F90020FFF73D
:1024B00095F9C620FFF7A4F92020FFF78FF9002037
:1024C000FFF78CF91720FFF789F90020FFF786F94D
:1024D0000120FFF783F90020FFF780F9C720FFF7FD
:1024E0008FF90020FFF77AF90020FFF777F9002035
:1024F000FFF774F90020FFF771F9C820FFF780F9A2
:102500000020FFF76BF90020FFF768F90020FFF7C4
:1025100065F90020FFF762F9C920FFF771F9002083
:10252000FFF75CF90020FFF759F90020FFF756F993
:102530000020FFF753F90020FFF750F90020FFF7C4
:102540004DF90020FFF74AF90020FFF747F9002076
:10255000FFF744F90020FFF741F90020FFF73EF9AB
:102560000020FFF73BF90020FFF738F90020FFF7C4
:1025700035F90020FFF732F90020FFF72FF9E020AE
:10258000FFF73EF91620FFF729F90020FFF726F99B
:102590001C20FFF723F90020FFF720F92120FFF787
:1025A0001DF90020FFF71AF93620FFF717F9002070
:1025B000FFF714F94620FFF711F90020FFF70EF995
:1025C0005220FFF70BF90020FFF708F96420FFF70E
:1025D00005F90020FFF702F97A20FFF7FFF8002045
:1025E000FFF7FCF88B20FFF7F9F80020FFF7F6F86B
:1025F0009920FFF7F3F80020FFF7F0F8A820FFF785
:10260000EDF80020FFF7EAF8B920FFF7E7F800201F
:10261000FFF7E4F8C420FFF7E1F80020FFF7DEF849
:10262000CA20FFF7DBF80020FFF7D8F8D220FFF729
:10263000D5F80020FFF7D2F8D920FFF7CFF8002017
:10264000FFF7CCF8E020FFF7C9F80020FFF7C6F845
:10265000F320FFF7C3F80020FFF7C0F8E120FFF7F1
:10266000CFF81620FFF7BAF80020FFF7B7F81C20C4
:10267000FFF7B4F80020FFF7B1F82220FFF7AEF81B
:102680000020FFF7ABF83620FFF7A8F80020FFF78F
:10269000A5F84520FFF7A2F80020FFF79FF8522089
:1026A000FFF79CF80020FFF799F86420FFF796F8F1
:1026B0000020FFF793F87A20FFF790F80020FFF74B
:1026C0008DF88B20FFF78AF80020FFF787F8992014
:1026D000FFF784F80020FFF781F8A820FFF77EF8C5
:1026E0000020FFF77BF8B920FFF778F80020FFF70C
:1026F00075F8C420FFF772F80020FFF76FF8CA20C2
:10270000FFF76CF80020FFF769F8D220FFF766F8B2
:102710000020FFF763F8D820FFF760F80020FFF7EC
:102720005DF8E020FFF75AF80020FFF757F8F32094
:10273000FFF754F80020FFF751F8E220FFF760F8A8
:102740000520FFF74BF80020FFF748F80B20FFF7B4
:1027500045F80020FFF742F81B20FFF73FF8002064
:10276000FFF73CF83420FFF739F80020FFF736F880
:102770004420FFF733F80020FFF730F84F20FFF731
:102780002DF80020FFF72AF86120FFF727F8002036
:10279000FFF724F87920FFF721F80020FFF71EF853
:1027A0008820FFF71BF80020FFF718F89720FFF7A5
:1027B00015F80020FFF712F8A620FFF70FF8002009
:1027C000FFF70CF8B720FFF709F80020FFF706F82D
:1027D000C220FFF703F80020FFF700F8C720FEF73C
:1027E000FDFF0020FEF7FAFFD120FEF7F7FF0020E3
:1027F000FEF7F4FFD620FEF7F1FF0020FEF7EEFF14
:10280000DD20FEF7EBFF0020FEF7E8FFF320FEF7E8
:10281000E5FF0020FEF7E2FFE320FEF7F1FF0520D1
:10282000FEF7DCFF0020FEF7D9FF0A20FEF7D6FFF7
:102830000020FEF7D3FF1C20FEF7D0FF0020FEF79C
:10284000CDFF3320FEF7CAFF0020FEF7C7FF44206C
:10285000FEF7C4FF0020FEF7C1FF5020FEF7BEFFC9
:102860000020FEF7BBFF6220FEF7B8FF0020FEF756
:10287000B5FF7820FEF7B2FF0020FEF7AFFF8820FB
:10288000FEF7ACFF0020FEF7A9FF9720FEF7A6FF9A
:102890000020FEF7A3FFA620FEF7A0FF0020FEF712
:1028A0009DFFB720FEF79AFF0020FEF797FFC2209A
:1028B000FEF794FF0020FEF791FFC720FEF78EFF82
:1028C0000020FEF78BFFD120FEF788FF0020FEF7E7
:1028D00085FFD520FEF782FF0020FEF77FFFDD2079
:1028E000FEF77CFF0020FEF779FFF320FEF776FF6E
:1028F0000020FEF773FFE420FEF782FF0120FEF7C1
:102900006DFF0020FEF76AFF0120FEF767FF002041
:10291000FEF764FF0220FEF761FF0020FEF75EFF76
:102920002A20FEF75BFF0020FEF758FF3C20FEF751
:1029300055FF0020FEF752FF4B20FEF74FFF00200F
:10294000FEF74CFF5D20FEF749FF0020FEF746FF33
:102950007420FEF743FF0020FEF740FF8420FEF7BF
:102960003DFF0020FEF73AFF9320FEF737FF0020DF
:10297000FEF734FFA220FEF731FF0020FEF72EFF06
:10298000B320FEF72BFF0020FEF728FFBE20FEF746
:1029900025FF0020FEF722FFC420FEF71FFF0020C6
:1029A000FEF71CFFCD20FEF719FF0020FEF716FFF3
:1029B000D320FEF713FF0020FEF710FFDD20FEF707
:1029C0000DFF0020FEF70AFFF320FEF707FF0020AF
:1029D000FEF704FFE520FEF713FF0020FEF7FEFEE2
:1029E0000020FEF7FBFE0020FEF7F8FE0020FEF7B9
:1029F000F5FE0220FEF7F2FE0020FEF7EFFE292092
:102A0000FEF7ECFE0020FEF7E9FE3C20FEF7E6FEB6
:102A10000020FEF7E3FE4B20FEF7E0FE0020FEF76D
:102A2000DDFE5D20FEF7DAFE0020FEF7D7FE742003
:102A3000FEF7D4FE0020FEF7D1FE8420FEF7CEFE86
:102A40000020FEF7CBFE9320FEF7C8FE0020FEF725
:102A5000C5FEA220FEF7C2FE0020FEF7BFFEB32097
:102A6000FEF7BCFE0020FEF7B9FEBE20FEF7B6FE64
:102A70000020FEF7B3FEC420FEF7B0FE0020FEF7F4
:102A8000ADFECD20FEF7AAFE0020FEF7A7FED32064
:102A9000FEF7A4FE0020FEF7A1FEDC20FEF79EFE5E
:102AA0000020FEF79BFEF320FEF798FE0020FEF7C5
:102AB00095FEE620FEF7A4FE1120FEF78FFE002013
:102AC000FEF78CFE3420FEF789FE0020FEF786FE1E
:102AD0005620FEF783FE0020FEF780FE7620FEF7EC
:102AE0007DFE0020FEF77AFE7720FEF777FE0020BD
:102AF000FEF774FE6620FEF771FE0020FEF76EFE04
:102B00008820FEF76BFE0020FEF768FE9920FEF796
:102B100065FE0020FEF762FEBB20FEF75FFE002090
:102B2000FEF75CFE9920FEF759FE0020FEF756FEE8
:102B30006620FEF753FE0020FEF750FE5520FEF7FC
:102B40004DFE0020FEF74AFE5520FEF747FE00200E
:102B5000FEF744FE4520FEF741FE0020FEF73EFE54
:102B60004320FEF73BFE0020FEF738FE4420FEF730
:102B700035FE0020FEF732FEE720FEF741FE322050
:102B8000FEF72CFE0020FEF729FE5520FEF726FE5C
:102B90000020FEF723FE7620FEF720FE0020FEF741
:102BA0001DFE6620FEF71AFE0020FEF717FE6720C6
:102BB000FEF714FE0020FEF711FE6720FEF70EFE62
:102BC0000020FEF70BFE8720FEF708FE0020FEF730
:102BD00005FE9920FEF702FE0020FEF7FFFDBB2058
:102BE000FEF7FCFD0020FEF7F9FD9920FEF7F6FD4B
:102BF0000020FEF7F3FD7720FEF7F0FD0020FEF742
:102C0000EDFD4420FEF7EAFD0020FEF7E7FD56202B
:102C1000FEF7E4FD0020FEF7E1FD2320FEF7DEFDD8
:102C20000020FEF7DBFD3320FEF7D8FD0020FEF785
:102C3000D5FD4520FEF7D2FD0020FEF7CFFDE820B0
:102C4000FEF7DEFD0020FEF7C9FD0020FEF7C6FD01
:102C50009920FEF7C3FD0020FEF7C0FD8720FEF798
:102C6000BDFD0020FEF7BAFD8820FEF7B7FD00206D
:102C7000FEF7B4FD7720FEF7B1FD0020FEF7AEFDB4
:102C80006620FEF7ABFD0020FEF7A8FD8820FEF7CA
:102C9000A5FD0020FEF7A2FDAA20FEF79FFD002063
:102CA000FEF79CFDBB20FEF799FD0020FEF796FD88
:102CB0009920FEF793FD0020FEF790FD6620FEF7B9
:102CC0008DFD0020FEF78AFD5520FEF787FD0020D0
:102CD000FEF784FD5520FEF781FD0020FEF77EFD06
:102CE0004420FEF77BFD0020FEF778FD4420FEF730
:102CF00075FD0020FEF772FD5520FEF76FFD0020E8
:102D0000FEF76CFDE920FEF77BFDAA20FEF766FDCD
:102D10000020FEF763FD0020FEF760FD0020FEF7B7
:102D20005DFD0020FEF76CFDAA20FEF757FDCF20C9
:102D3000FEF766FD0020FEF751FD0020FEF74EFD78
:102D40000020FEF74BFD0020FEF748FD0020FEF7B7
:102D500045FD0020FEF742FD0020FEF73FFD00206C
:102D6000FEF73CFD0020FEF739FD0020FEF736FDA2
:102D70000020FEF733FD0020FEF730FD0020FEF7B7
:102D80002DFD0020FEF72AFD0020FEF727FD002084
:102D9000FEF724FD0020FEF721FDF020FEF730FDB8
:102DA0000020FEF71BFD5020FEF718FD0020FEF767
:102DB00015FD0020FEF712FD0020FEF70FFDF320A9
:102DC000FEF71EFD0020FEF709FDF920FEF718FDB5
:102DD0000620FEF703FD1020FEF700FD2920FEF778
:102DE000FDFC0020FEF7FAFC3A20FEF709FD552015
:102DF000FEF7F4FC1120FEF703FD6420FEF7F0FD62
:102E00002920FEF7FDFC3520FEF7FAFC0020FEF736
:102E1000E5FC5120FEF7F4FCFF20FEF7DFFC532019
:102E2000FEF7EEFC2C20FEF7D9FC5520FEF7E8FC5F
:102E30008220FEF7D3FC2C20FEF7E2FC10BD10B57B
:102E400055214FF47040FEF7F5FCAA214FF2010026
:102E5000FEF7F0FC52214FF20200FEF7EBFC0821D6
:102E60004FF20300FEF7E6FC01214FF20400FEF7EB
:102E7000E1FC0D214FF43040FEF7DCFC0D214BF25C
:102E80000100FEF7D7FC0D214BF20200FEF7D2FC49
:102E900034214FF43640FEF7CDFC34214BF2016073
:102EA000FEF7C8FC34214BF20260FEF7C3FC0D2193
:102EB0004FF43140FEF7BEFC0D214BF20110FEF73E
:102EC000B9FC0D214BF20210FEF7B4FC34214FF493
:102ED0003740FEF7AFFC34214BF20170FEF7AAFC3D
:102EE00034214BF20270FEF7A5FC00214FF4324072
:102EF000FEF7A0FC00214BF20120FEF79BFC002115
:102F00004BF20220FEF796FC24214FF43840FEF7E6
:102F100091FC24214BF60100FEF78CFC24214BF69A
:102F20000200FEF787FC01214FF43F40FEF782FCD0
:102F30000F214FF43340FEF77DFC0F214BF201309F
:102F4000FEF778FC0F214BF20230FEF773FC3421C0
:102F50004FF43940FEF76EFC34214BF60110FEF7BA
:102F600069FC34214BF60210FEF764FC08214FF493
:102F70003540FEF75FFC08214BF20150FEF75AFC8A
:102F800008214BF20250FEF755FC03214FF442405A
:102F9000FEF750FC24214FF43A40FEF74BFC24216D
:102FA0004BF60120FEF746FC24214BF60220FEF7EB
:102FB00041FC00214FF43C40FEF73CFC78214BF6ED
:102FC0000140FEF737FC00214BF60240FEF732FCD1
:102FD00000214FF43D40FEF72DFC78214BF60150C7
:102FE000FEF728FC00214BF60250FEF723FC0021DF
:102FF0004FF43E40FEF71EFC64214BF60160FEF7E5
:1030000019FC00214FF45140FEF714FC33214DF21E
:103010000110FEF70FFC00214DF20210FEF70AFC32
:1030200034214DF20310FEF705FC00214DF204108F
:10303000FEF700FC3A214DF20510FEF7FBFB0021E4
:103040004DF20610FEF7F6FB4A214DF20710FEF78F
:10305000F1FB00214DF20810FEF7ECFB5C214DF274
:103060000910FEF7E7FB00214DF20A10FEF7E2FB24
:1030700081214DF20B10FEF7DDFB00214DF20C100B
:10308000FEF7D8FBA6214DF20D10FEF7D3FB002171
:103090004DF20E10FEF7CEFBE5214DF20F10FEF7BC
:1030A000C9FB01214DF21010FEF7C4FB13214DF2B4
:1030B0001110FEF7BFFB01214DF21210FEF7BAFB13
:1030C00054214DF21310FEF7B5FB01214DF21410FF
:1030D000FEF7B0FB82214DF21510FEF7ABFB01218C
:1030E0004DF21610FEF7A6FBCA214DF21710FEF79F
:1030F000A1FB02214DF21810FEF79CFB00214DF2BE
:103100001910FEF797FB02214DF21A10FEF792FB01
:1031100001214DF21B10FEF78DFB02214DF21C1018
:10312000FEF788FB34214DF21D10FEF783FB0221D0
:103130004DF21E10FEF77EFB67214DF21F10FEF7C9
:1031400079FB02214DF22010FEF774FB84214DF231
:103150002110FEF76FFB02214DF22210FEF76AFBF1
:10316000A4214DF22310FEF765FB02214DF224103D
:10317000FEF760FBB7214DF22510FEF75BFB022145
:103180004DF22610FEF756FBCF214DF22710FEF729
:1031900051FB02214DF22810FEF74CFBDE214DF2CF
:1031A0002910FEF747FB02214DF22A10FEF742FBE1
:1031B000F2214DF22B10FEF73DFB02214DF22C10B7
:1031C000FEF738FBFE214DF22D10FEF733FB0321F5
:1031D0004DF22E10FEF72EFB10214DF22F10FEF7B0
:1031E00029FB03214DF23010FEF724FB33214DF271
:1031F0003110FEF71FFB03214DF23210FEF71AFBD0
:103200006D214DF23310FEF715FB00214FF45240B3
:10321000FEF710FB33214DF20120FEF70BFB0021DE
:103220004DF20220FEF706FB34214DF20320FEF79B
:1032300001FB00214DF20420FEF7FCFA3A214DF289
:103240000520FEF7F7FA00214DF20620FEF7F2FA0C
:103250004A214DF20720FEF7EDFA00214DF2082039
:10326000FEF7E8FA5C214DF20920FEF7E3FA0021AF
:103270004DF20A20FEF7DEFA81214DF20B20FEF717
:10328000D9FA00214DF20C20FEF7D4FAA6214DF216
:103290000D20FEF7CFFA00214DF20E20FEF7CAFAFC
:1032A000E5214DF20F20FEF7C5FA01214DF2102065
:1032B000FEF7C0FA13214DF21120FEF7BBFA0121EF
:1032C0004DF21220FEF7B6FA54214DF21320FEF70C
:1032D000B1FA01214DF21420FEF7ACFA82214DF231
:1032E0001520FEF7A7FA01214DF21620FEF7A2FAEB
:1032F000CA214DF21720FEF79DFA02214DF2182047
:10330000FEF798FA00214DF21920FEF793FA0221F8
:103310004DF21A20FEF78EFA01214DF21B20FEF726
:1033200089FA02214DF21C20FEF784FA34214DF275
:103330001D20FEF77FFA02214DF21E20FEF77AFAD9
:1033400067214DF21F20FEF775FA02214DF2202071
:10335000FEF770FA84214DF22120FEF76BFA02216C
:103360004DF22220FEF766FAA4214DF22320FEF74B
:1033700061FA02214DF22420FEF75CFAB7214DF2EA
:103380002520FEF757FA02214DF22620FEF752FAC9
:10339000CF214DF22720FEF74DFA02214DF22820D1
:1033A000FEF748FADE214DF22920FEF743FA02210A
:1033B0004DF22A20FEF73EFAF2214DF22B20FEF7C5
:1033C00039FA02214DF22C20FEF734FAFE214DF29B
:1033D0002D20FEF72FFA03214DF22E20FEF72AFAB8
:1033E00010214DF22F20FEF725FA03214DF2302057
:1033F000FEF720FA33214DF23120FEF71BFA0321AC
:103400004DF23220FEF716FA6D214DF23320FEF711
:1034100011FA00214FF45340FEF70CFA33214DF21C
:103420000130FEF707FA00214DF20230FEF702FAF2
:1034300034214DF20330FEF7FDF900214DF2043046
:10344000FEF7F8F93A214DF20530FEF7F3F90021C5
:103450004DF20630FEF7EEF94A214DF20730FEF745
:10346000E9F900214DF20830FEF7E4F95C214DF254
:103470000930FEF7DFF900214DF20A30FEF7DAF9E4
:1034800081214DF20B30FEF7D5F900214DF20C30C1
:10349000FEF7D0F9A6214DF20D30FEF7CBF9002151
:1034A0004DF20E30FEF7C6F9E5214DF20F30FEF772
:1034B000C1F901214DF21030FEF7BCF913214DF294
:1034C0001130FEF7B7F901214DF21230FEF7B2F9D3
:1034D00054214DF21330FEF7ADF901214DF21430B5
:1034E000FEF7A8F982214DF21530FEF7A3F901216C
:1034F0004DF21630FEF79EF9CA214DF21730FEF755
:1035000099F902214DF21830FEF794F900214DF29D
:103510001930FEF78FF902214DF21A30FEF78AF9C1
:1035200001214DF21B30FEF785F902214DF21C30CE
:10353000FEF780F934214DF21D30FEF77BF90221B0
:103540004DF21E30FEF776F967214DF21F30FEF77F
:1035500071F902214DF22030FEF76CF984214DF211
:103560002130FEF767F902214DF22230FEF762F9B1
:10357000A4214DF22330FEF75DF902214DF22430F3
:10358000FEF758F9B7214DF22530FEF753F9022125
:103590004DF22630FEF74EF9CF214DF22730FEF7DF
:1035A00049F902214DF22830FEF744F9DE214DF2AF
:1035B0002930FEF73FF902214DF22A30FEF73AF9A1
:1035C000F2214DF22B30FEF735F902214DF22C306D
:1035D000FEF730F9FE214DF22D30FEF72BF90321D5
:1035E0004DF22E30FEF726F910214DF22F30FEF766
:1035F00021F903214DF23030FEF71CF933214DF251
:103600003130FEF717F903214DF23230FEF712F98F
:103610006D214DF23330FEF70DF900214FF4544087
:10362000FEF708F933214DF20140FEF703F90021BE
:103630004DF20240FEF7FEF834214DF20340FEF752
:10364000F9F800214DF20440FEF7F4F83A214DF26A
:103650000540FEF7EFF800214DF20640FEF7EAF8CC
:103660004A214DF20740FEF7E5F800214DF20840EF
:10367000FEF7E0F85C214DF20940FEF7DBF800218F
:103680004DF20A40FEF7D6F881214DF20B40FEF7CD
:10369000D1F800214DF20C40FEF7CCF8A6214DF2F6
:1036A0000D40FEF7C7F800214DF20E40FEF7C2F8BC
:1036B000E5214DF20F40FEF7BDF801214DF210401B
:1036C000FEF7B8F813214DF21140FEF7B3F80121CF
:1036D0004DF21240FEF7AEF854214DF21340FEF7C2
:1036E000A9F801214DF21440FEF7A4F882214DF211
:1036F0001540FEF79FF801214DF21640FEF79AF8AB
:10370000CA214DF21740FEF795F802214DF21840FC
:10371000FEF790F800214DF21940FEF78BF80221D8
:103720004DF21A40FEF786F801214DF21B40FEF7DC
:1037300081F802214DF21C40FEF77CF834214DF255
:103740001D40FEF777F802214DF21E40FEF772F899
:1037500067214DF21F40FEF76DF802214DF2204027
:10376000FEF768F884214DF22140FEF763F802214C
:103770004DF22240FEF75EF8A4214DF22340FEF701
:1037800059F802214DF22440FEF754F8B7214DF2CA
:103790002540FEF74FF802214DF22640FEF74AF889
:1037A000CF214DF22740FEF745F802214DF2284087
:1037B000FEF740F8DE214DF22940FEF73BF80221EA
:1037C0004DF22A40FEF736F8F2214DF22B40FEF77B
:1037D00031F802214DF22C40FEF72CF8FE214DF27B
:1037E0002D40FEF727F803214DF22E40FEF722F878
:1037F00010214DF22F40FEF71DF803214DF230400D
:10380000FEF718F833214DF23140FEF713F803218B
:103810004DF23240FEF70EF86D214DF23340FEF7C7
:1038200009F800214FF45540FEF704F833214DF21A
:103830000150FDF7FFFF00214DF20250FDF7FAFFA6
:1038400034214DF20350FDF7F5FF00214DF20450F5
:10385000FDF7F0FF3A214DF20550FDF7EBFF002197
:103860004DF20650FDF7E6FF4A214DF20750FDF7F5
:10387000E1FF00214DF20850FDF7DCFF5C214DF225
:103880000950FDF7D7FF00214DF20A50FDF7D2FF96
:1038900081214DF20B50FDF7CDFF00214DF20C5070
:1038A000FDF7C8FFA6214DF20D50FDF7C3FF002123
:1038B0004DF20E50FDF7BEFFE5214DF20F50FDF722
:1038C000B9FF01214DF21050FDF7B4FF13214DF265
:1038D0001150FDF7AFFF01214DF21250FDF7AAFF85
:1038E00054214DF21350FDF7A5FF01214DF2145064
:1038F000FDF7A0FF82214DF21550FDF79BFF01213E
:103900004DF21650FDF796FFCA214DF21750FDF704
:1039100091FF02214DF21850FDF78CFF00214DF26E
:103920001950FDF787FF02214DF21A50FDF782FF73
:1039300001214DF21B50FDF77DFF02214DF21C507D
:10394000FDF778FF34214DF21D50FDF773FF022182
:103950004DF21E50FDF76EFF67214DF21F50FDF72F
:1039600069FF02214DF22050FDF764FF84214DF2E2
:103970002150FDF75FFF02214DF22250FDF75AFF63
:10398000A4214DF22350FDF755FF02214DF22450A2
:10399000FDF750FFB7214DF22550FDF74BFF0221F7
:1039A0004DF22650FDF746FFCF214DF22750FDF78F
:1039B00041FF02214DF22850FDF73CFFDE214DF280
:1039C0002950FDF737FF02214DF22A50FDF732FF53
:1039D000F2214DF22B50FDF72DFF02214DF22C501C
:1039E000FDF728FFFE214DF22D50FDF723FF0321A7
:1039F0004DF22E50FDF71EFF10214DF22F50FDF716
:103A000019FF03214DF23050FDF714FF33214DF221
:103A10003150FDF70FFF03214DF23250FDF70AFF41
:103A20006D214DF23350FDF705FF00214FF4564054
:103A3000FDF700FF33214DF20160FDF7FBFE002191
:103A40004DF20260FDF7F6FE34214DF20360FDF702
:103A5000F1FE00214DF20460FDF7ECFE3A214DF23B
:103A60000560FDF7E7FE00214DF20660FDF7E2FE7E
:103A70004A214DF20760FDF7DDFE00214DF208609E
:103A8000FDF7D8FE5C214DF20960FDF7D3FE002161
:103A90004DF20A60FDF7CEFE81214DF20B60FDF77D
:103AA000C9FE00214DF20C60FDF7C4FEA6214DF2C7
:103AB0000D60FDF7BFFE00214DF20E60FDF7BAFE6E
:103AC000E5214DF20F60FDF7B5FE01214DF21060CA
:103AD000FDF7B0FE13214DF21160FDF7ABFE0121A1
:103AE0004DF21260FDF7A6FE54214DF21360FDF772
:103AF000A1FE01214DF21460FDF79CFE82214DF2E2
:103B00001560FDF797FE01214DF21660FDF792FE5C
:103B1000CA214DF21760FDF78DFE02214DF21860AB
:103B2000FDF788FE00214DF21960FDF783FE0221AA
:103B30004DF21A60FDF77EFE01214DF21B60FDF78C
:103B400079FE02214DF21C60FDF774FE34214DF226
:103B50001D60FDF76FFE02214DF21E60FDF76AFE4B
:103B600067214DF21F60FDF765FE02214DF22060D6
:103B7000FDF760FE84214DF22160FDF75BFE02211E
:103B80004DF22260FDF756FEA4214DF22360FDF7B1
:103B900051FE02214DF22460FDF74CFEB7214DF29B
:103BA0002560FDF747FE02214DF22660FDF742FE3B
:103BB000CF214DF22760FDF73DFE02214DF2286036
:103BC000FDF738FEDE214DF22960FDF733FE0221BC
:103BD0004DF22A60FDF72EFEF2214DF22B60FDF72B
:103BE00029FE02214DF22C60FDF724FEFE214DF24C
:103BF0002D60FDF71FFE03214DF22E60FDF71AFE2A
:103C000010214DF22F60FDF715FE03214DF23060BB
:103C1000FDF710FE33214DF23160FDF70BFE03215D
:103C20004DF23260FDF706FE6D214DF23360FDF777
:103C300001FE55214FF47040FDF7FCFDAA214FF223
:103C40000100FDF7F7FD52214FF20200FDF7F2FDF2
:103C500008214FF20300FDF7EDFD00214FF20400B3
:103C6000FDF7E8FDCC214FF43140FDF7E3FD0021E5
:103C70004BF20110FDF7DEFD05214FF43640FDF754
:103C8000D9FD70214FF43740FDF7D4FD70214BF280
:103C90000170FDF7CFFD01214FF43840FDF7CAFD5B
:103CA00003214BF60100FDF7C5FD03214BF6020091
:103CB000FDF7C0FD03214BF60300FDF7BBFD02211C
:103CC0004FF43C40FDF7B6FD00214BF60140FDF7F7
:103CD000B1FD00214BF60240FDF7ACFDD0214FF4C1
:103CE0004940FDF7A7FD02214CF60110FDF7A2FDAA
:103CF00050214CF60210FDF79DFD50214CF60310AB
:103D0000FDF798FD50214CF60410FDF793FD0021BE
:103D10004FF45450FDF78EFD55214FF46850FDF7D8
:103D200089FD4FF48850FDF76BFD7820FDF774FE98
:103D30004FF42450FDF764FD10BD10B51120FDF7C0
:103D40005FFD7820FDF74CFE3620FDF759FD002081
:103D5000FDF744FD3A20FDF753FD0520FDF73EFD3C
:103D6000B220FDF74DFD0C20FDF738FD0C20FDF7CE
:103D700035FD0020FDF732FD3320FDF72FFD332008
:103D8000FDF72CFDB720FDF73BFD3520FDF726FDA7
:103D9000BB20FDF735FD3220FDF720FDC020FDF7EB
:103DA0002FFD0C20FDF71AFDC220FDF729FD012093
:103DB000FDF714FDC320FDF723FD1020FDF70EFDD8
:103DC000C420FDF71DFD2020FDF708FDC620FDF7EE
:103DD00017FD0F20FDF702FDD020FDF711FDA420F7
:103DE000FDF7FCFCA120FDF7F9FCE020FDF708FD44
:103DF000D020FDF7F3FC0020FDF7F0FC0220FDF7DA
:103E0000EDFC0720FDF7EAFC0A20FDF7E7FC28207F
:103E1000FDF7E4FC3220FDF7E1FC4420FDF7DEFC79
:103E20004220FDF7DBFC0620FDF7D8FC0E20FDF755
:103E3000D5FC1220FDF7D2FC1420FDF7CFFC172093
:103E4000FDF7CCFCE120FDF7DBFCD020FDF7C6FC44
:103E50000020FDF7C3FC0220FDF7C0FC0720FDF7A2
:103E6000BDFC0A20FDF7BAFC2820FDF7B7FC312085
:103E7000FDF7B4FC5420FDF7B1FC4720FDF7AEFC84
:103E80000E20FDF7ABFC1C20FDF7A8FC1720FDF76A
:103E9000A5FC1B20FDF7A2FC1E20FDF79FFC2A209D
:103EA000FDF7AEFC0020FDF799FC0020FDF796FC25
:103EB0000020FDF793FCEF20FDF790FC2B20FDF791
:103EC0009FFC0020FDF78AFC0020FDF787FC012005
:103ED000FDF784FC3F20FDF781FC2920FDF790FCD5
:103EE00010BD10B5F020FDF78BFCC320FDF776FC6C
:103EF000F020FDF785FC9620FDF770FC3620FDF7DD
:103F00007FFC4820FDF76AFC3A20FDF779FC55203C
:103F1000FDF764FCB420FDF773FC0120FDF75EFCA7
:103F2000B620FDF76DFC8020FDF758FC2220FDF740
:103F300055FC3B20FDF752FCB720FDF761FCC62085
:103F4000FDF74CFCC020FDF75BFC8020FDF746FC34
:103F50001620FDF743FCC120FDF752FC1920FDF7A8
:103F60003DFCC220FDF74CFCA720FDF737FCC52027
:103F7000FDF746FC1620FDF731FCE820FDF740FC7C
:103F80004020FDF72BFC8A20FDF728FC0020FDF7E0
:103F900025FC0020FDF722FC2920FDF71FFC19203D
:103FA000FDF71CFCA520FDF719FC3320FDF716FCDE
:103FB000E020FDF725FCF020FDF710FC0720FDF7C1
:103FC0000DFC0D20FDF70AFC0420FDF707FC052081
:103FD000FDF704FC1420FDF701FC3620FDF7FEFB85
:103FE0005420FDF7FBFB4C20FDF7F8FB3820FDF7D4
:103FF000F5FB1320FDF7F2FB1420FDF7EFFB2E205D
:10400000FDF7ECFB3420FDF7E9FBE120FDF7F8FBC1
:10401000F020FDF7E3FB1020FDF7E0FB1420FDF797
:10402000DDFB0E20FDF7DAFB0C20FDF7D7FB0820A7
:10403000FDF7D4FB3520FDF7D1FB4420FDF7CEFB87
:104040004C20FDF7CBFB2620FDF7C8FB1020FDF729
:10405000C5FB1220FDF7C2FB2C20FDF7BFFB322071
:10406000FDF7BCFBF020FDF7CBFB3C20FDF7B6FBDA
:10407000F020FDF7C5FB6920FDF7B0FB3520FDF70B
:10408000BFFB0020FDF7AAFB2120FDF7B9FB1120A3
:10409000FDF7B6FB7820FDF7A3FC2920FDF7B0FB68
:1040A0003220FDF79DFC2A20FDF7AAFB0020FDF73A
:1040B00095FB0020FDF792FB0120FDF78FFB3F20D1
:1040C000FDF78CFB2B20FDF79BFB0020FDF786FB0B
:1040D0000020FDF783FB0120FDF780FBDF20FDF7CB
:1040E0007DFB2C20FDF78CFB10BD00001CB54FF0B4
:1040F0000008002500267820FDF75EFC4FF4E13033
:1041000000F080FCFDF7AEFBFCF7A0FEFCF792FC94
:104110004FF478408249088082A010210B46C822C3
:10412000CDE9001032211E20FDF724FB80A01021D4
:104130000B46C822CDE9001046211E20FDF71AFBD0
:104140007EA010210B46C822CDE900105A211E2066
:10415000FDF710FB7CA010210B46C822CDE9001012
:104160006E211E20FDF706FB7DA010210B46C82204
:10417000CDE9001082211E20FDF7FCFA7DA0102160
:104180000B46C822CDE9001096211E20FDF7F2FA59
:104190001F2063490880C1E07B480068A8B17A48C5
:1041A000006880450ED1784805684FF0000800206F
:1041B0007549086075A0FCF735FA294678A0FCF728
:1041C00031FA02E07048D0F80080781CC7B20A20AB
:1041D000FDF706FC1E2F14D100BF4FF48071754807
:1041E000FDF762FE00BF00275EB1701EC6B246B981
:1041F0004FF6FF70E223F022BE2100901E20FCF754
:10420000EDFD0020FCF732FC0446032C44D1002DC8
:1042100034D069A0FCF706FA6CA010210B46C82226
:10422000CDE90010BE211E20FDF7A4FA6D484068BC
:1042300000F07F40B0F1006F12D12A466A496B4806
:10424000FDF752FE6AA010210B46C822CDE90010EE
:10425000BE211E20FDF78EFA6BA0FCF7E3F91AE0F1
:104260006DA010210B46C822CDE90010BE211E20F2
:10427000FDF780FA6EA0FCF7D5F90CE071A0FCF711
:10428000D1F976A010210B46C822CDE90010BE213D
:104290001E20FDF76FFA0726022C1ED153484068F6
:1042A00000F07F40B0F1006F09D16EA0FCF7BAF9C1
:1042B0000A20FDF795FB4D48FDF700FE0CE070A0CD
:1042C000FCF7B0F965A010210B46C822CDE900101B
:1042D000BE211E20FDF74EFA0726012C1ED16EA02E
:1042E000FCF7A0F90A20FDF77BFB3E48406800F090
:1042F0007F40B0F1005F03D13A48FDF7DFFD0CE0ED
:104300006CA0FCF78FF972A010210B46C822CDE9F2
:104310000010BE211E20FDF72DFA07263CE7000005
:10432000160000204D696E692047443332000000BA
:10433000494150205445535400000000574B53202E
:10434000534D415254000000574B5F55503A436F54
:1043500070792041505032464C41534800000000D3
:104360004B4559303A52756E205352414D204150C1
:10437000500000004B4559313A52756E20464C4171
:10438000534820415050000010000020D3C3BBA769
:10439000B3CCD0F2BDD3CAD5CDEAB3C9210D0A0042
:1043A000B4FAC2EBB3A4B6C83A2564427974657313
:1043B0000D0A000000080140BFAACABCB8FCD0C268
:1043C000B9CCBCFE2E2E2E0D0A000000436F707972
:1043D000696E672041505032464C4153482E2E2E74
:1043E00000000000001000200010002000900008D5
:1043F000436F707920415050205375636365737328
:104400006564212100000000B9CCBCFEB8FCD0C21C
:10441000CDEAB3C9210D0A00496C6C6567616C2057
:10442000464C4153482041505021202000000000BC
:10443000B7C7464C415348D3A6D3C3B3CCD0F2211F
:104440000D0A0000C3BBD3D0BFC9D2D4B8FCD0C2C0
:10445000B5C4B9CCBCFE210D0A0000004E6F20414E
:1044600050502100BFAACABCD6B4D0D0464C41534C
:1044700048D3C3BBA7B4FAC2EB21210D0A00000048
:10448000C3BBD3D0BFC9D2D4D4CBD0D0B5C4B9CCA0
:10449000BCFE210D0A000000BFAACABCD6B4D0D011
:1044A0005352414DD3C3BBA7B4FAC2EB21210D0A2D
:1044B00000000000B7C75352414DD3A6D3C3B3CCBD
:1044C000D0F22CCEDEB7A8D6B4D0D0210D0A000091
:1044D000496C6C6567616C205352414D20415050CE
:1044E000210000002DE9F04103460D461646002448
:1044F0000027A0462A48006800F4E060B0F5E06FAD
:1045000003D100BF4FF0040830E02548006800F4F4
:10451000E060B0F5C06F03D101274FF0030825E03C
:104520001F48006800F4E060B0F5A06F02D10227D8
:10453000B8461BE01A48006800F4E060B0F5806FF0
:1045400003D103274FF0010810E01548006800F47C
:10455000E060B0F5407F03D104274FF0000805E08C
:104560004FF4A06000F020F80227B846C7F104001D
:1045700005FA00F4C8F104010F20C840304004439C
:1045800024010848C45403F01F0101208840591138
:10459000890001F1E021C1F80001BDE8F0810000CF
:1045A0000CED00E000E400E002490143024A116022
:1045B000704700000000FA050CED00E000BF011E8E
:1045C000A0F10100FBD170472DE9F04F8CB00746F8
:1045D00000200A904AA090E8004CC068CDE905BED2
:1045E000CDF810A007900FF21C1ADAE9000ACDE905
:1045F000020A0FF2101ADAE9000ACDE9000A44486B
:104600004068C0F381000B900B9820B1012804D0C2
:1046100002283FD103E03F4A3EE03E4A3CE03C48AE
:10462000406800F4803CBCF5803F12D13848C06A35
:1046300000F08048B8F1000F01D1364B00E0364B56
:104640003348406800F40039B9F5003F02D15B08F7
:1046500000E0324B2E484068C0F383412C4840684C
:1046600000F0006008B141F010012948406800F0F6
:10467000804008B141F020010F2901D2891C06E0D9
:104680000F2903D33E2901D8491C00E03F2103FB39
:1046900001F201E01F4A00BF00BF1D484068C0F39F
:1046A000031504A8465D22FA06F419484068C0F3D1
:1046B000022502A8465D24FA06F0099014484068D5
:1046C000C0F3C2251DF8056024FA06F0089037B142
:1046D000012F06D0022F06D0032F0AD106E00A923E
:1046E00008E00A9406E009980A9003E008980A9006
:1046F00000E000BF00BF0A980CB0BDE8F08F0000DA
:104700000000000000000000010203040607080981
:104710000010024000127A00006CDC0200093D002B
:10472000064A02EB9011096800F01F0301229A402B
:104730001143024B03EB90121160704700100240CE
:10474000064A02EB9011096800F01F0301229A400B
:104750009143024B03EB901211607047001002402E
:10476000064A02EB9011096800F01F0301229A40EB
:104770001143024B03EB901211607047001002408E
:1047800000BF80F3088800BF7047000000200021B0
:104790003F4A126842F480323D4B1A6000BF401C11
:1047A0003B4A126802F4003119B94FF6FF72904289
:1047B000F5D1374A126802F400320AB900BFFEE7A9
:1047C000334AD26942F08052314BDA61314A126881
:1047D00042F440422F4B1A602D4A52682C4B5A60CB
:1047E0001A4652685A601A46526842F480625A6009
:1047F0001A46526822F440325A601A46526842F40D
:1048000040325A601A465268234B1A40204B5A6075
:104810001A465268214B1A431D4B5A601A461268B9
:1048200042F080721A6000BF194A126802F00072EA
:10483000002AF9D0174A126842F48032154B1A60E8
:1048400000BF144A526802F48032002AF9D0114A9B
:10485000126842F400320F4B1A6000BF0D4A5268D2
:1048600002F40032002AF9D0094A526822F0030209
:10487000074B5A601A46526842F002025A6000BF63
:10488000034A526802F00802002AF9D0704700007B
:104890000010024000700040FFFFC3B70000340862
:1048A00010B5FFF773FF10BD2DE9F04704460D4624
:1048B0000027B846B94600261D49601A8C421CD014
:1048C00006DC1C48204470B1B0F5806F1FD10FE0AA
:1048D000B0F5806F16D0B0F56C4F18D10320FFF7FC
:1048E00073FE074614E00220FFF76EFE07460FE056
:1048F0000220FFF769FE07460AE00220FFF764FE88
:10490000074605E00220FFF75FFE074600E000BF14
:1049100000BF07EB5500B0FBF5F64FF6F07006EA66
:10492000000806F00F0948EA0900A060BDE8F0871A
:10493000004C004000BCFFBF01464868C0F30800BF
:104940007047C1F3080242607047000010B504468A
:104950002049601A8C4228D006DC1F48204490B1C0
:10496000B0F5806F33D117E0B0F5806F26D0B0F589
:104970006C4F2CD140F20E30FFF7F2FE40F20E30B9
:10498000FFF7DEFE24E040F21140FFF7E9FE40F2BF
:104990001140FFF7D5FE1BE040F21240FFF7E0FEAA
:1049A00040F21240FFF7CCFE12E040F21340FFF756
:1049B000D7FE40F21340FFF7C3FE09E040F2144077
:1049C000FFF7CEFE40F21440FFF7BAFE00E000BF52
:1049D00000BF10BD004C004000BCFFBFC16841F4E7
:1049E0000051C160704710B5024602EB911000689B
:1049F00001F01F040123A340184008B1012010BD9D
:104A00000020FCE710B5044640F20260FFF788FE84
:104A10004FF4C060FFF784FE40F20E60FFF780FEA7
:104A20004FF40073032218211948FDF78CF94FF455
:104A30008063032204211648FDF785F91548FFF726
:104A400085FF21461348FFF72FFF0021114800F092
:104A50005EF800210F4800F06CF800210D4800F0CE
:104A600044F804210B4800F048F80821094800F0F8
:104A700056F840F20531074800F00EF803221146BF
:104A80002520FFF72FFD0348FFF7A8FF10BD00000A
:104A9000000801400038014010B500EB9112126887
:104AA00001F01F040123A3401A4300EB91131A6085
:104AB00010BD70B5024600230024C1F389101058C0
:104AC00001F01F060125B54000EA050302EB9150F5
:104AD0000068C1F304460125B54000EA050414B19D
:104AE0000BB1012070BD0020FCE7C26822F4C06257
:104AF000C260C2680A43C2607047C26822F0040202
:104B0000C260C26801F004031A43C26070470269C0
:104B100022F44052026102690A4302617047C2688E
:104B200022F00802C260C26801F008031A43C260A2
:104B30007047C26822F48052C260C2680A43C260F1
:104B400070474FF04070E1EE100A7047000000001F
:104B50000000000000000000000000003F400000D6
:104B60000000000000003000400030004000000065
:104B700009000BC03D000BC03D00090018C02440D7
:104B80007FE0224031800000180024C01B000D800F
:104B90003240018003801C4027401C8007400040B9
:104BA0001000600000000000000000000000000095
:104BB00000001F80204040200000402020401F8037
:104BC00000000000090006001F8006000900000028
:104BD000040004003F800400040000000010006096
:104BE00000000000000000000400040004000400B5
:104BF0000400000000000040000000000000000071
:104C0000002001C006003800400000001F80204046
:104C1000204020401F800000000010403FC00040A6
:104C20000000000018C0214022402440184000002D
:104C300010802040244024401B80000002000D0012
:104C400011003FC0014000003C802440244024402B
:104C5000238000001F802440244034400380000053
:104C60003000200027C03800200000001B802440B6
:104C7000244024401B8000001C0022C0224022400F
:104C80001F8000000000000008400000000000003D
:104C900000000000046000000000000000000400AC
:104CA0000A001100208040400900090009000900A5
:104CB0000900000000004040208011000A000400AC
:104CC0001800200023402400180000001F8020400E
:104CD000274029401F400000004007C039000F0056
:104CE00001C0004020403FC0244024401B80000001
:104CF0001F802040204020403080000020403FC0E6
:104D0000204020401F80000020403FC024402E4013
:104D100030C0000020403FC024402E003000000082
:104D20000F001080204022403380020020403FC00E
:104D3000040004003FC02040204020403FC02040ED
:104D4000204000000060202020203FC020002000E4
:104D500020403FC024400B0030C0204020403FC0D6
:104D600020400040004000C03FC03C0003C03C0069
:104D70003FC0000020403FC00C4023003FC0200047
:104D80001F802040204020401F80000020403FC066
:104D900024402400180000001F802140214020E012
:104DA0001FA0000020403FC02440260019C0004042
:104DB00018C02440244022403180000030002040B0
:104DC0003FC020403000000020003F8000400040F5
:104DD0003F80200020003E0001C007003800200076
:104DE000380007C03C0007C038000000204039C030
:104DF000060039C0204000002000384007C038407D
:104E000020000000304021C02640384020C0000073
:104E1000000000007FE04020402000000000700003
:104E20000C000380004000000000402040207FE094
:104E300000000000000020004000200000000000F2
:104E40000010001000100010001000100000000002
:104E50004000000000000000000002800540054006
:104E600003C0004020003FC0044004400380000015
:104E7000000003800440044006400000000003805E
:104E8000044024403FC0004000000380054005402E
:104E900003400000000004401FC0244024402000C4
:104EA000000002E0055005500650042020403FC09D
:104EB0000440040003C000400000044027C000403C
:104EC0000000000000100010041027E000000000A7
:104ED00020403FC00140070004C004402040204063
:104EE0003FC000400040000007C0040007C00400AD
:104EF00003C00000044007C00440040003C0004099
:104F0000000003800440044003800000041007F008
:104F1000045004400380000000000380044004505B
:104F200007F00010044007C0024004000400000025
:104F3000000006400540054004C0000000000400D9
:104F40001F8004400040000004000780004004402F
:104F500007C000400400070004C0018006000400F0
:104F6000060001C0070001C006000000044006C0A2
:104F7000010006C0044000000410071004E0018096
:104F8000060004000000044005C006400440000084
:104F90000000000004007BE0402000000000000052
:104FA0000000FFF000000000000040207BE0040053
:104FB0000000000040008000400020002000400071
:104FC00000000000000000000000000000000000E1
:104FD0000000000000001FCC000C000000000000DA
:104FE0000000080030006000080030006000000091
:104FF000022003FC1E20022003FC1E2002200000D1
:1050000000000E1811043FFF10840C78000000000F
:105010000F0010840F3800C0077818840078000053
:1050200000780F8410C411240E9800E40084000856
:105030000800680070000000000000000000000090
:1050400000000000000007E01818200440020000E3
:10505000000040022004181807E0000000000000D3
:105060000240024001800FF0018002400240000037
:105070000080008000800FF8008000800080000029
:105080000001000D000E0000000000000000000004
:105090000000008000800080008000800080008090
:1050A0000000000C000C00000000000000000000E8
:1050B00000000006001800600180060018002000B3
:1050C000000007F0080810041004080807F00000AA
:1050D0000000080408041FFC000400040000000095
:1050E00000000E0C10141024104411840E0C00004B
:1050F00000000C1810041104110412880C70000038
:10510000000000E00320042408241FFC0024000009
:1051100000001F9810841104110410881070000002
:10512000000007F0088811041104188800700000BE
:1051300000001C00100010FC13001C0010000000F8
:1051400000000E3811441084108411440E38000001
:1051500000000700088C10441044088807F0000085
:10516000000000000000030C030C00000000000021
:105170000000000000010106000000000000000027
:105180000000008001400220041008081004000004
:105190000220022002200220022002200220000021
:1051A00000001004080804100220014000800000E4
:1051B00000000E001200100C106C10800F00000098
:1051C00003E00C1813E4142417C4082807D00000C7
:1051D0000004003C03C41C40074000E4001C000421
:1051E00010041FFC1104110411040E88007000004B
:1051F00003E00C1810041004100410081C10000028
:1052000010041FFC100410041004080807F000002C
:1052100010041FFC1104110417C410040818000026
:1052200010041FFC1104110017C01000080000003A
:1052300003E00C181004100410441C780040000017
:1052400010041FFC10840080008010841FFC1004D8
:105250000000100410041FFC1004100400000000E3
:1052600000030001100110011FFE100010000000DB
:1052700010041FFC110403801464181C10040000A7
:1052800010041FFC1004000400040004000C0000C3
:1052900010041FFC1F0000FC1F001FFC1004000076
:1052A00010041FFC0C04030000E010181FFC100089
:1052B00007F00808100410041004080807F00000A4
:1052C00010041FFC10841080108010800F0000005C
:1052D00007F0081810241024101C080A07F2000018
:1052E00010041FFC1104110011C011300E0C000439
:1052F00000000E1C11041084108410441C3800009F
:105300001800100010041FFC10041000180000000A
:1053100010001FF810040004000410041FF810000F
:1053200010001E0011E0001C007013801C00100013
:105330001FC0103C00E01F0000E0103C1FC0000038
:105340001004180C163401C001C01634180C1004D7
:1053500010001C00130400FC13041C0010000000CB
:105360000804101C1064108413041C04101800009E
:105370000000000000007FFE4002400240020000EA
:10538000000030000C0003800060001C00030000DF
:1053900000004002400240027FFE000000000000CA
:1053A00000000000200040004000400020000000FD
:1053B00000010001000100010001000100010001E5
:1053C000000040004000200000000000000000003D
:1053D00000000098012401440144014400FC000441
:1053E00010001FFC00880104010400880070000008
:1053F000000000700088010401040104008800001E
:105400000000007000880104010411081FFC000462
:10541000000000F8014401440144014400C80000B8
:105420000000010401040FFC110411041100180014
:10543000000000D601290129012901C90106000047
:1054400010041FFC008401000100010400FC0004A2
:1054500000000104190419FC00040004000000000D
:105460000000000300010101190119FE0000000005
:1054700010041FFC0024004001B4010C01040000D2
:105480000000100410041FFC0004000400000000D1
:10549000010401FC0104010001FC0104010000FC05
:1054A000010401FC008401000100010400FC00046F
:1054B000000000F8010401040104010400F80000E8
:1054C000010101FF00850104010400880070000053
:1054D00000000070008801040104010501FF0001C3
:1054E0000104010401FC00840104010001800000AA
:1054F000000000CC012401240124012401980000B3
:1055000000000100010007F8010401040000000090
:10551000010001F8000400040004010801FC00047B
:10552000010001800170000C001001600180010089
:1055300001F0010C003001C00030010C01F001004D
:1055400000000104018C00740170018C0104000052
:10555000010101810171000E00180160018001004C
:1055600000000184010C013401440184010C00009D
:10557000000000000000000001003EFC400240026C
:105580000000000000000000FFFF0000000000001D
:105590000000400240023EFC01000000000000004C
:1055A00000006000800080004000400020002000DB
:1055B00000000000000000000000000000000000EB
:1055C00000000000000000000000000000000000DB
:1055D00000000000000000000000000000000000CB
:1055E0000000000F80380FFE380F803800000000E8
:1055F00000000000000000000000000000000100AA
:10560000000600000C000038000031000006000019
:105610000C00003800003000000000000000000016
:1056200061800067F807F980006180006180006197
:10563000800061800067F807F98000618000000049
:1056400000000000000001C0E003E0F006300804A4
:1056500018081FFFFE040E080787F00381E0000012
:105660000000000001F000060C00040408060C70A5
:1056700001F9C0000E00003BE000EC180708080428
:105680000C180003E00000000001E00007F003F840
:1056900018041C0804170807E1D003C0E00023B079
:1056A000003C08002008000010000000000000017D
:1056B00000003100003200001C000000000000006B
:1056C00000000000000000000000000000000000DA
:1056D00000000000000000000000000000000000CA
:1056E0007F0001FFC00780F00C00181000042000AC
:1056F000020000000000002000021000040C00184E
:105700000780F001FFC0007F0000000000000000E3
:1057100000000000000000000000000042000066E1
:1057200000006600003C0000180003FFC0001800E5
:10573000003C00006600006600004200000000001F
:10574000080000080000080000080000080001FF31
:10575000C000080000080000080000080000080061
:1057600000000000000100003100003200001C00B9
:105770000000000000000000000000000000000029
:105780000000000000000000080000080000080001
:1057900000080000080000080000080000080000E1
:1057A00008000008000000000000000000000000E9
:1057B0003800003800003800000000000000000041
:1057C00000000000000000000000000000000000D9
:1057D000000600001C000070000180000E00003870
:1057E0000000C0000700001C0000300000000000A6
:1057F000000000007F8001FFE003807006001804B5
:10580000000804000806001803807001FFE0007F14
:1058100080000000000000000000010008010008F6
:1058200001000803FFF807FFF80000080000080067
:10583000000800000000000000000001C03802C0A5
:1058400058040098040118040218040418061C18CF
:1058500003F81801E0F8000000000000000000015B
:10586000C0E003C0F0040008040808040808061893
:105870000803F41801E7F00001E000000000000058
:10588000000000000300000D000011000061000096
:10589000810803010807FFF80FFFF8000108000165
:1058A000080000000000000000E007FCD006080827
:1058B000061008061008061008061838060FF0062D
:1058C00007C0000000000000000000003F8001FF52
:1058D000E0038430020818041008041008041008BB
:1058E000071810030FF00007C000000000000000C0
:1058F000000003C0000700000600000600F80607CD
:10590000F806180006E0000700000600000000008E
:1059100000000001E1E003F7F00634100418080469
:105920001808040C08040C0806161803F3F001C14B
:10593000E000000000000000F80003FC300306381F
:105940000402080402080402080404100308F00119
:10595000FFC0007F00000000000000000000000009
:10596000000000000000000070380070380070383F
:105970000000000000000000000000000000000027
:10598000000000000000000000000000301A00309D
:105990001C000000000000000000000000000000EB
:1059A00000000000000000080000140000220000B9
:1059B0004100008080010040020020040010080027
:1059C000080000000000000021000021000021006C
:1059D0000021000021000021000021000021000022
:1059E000210000210000000000000000000008006D
:1059F00008040010020020010040008080004100E7
:105A00000022000014000008000000000000000355
:105A1000C00004C000040000080038080F3808085F
:105A2000380810000C300007E00003C00000000040
:105A3000000000003F8000FFE0038070020F1006AE
:105A4000708804C088048308047F8802C090030122
:105A50002000FE400000080000180001F8003E0889
:105A600001C20007020007E20000FE00001FC8009C
:105A700001F800003800000804000807FFF807FFDD
:105A8000F8040808040808040808040808061808A8
:105A900003F41801E7F00001E0000000000000003E
:105AA0003F8001FFE003807002001804000804003A
:105AB000080400080400100600200780C000000051
:105AC00004000807FFF807FFF804000804000804B2
:105AD000000804001802001003807001FFE0007F3E
:105AE0008000000004000807FFF807FFF80408081A
:105AF000040808040808040808043E08040008060E
:105B0000001801006000000004000807FFF807FF0C
:105B1000F8040808040800040800040800043E0013
:105B200006000006000001800000000000000000E8
:105B30003F8001FFE00380700600180400080402A3
:105B4000080402080203F00783F0000200000200CC
:105B500004000807FFF807FFF80408080008000021
:105B6000080000080000080004080807FFF807FF05
:105B7000F804000800000000000004000804000809
:105B800004000807FFF807FFF804000804000804F1
:105B900000080000000000000000000000060000F7
:105BA0000700000104000104000104000307FFFED8
:105BB00007FFFC04000004000004000004000807C4
:105BC000FFF807FFF8040C08001800003E0004C7A7
:105BD000800503C80600F804003804001800000817
:105BE00004000807FFF807FFF80400080000080099
:105BF000000800000800000800000800001800006D
:105C00006000000004000807FFF807800807FC0098
:105C1000007FC00003F80007C00078000780080775
:105C2000FFF807FFF804000804000807FFF8070062
:105C30000803C00000E000003800001E000007005C
:105C40000001C00400F007FFF8040000000000009D
:105C50007F8001FFE0038070060018040008040044
:105C60000806001803003001FFE0007F80000000FC
:105C700004000807FFF807FFF80404080404000400
:105C80000400040400040400060C0003F80001F002
:105C900000000000000000007F8001FFE003807032
:105CA0000600880400880400C806003C03003E018A
:105CB000FFE6007F8400000004000807FFF807FFEC
:105CC000F8040808040800040C00040F00040BC0CA
:105CD0000610F003F03801E00800000800000001A1
:105CE000E0F803F030063010041808041808040C1B
:105CF00008040C080206180207F00781E000000003
:105D000001800006000004000004000004000807F1
:105D1000FFF807FFF8040008040000040000060074
:105D20000001800004000007FFE007FFF0040018F6
:105D30000000080000080000080000080000080437
:105D4000001007FFE004000004000006000007E068
:105D50000007FE00041FE00001F80000380001E029
:105D6000043E0007C0000600000400000400000715
:105D7000E00007FFC0041FF80007C007F80007FF96
:105D800080043FF80007C004F8000700000400008A
:105D900000000004000806001807C07805F1C800DC
:105DA0003E00001F800463E80780F8060018040026
:105DB0000800000004000006000007800007E0085B
:105DC000047C08001FF80007F800180804E0080722
:105DD00000000600000400000000000100080600AA
:105DE000380400F80403E8040F08047C0805F008F0
:105DF00007C0080700180400600000000000000051
:105E000000000000000000000000003FFFFE200036
:105E100002200002200002200002200002000000F8
:105E200000000000000008000007000000C00000A3
:105E300038000006000001C000003000000E000025
:105E4000010000000000000000002000022000020D
:105E50002000022000022000023FFFFE00000000A0
:105E60000000000000000000000000000000000032
:105E7000000800001000003000002000003000008A
:105E800010000008000000000000000000000100F9
:105E900000010000010000010000010000010000FD
:105EA00001000001000001000001000001000001EC
:105EB0000000000000000000002000002000001092
:105EC00000001000000000000000000000000000C2
:105ED000000000000000000000F00019F8001B188E
:105EE000002208002608002408002410003FF800C3
:105EF0001FF800000800001800000004000007FF61
:105F0000F80FFFF000181800100800200800200803
:105F1000003018001FF0000FC0000000000000005B
:105F200007C0001FF00018300020080020080020E3
:105F300008003C08001C1000006000000000000089
:105F40000000000007C0001FF00038180020080003
:105F5000200800200804101007FFF80FFFF00000D1
:105F6000100000000000000000000007C0001FF04B
:105F70000012300022180022080022080032080017
:105F80001E10000E20000000000000002000002075
:105F90000800200801FFF803FFF806200804200885
:105FA000042008072000030000000000000000009B
:105FB000000E000E6E001FF30031B10020B1002072
:105FC000B1003191001F13002E1E00200E00300082
:105FD00000000004000807FFF80FFFF80010080099
:105FE0002000002000002008003FF8001FF80000FB
:105FF0000800000000000000000000200800200849
:10600000002008063FF8063FF800000800000800DE
:106010000008000000000000000000000000000078
:1060200003000003002001002001002003063FFEC2
:10603000063FFC000000000000000000000000041B
:10604000000807FFF80FFFF8000188000300002F89
:10605000C00038F8002038002008000008000000C8
:106060000000000000000400080400080400080705
:10607000FFF80FFFF800000800000800000800000B
:1060800000000000002008003FF8003FF800100862
:10609000002000003FF8003FF8001008002000003A
:1060A0003FF8003FF8000008000000002008003F13
:1060B000F8003FF800100800100000200000200841
:1060C000003FF8001FF8000008000000000000007A
:1060D00007C0000FF0001830003008002008002032
:1060E00008003008001830000FF00007C000000062
:1060F000000000002001003FFF003FFF00101100E2
:106100002009002008002008003038001FF0000F90
:10611000C00000000000000007C0001FF000381899
:10612000002008002008002009001011001FFF00B7
:106130003FFF0000010000000020080020080020B0
:1061400008003FF8003FF800080800100800200889
:1061500000200000300000300000000000000000BF
:106160000000000C78001E180033080023080021EE
:10617000080021880021980030F0003860000000FD
:1061800000000000200000200000200000FFF003BD
:10619000FFF8002008002008002008000030000060
:1061A00000000000000000002000003FF0007FF829
:1061B000000018000008000008002010003FF80050
:1061C0007FF0000010000000000000002000003000
:1061D00000003C00003F800023F0000078000070C9
:1061E000002380003C000030000020000020000060
:1061F0003C00003FE00023F80000E0002700003EE4
:1062000000003FE00021F80001E0003E0000200017
:10621000000000002008002008003838003E680018
:1062200027800003C8002CF8003838002018002010
:1062300008000000000000002000003003003C01C6
:10624000003F830023EC000070002380003C00002E
:1062500020000020000000000000000000000038C6
:10626000080020380020F80023E8002F88003E08AE
:106270000038080020180000700000000000000036
:1062800000000000000000000000000008000014F2
:10629000001FF7FC30000620000200000000000094
:1062A00000000000000000000000000000000000EE
:1062B0000000FFFFFF0000000000000000000000E1
:1062C0000000000000000000000020000230000676
:1062D0001FF7FC0014000008000000000000000090
:1062E0000000000000000000000000180000600036
:1062F00000400000400000200000100000080000E6
:106300000400000400000C00001000000000000069
:10631000000000000000000000000000000000007D
:10632000000000000000000000000000000000006D
:10633000000000000000000000000000000000005D
:10634000000000000000000000000000000000004D
:10635000000000000000000000000000000000003D
:106360000000000007F000C007FFE1E007F001E0D7
:10637000000000C00000000000000000000000005D
:10638000000000000000000000000000000000000D
:10639000000000000020000001C000000780000095
:1063A0001F0000001E0000001C20000001C00000B3
:1063B000078000001F0000001E0000001C000000FD
:1063C00000000000000000000000000000000000CD
:1063D00000180C0000180C0000180FE0001FFC0053
:1063E00003F80C0000180C0000180C0000180C003A
:1063F00000180C0000180FE0001FFC0003F80C0050
:1064000000180C0000180C00000000000000000044
:106410000000000000000780007807C000FC064074
:10642000010E002003070020020380200FFFFFFC65
:106430000201C0200200E0600130704001F03F80A6
:1064400000F01F00000000000000000000FE00003F
:1064500001FF00000301800002008060030181C091
:1064600001FF070000FE18000000E0000003BF006D
:10647000000CFFC00071806001C10020030180603A
:106480000000FFC000003F000000000000001F00EF
:1064900000007FC000FCC0C001FF80600303E0205B
:1064A0000202782002061E2003FC074001F0038050
:1064B000000103C000011C600001E0200001002079
:1064C000000100400000018000000000000000000A
:1064D000002000001C6000001C4000001F80000025
:1064E0000F0000000000000000000000000000009D
:1064F000000000000000000000000000000000009C
:10650000000000000000000000000000000000008B
:10651000000000000000000000000000000000007B
:1065200000000000000000000007F800003FFF002E
:10653000007807C001C000E003000030040000083C
:10654000080000041000000200000000000000002D
:1065500010000002080000040400000803000030DE
:1065600001C000E0007807C0003FFF000007F8000E
:10657000000000000000000000000000000000001B
:10658000000000000000000000000000000000000B
:1065900000000000000C1800000E3800000E38004B
:1065A00000063000000360000061438000FFFF80B0
:1065B000006143000003600000063000000E380058
:1065C000000E3800000C1800000000000000000061
:1065D000000000000000800000008000000080003B
:1065E000000080000000800000008000007FFF00AD
:1065F000000080000000800000008000000080009B
:10660000000080000000800000000000000000008A
:1066100000000001000000E3000000E2000000FCB8
:1066200000000078000000000000000000000000F2
:10663000000000000000000000000000000000005A
:10664000000000000000000000000000000000004A
:10665000000080000000800000008000000080003A
:10666000000080000000800000008000000080002A
:10667000000080000000800000008000000080001A
:10668000000080000000800000000000000000000A
:1066900000000000000000C0000001E0000001E078
:1066A000000000C00000000000000000000000002A
:1066B00000000000000000000000000000000000DA
:1066C00000000000000000000000000000000000CA
:1066D0000000000C00000038000000E00000038013
:1066E00000000E00000038000000E0000003800001
:1066F000000E00000038000000E0000003800000F1
:106700000E00000018000000000000000000000063
:1067100000000000000FF800007FFF0000F007807D
:10672000018000C003000060020000200200002081
:106730000200002003000060018000C000E0038030
:10674000007FFF00000FF8000000000000000000C4
:1067500000000000000000000080002000800020F9
:10676000008000200080006001FFFFE003FFFFE0E9
:106770000000006000000020000000200000002059
:106780000000000000000000000000000000000009
:1067900000000000007800E0009801600100026045
:1067A0000200046002000860020010600200206025
:1067B00002004060030080600183006001FE00E091
:1067C000007C0780000000000000000000000000C6
:1067D0000000000000F0078001F007C00100004049
:1067E000020000200201002002010020020100201E
:1067F000030380200186804001FCC0C000787F80B8
:1068000000001E000000000000000000000000006A
:106810000000080000003800000048000001880067
:1068200000060800000C0810003008100040081096
:1068300001FFFFF003FFFFF003FFFFF0000008106F
:106840000000081000000810000000000000000018
:106850000000000000000780001F864003E10020C8
:10686000030200200304002003040020030400208E
:106870000304002003060040030301C00301FF805E
:1068800003007E0000000000000000000000000087
:10689000000000000007FC00003FFF000070C38004
:1068A000008180C00101006003020020020200207C
:1068B00002020020020200200203004001C180C049
:1068C00000C0FF8000007E0000000000000000000B
:1068D0000000000000F0000003C000000380000082
:1068E00003000000030007E003003FE00301C000D5
:1068F000030600000318000003600000038000008E
:106900000300000000000000000000000000000084
:1069100000001F0000783F8000FC60C0018EC04076
:106920000307802002030020020180200201802052
:106930000201C0200301E040018670C000FC3F80DE
:1069400000781F00000000000000000000000000B0
:10695000003F000000FF81C001C0C1C001006020F5
:1069600002002020020020200200202002002060DF
:10697000020040C00100C18000C18F00007FFE0006
:10698000001FF000000000000000000000000000F8
:1069900000000000000000000000000000000000F7
:1069A00000000000000300C0000781E0000781E054
:1069B000000300C000000000000000000000000014
:1069C00000000000000000000000000000000000C7
:1069D00000000000000000000000000000000000B7
:1069E00000000000000600660006007800000000BD
:1069F0000000000000000000000000000000000097
:106A00000000000000000000000000000000000086
:106A100000000000000080000001C00000036000D2
:106A200000063000000C180000180C0000300600B2
:106A30000060030000C0018001000040020000204F
:106A40000400001000000000000000000000000032
:106A500000041000000410000004100000041000E6
:106A600000041000000410000004100000041000D6
:106A700000041000000410000004100000041000C6
:106A800000041000000410000000000000000000DE
:106A9000000000000400001002000020010000407F
:106AA00000C00180006003000030060000180C00E8
:106AB000000C180000063000000360000001C00058
:106AC0000000800000000000000000000000000046
:106AD000000000000078000001F80000023800000B
:106AE00002000000040000C0040079E0040081E01E
:106AF000040100C0040300000202000003060000BD
:106B000001FC000000F80000000000000000000090
:106B1000000FF800003FFE000070078000C000C0BA
:106B20000101F8400307FC20021E04200230082067
:106B300002203020023FFC20013F044001800CC0B5
:106B400000E03180001FC2000000000000000020B3
:106B500000000060000003E000003E200003E02091
:106B6000003E200003E020000380200007FC2000FE
:106B7000003FE0000003FE2000003FE0000001E0D5
:106B800000000020000000200000000000000000C5
:106B9000020000200200002003FFFFE003FFFFE0EF
:106BA0000201002002010020020100200201002059
:106BB00002010020030300200186806001FCC0C0A8
:106BC00000F87F8000001F000000000000000000AF
:106BD0000007F800003FFF000070078000C000C001
:106BE00001000040030000200200002002000020FD
:106BF000020000200200002001000040018000C0CF
:106C000003C001800030060000000000000000000A
:106C1000020000200200002003FFFFE003FFFFE06E
:106C200002000020020000200200002002000020DC
:106C30000300006001000040018000C000F00780F8
:106C4000007FFE00000FF8000000000000000000C0
:106C5000020000200200002003FFFFE003FFFFE02E
:106C60000201002002010020020100200201002098
:106C70000201002002038020020FE02003000060D8
:106C800003C000E0006003000000000000000000FE
:106C9000020000200200002003FFFFE003FFFFE0EE
:106CA0000201002002010020020100000201000098
:106CB000020100000201000002038000030FE00057
:106CC0000300000003C0000000600000000000009E
:106CD0000007F800003FFE000070078001C001C0FF
:106CE00001000040030000200200002002000020FC
:106CF00002000020010020200100204003C03F804E
:106D000000303F8000002000000020000200002032
:106D10000200002003FFFFE003FFFFE002008020ED
:106D20000200802000008000000080000000800041
:106D3000020080200200802003FFFFE003FFFFE04D
:106D400002000020020000200000000000000000FF
:106D500000000000000000000200002002000020EF
:106D6000020000200200002003FFFFE003FFFFE01D
:106D7000020000200200002002000020020000208B
:106D80000000000000000000000000000000000003
:106D90000000000E0000000F0000000F00000001C6
:106DA00002000001020000010200000302000006D0
:106DB00003FFFFFC03FFFFF80200000002000000D9
:106DC00002000000020000000000000000000000BF
:106DD000020000200200002003FFFFE003FFFFE0AD
:106DE0000200C0200201002000078000000FE00028
:106DF0000030F80002603E2003800F20030003E013
:106E0000020000E00200002000000020000000005E
:106E1000020000200200002003FFFFE003FFFFE06C
:106E200002000020020000200000002000000020DE
:106E30000000002000000020000000200000006092
:106E4000000000E00000030000000000020000203D
:106E50000200002003FFFFE003E0002003FF00200A
:106E6000001FF0000001FF8000000FE000001E0086
:106E70000003E000003E002003E0002003FFFFE0ED
:106E800003FFFFE0020000200200002002000020BB
:106E90000200002003FFFFE00380002003F0002039
:106EA00000FC0000001F00000007C0000001F0000F
:106EB00000007C0002001F80020007E003FFFFE0EB
:106EC00002000000020000000000000000000000BE
:106ED000000FF800003FFE0000F00780018000C0B6
:106EE00001000040020000200200002002000020FB
:106EF0000200002001000040018000C000F003807B
:106F0000003FFE00000FF80000000000000000003D
:106F1000020000200200002003FFFFE003FFFFE06B
:106F20000200802002008020020080000200800019
:106F30000200800002008000030180000183000045
:106F400000FE0000007C00000000000000000000C7
:106F5000000FF800007FFF0000F00380018001C0F7
:106F60000100064002000420020004200200062066
:106F7000020003E0010000F80180005C00E0038CE7
:106F8000003FFF0C000FFC18000000000000000094
:106F9000020000200200002003FFFFE003FFFFE0EB
:106FA0000201002002010020020180000201E00035
:106FB0000201FC0003033F80018607E001FC00E0C2
:106FC00000F8002000000020000000000000000089
:106FD000000000000078060000FE01E0018600C00D
:106FE00003030040020300200201802002018020F0
:106FF0000201C0200200C0200100E060018070C0DA
:1070000003E03F8000001F000000000000000000BF
:107010000060000003800000030000000200000088
:10702000020000200200002003FFFFE003FFFFE05A
:107030000200002002000020020000000200000008
:107040000380000000E000000000000002000000DB
:107050000200000003FFFF0003FFFFC0020000402A
:10706000020000600000002000000020000000205E
:1070700000000020020000400200008003FFFF002B
:1070800002000000020000000000000000000000FC
:10709000020000000200000003C0000003FC00002A
:1070A000023FC0000003F80000007F80000007E0FE
:1070B00000000780000078000203C000023C0000CE
:1070C00003C00000020000000200000002000000F7
:1070D00003C0000003FF8000023FFE0002007FE0CB
:1070E00000000F000200F00003EF000003FF80002B
:1070F000020FFE0000003FE000001F000207E0005A
:1071000003F800000300000002000000000000007F
:107110000200002002000020038000E003F00320B2
:1071200002FC0C20021F30000007C0000007F00026
:1071300002187C0002601F20038003E0020000E0D0
:1071400002000020000000200000000000000000FD
:10715000020000000300000003C0000003F800006C
:10716000023E0020020FC0200001FFE000007FE08F
:1071700000038020021C0020027000000380000039
:1071800002000000020000000000000000000000FB
:1071900000000020006000E0038003E003000FA077
:1071A00002003E200200F8200203E020020F8020AF
:1071B000023E00200278002003E00060038000E02F
:1071C00002000300000000000000000000000000BA
:1071D00000000000000000000000000000000000AF
:1071E000000000001FFFFFFC10000004100000045E
:1071F000100000041000000410000004100000043F
:10720000100000040000000000000000000000006A
:1072100000000000000000000700000003C00000A4
:1072200000780000001E00000003C0000000F00015
:1072300000001E0000000780000000F00000003C7D
:107240000000000600000000000000000000000038
:1072500000000000100000041000000410000004F2
:1072600010000004100000041000000410000004CE
:107270001FFFFFFC000000000000000000000000F5
:1072800000000000000000000000000000000000FE
:1072900000000000000000000000000002000000EC
:1072A00004000000080000001800000010000000AA
:1072B0001800000018000000040000000200000098
:1072C00000000000000000000000000000000001BD
:1072D00000000001000000010000000100000001AA
:1072E000000000010000000100000001000000019A
:1072F000000000010000000100000001000000018A
:10730000000000010000000100000001000000007A
:10731000000000000000000010000000100000004D
:107320001000000018000000080000000400000029
:10733000000000000000000000000000000000004D
:10734000000000000000000000000000000000003D
:107350000000038000018FC000038C60000618202D
:10736000000410200004102000042020000420400D
:10737000000620400003FFC00001FFE000000020E5
:1073800000000020000000C000000000000000001D
:10739000020000000200000003FFFFE007FFFFC043
:1073A000000180C0000200600002002000040020F4
:1073B000000400200004002000060040000300C07C
:1073C0000001FF800000FE0000000000000000003F
:1073D0000000000000007E000001FF80000381C06B
:1073E00000020040000600200004002000040020ED
:1073F00000040020000600200003C0400001C080FF
:107400000000030000000000000000000000000079
:107410000000000000007E000001FF80000380C02B
:10742000000600600004002000040020000400208A
:10743000020400400202008003FFFFE007FFFFC0DC
:1074400000000040000000400000000000000000BC
:107450000000000000007E000001FF80000311C05A
:1074600000021040000410600004102000041020EE
:107470000004102000061020000310400001F0C09E
:10748000000071000000000000000000000000008B
:1074900000000000000400000004002000040020A0
:1074A00000040020007FFFE001FFFFE00104002056
:1074B0000304002002040020020400200204000053
:1074C0000200000001C0000001C000000000000038
:1074D000000000000000001C0000E33E0003FFC2AB
:1074E00000020CC3000404C1000404C1000404C170
:1074F000000404C100060CC10003F8C30005F062DB
:107500000006007E0006003C0000000000000000B5
:10751000020000200200002003FFFFE007FFFFE061
:10752000000100200002002000060000000400000E
:107530000004000000040020000600200003FFE01B
:107540000001FFE00000002000000020000000001B
:1075500000000000000000000004002000040020E3
:1075600000040020000400200387FFE0038FFFE0F9
:107570000380002000000020000000200000002008
:1075800000000000000000000000000000000000FB
:1075900000000000000000000000000600000007DE
:1075A00000000001000000010004000100040001CF
:1075B00000040003000400060387FFFC038FFFF8AC
:1075C0000380000000000000000000000000000038
:1075D000020000200200002003FFFFE007FFFFE0A1
:1075E0000000082000001020000030000000FC0017
:1075F00000058E00000707A0000601E0000400E07F
:107600000004002000000020000000000000000036
:107610000000000000000000020000200200002026
:10762000020000200200002003FFFFE007FFFFE050
:1076300000000020000000200000002000000020CA
:10764000000000000000000000000000000000003A
:10765000000400200007FFE0000FFFE00002002010
:1076600000040000000400200007FFE00003FFE02A
:107670000002002000040000000400200007FFE0DA
:107680000003FFE0000000200000000000000000F8
:1076900000040020000400200007FFE0000FFFE0CE
:1076A0000001002000020020000200000004000091
:1076B0000004000000040020000600200003FFE09A
:1076C0000001FFE00000002000000020000000009A
:1076D0000000000000007E000000FF80000381C069
:1076E00000020040000600200004002000040020EA
:1076F000000400200006002000020040000381C0BA
:107700000001FF8000007E0000000000000000007B
:1077100000040001000400010007FFFF000FFFFF4D
:10772000000100C10002004100040020000400200C
:10773000000400200004002000060040000301C0F7
:107740000001FF8000007E0000000000000000003B
:107750000000000000007E000001FF80000380C0E8
:10776000000200600004002000040020000400204B
:107770000004002000020041000300C10003FFFFDD
:107780000007FFFF000000010000000100000000F2
:107790000004002000040020000400200004002059
:1077A000000FFFE0000FFFE00000C02000010020FC
:1077B0000002002000060020000400000004000079
:1077C00000070000000300000000000000000000AF
:1077D00000000000000003E00001C0E00003E04002
:1077E0000006302000043020000418200004182077
:1077F0000004182000040C2000020C60000307C0E5
:10780000000783800000000000000000000000006E
:10781000000000000004000000040000000400005C
:10782000000C0000001FFF8000FFFFC0000400608C
:107830000004002000040020000400200004004098
:1078400000000180000000000000000000000000B7
:1078500000040000000400000007FF80000FFFC0CC
:107860000000006000000020000000200000002058
:107870000000002000040040000400800007FFE03A
:10788000000FFFC0000000400000004000000000AA
:107890000004000000040000000780000007F00062
:1078A0000004FE0000041FC0000003E0000003808D
:1078B00000001C00000460000007800000060000BB
:1078C00000040000000000000000000000040000B0
:1078D000000600000007C0000007FC0000043F8015
:1078E000000003E000040F800006F0000007F00035
:1078F0000007FF8000040FE00000038000043C004C
:107900000007C000000600000004000000000000A6
:10791000000000200004002000040060000700E0D8
:10792000000783200007E6000004F80000003C0088
:1079300000045E20000587A0000601E0000400604E
:1079400000040020000000200000000000000000F3
:107950000004000000040003000700030007E0012A
:107960000004F80100041F02000007FC000000E012
:1079700000000700000438000007C00000060000F7
:1079800000040000000400000000000000000000EF
:107990000000000000078060000600E0000403E033
:1079A000000407A000040E2000043C200004702006
:1079B0000005E0200007802000070060000400E0D0
:1079C0000000038000000000000000000000000034
:1079D00000000000000000000000000000000000A7
:1079E0000000000000000000000080000000800097
:1079F0000001400007FE3FF80800000410000002EC
:107A00001000000200000000000000000000000064
:107A10000000000000000000000000000000000066
:107A2000000000000000000000000000FFFFFFFF5A
:107A30000000000000000000000000000000000046
:107A40000000000000000000000000000000000036
:107A500000000000100000021000000208000004F6
:107A600007FE3FF800014000000080000000800099
:107A70000000000000000000000000000000000006
:107A800000000000000000000000000000000000F6
:107A9000180000003000000040000000400000001E
:107AA000400000002000000030000000080000003E
:107AB00004000000020000000200000002000000BC
:107AC0000C000000180000000000000030313233CC
:107AD0003435363738394142434445464030580002
:107AE0003031323334353637383961626364656634
:107AF00040307800147B0008000000201C000000CB
:107B00006C050008307B00081C000020E4BF00006A
:107B100088050008000000000000000000000000D0
:107B2000000000000000000001000000FFFF000056
:0400000508000531B9
:00000001FF
