Component: ARM Compiler 5.06 update 6 (build 750) Tool: armlink [4d35ed]

==============================================================================

Section Cross References

    main.o(i.AllDrvInit) refers to delay.o(i.delay_init) for delay_init
    main.o(i.AllDrvInit) refers to timer_drv.o(i.TimerDrvInit) for TimerDrvInit
    main.o(i.main) refers to main.o(i.AllDrvInit) for AllDrvInit
    main.o(i.main) refers to timer_drv.o(i.PwmDrvTest) for PwmDrvTest
    timer_drv.o(i.PwmDrvTest) refers to dfltui.o(.text) for __aeabi_ui2d
    timer_drv.o(i.PwmDrvTest) refers to dmul.o(.text) for __aeabi_dmul
    timer_drv.o(i.PwmDrvTest) refers to ddiv.o(.text) for __aeabi_ddiv
    timer_drv.o(i.PwmDrvTest) refers to sin.o(i.__hardfp_sin) for __hardfp_sin
    timer_drv.o(i.PwmDrvTest) refers to dfixui.o(.text) for __aeabi_d2uiz
    timer_drv.o(i.PwmDrvTest) refers to gd32f30x_timer.o(i.timer_channel_output_pulse_value_config) for timer_channel_output_pulse_value_config
    timer_drv.o(i.PwmDrvTest) refers to delay.o(i.delay_ms) for delay_ms
    timer_drv.o(i.TimeInit) refers to gd32f30x_rcu.o(i.rcu_periph_clock_enable) for rcu_periph_clock_enable
    timer_drv.o(i.TimeInit) refers to gd32f30x_timer.o(i.timer_deinit) for timer_deinit
    timer_drv.o(i.TimeInit) refers to gd32f30x_timer.o(i.timer_struct_para_init) for timer_struct_para_init
    timer_drv.o(i.TimeInit) refers to gd32f30x_timer.o(i.timer_init) for timer_init
    timer_drv.o(i.TimeInit) refers to gd32f30x_timer.o(i.timer_channel_output_struct_para_init) for timer_channel_output_struct_para_init
    timer_drv.o(i.TimeInit) refers to gd32f30x_timer.o(i.timer_channel_output_config) for timer_channel_output_config
    timer_drv.o(i.TimeInit) refers to gd32f30x_timer.o(i.timer_channel_output_pulse_value_config) for timer_channel_output_pulse_value_config
==============================================================================

Removing Unused input sections from the image.

    Removing timer_drv.o(.rev16_text), (4 bytes).
    Removing timer_drv.o(.revsh_text), (4 bytes).
    Removing delay.o(.rev16_text), (4 bytes).
    Removing delay.o(.revsh_text), (4 bytes).
    Removing startup_gd32f30x_hd.o(HEAP), (1024 bytes).
    Removing system_gd32f30x.o(.rev16_text), (4 bytes).
    Removing system_gd32f30x.o(.revsh_text), (4 bytes).
    Removing system_gd32f30x.o(i.SystemCoreClockUpdate), (316 bytes).
    Removing system_gd32f30x.o(.data), (4 bytes).
    Removing gd32f30x_timer.o(.rev16_text), (4 bytes).
    Removing gd32f30x_timer.o(.revsh_text), (4 bytes).
    Removing gd32f30x_timer.o(i.timer_auto_reload_shadow_disable), (10 bytes).
    Removing gd32f30x_timer.o(i.timer_auto_reload_shadow_enable), (10 bytes).
    Removing gd32f30x_timer.o(i.timer_automatic_output_disable), (10 bytes).
    Removing gd32f30x_timer.o(i.timer_automatic_output_enable), (10 bytes).
    Removing gd32f30x_timer.o(i.timer_autoreload_value_config), (4 bytes).
    Removing gd32f30x_timer.o(i.timer_break_config), (30 bytes).
    Removing gd32f30x_timer.o(i.timer_break_disable), (10 bytes).
==============================================================================

Image Symbol Table

    Local Symbols

    Symbol Name                              Value     Ov Type        Size  Object(Section)

    ../clib/microlib/errno.c                 0x00000000   Number         0  errno.o ABSOLUTE
    ../clib/microlib/init/entry.s            0x00000000   Number         0  entry9a.o ABSOLUTE
    ../clib/microlib/init/entry.s            0x00000000   Number         0  entry9b.o ABSOLUTE
    ../clib/microlib/init/entry.s            0x00000000   Number         0  entry7b.o ABSOLUTE
    ../clib/microlib/init/entry.s            0x00000000   Number         0  entry8b.o ABSOLUTE
    ../clib/microlib/init/entry.s            0x00000000   Number         0  entry8a.o ABSOLUTE
    ../clib/microlib/init/entry.s            0x00000000   Number         0  entry5.o ABSOLUTE
    ../clib/microlib/init/entry.s            0x00000000   Number         0  entry2.o ABSOLUTE
    ../clib/microlib/init/entry.s            0x00000000   Number         0  entry.o ABSOLUTE
    ../clib/microlib/init/entry.s            0x00000000   Number         0  entry10b.o ABSOLUTE
    ../clib/microlib/init/entry.s            0x00000000   Number         0  entry11a.o ABSOLUTE
    ../clib/microlib/init/entry.s            0x00000000   Number         0  entry11b.o ABSOLUTE
    ../clib/microlib/init/entry.s            0x00000000   Number         0  entry10a.o ABSOLUTE
    ../clib/microlib/init/entry.s            0x00000000   Number         0  entry7a.o ABSOLUTE
    ../clib/microlib/longlong.c              0x00000000   Number         0  llushr.o ABSOLUTE
    ../clib/microlib/longlong.c              0x00000000   Number         0  llshl.o ABSOLUTE
    ../clib/microlib/longlong.c              0x00000000   Number         0  llsshr.o ABSOLUTE
    ../clib/microlib/stubs.s                 0x00000000   Number         0  iusefp.o ABSOLUTE
    ../fplib/microlib/fpadd.c                0x00000000   Number         0  dadd.o ABSOLUTE
    ../fplib/microlib/fpdiv.c                0x00000000   Number         0  ddiv.o ABSOLUTE
    ../fplib/microlib/fpepilogue.c           0x00000000   Number         0  depilogue.o ABSOLUTE
    ../fplib/microlib/fpfix.c                0x00000000   Number         0  dfixui.o ABSOLUTE
    ../fplib/microlib/fpfix.c                0x00000000   Number         0  dfixi.o ABSOLUTE
    ../fplib/microlib/fpflt.c                0x00000000   Number         0  dflti.o ABSOLUTE
    ../fplib/microlib/fpflt.c                0x00000000   Number         0  dfltui.o ABSOLUTE
    ../fplib/microlib/fpmul.c                0x00000000   Number         0  dmul.o ABSOLUTE
    ../fplib/microlib/fpneg.c                0x00000000   Number         0  dneg.o ABSOLUTE
    ../mathlib/cos_i.c                       0x00000000   Number         0  cos_i.o ABSOLUTE
    ../mathlib/dunder.c                      0x00000000   Number         0  dunder.o ABSOLUTE
    ../mathlib/fabs.c                        0x00000000   Number         0  fabs.o ABSOLUTE
    ../mathlib/fpclassify.c                  0x00000000   Number         0  fpclassify.o ABSOLUTE
    ../mathlib/poly.c                        0x00000000   Number         0  poly.o ABSOLUTE
    ../mathlib/rred.c                        0x00000000   Number         0  rred.o ABSOLUTE
    ../mathlib/sin.c                         0x00000000   Number         0  sin_x.o ABSOLUTE
    ../mathlib/sin.c                         0x00000000   Number         0  sin.o ABSOLUTE
    ../mathlib/sin_i.c                       0x00000000   Number         0  sin_i.o ABSOLUTE
    ../mathlib/sin_i.c                       0x00000000   Number         0  sin_i_x.o ABSOLUTE
    App\main.c                               0x00000000   Number         0  main.o ABSOLUTE
    Arm\\system_gd32f30x.c                   0x00000000   Number         0  system_gd32f30x.o ABSOLUTE
    Arm\startup_gd32f30x_hd.s                0x00000000   Number         0  startup_gd32f30x_hd.o ABSOLUTE
    Arm\system_gd32f30x.c                    0x00000000   Number         0  system_gd32f30x.o ABSOLUTE
    Driver\\delay.c                          0x00000000   Number         0  delay.o ABSOLUTE
    Driver\\timer_drv.c                      0x00000000   Number         0  timer_drv.o ABSOLUTE
    Driver\delay.c                           0x00000000   Number         0  delay.o ABSOLUTE
    Driver\timer_drv.c                       0x00000000   Number         0  timer_drv.o ABSOLUTE
    GD32_Lib\Source\gd32f30x_gpio.c          0x00000000   Number         0  gd32f30x_gpio.o ABSOLUTE
    GD32_Lib\Source\gd32f30x_rcu.c           0x00000000   Number         0  gd32f30x_rcu.o ABSOLUTE
    GD32_Lib\Source\gd32f30x_timer.c         0x00000000   Number         0  gd32f30x_timer.o ABSOLUTE
    GD32_Lib\Source\gd32f30x_usart.c         0x00000000   Number         0  gd32f30x_usart.o ABSOLUTE
    GD32_Lib\\Source\\gd32f30x_gpio.c        0x00000000   Number         0  gd32f30x_gpio.o ABSOLUTE
    GD32_Lib\\Source\\gd32f30x_rcu.c         0x00000000   Number         0  gd32f30x_rcu.o ABSOLUTE
    GD32_Lib\\Source\\gd32f30x_timer.c       0x00000000   Number         0  gd32f30x_timer.o ABSOLUTE
    GD32_Lib\\Source\\gd32f30x_usart.c       0x00000000   Number         0  gd32f30x_usart.o ABSOLUTE
    dc.s                                     0x00000000   Number         0  dc.o ABSOLUTE
    handlers.s                               0x00000000   Number         0  handlers.o ABSOLUTE
    init.s                                   0x00000000   Number         0  init.o ABSOLUTE
    RESET                                    0x08000000   Section      304  startup_gd32f30x_hd.o(RESET)
    .ARM.Collect$$$$00000000                 0x08000130   Section        0  entry.o(.ARM.Collect$$$$00000000)
    .ARM.Collect$$$$00000001                 0x08000130   Section        4  entry2.o(.ARM.Collect$$$$00000001)
    .ARM.Collect$$$$00000004                 0x08000134   Section        4  entry5.o(.ARM.Collect$$$$00000004)
    .ARM.Collect$$$$00000008                 0x08000138   Section        0  entry7b.o(.ARM.Collect$$$$00000008)
    .ARM.Collect$$$$0000000A                 0x08000138   Section        0  entry8b.o(.ARM.Collect$$$$0000000A)
    .ARM.Collect$$$$0000000B                 0x08000138   Section        8  entry9a.o(.ARM.Collect$$$$0000000B)
    .ARM.Collect$$$$0000000D                 0x08000140   Section        0  entry10a.o(.ARM.Collect$$$$0000000D)
    .ARM.Collect$$$$0000000F                 0x08000140   Section        0  entry11a.o(.ARM.Collect$$$$0000000F)
    .ARM.Collect$$$$00002712                 0x08000140   Section        4  entry2.o(.ARM.Collect$$$$00002712)
    __lit__00000000                          0x08000140   Data           4  entry2.o(.ARM.Collect$$$$00002712)
    .text                                    0x08000144   Section       36  startup_gd32f30x_hd.o(.text)
    $v0                                      0x08000144   Number         0  startup_gd32f30x_hd.o(.text)
    .text                                    0x08000168   Section        0  dmul.o(.text)
    .text                                    0x0800024c   Section        0  ddiv.o(.text)
    .text                                    0x0800032a   Section        0  dfltui.o(.text)
    .text                                    0x08000344   Section        0  dfixui.o(.text)
    .text                                    0x08000376   Section        0  llushr.o(.text)
    .text                                    0x08000396   Section        0  depilogue.o(.text)
    .text                                    0x08000396   Section        0  iusefp.o(.text)
    .text                                    0x08000450   Section       36  init.o(.text)
    .text                                    0x08000474   Section        0  llshl.o(.text)
    .text                                    0x08000492   Section        0  dadd.o(.text)
    .text                                    0x080005e0   Section        0  dflti.o(.text)
    .text                                    0x08000602   Section        0  dfixi.o(.text)
    .text                                    0x08000640   Section        0  llsshr.o(.text)
    i.AllDrvInit                             0x08000664   Section        0  main.o(i.AllDrvInit)
    AllDrvInit                               0x08000665   Thumb Code    14  main.o(i.AllDrvInit)
    i.PwmDrvTest                             0x08000674   Section        0  timer_drv.o(i.PwmDrvTest)
    i.SystemInit                             0x0800070c   Section        0  system_gd32f30x.o(i.SystemInit)
    i.TimeInit                               0x080007b4   Section        0  timer_drv.o(i.TimeInit)
    TimeInit                                 0x080007b5   Thumb Code   110  timer_drv.o(i.TimeInit)
    i.TimerDrvInit                           0x08000828   Section        0  timer_drv.o(i.TimerDrvInit)
    i.TimerGpioInit                          0x0800083c   Section        0  timer_drv.o(i.TimerGpioInit)
    TimerGpioInit                            0x0800083d   Thumb Code    26  timer_drv.o(i.TimerGpioInit)
    i.__ARM_fpclassify                       0x0800085c   Section        0  fpclassify.o(i.__ARM_fpclassify)
    i.__hardfp_sin                           0x08000890   Section        0  sin.o(i.__hardfp_sin)
    i.__ieee754_rem_pio2                     0x08000958   Section        0  rred.o(i.__ieee754_rem_pio2)
    i.__kernel_cos                           0x08000d90   Section        0  cos_i.o(i.__kernel_cos)
    i.__kernel_poly                          0x08000f00   Section        0  poly.o(i.__kernel_poly)
    i.__kernel_sin                           0x08000ff8   Section        0  sin_i.o(i.__kernel_sin)
    i.__mathlib_dbl_infnan                   0x08001128   Section        0  dunder.o(i.__mathlib_dbl_infnan)
    i.__mathlib_dbl_invalid                  0x08001140   Section        0  dunder.o(i.__mathlib_dbl_invalid)
    i.__mathlib_dbl_underflow                0x08001160   Section        0  dunder.o(i.__mathlib_dbl_underflow)
    i.__scatterload_copy                     0x08001180   Section       14  handlers.o(i.__scatterload_copy)
    i.__scatterload_null                     0x0800118e   Section        2  handlers.o(i.__scatterload_null)
    i.__scatterload_zeroinit                 0x08001190   Section       14  handlers.o(i.__scatterload_zeroinit)
    i.__set_errno                            0x080011a0   Section        0  errno.o(i.__set_errno)
    i.delay_init                             0x080011ac   Section        0  delay.o(i.delay_init)
    i.delay_ms                               0x08001204   Section        0  delay.o(i.delay_ms)
    i.delay_us                               0x0800123c   Section        0  delay.o(i.delay_us)
    i.fabs                                   0x08001288   Section        0  fabs.o(i.fabs)
    i.gpio_init                              0x080012a0   Section        0  gd32f30x_gpio.o(i.gpio_init)
    i.main                                   0x0800135c   Section        0  main.o(i.main)
    i.rcu_periph_clock_enable                0x08001368   Section        0  gd32f30x_rcu.o(i.rcu_periph_clock_enable)
    i.rcu_periph_reset_disable               0x08001388   Section        0  gd32f30x_rcu.o(i.rcu_periph_reset_disable)
    i.rcu_periph_reset_enable                0x080013a8   Section        0  gd32f30x_rcu.o(i.rcu_periph_reset_enable)
    i.system_clock_120m_hxtal                0x080013c8   Section        0  system_gd32f30x.o(i.system_clock_120m_hxtal)
    system_clock_120m_hxtal                  0x080013c9   Thumb Code   258  system_gd32f30x.o(i.system_clock_120m_hxtal)
    i.system_clock_config                    0x080014dc   Section        0  system_gd32f30x.o(i.system_clock_config)
    system_clock_config                      0x080014dd   Thumb Code     8  system_gd32f30x.o(i.system_clock_config)
    i.timer_channel_output_config            0x080014e4   Section        0  gd32f30x_timer.o(i.timer_channel_output_config)
    i.timer_channel_output_mode_config       0x080016d0   Section        0  gd32f30x_timer.o(i.timer_channel_output_mode_config)
    i.timer_channel_output_pulse_value_config 0x0800172a   Section        0  gd32f30x_timer.o(i.timer_channel_output_pulse_value_config)
    i.timer_channel_output_struct_para_init  0x08001750   Section        0  gd32f30x_timer.o(i.timer_channel_output_struct_para_init)
    i.timer_deinit                           0x08001760   Section        0  gd32f30x_timer.o(i.timer_deinit)
    i.timer_enable                           0x0800183c   Section        0  gd32f30x_timer.o(i.timer_enable)
    i.timer_init                             0x08001848   Section        0  gd32f30x_timer.o(i.timer_init)
    i.timer_primary_output_config            0x080018e0   Section        0  gd32f30x_timer.o(i.timer_primary_output_config)
    i.timer_struct_para_init                 0x080018f8   Section        0  gd32f30x_timer.o(i.timer_struct_para_init)
    .constdata                               0x08001910   Section       48  cos_i.o(.constdata)
    C                                        0x08001910   Data          48  cos_i.o(.constdata)
    .constdata                               0x08001940   Section      200  rred.o(.constdata)
    pio2s                                    0x08001940   Data          48  rred.o(.constdata)
    twooverpi                                0x08001970   Data         152  rred.o(.constdata)
    .constdata                               0x08001a08   Section       40  sin_i.o(.constdata)
    S                                        0x08001a08   Data          40  sin_i.o(.constdata)
    .data                                    0x20000000   Section        2  delay.o(.data)
    g_fac_us                                 0x20000000   Data           2  delay.o(.data)
    .data                                    0x20000004   Section        4  errno.o(.data)
    _errno                                   0x20000004   Data           4  errno.o(.data)
    STACK                                    0x20000008   Section     1024  startup_gd32f30x_hd.o(STACK)

    Global Symbols

    Symbol Name                              Value     Ov Type        Size  Object(Section)

    BuildAttributes$$THM_ISAv4$E$P$D$K$B$S$7EM$VFPi3$EXTD16$VFPS$VFMA$PE$A:L22UL41UL21$X:L11$S22US41US21$IEEE1$IW$USESV6$~STKCKD$USESV7$~SHL$OTIME$ROPI$IEEEX$EBA8$MICROLIB$REQ8$PRES8$EABIv2 0x00000000   Number         0  anon$$obj.o ABSOLUTE
    __ARM_use_no_argv                        0x00000000   Number         0  main.o ABSOLUTE
    __cpp_initialize__aeabi_                  - Undefined Weak Reference
    __cxa_finalize                            - Undefined Weak Reference
    __decompress                              - Undefined Weak Reference
    _clock_init                               - Undefined Weak Reference
    _microlib_exit                            - Undefined Weak Reference
    __Vectors_Size                           0x00000130   Number         0  startup_gd32f30x_hd.o ABSOLUTE
    __Vectors                                0x08000000   Data           4  startup_gd32f30x_hd.o(RESET)
    __Vectors_End                            0x08000130   Data           0  startup_gd32f30x_hd.o(RESET)
    __main                                   0x08000131   Thumb Code     0  entry.o(.ARM.Collect$$$$00000000)
    _main_stk                                0x08000131   Thumb Code     0  entry2.o(.ARM.Collect$$$$00000001)
    _main_scatterload                        0x08000135   Thumb Code     0  entry5.o(.ARM.Collect$$$$00000004)
    __main_after_scatterload                 0x08000139   Thumb Code     0  entry5.o(.ARM.Collect$$$$00000004)
    _main_clock                              0x08000139   Thumb Code     0  entry7b.o(.ARM.Collect$$$$00000008)
    _main_cpp_init                           0x08000139   Thumb Code     0  entry8b.o(.ARM.Collect$$$$0000000A)
    _main_init                               0x08000139   Thumb Code     0  entry9a.o(.ARM.Collect$$$$0000000B)
    __rt_final_cpp                           0x08000141   Thumb Code     0  entry10a.o(.ARM.Collect$$$$0000000D)
    __rt_final_exit                          0x08000141   Thumb Code     0  entry11a.o(.ARM.Collect$$$$0000000F)
    Reset_Handler                            0x08000145   Thumb Code     8  startup_gd32f30x_hd.o(.text)
    NMI_Handler                              0x0800014d   Thumb Code     2  startup_gd32f30x_hd.o(.text)
    HardFault_Handler                        0x0800014f   Thumb Code     2  startup_gd32f30x_hd.o(.text)
    MemManage_Handler                        0x08000151   Thumb Code     2  startup_gd32f30x_hd.o(.text)
    BusFault_Handler                         0x08000153   Thumb Code     2  startup_gd32f30x_hd.o(.text)
    UsageFault_Handler                       0x08000155   Thumb Code     2  startup_gd32f30x_hd.o(.text)
    SVC_Handler                              0x08000157   Thumb Code     2  startup_gd32f30x_hd.o(.text)
    DebugMon_Handler                         0x08000159   Thumb Code     2  startup_gd32f30x_hd.o(.text)
    PendSV_Handler                           0x0800015b   Thumb Code     2  startup_gd32f30x_hd.o(.text)
    SysTick_Handler                          0x0800015d   Thumb Code     2  startup_gd32f30x_hd.o(.text)
    ADC0_1_IRQHandler                        0x0800015f   Thumb Code     0  startup_gd32f30x_hd.o(.text)
    ADC2_IRQHandler                          0x0800015f   Thumb Code     0  startup_gd32f30x_hd.o(.text)
    CAN0_EWMC_IRQHandler                     0x0800015f   Thumb Code     0  startup_gd32f30x_hd.o(.text)
    CAN0_RX1_IRQHandler                      0x0800015f   Thumb Code     0  startup_gd32f30x_hd.o(.text)
    DMA0_Channel0_IRQHandler                 0x0800015f   Thumb Code     0  startup_gd32f30x_hd.o(.text)
    DMA0_Channel1_IRQHandler                 0x0800015f   Thumb Code     0  startup_gd32f30x_hd.o(.text)
    DMA0_Channel2_IRQHandler                 0x0800015f   Thumb Code     0  startup_gd32f30x_hd.o(.text)
    DMA0_Channel3_IRQHandler                 0x0800015f   Thumb Code     0  startup_gd32f30x_hd.o(.text)
    DMA0_Channel4_IRQHandler                 0x0800015f   Thumb Code     0  startup_gd32f30x_hd.o(.text)
    DMA0_Channel5_IRQHandler                 0x0800015f   Thumb Code     0  startup_gd32f30x_hd.o(.text)
    DMA0_Channel6_IRQHandler                 0x0800015f   Thumb Code     0  startup_gd32f30x_hd.o(.text)
    DMA1_Channel0_IRQHandler                 0x0800015f   Thumb Code     0  startup_gd32f30x_hd.o(.text)
    DMA1_Channel1_IRQHandler                 0x0800015f   Thumb Code     0  startup_gd32f30x_hd.o(.text)
    DMA1_Channel2_IRQHandler                 0x0800015f   Thumb Code     0  startup_gd32f30x_hd.o(.text)
    DMA1_Channel3_4_IRQHandler               0x0800015f   Thumb Code     0  startup_gd32f30x_hd.o(.text)
    EXMC_IRQHandler                          0x0800015f   Thumb Code     0  startup_gd32f30x_hd.o(.text)
    EXTI0_IRQHandler                         0x0800015f   Thumb Code     0  startup_gd32f30x_hd.o(.text)
    EXTI10_15_IRQHandler                     0x0800015f   Thumb Code     0  startup_gd32f30x_hd.o(.text)
    EXTI1_IRQHandler                         0x0800015f   Thumb Code     0  startup_gd32f30x_hd.o(.text)
    EXTI2_IRQHandler                         0x0800015f   Thumb Code     0  startup_gd32f30x_hd.o(.text)
    EXTI3_IRQHandler                         0x0800015f   Thumb Code     0  startup_gd32f30x_hd.o(.text)
    EXTI4_IRQHandler                         0x0800015f   Thumb Code     0  startup_gd32f30x_hd.o(.text)
    EXTI5_9_IRQHandler                       0x0800015f   Thumb Code     0  startup_gd32f30x_hd.o(.text)
    FMC_IRQHandler                           0x0800015f   Thumb Code     0  startup_gd32f30x_hd.o(.text)
    I2C0_ER_IRQHandler                       0x0800015f   Thumb Code     0  startup_gd32f30x_hd.o(.text)
    I2C0_EV_IRQHandler                       0x0800015f   Thumb Code     0  startup_gd32f30x_hd.o(.text)
    I2C1_ER_IRQHandler                       0x0800015f   Thumb Code     0  startup_gd32f30x_hd.o(.text)
    I2C1_EV_IRQHandler                       0x0800015f   Thumb Code     0  startup_gd32f30x_hd.o(.text)
    LVD_IRQHandler                           0x0800015f   Thumb Code     0  startup_gd32f30x_hd.o(.text)
    RCU_CTC_IRQHandler                       0x0800015f   Thumb Code     0  startup_gd32f30x_hd.o(.text)
    RTC_Alarm_IRQHandler                     0x0800015f   Thumb Code     0  startup_gd32f30x_hd.o(.text)
    RTC_IRQHandler                           0x0800015f   Thumb Code     0  startup_gd32f30x_hd.o(.text)
    SDIO_IRQHandler                          0x0800015f   Thumb Code     0  startup_gd32f30x_hd.o(.text)
    SPI0_IRQHandler                          0x0800015f   Thumb Code     0  startup_gd32f30x_hd.o(.text)
    SPI1_IRQHandler                          0x0800015f   Thumb Code     0  startup_gd32f30x_hd.o(.text)
    SPI2_IRQHandler                          0x0800015f   Thumb Code     0  startup_gd32f30x_hd.o(.text)
    TAMPER_IRQHandler                        0x0800015f   Thumb Code     0  startup_gd32f30x_hd.o(.text)
    TIMER0_BRK_IRQHandler                    0x0800015f   Thumb Code     0  startup_gd32f30x_hd.o(.text)
    TIMER0_Channel_IRQHandler                0x0800015f   Thumb Code     0  startup_gd32f30x_hd.o(.text)
    TIMER0_TRG_CMT_IRQHandler                0x0800015f   Thumb Code     0  startup_gd32f30x_hd.o(.text)
    TIMER0_UP_IRQHandler                     0x0800015f   Thumb Code     0  startup_gd32f30x_hd.o(.text)
    TIMER1_IRQHandler                        0x0800015f   Thumb Code     0  startup_gd32f30x_hd.o(.text)
    TIMER2_IRQHandler                        0x0800015f   Thumb Code     0  startup_gd32f30x_hd.o(.text)
    TIMER3_IRQHandler                        0x0800015f   Thumb Code     0  startup_gd32f30x_hd.o(.text)
    TIMER4_IRQHandler                        0x0800015f   Thumb Code     0  startup_gd32f30x_hd.o(.text)
    TIMER5_IRQHandler                        0x0800015f   Thumb Code     0  startup_gd32f30x_hd.o(.text)
    TIMER6_IRQHandler                        0x0800015f   Thumb Code     0  startup_gd32f30x_hd.o(.text)
    TIMER7_BRK_IRQHandler                    0x0800015f   Thumb Code     0  startup_gd32f30x_hd.o(.text)
    TIMER7_Channel_IRQHandler                0x0800015f   Thumb Code     0  startup_gd32f30x_hd.o(.text)
    TIMER7_TRG_CMT_IRQHandler                0x0800015f   Thumb Code     0  startup_gd32f30x_hd.o(.text)
    TIMER7_UP_IRQHandler                     0x0800015f   Thumb Code     0  startup_gd32f30x_hd.o(.text)
    UART3_IRQHandler                         0x0800015f   Thumb Code     0  startup_gd32f30x_hd.o(.text)
    UART4_IRQHandler                         0x0800015f   Thumb Code     0  startup_gd32f30x_hd.o(.text)
    USART0_IRQHandler                        0x0800015f   Thumb Code     0  startup_gd32f30x_hd.o(.text)
    USART1_IRQHandler                        0x0800015f   Thumb Code     0  startup_gd32f30x_hd.o(.text)
    USART2_IRQHandler                        0x0800015f   Thumb Code     0  startup_gd32f30x_hd.o(.text)
    USBD_HP_CAN0_TX_IRQHandler               0x0800015f   Thumb Code     0  startup_gd32f30x_hd.o(.text)
    USBD_LP_CAN0_RX0_IRQHandler              0x0800015f   Thumb Code     0  startup_gd32f30x_hd.o(.text)
    USBD_WKUP_IRQHandler                     0x0800015f   Thumb Code     0  startup_gd32f30x_hd.o(.text)
    WWDGT_IRQHandler                         0x0800015f   Thumb Code     0  startup_gd32f30x_hd.o(.text)
    __aeabi_dmul                             0x08000169   Thumb Code   228  dmul.o(.text)
    __aeabi_ddiv                             0x0800024d   Thumb Code   222  ddiv.o(.text)
    __aeabi_ui2d                             0x0800032b   Thumb Code    26  dfltui.o(.text)
    __aeabi_d2uiz                            0x08000345   Thumb Code    50  dfixui.o(.text)
    __aeabi_llsr                             0x08000377   Thumb Code    32  llushr.o(.text)
    _ll_ushift_r                             0x08000377   Thumb Code     0  llushr.o(.text)
    __I$use$fp                               0x08000397   Thumb Code     0  iusefp.o(.text)
    _double_round                            0x08000397   Thumb Code    30  depilogue.o(.text)
    _double_epilogue                         0x080003b5   Thumb Code   156  depilogue.o(.text)
    __scatterload                            0x08000451   Thumb Code    28  init.o(.text)
    __scatterload_rt2                        0x08000451   Thumb Code     0  init.o(.text)
    __aeabi_llsl                             0x08000475   Thumb Code    30  llshl.o(.text)
    _ll_shift_l                              0x08000475   Thumb Code     0  llshl.o(.text)
    __aeabi_dadd                             0x08000493   Thumb Code   322  dadd.o(.text)
    __aeabi_dsub                             0x080005d5   Thumb Code     6  dadd.o(.text)
    __aeabi_drsub                            0x080005db   Thumb Code     6  dadd.o(.text)
    __aeabi_i2d                              0x080005e1   Thumb Code    34  dflti.o(.text)
    __aeabi_d2iz                             0x08000603   Thumb Code    62  dfixi.o(.text)
    __aeabi_lasr                             0x08000641   Thumb Code    36  llsshr.o(.text)
    _ll_sshift_r                             0x08000641   Thumb Code     0  llsshr.o(.text)
    PwmDrvTest                               0x08000675   Thumb Code   132  timer_drv.o(i.PwmDrvTest)
    SystemInit                               0x0800070d   Thumb Code   156  system_gd32f30x.o(i.SystemInit)
    TimerDrvInit                             0x08000829   Thumb Code    18  timer_drv.o(i.TimerDrvInit)
    __ARM_fpclassify                         0x0800085d   Thumb Code    48  fpclassify.o(i.__ARM_fpclassify)
    __hardfp_sin                             0x08000891   Thumb Code   180  sin.o(i.__hardfp_sin)
    __ieee754_rem_pio2                       0x08000959   Thumb Code   938  rred.o(i.__ieee754_rem_pio2)
    __kernel_cos                             0x08000d91   Thumb Code   322  cos_i.o(i.__kernel_cos)
    __kernel_poly                            0x08000f01   Thumb Code   248  poly.o(i.__kernel_poly)
    __kernel_sin                             0x08000ff9   Thumb Code   280  sin_i.o(i.__kernel_sin)
    __mathlib_dbl_infnan                     0x08001129   Thumb Code    20  dunder.o(i.__mathlib_dbl_infnan)
    __mathlib_dbl_invalid                    0x08001141   Thumb Code    24  dunder.o(i.__mathlib_dbl_invalid)
    __mathlib_dbl_underflow                  0x08001161   Thumb Code    24  dunder.o(i.__mathlib_dbl_underflow)
    __scatterload_copy                       0x08001181   Thumb Code    14  handlers.o(i.__scatterload_copy)
    __scatterload_null                       0x0800118f   Thumb Code     2  handlers.o(i.__scatterload_null)
    __scatterload_zeroinit                   0x08001191   Thumb Code    14  handlers.o(i.__scatterload_zeroinit)
    __set_errno                              0x080011a1   Thumb Code     6  errno.o(i.__set_errno)
    delay_init                               0x080011ad   Thumb Code    74  delay.o(i.delay_init)
    delay_ms                                 0x08001205   Thumb Code    50  delay.o(i.delay_ms)
    delay_us                                 0x0800123d   Thumb Code    72  delay.o(i.delay_us)
    fabs                                     0x08001289   Thumb Code    24  fabs.o(i.fabs)
    gpio_init                                0x080012a1   Thumb Code   188  gd32f30x_gpio.o(i.gpio_init)
    main                                     0x0800135d   Thumb Code    12  main.o(i.main)
    rcu_periph_clock_enable                  0x08001369   Thumb Code    28  gd32f30x_rcu.o(i.rcu_periph_clock_enable)
    rcu_periph_reset_disable                 0x08001389   Thumb Code    28  gd32f30x_rcu.o(i.rcu_periph_reset_disable)
    rcu_periph_reset_enable                  0x080013a9   Thumb Code    28  gd32f30x_rcu.o(i.rcu_periph_reset_enable)
    timer_channel_output_config              0x080014e5   Thumb Code   484  gd32f30x_timer.o(i.timer_channel_output_config)
    timer_channel_output_mode_config         0x080016d1   Thumb Code    90  gd32f30x_timer.o(i.timer_channel_output_mode_config)
    timer_channel_output_pulse_value_config  0x0800172b   Thumb Code    38  gd32f30x_timer.o(i.timer_channel_output_pulse_value_config)
    timer_channel_output_struct_para_init    0x08001751   Thumb Code    16  gd32f30x_timer.o(i.timer_channel_output_struct_para_init)
    timer_deinit                             0x08001761   Thumb Code   210  gd32f30x_timer.o(i.timer_deinit)
    timer_enable                             0x0800183d   Thumb Code    10  gd32f30x_timer.o(i.timer_enable)
    timer_init                               0x08001849   Thumb Code   122  gd32f30x_timer.o(i.timer_init)
    timer_primary_output_config              0x080018e1   Thumb Code    24  gd32f30x_timer.o(i.timer_primary_output_config)
    timer_struct_para_init                   0x080018f9   Thumb Code    22  gd32f30x_timer.o(i.timer_struct_para_init)
    Region$$Table$$Base                      0x08001a30   Number         0  anon$$obj.o(Region$$Table)
    Region$$Table$$Limit                     0x08001a50   Number         0  anon$$obj.o(Region$$Table)
    __initial_sp                             0x20000408   Data           0  startup_gd32f30x_hd.o(STACK)



==============================================================================

Memory Map of the image

  Image Entry point : 0x08000131

  Load Region LR_IROM1 (Base: 0x08000000, Size: 0x00001a58, Max: 0x00040000, ABSOLUTE)

    Execution Region ER_IROM1 (Exec base: 0x08000000, Load base: 0x08000000, Size: 0x00001a50, Max: 0x00040000, ABSOLUTE)

    Exec Addr    Load Addr    Size         Type   Attr      Idx    E Section Name        Object

    0x08000000   0x08000000   0x00000130   Data   RO          208    RESET               startup_gd32f30x_hd.o
    0x08000130   0x08000130   0x00000000   Code   RO         1494  * .ARM.Collect$$$$00000000  mc_w.l(entry.o)
    0x08000130   0x08000130   0x00000004   Code   RO         1533    .ARM.Collect$$$$00000001  mc_w.l(entry2.o)
    0x08000134   0x08000134   0x00000004   Code   RO         1536    .ARM.Collect$$$$00000004  mc_w.l(entry5.o)
    0x08000138   0x08000138   0x00000000   Code   RO         1538    .ARM.Collect$$$$00000008  mc_w.l(entry7b.o)
    0x08000138   0x08000138   0x00000000   Code   RO         1540    .ARM.Collect$$$$0000000A  mc_w.l(entry8b.o)
    0x08000138   0x08000138   0x00000008   Code   RO         1541    .ARM.Collect$$$$0000000B  mc_w.l(entry9a.o)
    0x08000140   0x08000140   0x00000000   Code   RO         1543    .ARM.Collect$$$$0000000D  mc_w.l(entry10a.o)
    0x08000140   0x08000140   0x00000000   Code   RO         1545    .ARM.Collect$$$$0000000F  mc_w.l(entry11a.o)
    0x08000140   0x08000140   0x00000004   Code   RO         1534    .ARM.Collect$$$$00002712  mc_w.l(entry2.o)
    0x08000144   0x08000144   0x00000024   Code   RO          209    .text               startup_gd32f30x_hd.o
    0x08000168   0x08000168   0x000000e4   Code   RO         1497    .text               mf_w.l(dmul.o)
    0x0800024c   0x0800024c   0x000000de   Code   RO         1499    .text               mf_w.l(ddiv.o)
    0x0800032a   0x0800032a   0x0000001a   Code   RO         1501    .text               mf_w.l(dfltui.o)
    0x08000344   0x08000344   0x00000032   Code   RO         1503    .text               mf_w.l(dfixui.o)
    0x08000376   0x08000376   0x00000020   Code   RO         1547    .text               mc_w.l(llushr.o)
    0x08000396   0x08000396   0x00000000   Code   RO         1556    .text               mc_w.l(iusefp.o)
    0x08000396   0x08000396   0x000000ba   Code   RO         1557    .text               mf_w.l(depilogue.o)
    0x08000450   0x08000450   0x00000024   Code   RO         1571    .text               mc_w.l(init.o)
    0x08000474   0x08000474   0x0000001e   Code   RO         1573    .text               mc_w.l(llshl.o)
    0x08000492   0x08000492   0x0000014e   Code   RO         1575    .text               mf_w.l(dadd.o)
    0x080005e0   0x080005e0   0x00000022   Code   RO         1577    .text               mf_w.l(dflti.o)
    0x08000602   0x08000602   0x0000003e   Code   RO         1579    .text               mf_w.l(dfixi.o)
    0x08000640   0x08000640   0x00000024   Code   RO         1581    .text               mc_w.l(llsshr.o)
    0x08000664   0x08000664   0x0000000e   Code   RO            1    i.AllDrvInit        main.o
    0x08000672   0x08000672   0x00000002   PAD
    0x08000674   0x08000674   0x00000098   Code   RO           31    i.PwmDrvTest        timer_drv.o
    0x0800070c   0x0800070c   0x000000a8   Code   RO          216    i.SystemInit        system_gd32f30x.o
    0x080007b4   0x080007b4   0x00000074   Code   RO           32    i.TimeInit          timer_drv.o
    0x08000828   0x08000828   0x00000012   Code   RO           33    i.TimerDrvInit      timer_drv.o
    0x0800083a   0x0800083a   0x00000002   PAD
    0x0800083c   0x0800083c   0x00000020   Code   RO           34    i.TimerGpioInit     timer_drv.o
    0x0800085c   0x0800085c   0x00000030   Code   RO         1567    i.__ARM_fpclassify  m_wm.l(fpclassify.o)
    0x0800088c   0x0800088c   0x00000004   PAD
    0x08000890   0x08000890   0x000000c8   Code   RO         1482    i.__hardfp_sin      m_wm.l(sin.o)
    0x08000958   0x08000958   0x00000438   Code   RO         1522    i.__ieee754_rem_pio2  m_wm.l(rred.o)
    0x08000d90   0x08000d90   0x00000170   Code   RO         1505    i.__kernel_cos      m_wm.l(cos_i.o)
    0x08000f00   0x08000f00   0x000000f8   Code   RO         1569    i.__kernel_poly     m_wm.l(poly.o)
    0x08000ff8   0x08000ff8   0x00000130   Code   RO         1527    i.__kernel_sin      m_wm.l(sin_i.o)
    0x08001128   0x08001128   0x00000014   Code   RO         1509    i.__mathlib_dbl_infnan  m_wm.l(dunder.o)
    0x0800113c   0x0800113c   0x00000004   PAD
    0x08001140   0x08001140   0x00000020   Code   RO         1511    i.__mathlib_dbl_invalid  m_wm.l(dunder.o)
    0x08001160   0x08001160   0x00000020   Code   RO         1514    i.__mathlib_dbl_underflow  m_wm.l(dunder.o)
    0x08001180   0x08001180   0x0000000e   Code   RO         1585    i.__scatterload_copy  mc_w.l(handlers.o)
    0x0800118e   0x0800118e   0x00000002   Code   RO         1586    i.__scatterload_null  mc_w.l(handlers.o)
    0x08001190   0x08001190   0x0000000e   Code   RO         1587    i.__scatterload_zeroinit  mc_w.l(handlers.o)
    0x0800119e   0x0800119e   0x00000002   PAD
    0x080011a0   0x080011a0   0x0000000c   Code   RO         1551    i.__set_errno       mc_w.l(errno.o)
    0x080011ac   0x080011ac   0x00000058   Code   RO          170    i.delay_init        delay.o
    0x08001204   0x08001204   0x00000038   Code   RO          171    i.delay_ms          delay.o
    0x0800123c   0x0800123c   0x0000004c   Code   RO          172    i.delay_us          delay.o
    0x08001288   0x08001288   0x00000018   Code   RO         1563    i.fabs              m_wm.l(fabs.o)
    0x080012a0   0x080012a0   0x000000bc   Code   RO         1364    i.gpio_init         gd32f30x_gpio.o
    0x0800135c   0x0800135c   0x0000000c   Code   RO            2    i.main              main.o
    0x08001368   0x08001368   0x00000020   Code   RO          809    i.rcu_periph_clock_enable  gd32f30x_rcu.o
    0x08001388   0x08001388   0x00000020   Code   RO          812    i.rcu_periph_reset_disable  gd32f30x_rcu.o
    0x080013a8   0x080013a8   0x00000020   Code   RO          813    i.rcu_periph_reset_enable  gd32f30x_rcu.o
    0x080013c8   0x080013c8   0x00000114   Code   RO          217    i.system_clock_120m_hxtal  system_gd32f30x.o
    0x080014dc   0x080014dc   0x00000008   Code   RO          218    i.system_clock_config  system_gd32f30x.o
    0x080014e4   0x080014e4   0x000001ec   Code   RO          288    i.timer_channel_output_config  gd32f30x_timer.o
    0x080016d0   0x080016d0   0x0000005a   Code   RO          290    i.timer_channel_output_mode_config  gd32f30x_timer.o
    0x0800172a   0x0800172a   0x00000026   Code   RO          292    i.timer_channel_output_pulse_value_config  gd32f30x_timer.o
    0x08001750   0x08001750   0x00000010   Code   RO          295    i.timer_channel_output_struct_para_init  gd32f30x_timer.o
    0x08001760   0x08001760   0x000000dc   Code   RO          301    i.timer_deinit      gd32f30x_timer.o
    0x0800183c   0x0800183c   0x0000000a   Code   RO          306    i.timer_enable      gd32f30x_timer.o
    0x08001846   0x08001846   0x00000002   PAD
    0x08001848   0x08001848   0x00000098   Code   RO          316    i.timer_init        gd32f30x_timer.o
    0x080018e0   0x080018e0   0x00000018   Code   RO          331    i.timer_primary_output_config  gd32f30x_timer.o
    0x080018f8   0x080018f8   0x00000016   Code   RO          336    i.timer_struct_para_init  gd32f30x_timer.o
    0x0800190e   0x0800190e   0x00000002   PAD
    0x08001910   0x08001910   0x00000030   Data   RO         1506    .constdata          m_wm.l(cos_i.o)
    0x08001940   0x08001940   0x000000c8   Data   RO         1524    .constdata          m_wm.l(rred.o)
    0x08001a08   0x08001a08   0x00000028   Data   RO         1528    .constdata          m_wm.l(sin_i.o)
    0x08001a30   0x08001a30   0x00000020   Data   RO         1583    Region$$Table       anon$$obj.o


    Execution Region RW_IRAM1 (Exec base: 0x20000000, Load base: 0x08001a50, Size: 0x00000408, Max: 0x0000c000, ABSOLUTE)

    Exec Addr    Load Addr    Size         Type   Attr      Idx    E Section Name        Object

    0x20000000   0x08001a50   0x00000002   Data   RW          173    .data               delay.o
    0x20000002   0x08001a52   0x00000002   PAD
    0x20000004   0x08001a54   0x00000004   Data   RW         1552    .data               mc_w.l(errno.o)
    0x20000008        -       0x00000400   Zero   RW          206    STACK               startup_gd32f30x_hd.o


==============================================================================

Image component sizes


      Code (inc. data)   RO Data    RW Data    ZI Data      Debug   Object Name

       220         24          0          2          0      28354   delay.o
       188          0          0          0          0        868   gd32f30x_gpio.o
        96         12          0          0          0      18579   gd32f30x_rcu.o
      1064         48          0          0          0      21453   gd32f30x_timer.o
        26          0          0          0          0       5383   main.o
        36          8        304          0       1024        812   startup_gd32f30x_hd.o
       452         30          0          0          0       2397   system_gd32f30x.o
       318         32          0          0          0      21608   timer_drv.o

    ----------------------------------------------------------------------
      2408        154        336          4       1024      99454   Object Totals
         0          0         32          0          0          0   (incl. Generated)
         8          0          0          2          0          0   (incl. Padding)

    ----------------------------------------------------------------------

      Code (inc. data)   RO Data    RW Data    ZI Data      Debug   Library Member Name

       368         46         48          0          0        200   cos_i.o
        84         16          0          0          0        372   dunder.o
        24          0          0          0          0        124   fabs.o
        48          0          0          0          0        124   fpclassify.o
       248          0          0          0          0        152   poly.o
      1080        142        200          0          0        188   rred.o
       200         20          0          0          0        164   sin.o
       304         24         40          0          0        208   sin_i.o
         0          0          0          0          0          0   entry.o
         0          0          0          0          0          0   entry10a.o
         0          0          0          0          0          0   entry11a.o
         8          4          0          0          0          0   entry2.o
         4          0          0          0          0          0   entry5.o
         0          0          0          0          0          0   entry7b.o
         0          0          0          0          0          0   entry8b.o
         8          4          0          0          0          0   entry9a.o
        12          6          0          4          0         68   errno.o
        30          0          0          0          0          0   handlers.o
        36          8          0          0          0         68   init.o
         0          0          0          0          0          0   iusefp.o
        30          0          0          0          0         68   llshl.o
        36          0          0          0          0         68   llsshr.o
        32          0          0          0          0         68   llushr.o
       334          0          0          0          0        148   dadd.o
       222          0          0          0          0        100   ddiv.o
       186          0          0          0          0        176   depilogue.o
        62          0          0          0          0         80   dfixi.o
        50          0          0          0          0         76   dfixui.o
        34          0          0          0          0         76   dflti.o
        26          0          0          0          0         76   dfltui.o
       228          0          0          0          0         96   dmul.o

    ----------------------------------------------------------------------
      3704        270        288          4          0       2700   Library Totals
        10          0          0          0          0          0   (incl. Padding)

    ----------------------------------------------------------------------

      Code (inc. data)   RO Data    RW Data    ZI Data      Debug   Library Name

      2356        248        288          0          0       1532   m_wm.l
       196         22          0          4          0        340   mc_w.l
      1142          0          0          0          0        828   mf_w.l

    ----------------------------------------------------------------------
      3704        270        288          4          0       2700   Library Totals

    ----------------------------------------------------------------------

==============================================================================


      Code (inc. data)   RO Data    RW Data    ZI Data      Debug   

      6112        424        624          8       1024      98738   Grand Totals
      6112        424        624          8       1024      98738   ELF Image Totals
      6112        424        624          8          0          0   ROM Totals

==============================================================================

    Total RO  Size (Code + RO Data)                 6736 (   6.58kB)
    Total RW  Size (RW Data + ZI Data)              1032 (   1.01kB)
    Total ROM Size (Code + RO Data + RW Data)       6744 (   6.59kB)

==============================================================================

